:100000000C94B6020C94DE020C94DE020C94DE0218
:100010000C94DE020C94DE020C94DE020C94DE02E0
:100020000C94DE020C94DE020C94DE020C94DE02D0
:100030000C94DE020C94DE020C94DE020C94DE02C0
:100040000C948B0C0C94DE020C94510A0C942B0A29
:100050000C94DE020C94DE020C94DE020C94DE02A0
:100060000C94D50C0C94DE02000000002300260046
:1000700029005F00030304040304050C0BFFFE08C2
:10008000FE08FE01760345048B200500CC092108FB
:1000900082C4894B8C002208336D8B884A0023125E
:1000A0008744BC483012324582919029128CC4009A
:1000B0002410A53CAB58252209314524915A08004B
:1000C00025198AC41D914C228949122529224944A7
:1000D000128C486221492C2601261188C42CA9249F
:1000E00028894A233291126522012706316D8A013F
:1000F000280CA4B4BA504822D2260B06290CA4B46A
:100100008A604C498B280D002A0B555CAB949449AE
:10011000A610002B0A554CAB60A8140C012C084209
:10012000B4098A04002D06135C8A012E0622C40934
:10013000022F0C84C4BAA45828168AC500300B8537
:10014000449B89842F920900310984451BC9482F9B
:1001500004320D85449B8984221389628701330E02
:1001600085449B898422125228920900340C8544CC
:10017000AB95882432BA8906350C85448B8324C814
:1001800042914C00360D85449B89844691B04826A7
:1001900000370B84448B432C140B6901380E8544C3
:1001A0009B898422994858241300390D85449B89E2
:1001B000844542A34826003A0752C40912013B086D
:1001C00072B4091245023C0856CC4B91B2023D076D
:1001D00035548B6A013E0956CC0BB19222003F0D7B
:1001E00085449B899A481407C944004014A93CBD22
:1001F000A14C148D8428FA49228A43E4201200413C
:10020000108943CC38603C0D0943B253503222422E
:100210001087440C938A485252114944870800437E
:100220000E8744AC491A71AA18098628004412881E
:10023000C40C9B2C2493C82432894C228B980045F3
:100240000F86C40B8B282209912421514474461037
:1002500086C40B8B28228A48422449484602470F0D
:100260008744AC491A712AAA4962A24900481189F7
:10027000440D0A452692894E32914C249330490907
:1002800084C40A8A482F044A0C86C42B9A50459786
:100290009068044B1189C40C925A4C1494448B22DC
:1002A000990A69004C0B86C40B9A50A788E8004D48
:1002B000198B440E1A65368A4822A28824228A485D
:1002C00022A29052486522214E1488C40CD94416AB
:1002D0001A8528A10829348A496611004F0D8744E0
:1002E000AC598A8C9B24161B01500F87440C938AAF
:1002F00048229294A4421A005114983CAC612C24D8
:1003000093C824320945241152A21200520D88C408
:100310000C9B48A7584DA48532530C86C49B255A84
:10032000B1469A4C00540C86C48B8B9690501B059A
:1003300000551388C40CCA44169285642159481686
:1003400092C54800561288C40CCA441692C524416E
:1003500049501215CB0057198B440E8A642212851E
:1003600094429288242489486293A14C281301580E
:100370001188C40CCA44169A04C7C3C82826991009
:10038000591088C40CCA441693042551B12A090097
:100390005A0A86C48B9B6CB44D765B08A3348A8A58
:1003A0007E195C0C84C48A5830168C0563015D0884
:1003B000A3348A897E295E0B6554AB606C14499323
:1003C000055F0616340B03600723740A9100610869
:1003D00054C48A998462620D86C40BA116C98444F0
:1003E0009A4C00630B55449B8968268A4C00640B29
:1003F00086C4BBA1CA8965A200650955449B89E4EE
:100400002024660D85C4AA89242222C99428006765
:100410000C8634CBD048A26966BB00680B86C40B3F
:10042000A116C984C424690A84C41A9174A48500DD
:100430006A0AA3B41AB5892E14006B0C86440BA16A
:100440001609892451196C0884C48A91BE106D0E56
:100450005AC40D8948B24212914424056E0A56C40A
:100460000B89644262126F0A56C41B8A8849420192
:10047000700D76B40B896442225D843300710F776E
:10048000B49B8A482292484612A99000720954C42B
:100490000AC9490900730854C49A12A9027409735D
:1004A000449A88A4A224750956C40B119789027630
:1004B0000C56C48B894A4812138A00770F59448D11
:1004C000892E21892426114A4400780B56C48B8931
:1004D0004A4C165119790E76B48B894A4812138A00
:1004E0006642007A0955440B8B48C9007B0BA4B4C3
:1004F0002A89484526D2267C0781468B43007D0CFD
:10050000A4B40A99484D22D222027E0826DC9B8997
:10051000640200000004FFFF00000000000024004F
:1005200027002A0000000000250028002B000404FA
:10053000040404040404020202020202030303038B
:100540000303010204081020408001020408102067
:10055000010204081020000000080002010000034E
:1005600004070000000000000000C80E11241FBE98
:10057000CFEFD8E0DEBFCDBF11E0A0E0B1E0ECEE00
:10058000F2E202C005900D92A63AB107D9F723E036
:10059000A6EAB1E001C01D92A63CB207E1F712E065
:1005A000C6EBD2E004C02197FE010E946211C53B58
:1005B000D107C9F70E94A60F0C9474110C94000087
:1005C000662329F06A3019F0862F90E008958FEFA6
:1005D0009FEF08950F93DC01D8963C91B8EF3B9FB5
:1005E000400D1124FC0131AD213061F4631708F096
:1005F00047C022AD421708F043C001A8F2A9E02D80
:1006000021E03DC0023019F4621B6F5F04C003306B
:1006100011F4421B4F5FDC01DA965C91702F717010
:1006200000FD14C0451760F5260F261730F4631738
:1006300018F42FEF230F03C060E0631708F522239F
:10064000F9F0321708F4232F261B13C06317C0F4E8
:10065000240F241730F4451718F42FEF250F05C089
:1006600040E0451768F4222359F0521708F4252F6B
:10067000241BDC01D196ED91FC91D297072F0995AF
:100680000F910895CF93DF93FC0127A9822F880F44
:10069000880F880F82AFA081B18150968C915097BE
:1006A000803208F08FE1880F880F880F81AF30AD5E
:1006B000932F990F990F990F93AF51966C91519772
:1006C000432F50E0420F511DC62FD0E0C417D5076D
:1006D00014F4262F231B94AF492F38E0239F400D9D
:1006E0001124242F45AF30EF36AF54964D915C91D5
:1006F0005597413F510508F446AF56963C9137AFA8
:10070000DF01A05CBF4F1C9211968C9311969C93B5
:10071000ED5BFF4F2083DF91CF910895EF92FF9221
:100720000F931F93CF93DF93DC01942F9770E1E039
:10073000F0E0092E01C0EE0F0A94EAF71E2FED013A
:10074000CF58DF4F8881823028F47E2F813019F412
:1007500010E001C070E050E0487FD596ED90FC902D
:10076000D697ED91FC9111978089849FF001859F28
:10077000F00D1124E60FF11DEE0DFF1D01110CC04F
:100780002E0F8081872B812781932E13FACF1DC0D6
:10079000770F110F2223C9F03081372B3127308397
:1007A0009F5F977021509111F3CFD9968C91D99773
:1007B000E80FF11D8881823020F4813021F011E0B2
:1007C00002C011E0E7CF71E0E5CFDF91CF911F913B
:1007D0000F91FF90EF90089580E00895213039F057
:1007E00020F0223031F4861B0895860F0895841B73
:1007F0000895840F0895213039F020F0223031F42B
:10080000841B0895840F0895860F0895861B08950C
:100810005F926F927F928F929F92AF92BF92CF9290
:10082000DF92EF92FF920F931F93CF93DF936C01B0
:10083000F62E642EEC01C85BDF4F1C81BD804C019D
:1008400081E7880E911CEE80E11AAE2CFE1408F4AC
:10085000AF2C5B800C85202F4B2D612F8A810E944D
:10086000EE03782E202F4B2D612F852D0E94FB0348
:10087000482F662021F09A85D4019C9306C0998563
:10088000911111C09B85F4019083AA2061F0D601DB
:10089000D396ED91FC91D4970280F381E02D2A2D1F
:1008A000672DC6010995FE1420F0FE18B39410E0E0
:1008B000CACF1F0D1C83BD82DF91CF911F910F9175
:1008C000FF90EF90DF90CF90BF90AF909F908F9070
:1008D0007F906F905F900895DC0118964C91189767
:1008E000ED91FC911197249130E0042E02C03595D2
:1008F00027950A94E2F7862F840F883010F4E22FB0
:100900000EC031961196FC93EE939491E92F98E0E6
:10091000941B01C0EE0F9A95EAF7E22B88501896C7
:100920008C9381E090E001C0880F6A95EAF78150CE
:100930008E230895CF92DF92EF92FF920F931F9331
:10094000CF93DF936C01EB017B01E40EF51E00E019
:1009500010E0CE15DF0561F06991D601ED91FC91B3
:100960000190F081E02DC6010995080F191FF1CF04
:10097000C801DF91CF911F910F91FF90EF90DF9011
:10098000CF900895089580E090E008951F93CF934D
:10099000DF93EC01A881B9811C967C911C9768318A
:1009A00009F47BC030F4643109F46CC0673149F05C
:1009B000C9C0693109F4B5C0603209F0C3C06AE446
:1009C000BCC0A091D001B091D1018091CF01E09144
:1009D000CD01F091CE019091CB015091CC011091BD
:1009E000CA0170FD3AC0442309F4AAC0E901699123
:1009F0009E01415061110DC06C9168236C9368E0B9
:100A00007081752B70837081792370836150C1F779
:100A1000EACF78E0CC9167FF02C0C12B01C0C823A8
:100A2000CC93C081C52BC083660FC081C923C0830E
:100A3000715081F7D8CFE90169919E014150611150
:100A40000FC06C9168236C9368E070817923708388
:100A50007081752B70836150C1F74111ECCF70C06C
:100A600078E0CC9167FF02C0C12B01C0C823CC93B2
:100A7000C081C923C083660FC081C52BC08371505C
:100A800081F7EBCF11964C9169E40E94030EE88147
:100A9000F9814485417060E450C04C9169E40E9442
:100AA000030EA881B981EA85FB8520E030E012962B
:100AB0004C916CE2CE0109958B8D90E0FC01E25DDA
:100AC000FA4FE491F0E0EE0FFF1FEC5DFA4F259135
:100AD00034913093CE012093CD01FC01EE5BFA4FAF
:100AE000E491E093CC01E095E093CB018C8D90E014
:100AF000FC01E25DFA4FE491F0E0EE0FFF1FEC5DC8
:100B0000FA4F259134913093D1012093D001FC010B
:100B1000EE5BFA4FE491E093CA01E095E093CF01D8
:100B20000FC0EA85FB8520E030E013964C916CE223
:100B30000995E881F981418169E4CE010E94030EA3
:100B400081E001C080E0DF91CF911F9108950F9364
:100B50001F93CF93DF93EC01862F642F8C3268F4C0
:100B60008A3208F071C0883281F08932D9F570E09C
:100B700080E090E00E94510C67C08D32D1F090F17E
:100B800094EB980F9230E8F02DC08E01055E1F4F58
:100B9000D0E0F80181918F018F3F39F0D03110F40E
:100BA00061E001C062E00E94150CDF5FD63189F779
:100BB0004BC0433008F048C086E090E00197F1F761
:100BC00043C08F73C80FD11D411107C061E08B8DE9
:100BD0000E94150C60E08B8D11C062E08B8D0E942D
:100BE000150C32C0803470F18F73FE01E80FF11DD7
:100BF000238D2F3F49F1803120F4822F0E94E50B95
:100C000023C030E0F901EA5AFA4F8491F901EE5B12
:100C1000FA4F0491F901E25DFA4F1491112379F032
:100C200081110E94BC0BE12FF0E0EE0FFF1FE8598D
:100C3000FF4FA591B491EC91E02381E009F480E0AD
:100C40008E8B02C080E001C081E0DF91CF911F91C7
:100C50000F910895DC011696ED91FC91179720E015
:100C600030E040E069E10994DC011696ED91FC91D9
:100C7000179720E030E040E068E109949A01DC0138
:100C80001696ED91FC911797462F67E10994EF9224
:100C9000FF920F931F93CF93DF931F92CDB7DEB7D1
:100CA0007C018B01D8016C916731E1F078F46531FA
:100CB000A0F1F80141814983D7011696ED91FC918D
:100CC000179720E030E0C701099524C06A31A8F0E9
:100CD0006E3F19F5F8014181498369E2C7010E941D
:100CE000030E18C0F80181818983AE014F5F5F4F09
:100CF00061E0C7010E943E060DC00F5F1F4FD70184
:100D00001696ED91FC91179720E030E040E0C70186
:100D10000995C8CF0E5F1F4FC5CF0F90DF91CF91C0
:100D20001F910F91FF90EF900895462FDC011696CA
:100D3000ED91FC91179720E030E065E10994CF93A5
:100D4000DF931F92CDB7DEB76983BE016F5F7F4F20
:100D50000E94220A0F90DF91CF910895462FDC0167
:100D60001896ED91FC91199720E030E060E209942B
:100D7000FC01E60FF11D849190E0982F88273196B1
:100D8000E4918E0F911D08954F925F926F927F9222
:100D90008F929F92AF92BF92CF92DF92EF92FF928B
:100DA0000F931F93CF93DF931F92CDB7DEB72C0124
:100DB000062F142F7901FC01EC5AFF4F80818130FE
:100DC000C9F070F0823001F1833039F5F201EA5B4D
:100DD000FF4F0190F081E02DC2010995080F1DC061
:100DE000F201EA5BFF4F0190F081E02DC20109950D
:100DF000180F13C0F201EA5BFF4F0190F081E02D64
:100E0000C2010995081B09C0F201EA5BFF4F01907E
:100E1000F081E02DC2010995181BF201E65BFF4F3E
:100E200000833196108337978081918147962FEF09
:100E3000E216F10409F050F5E1E6EE16F10420F0B7
:100E4000F201E859FF4F07C0F1E4EF16F10438F062
:100E5000F201EA59FF4F20813181820F931F9C01DB
:100E60002F5F3F4FF9014491442309F4EEC0FC0188
:100E7000449150E04E155F0521F48C010E5F1F4F29
:100E800034C0F9012491820F911DE9CFF201E65996
:100E9000FF4FC080D180C80ED91E860160E0C60118
:100EA0000E94B806080F191F62E0C6010E94B8062A
:100EB000F4E0CF0ED11C8E159F0580F3F8018491CC
:100EC00090E0982F88273196E4918E2B009709F4B3
:100ED000BCC08E159F0519F40D5F1F4F06C0F801A9
:100EE0003296E4910E0F111DE9CF0115110509F499
:100EF000ACC07201F8E4EF0EF11CF701118300831E
:100F0000108671966081C7010E946C04F701868388
:100F100072966081C7010E946C04B82EF701878326
:100F20006201F1E7CF0ED11CF6019081F7019287A3
:100F300081E0911180E0F7018387F201E55AFF4FCC
:100F40001081612FC7010E946C049FEF910F01E097
:100F500010E0980101C0220F9A95EAF7782E721AD4
:100F6000F201E45AFF4FA0806A2DC7010E946C0471
:100F7000AA94480101C0880CAA94EAF76B2C680E69
:100F8000F201E35AFF4FA0806A2DC7010E946C0452
:100F9000AA9401C0000FAA94EAF7A82EA01AF7019C
:100FA000168111160CF08FC094858618292F482DB4
:100FB000672D828199830E94EE03082FF7018283B7
:100FC0009981292F482D672D83810E94FB03382F9B
:100FD000F70183839981913091F060F09230B1F004
:100FE0009330F9F4402F4B0D811B91E0930F31E0CA
:100FF000380F19C0402F410F982F9B0D14C0292F77
:101000002B1941E0400F982F910F09C091E0292F33
:10101000211B41E0400F892F8B19930F380F020FCE
:1010200002C0982F402FF201EE5BFF4F8081319676
:101030002081321718F4891720F409C0891708F0A5
:1010400042C0931708F03FC002C0A12C3CC0F2017F
:10105000E05CFF4F808131969081091718F4841766
:1010600018F404C0841778F5401768F5F701148266
:1010700015828201095A1F4F4201F8E58F0E911C1B
:10108000F8016081C7010E946C04682EF401608140
:10109000C7010E946C04782E40E0662DC2010E94B8
:1010A000080441E0672DC2010E94080461E0C70105
:1010B0000E946C048111F0CFF70185818B1504F338
:1010C0008285F60180838A2D0F90DF91CF911F9149
:1010D0000F91FF90EF90DF90CF90BF90AF909F90D7
:1010E0008F907F906F905F904F9008950F931F9314
:1010F000CF93DF93EC018C010C5F1F4FFC01E9588B
:10110000FF4F0190F081E02DC80109958E3F2FEF30
:10111000920780F4FE01E658FF4FC758DF4F9C014D
:1011200040816881C8010E94C406288190E0820F36
:10113000911D888381E090E0DF91CF911F910F9105
:101140000895BF92CF92DF92EF92FF920F931F9379
:10115000CF93DF9300D000D01F92CDB7DEB78C01C4
:10116000DC01D796BC90D797D896DC90D897ED91B4
:10117000FC91C188E12CF12CD801ED91FC911197E3
:101180008089D5964D915C91D6971C829D2D9E0DA0
:101190009D838B83B8E08B9FC00111248E9D9001AD
:1011A0008F9D300D9E9D300D1124CA01820F931F1B
:1011B0009A838983D8011496ED91FC9115979E012D
:1011C0002F5F3F4F41E06FE0C801099581E08E0D30
:1011D0008B1538F4BFEFEB1AFB0A8D2D8E0D8C1595
:1011E00058F20F900F900F900F900F90DF91CF91CA
:1011F0001F910F91FF90EF90DF90CF90BF900895D7
:10120000FC01A081B18150969C9147A9949FA001B7
:10121000112483E0440F551F8A95E1F760E070E0E8
:1012200085A996A90C946D11E3EDF2E084AF07A8AF
:10123000F0ADE02D0190F081E02D87ED92E0099472
:10124000CF92DF92EF92FF920F931F93CF93DF9392
:101250006C017A018B01C0E0D0E0CE15DF0589F08A
:10126000D8016D918D01D601ED91FC910190F08135
:10127000E02DC6010995892B11F47E0102C021964B
:10128000ECCFC701DF91CF911F910F91FF90EF90AD
:10129000DF90CF90089582ED91E00E94B40A21E0A2
:1012A000892B09F420E0822F0895EF92FF921F937B
:1012B000CF93DF931092EC028DE6E82E81E0F82EBA
:1012C00010E0DAE0C0E0F70161917F01E091D9021E
:1012D000F091DA0287ED92E009958F3FFFEF9F07CB
:1012E000E9F08E3F2FEF920771F39C014D2F6C2F89
:1012F00087ED92E00E94C40690912B03913049F053
:1013000030F0923041F0933039F4D81B05C0C80F4B
:1013100003C0D80F01C0C81B180FD5CF812FDF9194
:10132000CF911F91FF90EF900895CF93DF93009797
:1013300079F0FC0101900020E9F73197AF01481BDB
:10134000590BBC0182ED91E00E942009EC0102C022
:10135000C0E0D0E042E050E06AE771E082ED91E069
:101360000E9420098C0F9D1FDF91CF9108950E944C
:101370006811EF92FF920F931F93CF93DF93EC01CD
:1013800081E0888F9B8D8C8D981305C0E889F98941
:10139000808185FD24C0F62E0B8D10E00F5F1F4F5E
:1013A0000F731127E02E8C8DE8120CC00FB607FCCE
:1013B000FACFE889F989808185FFF5CFCE010E94B7
:1013C0009B0BF1CF8B8DFE01E80FF11DE35AFF4F10
:1013D000F0820B8FEA89FB898081806207C0EE89E9
:1013E000FF896083E889F98980818064808381E056
:1013F00090E0DF91CF911F910F91FF90EF900895B2
:10140000CF93DF93EC01888D8823C9F0EA89FB89AB
:10141000808185FD05C0A889B9898C9186FD0FC0A2
:101420000FB607FCF5CF808185FFF2CFA889B98977
:101430008C9185FFEDCFCE010E949B0BE7CFDF9112
:10144000CF9108959B01DC011896ED91FC911997BD
:1014500041E067E109941F920F920FB60F92112499
:101460002F933F934F935F936F937F938F939F93AC
:10147000AF93BF93EF93FF9382ED91E00E949B0B9C
:10148000FF91EF91BF91AF919F918F917F916F915C
:101490005F914F913F912F910F900FBE0F901F9032
:1014A00018951F920F920FB60F9211242F938F93BE
:1014B0009F93EF93FF93E091E201F091E30180812C
:1014C000E091E801F091E90182FD12C090818091E4
:1014D000EB018F5F8F732091EC01821751F0E09147
:1014E000EB01F0E0EE52FE4F958F8093EB0101C0CF
:1014F0008081FF91EF919F918F912F910F900FBE5F
:101500000F901F901895FC01538D448D252F30E0CE
:10151000842F90E0821B930B541710F0CF96089500
:1015200001970895FC01918D828D981761F0828D4D
:10153000DF01A80FB11D5D968C91928D9F5F9F7307
:10154000928F90E008958FEF9FEF0895FC01918DA9
:10155000828D981731F0828DE80FF11D858D90E016
:1015600008958FEF9FEF0895FC01918D228D892FB3
:1015700090E0805C9F4F821B91098F73992708959B
:1015800080E090E0892B29F00E944B0981110C9496
:10159000000008953FB7F8948091C2039091C3036F
:1015A000A091C403B091C50326B5A89B05C02F3FE9
:1015B00019F00196A11DB11D3FBFBA2FA92F982F79
:1015C0008827820F911DA11DB11DBC01CD0143E0F3
:1015D000660F771F881F991F4A95D1F7089585EDEB
:1015E0008093BC008091BC0084FDFCCF10929703D7
:1015F000089540917103262F30E0240F311D2132D0
:101600003105DCF4209197032430C9F4FC0180E01B
:1016100090E0861758F4309171032191DC01A15BB1
:10162000BC4FA30FB11D2C930196F3CF8091710392
:10163000680F6093710380E0089581E0089582E06F
:10164000089508958FEF9FEF08958FEF9FEF08950E
:1016500080914E0390E09195819591090895CF93E3
:10166000DF9300D0CDB7DEB7CB01642F49835A8317
:101670000E94F90A4981842F5A81952F0F900F906B
:10168000DF91CF910895CF93DF931F92CDB7DEB74F
:10169000698361E0CE0101960E94F90A81E090E041
:1016A0000F90DF91CF91089580E00895EF92FF921F
:1016B0000F931F93CF93DF9300D0CDB7DEB77C019C
:1016C000162F042F663159F028F46431C9F06531C2
:1016D00031F027C0673169F06A3118F511C060E058
:1016E000C7010E94AE06602FC7010E949F0681E0DD
:1016F00019C061E029833A830E94AE063A812981AC
:10170000D7011896ED91FC911997402F612FC701D1
:101710000F900F90DF91CF911F910F91FF90EF905D
:10172000099480E00F900F90DF91CF911F910F915E
:10173000FF90EF900895FC01848DDF01A80FB11D8B
:10174000A35ABF4F2C91848D90E001968F739927F7
:10175000848FA689B7892C93A089B1898C918064E4
:101760008C93938D848D981306C00288F389E02DA5
:1017700080818F7D80830895833081F028F48130CB
:1017800099F08230A1F008958730A9F08830B9F03F
:101790008430D1F4809180008F7D03C080918000DF
:1017A0008F7780938000089584B58F7702C084B5C9
:1017B0008F7D84BD08958091B0008F7703C08091A4
:1017C000B0008F7D8093B00008951F93CF93DF9377
:1017D000282F30E0F901EA5AFA4F8491F901EE5BC3
:1017E000FA4FD491F901E25DFA4FC491CC23C9F0CC
:1017F000162F81110E94BC0BEC2FF0E0EE0FFF1FA3
:10180000EC5DFA4FA591B4918FB7F894111105C012
:101810009C91ED2FE095E92302C0EC91ED2BEC9328
:101820008FBFDF91CF911F910895CF93DF9390E009
:10183000FC01EE5BFA4F2491FC01E25DFA4F8491CA
:10184000882361F190E0880F991FFC01E65EFA4F52
:10185000C591D491FC01EC5DFA4FA591B491611151
:1018600009C09FB7F8948881209582238883EC91E2
:101870002E230BC0623061F49FB7F8943881822F19
:10188000809583238883EC912E2B2C939FBF06C0D9
:101890008FB7F894E8812E2B28838FBFDF91CF91EB
:1018A00008958F929F92AF92BF92CF92DF92EF9264
:1018B000FF926B017C010E94CA0A4B015C01C114BA
:1018C000D104E104F104F1F00E94CA0ADC01CB0169
:1018D00088199909AA09BB09883E9340A105B10559
:1018E00070F321E0C21AD108E108F10888EE880EF1
:1018F00083E0981EA11CB11CC114D104E104F104C1
:1019000019F7DDCFFF90EF90DF90CF90BF90AF90B1
:101910009F908F9008951F920F920FB60F921124EF
:101920002F933F938F939F93AF93BF938091BE0369
:101930009091BF03A091C003B091C1033091BD034A
:1019400026E0230F2D3720F40296A11DB11D05C0FE
:1019500029E8230F0396A11DB11D2093BD03809399
:10196000BE039093BF03A093C003B093C1038091C3
:10197000C2039091C303A091C403B091C503019623
:10198000A11DB11D8093C2039093C303A093C40310
:10199000B093C503BF91AF919F918F913F912F91CC
:1019A0000F900FBE0F901F9018951F920F920FB6B9
:1019B0000F9211242F933F934F935F936F937F93D5
:1019C0008F939F93AF93BF93EF93FF938091B90051
:1019D000887F803609F49CC068F5883209F45BC0C2
:1019E00090F4803109F454C038F4882309F4F6C027
:1019F000883009F44DC0F6C0883109F44CC08032FB
:101A000009F45DC0EFC0803409F468C048F4803345
:101A100009F455C0883309F0E5C080939603D8C017
:101A2000803509F44FC0883509F45DC0883409F069
:101A3000D9C0D6C0883909F4C7C0A8F4883709F4DA
:101A400067C038F4883609F463C0803709F460C091
:101A5000C9C0883809F4B8C0803909F45FC080383B
:101A600009F0C0C05BC0803B09F486C038F4803AFE
:101A700009F466C0883A09F47FC0B4C0803C09F418
:101A8000A7C0883C09F4A4C0883B09F48AC0AAC056
:101A90008091BC0310C09091BB038091BA0398174A
:101AA00070F5E091BB0381E08E0F8093BB03F0E003
:101AB000E656FC4F80818093BB0085EC86C0809306
:101AC00096038EC0E091BB0381E08E0F8093BB0331
:101AD0008091BB00F0E0E656FC4F80839091BB0301
:101AE0008091BA036EC0E091BB0381E08E0F8093BA
:101AF000BB038091BB00F0E0E656FC4F80838091F1
:101B0000990381116DC081E08093980384EA61C0DC
:101B100083E08093970310929503CFCF8091950334
:101B2000803208F051C0E091950381E08E0F8093E0
:101B300095038091BB00F0E0EB58FC4F8083BDCF54
:101B400085EC8093BC0010929703809195038032BE
:101B500030F4E0919503F0E0EB58FC4F1082609177
:101B6000950370E0E0917303F091740385E793E0CF
:101B700009951092950336C084E0809397031092E4
:101B8000720310927103E0916F03F0917003099555
:101B900080917103811105C081E0809371031092DF
:101BA0004F03E091720381E08E0F80937203F0E0A7
:101BB000E15BFC4F80818093BB0090917203809128
:101BC0007103981708F479CF85E88093BC000AC0A8
:101BD00085EC8093BC001092970304C0109296038A
:101BE0000E94EF0AFF91EF91BF91AF919F918F916A
:101BF0007F916F915F914F913F912F910F900FBE09
:101C00000F901F901895DC011A96ED91FC911B978F
:101C100020E030E00994CF92DF92EF92FF920F9391
:101C20001F93CF93DF93EC01142F79016B3009F4EC
:101C30006AC0E0F5693009F460C06A3009F094C008
:101C4000EA85FB8520E030E040E068E20995EE811E
:101C5000FF8120E030E040E064E1CE01099541E001
:101C60006BE4CE010E94030EE881F981448169E2B0
:101C7000CE010E94030E40E06BE4CE010E94030EF1
:101C8000E881F981448169E2CE010E94030E41E0BE
:101C90006BE4CE010E94030EE881F981458169E27F
:101CA000CE010E94030E64E471E034C06E30B1F1E5
:101CB0006F3009F059C00E943406F701838108890A
:101CC000F8E08F9F000D112460E2CE010E9495067E
:101CD000602F6068CE010E949506F7016481606400
:101CE000CE010E949506F701C080D180F280FF0CE2
:101CF000FF0CFF0C84E5E82E2AC085E591E099836E
:101D00008883188A2FC0411103C06DE371E002C0BF
:101D100064E371E0CE010E94470624C00E943406AD
:101D200061E2CE010E949506612F66956068CE0142
:101D30000E94950614C0043590F4FE2CF01AA601FA
:101D40006F2DCE010E943E060F0D115041F0802FE5
:101D500090E08F0D911D853591056CF7F0CFCE0188
:101D60000E942A0681E001C080E0DF91CF911F919F
:101D70000F91FF90EF90DF90CF900895DC011496C3
:101D8000ED91FC91159720E030E040E060E109948E
:101D90001092D5011092D40188EE93E0A0E0B0E05B
:101DA0008093D6019093D701A093D801B093D90125
:101DB00024E031E03093D3012093D20125EC30E0D0
:101DC0003093DF012093DE0124EC30E03093E10119
:101DD0002093E00120EC30E03093E3012093E20116
:101DE00021EC30E03093E5012093E40122EC30E077
:101DF0003093E7012093E60126EC30E03093E901CF
:101E00002093E8011092EB011092EC011092ED0189
:101E10001092EE011092720210927102809373027E
:101E200090937402A0937502B093760286E191E0DC
:101E30009093700280936F021092D6021092D50296
:101E400080EE92E090934B0380934A0310924C03F0
:101E500010924D031092EC0288E291E09093D4022C
:101E60008093D3021092D8021092D7021092E80207
:101E70001092EB028FEF8093E9028093EE02E2EF83
:101E8000F2E09FEF86E18E0F91938E13FDCF8BE0F2
:101E90009EE09093DC028093DB0286E59BE09093CA
:101EA000DE028093DD0286EC94E09093E002809362
:101EB000DF0287EA95E09093E2028093E10220E05E
:101EC00030E040E069E087ED92E00E940B0E109256
:101ED0001C0310921B038EE893E0909309038093F8
:101EE00008038BE792E090930D0380930C0381E04D
:101EF00080930E0310920F03109228031092470351
:101F0000809348038093490380E391E090930B030F
:101F100080930A0387ED92E00E9442038CEE93E0E7
:101F200090931E0380931D0310922B038DE08093EA
:101F3000F2028BE08093F3028FE08093FB0281E159
:101F40008093FC0288E08093FD020895789484B524
:101F5000826084BD84B5816084BD85B5826085BDA5
:101F600085B5816085BD80916E00816080936E0033
:101F70001092810080918100826080938100809125
:101F800081008160809381008091800081608093D6
:101F900080008091B10084608093B1008091B00096
:101FA00081608093B00080917A00846080937A0091
:101FB00080917A00826080937A0080917A008E7F8F
:101FC00080937A0080917A00806880937A001092E2
:101FD000C100E091E201F091E30182E08083E091B1
:101FE000DE01F091DF011082E091E001F091E1016A
:101FF00088E080831092EA01E091E601F091E70128
:1020000086E08083E091E401F091E50180818061C8
:102010008083E091E401F091E50180818860808314
:10202000E091E401F091E501808180688083E09196
:10203000E401F091E50180818F7D80838DE791E05F
:102040000E94950960E088E00E94E50B61E088E06D
:102050000E94E50BE091DB02F091DC0220E030E031
:1020600040E06AE087ED92E009958091490388237A
:1020700021F087ED92E00E94000980E00E9414099F
:1020800087ED92E00E94A108C0910F0380910E039A
:10209000C80FE091D702F091D8028189C817B8F132
:1020A00087ED92E00E94BE0E80E00E941409E0914C
:1020B000DB02F091DC0220E030E040E06BE087EDF5
:1020C00092E009958BE891E00E949509C2E7D0E083
:1020D00087E7282E80E0382E98E7492E90E0592E89
:1020E00029E7622E20E0722E0AE710E03BE7E32E9C
:1020F00030E0F32E4CE7C42E40E0D42E5DE7A52E51
:1021000050E0B52E6EE7862E60E0962E93C080914B
:102110004903882321F087ED92E00E9400098C2F6B
:10212000ADCFD0931C03C0931B03FE018491809319
:102130002C03E3E7F0E0849180932D03E4E7F0E0E3
:10214000849180932E03E5E7F0E0849180932F0340
:10215000E6E7F0E0849180933003F101849180936D
:102160003103F201849180933203F30184918093CF
:102170003303F801849180933403F70184918093B1
:102180003503F601849180933603F50184918093A1
:102190003703F401849180933803EFE7F0E0E49192
:1021A000E0933903E0E8F0E0E491E0933A03E1E8FA
:1021B000F0E0E491E0933B03E2E8F0E0E491E093A7
:1021C0003C0361E182E790E00E94B80690933E03F1
:1021D00080933D0363E182E790E00E94B80690930C
:1021E000400380933F0365E182E790E00E94B806D8
:1021F000909342038093410380911B0390911C03B1
:10220000892B49F580EE92E09093DA028093D9020F
:102210000E94550987ED92E00E94A10887ED92E0A7
:102220000E94BE0E68EE73E080E090E00E94510CC8
:102230000E94C00A86E991E00E94950987ED92E02C
:102240000E94000980911B0390911C0382579040CB
:1022500009F067CFD7CF8091390380934403409131
:102260003A034093450390914303992359F29130E7
:1022700071F490913B03891714F490934403809177
:102280003C0384170CF0BECF80934503BBCF309145
:10229000360320913803082E000C990B622F022E72
:1022A000000C770B630F711D37FD7A958617970722
:1022B0001CF4320F3093440324170CF0A3CF209367
:1022C0004503A0CFEE0FFF1F0590F491E02D099478
:1022D00081E090E0F8940C947411DC0101C06D93DE
:0C22E00041505040E0F70895F894FFCF03
:1022EC0000000000B9092009830A000AB40A920A06
:1022FC00A60A00000000430B2F0BC304210B280B74
:10230C00250B220B0000000076089A04C304C204BB
:10231C004203EA021815201508152419FF18152078
:10232C00150C19FF1815211506151315C0152015B8
:10233C0008152419FF0001050502020C4B00093D8C
:10234C000000041E280B0600005400300048656C89
:10235C006C6F20576F726C6421000D0A005365740A
:10236C007570207374617274656400536574757054
:10237C0020646F6E65005570646174696E672073BC
:06238C00637265656E003E
:107800000C94343C0C94513C0C94513C0C94513CE1
:107810000C94513C0C94513C0C94513C0C94513CB4
:107820000C94513C0C94513C0C94513C0C94513CA4
:107830000C94513C0C94513C0C94513C0C94513C94
:107840000C94513C0C94513C0C94513C0C94513C84
:107850000C94513C0C94513C0C94513C0C94513C74
:107860000C94513C0C94513C11241FBECFEFD8E036
:10787000DEBFCDBF11E0A0E0B1E0EAE8FFE702C063
:1078800005900D92A230B107D9F712E0A2E0B1E065
:1078900001C01D92AD30B107E1F70E942D3D0C945F
:1078A000C33F0C94003C982F95959595959595958B
:1078B000905D8F708A307CF0282F295A8091C0000B
:1078C00085FFFCCF9093C6008091C00085FFFCCF60
:1078D0002093C6000895282F205DF0CF982F809127
:1078E000C00085FFFCCF9093C6000895EF92FF92F1
:1078F0000F931F93EE24FF2487018091C00087FD22
:1079000017C00894E11CF11C011D111D81E2E8164D
:1079100081EAF80687E0080780E0180770F3E09135
:107920000401F091050109958091C00087FFE9CF1E
:107930008091C6001F910F91FF90EF9008950E94D3
:10794000763C982F8091C00085FFFCCF9093C600B5
:1079500091362CF490330CF09053892F089597555D
:10796000892F08951F930E949F3C182F0E949F3CCF
:107970001295107F810F1F9108951F93182F882350
:1079800021F00E94763C1150E1F71F9108951F935A
:10799000182F0E94763C803249F0809103018F5F5E
:1079A000809303018530C1F01F9108958091C0003C
:1079B00085FFFCCF84E18093C6008091C00085FFE5
:1079C000FCCF1093C6008091C00085FFFCCF80E102
:1079D0008093C6001F910895E0910401F091050184
:1079E00009951F9108950E94763C803241F0809164
:1079F00003018F5F80930301853081F008958091AA
:107A0000C00085FFFCCF84E18093C6008091C00058
:107A100085FFFCCF80E18093C6000895E0910401CA
:107A2000F09105010995089548EC50E08823A1F0F4
:107A30002D9A28EE33E0FA013197F1F721503040CA
:107A4000D1F72D9828EE33E0FA013197F1F7215064
:107A50003040D1F7815061F708953F924F925F9285
:107A60006F927F928F929F92AF92BF92CF92DF924E
:107A7000EF92FF920F931F93CF93DF93000082E06A
:107A80008093C00080E18093C4001092C50088E11B
:107A90008093C10086E08093C2005098589A259A3E
:107AA00081E00E94143D24E1F22E9EE1E92E85E959
:107AB000D82E0FE0C02E10E1B12EAA24A394B1E479
:107AC0009B2EA6E58A2EF2E57F2EE0E26E2E79E46B
:107AD000572E63E5462E50E5352E0E94763C8033C6
:107AE000B1F18133B9F1803409F46FC0813409F404
:107AF00076C0823409F485C0853409F488C08035A5
:107B000031F1823521F1813511F1853509F485C0D6
:107B1000863509F48DC0843609F496C0843709F49B
:107B200003C1853709F472C1863709F466C08091B4
:107B300003018F5F80930301853079F6E0910401A2
:107B4000F091050109950E94763C803351F60E9420
:107B5000F33CC3CF0E94763C803249F78091C0004D
:107B600085FFFCCFF092C6008091C00085FFFCCF5E
:107B70009092C6008091C00085FFFCCF8092C60025
:107B80008091C00085FFFCCF7092C6008091C0003C
:107B900085FFFCCF6092C6008091C00085FFFCCFBE
:107BA0005092C6008091C00085FFFCCF4092C60075
:107BB0008091C00085FFFCCF3092C6008091C0004C
:107BC00085FFFCCFB092C60088CF0E94763C8638F5
:107BD00008F4BDCF0E94763C0E94F33C7ECF0E9409
:107BE000763C803809F49CC0813809F40BC1823896
:107BF00009F430C1883909F48FC080E00E94C73C85
:107C00006CCF84E10E94BD3C0E94F33C66CF85E0CE
:107C10000E94BD3C0E94F33C60CF0E94763C809362
:107C200006010E94763C809307010E94F33C55CFE9
:107C30000E94763C803309F411C183E00E94BD3C70
:107C400080E00E94C73C49CF0E94763C80930902A5
:107C50000E94763C8093080280910C028E7F809374
:107C60000C020E94763C853409F409C18091080217
:107C700090910902892B89F000E010E00E94763C87
:107C8000F801E85FFE4F80830F5F1F4F809108026D
:107C9000909109020817190788F30E94763C8032F8
:107CA00009F045CF80910C0280FFF5C0609106017C
:107CB00070910701660F771F7093070160930601AB
:107CC000A0910802B09109021097C9F0E8E0F1E034
:107CD0009B01AD014E0F5F1FF999FECF32BD21BD53
:107CE000819180BDFA9AF99A2F5F3F4FE417F5070B
:107CF00099F76A0F7B1F70930701609306018091CB
:107D0000C00085FFFCCFF092C6008091C00085FFC7
:107D1000FCCFB092C600E1CE83E00E94C73CDDCE2E
:107D200082E00E94C73CD9CE0E94763C8093090233
:107D30000E94763C80930802809106019091070191
:107D4000880F991F90930701809306010E94763C4B
:107D5000853409F49AC080910C028E7F80930C02C6
:107D60000E94763C803209F0B8CE8091C00085FF39
:107D7000FCCFF092C600A0910802B09109021097C2
:107D8000C1F180910C02082F0170182F1695117007
:107D9000E0910601F0910701AF014F5F5F4FBA011B
:107DA00020E030E00023B1F4112339F49491809164
:107DB000C00085FFFCCF9093C6002F5F3F4FCB01E3
:107DC0000196FA012A173B0780F4BC014F5F5F4F11
:107DD000002351F3F999FECFF2BDE1BDF89A90B5B9
:107DE0008091C00085FFFCCFE6CF709307016093C0
:107DF00006018091C00085FDE5CE8091C00085FF21
:107E0000F8CFE0CE81E00E94C73C67CE0E94763C6E
:107E1000803209F08CCE8091C00085FFFCCFF092BB
:107E2000C6008091C00085FFFCCFE092C600809123
:107E3000C00085FFFCCFD092C6008091C00085FFB6
:107E4000FCCFC092C6008091C00085FFFCCFB092ED
:107E5000C60043CE80E10E94C73C3FCE0E94763CE4
:107E60000E94763C182F0E94763C112309F483C0AF
:107E7000113009F484C08FE00E94C73C2ECE80915F
:107E80000C02816080930C02F1CE80910C02816023
:107E900080930C0265CF809107018823880F880B9F
:107EA0008A2180930B028091060190910701880F2F
:107EB000991F90930701809306018091080280FF2B
:107EC00009C08091080290910902019690930902DD
:107ED00080930802F894F999FECF1127E0910601EA
:107EE000F0910701C8E0D1E0809108029091090269
:107EF000103091F40091570001700130D9F303E084
:107F000000935700E8950091570001700130D9F3B4
:107F100001E100935700E8950990199000915700EE
:107F200001700130D9F301E000935700E8951395F3
:107F3000103498F011270091570001700130D9F3E7
:107F400005E000935700E89500915700017001305B
:107F5000D9F301E100935700E8953296029709F0B2
:107F6000C7CF103011F00296E5CF11248091C000E8
:107F700085FFC5CEC8CE8EE10E94C73CAECD85E957
:0A7F80000E94C73CAACDF894FFCF81
:027F8A00800075
:040000030000780081
:00000001FF
