:100000000C9434000C9449000C9449000C94490061
:100010000C9449000C9449000C9449000C9449003C
:100020000C9449000C9449000C9449000C9449002C
:100030000C9449000C9449000C9449000C9449001C
:100040000C9449000C9449000C9449000C9449000C
:100050000C9449000C9449000C9449000C944900FC
:100060000C9449000C94490011241FBECFEFD8E036
:10007000DEBFCDBF11E0A0E0B1E0E2E1F1E002C0FF
:1000800005900D92AA30B107D9F70E946A000C942E
:1000900087000C9400001092C50083E38093C40095
:1000A00088E18093C10086E08093C200089590911A
:1000B000C00095FFFCCF8093C6000895CF93DF93D7
:1000C000EC018991811103C0DF91CF9108950E94C5
:1000D0005700F7CF0E944B008FEF85B988B98BB9D5
:1000E00080E091E00E945E0085B1809585B988B17D
:1000F000809588B98BB180958BB92FEF83ED90E314
:10010000215080409040E1F700C00000E9CFF89412
:02011000FFCF1F
:0A01120054657374696E670A0D00EE
:00000001FF
