:100000004EC4000069C4000067C4000065C400005D
:1000100063C4000061C400005FC400005DC4000050
:100020005BC4000059C4000057C4000055C4000060
:1000300053C4000051C400004FC400004DC4000070
:100040004BC4000049C4000047C4000045C4000080
:1000500043C4000041C400003FC400003DC4000090
:100060003BC4000039C40000600203020304010223
:1000700004050900FE06FE07FF014D02B303F82048
:1000800006CDF4F906210ACDF481B01DCA51002233
:1000900009CD744A49CE0B00230CCDB49364502A89
:1000A00083522701240DCDB4B241C9B644A96C399D
:1000B00000250DCDB4072531294A22E52000260C64
:1000C000CDB4B3240B93B62407012708CDF48130B7
:1000D000E7082808CDF41A5BCB002909CD34D26299
:1000E0005B1D022A0ACDB4B328926A390D2B09CDC3
:1000F000F449D99613012C08CDF4B98559082D0877
:10010000CDF4197416002E08CDF439E628002F0C12
:10011000CDF491300BB3300B4300300BCDB4A54A76
:100120006229453A0A310ACDF4814C6CDB41003238
:100130000ACDB4A562561B7210330BCDB4A55A9AE2
:1001400044918E02340CCDF4814C4AA221CB76101E
:10015000350CCD7487245C9328D25100360BCDB476
:10016000A570AA44918E02370ACD7487302BD661D0
:1001700000380BCDB4A5925489221D05390BCDB49E
:10018000A54A148D918E023A09CDF46939214701AF
:100190003B0ACDF4493921CC42003C09CDF4E1AC15
:1001A0005A07013D0ACDF429433CE424003E09CD21
:1001B000F4C1B45687013F0ACDB4A55A1DCA6100E7
:1001C000400CCDB4A54AA2244ABA8300410DCDB457
:1001D000A54A940C4994443908420BCD74A7CA54DB
:1001E00089921D05430ACDB4A54A588A7414440D5A
:1001F000CD74A74A94444994EC2800450CCD7487EB
:10020000249CC270C84100460ACD7487249CC23A1F
:1002100001470CCDB4A54A982851A4A300480FCD9E
:1002200074A3244A86244AA224CA41004909CDB4B1
:10023000B7B06D07014A0ACDF491B0258A74144B0A
:100240000CCD74A3A4A469495407014C09CD74C30F
:100250008E430E024D0FCD74A3644886244AA22417
:10026000CA41004E0ECD74A344A928511225510E47
:10027000024F0DCDB4A54A94444914E92800500A10
:10028000CD74A74A944C614E510DCDB4A54A944407
:100290004922A93100520CCD74A74A944C952807E5
:1002A00001530BCDB4A5929A44918E025408CDB45B
:1002B000B7B03B0A550ECD74A3244AA2244AA248E3
:1002C0004701560DCD74A3244AA2244A6A390C571B
:1002D0000FCD74A3244AA264488624CA4100580D55
:1002E000CD74A3248A34A912E52000590BCD74A340
:1002F000244A6A611D065A0ACD7487306B1C72103D
:100300005B08CDB4B4B047195C0ACDB4C3344CC358
:10031000340C5D08CD74C4BEE9005E09CDF4812CB7
:10032000C9B9015F07CDF4791D046008CD74D29C72
:100330002700610CCDF4494B942452928300620B48
:10034000CD74C370AA44C98E02630ACDF449522504
:10035000DD4100640CCDF491305AA2248A761065F8
:100360000ACDF449D290A43B08660ACDF4912CDB67
:10037000C23A0A670CCDF4494B9444D1184900683D
:100380000CCD74C370AA4449948300690ACDF481EA
:100390001C116B3B086A0ACDF4811C11BB65006B14
:1003A0000BCD74C34AA425511D046C08CDB4C56E91
:1003B0003B086D0CCDF42943525112A58E016E0BF2
:1003C000CDF42925A5944439086F0ACDF449522566
:1003D0008A7414700BCDF42953254AA63004710B8E
:1003E000CDF4494B9444D158017209CDF42925A587
:1003F0009813730ACDF449CB9AEC2800740BCDF412
:100400008130DBC2340701750DCDF42951122589E5
:1004100094E42000760BCDF429511225B51C067703
:100420000BCDF429152551BA8300780ACDF4295152
:10043000A4497510790DCDF4295112255134461275
:10044000007A0ACDF42943561B72107B0ACDF48A38
:10045000B534AC26007C07CDB4C27E077D0ACD74CE
:10046000D2B09A85B50C7E09CDF449493B0B007F8B
:1004700006CDF4F90600000004FFFF0000000000B4
:10048000000000000000000000000000000000006C
:10049000C01000000000000000020860F800000426
:1004A0000000C007000036DC0300000108781E00D1
:1004B0006073FF03080000001F3C00F0F3FF07001B
:1004C0000000E0F9FF8030E77F070000003F3CE0DC
:1004D0000070E7FF030000C0F3030000F0FFFD031E
:1004E0000001F8F1000000F0BFBF00000098C30059
:1004F0000000FCFFDF0000000C8F111010FEDF3F3A
:100500000002080E9EC30100EFF71F0000807FFE6F
:10051000A30100C3FF0F0020C07FFC9F800080FF6D
:10052000230008E0F87CDE0040C0DE410001B0F1AD
:10053000E77C0400E0FB02081098E1C709004EFECA
:100540001F000180CC838F4B44FCFF8F000000C64E
:100550008FFF1F00F0FF0024000AC7F97B1A0080FC
:1005600087200000905FF8DB9A140220000009C980
:100570007D78D30E408800042500C2FC7BD346045E
:100580002122000800F03CFFF6A0AAFA0F29450B33
:100590008C19CFF618013C9E181100A19FE776AA8E
:1005A000BB1FB87AA5063A9FFB33FFFF3A3C7EA8F3
:1005B0000C44FADDC3FFFF77DEEF5600B5FA1DFFEE
:1005C00057E87FAFE354074ABF9FFF12203ED6E1B2
:1005D000AB0AFD0F0F07F07838CEC09B03948E0F47
:1005E000E361F830FE80EF06CF0F8FF343F830FE63
:1005F00080D70D7B070EF14378387E187E0C2B07D1
:100600000EF04100383C3CEC07FF0704F041103F7E
:100610003C3CDC0E3FC700E161F87F181CDC0DFF9D
:100620008F01E170F83F0C00F80FFF8F034170F06D
:100630003F0C3FFC0FFF8F8F0778F83F8E3FFC0F7A
:10064000FF1F8F9FFEF81FCE7FFC0FFFFF9FFFFF56
:10065000F8BFEF7FFC0FFFFF3FFFFFF9FFFF7FFFBA
:100660000FFFFFFFFFFFFBFFFFFFFF0FFFFFFFFF7E
:10067000FFFFFFFFFFFF0FFFFFFFFFFFFFFFFFFF7A
:10068000FF0FFFFFFFFFFFFFFFFFFFFF0F00000057
:10069000000000000000000000000000000000005A
:1006A0000000000000000000000600000000000044
:1006B00000000000070000000000000000008007AC
:1006C00000000000000000000080050000000000A5
:1006D0000000000000040000000000000000000016
:1006E0000400000000000000000000040000000002
:1006F0000000000000000E000000000000000000EC
:10070000001F000000000000000000803100000019
:10071000000000000000C0600000000000000000B9
:1007200003FFFF1F18000000000000FFD564F51F45
:100730000000FE03FE0055D57155150000FF87FF30
:1007400001FDD57FF51700003FC7FF0355555555EF
:1007500015000007E7C3075555555515000007E775
:10076000810F55555555150000FFF3000FF5FFFF9C
:1007700057150000FFF7180F1F0000FE1F000007AD
:10078000773CC600000000FE000007773C00000038
:100790000000C0070087F7987FE607F8E11F1E00FA
:1007A000FFF3C07FF73FFFF31F7800FFE1E13FF762
:1007B0007FFFFB0FE00000E0E10077780F3800C01A
:1007C000030CC3E10077700F380000079EC7E10FEC
:1007D0007370FFF90100079EC7819F7B70FFF107CF
:1007E000000E1EE301BE3B7007800F000E3CF001BF
:1007F000B83BB807001C000E7CF800BC3BBC0700EF
:100800001E000EF87FF0BFF99FFFFD1F0007F03FAD
:10081000F09FF98FFFFD0F0003C00F0000000000E4
:1008200000008001000000000000000000C0000087
:1008300000601816C3711C06300000001024164515
:100840005014090C000000103C1AC3310C8F030037
:10085000000010241A4550146900000000602412A2
:10086000C3511409000000000000000000C0000097
:1008700000000000000000FC1F000000000000005D
:100880000000000000000000000000000000000068
:100890000000000000000000000000000000112423
:1008A0001FBECFEFD8E0DEBFCDBF11E0A0E0B1E0CA
:1008B000E6E3FDE102C005900D92A835B107D9F736
:1008C00023E0A8E5B1E001C01D92AE3CB207E1F71C
:1008D0000E940E0D0C94990E93CB662329F06A307A
:1008E00019F0862F90E008958FEF9FEF0895FC0197
:1008F000118E0895A0E0B0E0E0E8F4E00C94630EFF
:10090000EC01ADA0EEA0E881F981B188FE2CC12CEC
:10091000D12CE881F98120890BA11CA188E0289FB6
:10092000A00111244C9DC0014D9D900D5C9D900D2A
:100930001124080F191F4F2D60E0CE018ED7F394BC
:100940008F2D8E198A1528F48FEFC81AD80AFB1438
:1009500000F3CDB7DEB7EAE00C947F0EFC01A08176
:10096000B18150969C9145A1949FA001112483E0F0
:10097000440F551F8A95E1F760E070E083A194A1D0
:100980000C94920ECF93DF93EC01B4DFCE019ED78F
:10099000DF91CF910895CF93DF93EC016EA3E9A18E
:1009A000FAA10190F081E02D0995E9A1FAA1028058
:1009B000F381E02DCE010995DF91CF910895CF937A
:1009C000DF93EC01FC01EB59FF4F8081882311F08C
:1009D000CE01C4DF60E0CE01DEDFDF91CF9108956C
:1009E0001F93CF93DF93EC0185DF1EA18DA1180F1C
:1009F000E881F9818189181720F0CE0167D780E05E
:100A00000CC0FE01EB59FF4F8081882311F0CE010D
:100A1000A5DF612FCE01BFDF81E0DF91CF911F9174
:100A2000089526E0FC01208388E591E00895DC012B
:100A30001A96ED91FC911B9720E030E009950895FE
:100A4000A0E0B0E0E6E2F5E00C945F0E7C01C62F7A
:100A5000742E58016C0184E6C80ED11CF60160802A
:100A6000162F120F01E0040F212FC70165D0882334
:100A700039F1D1E04701F3E68F0E911CC117F1F077
:100A8000F50184918D2319F0F601608209C0F4010B
:100A9000808181110BC081E0611080E0F6018083CC
:100AA00000E021E0472D6C2FC701A5D5CF5FDD0FFA
:100AB00029F7FFEFAF1ABF0AD1E0E0CFF60160825D
:100AC000CDB7DEB7EEE00C947B0EA0E0B0E0EBE635
:100AD000F5E00C94610E5C01962EC42F822ED42F6B
:100AE000D00F260F0D2F28D0882399F087E0880D8E
:100AF000C82EC694C694C694D12CCD1751F0870148
:100B0000282D4C2F692DC5019BDFEC0CFD1CCF5F00
:100B1000F4CFCDB7DEB7ECE00C947D0E461730F481
:100B2000821740F081E0241730F002C08217D0F322
:100B300080E0089581E00895FF920F931F93CF9373
:100B4000DF93EC01162FF22E202F69A988A9E6DF8A
:100B5000882329F02F2D412F6FA58EA5DFDFCDB77C
:100B6000DEB7E5E00C94840E462FDC011696ED917D
:100B7000FC91179720E030E065E1099508959A010E
:100B8000DC011696ED91FC911797462F67E10995C8
:100B90000895DC011696ED91FC91179720E030E066
:100BA00040E068E109950895DC011696ED91FC910D
:100BB000179720E030E040E069E109950895A1E051
:100BC000B0E0E5EEF5E00C94670E7C018B01D801F6
:100BD0006C916731D9F078F4653190F1F801418179
:100BE0004983D7011696ED91FC91179720E030E0EC
:100BF000C701099522C06A3198F06E3F09F5F801E6
:100C00004181498369E2C70112DF17C0F801818180
:100C10008983AE014F5F5F4F61E0C701B0DF0DC058
:100C20000F5F1F4FD7011696ED91FC91179720E0AB
:100C300030E040E0C7010995CACF0E5F1F4FC7CF14
:100C40002196E6E00C94830EEF92FF920F931F9390
:100C5000CF93DF93EC01162F042F7901663159F001
:100C600028F4643191F0653131F017C0673159F0E3
:100C70006A3198F40AC060E0CE0133D6602FCE010D
:100C800045D681E00BC061E02CD6E885F985970157
:100C9000402F612FCE01099501C080E0CDB7DEB7AE
:100CA000E6E00C94830EEF92FF920F931F93CF9385
:100CB000DF93EC01742F7770E1E0F0E0072E01C0C4
:100CC000EE0F0A94EAF73E2F7C0184E6E80EF11C51
:100CD000D7018C91823028F41E2F813019F430E036
:100CE00001C010E050E0487F8BA19CA1A881B98190
:100CF0005096FC91F49FD001F59FB00D1124A60FE2
:100D0000B11DA80FB91F01110BC08C91812B832736
:100D10008D932150D1F71CC0110F330F2223C1F046
:100D20009C91912B93279C937F5F77702150711139
:100D3000F3CF8FA1A80FB11DF7018081823020F47D
:100D4000813021F031E002C031E0E8CF11E0E6CFA0
:100D5000CDB7DEB7E6E0D7C7FC01E60FF11D849101
:100D600090E0982F88273196E4918E0F911D089579
:100D7000213039F020F0223031F4841B0895840FA3
:100D80000895860F0895861B0895213039F020F0CC
:100D9000223031F4861B0895860F0895841B089530
:100DA000840F089580E008950F931F93CF93DF93EE
:100DB000EC018B01FB01849188833196E491E983F6
:100DC000FB013296E491EA83FB013396E491EB83D5
:100DD000FB013496E491EC83FB013596E491ED83BD
:100DE000FB013696E491EE83FB013796E491EF83A5
:100DF000FB013896E491E887FB013996E491E98795
:100E0000FB013A96E491EA87FB013B96E491EB877C
:100E1000FB013C96E491EC87FB013D96E491ED8764
:100E2000FB013E96E491EE87FB013F96E491EF874C
:100E3000FB017096E491E88B61E1C8018DDF9A8B2C
:100E4000898B63E1C80188DF9C8B8B8B65E1C801CE
:100E500083DF9E8B8D8BDF91CF911F910F91089532
:100E6000DC0118964C911897ED91FC911197249103
:100E700030E0042E02C0359527950A94E2F7842FBE
:100E8000860F883010F4E22F0DC031961196FC9336
:100E9000EE93E49198E0941B01C0EE0F9A95EAF767
:100EA000E22B885018968C9381E090E001C0880F67
:100EB0006A95EAF781508E2308950F931F93CF937D
:100EC000DF93EC018C01065C1F4F7BAF6AAFFC0126
:100ED000EE5BFF4F108239966081C801C1DFFE01D1
:100EE000E05CFF4F80833C966081C801B9DFFE0162
:100EF000EF5BFF4F8083B3969081B0979083CB5B7D
:100F0000DF4F81E0911180E08883DF91CF911F91C5
:100F10000F910895CF93C62FA3DFC15021E030E099
:100F200001C0220FCA95EAF7821BCF910895A7E06E
:100F3000B0E0ECE9F7E0BFC69F838E83762E49834D
:100F4000FC0116AD57ACE05CFF4FFB83EA838A5B84
:100F50009F4F9D838C83CE80DF8093E4C90ED11C8C
:100F6000EE80FF80E4E6EE0EF11CAE80BF80F5E47B
:100F7000AF0EB11C8E809F8084E4880E911CEA81A4
:100F8000FB816080611A472C671408F4462CEE81BF
:100F9000FF8125ACEC81FD810081202F452D612F43
:100FA000EE81FF8184ADF1DE382E202F452D612F9B
:100FB000822DDEDE482FF981FF2311F0F40105C0F8
:100FC000F6018081811109C0F5018081F7018083DC
:100FD000242D632D8E819F810ED3761420F07618F8
:100FE000539410E0CCCF170DEE81FF8116AF57AEB2
:100FF0002796E2E17CC6A0E0B0E0E0E0F8E061C660
:10100000EC016C018AE3C80ED11CCE0156DFFE0153
:10101000EF5BFF4FE0803C966081C6017BDF982E3E
:10102000FE01E25BFF4F6081C60174DFB82EFE0156
:10103000E15BFF4F6081C6016DDFA82EFE01E05C21
:10104000FF4F008110160CF06DC03696F080BE0C7C
:10105000B1942F2D4B2D692D8CAD97DE182F8CAFB1
:101060002F2D4B2D692D8DAD83DE8DAF91E0F916BF
:10107000B1F0F91678F0E2E0FE16B9F0F3E0FF12F5
:101080001FC02E2D210F982F901B01E0080F81E02B
:10109000890F18C0202F210F0E2D080F13C0FE1826
:1010A00021E0210F080F1F0D0DC091E0392F301BDB
:1010B00021E0210F9E1901E0080F890F130F02C0D4
:1010C000082F212F482F612FCE0136DD882351F1C3
:1010D0001EAE1FAE8E01075B1F4F4E018AE4880EC5
:1010E000911CF8016081C601BBDEB82EF40160815D
:1010F000C601B6DEF82E40E06B2DCE0118DF41E0D0
:101100006F2DCE0114DF61E0C601AADE8111F3CF9D
:101110008FAD8E1534F3FE01EC59FF4FCC5BDF4FE2
:10112000888180838A2DCDB7DEB7ECE0E6C5EF92EB
:10113000FF920F931F93CF93DF93FC0126A937A94A
:10114000295E3F4F6F3F710509F020F5613671054B
:1011500018F0E65AFF4F06C06134710538F0FC0103
:10116000E85AFF4F80819181280F391FC9010196EC
:10117000FC014491442309F43AC0F901449150E040
:101180006417750711F4019634C0FC018491280F8F
:10119000311DECCF8B01FC01E45AFF4FC081D1819E
:1011A000C20FD31F7E0160E0C701D6DDC80FD91F73
:1011B00062E0C701D1DDF4E0EF0EF11C801791076A
:1011C00090F3FE01849190E0982F88273196E49166
:1011D0008E2B009761F00817190719F4CE010396BA
:1011E00008C0FE013296E491CE0FD11DEACF80E017
:1011F00090E0CDB7DEB7E6E086C58D5B9F4FFC0182
:1012000060830895EF92FF920F931F93CF93DF9324
:10121000EC01062F142F7901FC01EA5BFF4F80815E
:10122000813089F050F08230A1F08330B9F4E8AD1C
:10123000F9ADCE010995080F11C0E8ADF9ADCE01A9
:101240000995180F0BC0E8ADF9ADCE010995081B43
:1012500005C0E8ADF9ADCE010995181B0CAF1DAF67
:10126000B701CE0164DF009721F0BC01CE01C3DEDF
:1012700001C080E0CDB7DEB7E6E045C5AF92BF92D2
:10128000DF92EF92FF920F931F93CF93DF93EC01C6
:10129000162F042FB22ED32E2ADBEB2CFD2CD12CB3
:1012A0005E0126E4A20EB11CF70161917F01EA8183
:1012B000FB81CE0109958F3FFFEF9F07D9F08E3F4D
:1012C0002FEF920789F39C01402F612FCE019ADF07
:1012D000F5019081913049F030F0923041F0933037
:1012E00039F4081B05C0180F03C0080F01C0181BF4
:1012F000D80EDACF8D2DDF91CF911F910F91FF90F6
:10130000EF90DF90BF90AF900895EDE6F4E0DC0140
:101310001396FC93EE931297B1CFCF93DF93FC011A
:1013200026A937A9232BC9F1EC5AFF4F2081DC01F4
:10133000A05ABF4F2C93319650813C965083EC01BC
:10134000C15ADF4F3881332341F1313069F4299795
:10135000388123170CF43C93DC01A95ABF4F8C91C0
:101360008517DCF4808319C0EC01CF5ADF4F488128
:1013700022963881822F220F990B632F032E000CA7
:10138000770B640F711D47FD7A958617970714F444
:10139000430F4C9335170CF43083DF91CF910895B0
:1013A00022ED36E0FC0131AF20AF0895CF93DF93FB
:1013B000FC0126A937A92617370741F0EC0177ABC6
:1013C00066AB895B9F4FF0DCCE01A7DFDF91CF9149
:1013D0000895FC01A081B18195A1892F880F880F04
:1013E000880F80A750968C915097803208F08FE13B
:1013F000880F880F880F87A326A1822F880F880F58
:10140000880F81A751963C915197422F50E0490F88
:10141000511D632F70E06417750714F4932F921B0E
:1014200082A728E0929F800D112483A780EF84A7D4
:1014300054968D919C915597813F910508F484A70E
:1014400056968C9185A708950F93C8D00F91089553
:101450000F93CF93DF93EC010DA92BA94CA96AA997
:101460006BDBFE01E25AFF4F811102C0108216C0F1
:1014700081E080838AA99EA5981708F48EA78BA97E
:101480009FA5891708F48FA78CA998A9981708F425
:1014900088AB8DA999A9891708F489ABDF91CF9101
:1014A0000F910895FC0116A684A587A782A580AB9D
:1014B00083A581ABCF01CCCF8CCF0895DC01D29630
:1014C0001C92D297D4961C92D4978FEFD3968C937C
:1014D000D397D5968C93D5979196ED91FC91929751
:1014E0000280F381E02DCD01099508950F931F939C
:1014F000CF93DF93EC011FAA1EAA38A32F8F7CA3E2
:101500006BA34DA31EA2FC01ED5BFF4F1082B096B2
:101510001082319681E08083319680831AA309A3DB
:10152000D801ED91FC91CE010995CE01C7DFCE0126
:1015300037DFCA5BDF4F1882DF91CF911F910F9188
:101540000895A1E0B0E0E6EAFAE0BFC37C016B01D8
:1015500089019A0144E256E067E87BE027D0CE019A
:1015600001965FDA860123E536E04981BC01C701B7
:10157000BDDF2196E8E0C5C380E00895FC0111823B
:1015800010828CEB9AE0958384839783868391877E
:10159000808793878287158A108E118E1486158610
:1015A000168617868FEF868B838F0895A0E0B0E0B4
:1015B000EBEDFAE088C3EC015B016A017901DEDF43
:1015C000BD82AC82DF82CE82F986E8861B870A87DD
:1015D000CE015BD1CDB7DEB7EAE091C30F93DC015A
:1015E00099963C919997431B5F96ED91FC9190974A
:1015F00009950F9108950F93DC01802FFD01E25AA8
:10160000FF4F9081992309F468C0222309F465C033
:10161000223048F0023019F46F5F621B04C00330BF
:1016200011F44F5F421B082F017080FD28C0D09637
:101630008C91D097481708F450C0D1968C91D197CF
:10164000481708F04AC09F969C919F979E968C9150
:101650009E97260F261730F4691718F42FEF290FDD
:1016600003C0682F6917C8F58217B8F5681708F422
:10167000682F291708F4922F292F261B25C09E9624
:101680008C919E97681748F19F968C919F97681749
:1016900020F5D1969C91D197D0968C91D097240F1C
:1016A000241730F4491718F42FEF290F03C0482FDF
:1016B000491798F4821788F4481708F4482F291717
:1016C00008F4922F292F241B9196ED91FC9192976B
:1016D0000480F581E02DCD0109950F910895FC015D
:1016E000EC59FF4F633010F46083089581E08083EC
:1016F0000895CF93DF93EC0162D9CE0171D98111A6
:10170000FCCF60E0CE0147D9DF91CF910895A0E0F2
:10171000B0E0ECE8FBE0D9C2EC01142F79016B30AA
:1017200089F148F4693051F16A3009F056C062D04D
:1017300064E371E02BC06E3081F16F3009F04DC071
:1017400028DAF70183810C89F8E08F9F000D1124BE
:1017500060E2CE0109DA602F6068CE0105DAF70198
:1017600064816064CE0100DAF701C080D180F2802C
:10177000FF0CFF0CFF0C84E5E82E24C06CE071E048
:1017800031D006C0411106C06DE271E0CE0117DA1A
:1017900081E024C064E271E0F9CFFBD961E2CE01BF
:1017A000E3D9612F66956068CE01DED913C0043598
:1017B00088F4FE2CF01AA6016F2DCE01E0D90F0D92
:1017C000115041F0802F90E08F0D911D85359105CE
:1017D00074F7F1CFCE01E8D9DBCF80E0CDB7DEB72B
:1017E000E8E08FC2FC0171836083FB012289FC0168
:1017F000248B0895CF93DF93EC01EA85FB8520E0ED
:1018000030E040E068E20995EE81FF8120E030E0C1
:1018100040E064E1CE01099541E06BE4CE0107D9D7
:10182000E881F981448169E2CE0101D940E06BE4AD
:10183000CE01FDD8E881F981448169E2CE01F7D873
:1018400041E06BE4CE01F3D8E881F981458169E29A
:10185000CE01EDD8DF91CF910895A5E0B0E0E2E3AD
:10186000FCE037C26C834D832B831A830983DC0130
:101870001496ED91FC9115979E012F5F3F4F41E02B
:101880006FE009952596E4E040C2DC011496ED91E5
:10189000FC91159720E030E040E069E0099508955B
:1018A000DC011496ED91FC91159720E030E040E0CA
:1018B0006AE009950895462FDC011496ED91FC919C
:1018C000159720E030E06BE009950895DC0114964F
:1018D000ED91FC91159720E030E040E060E1099542
:1018E0000895462FDC011896ED91FC91199720E0A0
:1018F00030E060E2099508959A01DC011896ED91B7
:10190000FC911997462F67E109950895A1E0B0E091
:10191000EBE8FCE0E0C16983AE014F5F5F4F61E03F
:10192000EBDF2196E2E0F3C1A0E0B0E0E9E9FCE002
:10193000CBC1EC01142F7901A881B981683109F478
:101940004CC068F4643109F43BC0673109F061C0F0
:101950001C960C91017081E0D82ED01A26C06931F6
:1019600009F44AC0603209F054C06AE432C0B7FEDC
:1019700025C041E061E4CE015AD8BB0C4D2D60E496
:10198000CE0155D8E881F98146816CE2CE014FD86D
:10199000402F60E4CE014BD8E881F98147816CE2A9
:1019A000CE0145D8CA94C110E2CF1123A1F0F701AE
:1019B000B1907F01115088E0C82ED9CF40E0DACF36
:1019C00011964C9169E433D8E881F98144854170DE
:1019D00060E4CE012CD881E01DC04C9169E427D889
:1019E000A881B981EA85FB8520E030E012964C9110
:1019F0006CE2CE010995EFCFEA85FB8520E030E06F
:101A000013964C916CE20995E881F981418169E472
:101A1000E0CF80E0CDB7DEB7E9E072C172D0AFD0E1
:101A200060E070E080E091E024D1FFCF6C3209F4F7
:101A300066C0A8F4693221F148F4683209F05CC04C
:101A4000259A239A569A579A559A59C06A32A1F004
:101A50006B3209F051C080E090E050E015C069346D
:101A6000C9F128F4603451F1613471F145C06A3430
:101A7000B9F16B34D9F140C080E090E050E00AC089
:101A800080E090E050E00FC084179507C4F500C0D7
:101A90000196FACF8417950794F525E32A95F1F777
:101AA00000000196F7CF841795074CF5EFE9FFE0AA
:101AB0003197F1F700C000000196F5CF442311F0F3
:101AC0002D9A1DC02D981BC0442311F02B9A17C0CE
:101AD0002B9815C0442311F05E9A11C05E980FC078
:101AE000442311F05F9A0BC05F9809C0442311F0A2
:101AF0005D9A05C05D9803C021E0FC01228F81E062
:101B00000895209A2898289A559A5D985D9A26E11A
:101B10003DE044E95CE066E071E088E693E011DDD9
:101B200088E693E0BDDE60E088E693E0C4DE88E608
:101B300093E00E94AE0460E088E693E05EDB68E636
:101B400070E088E693E032CCEF92FF920F93CF9350
:101B5000C82F062F7A0188E693E00E94AE042C2F4E
:101B600040E060E088E693E00E94650588E693E047
:101B70000E94C204CF910F91FF90EF90089561E011
:101B800088E693E0ACDD4DE856E060E384E5DCDF19
:101B90002FEF87EA91E6215080409040E1F700C0A6
:101BA00000004DE754E060E384E5CEDF2FEF87EAE5
:101BB00091E6215080409040E1F700C00000089578
:101BC000A0E0B0E0E5EEFDE07FC08C01FC01C48147
:101BD000D58188E693E00E94AE0425E431E040E040
:101BE00060E088E693E091DBE12CF12C85E1B82EF2
:101BF000F8018281F816C8F5288130E08A8190E0EA
:101C0000821B930B4E2D50E06901C40ED51EE39448
:101C10004817590754F5BC9CF001BD9CF00D1124E8
:101C2000EC0FFD1F458141FDEDCF298130E08E2D68
:101C300090E001972817390711F460E001C061E0D6
:101C400088E693E04CDDBC9C9001BD9C300D1124D6
:101C5000285F3F4F2C0F3D1FF80141814F0D6081E0
:101C600088E693E052DBF394C3CFCDB7DEB7E9E06B
:101C700047C00F931F93CF93DF93EC018B0188E64E
:101C800093E00E94AE0488E693E033DD2BE431E07C
:101C900041E061E088E693E038DB8C819D81F801CA
:101CA000948383831D830C83CE018ADFDF91CF91E0
:101CB0001F910F9108952F923F924F925F926F92D2
:101CC0007F928F929F92AF92BF92CF92DF92EF92CC
:101CD000FF920F931F93CF93DF93CDB7DEB7CA1B4D
:101CE000DB0B0FB6F894DEBF0FBECDBF09942A8878
:101CF000398848885F846E847D848C849B84AA8420
:101D0000B984C884DF80EE80FD800C811B81AA81AC
:101D1000B981CE0FD11D0FB6F894DEBF0FBECDBF77
:101D2000ED010895DC0101C06D9341505040E0F792
:061D30000895F894FFCFB6
:101D36000002040A00005C0A520A240A0001050592
:101D460002020C4B00093D0000041E280B06000091
:101D5600540030001815201508152419FF181520F1
:101D6600150C19FF1815211506151315C015201584
:101D760008152419FF77616B6B610064616B6B61F9
:081D86000070616B6B6100004D
:00000001FF
