:100000000C9490080C94AD080C94AD080C94AD08B9
:100010000C94AD080C94AD080C94AD080C94AD088C
:100020000C94AD080C94AD080C94AD080C94AD087C
:100030000C94AD080C94AD080C94AD080C94AD086C
:100040000C940E280C94AD080C94AD080C94AD08DB
:100050000C94AD080C94AD080C94AD080C94AD084C
:100060000C94AD080C94AD0800000000230026009D
:10007000290000004908B400BEF67B7AA59455B863
:1000800048002944442A15A00B42005003020008EE
:10009000259076BA595CC59EC53892E6F33A73BA94
:1000A000E59077BA773A084008502A441CE0885215
:1000B000E508568E77B677B8728CD6BA739E73926F
:1000C00072AEB7B6E95C64AAB7B4929CBEB6D6B6B7
:1000D00056AAD79276EE77B47138E948B6AEB6AA8A
:1000E000B6F6B5B4B548E59C694C9124642E54002D
:1000F000001C44000EAE9ABA0E8C2EAE0ECE56D018
:10010000553B93B44144415197B4494417B61AB68C
:100110000AAAD6D3766717900F389A8C16AE16BAFD
:1001200016F615B4B52B1C5E6B4C4948C95A5400E1
:1001300056E28D01020408102040801B362A23302D
:100140003623002A2330303030230053636865643F
:10015000756C65004C696E6B730047616D6573006B
:100160004E4F5049412031333337000000181400FE
:1001700000181400001814000018140000590000A2
:100180000408040000190004040804000408140012
:1001900000190100050804001019000004080500FA
:1001A00001190000140804000019100010180400C0
:1001B00000091400040901000518000004181000CB
:1001C00000180500010904001409000004180400C7
:1001D0000019040004090400041900AA882AA22AAC
:1001E0002A2A637C777BF26B6FC53001672BFED7C1
:1001F000AB76CA82C97DFA5947F0ADD4A2AF9CA4B0
:1002000072C0B7FD9326363FF7CC34A5E5F171D81F
:10021000311504C723C31896059A071280E2EB270D
:10022000B27509832C1A1B6E5AA0523BD6B329E330
:100230002F8453D100ED20FCB15B6ACBBE394A4C10
:1002400058CFD0EFAAFB434D338545F9027F503C90
:100250009FA851A3408F929D38F5BCB6DA2110FFBC
:10026000F3D2CD0C13EC5F974417C4A77E3D645DB9
:10027000197360814FDC222A908846EEB814DE5E46
:100280000BDBE0323A0A4906245CC2D3AC6291959A
:10029000E479E7C8376D8DD54EA96C56F4EA657AD6
:1002A000AE08BA78252E1CA6B4C6E8DD741F4BBD77
:1002B0008B8A703EB5664803F60E613557B986C124
:1002C0001D9EE1F8981169D98E949B1E87E9CE5541
:1002D00028DF8CA1890DBFE6426841992D0FB054EB
:1002E000BB1600000000240027002A0000000000C8
:1002F000250028002B000404040404040404020262
:100300000202020203030303030301020408102094
:10031000408001020408102001020408102000009F
:1003200000080002010000030407000000000000B4
:100330000000000000000D00000056685982E9A48A
:10034000FDB26C1C548F7CF7563D437E85DA6D5CA4
:10035000B082169820B622C53CE631D8E9D6AD0069
:10036000FD33B8E5E977131FC2B24949EAB20B0081
:10037000000076302E302E312D626574610300004E
:10038000006F999FF80100000000000000000000CD
:10039000000000000000000000000000000000005D
:1003A000000000600000000000000000000E0000DF
:1003B0000000000000000001E0000000000000005C
:1003C00000001A00000000000000000000200000F3
:1003D000000000000000000200000000000000001B
:1003E00000002000000000000000000007000000E6
:1003F00000000000000000F8000000000000000005
:100400000018C0000000000000000003060000000B
:10041000000000000C0FFFFF81800000000000FFC3
:10042000AB26AFF80007FC07F00AAAB8EAAA8000DA
:10043000FFE1FF80BFABFEAFE8000FCE3FFC0AAA92
:10044000AAAAAA8000E0E7C3E0AAAAAAAAA8000E66
:100450000E781F0AAAAAAAAA8000FFCF00F0AFFF59
:10046000FFEAA8000FFEF18F0F800007FF8000E079
:10047000EE3C63000000007F000E0EE3C0000000B1
:1004800000003E00E1EF19FE67E01F87F8780FFCDF
:10049000F03FEEFFCFFCFF81E0FF8787FCEFFEFF20
:1004A000DFF007000078700EE1EF01C0003C30C3C0
:1004B0008700EE0EF01C0000E79E387F0CE0EFF99D
:1004C000F8000E79E381F9DE0EFF8FE000778C787B
:1004D00007DDC0EE001F00073C0F801DDC1DE000A3
:1004E000380073E1F003DDC3DE000780071FFE0F55
:1004F000FD9FF9FFBFF800E0FFC0FF99FF1FFBFF62
:10050000000C03F00000000000000001800000006B
:10051000000000000000300000061868C38E38603C
:100520000C00000082468A20A28903000000083CDB
:1005300058C38C30F1C000000082458A20A2896037
:10054000000000062448C38A289000000000000034
:100550000000003000000000000000003FF8000034
:10056000000000000000000000000000000000008B
:10057000000000000000000000000000000000007B
:10058000F801000000000000000000000000000072
:10059000003E0000000060000000000C10000000A1
:1005A0000900000000033E8C0000076C0000000002
:1005B000CFE9200000863000000033FF6D000017F7
:1005C000FC80000004FFF5D61C66FFB4000000BFED
:1005D000FF3D9239C1F740000017FFF7B6DC638E8C
:1005E000E8000002FE3F76F3DEFCFA8000005FDDEB
:1005F000EEDB7BECDF6800000BFA5DDBB5B6CDFE11
:100600008000017F481F76DB7DFFC900002FE96372
:10061000F7EDF7FFD9000005FD2EFFFD9F6F1D3C94
:1006200010005FA5CF9F99A10E3FFC000BF4BCD931
:10063000FB4FFFFFFFE000BE8BDD99F78303FBFB61
:10064000200BE8BFBB9E97879F7B78017D0BFBF655
:10065000176CFDFF7FC017D0BFFE9E779DDEFF7E2B
:10066000017D05BE100F6DADDF6FE217A023FE1FE9
:10067000F6D2DFEFF6017A06FE87FF7B01FFF3F08B
:1006800017A09FD0FBF8360104DF017DD7FA3E0F9B
:1006900056F6E79EF017E2FB4780F56D6F61AF41BC
:1006A0007FDE74F08F6EC6D799E00BFD9E9C01F73C
:1006B000D66D62DE005FDFD0043F79E6F63DC00212
:1006C0007DF2040FFB0C6E799C00182EDF83FDCFAA
:1006D00039186380007D17FFFF0FFFFFFFF0000058
:1006E0000EFFFFC603FFFFFE0800001E7FC1FCFCDB
:1006F000FFFE1000010303F03FFF1E3F88000000D3
:10070000E13E4F3FC381F00000403807C1C1F8729D
:100710001E2000001E08F8309F0E05C000007FD08C
:100720001F2601F1D03A400003E07FE0C81E3827C1
:10073000800000007FF81C0BC720F00000003FC0C5
:10074000070278E03E000002000001E3FE007F8225
:10075000000000004200FF80FFE0000000020002F5
:100760007C003FE080000004000000021100000057
:10077000000000000100000080000000F8010000FF
:100780000000000000000000000000000000000069
:1007900000000030800000000000004010061F0034
:1007A000020000003E000006C3BC000080101E785E
:1007B0000006CEFFC10000000F83C000FCFFFE005A
:1007C0000000079FFF010CE7FEE000000FC3C070B0
:1007D00000EE7FFC000003CFC000000FFFBFC00889
:1007E00001F8F0000000FFDFD0000019C300000096
:1007F0003FFFFB0000030F18808087FFBFC0401041
:100800007079C38000F7EFF800001FE7FC58000C78
:100810003FFF000403FE3FF9010001FFC401007126
:10082000F3E7B0002037B820800D8FE73E200007A7
:10083000DF401081987E39000727FF80080133C10F
:10084000F1D2223FFFF10000063F1FFF8000FFF0C2
:10085000024050E39FDE580001E10400009FA1FD2B
:10086000B592840040000993BE1ECB700211002097
:10087000A40433FDECB62208444001000F3CFF6F96
:1008800005555FF094A2D3198F36F18803C791887C
:100890008085F9E76E55DDF81D5EA565CF9DFCCF1F
:1008A000FFF5C3C7E153225FBBC3FFFFEE7BF76ACF
:1008B0000AD5FB8FFEA17FEF5C72AE52FDF9FF48B7
:1008C000047C6B87D55BFF0F0E00F1E1C7303D9CC8
:1008D0002971F0C7861F0C7F01F76F3F0F1CFC21A9
:1008E000F0C7F01EBBDEE0708FC21E1C7E187E3D7E
:1008F0004E0700F82001C3C3C37EFFE0200F82082B
:10090000FC3C3C3B7FCE30087861FFE18383BBFF3A
:10091000F180870E1FFC30001FFFFF1C0820E0FF46
:10092000C30FC3FFFFF1F1E01E1FFC71FC3FFFFF8F
:100930008F1F97F1FF873FE3FFFFFFF9FFFF1FFDC9
:10094000F7FE3FFFFFFFCFFFF9FFFFFFEFFFFFFFC6
:10095000FFFFFFDFFFFFFFFFFFFFFFFFFFFFFFFFC7
:10096000FFFFFFFFFFFFFFFFFFFFFFFFFFFFFFFF97
:10097000FFFFFFFFFFFFFFFF04000000FD5C4210D0
:100980000D000000536E616B650D0A546574726949
:1009900073530000004253696465732C687474706B
:1009A000733A2F2F7777772E627369646573617559
:1009B0002E636F6D2E61752F0D0A43536964657345
:1009C0002C68747470733A2F2F7777772E6273695F
:1009D00064657361752E636F6D2E61752F63736926
:1009E0006465732E68746D6C360000004469616C38
:1009F0000D0A53636865642E2044617920310D0A25
:100A000053636865642E2044617920320D0A4C6975
:100A10006E6B730D0A47616D65730D0A50686F74D4
:100A20006F736D030000393A3030616D2C393A3103
:100A300030616D2C436F6E666572656E6365204F25
:100A400070656E696E672C53696C76696F2026201D
:100A50004B796C69650D0A393A3130616D2C313052
:100A60003A3030616D2C4B65796E6F74652C4D7921
:100A700020437962657220697320547269636B6CDC
:100A8000696E6720446F776E20616E6420746865BC
:100A9000206F7468657220446976657273652050B2
:100AA000726F626C656D73206F662074686520419B
:100AB00067696E67204861636B65722C4D65746C65
:100AC00073746F726D0D0A31303A3030616D2C31B4
:100AD000303A3530616D2C4361746368696E67200C
:100AE00027526179732C537465766520476C617366
:100AF000730D0A31303A3530616D2C31313A313075
:100B0000616D2C566F5749464920616E6420796F9C
:100B100075212C686F7720736F6D656F6E6520632C
:100B20006F756C64206861766520726561642079F8
:100B30006F75722074657874206D65737361676575
:100B4000732C44617669640D0A31313A3130616D3C
:100B50002C31323A30302C5363727574696E7920BF
:100B60006F6E2074686520426F756E7479202870EE
:100B7000756E2068616C6C206F662066616D652003
:100B8000706C7A292C4E617468616E69656C2026E0
:100B90002053687562730D0A31323A3030706D2C13
:100BA000313A3030706D2C4C554E434820425245FE
:100BB000414B2C0D0A313A3030706D2C313A3530C2
:100BC000706D2C4275696C64696E67204368616C56
:100BD0006C656E6765204C6F636B732C4B6C657036
:100BE00061730D0A313A3530706D2C323A31307004
:100BF0006D2C4F70656E20536573616D652C627945
:100C000070617373696E6720424D43732054726143
:100C1000646563726166742C44616E204B656E6E10
:100C20006564790D0A323A3130706D2C333A3030C8
:100C3000706D2C54686520526F616420746F20536E
:100C400068656C6C206973205061766564207769F3
:100C5000746820476F6F6420496E74656E74696FA5
:100C60006E732C4C69616D20262057696C790D0AD2
:100C7000333A3030706D2C333A3230706D2C41463F
:100C80005445524E4F4F4E20425245414B2C0D0A77
:100C9000333A3230706D2C343A3130706D2C4861FB
:100CA000636B696E67204669627265204368616E96
:100CB0006E656C2028464329204E6574776F726BF1
:100CC000732C4B796C69650D0A343A3130706D2C98
:100CD000343A3330706D2C546872656174204C6105
:100CE0006E6473636170652047617264656E696EDE
:100CF000672C4E65616C20576973650D0A343A3371
:100D000030706D2C353A3230706D2C416476656EE2
:100D1000747572657320696E20476C6974636869C5
:100D20006E6720504943204D6963726F636F6E7424
:100D3000726F6C6C65727320746F204465666561B8
:100D400074204669726D7761726520436F707920F7
:100D500050726F74656374696F6E2C4472205369AE
:100D60006C76696F204365736172650D0A353A329E
:100D700030706D2C353A3330706D2C4461792043DE
:100D80006C6F73652C53696C76696F2026204B79E4
:100D90006C69650C030000393A3030616D2C393ACA
:100DA0003130616D2C4461792054776F2057656C28
:100DB000636F6D65204261636B2C53696C76696F5C
:100DC0002026204B796C69650D0A393A3130616D06
:100DD0002C31303A3030616D2C41747461636B6931
:100DE0006E67204869676820536563757269747916
:100DF000204C6F636B2053797374656D732C546F43
:100E000070790D0A31303A3030616D2C31303A3220
:100E100030616D2C436F756E746572696E67204327
:100E200079626572204164766572736172792054CB
:100E30007261646563726166742C4D6174742057CD
:100E4000696C636F780D0A31303A3230616D2C3144
:100E5000313A3130616D2C476C6F62616C20486FA4
:100E60006E6579706F74205472656E64732C456C76
:100E70006C696F74204272696E6B0D0A31313A31C0
:100E800030616D2C31323A3030706D2C4E617661AC
:100E90006C2D67617A696E67207769746820446F8A
:100EA000636B65722C4672656E636869650D0A3105
:100EB000323A3030706D2C313A3030706D2C4C55E8
:100EC0004E434820425245414B0D0A313A30307072
:100ED0006D2C313A3530706D2C45464620275365D0
:100EE000637572652720494D2053636F7265636196
:100EF0007264205265766965772C44616E202620E5
:100F00004D6174740D0A313A3530706D2C323A31BE
:100F100030706D2C446965204861726420372C5014
:100F2000617373776F72647320506C656173650DC4
:100F30000A323A3130706D2C333A3030706D2C41BA
:100F40006C6C20796F7572204261736573206172D9
:100F5000652042656C6F6E6720746F2055732C207E
:100F600074686520666972737420325E333220596A
:100F700065617273206F6620536563757269747959
:100F80002C50656172636520262053746577617209
:100F9000740D0A333A3030706D2C333A3230706D44
:100FA0002C41465445524E4F4F4E20425245414BE4
:100FB0002C0D0A333A3230706D2C343A3130706D6A
:100FC0002C57687920796F752073686F756C646E23
:100FD0002774207573652053534C0D0A343A313011
:100FE000706D2C343A3330706D2C456C65766174BD
:100FF0006F7220426173696373202620506F74659D
:101000006E7469616C204675747572652056756CD6
:101010006E65726162696C69746965732C57697A6F
:101020007A792028616B61204A6F7368290D0A3430
:101030003A3330706D2C353A3230706D2C41637418
:1010400069766520496E636964656E7420526573C4
:10105000706F6E73652C43616E646C6973682026D3
:101060002054657574656E626572670D0A353A3293
:1010700030706D2C353A3430706D2C41776172646C
:1010800073202620436C6F73696E67204365726519
:101090006D6F6E792C53696C76696F2026204B79C1
:1010A0006C69650C00000055504C4F41442053437F
:1010B0004F524524000000687474703A2F2F31306D
:1010C0002E312E312E3130303A333131372F696E97
:1010D0006465782E68746D6C3F743DEC103BDF6C7A
:1010E0001C548F7CF7563D437E85DA6D5CB082FFE1
:1010F000AB81D963616E2774206265207472757349
:1011000074656400756E6C6F636B656420616E64FA
:1011100000596F7572206465766963652069730094
:1011200011241FBECFEFD8E0DEBFCDBF11E0A0E09D
:10113000B1E0EAEAFCE702C005900D92AA38B107D7
:10114000D9F725E0AAE8B1E001C01D92A83AB2079C
:10115000E1F70E94BB370C94533E0C940000FB0156
:101160008491089580FF12C081FD0AC06A3010F496
:1011700080E311C06A3089F06B3089F083E40BC0E2
:1011800082FD02C08BE407C08BE605C082FD02C071
:1011900081E401C081E6860F08958BE208958DE217
:1011A0000895CF93DF93CDB7DEB760970FB6F8946D
:1011B000DEBF0FBECDBF2091D4013091D501DE013D
:1011C000119640E050E0BD018AEAFA013496E20F40
:1011D000F31F9491982794279D934F5F5F4F403161
:1011E000510599F7F90174968491E091E501F09128
:1011F000E60140E150E090E0099560960FB6F89462
:10120000DEBF0FBECDBFDF91CF91089525E030E066
:1012100040E050E060E070E0CB010E945527609311
:101220008B0125E030E040E050E060E070E0CB0171
:101230000E94552760938A01089520E031E040E044
:1012400050E060E070E0CB010E945527862F0895A2
:101250000F931F93CF93DF93082F87E00E94BB2744
:1012600060E086E00E94BB27C7E0D0E010E0B80154
:101270000C2E02C0759567950A94E2F76170772786
:101280008BE00E94BB2761E08DE00E94BB2760E0FD
:101290008DE00E94BB27219750F761E086E0DF9147
:1012A000CF911F910F910C94BB270C940228EF92C1
:1012B000FF920F931F93CF93DF93D62F9C01332779
:1012C000F901E25EFC4F8491F901E65FFC4FF49076
:1012D000F901EA50FD4FC491062F10E0CC2371F0C4
:1012E00081110E949227EC2FF0E0EE0FFF1FE859CA
:1012F000FF4FA591B491EC91EF21F1F4F801EE517B
:10130000FE4F808181111EC081E080830E940228EF
:10131000000F111F000F111FF801EA52FE4F6083EA
:10132000718382839383E091F503F091F603309704
:1013300009F447C041E030C0F801EE51FE4F808112
:10134000811136C0C8018E519E4F7C01FC01808105
:101350008130B9F50E940228000F111F000F111FE4
:10136000F801EA52FE4F0081118122813381DC01B4
:10137000CB01801B910BA20BB30B893E9340A105BF
:10138000B105F8F082E0F7018083E091F503F09178
:10139000F6033097B1F042E06D2F8091F303909106
:1013A000F403DF91CF911F910F91FF90EF9009947B
:1013B0001082E091F503F091F603309711F040E0D0
:1013C000EBCFDF91CF911F910F91FF90EF90089598
:1013D00060E082E090E00E94570961E083E090E0E5
:1013E0000E94570962E084E090E00C945709CF9284
:1013F000DF92EF92FF920F931F93CF93DF9397FDAE
:1014000018C069017A018B01EC0140E050E00E94B4
:10141000E0340817190769F4A601B701CE01DF917E
:10142000CF911F910F91FF90EF90DF90CF900C9490
:101430005C348FEF9FEFDF91CF911F910F91FF9061
:10144000EF90DF90CF900895EF92FF920F931F934C
:10145000CF93DF93EC018B017C01E40EF51ECE15DA
:10146000DF0541F0F80161918F01CE010E949A3AA7
:101470002196F5CF81E0DF91CF911F910F91FF90E1
:10148000EF900895A091F103B091F203109799F0B5
:101490001197B093F203A093F103AA0FBB1FAA0FF9
:1014A000BB1FA457BE4FED91FC91119712968D91E1
:1014B0009C91139709940895413011F40C94420AB9
:1014C00008952091F1033091F2032A30310588F418
:1014D000F901EE0FFF1FEE0FFF1FE457FE4F918340
:1014E0008083738362832F5F3F4F3093F203209397
:1014F000F103089560E00C942809CF93DF9380E80E
:101500000E947A0A80E40E947A0AC7EED1E061E084
:1015100089910E94280983E0CF3DD807C1F7DF9168
:10152000CF910895F4E5F69F9001F79F300D1124B7
:10153000820F931F60EA72E00E941F3BF69F9001AA
:10154000F79F300D112464E570E00E941F3BF90104
:10155000E80FF91FE83F81E0F80788F4E951FE4FF2
:1015600081E090E001C0880F6A95EAF7442319F002
:101570009081892B03C08095908189238083089571
:101580000F931F93FB01BA0141E0012B022B032BA8
:1015900009F440E0CF011F910F910C94920A2F9211
:1015A0003F924F925F926F927F928F929F92AF92F3
:1015B000BF92CF92DF92EF92FF920F931F93CF9340
:1015C000DF93CDB7DEB728970FB6F894DEBF0FBE16
:1015D000CDBF3B012A01302F512F20320CF420E2E5
:1015E000812C912C2052822F90E0880F991F8C0122
:1015F0000D581F4FBC016E587F4F78876F83F801DD
:10160000849180FF03C0C401019701C0C401009709
:1016100019F4EF81F8851BC08130910519F4EF8131
:10162000F8851CC08230910571F4EF81F8859491A2
:10163000F80124919370F4E09F9FC0011124922F30
:101640009270892B10C08330910529F4F8018491A0
:1016500082958F7007C0049721F4F80184918695D4
:1016600001C080E08E70212C312C682F70E07A83CD
:101670006983C401840D951D9C838B8383E090E076
:1016800082199309E981FA8102C0F595E7958A9557
:10169000E2F7E0FD03C0C501D60103C0C701A32FD7
:1016A000B52F41E0892B8A2B8B2B09F440E06B810D
:1016B0007C81C101860D971D3D835E830E94920A45
:1016C000FFEF2F1A3F0A3D815E8144E0241631046A
:1016D000A9F66FEF861A960A76E08716910409F04C
:1016E0008ECF28960FB6F894DEBF0FBECDBFDF9128
:1016F000CF911F910F91FF90EF90DF90CF90BF900F
:10170000AF909F908F907F906F905F904F903F90A1
:101710002F9008952F923F924F925F926F927F92F7
:101720008F929F92AF92BF92CF92DF92EF92FF92F1
:101730000F931F93CF93DF9300D000D01F92CDB7AC
:10174000DEB72A0169010E94962D5C01198297017A
:101750002C0D3D1D3D832C837601612C712C812C39
:10176000912C2C813D81E216F306E9F1C12CD12C9C
:10177000130181E0281A3108C016D10661F1C101B8
:101780008C199D099C01277033273B832A83C6014E
:10179000880D991D87709927892B51F441E050E0FD
:1017A000BE016F5F7F4FC5010E945C340197D9F481
:1017B000498150E00A8002C0559547950A94E2F7A6
:1017C0004170B701C601840D951D0E94920A3FEF3A
:1017D000C31AD30AD1CF9FEFE91AF90A800E911EDE
:1017E000601A710ABECFC5010E94602D0F900F9044
:1017F0000F900F900F90DF91CF911F910F91FF905D
:10180000EF90DF90CF90BF90AF909F908F907F90A0
:101810006F905F904F903F902F900895AF92BF923E
:10182000CF92DF92EF92FF920F931F93CF93DF93AC
:10183000A82EB0908A01811108C0B0908B01C1E040
:10184000D0E06EE4C62ED12C04C0C0E0D0E0C12CA4
:10185000D12CE12CF12C870126E230E046E050E06B
:1018600060E070E0C6010E94D635CC0EDD1ECC0EC5
:10187000DD1E83E08B1568F4E12CF12C8701E394E5
:1018800027E030E044E050E060E070E0C6010E94F4
:10189000D635CC0EDD1E82E08B1568F4E12CF12CE0
:1018A0008701E39427E030E043E050E068E070E037
:1018B000C6010E94D635CC0DDD1D81E08B1570F47C
:1018C000E12CF12C8701E39427E030E042E050E086
:1018D00060E170E0CE010E94D63502C0BB2069F005
:1018E000E12CF12C8701E39426E030E042E050E067
:1018F00068E170E0CE010E94D635A1100FC0AE01A4
:101900004250510996E0E92EF12C04E010E02FE15D
:1019100030E069EE74EA8DEF92EB0CC086E0E82EC1
:10192000F12C05E010E02FE130E0AE016DE67CE542
:1019300080EB92E80E948A0BDF91CF911F910F916B
:10194000FF90EF90DF90CF90BF90AF90089588EF19
:1019500091E0E7EEF1E0DF019C011D922150304063
:10196000E1F708955F926F927F928F929F92AF926C
:10197000BF92CF92DF92EF92FF920F931F93CF937C
:10198000DF93CDB7DEB7E0970FB6F894DEBF0FBE9A
:10199000CDBF5C018090E1039090E203E090DF0313
:1019A000F090E003FC0101900020E9F731978F01EE
:1019B000081B190B39F49401A70160E070E080E086
:1019C00090E099C0009709F447C06C01FC01819137
:1019D000811144C017FD0FC19801AAE0B0E00E9438
:1019E000FC3A6E5F7F4F8F4F9F4F23E030E040E027
:1019F00050E00E94A83A211580E8380741055105BA
:101A00000CF0F9C0C9010796BC01F3E07695679523
:101A1000FA95E1F7653D710508F0EDC081E090E0D1
:101A20009AA789A759011CA70BA7AB0160E070E03A
:101A3000C7010E94603B18AA1FA660E070E080E02A
:101A400090E01AE0D6012D916D012223E1F030EDF6
:101A5000320F3A3008F49BC00E94333B80538A30E7
:101A600008F4B5CF3501F30161913F01662309F414
:101A7000ACC0062E000C770B8FE391E00E94673B11
:101A8000892B89F732C16115710569F09B01220F1D
:101A9000331F620F731F6F5F7F4F9E01215D3F4FAA
:101AA000A7010E94251F8FA598A98A159B05A1F65D
:101AB000EDA6FEA688E0FE01B996DE0159960190DA
:101AC0000D928A95E1F788E0FE017996DE01919604
:101AD00001900D928A95E1F788E0FE01B196DE0152
:101AE000519601900D928A95E1F79401A70161E06A
:101AF00070E0CE0141960E949528882309F418C110
:101B00008091E1039091E2030E948E1D6C018C0193
:101B100097FF02C00F5F1F4F15950795119501950F
:101B200011090E94A70CE12CF12C065D1F4FEC144B
:101B3000FD040CF0FDC0A12CB12C8091E10390912B
:101B4000E203009709F488CFDC012C9130E0A21663
:101B5000B3064CF4E216F30634F4A701B5010E9473
:101B60005D1D282F02C020E030E0422F4170B701F8
:101B7000C8018A0D9B1D0E94920ABFEFAB1ABB0AD7
:101B8000AC14BD04D4F2EFEFEE1AFE0AD0CF189FCA
:101B9000A001199F500D1124CA01C097820F911DF9
:101BA00027FD9A956F5F7F4F6330710509F04ACF2B
:101BB0009E01215D3F4FA7016AE070E00E94251F52
:101BC00060E070E080E090E03DCF17FD14C0980128
:101BD000ABE0B0E00E94FC3ADC01CB010196A11D14
:101BE000B11DB595A795979587958115F0E89F0745
:101BF000A105B1051CF0F40110829AC0AC01495F47
:101C00005F4F63E0569547956A95E1F7453D51056D
:101C100090F722E030E03A8B298B5C011C8B0B8B18
:101C200060E070E0C7010E94603B188E1F8A612C43
:101C3000712C00E010E04DE2542ED6016D916D0143
:101C4000662349F1062E000C770B8FE391E00E948A
:101C5000673B009709F400CF509E9001519E300DD4
:101C600011248F5391408C01020F131F6A9467282F
:101C700071F49E01295E3F4FA7016BE070E0C8013F
:101C80000E94251F612C712C00E010E0D6CF662445
:101C90006394712CD2CF6A94672849F49E01295E1F
:101CA0003F4FA70166E070E0C8010E94251F8F89A1
:101CB000988D8A159B0509F0CFCEED8AFE8A88E0C3
:101CC000FE017196DE01119601900D928A95E1F761
:101CD00088E0FE013196DE01199601900D928A95F9
:101CE000E1F788E0FE013996FACE053D110508F0CE
:101CF00082CFF701A00EB11ED6018D916D018193A7
:101D0000AA15BB05C9F784E090E09A8B898BC801BE
:101D1000A0E0B0E023E0880F991FAA1FBB1F2A95FF
:101D2000D1F7988F8F8B1C8B0B8BED8AFE8ADDCEC3
:101D3000E0960FB6F894DEBF0FBECDBFDF91CF9116
:101D40001F910F91FF90EF90DF90CF90BF90AF90D9
:101D50009F908F907F906F905F9008950C94A70C48
:101D60008F929F92AF92BF92EF92FF920F931F9329
:101D7000CF93DF93E091E804F091E904309799F173
:101D8000E090EA04F090EB04A6EEB4E0C0E0D0E00E
:101D9000CE15DF0541F11C9614960D911C911597F7
:101DA000012BF9F479018A014B015C018091E60471
:101DB0009091E70409952CE02C9FF0012D9FF00DE8
:101DC0001124EA51FB4F6287738784879587868247
:101DD0009782A086B186F786E686118B008BCE01AE
:101DE00004C02196D5CF8FEF9FEFDF91CF911F9148
:101DF0000F91FF90EF90BF90AF909F908F900895BC
:101E00000F931F93CF93DF938C0142E050E060E08B
:101E100070E00E94E034EC0197FF03C080E090E0A6
:101E20000AC040E050E060E070E0C8010E94E03489
:101E3000892BA1F7CE01DF91CF911F910F910895CA
:101E40002F923F924F925F926F927F928F929F92CA
:101E5000AF92BF92CF92DF92EF92FF920F931F93B8
:101E6000CF93DF9300D000D01F92CDB7DEB74C01E7
:101E70007D836C831A016901F90110820E94000FB1
:101E80009B838A831982C114D10409F45AC00115B5
:101E9000110509F456C0F6011082612C712CE12C59
:101EA000F12CA12CB12C412C512C2A813B816216A2
:101EB000730609F446C021E030E0AE014F5F5F4F8A
:101EC000B301C4010E94F7090197D9F58981A214D1
:101ED000B30419F52C813D8142165306F1F48C327E
:101EE00081F18A3071F1882361F1E016F10630F05A
:101EF0000C0D1D1DF8013197108223C0F601EE0D67
:101F0000FF1D80833FEFE31AF30AE016F10680F726
:101F1000F601EE0DFF1D108210C08C3221F48FEF00
:101F2000A81AB80A0AC08A3031F49FEF491A590A30
:101F3000A12CB12C02C0882321F0EFEF6E1A7E0A8B
:101F4000B4CF0F900F900F900F900F90DF91CF9123
:101F50001F910F91FF90EF90DF90CF90BF90AF90C7
:101F60009F908F907F906F905F904F903F902F90B9
:101F70000895EF92FF921F93CF93DF93CDB7DEB713
:101F800060970FB6F894DEBF0FBECDBF7C01BE01D7
:101F90006F5F7F4F80E090E00E94FC36882309F459
:101FA0005CC04AE050E06DE671E0CE0101960E940F
:101FB000383B892B09F457C08AE0EDE6F1E0DE01F9
:101FC000119601900D928A95E1F780E00E94EB272F
:101FD000182F0E941D0981278D8781E00E94EB2721
:101FE000182F0E941D0981278E8782E00E94EB270F
:101FF000182F0E941D0981278F8783E00E94EB27FD
:10200000182F0E941D098127888B0E9402282D8588
:102010003E85622773277E876D871C861B8640E17D
:1020200050E0BE016F5F7F4F80E090E00E94240A85
:10203000882399F0BE016F5F7F4F80E090E00E949F
:10204000FC36882351F04AE050E06DE671E0CE01A5
:1020500001960E94383B892B31F0F70110821182E2
:102060001282138209C08D859E85AF85B889F701DC
:1020700080839183A283B38360960FB6F894DEBF0A
:102080000FBECDBFDF91CF911F91FF90EF900895CC
:102090002F923F924F925F926F927F928F929F9278
:1020A000AF92BF92CF92DF92EF92FF920F931F9366
:1020B000CF93DF93CDB7DEB7C850D1400FB6F894B9
:1020C000DEBF0FBECDBFE82E8B01CE0101965C01B5
:1020D00088ECF50111928A95E9F769E479E48AEED2
:1020E00092EB0E94962D6C0147EC50E0B5010E94E6
:1020F0005C34C6010E94602DF50101900020E9F7D3
:1021000031976F01CA18DB0887EC90E03C016C182E
:102110007D08C750DF4F188219821A821B82C95F5F
:10212000D0409801A4E6B0E00E94FC3A1B014C01AB
:10213000CE0187509F4F0E94B90F8E0107521F4F4B
:10214000E0E1FE2EF8016F2D11926A95E9F7C75074
:10215000DF4F88819981AA81BB81C95FD040F80196
:1021600080839183A283B38324823582868297827F
:10217000E0860E941D09F80181870E941D09F8016F
:1021800082870E941D09F8018387BE0167517F4F36
:102190008FEF90E00E94FC36AE0147535F4FFA018B
:1021A0001192FA94E9F7C751DF4F8881C95ED04098
:1021B0008093E701C651DF4F8881CA5ED04080938B
:1021C000E801C551DF4F8881CB5ED0408093E901A3
:1021D000C451DF4F8881CC5ED0408093EA01C35167
:1021E000DF4F8881CD5ED0408093EB01C251DF4F3D
:1021F0008881CE5ED0408093EC01C151DF4F888151
:10220000CF5ED0408093ED01C051DF4F8881C05F29
:10221000D0408093EE01CF50DF4F8881C15FD04026
:102220008093EF01CE50DF4F8881C25FD040809312
:10223000F001CD50DF4F8881C35FD0408093F10122
:10224000CC50DF4F8881C45FD0408093F201CB50E7
:10225000DF4F8881C55FD0408093F301CA50DF4FC4
:102260008881C65FD0408093F401C950DF4F8881D8
:10227000C75FD0408093F501C850DF4F8881C85FA9
:10228000D0408093F601AAEFB1E024E030E0FD01F8
:102290003797E0803196F080319690813196808139
:1022A000B90163707727672BE9F4EF2DF0E0EE5169
:1022B000FE4F6491E92FF0E0EE51FE4FF490E82FCD
:1022C000F0E0EE51FE4F9491EE2DF0E0EE51FE4F16
:1022D0008491F901F695E795F695E795EE5CFE4F4A
:1022E000E490E6262D01F3E04F1A5108BD01635139
:1022F0007109FB016081E626F201E0822D01F2E026
:102300004F1A5108BD0162517109FB016081F62627
:10231000F201F0827D01F1E0EF1AF108BD01615197
:102320007109FB0160819627F70190833F97E08157
:102330008E278C932F5F3F4F14962C32310509F076
:10234000A6CF80E1FA01A7E9B2E001900D928A954B
:10235000E1F7A7E9B2E0C350DF4F19830883CD5FEF
:10236000D040F80190E1900F8D91208182278193D8
:102370009E13FACF47EE51E0B80180E00E946C282E
:10238000FF24F39489ED90E08C0F9D1F0196C150BE
:10239000DF4F99838883CF5FD040E9EDF0E0EC0F09
:1023A000FD1F3296CF5FDE4FF983E883C150D140E5
:1023B00089ED90E08C0F9D1F0396CD5FDE4F9983D2
:1023C0008883C350D140E9EDF0E0EC0FFD1F70961B
:1023D000CB5FDE4FF983E883C550D1408BE1E82E17
:1023E000CE0187529F4F0E945828C652DF4F8881E6
:1023F000CA5DD040C252DF4F9881CE5DD040C652F8
:10240000DF4F9883CA5DD040CE51DF4F9881C25EC6
:10241000D040C252DF4F9883CE5DD040CA51DF4FCB
:102420009881C65ED040CE51DF4F9883C25ED040C7
:10243000CA51DF4F8883C65ED040C552DF4F8881C6
:10244000CB5DD040CD51DF4F9881C35ED040C552A7
:10245000DF4F9883CB5DD040CD51DF4F8883C35E83
:10246000D040C152DF4F8881CF5DD040C951DF4F8E
:102470009881C75ED040C152DF4F9883CF5DD04076
:10248000C951DF4F8883C75ED040C452DF4F888177
:10249000CC5DD040C851DF4F9881C85ED040C45257
:1024A000DF4F9883CC5DD040CC51DF4F9881C45E24
:1024B000D040C851DF4F9883C85ED040C052DF4F34
:1024C0009881C05ED040CC51DF4F9883C45ED0402D
:1024D000C052DF4F8883C05ED040C150DF4F48817B
:1024E0005981CF5FD040CF5FDE4FA881B981C15005
:1024F000D140CD5FDE4F88819981C350D140C95F03
:10250000DE4F99838883C750D1409801F9018081BB
:10251000FA0150805826C95FDE4FE881F981C75023
:10252000D14060819C9196279525492E4826752D8E
:10253000771F7727771F7E9D602D1124550C562617
:102540004524F9014082FA0140805C9054244926D8
:10255000752D771F7727771F7E9D602D1124550CD1
:102560005626452440824C90C95FDE4FE881F981B0
:10257000C750D140508054244926752D771F7727A6
:10258000771F7E9D602D1124550C562645244C92B4
:10259000608186279627782F771F7727771F7E9D64
:1025A000602D1124880F8627982790832C5F3F4F3A
:1025B0004C5F5F4F14963496C95FDE4FF983E88312
:1025C000C750D140CB5FDE4F88819981C550D14043
:1025D0002817390709F09ACF47EE51E0BE0167523C
:1025E0007F4F8F2D0E946C28F3949AE0F912F8CE59
:1025F000CE0187529F4F0E945828C652DF4F8881D4
:10260000CA5DD040C252DF4F9881CE5DD040C652E5
:10261000DF4F9883CA5DD040CE51DF4F9881C25EB4
:10262000D040C252DF4F9883CE5DD040CA51DF4FB9
:102630009881C65ED040CE51DF4F9883C25ED040B5
:10264000CA51DF4F8883C65ED040C552DF4F8881B4
:10265000CB5DD040CD51DF4F9881C35ED040C55295
:10266000DF4F9883CB5DD040CD51DF4F8883C35E71
:10267000D040C152DF4F8881CF5DD040C951DF4F7C
:102680009881C75ED040C152DF4F9883CF5DD04064
:10269000C951DF4F8883C75ED040C452DF4F888165
:1026A000CC5DD040C851DF4F9881C85ED040C45245
:1026B000DF4F9883CC5DD040CC51DF4F9881C45E12
:1026C000D040C851DF4F9883C85ED040C052DF4F22
:1026D0009881C05ED040CC51DF4F9883C45ED0401B
:1026E000C052DF4F8883C05ED04047EE51E0BE014C
:1026F00067527F4F8AE00E946C2880E1FE01E7521A
:10270000FF4FA7E9B2E001900D928A95E1F76114BD
:10271000710409F457C07501EC0CFD1CEDE26E1656
:10272000710408F44DC010E0C12CD12CC350DF4F10
:1027300068807980CD5FD040F3010191C350DF4FB5
:10274000F983E883CD5FD04002950F70602F812F11
:102750000E94B20827014C0C5D1CF2018083F3013A
:1027600010811F70612F802F0E94B208F2018183B7
:10277000F2E0CF0ED11C60E2C616D104B9F66701B3
:1027800080E2C80ED11C37019BE2690E711C20E16A
:1027900030E040E050E060E070E0CB010E9455275F
:1027A000062F812F0E94B208F60181936F01102F2E
:1027B000E615F70561F78DE3F70183A714A602C0BC
:1027C000F7011082C5010E94B20C0E947D0A8CE5BF
:1027D0009AE09093F6038093F5031092F40310921D
:1027E000F30388ECF50111928A95E9F763E17FE143
:1027F00082EC92EB0E94962D8C0147EC50E0B501E3
:102800000E945C34C8010E94602DC12CD12C76013D
:1028100001E010E020E030E0A5016AE270E080E035
:1028200090E00E941C369F928F923F922F9288E7F1
:1028300091E09F938F93BF92AF920E947B3BF501F3
:1028400001900020E9F731979F012A193B094CEFCD
:102850004203C001439F900D112401E010E020E0ED
:1028600030E0A5016AE270E08C5A9F4F0E941C364E
:102870000E947D0A0FB6F894DEBF0FBECDBFC85FC1
:10288000DE4F0FB6F894DEBF0FBECDBFDF91CF9104
:102890001F910F91FF90EF90DF90CF90BF90AF907E
:1028A0009F908F907F906F905F904F903F902F9070
:1028B00008950F931F93DC01FA01A7FF0BC0611568
:1028C000710529F48EE280838183128209C06150F0
:1028D00071098F7789019F0140E050E00E94200F2D
:1028E0001F910F9108958F929F92AF92BF92CF92B6
:1028F000DF92EF92FF920F931F93CF93DF935B01D1
:10290000EA0149010130A9F4E12CF12C8701E3949B
:1029100029E030E046E350E0BE01675F7F4FC5012C
:102920000E960E94D63500E0C12CD12C7601C394BE
:1029300004C001E0C12CD12C760110E020E030E091
:10294000BE01655F7F4FA401C50140960E941C3601
:10295000DF91CF911F910F91FF90EF90DF90CF907B
:10296000BF90AF909F908F9008950F931F93CF9338
:10297000DF931092B5011092B4011092B70110923A
:10298000B601C091E303D091E4030091E5031091F7
:10299000E603CB31D10550F0AE0160E070E0C80134
:1029A0000E94603B6B97F801D18FC08F8091E50347
:1029B0009091E603009759F022E530E0FC0135875D
:1029C000248720E330E0378726870E9421218091E9
:1029D000E5039091E603009749F02FE531E3FC0110
:1029E00037832683158214820E9421218091E5037A
:1029F0009091E603009749F026E431E3FC01338728
:102A00002287118610860E94212185E098E190930B
:102A1000F6038093F5031092F4031092F303DF9111
:102A2000CF911F910F9108954115510579F0FB0148
:102A300001900020E9F73197E61BF70BEE0FFF1F1F
:102A4000EE0FFF1F3496DA01ED93FC93211531054B
:102A500029F089E090E0F9019183808308952F9215
:102A60003F924F925F926F927F928F929F92AF921E
:102A7000BF92CF92DF92EF92FF920F931F93CF936B
:102A8000DF9300D000D01F92CDB7DEB719821A8233
:102A90001B821C820E94A70C4091EF035091F0030F
:102AA0004E5F5F4FC12CD12C760101E010E020E099
:102AB00030E061E070E082E190E00E941C3652E07C
:102AC000452E512C912C80E3890D8D8389E0682E51
:102AD000712C812CE091EF03F091F00391100EC066
:102AE0008CE389839DE29A839B83808149E0242E35
:102AF000312CA12CB12C882371F127C084E09812CD
:102B000010C095E499838EE48A8394E59B83808149
:102B100029E0222E312C35E4A32EB12C8430A9F4E7
:102B20001AC080E289839D819A3339F0892F9B33C3
:102B300031F09C3329F483E203C08AE201C080E3D0
:102B40008A8380E28B83130152018081981212C024
:102B5000818188120FC0E12CF12C8701E39429E0D8
:102B600030E04FE050E0B101C5010E94D63511E0E0
:102B700000E00AC029E030E04FE050E0B101C501BB
:102B80000E94943610E001E01C8240E0B101C501D2
:102B90000E94920A75019EE0E90EF11C40E0B1012D
:102BA000C7010E94920A610188E0C80ED11C40E072
:102BB000B601C5010E94920A40E0B601C7010E9419
:102BC000920AC12ED12CE12CF12C10E020E030E053
:102BD000B1016E5F7F4FAE014F5F5F4FC50102963F
:102BE0000E941C3683949D819D5F9D83C3010A963C
:102BF0003C0194E089126ECF939480E1480E511C01
:102C000095E0991260CF0F900F900F900F900F905A
:102C1000DF91CF911F910F91FF90EF90DF90CF90B8
:102C2000BF90AF909F908F907F906F905F904F90EC
:102C30003F902F9008958F929F92AF92BF92CF9224
:102C4000DF92EF92FF920F931F93CF93DF9300D009
:102C500000D000D0CDB7DEB70E94A70C0091E503ED
:102C60001091E6031E821D821C821B828AE68983E4
:102C70001A820115110541F4E091E503F091E60394
:102C8000309709F066C08BC0D8011A968D919C913F
:102C90001B97892B89F31696ED91FC911797309726
:102CA00059F312968D919C911397892B29F39E01CC
:102CB0002D5F3F4FAE014B5F5F4FBE016F5F7F4F98
:102CC00014968D919C9115970995A12CB12CE12C0E
:102CD000F12CC12CD12C4801BAE18B0E911CF801CA
:102CE00080899189E816F90638F6F801208D318D32
:102CF0002F5F3F4FA401B701C8010E94552097FDE7
:102D0000BBCFE80EF91ED80152962D913C915397F6
:102D1000C216D306D0F056968D919C915797820F8C
:102D2000931FC816D90688F41A96ED91FC911B974B
:102D30009401A50160E070E018968D919C9119971F
:102D400009958B819C81A80EB91EBFEFCB1ADB0AB7
:102D5000C6CFE288F38804891589468957894017C8
:102D60005107E8F430E3349FC001359F900D1124E2
:102D7000B8010E940B3BFB013E9DC0013F9D900DA1
:102D80001124B8010E940B3BE12CF12C8701E39444
:102D90009F0142E050E082E590E00E94D635269601
:102DA0000FB6F894DEBF0FBECDBFDF91CF911F915C
:102DB0000F91FF90EF90DF90CF90BF90AF909F90DA
:102DC0008F900895EF92FF920F931F93CF93DF930D
:102DD00000D000D0CDB7DEB7611106C0423009F097
:102DE000F9C00E94420A06C1413009F003C16130B6
:102DF00079F0623009F0FEC0E091EF03F091F0034A
:102E000080818F5F853010F48083CBC01082C9C071
:102E1000A091EF03B091F00311962C9111979C9122
:102E20009923F9F2943099F0905D822F880F280F42
:102E3000920F9A3309F4DCC09B3309F4B7C09C337A
:102E400009F4C6C0992369F2913009F0B0C07D0140
:102E500082E0E80EF11C44E150E063E471E0CD0152
:102E60000F960E94893A0091EF031091F003015FE1
:102E70001F4FB801C7010E94723B892B61F566E5BF
:102E800078E689E592E80E94962D8C0190930101E5
:102E90008093000160E070E081E99BE10E94610A9B
:102EA0000E94B51442E050E060E070E0C8010E946A
:102EB000E03497FD96CFE091E503F091E60330977B
:102EC00009F48FCF918B808B89E791E39383828381
:102ED0001183008359C044E150E06DE371E0C80103
:102EE0000E94893A0091EF031091F003B801615FED
:102EF0007F4FC7010E94723B892B09F04BC019829A
:102F00001A821B821C82CE0101960E94B90F8C810D
:102F10008F938B818F938A818F9389818F938CE795
:102F200091E09F938F930CEB11E01F930F930E94FE
:102F30007B3B60E070E081E99BE10E94610A0E94B6
:102F4000B5141093B7010093B601F8010190002069
:102F5000E9F731978F010C5B11401093B501009395
:102F6000B401E091E503F091E6030FB6F894DEBFFB
:102F70000FBECDBF309759F0118B008B89EF91E3D5
:102F80009383828311821082CF010E9421210E94AB
:102F90001B1609C0F80132968DE0DF011D928A955B
:102FA000E9F70E942F150E947D0A24C090E39D013D
:102FB0002E5F3F4FF90101900020E9F73197E21BA6
:102FC000F30BEC30F10568F7EA0FFB1F9283E9CFB2
:102FD00093E2EDCF413071F4E091EF03F091F00313
:102FE00081818F5F843010F48183DBCF1182D9CF50
:102FF0009AE2DDCF0F900F900F900F90DF91CF915D
:103000001F910F91FF90EF900895611103C042301E
:1030100069F507C04130C1F5613019F0623019F02F
:1030200008950C94420AE091E503F091E60330978D
:1030300021F40E941B160C947D0A2289338946894B
:103040005789848995898417950718F4138A128AF9
:10305000F0CF2F5F3F4F841B950B2817390718F0CF
:10306000938B828BE6CF338B228BE3CF413061F49D
:10307000E091E503F091E6033097D9F282899389D4
:103080000097B9F20197ECCF08950F9301E023EC7C
:1030900038E142E255EC6CE376EE84E591E00E9483
:1030A00063260F9108950F9320910201309103013F
:1030B00037FF13C0611571058105910571F06093AB
:1030C000D0017093D1018093D2019093D3010E94DB
:1030D000962D90930301809302014091D00150916D
:1030E000D1016091D2017091D30101E022E239E176
:1030F0008BE491E00E9463260F9108958091040172
:10310000909105010E9492378FEF9FEF90930501F8
:1031100080930401809106019091070197FF0E941E
:10312000602D8FEF9FEF90930701809306014091F0
:1031300005045091060460E070E0809103049091D2
:1031400004040C94603B6130710549F020F062305A
:10315000710579F008950E947E180C94420A0E942D
:103160007E1861E070E083E09BE10E94610A0C94AC
:10317000AD300E947E1862E070E083E09BE10E9427
:10318000610A0C94E833AF92BF92CF92DF92EF9234
:10319000FF920F931F93CF93DF93CDB7DEB7C85C39
:1031A000D1090FB6F894DEBF0FBECDBF6B01CE01C3
:1031B00001967C0188ECF70111928A95E9F7672B5B
:1031C00029F40E947E180E94420A2AC062E275EC2D
:1031D0008CE396EE0E94962D5C01B6016150710958
:1031E00008EC10E0970141E050E00E94200FC5017B
:1031F0000E94602D0E947E18B60184E19BE10E942E
:10320000610AC7010E94B20C0E947D0A8CE59AE017
:103210009093F6038093F5031092F4031092F30356
:10322000C853DF4F0FB6F894DEBF0FBECDBFDF919E
:10323000CF911F910F91FF90EF90DF90CF90BF90B3
:10324000AF900895EF92FF920F931F93CF93DF9368
:103250008B0161157105B1F40E947E188091020105
:10326000909103010E94602D8FEF9FEF90930301D7
:1032700080930201DF91CF911F910F91FF90EF900A
:103280000C94420A7B0181E0E81AF1080E947E1842
:10329000B80185E29BE10E94610AC0910201D091D0
:1032A00003010E94B514B701CE010E9459379093D3
:1032B000BB018093BA01B701CE010E9459377C014E
:1032C000B801CE010E945937F7FC07C08E159F0543
:1032D00024F09C012E193F0902C020E030E0309319
:1032E000B9012093B801E091E503F091E60330972E
:1032F00059F0318B208B81E991E393838283D183D1
:10330000C083CF010E9421210E941B16DF91CF9123
:103310001F910F91FF90EF900C947D0A4F925F9256
:103320006F927F928F929F92AF92BF92CF92DF92D5
:10333000EF92FF920F931F93CF93DF93CDB7DEB73A
:103340002E970FB6F894DEBF0FBECDBF1E861D862A
:103350001C861B860E94A70CE12CF12C8701E394AC
:1033600025E030E043E550E065E070E080E090E08B
:103370000E941D359E01235F3F4FAE01455F5F4FA9
:1033800067EF73E080E090E00E9414154B855C8548
:1033900084E590E0841B950B969587959E878D8795
:1033A000E12CF12C870129E030E060E070E00E9420
:1033B000D6358D859E85C12CD12C760101E010E09B
:1033C00020E030E047EF53E062E070E002960E94B8
:1033D0001C3680E00E940E0C81E00E940E0CE090F2
:1033E0000304F09004041A86198618861F828AE660
:1033F0008D831E82E114F10441F4E0910304F09105
:103400000404309709F0B8C0DBC0D70112968D9143
:103410009C911397892B89F31696ED91FC91179740
:10342000309759F31A968D919C911B97892B29F30C
:103430009E01295F3F4FAE01475F5F4FBE016B5F4B
:103440007F4F14968D919C9115970995F70184896A
:103450009589608D718D0E940B3B3B014C01A12C25
:10346000B12C6701FCE1CF0ED11CF701808D918D4D
:10347000A816B90610F6689E8001699E100D789E08
:10348000100D11240A0D1B1DD70156968D919C918C
:1034900057970817190708F0B0CF1C821B821A82B1
:1034A00019825A964D905C905B97A20160E070E0A3
:1034B000C6010E94603B920121503109D70112964A
:1034C000ED91FC911397A601B8018D919C910995FE
:1034D000D7015A96ED91FC915B97EE0DFF1D138E6F
:1034E0001696ED91FC9117979E012D5F3F4FAE010F
:1034F0004F5F5F4FB60114968D919C91159709957A
:1035000029813A81F701808991898217930768F4AC
:10351000F60101900020E9F73197EC19FD0929F037
:10352000EE0DFF1D138ED701DBCFD7011A96ED915B
:10353000FC911B972F81388518968D919C91199736
:103540008A149B0449F4829EA001839E500D929E92
:10355000500D112401E008C0A29EA001A39E500DB1
:10356000B29E500D112400E0960160E070E00995D4
:10357000BFEFAB1ABB0A79CFE488F58806891789B3
:10358000808D918D80179107D8F487E290E0B80183
:103590000E940B3B9B0147E24E9DC0014F9D900D49
:1035A0001124B8010E940B3B675F7F4FE12CF12C87
:1035B0008701E39442E050E084E490E00E94D63535
:1035C0000E947D0A2E960FB6F894DEBF0FBECDBFC7
:1035D000DF91CF911F910F91FF90EF90DF90CF90EF
:1035E000BF90AF909F908F907F906F905F904F9023
:1035F0000895E0910304F0910404309711F0958B45
:10360000848B0C948E19CF93DF9300D0CDB7DEB7A7
:1036100089839A830E946F2589819A810F900F90E8
:10362000DF91CF910C94F91ACF93DF9300D0CDB7EF
:10363000DEB789839A830E94451889819A810F9009
:103640000F90DF91CF910C94F91ACF93DF93EC0197
:1036500060E070E0CB010E945318CE01DF91CF9162
:103660000C94F91A0C948E19611106C0423099F528
:103670000E947E180C94420A4130D9F56130B1F0B5
:10368000623009F00895E0910304F091040430974A
:1036900011F40C948E1984899589019626893789AD
:1036A00082179307B0F7958B848BF3CFA091030417
:1036B000B09104041097E9F01E96ED91FC911F97CC
:1036C0003097B9F054966D917C9155971C968D91D9
:1036D0009C911D970994413061F4E0910304F091AD
:1036E00004043097B1F284899589009791F201978B
:1036F000DACF0895E091EF03F091F00383E2DF0168
:103700001D928A95E9F782EE96E19093F6038093F5
:10371000F5031092F4031092F3030E942F150C94FA
:103720007D0A809100019091010197FD08C00E94DF
:10373000602D8FEF9FEF90930101809300010C9417
:103740007A1BDC019696ED91FC9197974E9F900124
:103750004F9F300D5E9F300D1124620F731F9B0130
:1037600043E0359527954A95E1F79A964D915C91FE
:103770009B972417350770F4FC01E20FF31F84A513
:1037800090E06770772702C0959587956A95E2F774
:103790008170089580E00895CF93782F41155105E9
:1037A00061F4813009F04BC0623009F048C081E01B
:1037B0002230310509F043C043C02430310561F4A3
:1037C000813009F03CC0613009F039C081E04230FD
:1037D000510509F034C034C0862F90E064E0769F34
:1037E000800D911D1124880F991F880F991F8559ED
:1037F0009E4FFC01C491319674913196649131963B
:10380000E4918E2F90E0A0E0B0E0B82FAA2799278E
:103810008827972B8C2BA62B220F331F220F331FA9
:1038200041505109420F531F440F551F04C0B69514
:10383000A795979587954A95D2F7837001C080E048
:10384000CF9108952F923F924F925F926F927F9205
:103850008F929F92AF92BF92CF92DF92EF92FF92A0
:103860000F931F93CF93DF93E114F104D1F127015C
:10387000122F1B013C017A01812C912CC22DD32DDA
:10388000A12CB12CD7FD1BC0F30186A197A18C17E9
:103890009D07ACF0F7FC13C080A591A58E159F0580
:1038A00074F09401A501602F812F0E94CC1B882306
:1038B00031F0212FA701BE01C601F2010995FFEFEA
:1038C000AF1ABF0A219685E0A816B104D9F6EFEF2A
:1038D0008E1A9E0AFFEFEF1AFF0A85E08816910400
:1038E00069F6DF91CF911F910F91FF90EF90DF90DC
:1038F000CF90BF90AF909F908F907F906F905F9090
:103900004F903F902F900895EF92FF920F931F9347
:10391000CF93DF930097C1F08A017B01EC01EA8528
:10392000FB85309719F088859985099588A199A11B
:10393000E816F90649F48AA19BA10817190721F492
:1039400085E090E09BA78AA7DF91CF911F910F910F
:10395000FF90EF9008959C01CB010197889770F537
:10396000CB01079661E170E00E941F3B24303105D6
:10397000E9F060F4660F771F2130310599F02230AD
:103980003105E1F4FB01ED5CFE4F15C02730310538
:10399000B9F02830310591F4660F771FFB01E95D1E
:1039A000FE4F09C0FB01E75CFE4F05C0660F771FA5
:1039B000FB01E35DFE4F8081918108950E94333BBE
:1039C00080E090E00895FC01A081B0E0FD017597D2
:1039D000ED39F10550F477FD08C06A177B072CF428
:1039E00057FD03C04A175B0714F00E94333B4A9F00
:1039F000F0014B9FF00D5A9FF00D11246E0F7F1FA9
:103A0000AB014770552733E0759567953A95E1F717
:103A10006F5F7F4FFC01E60FF71F81E090E001C070
:103A2000880F4A95EAF7222319F09081892B03C069
:103A3000809590818923808308954F925F926F9241
:103A40007F928F929F92AF92BF92CF92DF92EF922E
:103A5000FF920F931F93CF93DF936C015B014A0199
:103A600079012801C0E0D0E0CE15DF05ACF400E01C
:103A700010E03E016A0C7B1C081519055CF4B801C6
:103A80006C0D7D1D21E0A301C2010E94E31C0F5FAC
:103A90001F4FF2CF2196E8CFDF91CF911F910F9169
:103AA000FF90EF90DF90CF90BF90AF909F908F905E
:103AB0007F906F905F904F900895FC01208130E0DF
:103AC000F9017597ED39F10550F477FD08C06217DB
:103AD00073072CF457FD03C04217530714F00E94DC
:103AE000333B429FF001439FF00D529FF00D112494
:103AF0006E0F7F1F9B0143E0359527954A95E1F7AF
:103B0000FC01E20FF31F818190E06770772702C00C
:103B1000959587956A95E2F781700895009711F45D
:103B20000E94333BFC01808190E09C0125513109CA
:103B30002D393105A8F708950F931F93CF93DF9385
:103B40009C018B0181309105A1F167E070E00E943A
:103B50001F3BEB012296FB0131962032310581F0AB
:103B6000C901880F991F8C0F9D1F880F991F0196FF
:103B7000BF01660F771F0E941F3B660F771F02C0B1
:103B80006AE170E0CF01220F331F220F331F265F3F
:103B90003F4F1816190644F4F801E80FF91F208367
:103BA0000197261B370BF5CF86E0F8018083CE0105
:103BB00002C080E090E0DF91CF911F910F910895B6
:103BC0002F923F924F925F926F927F928F929F922D
:103BD000AF92BF92CF92DF92EF92FF920F931F931B
:103BE000CF93DF93CDB7DEB729970FB6F894DEBF3A
:103BF0000FBECDBF4C017B012C01440C551C440C65
:103C0000551C620181E1C80ED11CCC9CA001CD9C49
:103C1000500D500D1124495F5F4F93E05595479526
:103C20009A95E1F74F5F5F4F60E070E0C7010E9437
:103C3000603BF701C0828701960141E050E060E0FF
:103C400070E086E090E00E941D1D21E030E0A601BA
:103C500066E070E080E090E00E941D1D29E030E009
:103C600049E050E060E070E080E090E00E941D1DBF
:103C70006201F9E0CF0ED11C29E030E048E050E0CD
:103C800060E070E0C6010E941D1D28E030E049E0C0
:103C900050E0B60180E090E00E941D1DBE016F5F04
:103CA0007F4FC4010E949C1D3C01A12CB12C1C0122
:103CB00081E0281A3108A614B704D4F5C12CD12C00
:103CC00081E090E08C0F9D1F8A0D9B1D998788874E
:103CD000C614D7044CF5A114B10431F4C114D104B5
:103CE000F9F0C214D304E1F0A214B30419F4C1141E
:103CF000D104B1F0E1E0F0E0EC0FFD1FEC0DFD1D93
:103D0000608170E062507109E885F985808190E0FA
:103D1000870125E030E045E050E002970E941D1D3C
:103D2000FFEFCF1ADF0AD4CF9FEFA91AB90AC3CF8A
:103D3000E7E08E169104B4F0F6E04F0E511C8701B7
:103D400026E030E043E050E060E070E0C2010E9415
:103D50001D1D23E030E046E050E0B20180E090E03D
:103D60000E941D1D29960FB6F894DEBF0FBECDBF71
:103D7000DF91CF911F910F91FF90EF90DF90CF9047
:103D8000BF90AF909F908F907F906F905F904F907B
:103D90003F902F900895E7E0F0E020E05DE170E0D3
:103DA000422F441F4427441F459F402D1124220FBA
:103DB00042279B010E2E02C0359527950A94E2F703
:103DC000922F9170989F902D1124242F292731979D
:103DD00038F7822F08951F93FC010197889710F000
:103DE0000E94333BCF01089624E0880F991F2A9543
:103DF000E1F78E9F90018F9F300D9E9F300D112413
:103E0000205C3F4FE130F105E9F0CF0167E070E061
:103E10000E941F3B6E5F7F4F17EE1603A001179F96
:103E2000500D1124465F5F4F469FC001479F900D84
:103E3000569F900D1124C796280F391F379714F0FD
:103E400024523109C9011F910895CF92DF92EF9258
:103E5000FF92CF93DF936131710578F46C01E12C0F
:103E6000F12C062E04C0F694E794D794C7940A94D4
:103E7000D2F7CD28CE28CF2811F00E94333B6150D5
:103E800071096F3FBFEF7B0749F1F901A081B18153
:103E9000ED01E3E0D595C795EA95E1F7C40FD51F8D
:103EA000FC01062E02C0F695E7950A94E2F7E17050
:103EB000FF27A095B095A770BB2701C0EE0FAA956C
:103EC000EAF7F881EF2BE88361507109D901ED9190
:103ED000FC9111973196ED93FC93D3CFDF91CF9165
:103EE000FF90EF90DF90CF900895CF93DF93CDB701
:103EF000DEB72B970FB6F894DEBF0FBECDBF2BE019
:103F0000E1E1F1E0DE01119601900D922A95E1F7D1
:103F1000892B59F46A30710544F4E1E0F0E0EC0FCC
:103F2000FD1FE60FF71F808101C08FEF2B960FB6A4
:103F3000F894DEBF0FBECDBFDF91CF910895CF9330
:103F4000DF93CDB7DEB72B970FB6F894DEBF0FBE69
:103F5000CDBF2BE0ECE1F1E0DE01119601900D9276
:103F60002A95E1F7892B59F46A30710544F4E1E0B0
:103F7000F0E0EC0FFD1FE60FF71F808101C08FEF0F
:103F80002B960FB6F894DEBF0FBECDBFDF91CF9159
:103F90000895DF92EF92FF920F931F93CF93DF93D9
:103FA0008C01EB016430710510F00E94333B0E94DC
:103FB000EB1ED82EE92EB801CE010E949F1FF82ECD
:103FC000B801CE010E94751F2D2D3E2D37FF02C076
:103FD000295F3F4F93E0359527959A95E1F7A90121
:103FE0006F2D6802401951091124CA01DF91CF9148
:103FF0001F910F91FF90EF90DF9008950F931F9303
:10400000CF93DF9300D000D000D0CDB7DEB7DC0176
:104010001E821D821C821B828AE689831A82559623
:104020001C921E92549759961C921E92589756961F
:104030008D919C915797892B69F150968D919C9108
:104040005197892B39F152968D919C915397892BD9
:1040500009F11696ED91FC9117973097D9F08D01E3
:104060009E012D5F3F4FAE014B5F5F4FBE016F5F03
:104070007F4F14968D919C9115970995D801529672
:104080008D919C9153976B817C810E940B3BF80131
:10409000718F608F26960FB6F894DEBF0FBECDBF2E
:1040A000DF91CF911F910F9108953F924F925F92B0
:1040B0006F927F928F929F92AF92BF92CF92DF9238
:1040C000EF92FF920F931F93CF93DF9300D000D016
:1040D0001F92CDB7DEB7E0E2ED831C821B821A820D
:1040E00019822115310519F48FEF9FEF93C0290133
:1040F0007A015B016C01A90160E070E0C7010E94D8
:10410000603B370100E010E081E0481A510880E28E
:10411000382E0415150508F04AC0D6011296ED9107
:10412000FC91139721E030E0AE014B5F5F4FB80187
:104130006A0D7B1D8D919C9109950197A9F68D8142
:10414000811101C03D828D81893009F43D828D81CC
:10415000F30181933F014801FFEF8F1A9F0A8A30D4
:1041600029F1D60150962D913C915197C4018A0DA9
:104170009B1D82179307D0F41696ED91FC9117972B
:104180009E012F5F3F4FAE014D5F5F4FB701149609
:104190008D919C91159709952B813C81F601848521
:1041A00095858217930718F08401B3CF8401F70136
:1041B000E00FF11F10820115110551F1D80111977F
:1041C000AE0DBF1D8C918A3011F41C921FC080323D
:1041D000C9F080E090E02291203229F0019680170A
:1041E0009107C9F70FC08017910760F4A00EB11EA8
:1041F000D60150962D913C915197A216B30610F41A
:10420000081B190BF701E00FF11F1082C80102C053
:1042100080E090E00F900F900F900F900F90DF9143
:10422000CF911F910F91FF90EF90DF90CF90BF90B3
:10423000AF909F908F907F906F905F904F903F9046
:104240000895CF92DF92EF92FF920F931F93CF9337
:10425000DF9300D000D000D0CDB7DEB7DC011E82E6
:104260001D821C821B828AE689831A8253961C92C5
:104270001E92529755961C921E92549757961C92D6
:104280001E92569750968D919C915197892B09F4C7
:1042900066C01C968D919C911D97892B09F45FC077
:1042A0001E968D919C911F97892B09F458C01296E8
:1042B0008D919C911397892B09F451C01696ED911D
:1042C000FC911797309709F44AC08D019E012D5F2C
:1042D0003F4FAE014B5F5F4FBE016F5F7F4F149644
:1042E0008D919C9115970995D8011E968D919C9161
:1042F0001F976B817C810E940B3BF801778B668B4B
:10430000672B69F1E12CF12C6801FAE1CF0ED11C89
:10431000F80180899189E816F906F8F4D8015896D1
:104320002D913C9159972F5F3F4FA601B701C801CE
:104330000E94552097FF04C0F801158A148A0FC007
:10434000E80EF91ED80154968D919C9155970196CF
:1043500055969C938E935497DBCF138A128A269698
:104360000FB6F894DEBF0FBECDBFDF91CF911F9186
:104370000F91FF90EF90DF90CF900895CF92DF9252
:10438000EF92FF920F931F93CF93DF93EC01EA819B
:10439000FB81309719F0888199810995C884D98467
:1043A000EA84FB840DA12CA140E050E060E070E0C5
:1043B000CE010E94221C8E859F85892BB1F4CC8072
:1043C000DD80EE80FF804C8D5D8D6A8D7B8D0F8D45
:1043D0002E8DCE010E94221CDF91CF911F910F9153
:1043E000FF90EF90DF90CF90089500E010E08EA155
:1043F0009FA1081719071CF7E12CF12C88A599A596
:10440000E816F9065CF4A701B801CE010E94A11BD1
:10441000811107C08FEFE81AF80AF0CF0F5F1F4F26
:10442000E6CFEE85FF85A701B8018C859D850995AE
:10443000F1CFCF93DF93EC01ECA1EE8F8DA18F8FA5
:104440002EA13FA137FF02C02F5F3F4F3595279523
:10445000F0E0E552FE4F449190E0880F991F50E044
:10446000082E02C0559547950A94E2F740FF03C015
:104470004DEF5FEF02C04EEF5FEF240F351F3B8F14
:104480002A8FE491F0E0816002C0F595E7958A9566
:10449000E2F7E0FF03C08DEF9FEF02C08EEF9FEFCA
:1044A0009D8F8C8F66E070E0CE010E94192E8CA348
:1044B00063E070E0CE010E94192E8DA3DF91CF91B1
:1044C0000895CF93DF93009709F461C0EC01198E32
:1044D000188E66E070E00E94192E8E8F63E070E007
:1044E000CE010E94192E8F8F2EA13FA137FF02C04F
:1044F0002F5F3F4FA90155954795EE8DF0E0E552AE
:10450000FE4F24919927880F991F30E0082E02C092
:10451000359527950A94E2F720FF03C02DEF3FEF72
:1045200002C02EEF3FEF240F351F3B8F2A8FE491FF
:10453000F0E0816002C0F595E7958A95E2F7E0FF2B
:1045400003C08DEF9FEF02C08EEF9FEF9D8F8C8F8A
:1045500066E070E0CE010E94192E8CA363E070E04B
:10456000CE010E94192E8DA38EA19FA1059699A31D
:1045700088A385E090E09BA38AA34AA55BA560E0A1
:1045800070E0CE018C960E94603B81E001C080E02B
:10459000DF91CF9108952F923F924F925F926F9249
:1045A0007F928F929F92AF92BF92CF92DF92EF92C3
:1045B000FF920F931F93CF93DF9300D000D0CDB71E
:1045C000DEB75C014B016A01122F7B011B0124E065
:1045D000220E311CCA0104969A8389833701681818
:1045E00079082E143F040CF445C0DC82CB824B804A
:1045F0005C804C185D0829813A818B819C81281749
:104600003907A4F1F7FC12C0F50186A197A1E816BD
:10461000F90664F480A591A52B813C812817390700
:104620002CF48B819C8197FF0BC01AC09201A301CF
:10463000602F812F0E94CC1B882399F380E01BC040
:104640009201A301602F812F0E94CC1B882341F08F
:104650004B815C81B701C5010E94A11B8111EECF86
:10466000EB81FC813196FC83EB83C1CF9FEFE91A8C
:10467000F90AB4CF81E00F900F900F900F90DF9167
:10468000CF911F910F91FF90EF90DF90CF90BF904F
:10469000AF909F908F907F906F905F904F903F90E2
:1046A0002F9008952F923F924F925F926F927F9238
:1046B0008F929F92AF92BF92CF92DF92EF92FF9232
:1046C0000F931F93CF93DF9300D000D000D0CDB7CE
:1046D000DEB79E838D83DC0198960D90BC91A02D52
:1046E000BA83A983C12CD12CE12CF12C442443940E
:1046F000512C69817A81C616D7060CF076C0AD813F
:10470000BE819696AD90BC90979700E010E00A1598
:104710001B0564F4A601B8018D819E810E94A11B36
:10472000813009F05EC00F5F1F4FF1CF0A151B05E6
:1047300009F057C00C9D10010D9D300C1C9D300CD4
:104740001124C601612C712C181619060CF046C0F4
:104750009301220D331D812C912CFC0131975F01B7
:1047600080169106BCF5A501B4018D819E812B8335
:104770003C830E94A11B2B813C81A401420F531F4B
:10478000FA0193E0F595E7959A95E1F7AD81BE8141
:104790009A966D917C919B97E617F707B8F4EA0F0C
:1047A000FB1F47705527811109C0C20101C0880F46
:1047B0004A95EAF7809594A5892307C0C20101C0F4
:1047C000880F4A95EAF794A5892B84A7BFEF8B1A27
:1047D0009B0AC6CFC501601A710AB6CFFFEFEF1A68
:1047E000FF0A4FEFC41AD40A84CFB2E0EB16F104EB
:1047F000D1F058F4EA94EF2851F5AD81BE81589676
:104800008D919C91599701961BC043E0E416F104E9
:1048100081F054E0E516F104D1F4ED81FE81808D44
:10482000918D409612C0ED81FE81808D918D049610
:104830000CC0AD81BE8158968D919C915997089678
:1048400059969C938E93589702C0918F808F26968D
:104850000FB6F894DEBF0FBECDBFDF91CF911F9191
:104860000F91FF90EF90DF90CF90BF90AF909F900F
:104870008F907F906F905F904F903F902F90089512
:10488000FC0166A177A120E030E026173707BCF4D1
:10489000F90143E0F595E7954A95E1F7E80FF91F2F
:1048A00044A550E0F901E770FF2702C055954795F0
:1048B000EA95E2F740FD05C02F5F3F4FE6CF80E06D
:1048C000089581E008952F923F924F925F926F92E8
:1048D0007F928F929F92AF92BF92CF92DF92EF9290
:1048E000FF920F931F93CF93DF9300D000D0CDB7EB
:1048F000DEB76C015B017A01922F702F2501150143
:1049000024E0220E311C4A0134E0830E911C6624FF
:104910006394712C82010A191B09241435040CF4C8
:104920004BC0FC82EB822B813C812E193F09EB812D
:10493000FC818E169F06E4F1A801672F892F7A83E8
:1049400099830E94CC1B7A819981882359F1D601E1
:1049500096964D915C919797EB81FC81E49F900135
:10496000E59F300DF49F300D1124240D351DF90104
:1049700083E0F595E7958A95E1F79A964D915C91DC
:104980009B97E417F50770F4EC0DFD1D2770332796
:10499000A30102C0440F551F2A95E2F79A0184A58E
:1049A000282B24A7AB81BC811196BC83AB83BBCFE2
:1049B000FFEF4F1A5F0AAECF0F900F900F900F903E
:1049C000DF91CF911F910F91FF90EF90DF90CF90EB
:1049D000BF90AF909F908F907F906F905F904F901F
:1049E0003F902F900895CF93DF93009711F1DC0152
:1049F0005296ED91FC9153973097D9F0EC01488D88
:104A0000598D4150510960E070E088899989099574
:104A10009DA38CA34A8D5B8D41505109EA89FB8986
:104A200060E070E08889998909959FA38EA381E051
:104A300001C080E0DF91CF910895FC0180A991A988
:104A40003097A1F026A537A544A555A5241735070D
:104A500020F0C901841B950B0895880F991F880FBA
:104A6000991F841B950B820F931F089580E090E09F
:104A7000089597FD12C0892B19F477FF06C00AC06C
:104A8000672B59F482E090E00895672B31F083E0C2
:104A900090E0089581E090E0089580E090E008952E
:104AA0000F9300E02DE735E241E358ED69EE76ED36
:104AB00080E691E00E9463260F910895CF93DF93E3
:104AC00000D0CDB7DEB789839A830E9450258981B3
:104AD0009A810F900F90DF91CF910C94F91A0F9358
:104AE00001E023EA38E146E158E960E276EB8AE545
:104AF00091E00E9463260F9108956230710531F1B3
:104B000038F46115710559F06130710591F008951F
:104B10006330710549F16430710581F108950E9497
:104B20007E1860E070E08EE595E20E94610A0C94C8
:104B30007A1B0E947E1861E070E08EE595E20E948B
:104B4000610A6DEA70E08DEF93E30CC00E947E185D
:104B500062E070E08EE595E20E94610A68EB75EE16
:104B600089EE97E70C9453180E947E1863E070E07A
:104B70008EE595E20E94610A0C9445180E947E1809
:104B800064E070E08EE595E20E94610A0C946F2566
:104B9000CF93DF9390E0FC01E65FFC4F2491FC0192
:104BA000EA50FD4F8491882361F190E0880F991FAE
:104BB000FC01EE51FD4FC591D491FC01E451FD4F34
:104BC000A591B491611109C09FB7F894888120958F
:104BD00082238883EC912E230BC0623061F49FB74F
:104BE000F8943881822F809583238883EC912E2B33
:104BF0002C939FBF06C08FB7F894E8812E2B288393
:104C00008FBFDF91CF9108953FB7F89480910C0446
:104C100090910D04A0910E04B0910F0426B5A89BAD
:104C200005C02F3F19F00196A11DB11D3FBFBA2F3E
:104C3000A92F982F8827820F911DA11DB11DBC019E
:104C4000CD0142E0660F771F881F991F4A95D1F763
:104C500008958F929F92AF92BF92CF92DF92EF9280
:104C6000FF926B017C010E9404264B015C01C11480
:104C7000D104E104F104F1F00E940426DC01CB012F
:104C800088199909AA09BB09883E9340A105B10575
:104C900070F321E0C21AD108E108F10888EE880E0D
:104CA00083E0981EA11CB11CC114D104E104F104DD
:104CB00019F7DDCFFF90EF90DF90CF90BF90AF90CE
:104CC0009F908F9008952F923F924F925F926F9294
:104CD0007F928F929F92AF92BF92CF92DF92EF928C
:104CE000FF920F931F93CF93DF931F92CDB7DEB741
:104CF0005C011A012B013901E0900504F0900604D3
:104D0000C0900304D09004048DE1E816F10460F033
:104D1000A70160E070E0C6010E94603BECE1EE1A82
:104D2000F108F601F38EE28E809103049091040461
:104D3000009759F026E330E0FC01318B208B27E20D
:104D400030E0338B228B0E94FE1F809103049091F0
:104D50000404009749F024E135E1FC013783268300
:104D6000158214820E94FE1F809103049091040416
:104D7000009749F023E734E1FC013387228711864D
:104D800010860E94FE1F4CE050E0B50187EF93E0D3
:104D90000E94893A10920204C201B1010E94962D2C
:104DA0007C0190930701809306015C01002311F0C0
:104DB0006894A7F8C7010E94000F4C01198200E017
:104DC00010E0C12CD12CC814D90409F1011511052A
:104DD00011F401E010E021E030E0AE014F5F5F4FE1
:104DE000B601C7010E94F709019719F000E010E031
:104DF0000EC089818C3239F08A3019F40F5F1F4F51
:104E000002C0882321F0FFEFCF1ADF0ADCCF0F5F4B
:104E10001F4FE0910304F0910404309759F0178B71
:104E2000068B89E594E193838283B182A082CF01CE
:104E30000E94FE1F8091030490910404009739F0B2
:104E4000FC0177866686158614860E94FE1F20E088
:104E500030E042E35BE168EE73E080E090E00E94C6
:104E6000B00E909305018093040184E39BE190933D
:104E7000F6038093F5031092F4031092F3030E945B
:104E80008E190F90DF91CF911F910F91FF90EF90AE
:104E9000DF90CF90BF90AF909F908F907F906F905A
:104EA0005F904F903F902F900895CF92DF92EF92B6
:104EB000FF920F931F93CF93DF9300D000D0CDB715
:104EC000DEB76217730784079507FCF489019A011E
:104ED0006B017C01A9019801261B370B480B590B6C
:104EE00069F029833A834B835C830E947B3A298152
:104EF0003A814B815C810E94A83A03C060E070E077
:104F0000CB016C0D7D1D8E1D9F1D0F900F900F907E
:104F10000F90DF91CF911F910F91FF90EF90DF9055
:104F2000CF900895833081F028F4813099F0823059
:104F3000A1F008958730A9F08830B9F08430D1F419
:104F4000809180008F7D03C0809180008F77809357
:104F50008000089584B58F7702C084B58F7D84BDAD
:104F600008958091B0008F7703C08091B0008F7D4D
:104F70008093B00008951F93CF93DF93282F30E0E4
:104F8000F901E25EFC4F8491F901E65FFC4FD49198
:104F9000F901EA50FD4FC491CC23C9F0162F8111BD
:104FA0000E949227EC2FF0E0EE0FFF1FE451FD4F1F
:104FB000A591B4918FB7F894111105C09C91ED2F74
:104FC000E095E92302C0EC91ED2BEC938FBFDF91CC
:104FD000CF911F9108958E3008F08E5087708064B5
:104FE00080937C0080917A00806480937A00809125
:104FF0007A0086FDFCCF809178002091790090E0C6
:10500000922B08952FB7F8946091080470910904C9
:1050100080910A0490910B042FBF08951F920F9264
:105020000FB60F9211242F933F938F939F93AF93BB
:10503000BF938091080490910904A0910A04B09153
:105040000B043091070423E0230F2D3720F4019641
:10505000A11DB11D05C026E8230F0296A11DB11D9B
:10506000209307048093080490930904A0930A04F2
:10507000B0930B0480910C0490910D04A0910E0448
:10508000B0910F040196A11DB11D80930C04909363
:105090000D04A0930E04B0930F04BF91AF919F91A4
:1050A0008F913F912F910F900FBE0F901F901895E9
:1050B0009C0184E0D90190E0EC91F0E0EE51FE4FCC
:1050C000E491EC939F5F14969430B1F781502F5F79
:1050D0003F4F8111EFCF08950F931F93CF93DF932D
:1050E0009B0190E1899F80011124A0E0B0E0FD01C7
:1050F000E00FF11FE40FF51F60E070E0E901C60F5B
:10510000D71F91918881982798836F5F7F4F643074
:105110007105A1F714962C5F3F4FA031B10539F707
:10512000DF91CF911F910F9108952F923F924F924F
:105130005F926F927F928F929F92AF92BF92CF9227
:10514000DF92EF92FF920F931F93CF93DF93CDB730
:10515000DEB7E7970FB6F894DEBF0FBECDBF8C0168
:105160006B0158A74FA31901892B21F4672B11F06C
:105170000E94333B60E070E086E090E00E94C91F2F
:105180009EA38DA30115110539F07801812C912C76
:10519000412C512C320152C0C114D104B1F3E8CFDB
:1051A000D7011296AD90BC90139716962D913C9115
:1051B00017973CA32BA3B7FCDBCF37FDD9CF66E015
:1051C00070E08D919C910E94AB1CFC01419780F690
:1051D000C501BB0CAA0BBB0B21E030E040E050E066
:1051E0000E2E04C0220F331F441F551F0A94D2F7FE
:1051F00082179307A407B50784F5CF01FF0FAA0B09
:10520000BB0B0496A11DB11D2BA13CA1A901330F1D
:10521000660B770B840F951FA61FB71F480E591EEC
:105220006A1E7B1E38E0E30EF11C411440E8540670
:105230006104710494F45FEF851A950A8C149D043F
:1052400009F0AECF52018DA19EA1B3E0880F991F46
:10525000BA95E1F78415950524F4D1011C9280E0FC
:1052600016C484EDF10111928A95E9F718A21F8EF8
:10527000812C912C8C149D0409F453C09E01215E55
:105280003F4FA10164E070E0D8018D919C910E9494
:10529000251F66E070E0F801808191810E94AB1CBF
:1052A0009E01215E3F4FA101BC01D80112968D9154
:1052B0009C9113970E94251FE12CF12CF801868107
:1052C0009781E816F9063CF5C701A3E09595879507
:1052D000AA95E1F7D8011496ED91FC911597E80F86
:1052E000F91F808190E09701209530952770332732
:1052F00002C0959587952A95E2F79E01215E3F4F62
:10530000A10161E070E0817099270E94251FBFEF25
:10531000EB1AFB0AD3CFFFEF8F1A9F0A085F1F4FCC
:10532000A9CF8F8D98A18A159B0509F021CF60E048
:1053300070E086E090E00E94C91F8C01F3E0000F4E
:10534000111FFA95E1F70A151B050CF411CFB801EE
:105350006A197B096530710514F064E070E09E0104
:10536000215E3F4FA10180E090E00E94251F8F8DBC
:1053700098A128E030E0B9010E941F3BB901681BE9
:10538000790B677077279E01215E3F4FA10180E076
:1053900090E00E94251F8F8D98A187709927892BF7
:1053A00009F0E6CE7CEEF72EEDEFEE2E8F8D98A174
:1053B0008017910764F49E01215E3F4FA10168E0D0
:1053C00070E08F2D90E00E94251FFE24EFCF66E055
:1053D00070E080E090E00E94751F882E880F990889
:1053E00066E070E080E090E00E949F1F482E880FEA
:1053F000550886E090E00E94EB1E97FD07968C0111
:1054000063E0159507956A95E1F760E070E086E046
:1054100090E00E94C91F9CA38BA3C801B4010E9405
:105420001F3B9401281B390B3EA32DA39B0124197C
:1054300035093AA729A7720131E0E31AF1084EE1D4
:10544000E416F10408F094CE8E010F5F1F4FA20105
:1054500060E070E0C8010E94603BF801EE0DFF1DA6
:1054600081E08083C12CD12C91E01AA309A3C4143C
:10547000D5041CF558013801692FD3018C919CABE0
:105480000E94CB1EF30181933F019F0149A15AA1C4
:10549000241B350B9CA92415350534F42081822763
:1054A000D5018D935D01E8CF62E0892F0E94CB1E6C
:1054B000982FBFEFCB1ADB0ADACF5101C12CD12CC8
:1054C0000BA11CA1020D131D9201215031093FA710
:1054D0002EA798012F5F3F4F39AB28AB98012E0DB7
:1054E0003F1D3BAB2AABC814D9040CF084C081E04B
:1054F00090E02DA13EA1C216D30614F480E090E006
:10550000E9A4FAA4E80EF91EA20160E070E0C80167
:105510000E94603BBCA6ABA63501C3018A199B095A
:105520008E159F0584F5D3019D913D01F801808181
:1055300098279DA74EA55FA568A979A9C8010E94D3
:105540004E3BAAA9BBA91C92AE014F5F5F4F9801C9
:10555000C901801B910B84159505FCF66DA5FA0118
:105560008191AF012EAB3FABECAB5DAB0E94CB1E8C
:105570002EA93FA9D9019C918927F90181939F0107
:105580005DA94CA9E5CFC60120E030E02E153F050E
:10559000C4F449A55AA52417350721F4ADA1BEA12D
:1055A0008A1B9B0BEBA5FCA54191FCA7EBA7EFA1E8
:1055B000F8A5E80FF91F40832F5F3F4F880D991D15
:1055C000E5CFEBA1FCA1EC0DFD1D2FA138A5E20F4D
:1055D000F31FD801CD01801B910B841595052CF488
:1055E0008D918083E80DF91DF5CFAE0CBF1C3FEF08
:1055F000C31AD30A78CFB10186E090E00E94E01D83
:1056000086E090E00E94EB1E97FD07962C0143E098
:10561000559447944A95E1F7C1010E948E1D4C01B3
:105620008C010150110953E0440C551C5A95E1F7C7
:10563000E12CF12C1AA709A7101611060CF05DC079
:105640000630110511F405E010E0C12CD12CC80181
:105650000196AC01427055275CA74BA7C814D9042A
:105660000CF048C089A59AA58C199D09EBA5FCA54D
:10567000EF2B19F48BA39DA302C0CBA2DDA2A12C1A
:10568000B12C38016A187B084BA15DA1B301C1019F
:105690000E945D1D811123C0E414F50404F5F70197
:1056A00023E0F595E7952A95E1F78FA198A5E80FF6
:1056B000F91F208130E0C701809590958770992768
:1056C00002C0359527958A95E2F721704BA15DA11F
:1056D000B301C1010E94E31C9FEFE91AF90AAA94E1
:1056E000AB2821F0AA24A394B12CCBCFBFEFCB1AC7
:1056F000DB0AB4CF025011099FCFE414F50409F07E
:1057000037CDC1010E948E1D6C0107E010E07C01C5
:10571000F7E0EF1AF1080E151F058CF420E0A80140
:1057200066E070E0C1010E94E31C20E046E050E02A
:10573000B801C1010E94E31C0E5F1F4FECCF0CEFBC
:105740001FEF24E0C21AD1089CEFE92EFF24FA943F
:1057500066247724601A710A480183E0880E911C40
:105760002601400E511EC701F7FE04C08827992765
:105770008E199F09980117FD9301821793070CF466
:10578000C9018230910511F00497A9F4A4015701D1
:1057900033E0A30EB11CB501C1010E94AA37A401D8
:1057A000B6016E0D7F1DC1010E94AA37A201B5018D
:1057B000C1010E94AA374FEFE41AF40A55E0E5163A
:1057C000F10489F60F5F1F4F0530110509F0BCCFBA
:1057D000BE016F5F7F4F86E090E00E949C1D4C01F0
:1057E000E12CF12C3C0191E0691A7108E814F904EC
:1057F0000CF056C000E010E0A1E0B0E0AC0FBD1F1F
:10580000AE0DBF1DBCA3ABA3E114F10431F401152F
:105810001105E1F106151705C9F1E614F70419F4AD
:105820000115110599F1CC24CA94DC2C442443942D
:10583000512C4C0E5D1E400E511EAA24AA94BA2C67
:1058400020E02170F2018081A601480F511DABA11B
:10585000BCA18C91B501680F711DC1010E94E31CB0
:10586000BFEFAB1ABB0AE2E0AE16B10441F0A114DF
:10587000B10431F721E0C114D10419F3E1CFFFEFF6
:10588000CF1ADF0A22E0C216D104B9F60F5F1F4F0C
:10589000081519050CF4B8CF3FEFE31AF30AA6CFA9
:1058A0006FA178A586E090E00E94E01DC1010E94F2
:1058B0008E1D6C0100E010E00C151D0534F5E12C87
:1058C000F12CA801B7018FA198A50E945D1D81113F
:1058D00013C0A801B701C1010E945D1D9701200FEF
:1058E000311F2170332741E0242721702827A80188
:1058F000B701C1010E94E31C5FEFE51AF50AEC1441
:10590000FD04FCF20F5F1F4FD7CF2AE030E008E024
:1059100010E067E375E0A801440F551FC801892F07
:10592000990F990B8595869F8001879F100D969FF3
:10593000100D1124042715272150310961F7106239
:1059400082E1082784E5182717FD12CCE12CF12C01
:1059500098010E2C02C0359527950A94E2F7217024
:10596000A70168E070E0C1010E94E31C9FEFE91A03
:10597000F90AA6E0EA16F10459F7980196E0359580
:1059800027959A95E1F7217047E050E068E070E0D4
:10599000C1010E94E31C9801220F232F221F330B09
:1059A000217048E050E068E070E0C1010E94E31C13
:1059B000212F217048E050E067E070E0C1010E94B3
:1059C000E31C59E0E52EF12C6EE0C62ED12C980197
:1059D0000E2C02C0359527950A94E2F72170B60186
:1059E0006E197F0948E050E0C1010E94E31CBFEF3F
:1059F000EB1AFB0AEFE0EE16F10449F7C1010E9431
:105A00008E1D7C01C12CD12C5C01F1E0AF1AB108D4
:105A100098010C2C02C0359527950A94E2F7217065
:105A2000B5016C197D0948E050E0C1010E94E31CFA
:105A30002FEFC21AD20A38E0C316D10449F788E022
:105A4000C82ED12C57014FE0A41AB10898010C2C94
:105A500002C0359527950A94E2F72170A5014C0DF7
:105A60005D1D68E070E0C1010E94E31C5FEFC51A94
:105A7000D50A8FE0C816D10449F7A701485051094B
:105A800021E068E070E0C1010E94E31C81E0E7963C
:105A90000FB6F894DEBF0FBECDBFDF91CF911F913F
:105AA0000F91FF90EF90DF90CF90BF90AF909F90BD
:105AB0008F907F906F905F904F903F902F900895C0
:105AC0002091660530916705821793075CF5DC012C
:105AD00033E0AA0FBB1F3A95E1F7A45ABA4F1C96C0
