:100000000C948F080C94AC080C94AC080C94AC08BD
:100010000C94AC080C94AC080C94AC080C94AC0890
:100020000C94AC080C94AC080C94AC080C94AC0880
:100030000C94AC080C94AC080C94AC080C94AC0870
:100040000C94A8160C94AC080C94AC080C94AC0856
:100050000C94AC080C94AC080C94AC080C94AC0850
:100060000C94AC080C94AC088D01020408102040DC
:10007000801B36AA882AA22A2A2A637C777BF26B05
:100080006FC53001672BFED7AB76CA82C97DFA599E
:1000900047F0ADD4A2AF9CA472C0B7FD9326363F03
:1000A000F7CC34A5E5F171D8311504C723C31896F0
:1000B000059A071280E2EB27B27509832C1A1B6E92
:1000C0005AA0523BD6B329E32F8453D100ED20FC34
:1000D000B15B6ACBBE394A4C58CFD0EFAAFB434D37
:1000E000338545F9027F503C9FA851A3408F929DD4
:1000F00038F5BCB6DA2110FFF3D2CD0C13EC5F97C4
:100100004417C4A77E3D645D197360814FDC222AC9
:10011000908846EEB814DE5E0BDBE0323A0A490600
:10012000245CC2D3AC629195E479E7C8376D8DD574
:100130004EA96C56F4EA657AAE08BA78252E1CA64C
:10014000B4C6E8DD741F4BBD8B8A703EB5664803AC
:10015000F60E613557B986C11D9EE1F8981169D92F
:100160008E949B1E87E9CE5528DF8CA1890DBFE6B2
:10017000426841992D0FB054BB16D247BB8604CFBD
:10018000053FE27249415F900E833323309B09F8AB
:10019000CAA0292A63DFC34D7B77B6636368987E64
:1001A0007697C94D910D6178A6042345AE6698ED0A
:1001B0005F4E52B127DAE063AB6025F96A505F40C9
:1001C0008C1391203321C450AF930EA40D36EC7DD7
:1001D000454C5D930E8C352434D77D80BE3DF13B7C
:1001E000E3DF407A716EA639B706131BFA6E95A944
:1001F00028E2271CC2736F667BB5D458EBFAEE0F6A
:100200009B6654D71FD4E935A69CAB9458C74DFCC8
:10021000EFFD10847C47C208C1FA1889B1B8A197D4
:10022000F27EC1D0C023B14C72E9E5EED70B9CA69B
:10023000ADB272EE65D2C5D736A2211D9059645F6A
:10024000FF6FDBD2CF0198EB0C9015A1CF35F48C6A
:10025000B38217D9186247D8EB6AC608242292578E
:10026000EF3BB9B28A725E6F575E5FBBA6CA7A4F28
:100270007CD54FB28C0D69AC953F3718B3AC64FB9D
:100280005F6E8EAC82E6422EAF70E774A5C5F68134
:100290001C5D4CC78CE27675EDC29F7FB77C41E256
:1002A0000E3A3DCF207FF5445745862C3200735ED1
:1002B0000EB29F96D158360B9AD9C7C7E737A625F5
:1002C0007AE65A91D31C9AA18ABA9D058B425D3178
:1002D0003FA5B84504F233FB61779D7497B530BCF8
:1002E000E8803A9E7B6A5FCA03301BB0B9E196AEE4
:1002F000B2DC2EF003667818987E1EFADDF93CAA6F
:10030000A9930D5E024F05F4DC07FE91BECEDC0919
:100310002D2FB70A8681A8C6BA692034954645991B
:1003200007F20855ED9C4449AB69E798DBCADE3D0E
:10033000AB5664E6AFE4D90596ACDBC408972DACA8
:10034000BFAB58BCE899AA389DAA68F9438E5B3FB9
:100350002087B2A0B053C9005A42F98E769BCCF6E2
:10036000FD60673713201CE766F2112B882E681A90
:10037000664FEBE2FF31A82497866AB91FE2D85B8B
:1003800093586DB11DE01708C45BC9786B799C0860
:10039000F7CB468C457EA4350D0425EB76FA4D5CF3
:1003A0004CAF35C8F675B972B39618222936FE617E
:1003B000EF5E4153B226DDDF60AA1F249A6B575EC1
:1003C00043810C9023322FC553AE8C0CF98031ED54
:1003D0007928435C900F4ADD0735E8FAB3BF3AF05D
:1003E0000AFDBD41796795273AB61DF7ED2D75F2E7
:1003F000559DED261F7CAB53F7438B221BEAFDF87E
:10040000F16DDF89B7903BE836A57DB5E1AA1EB056
:10041000056EF211D8A7AE18702C1A718AB0B45AB2
:100420003128C4761E3FA4B04E0CA63B9B0D7162D2
:100430006CACBD5C0701222923C804201E98ACB413
:100440005C827FB5CCF2169948036624C36F3B36B5
:1004500074428C48DE2A348924EA4BD88B2405B0B8
:1004600062F1B7B4844FA95E2E43506AAF20B2E761
:10047000F79C0DEFE0D1B5045C65C7E906C8BE3155
:10048000CCA9FCAE9FFD1091D7EF95411A06E36908
:10049000EF05726E3D6D93A549ED37FC06B085C73B
:1004A00061743ACDDC116F54D886A14119D3ECB4F4
:1004B000A2158A7B2C2771CE13F5693FD9D28BD830
:1004C00052F679BDBA6F8BBB29A4DAF5C05DA4CC16
:1004D0003722DB2487F21F6F5939482DA6B6AA0EA2
:1004E000C6E8E73E2274F04334F5D418A422FB6E2C
:1004F0006B93F323EECD2FED001E5CA200231E3282
:10050000516B6C7C40DF5B1B08231B738CB1C200FA
:10051000C9EC5F70757C66A9DA46C8DBCBDB86BBAD
:1005200064C6B5F6CF136580FA95B9649BDACD9FA2
:1005300006AD98A41C5CFDF80697CDD23F390F128A
:10054000AA7EA241A8FA0FB55A616553BAC0CC3051
:100550006363C9AE9B96D4C03F03C18CA18D9BED54
:1005600005FCED2381F28296FC87D3102EAF61AAA1
:1005700092AC2EEA9E7C36A927963B6B759E1A3963
:100580005892576EB22163163425C4C87B6E7E9D87
:100590000BF4D5478F4479A5360C3A24E8777D4C87
:1005A0005F4D5835CBF772B8714A8819212831FF51
:1005B00062EE514050B321EC6261D51E27FB6C16F0
:1005C0004D449D1D91223527F852B18BCF7A0B30C7
:1005D0006E6F553A5F97C67BF6260AE97001783B45
:1005E0000FC7F3D1427870F75B3AA5FFF5F9FC68C5
:1005F0009868E69C25F0BBA96D648684165AEDF3D5
:1006000013B05560572DE9D2EB37475D59965ED848
:100610008CFEE1F32D798641C009F0DC9A0B304164
:100620001CADBC60B3AB05A5B3B9831727ECCEEA0C
:1006300062FCA3B04F1065D0C42B7725221F9BAF5F
:100640005DA370902A377907BA210188385646D3BE
:1006500034A94D816023E44F5DA413B53CAD620F16
:1006600066FB3AF445AC91B7A936E3EAF106BFD38D
:100670001F8E6D81E55A7040F47E3DB92BF11B0051
:10068000CCCC709DC6F30010AFD34717F368674D0D
:10069000071D1DF3EAC6469998211FC8BA3DB07AD6
:1006A0004CA3FF55347BB98963E49A423518246121
:1006B0006B65F6D40296D6C155A0C96036648BA886
:1006C000943B68D820E1EA32870F690B23C472C3D8
:1006D000C146272EB152F947FF9BA7A62D0ACFFD91
:1006E000CF47FE58049F1A0B676A1A2119CBAD87B2
:1006F000AA428FB18A63F5D0707D6D22DDE1B4DF4F
:1007000031B367B37F86284A5C281A6900B056D790
:100710007DD0831CFC8F876074CABA0B18B7D3587E
:100720006774743409F228BEC27A85739E0B222D39
:100730005FBC1EA79765AEECC4FBD8D2C639F18D5D
:10074000178E515C81D9EEEE6FAB7E5474E43BBFE3
:100750002F2273FF3CBD21A43CB9035C88437EA4D7
:10076000310BEC11D7410A7B687AB713EAD0559F59
:10077000466DBF2E161F06E855D996879774E61B5F
:1007800025A662A9904CDBE1EAF525BA3485928072
:1007900061F5063ABB71BC8759C8CCC523E98DA069
:1007A0000D4E4FA164A49118DE7D5FDD7F545D592D
:1007B0008F30E1121038D045ACCF76A069568F57F4
:1007C0007A733AF469BC47474DA328C3EF78EF69C1
:1007D0005C825E2B34719B03C465706F8F0DA9D151
:1007E0004C86477FE86C50011CD20ACA68637A982D
:1007F00018F7D1098C4B74EB3719B4E73BBE398934
:100800008CC368E0063BE418958349D58C82C23CD2
:10081000AA2B95CED057E00562F038F49478E4D353
:10082000D98C42B912BBF5F52BB81D04824D98DD69
:1008300004D8CACFDA02E56E87AEC53DB0517598CF
:100840006AA29D4183B5FBF13EAA39D9C6951FA77F
:10085000596DE33EE0D00790ED8B954ED853E3FB06
:10086000A03C9C6440DC1692AD77939B859F5BAC6B
:1008700025A7BBA24287700D915A65548A4A7A32E5
:1008800048A825BE0C0603A95E97EC0CFE2E14DFCB
:100890001E6D703C843DAC170C19C152A4DF3EDFC5
:1008A0000E2CB06057540993129379272CD34CA681
:1008B000CA2DC4103AF1674B056AF87AF9465842D6
:1008C000BD7AC6F334AA7B4DD626242339FE20C434
:1008D0005E4D59B43596CD66BF6C76AD2502126D6E
:1008E000A602813A2331851DA3821EDE1826AD3073
:1008F000492F1CC74DCA7C6A73D7BA323FA462F62F
:10090000B04BC5ECF4AE01B536959AF610BF457301
:10091000FD32A6910E82BEBCAA659515E78CA17A20
:10092000F2003DD75E9AAD35FFD3DE95548F02AB12
:10093000EFAE5FC93E088C4DC1B9179CBDBCE167E5
:10094000F368C490D226B04832E82AFBC54B88A38E
:10095000B5A632E066C1D6D631A77211F817CDE937
:100960003AC2F1C3DE1B8904E6FBB648DD28189BBA
:100970004FFBFE33A79C8E964D8BB6065B1DE47D28
:10098000C79939E93B1ACD05356460B566A21C00EC
:1009900010BF6A9EE623E82F1E87785E430FC23F92
:1009A0009E3A3922CC5FA89D509C4F07E26E455D70
:1009B0003EF75DD2697266C54EF2AD25E72C5190C7
:1009C00042180602C357B566656099079F8200F119
:1009D0003302D001246C68AD3FB6797524A90CEDC3
:1009E000D65D945868F307161406D640C57D683F57
:1009F000B205FACE57C26874A327F2E98A43E166CA
:100A0000DACE926CBB586AE22BA09805F5F0EAFEAC
:100A10007C902483829C71AC1D3A8E558EB575E313
:100A2000D29CEF2EBD01E580B646C9350D9F408CA6
:100A3000A723D4CBCF9E3D8C09B8DCCF33D32F2B4B
:100A4000A263A7DC1FCFECECFB35F46597FED6382C
:100A5000EB646BE62BA4CD0AD69F938144DB1DE5A6
:100A6000ECAD30957D52D658C6E33CB1C1AF9E5037
:100A7000C60ED8EEE4168F684BCEFB2D4BF74577AC
:100A80007022E47D840B191E8B18C2F77CB63B1DC7
:100A9000820C31302FA125E836201EEC6D8CB73446
:100AA000FD580FC347797C04E971DA627969CC4556
:100AB000FBDF5C9D552EE939654526E07FF44A1C35
:100AC0006AA637DAF3359A7A4A9916272576B64711
:100AD000CC17017DB732CAEE72A14C2891321B1798
:100AE00006A03684392336951EA29815D41C61A021
:100AF00072300B0ED54ED1344B7466F8103CBB608F
:100B0000BCC277C0EBF4EC29B3389EC4B67EE818BB
:100B10006A9E64B59A2EBEBABFA95A8516E6E8F554
:100B20001C8A3918D87F97BE73E9D7DFC51C934C50
:100B3000B6A0F276CB3314804389CB1ECA8096834D
:100B40002CDE78C3C1CE27BF4167FC2BE1DA098FC9
:100B5000B6ECA97CAE46D0C2D136892078D403D772
:100B6000F43EB29FD1AD49C94EA6D9E9159A704A53
:100B7000DC0BC8F26E979DC6A85C38AE02154ECE4F
:100B80007E95B525FA5963801C2E3B64B56BF846FB
:100B90005C4DE069D78323F16139F466425D0DBC99
:100BA0001B9237392F8317ECB908C90732871F1FEB
:100BB0001702C20C8E7E7C6D8712C0F030927A597B
:100BC000DE3B2C3D6FD67DF8445957BC6FF0E96889
:100BD000A8246E881E3E2E37B42D99436265851D6C
:100BE0008AB10FC6043EB52851454581169A7C61ED
:100BF00030BE11ECC746824B75A088DAF0E126F1D1
:100C00000C8B929670FF1928F056A097419BD4F751
:100C1000E029A92D80CEA27AF30771F506CCFB2D31
:100C2000BED5DE8051CF4FF6E7A4558010009F4E11
:100C30009DB772F8C7C799349304CCCA880ABD52CD
:100C40007FEB2EF7DD0AC48AA7AB7EE068C8CCD95B
:100C50002AE67464F03AA3EF0F9B90959F24BA0D97
:100C6000BFA4B05196671C824A8AA479BB8DC3B7D2
:100C700050CC43F1EFB13C8F714627E432129C799E
:100C8000677963A72DFE201808EE6284EE0FF32328
:100C90001DC43D00302FEC78F71734679B0CFFC95B
:100CA00048C21A60DC62495747C80389212330DAF9
:100CB0000BA18D13C7441DEA75473E36A451EF4979
:100CC000514EA83DCE9A18E92310D84931257DAE62
:100CD00038BE01505DFF0DE9CC42BD1E4589093784
:100CE000366FA80C893225778B5EA09719D65B7D6D
:100CF000E21A2D245F967BC17473986CB8421196EA
:100D0000338B8E5ED0FDF4E936BF69AA8E8F75ED08
:100D10000067826DABDE0295C0E5D11FFB70FCE67B
:100D2000F91FC5255AC703C3FB67F58EEDDF1BC14D
:100D300027BFB3B7129171318159ECD31599B3AD77
:100D4000E35DF075C2C1C348D91C36BE77FCDC41F7
:100D5000CDFEF3EC60E229F5CBD948856C4AC8504A
:100D6000FBE323A48AD08855DF16DBEDF4148773E8
:100D70000ADD0286CA30F8CE9192AF75BD030F1C12
:100D8000FA3ADB8B67AC7331D346717937B626EC10
:100D90002C0B11E47593B43AA71020F878535A003D
:100DA000CA53A2343636C542BBFE64975766BC6D43
:100DB00048000EC95CD2252978F61BF4DB4F9F55FD
:100DC0006CB14018030BC752BB2B2308E07C85F99C
:100DD00065EE3306D3433F2B77C25CC12B6361982A
:100DE0005BF5DC588A586DBB61084B01CB428D4FD7
:100DF0005C51FD6EAF9D13D85177149DABABB13FE5
:100E0000BF72A49C8575F0183DA3258C9658D5E536
:100E1000FEB274ED139D919278F6281C9016BDB524
:100E20006AFAC9D78F378D18A9B3A858CD3B048269
:100E30005781B872BEFFCEC20E923980DAC22DF849
:100E40006D74E534BCA37ED1E7E7E56BEB268896AD
:100E50008E6FB5552AC42AF6D211ADD2B0884DD8BE
:100E60005BEBFFF742A46842C015C1E72FF7A48FE0
:100E70009D59C049E0EAB653C34AB92AE3390FDFA6
:100E80004B667401CA6AEF564715F520C6F57EB069
:100E9000391F8C707E616BB339E66F780BC756B71C
:100EA0009317DA560CF6765B5845941CC709243321
:100EB000C843B6C5428E2821EA7E36E847DC40D0DA
:100EC000607F66E104E9DF419E1D3F810E343F6A89
:100ED000B32CEF5F5358B56EDEF313875273A8251A
:100EE000101D1ED713802B7168861EE4C74E834FDA
:100EF00072A1231E0012DD07C47994C463F0013C83
:100F0000A03CBF985FCFA0E2B648CE06B4BAB75CAB
:100F1000AB4777F438C9F37CD9F9C9840C920BA597
:100F2000BCA800DD387AF84D9FA667FACACDD55F18
:100F30008300B5CDDA50C032459575FCC25B98A4EC
:100F4000A8B176F877AFBFF425BA5469F92AEEBD97
:100F500064B3A2ACB462850EF0C7E70C8C0F32917B
:100F60005088BD61F2DBFAE20E9819AEA89476E3E0
:100F7000175D964297B070F88F8171AA000000004B
:100F800023002600290000004908B400BEF67B7A41
:100F9000A59455B848002944442A15A00B42005096
:100FA00003020008259076BA595CC59EC53892E6C2
:100FB000F33A73BAE59077BA773A084008502A4472
:100FC0001CE08852E508568E77B677B8728CD6BA90
:100FD000739E739272AEB7B6E95C64AAB7B4929C82
:100FE000BEB6D6B656AAD79276EE77B47138E9482F
:100FF000B6AEB6AAB6F6B5B4B548E59C694C912430
:10100000642E5400001C44000EAE9ABA0E8C2EAE14
:101010000ECE56D0553B93B44144415197B4494408
:1010200017B61AB60AAAD6D3766717900F389A8CD5
:1010300016AE16BA16F615B4B52B1C5E6B4C4948A5
:10104000C95A540056E200000000240027002A007C
:1010500000000000250028002B0004040404040400
:101060000404020202020202030303030303010257
:101070000408102040800102040810200102040826
:101080001020000000080002010000030407000017
:10109000000000000000EC103BDF6C1C548F7CF75C
:1010A000563D437E85DA6D5CB082FFAB81D900008E
:1010B0001814000018140000181400001814000080
:1010C0005900000408040000190004040804000486
:1010D000081400001901000508040010190000049C
:1010E0000805000119000014080400001910001080
:1010F0001804000009140004090100051800000488
:10110000181000001805000109040014090000046B
:101110001804000019040004090400041900112433
:101120001FBECFEFD8E0DEBFCDBF11E0A0E0B1E041
:10113000E6E1FAE702C005900D92A237B107D9F7B0
:1011400025E0A2E7B1E001C01D92AC38B207E1F79B
:101150000E945A390C94093D0C9400004115510528
:1011600071F0FB0101900020E9F73197E61BF70BC6
:10117000EE0FFF1FEE0FFF1FDA01ED93FC93211519
:10118000310529F086E090E0F9019183808308958C
:10119000CF93DF93E0917601F0917701E901E217B7
:1011A000F30708F4EF016E177F07B8F4CE01860F3E
:1011B000971FE817F90718F4EF01C61BD70B209704
:1011C00079F0CA012091780130917901620F731F83
:1011D000AE010E94D33CCE0105C08FEF9FEF02C04D
:1011E00080E090E0DF91CF910895CF92DF92EF926F
:1011F000FF920F931F93CB01BA01A901C12CD12CEF
:10120000760101E010E020E030E00E9447371F91B6
:101210000F91FF90EF90DF90CF9008952F923F9223
:101220004F925F926F927F928F929F92AF92BF92F6
:10123000CF92DF92EF92FF920F931F93CF93DF93A2
:1012400000D000D01F92CDB7DEB719821A821B8260
:101250001C820E949A234091DC035091DD034E5F73
:101260005F4FC12CD12C760101E010E020E030E08E
:1012700061E070E082E190E00E94473752E0452E45
:10128000512C912C80E3890D8D8389E0682E712C7F
:10129000812CE091DC03F091DD0391100EC08CE312
:1012A00089839DE29A839B83808149E0242E312C9F
:1012B000A12CB12C882371F127C084E0981210C0B2
:1012C00095E499838EE48A8394E59B83808129E069
:1012D000222E312C35E4A32EB12C8430A9F41AC06F
:1012E00080E289839D819A3339F0892F9B3331F0D5
:1012F0009C3329F483E203C08AE201C080E38A833D
:1013000080E28B83130152018081981212C0818187
:1013100088120FC0E12CF12C8701E39429E030E022
:101320004FE050E0B101C5010E94013711E000E03B
:101330000AC029E030E04FE050E0B101C5010E9451
:10134000BF3710E001E01C8240E0B101C5010E94FE
:101350008B2175019EE0E90EF11C40E0B101C7014F
:101360000E948B21610188E0C80ED11C40E0B601CB
:10137000C5010E948B2140E0B601C7010E948B216C
:10138000C12ED12CE12CF12C10E020E030E0B10195
:101390006E5F7F4FAE014F5F5F4FC50102960E94A7
:1013A000473783949D819D5F9D83C3010A963C01CD
:1013B00094E089126ECF939480E1480E511C95E021
:1013C000991260CF0F900F900F900F900F90DF91B8
:1013D000CF911F910F91FF90EF90DF90CF90BF9032
:1013E000AF909F908F907F906F905F904F903F90C5
:1013F0002F9008958F929F92AF92BF92CF92DF92DB
:10140000EF92FF920F931F93CF93DF935C016B01D9
:101410008A0179012091720130917301E216F3067D
:1014200020F0E0907601F0907701C216D306C0F567
:10143000C7018C0D9D1D2817390718F47901EC1888
:10144000FD08E114F10479F1609174017091750166
:101450006C0D7D1D40E050E0C5010E94FE35E801A5
:1014600000E010E08AE0982E9DE2892E41E050E0F5
:10147000BE01C5010E948135019781F488818C32BB
:1014800039F48AE0C816D10410F4888201C0988229
:101490000F5F1F4F21960E151F0541F7C80105C0AC
:1014A0008FEF9FEF02C080E090E0DF91CF911F911E
:1014B0000F91FF90EF90DF90CF90BF90AF909F90F3
:1014C0008F9008950F931F93CF93DF93109277011E
:1014D000109276011092790110927801C091D40196
:1014E000D091D5010091D6011091D701CB31D10512
:1014F00050F0AE0160E070E0C8010E94EE3C6B97D6
:10150000F801D18FC08F8091D6019091D7010097BB
:1015100059F022E530E0FC013587248720E330E0F4
:10152000378726870E94A51B8091D6019091D7010D
:10153000009749F02EEA38E0FC01378326831582B4
:1015400014820E94A51B8091D6019091D70100972B
:1015500049F025EF38E0FC01338722871186108699
:101560000E94A51B88E89BE09093E3038093E2032D
:101570001092E1031092E003DF91CF911F910F9140
:1015800008958F929F92AF92BF92CF92DF92EF9287
:10159000FF920F931F93CF93DF9300D000D000D022
:1015A000CDB7DEB70E949A230091D6011091D701E2
:1015B0001E821D821C821B828AE689831A82011583
:1015C000110541F4E091D601F091D701309709F06F
:1015D00066C08BC0D8011A968D919C911B97892B60
:1015E00089F31696ED91FC911797309759F312965F
:1015F0008D919C911397892B29F39E012D5F3F4F6D
:10160000AE014B5F5F4FBE016F5F7F4F14968D91B0
:101610009C9115970995A12CB12CE12CF12CC12C92
:10162000D12C4801BAE18B0E911CF8018089918977
:10163000E816F90638F6F801208D318D2F5F3F4FFF
:10164000A401B701C8010E94D91A97FDBBCFE80ECB
:10165000F91ED80152962D913C915397C216D3068C
:10166000D0F056968D919C915797820F931FC81674
:10167000D90688F41A96ED91FC911B979401A50167
:1016800060E070E018968D919C91199709958B8177
:101690009C81A80EB91EBFEFCB1ADB0AC6CFE28829
:1016A000F388048915894689578940175107E8F45A
:1016B00030E3349FC001359F900D1124B8010E9482
:1016C000993CFB013E9DC0013F9D900D1124B80146
:1016D0000E94993CE12CF12C8701E3949F0142E0A8
:1016E00050E082E590E00E94013726960FB6F8940C
:1016F000DEBF0FBECDBFDF91CF911F910F91FF9045
:10170000EF90DF90CF90BF90AF909F908F90089513
:10171000611103C0423069F507C04130C1F5613045
:1017200019F0623019F008950C944021E091D6012F
:10173000F091D701309721F40E94C10A0C947621D0
:101740002289338946895789848995898417950721
:1017500018F4138A128AF0CF2F5F3F4F841B950B2A
:101760002817390718F0938B828BE6CF338B228BA7
:10177000E3CF413061F4E091D601F091D701309789
:10178000D9F2828993890097B9F20197ECCF089535
:101790000F931F93CF93DF930E949A23C091D60398
:1017A000D091D703209709F440C0CE010E94C41EF7
:1017B0008130D9F10F8D10E04C8D5D8D4F5F5F4F03
:1017C0006A8D7B8D2E8DCE010E944F1D4C8D5D8DBF
:1017D000813029F44F5F5F4F5D8F4C8F23C06A8D3E
:1017E0007B8D0F8D2E8DCE010E94E71ECE010E94B3
:1017F000D61DCE010E94C41E813089F4CE010E9404
:10180000421C088D198DCE010E94E51CEE89FF89CE
:10181000309759F0B8018C899D89099506C0CE0191
:101820000E949D1CCE010E94421C8091000190915B
:101830000101019631F0DF91CF911F910F910C942E
:101840007621DF91CF911F910F9108958091000132
:10185000909101010E94F8388FEF9FEF9093010162
:10186000809300014091D4035091D50360E070E073
:101870008091D6039091D7030C94EE3CCF93DF93E5
:10188000EB010E94260C60E070E08FEA91E30E9479
:101890005A21BE018AEADF91CF910C94BB110F93BC
:1018A0001F93CF93DF93611134C0423041F40E9403
:1018B000260CDF91CF911F910F910C944021413064
:1018C00009F0BBC0C091D603D091D7032097D9F0BF
:1018D000CE010E94C41E8130B1F00F8D10E04C8DFE
:1018E0005D8D6A8D7B8D615071092E8DCE010E94B8
:1018F0004F1D813041F48A8D9B8D01979B8F8A8F7C
:10190000CE010E94421CDF91CF911F910F910C9448
:101910007621623001F5413009F08FC0C091D603C5
:10192000D091D703209779F3CE010E94C41E813055
:1019300051F30F8D10E04C8D5D8D6A8D7B8D6F5F47
:101940007F4F2E8DCE010E944F1D8130E1F68A8D92
:101950009B8D0196D3CF613009F06FC0411123C038
:10196000C091D603D091D703209769F2CE010E948F
:10197000C41E813041F20F8D10E00F5F1F4F0370C6
:1019800011274C8D5D8D6A8D7B8D2E8DCE010E9431
:101990004F1D813009F0B7CF8F8D90E00196837095
:1019A00099278F8FADCF423009F047C0C091D60341
:1019B000D091D703209709F4A6CFCE010E94C41E70
:1019C000813009F4A0CF0F8D10E04C8D5D8D4F5FFD
:1019D0005F4F6A8D7B8D2E8DCE010E944F1D4C8DE9
:1019E0005D8D813029F44F5F5F4F5D8F4C8FEBCF62
:1019F0006A8D7B8D0F8D2E8DCE010E94E71ECE014C
:101A00000E94D61DCE010E94C41E813091F4CE01E9
:101A10000E94421C088D198DCE010E94E51CEE89A2
:101A2000FF89309709F46FCFB8018C899D8909959A
:101A30006ACFCE010E949D1C63CFDF91CF911F9191
:101A40000F910895E091DC03F091DD0383E2DF0163
:101A50001D928A95E9F780E99DE09093E3038093D6
:101A6000E2031092E1031092E0030E940E090C942D
:101A70007621809102019091030197FD08C00E9498
:101A8000AC388FEF9FEF90930301809302010C9489
:101A9000220DEF92FF920F931F93CF93DF938C0150
:101AA000EB010E94620ABE01C8010E9410399093A6
:101AB000750180937401BE01C8010E9410397C0138
:101AC000BE016F5F7F4FC8010E941039F7FC07C04D
:101AD0008E159F0524F09C012E193F0902C020E0BD
:101AE00030E03093730120937201E091D601F091C0
:101AF000D701309759F0318B208B8AEF99E093838F
:101B0000828311830083CF010E94A51B0E94C10A1A
:101B1000DF91CF911F910F91FF90EF900C94762160
:101B2000EF92FF920F931F93CF93DF93CDB7DEB762
:101B300068970FB6F894DEBF0FBECDBF611106C027
:101B4000423009F0F7C00E94402104C1413009F041
:101B500001C1613079F0623009F0FCC0E091DC0332
:101B6000F091DD0380818F5F853010F4808354C055
:101B7000108252C0E091DC03F091DD03218190815D
:101B8000992309F3943099F0905D822F880F280FE4
:101B9000920F9A3309F4DCC09B3309F4B5C09C332F
:101BA00009F4C6C0992379F2913009F0AEC08F01D3
:101BB0000E5F1F4F84E1EAE7F1E0DF011D928A9595
:101BC000E9F744E150E0BE016F5F7F4F89E00E947A
:101BD000D62ABE016F5F7F4FC8010E94003D7C0185
:101BE000892BF9F044E150E0BE016F5F7F4F8AE03E
:101BF0000E94D62ABE016F5F7F4FC8010E94003D40
:101C0000892B89F0E091DC03F091DD0332968DE0C1
:101C1000DF011D928A95E9F70E940E090E94762144
:101C200099C019E004C01AE082E0E82EF12C60E0CF
:101C300070E089E39DE00E945A21F701EF5EFE4FBC
:101C400044E150E06AE771E081810E94D62A1930B0
:101C500069F480E390E30E943B3890930301809302
:101C6000020160E070E00E94490D74C01D8A1E8A66
:101C70001F8A188ECE0145960E9443250AE711E07F
:101C800083E380937A0195E390937B0180937C01B9
:101C900094E390937D0180937E0190937F014D8921
:101CA0005E896F89788D21E080E891E00E94CF24E1
:101CB00010928A010E94620A1093790100937801C0
:101CC000F80101900020E9F73197EA57F140F093CD
:101CD0007701E0937601A091D601B091D7011097DA
:101CE00081F05196FC93EE93509788EC98E0139610
:101CF0009C938E93129711961C921E92CD010E9476
:101D0000A51B0E94C10A8ACF90E39F012E5F3F4F1F
:101D1000D9010D900020E9F71197A21BB30BAC304D
:101D2000B10508F079CFAE0FBF1F12969C9374CF08
:101D300093E2EBCF413071F4E091DC03F091DD03ED
:101D400081818F5F843010F4818366CF118264CFEC
:101D50009AE2DBCF68960FB6F894DEBF0FBECDBF18
:101D6000DF91CF911F910F91FF90EF9008950F9306
:101D70001F93CF93DF93C091D403D091D5030091EB
:101D8000D6031091D703CD32D10550F0AE0160E0FB
:101D900070E0C8010E94EE3CAC97F801D3A7C2A73F
:101DA000E091D603F091D703309791F182A593A5E6
:101DB000419740F08AE090E097A386A38EE090E000
:101DC00091A780A789E192E39383828382E395E0E0
:101DD0009183808325E032E3378326839583848350
:101DE00020EF31E333872287918780872FEC31E31F
:101DF000378726879587848781EB91E3938B828B46
:101E0000118A108A8EE39CE0978B868B158A148A40
:101E10008FE49CE09093E3038093E2031092E1034C
:101E20001092E0039F0148EC5BE06CEB72E080E015
:101E300090E00E94A723909301018093000180917C
:101E4000D6039091D703DF91CF911F910F910C94FE
:101E5000E51CCB01880F991F860F971FBA01660FEB
:101E6000771F460F571FBA016E5F7F4F23E030E0A8
:101E700043E050E002960C94BF37EF92FF920F932D
:101E80001F93CB01880F991F860F971FBA01660F0A
:101E9000771F460F571FBA016E5F7F4FE12CF12C61
:101EA0008701E39423E030E043E050E002960E9493
:101EB00001371F910F91FF90EF900895AF92BF925D
:101EC000CF92DF92EF92FF920F931F93CF93DF9306
:101ED000CDB7DEB72B970FB6F894DEBF0FBECDBFE0
:101EE0000E949A2320E330E044E550E060E070E097
:101EF00080E090E00E94BF37E091DA03F091DB03CD
:101F000020A531A5A4E6B0E00E948A3CAB01BC014B
:101F100020E0CE0101965C010E94CF24F5010190E2
:101F20000020E9F73197EA19FB09EE0FFF1FEE0FCA
:101F3000FF1FC12CD12C760101E010E020E030E041
:101F4000A50169E270E083E590E08E1B9F0B0E9483
:101F500047372B960FB6F894DEBF0FBECDBFDF918B
:101F6000CF911F910F91FF90EF90DF90CF90BF9096
:101F7000AF900895413011F40C94402108955F9280
:101F80006F927F928F929F92AF92BF92CF92DF9289
:101F9000EF92FF920F931F93CF93DF93CDB7DEB7EE
:101FA000E0970FB6F894DEBF0FBECDBF5C01809006
:101FB000D2039090D303E090D003F090D103FC01C2
:101FC00001900020E9F731978F01081B190B39F4B4
:101FD0009401A70160E070E080E090E099C0009774
:101FE00009F447C06C01FC018191811144C017FDC7
:101FF0000FC19801AAE0B0E00E948A3C6E5F7F4F5B
:102000008F4F9F4F23E030E040E050E00E94363C8D
:10201000211580E83807410551050CF0F9C0C901C8
:102020000796BC01F3E076956795FA95E1F7653D73
:10203000710508F0EDC081E090E09AA789A75901E9
:102040001CA70BA7AB0160E070E0C7010E94EE3C4B
:1020500018AA1FA660E070E080E090E01AE0D601C8
:102060002D916D012223E1F030ED320F3A3008F46A
:102070009BC00E94C13C80538A3008F4B5CF350123
:10208000F30161913F01662309F4ACC0062E000CF8
:10209000770B83E491E00E94F53C892B89F732C1EC
:1020A0006115710569F09B01220F331F620F731FC9
:1020B0006F5F7F4F9E01215D3F4FA7010E94A919CD
:1020C0008FA598A98A159B05A1F6EDA6FEA688E026
:1020D000FE01B996DE01599601900D928A95E1F7BD
:1020E00088E0FE017996DE01919601900D928A9525
:1020F000E1F788E0FE01B196DE01519601900D9264
:102100008A95E1F79401A70161E070E0CE01419664
:102110000E94D22C882309F418C18091D203909197
:10212000D3030E9412186C018C0197FF02C00F5F4D
:102130001F4F159507951195019511090E949A2336
:10214000E12CF12C065D1F4FEC14FD040CF0FDC0DA
:10215000A12CB12C8091D2039091D303009709F464
:1021600088CFDC012C9130E0A216B3064CF4E216C5
:10217000F30634F4A701B5010E94E117282F02C02D
:1021800020E030E0422F4170B701C8018A0D9B1D4D
:102190000E948B21BFEFAB1ABB0AAC14BD04D4F272
:1021A000EFEFEE1AFE0AD0CF189FA001199F500D35
:1021B0001124CA01C097820F911D27FD9A956F5F68
:1021C0007F4F6330710509F04ACF9E01215D3F4F7B
:1021D000A7016AE070E00E94A91960E070E080E069
:1021E00090E03DCF17FD14C09801ABE0B0E00E9435
:1021F0008A3CDC01CB010196A11DB11DB595A795C7
:10220000979587958115F0E89F07A105B1051CF00A
:10221000F40110829AC0AC01495F5F4F63E05695AC
:1022200047956A95E1F7453D510590F722E030E08A
:102230003A8B298B5C011C8B0B8B60E070E0C70133
:102240000E94EE3C188E1F8A612C712C00E010E079
:102250004DE2542ED6016D916D01662349F1062E93
:10226000000C770B83E491E00E94F53C009709F4A1
:1022700000CF509E9001519E300D11248354914007
:102280008C01020F131F6A94672871F49E01295E66
:102290003F4FA7016BE070E0C8010E94A919612CB3
:1022A000712C00E010E0D6CF66246394712CD2CF5D
:1022B0006A94672849F49E01295E3F4FA70166E0B2
:1022C00070E0C8010E94A9198F89988D8A159B0515
:1022D00009F0CFCEED8AFE8A88E0FE017196DE011C
:1022E000119601900D928A95E1F788E0FE013196F2
:1022F000DE01199601900D928A95E1F788E0FE01C2
:102300003996FACE053D110508F082CFF701A00EEF
:10231000B11ED6018D916D018193AA15BB05C9F738
:1023200084E090E09A8B898BC801A0E0B0E023E0C4
:10233000880F991FAA1FBB1F2A95D1F7988F8F8BE3
:102340001C8B0B8BED8AFE8ADDCEE0960FB6F894DF
:10235000DEBF0FBECDBFDF91CF911F910F91FF90D8
:10236000EF90DF90CF90BF90AF909F908F907F9035
:102370006F905F9008952F923F924F925F926F926D
:102380007F928F929F92AF92BF92CF92DF92EF9205
:10239000FF920F931F93CF93DF93CDB7DEB7CC504F
:1023A000D1400FB6F894DEBF0FBECDBFE82E8B0133
:1023B00048EC50E0CE0101962C01BC0181E00E9466
:1023C000D62AF20101900020E9F731976F01C41875
:1023D000D50887EC90E03C016C187D08C250DF4FB7
:1023E000188219821A821B82CE5FD0409801A4E61F
:1023F000B0E00E948A3C4B015C01CE0182509F4FAD
:102400000E9443258E0102521F4FE0E1FE2EF8018B
:102410006F2D11926A95E9F7C250DF4F888199813B
:10242000AA81BB81CE5FD040F80180839183A283D3
:10243000B38384829582A682B782E0860E94382583
:10244000F80181870E943825F80182870E9438258B
:10245000F8018387A801445F5F4F6CE070E0C8011A
:102460000E94D125BE0162517F4F8FEF90E00E9404
:10247000DA38AE0147535F4FFA011192FA94E9F747
:10248000C251DF4F8881CE5ED0408093D801C151C8
:10249000DF4F8881CF5ED0408093D901C051DF4F9C
:1024A0008881C05FD0408093DA01CF50DF4F8881B0
:1024B000C15FD0408093DB01CE50DF4F8881C25F87
:1024C000D0408093DC01CD50DF4F8881C35FD04086
:1024D0008093DD01CC50DF4F8881C45FD040809372
:1024E000DE01CB50DF4F8881C55FD0408093DF0194
:1024F000CA50DF4F8881C65FD0408093E001C95049
:10250000DF4F8881C75FD0408093E101C850DF4F23
:102510008881C85FD0408093E201C750DF4F888137
:10252000C95FD0408093E301C650DF4F8881CA5F06
:10253000D0408093E401C550DF4F8881CB5FD0400D
:102540008093E501C450DF4F8881CC5FD0408093F9
:10255000E601C350DF4F8881CD5FD0408093E70113
:10256000ABEEB1E024E030E0FD013797E08031963A
:10257000F0803196908131968081B9016370772720
:10258000672BE9F4EF2DF0E0E658FF4F6491E92F57
:10259000F0E0E658FF4FF490E82FF0E0E658FF4FE8
:1025A0009491EE2DF0E0E658FF4F8491F901F695F5
:1025B000E795F695E795E859FF4FE490E6261D016B
:1025C000F3E02F1A3108BD0163517109FB016081ED
:1025D000E626F101E0821D01F2E02F1A3108BD016B
:1025E00062517109FB016081F626F101F0827D01E3
:1025F000F1E0EF1AF108BD0161517109FB01608141
:102600009627F70190833F97E0818E278C932F5F69
:102610003F4F14962C32310509F0A6CF80E1FA0124
:10262000A8E8B2E001900D928A95E1F7A8E8B2E03F
:10263000F80190E1900F8D912081822781939E1364
:10264000FACF48ED51E0B80180E00E940617FF2460
:10265000F3948EED90E08C0F9D1F0196CE5FDE4FC0
:1026600099838883C250D140EEEDF0E0EC0FFD1F5E
:102670003296CC5FDE4FF983E883C450D1408EEDB3
:1026800090E08C0F9D1F0396CA5FDE4F998388836D
:10269000C650D140EEEDF0E0EC0FFD1F7096C85F24
:1026A000DE4FF983E883C850D1403BE1E32ECE01F1
:1026B00082529F4F0E94F216C152DF4F8881CF5D38
:1026C000D040CD51DF4F9881C35ED040C152DF4F23
:1026D0009883CF5DD040C951DF4F9881C75ED0400D
:1026E000CD51DF4F9883C35ED040C551DF4F9881F5
:1026F000CB5ED040C951DF4F9883C75ED040C551F3
:10270000DF4F8883CB5ED040C052DF4F8881C05EF0
:10271000D040C851DF4F9881C85ED040C052DF4FD3
:102720009883C05ED040C851DF4F8883C85ED040D8
:10273000CC51DF4F8881C45ED040C451DF4F9881B7
:10274000CC5ED040CC51DF4F9883C45ED040C451A2
:10275000DF4F8883CC5ED040CF51DF4F8881C15E90
:10276000D040C351DF4F9881CD5ED040CF51DF4F75
:102770009883C15ED040C751DF4F9881C95ED04079
:10278000C351DF4F9883CD5ED040CB51DF4F98814E
:10279000C55ED040C751DF4F9883C95ED040CB5152
:1027A000DF4F8883C55ED040CE5FDE4F48815981C0
:1027B000C250D140CC5FDE4FA881B981C450D14016
:1027C000CA5FDE4F88819981C650D140C55FDE4F18
:1027D00099838883CB50D1409801F9018081FA0117
:1027E00030803826C55FDE4FE881F981CB50D1407B
:1027F00060819C9196279325292E2826732D771F7B
:102800007727771F7E9D602D1124330C36262324D5
:10281000F9012082FA0120803C9032242926732D70
:10282000771F7727771F7E9D602D1124330C362666
:10283000232420822C90C55FDE4FE881F981CB50A4
:10284000D140308032242926732D771F7727771FB8
:102850007E9D602D1124330C362623242C9260811A
:1028600086279627782F771F7727771F7E9D602DE5
:102870001124880F8627892780832C5F3F4F4C5F68
:102880005F4F14963496C55FDE4FF983E883CB50D3
:10289000D140C85FDE4F88819981C850D140281748
:1028A000390709F09ACF48ED51E0BE0162527F4FDF
:1028B0008F2D0E940617F3949AE0F912F8CECE01FC
:1028C00082529F4F0E94F216C152DF4F8881CF5D26
:1028D000D040CD51DF4F9881C35ED040C152DF4F11
:1028E0009883CF5DD040C951DF4F9881C75ED040FB
:1028F000CD51DF4F9883C35ED040C551DF4F9881E3
:10290000CB5ED040C951DF4F9883C75ED040C551E0
:10291000DF4F8883CB5ED040C052DF4F8881C05EDE
:10292000D040C851DF4F9881C85ED040C052DF4FC1
:102930009883C05ED040C851DF4F8883C85ED040C6
:10294000CC51DF4F8881C45ED040C451DF4F9881A5
:10295000CC5ED040CC51DF4F9883C45ED040C45190
:10296000DF4F8883CC5ED040CF51DF4F8881C15E7E
:10297000D040C351DF4F9881CD5ED040CF51DF4F63
:102980009883C15ED040C751DF4F9881C95ED04067
:10299000C351DF4F9883CD5ED040CB51DF4F98813C
:1029A000C55ED040C751DF4F9883C95ED040CB5140
:1029B000DF4F8883C55ED04048ED51E0BE016252D2
:1029C0007F4F8AE00E94061780E1FE01E252FF4F2E
:1029D000A8E8B2E001900D928A95E1F761147104C4
:1029E00009F461C07201EC0CFD1CEDE26E1671047D
:1029F00018F4F701108257C080E1FE01E252FF4F48
:102A0000DE01A753BF4F01900D928A95E1F70E9416
:102A10003825C752DF4F8883C95DD04049EC50E06C
:102A20004C0F5D1F4F5E5F4F61E170E0CE01875339
:102A30009F4F0E94D1258E0107531F4F312CC12C6F
:102A4000D12CF80191918F01292E22942FE022227E
:102A5000622D832DC65FDE4F9883CA50D1400E94FD
:102A6000B02437016C0C7D1CF3018083C65FDE4F00
:102A70009881CA50D1409F70392E692F822D0E94B3
:102A8000B024F3018183F2E0CF0ED11C6AE2C616B6
:102A9000D104B9F6F701E30DF11D8081F70182A79A
:102AA0008DE383A714A6C2010E94BF0F0E94762166
:102AB0008AEB9FE09093E3038093E2031092E1039B
:102AC0001092E00348EC50E0B20180E00E94D62A68
:102AD000C12CD12C760101E010E020E030E0A20111
:102AE0006AE270E080E090E00E94473720E0B501A4
:102AF000A401C2010E94CF24F20101900020E9F755
:102B00003197E419F509EE0FFF1FEE0FFF1F01E0EB
:102B100010E020E030E0A2016AE270E084E590E09D
:102B20008E1B9F0B0E9447370E947621C45FDE4FA9
:102B30000FB6F894DEBF0FBECDBFDF91CF911F91CE
:102B40000F91FF90EF90DF90CF90BF90AF909F904C
:102B50008F907F906F905F904F903F902F9008954F
:102B60003FB7F8948091930190919401A0919501C1
:102B7000B091960126B5A89B05C02F3F19F001968C
:102B8000A11DB11D3FBFBA2FA92F982F8827820FF3
:102B9000911DA11DB11DBC01CD0142E0660F771F43
:102BA000881F991F4A95D1F70895DC019696ED91FB
:102BB000FC9197974E9F90014F9F300D5E9F300D77
:102BC0001124620F731F9B0143E0359527954A95A9
:102BD000E1F79A964D915C919B972417350770F415
:102BE000FC01E20FF31F84A590E06770772702C015
:102BF000959587956A95E2F78170089580E008952C
:102C00002F923F924F925F926F927F928F929F92FC
:102C1000AF92BF92CF92DF92EF92FF920F931F93EA
:102C2000CF93DF93E114F104D1F12701122F1B019F
:102C30003C017A01812C912CC22DD32DA12CB12CD9
:102C4000D7FD1BC0F30186A197A18C179D07ACF09F
:102C5000F7FC13C080A591A58E159F0574F0940113
:102C6000A501602F812F0E94232A882331F0212F74
:102C7000A701BE01C601F2010995FFEFAF1ABF0A15
:102C8000219685E0A816B104D9F6EFEF8E1A9E0AB8
:102C9000FFEFEF1AFF0A85E08816910469F6DF91CD
:102CA000CF911F910F91FF90EF90DF90CF90BF9049
:102CB000AF909F908F907F906F905F904F903F90DC
:102CC0002F9008958F929F92AF92BF92CF92DF92F2
:102CD000EF92FF926B017C010E94B0154B015C01E9
:102CE000C114D104E104F104F1F00E94B015DC013B
:102CF000CB0188199909AA09BB09883E9340A1050F
:102D0000B10570F321E0C21AD108E108F10888EE9C
:102D1000880E83E0981EA11CB11CC114D104E104EB
:102D2000F10419F7DDCFFF90EF90DF90CF90BF90C7
:102D3000AF909F908F9008952FB7F89460918F0176
:102D40007091900180919101909192012FBF08950F
:102D50001F920F920FB60F9211242F933F938F93D0
:102D60009F93AF93BF9380918F0190919001A09119
:102D70009101B091920130918E0123E0230F2D3704
:102D800020F40196A11DB11D05C026E8230F02966F
:102D9000A11DB11D20938E0180938F01909390010E
:102DA000A0939101B093920180919301909194012D
:102DB000A0919501B09196010196A11DB11D80933E
:102DC000930190939401A0939501B0939601BF91C4
:102DD000AF919F918F913F912F910F900FBE0F90C8
:102DE0001F9018959C0184E0D90190E0EC91F0E0EF
:102DF000E658FF4FE491EC939F5F14969430B1F73F
:102E000081502F5F3F4F8111EFCF08950F931F9394
:102E1000CF93DF939B0190E1899F80011124A0E073
:102E2000B0E0FD01E00FF11FE40FF51F60E070E07E
:102E3000E901C60FD71F91918881982798836F5F0A
:102E40007F4F64307105A1F714962C5F3F4FA0317E
:102E5000B10539F7DF91CF911F910F9108959C0132
:102E6000CB010197889770F5CB01079661E170E07F
:102E70000E94AD3C24303105E9F060F4660F771F05
:102E80002130310599F022303105E1F4FB01E95C94
:102E9000FE4F15C027303105B9F02830310591F4C7
:102EA000660F771FFB01E55DFE4F09C0FB01E35C88
:102EB000FE4F05C0660F771FFB01EF5CFE4F808160
:102EC000918108950E94C13C80E090E00895FC014A
:102ED000A081B0E0FD017597ED39F10550F477FD63
:102EE00008C06A177B072CF457FD03C04A175B071D
:102EF00014F00E94C13C4A9FF0014B9FF00D5A9F75
:102F0000F00D11246E0F7F1FAB014770552733E082
:102F1000759567953A95E1F76F5F7F4FFC01E60F76
:102F2000F71F81E090E001C0880F4A95EAF722235D
:102F300019F09081892B03C080959081892380832B
:102F400008954F925F926F927F928F929F92AF926D
:102F5000BF92CF92DF92EF92FF920F931F93CF9386
:102F6000DF936C015B014A0179012801C0E0D0E0E8
:102F7000CE15DF05ACF400E010E03E016A0C7B1CCE
:102F8000081519055CF4B8016C0D7D1D21E0A30145
:102F9000C2010E9467170F5F1F4FF2CF2196E8CF43
:102FA000DF91CF911F910F91FF90EF90DF90CF9025
:102FB000BF90AF909F908F907F906F905F904F9059
:102FC0000895FC01208130E0F9017597ED39F10594
:102FD00050F477FD08C0621773072CF457FD03C047
:102FE0004217530714F00E94C13C429FF001439FD7
:102FF000F00D529FF00D11246E0F7F1F9B0143E0D7
:10300000359527954A95E1F7FC01E20FF31F818181
:1030100090E06770772702C0959587956A95E2F7EB
:1030200081700895009711F40E94C13CFC018081D9
:1030300090E09C01255131092D393105A8F70895FB
:103040000F931F93CF93DF939C018B0181309105E8
:10305000A1F167E070E00E94AD3CEB012296FB011C
:1030600031962032310581F0C901880F991F8C0FEC
:103070009D1F880F991F0196BF01660F771F0E9441
:10308000AD3C660F771F02C06AE170E0CF01220FEE
:10309000331F220F331F265F3F4F1816190644F4C3
:1030A000F801E80FF91F20830197261B370BF5CF96
:1030B00086E0F8018083CE0102C080E090E0DF91DD
:1030C000CF911F910F9108952F923F924F925F924F
:1030D0006F927F928F929F92AF92BF92CF92DF9228
:1030E000EF92FF920F931F93CF93DF93CDB7DEB78D
:1030F00029970FB6F894DEBF0FBECDBF4C017B0100
:103100002C01440C551C440C551C620181E1C80E75
:10311000D11CCC9CA001CD9C500D500D1124495FB9
:103120005F4F93E0559547959A95E1F74F5F5F4F55
:1031300060E070E0C7010E94EE3CF701C0828701A9
:10314000960141E050E060E070E086E090E00E948F
:10315000A11721E030E0A60166E070E080E090E099
:103160000E94A11729E030E049E050E060E070E003
:1031700080E090E00E94A1176201F9E0CF0ED11C1F
:1031800029E030E048E050E060E070E0C6010E94D5
:10319000A11728E030E049E050E0B60180E090E07F
:1031A0000E94A117BE016F5F7F4FC4010E942018CB
:1031B0003C01A12CB12C1C0181E0281A3108A61475
:1031C000B704D4F5C12CD12C81E090E08C0F9D1F69
:1031D0008A0D9B1D99878887C614D7044CF5A114C6
:1031E000B10431F4C114D104F9F0C214D304E1F0F4
:1031F000A214B30419F4C114D104B1F0E1E0F0E079
:10320000EC0FFD1FEC0DFD1D608170E06250710937
:10321000E885F985808190E0870125E030E045E090
:1032200050E002970E94A117FFEFCF1ADF0AD4CF18
:103230009FEFA91AB90AC3CFE7E08E169104B4F044
:10324000F6E04F0E511C870126E030E043E050E0ED
:1032500060E070E0C2010E94A11723E030E046E088
:1032600050E0B20180E090E00E94A11729960FB6CD
:10327000F894DEBF0FBECDBFDF91CF911F910F91AC
:10328000FF90EF90DF90CF90BF90AF909F908F9086
:103290007F906F905F904F903F902F900895E7E060
:1032A000F0E020E05DE170E0422F441F4427441F1E
:1032B000459F402D1124220F42279B010E2E02C054
:1032C000359527950A94E2F7922F9170989F902D4B
:1032D0001124242F2927319738F7822F08951F931F
:1032E000FC010197889710F00E94C13CCF0108961D
:1032F00024E0880F991F2A95E1F78E9F90018F9FF8
:10330000300D9E9F300D1124205C3F4FE130F105C0
:10331000E9F0CF0167E070E00E94AD3C6E5F7F4F47
:1033200017EE1603A001179F500D1124465F5F4F43
:10333000469FC001479F900D569F900D1124C79640
:10334000280F391F379714F024523109C9011F91F2
:103350000895CF92DF92EF92FF92CF93DF93613186
:10336000710578F46C01E12CF12C062E04C0F69462
:10337000E794D794C7940A94D2F7CD28CE28CF28C3
:1033800011F00E94C13C615071096F3FBFEF7B0794
:1033900049F1F901A081B181ED01E3E0D595C7952F
:1033A000EA95E1F7C40FD51FFC01062E02C0F69581
:1033B000E7950A94E2F7E170FF27A095B095A77012
:1033C000BB2701C0EE0FAA95EAF7F881EF2BE8833F
:1033D00061507109D901ED91FC9111973196ED93EE
:1033E000FC93D3CFDF91CF91FF90EF90DF90CF9000
:1033F0000895CF93DF93CDB7DEB72B970FB6F89430
:10340000DEBF0FBECDBF2BE0E5E1F1E0DE0111969E
:1034100001900D922A95E1F7892B59F46A307105D4
:1034200044F4E1E0F0E0EC0FFD1FE60FF71F8081B0
:1034300001C08FEF2B960FB6F894DEBF0FBECDBF45
:10344000DF91CF910895CF93DF93CDB7DEB72B9760
:103450000FB6F894DEBF0FBECDBF2BE0E0E2F1E087
:10346000DE01119601900D922A95E1F7892B59F40E
:103470006A30710544F4E1E0F0E0EC0FFD1FE60F67
:10348000F71F808101C08FEF2B960FB6F894DEBF37
:103490000FBECDBFDF91CF910895DF92EF92FF92E3
:1034A0000F931F93CF93DF938C01EB016430710571
:1034B00010F00E94C13C0E946F19D82EE92EB8016D
:1034C000CE010E94231AF82EB801CE010E94F919EC
:1034D0002D2D3E2D37FF02C0295F3F4F93E03595DC
:1034E00027959A95E1F7A9016F2D680240195109B6
:1034F0001124CA01DF91CF911F910F91FF90EF909E
:10350000DF9008950F931F93CF93DF9300D000D0E7
:1035100000D0CDB7DEB7DC011E821D821C821B826B
:103520008AE689831A8255961C921E925497599660
:103530001C921E92589756968D919C915797892B65
:1035400069F150968D919C915197892B39F1529642
:103550008D919C915397892B09F11696ED91FC91D1
:1035600017973097D9F08D019E012D5F3F4FAE0127
:103570004B5F5F4FBE016F5F7F4F14968D919C91A3
:1035800015970995D80152968D919C9153976B810F
:103590007C810E94993CF801718F608F26960FB64E
:1035A000F894DEBF0FBECDBFDF91CF911F910F9179
:1035B00008953F924F925F926F927F928F929F9267
:1035C000AF92BF92CF92DF92EF92FF920F931F9331
:1035D000CF93DF9300D000D01F92CDB7DEB7E0E2EB
:1035E000ED831C821B821A8219822115310519F480
:1035F0008FEF9FEF93C029017A015B016C01A90154
:1036000060E070E0C7010E94EE3C370100E010E08E
:1036100081E0481A510880E2382E0415150508F09B
:103620004AC0D6011296ED91FC91139721E030E04B
:10363000AE014B5F5F4FB8016A0D7B1D8D919C9170
:1036400009950197A9F68D81811101C03D828D8177
:10365000893009F43D828D81F30181933F01480156
:10366000FFEF8F1A9F0A8A3029F1D60150962D91CB
:103670003C915197C4018A0D9B1D82179307D0F48A
:103680001696ED91FC9117979E012F5F3F4FAE016B
:103690004D5F5F4FB70114968D919C9115970995D9
:1036A0002B813C81F601848595858217930718F05C
:1036B0008401B3CF8401F701E00FF11F10820115DF
:1036C000110551F1D8011197AE0DBF1D8C918A30B3
:1036D00011F41C921FC08032C9F080E090E022916A
:1036E000203229F0019680179107C9F70FC0801783
:1036F000910760F4A00EB11ED60150962D913C9119
:103700005197A216B30610F4081B190BF701E00F2E
:10371000F11F1082C80102C080E090E00F900F906E
:103720000F900F900F90DF91CF911F910F91FF900D
:10373000EF90DF90CF90BF90AF909F908F907F9051
:103740006F905F904F903F900895CF92DF92EF92ED
:10375000FF920F931F93CF93DF9300D000D000D040
:10376000CDB7DEB7DC011E821D821C821B828AE679
:1037700089831A8253961C921E92529755961C92D8
:103780001E92549757961C921E92569750968D9162
:103790009C915197892B09F466C01C968D919C9140
:1037A0001D97892B09F45FC01E968D919C911F97E0
:1037B000892B09F458C012968D919C911397892BEF
:1037C00009F451C01696ED91FC911797309709F4C2
:1037D0004AC08D019E012D5F3F4FAE014B5F5F4F91
:1037E000BE016F5F7F4F14968D919C91159709953F
:1037F000D8011E968D919C911F976B817C810E94B0
:10380000993CF801778B668B672B69F1E12CF12CE1
:103810006801FAE1CF0ED11CF80180899189E81680
:10382000F906F8F4D80158962D913C9159972F5FDD
:103830003F4FA601B701C8010E94D91A97FF04C0E3
:10384000F801158A148A0FC0E80EF91ED8015496A3
:103850008D919C915597019655969C938E93549774
:10386000DBCF138A128A26960FB6F894DEBF0FBEFE
:10387000CDBFDF91CF911F910F91FF90EF90DF901F
:10388000CF900895CF92DF92EF92FF920F931F9304
:10389000CF93DF93EC01EA81FB81309719F08881A7
:1038A00099810995C884D984EA84FB840DA12CA14F
:1038B00040E050E060E070E0CE010E9400168E858E
:1038C0009F85892BB1F4CC80DD80EE80FF804C8D0C
:1038D0005D8D6A8D7B8D0F8D2E8DCE010E94001621
:1038E000DF91CF911F910F91FF90EF90DF90CF90DC
:1038F000089500E010E08EA19FA1081719071CF79A
:10390000E12CF12C88A599A5E816F9065CF4A7012D
:10391000B801CE010E94D515811107C08FEFE81ABA
:10392000F80AF0CF0F5F1F4FE6CFEE85FF85A701A6
:10393000B8018C859D850995F1CFCF93DF93EC017C
:10394000ECA1EE8F8DA18F8F2EA13FA137FF02C07A
:103950002F5F3F4F35952795F0E0ED58FF4F44918D
:1039600090E0880F991F50E0082E02C055954795AA
:103970000A94E2F740FF03C04DEF5FEF02C04EEF45
:103980005FEF240F351F3B8F2A8FE491F0E08160B9
:1039900002C0F595E7958A95E2F7E0FF03C08DEF49
:1039A0009FEF02C08EEF9FEF9D8F8C8F66E070E0DF
:1039B000CE010E949D318CA363E070E0CE010E9495
:1039C0009D318DA3DF91CF910895CF93DF93009721
:1039D00009F461C0EC01198E188E66E070E00E9457
:1039E0009D318E8F63E070E0CE010E949D318F8FFC
:1039F0002EA13FA137FF02C02F5F3F4FA901559570
:103A00004795EE8DF0E0ED58FF4F24919927880FF0
:103A1000991F30E0082E02C0359527950A94E2F7E9
:103A200020FF03C02DEF3FEF02C02EEF3FEF240F2A
:103A3000351F3B8F2A8FE491F0E0816002C0F5953D
:103A4000E7958A95E2F7E0FF03C08DEF9FEF02C094
:103A50008EEF9FEF9D8F8C8F66E070E0CE010E940D
:103A60009D318CA363E070E0CE010E949D318DA357
:103A70008EA19FA1059699A388A385E090E09BA3C2
:103A80008AA34AA55BA560E070E0CE018C960E94F7
:103A9000EE3C81E001C080E0DF91CF9108952F924C
:103AA0003F924F925F926F927F928F929F92AF92CE
:103AB000BF92CF92DF92EF92FF920F931F93CF931B
:103AC000DF9300D000D0CDB7DEB75C014B016A01B7
:103AD000122F7B011B0124E0220E311CCA01049627
:103AE0009A8389833701681879082E143F040CF4EF
:103AF00045C0DC82CB824B805C804C185D082981FC
:103B00003A818B819C8128173907A4F1F7FC12C0F8
:103B1000F50186A197A1E816F90664F480A591A5A0
:103B20002B813C81281739072CF48B819C8197FFCE
:103B30000BC01AC09201A301602F812F0E94232A7B
:103B4000882399F380E01BC09201A301602F812F8D
:103B50000E94232A882341F04B815C81B701C50173
:103B60000E94D5158111EECFEB81FC813196FC834B
:103B7000EB83C1CF9FEFE91AF90AB4CF81E00F9030
:103B80000F900F900F90DF91CF911F910F91FF90A9
:103B9000EF90DF90CF90BF90AF909F908F907F90ED
:103BA0006F905F904F903F902F9008952F923F928B
:103BB0004F925F926F927F928F929F92AF92BF923D
:103BC000CF92DF92EF92FF920F931F93CF93DF93E9
:103BD00000D000D000D0CDB7DEB79E838D83DC014E
:103BE00098960D90BC91A02DBA83A983C12CD12C9D
:103BF000E12CF12C44244394512C69817A81C6161E
:103C0000D7060CF076C0AD81BE819696AD90BC9083
:103C1000979700E010E00A151B0564F4A601B801AF
:103C20008D819E810E94D515813009F05EC00F5FA5
:103C30001F4FF1CF0A151B0509F057C00C9D10014D
:103C40000D9D300C1C9D300C1124C601612C712C73
:103C5000181619060CF046C09301220D331D812C55
:103C6000912CFC0131975F0180169106BCF5A501EE
:103C7000B4018D819E812B833C830E94D5152B81BD
:103C80003C81A401420F531FFA0193E0F595E7959B
:103C90009A95E1F7AD81BE819A966D917C919B9743
:103CA000E617F707B8F4EA0FFB1F47705527811195
:103CB00009C0C20101C0880F4A95EAF7809594A512
:103CC000892307C0C20101C0880F4A95EAF794A56D
:103CD000892B84A7BFEF8B1A9B0AC6CFC501601A38
:103CE000710AB6CFFFEFEF1AFF0A4FEFC41AD40ADA
:103CF00084CFB2E0EB16F104D1F058F4EA94EF2847
:103D000051F5AD81BE8158968D919C915997019640
:103D10001BC043E0E416F10481F054E0E516F10421
:103D2000D1F4ED81FE81808D918D409612C0ED81A0
:103D3000FE81808D918D04960CC0AD81BE81589618
:103D40008D919C915997089659969C938E9358976C
:103D500002C0918F808F26960FB6F894DEBF0FBEFB
:103D6000CDBFDF91CF911F910F91FF90EF90DF902A
:103D7000CF90BF90AF909F908F907F906F905F900B
:103D80004F903F902F900895FC0166A177A120E00D
:103D900030E026173707BCF4F90143E0F595E795C5
:103DA0004A95E1F7E80FF91F44A550E0F901E770E3
:103DB000FF2702C055954795EA95E2F740FD05C0FB
:103DC0002F5F3F4FE6CF80E0089581E008952F9266
:103DD0003F924F925F926F927F928F929F92AF929B
:103DE000BF92CF92DF92EF92FF920F931F93CF93E8
:103DF000DF9300D000D0CDB7DEB76C015B017A0154
:103E0000922F702F2501150124E0220E311C4A014A
:103E100034E0830E911C66246394712C82010A198C
:103E20001B09241435040CF44BC0FC82EB822B815B
:103E30003C812E193F09EB81FC818E169F06E4F12F
:103E4000A801672F892F7A8399830E94232A7A8178
:103E50009981882359F1D60196964D915C91979757
:103E6000EB81FC81E49F9001E59F300DF49F300DC4
:103E70001124240D351DF90183E0F595E7958A9508
:103E8000E1F79A964D915C919B97E417F50770F4D2
:103E9000EC0DFD1D27703327A30102C0440F551FF1
:103EA0002A95E2F79A0184A5282B24A7AB81BC812F
:103EB0001196BC83AB83BBCFFFEF4F1A5F0AAECF27
:103EC0000F900F900F900F90DF91CF911F910F9156
:103ED000FF90EF90DF90CF90BF90AF909F908F902A
:103EE0007F906F905F904F903F902F900895FB01CF
:103EF000E658FE4F84910895CF93DF93CDB7DEB798
:103F000060970FB6F894DEBF0FBECDBF2091C10100
:103F10003091C201DE01119640E050E0BD018AEA15
:103F2000FA013496E20FF31F9491982794279D93FA
:103F30004F5F5F4F4031510599F7F90174968491B5
:103F4000E091D201F091D30140E150E090E0099579
:103F500060960FB6F894DEBF0FBECDBFDF91CF9154
:103F600008958EE480937C0062E070E080E090E051
:103F70000E94621680917A00806480937A0080911A
:103F80007A0086FDFCCF209178008091790030E0A6
:103F9000382B032E000C440B550B64EB7BE281E1C4
:103FA00090E00E94363C243C89E038076CF02C38C5
:103FB0008AE038075CF0203F8AE038074CF024356F
:103FC0003B4044F483E007C080E005C081E003C0CB
:103FD00082E001C084E08093980125E030E040E079
:103FE00050E060E070E0CB010E945A276093970197
:103FF00008950F931F93CF93DF93082F87E00E94BC
:10400000C02760E086E00E94C027C7E0D0E010E053
:10401000B8010C2E02C0759567950A94E2F761709D
:1040200077278BE00E94C02761E08DE00E94C027C7
:1040300060E08DE00E94C027219750F761E086E0A4
:10404000DF91CF911F910F910C94C0270C949C1677
:10405000EF92FF920F931F93CF93DF93D62F9C0184
:104060003327F901EE57FF4E8491F901E259FF4ED3
:10407000F490F901E65AFF4EC491062F10E0CC23CC
:1040800071F081110E949727EC2FF0E0EE0FFF1FD7
:10409000E458F04FA591B491EC91EF21F1F4F801BF
:1040A000E153FE4F808181111EC081E080830E9418
:1040B0009C16000F111F000F111FF801ED53FE4F4A
:1040C0006083718382839383E091E203F091E30341
:1040D000309709F447C041E030C0F801E153FE4F8A
:1040E0008081811136C0C80181539E4F7C01FC0143
:1040F00080818130B9F50E949C16000F111F000FBE
:10410000111FF801ED53FE4F00811181228133818F
:10411000DC01CB01801B910BA20BB30B893E9340BA
:10412000A105B105F8F082E0F7018083E091E20398
:10413000F091E3033097B1F042E06D2F8091E003FE
:104140009091E103DF91CF911F910F91FF90EF903C
:1041500009941082E091E203F091E303309711F0AB
:1041600040E0EBCFDF91CF911F910F91FF90EF9047
:10417000089560E082E090E00E94282061E083E002
:1041800090E00E94282062E084E090E00C942820D7
:104190000F931F93CF93DF93CDB7DEB72B970FB657
:1041A000F894DEBF0FBECDBF8C014BE050E0BE01E6
:1041B0006F5F7F4F82E00E94D62A4AE050E0BE0146
:1041C0006F5F7F4FC8010E94C63C21E0892B09F038
:1041D00020E0822F2B960FB6F894DEBF0FBECDBF26
:1041E000DF91CF911F910F910895EF92FF920F935E
:1041F0001F93CF93DF93EC018B017C01E40EF51E3E
:10420000CE15DF0541F0F80161918F01CE010E94CA
:10421000283C2196F5CF81E0DF91CF911F910F913E
:10422000FF90EF900895CF92DF92EF92FF920F935D
:104230001F93CF93DF9397FD18C069017A018B011B
:10424000EC0140E050E00E94FE350817190769F4C0
:10425000A601B701CE01DF91CF911F910F91FF9081
:10426000EF90DF90CF900C9481358FEF9FEFDF912F
:10427000CF911F910F91FF90EF90DF90CF90089515
:10428000A091DE03B091DF03109799F01197B093DE
:10429000DF03A093DE03AA0FBB1FAA0FBB1FA75605
:1042A000BE4FED91FC91119712968D919C911397B1
:1042B000099408952091DE033091DF032A303105FF
:1042C00088F4F901EE0FFF1FEE0FFF1FE756FE4FB8
:1042D00091838083738362832F5F3F4F3093DF032B
:1042E0002093DE03089560E00C94F91FCF93DF93D1
:1042F00080E80E94732180E40E947321C8EDD1E020
:1043000061E089910E94F91F83E0C03DD807C1F7A1
:10431000DF91CF910895F4E5F69F9001F79F300D5E
:104320001124820F931F60EA72E00E94AD3CF69F59
:104330009001F79F300D112464E570E00E94AD3CC0
:10434000F901E80FF91FE83F81E0F80788F4E85227
:10435000FE4F81E090E001C0880F6A95EAF74423A0
:1043600019F09081892B03C08095908189238083E7
:1043700008950F931F93FB01BA0141E0012B022B1B
:10438000032B09F440E0CF011F910F910C948B2176
:104390002F923F924F925F926F927F928F929F9255
:1043A000AF92BF92CF92DF92EF92FF920F931F9343
:1043B000CF93DF93CDB7DEB728970FB6F894DEBF63
:1043C0000FBECDBF3B012A01302F512F20320CF4FC
:1043D00020E2812C912C2052822F90E0880F991F8F
:1043E0008C010957104FBC016A57704F78876F8353
:1043F000F801849180FF03C0C401019701C0C4018A
:10440000009719F4EF81F8851BC08130910519F4EC
:10441000EF81F8851CC08230910571F4EF81F88539
:104420009491F80124919370F4E09F9FC0011124AE
:10443000922F9270892B10C08330910529F4F801D6
:10444000849182958F7007C0049721F4F8018491BC
:10445000869501C080E08E70212C312C682F70E091
:104460007A836983C401840D951D9C838B8383E0CB
:1044700090E082199309E981FA8102C0F595E795E8
:104480008A95E2F7E0FD03C0C501D60103C0C7016C
:10449000A32FB52F41E0892B8A2B8B2B09F440E009
:1044A0006B817C81C101860D971D3D835E830E94D7
:1044B0008B21FFEF2F1A3F0A3D815E8144E02416D5
:1044C0003104A9F66FEF861A960A76E087169104F2
:1044D00009F08ECF28960FB6F894DEBF0FBECDBF81
:1044E000DF91CF911F910F91FF90EF90DF90CF90D0
:1044F000BF90AF909F908F907F906F905F904F9004
:104500003F902F9008952F923F924F925F926F921B
:104510007F928F929F92AF92BF92CF92DF92EF9253
:10452000FF920F931F93CF93DF9300D000D01F9281
:10453000CDB7DEB72B017A0149010E943B386C01EF
:10454000198298012E0D3F1D3D832C838701612C1C
:10455000712CA12CB12C2C813D8102171307E1F1A4
:10456000E12CF12C130181E0281A3108E814F90438
:1045700061F1C1018E199F099C01277033273B838C
:104580002A83C7018A0D9B1D87709927892B51F4B7
:1045900041E050E0BE016F5F7F4FC6010E94813550
:1045A0000197D1F4498150E00A8002C055954795A2
:1045B0000A94E2F74170B801C701840D951D0E946D
:1045C0008B213FEFE31AF30AD1CF0F5F1F4FA80CE7
:1045D000B91C68187908BFCFC6010E94AC380F908B
:1045E0000F900F900F900F90DF91CF911F910F912F
:1045F000FF90EF90DF90CF90BF90AF909F908F9003
:104600007F906F905F904F903F902F900895AF9262
:10461000BF92CF92DF92EF92FF920F931F93CF93AF
:10462000DF93A82EB0909701811108C0B090980137
:10463000C1E0D0E04EE4C42ED12C04C0C0E0D0E0F4
:10464000C12CD12CE12CF12C870126E230E046E090
:1046500050E060E070E0C6010E940137CC0EDD1E24
:10466000CC0EDD1E83E08B1568F4E12CF12C870164
:10467000E39427E030E044E050E060E070E0C60101
:104680000E940137CC0EDD1E82E08B1568F4E12C10
:10469000F12C8701E39427E030E043E050E068E04C
:1046A00070E0C6010E940137CC0DDD1D81E08B1545
:1046B00070F4E12CF12C8701E39427E030E042E034
:1046C00050E060E170E0CE010E94013702C0BB20E3
:1046D00069F0E12CF12C8701E39426E030E042E020
:1046E00050E068E170E0CE010E940137A1100CC0DB
:1046F000BE016250710906E010E024E030E04FE1B5
:1047000050E089EE94EA09C006E010E025E030E0D0
:104710004FE150E0BE018DE69CE50E948322DF91CF
:10472000CF911F910F91FF90EF90DF90CF90BF90AE
:10473000AF90089588EF91E0E8EDF1E0DF019C0192
:104740001D9221503040E1F708950C949A238F92E6
:104750009F92AF92BF92EF92FF920F931F93CF93CE
:10476000DF93E091CE04F091CF04309799F1E0907F
:10477000D004F090D104ACECB4E0C0E0D0E0CE15B1
:10478000DF0541F11C9614960D911C911597012B94
:10479000F9F479018A014B015C018091CC0490917C
:1047A000CD0409952CE02C9FF0012D9FF00D1124D4
:1047B000E453FB4F6287738784879587868297824D
:1047C000A086B186F786E686118B008BCE0104C0E9
:1047D0002196D5CF8FEF9FEFDF91CF911F910F9152
:1047E000FF90EF90BF90AF909F908F9008950F93A0
:1047F0001F93CF93DF938C0142E050E060E070E0C4
:104800000E94FE35EC0197FF03C080E090E00AC0F3
:1048100040E050E060E070E0C8010E94FE35892B66
:10482000A1F7CE01DF91CF911F910F9108952F92A3
:104830003F924F925F926F927F928F929F92AF9230
:10484000BF92CF92DF92EF92FF920F931F93CF937D
:10485000DF9300D000D01F92CDB7DEB74C017D832F
:104860006C831A016901F90110820E94F7239B836E
:104870008A831982C114D10409F45AC001151105A3
:1048800009F456C0F6011082612C712CE12CF12C38
:10489000A12CB12C412C512C2A813B81621673062C
:1048A00009F446C021E030E0AE014F5F5F4FB30135
:1048B000C4010E9413210197D9F58981A214B30480
:1048C00019F52C813D8142165306F1F48C3281F1A9
:1048D0008A3071F1882361F1E016F10630F00C0D99
:1048E0001D1DF8013197108223C0F601EE0DFF1D4A
:1048F00080833FEFE31AF30AE016F10680F7F60132
:10490000EE0DFF1D108210C08C3221F48FEFA81A1B
:10491000B80A0AC08A3031F49FEF491A590AA12C0B
:10492000B12C02C0882321F0EFEF6E1A7E0AB4CFBB
:104930000F900F900F900F900F90DF91CF911F91DC
:104940000F91FF90EF90DF90CF90BF90AF909F902E
:104950008F907F906F905F904F903F902F90089531
:1049600080FF12C081FD0AC06A3010F480E311C0DC
:104970006A3089F06B3089F083E40BC082FD02C09D
:104980008BE407C08BE605C082FD02C081E401C054
:1049900081E6860F08958FE508958DE208954F9280
:1049A0005F926F927F92AF92BF92CF92DF92EF921F
:1049B000FF920F931F93CF93DF93EC016A017B016A
:1049C000022F4AE050E060E370E00E94EE3C1A865D
:1049D0001AE08AE0482E512C612C712CC114D104AC
:1049E000E104F10481F011505E01A10EB11CC70178
:1049F000B601A30192010E94683C605DF5016083ED
:104A000069017A01EBCF011124C060E0FE01E60FDD
:104A1000F11D8081803311F46F5FF8CF6A3009F4A3
:104A200069E070E04BE050E0461B570B6C0F7D1FB8
:104A3000CE01DF91CF911F910F91FF90EF90DF900A
:104A4000CF90BF90AF907F906F905F904F900C94FD
:104A5000DC3CDF91CF911F910F91FF90EF90DF90A1
:104A6000CF90BF90AF907F906F905F904F900895E0
:104A700020E031E040E050E060E070E0CB010E94D7
:104A80005A27862F0895EF92FF921F93CF93DF93BB
:104A9000CDB7DEB76B970FB6F894DEBF0FBECDBFB4
:104AA0007C01BE016F5F7F4F80E090E00E94DA38AA
:104AB000882309F45BC0CE0101960E94C8208111B1
:104AC0005BC04BE050E0BE016F5E7F4F82E00E9412
:104AD000D62A8AE0FE017196DE01119601900D92B0
:104AE0008A95E1F780E00E94F027182F0E94382570
:104AF00081278D8781E00E94F027182F0E9438259A
:104B000081278E8782E00E94F027182F0E94382587
:104B100081278F8783E00E94F027182F0E94382575
:104B20008127888B0E949C162D853E8562277327DE
:104B30007E876D871C861B8640E150E0BE016F5F5B
:104B40007F4F80E090E00E94F520882379F0BE013D
:104B50006F5F7F4F80E090E00E94DA38882331F069
:104B6000CE0101960E94C820811106C0F701108273
:104B700011821282138209C08D859E85AF85B88906
:104B8000F70180839183A283B3836B960FB6F89469
:104B9000DEBF0FBECDBFDF91CF911F91FF90EF9091
:104BA00008958F929F92AF92BF92CF92DF92EF9231
:104BB000FF920F931F93FA011082118212821382C7
:104BC000680F791F86179707A1F1C080D180E28016
:104BD000F380DC010D91CD010C2510E020E030E0E8
:104BE00048E050E000FD09C0B0E28B2EB3E89B2EF8
:104BF000B8EBAB2EBDEEBB2E03C0812C912C540123
:104C00003695279517950795082519252A253B25BB
:104C10004150510939F7CD2CDE2CEF2CFF24F094B4
:104C20000C251D252E253F250083118322833383E8
:104C3000C9CF1F910F91FF90EF90DF90CF90BF9061
:104C4000AF909F908F900895CF93DF9390E0FC01F9
:104C5000E259FF4E2491FC01E65AFF4E84918823CD
:104C600061F190E0880F991FFC01EA5BFF4EC5914E
:104C7000D491FC01E05BFF4EA591B491611109C094
:104C80009FB7F8948881209582238883EC912E2306
:104C90000BC0623061F49FB7F8943881822F809501
:104CA00083238883EC912E2B2C939FBF06C08FB754
:104CB000F894E8812E2B28838FBFDF91CF91089540
:104CC0002F923F924F925F926F927F928F929F921C
:104CD000AF92BF92CF92DF92EF92FF920F93CF935A
:104CE000DF931F92CDB7DEB7982E6B012A01190111
:104CF000E090F203F090F303A090F003B090F10382
:104D00008DE1E816F10460F0A70160E070E0C501F4
:104D10000E94EE3CECE1EE1AF108F501F38EE28E12
:104D20008091F0039091F103009759F028E330E06F
:104D3000FC01318B208B27E230E0338B228B0E94E9
:104D4000821A8091F0039091F103009749F028E0D6
:104D50003AE2FC0137832683158214820E94821A6C
:104D60008091F0039091F103009749F02FEB39E225
:104D7000FC0133872287118610860E94821A4CE03C
:104D800050E064EE73E0892D0E94D62AC6010E948D
:104D90003B386C0190930701809306014C0100237E
:104DA00011F0689487F8C6010E94F7233C0119822C
:104DB000E12CF12CA12CB12CA614B70419F1E114AB
:104DC000F10419F4EE24E394F12C21E030E0AE017B
:104DD0004F5F5F4FB501C6010E941321019719F083
:104DE000E12CF12C0FC089818C3241F08A3021F402
:104DF000FFEFEF1AFF0A02C0882321F08FEFA81AF5
:104E0000B80ADACF002319F0EFEFEE1AFE0AE091AC
:104E1000F003F091F103309759F0F78AE68A8EE2B9
:104E200098E29383828391828082CF010E94821ACA
:104E30008091F0039091F103009739F0FC015786BF
:104E40004686158614860E94821A20E030E048E8E3
:104E50005CE268EE73E080E090E00E94A72390930C
:104E60000501809304018AE89CE29093E303809318
:104E7000E2039092E1038092E003E091F003F0916D
:104E8000F103309711F0358A248A0E94112B0F907C
:104E9000DF91CF910F91FF90EF90DF90CF90BF9077
:104EA000AF909F908F907F906F905F904F903F90CA
:104EB0002F900895CF92DF92EF92FF920F931F935E
:104EC000CF93DF9300D000D0CDB7DEB76217730762
:104ED00084079507FCF489019A016B017C01A90103
:104EE0009801261B370B480B590B69F029833A832D
:104EF0004B835C830E94123C29813A814B815C8107
:104F00000E94363C03C060E070E0CB016C0D7D1D5B
:104F10008E1D9F1D0F900F900F900F90DF91CF91DE
:104F20001F910F91FF90EF90DF90CF900895833005
:104F300081F028F4813099F08230A1F00895873013
:104F4000A9F08830B9F08430D1F4809180008F7D51
:104F500003C0809180008F7780938000089584B58E
:104F60008F7702C084B58F7D84BD08958091B00095
:104F70008F7703C08091B0008F7D8093B00008953B
:104F80001F93CF93DF93282F30E0F901EE57FF4EA8
:104F90008491F901E259FF4ED491F901E65AFF4E8E
:104FA000C491CC23C9F0162F81110E949727EC2FB2
:104FB000F0E0EE0FFF1FE05BFF4EA591B4918FB7BD
:104FC000F894111105C09C91ED2FE095E92302C0E2
:104FD000EC91ED2BEC938FBFDF91CF911F91089552
:104FE0008E3008F08E508770806480937C008091B2
:104FF0007A00806480937A0080917A0086FDFCCFED
:10500000809178002091790090E0922B0895EF92A2
:10501000FF920F931F93CF93DF930097C1F08A0104
:105020007B01EC01EA85FB85309719F0888599852D
:10503000099588A199A1E816F90649F48AA19BA1CE
:105040000817190721F485E090E09BA78AA7DF9154
:10505000CF911F910F91FF90EF9008950F931F93A1
:10506000DC01FA01A7FF0BC06115710529F48EE27E
:1050700080838183128209C0615071098F77890111
:105080009F0140E050E00E9417241F910F91089566
:105090000F9301E09C0146E759E266E178E988E078
:1050A0000E9460260F9108950F9301E09C0149E151
:1050B00059E262E275EC87E00E9460260F91089544
:1050C0000F9300E09C014BEB58E261E378ED82E046
:1050D0000E9460260F9108950F93CF93DF93EB0109
:1050E000209108013091090137FF0CC0009751F061
:1050F0009093CB048093CA040E943B38909309019B
:10510000809308016091CA047091CB0401E09E0174
:1051100046E959E286E00E946026DF91CF910F9127
:105120000895BC0180E090E00C946C28809104010B
:10513000909105010E94F8388FEF9FEF9093050141
:1051400080930401809106019091070197FF0E94CE
:10515000AC388FEF9FEF9093070180930601409149
:10516000F2035091F30360E070E08091F0039091BE
:10517000F1030C94EE3C0F9362307105B9F1A0F489
:105180006115710541F16130710509F050C00E944F
:10519000962861E070E080E698E20E945A2160E083
:1051A00070E08DEA90E02EC06330710571F16430DB
:1051B0007105E9F50E94962864E070E080E698E2C7
:1051C0000E945A2101E020E030E046E759E266E122
:1051D00078E988E02AC00E94962860E070E080E6C6
:1051E00098E20E945A210F910C94220D0E94962859
:1051F00062E070E080E698E20E945A2160E070E090
:1052000088EB95EE0F910C946C280E94962863E031
:1052100070E080E698E20E945A2101E020E030E050
:1052200049E159E262E275EC87E00E9460260F9145
:105230000895AF92BF92CF92DF92EF92FF920F93B9
:105240001F93CF93DF93CDB7DEB7C85CD1090FB6FC
:10525000F894DEBF0FBECDBF6B01CE0101967C017D
:1052600088ECF70111928A95E9F7672B29F40E94DF
:1052700096280E94402128C082E295EC0E943B388B
:105280005C01B6016150710908EC10E0970141E042
:1052900050E00E941724C5010E94AC380E94962855
:1052A000B60184E598E20E945A21C7010E94BF0F0F
:1052B0000E9476218AEB9FE09093E3038093E203C0
:1052C0001092E1031092E003C853DF4F0FB6F89439
:1052D000DEBF0FBECDBFDF91CF911F910F91FF9029
:1052E000EF90DF90CF90BF90AF900895613071053F
:1052F00049F020F06230710579F008950E949628F7
:105300000C9440210E94962861E070E088E498E2C5
:105310000E945A210C94BB340E94962862E070E0EF
:1053200088E498E20E945A210C94B70ECF93DF9341
:10533000EB01209791F40E949628809108019091AA
:1053400009010E94AC388FEF9FEF90930901809381
:105350000801DF91CF910C9440210E949628BE0154
:1053600081E998E20E945A21BE0161507109809141
:10537000080190910901DF91CF910C94490D7F9222
:105380008F929F92AF92BF92CF92DF92EF92FF9255
:105390000F931F93CF93DF935B01EA014901702EB6
:1053A000CC24C3940C1511F0C12C0FC0E12CF12CAE
:1053B0008701E39429E030E048E350E0BE01675FF5
:1053C0007F4FC5010E960E940137D12CE12CF12CA4
:1053D00001E010E020E030E081E0781203C000E05E
:1053E00010E09801BE01655F7F4FA401C5014096A2
:1053F0000E944737DF91CF911F910F91FF90EF905F
:10540000DF90CF90BF90AF909F908F907F90089546
:105410004115510579F0FB0101900020E9F7319722
:10542000E61BF70BEE0FFF1FEE0FFF1F3496DA019E
:10543000ED93FC932115310529F089E090E0F90105
:10544000918380830895CF93782F4115510561F49E
:10545000813009F04BC0623009F048C081E0223051
:10546000310509F043C043C02430310561F4813077
:1054700009F03CC0613009F039C081E0423051058B
:1054800009F034C034C0862F90E064E0769F800D30
:10549000911D1124880F991F880F991F82559F4EC7
:1054A000FC01C49131967491319664913196E491E6
:1054B0008E2F90E0A0E0B0E0B82FAA279927882788
:1054C000972B8C2BA62B220F331F220F331F4150FB
:1054D0005109420F531F440F551F04C0B695A7959D
:1054E000979587954A95D2F7837001C080E0CF9158
:1054F0000895CF93DF93009711F1DC015296ED915F
:10550000FC9153973097D9F0EC01488D598D41505B
:10551000510960E070E08889998909959DA38CA361
:105520004A8D5B8D41505109EA89FB8960E070E04A
:105530008889998909959FA38EA381E001C080E0A5
:10554000DF91CF910895FC0180A991A93097A1F036
:1055500026A537A544A555A52417350720F0C90170
:10556000841B950B0895880F991F880F991F841B22
:10557000950B820F931F089580E090E0089597FDAA
:1055800012C0892B19F477FF06C00AC0672B59F4A3
:1055900082E090E00895672B31F083E090E0089579
:1055A00081E090E0089580E090E00895CF92DF924E
:1055B000EF92FF920F931F93CF93DF93182F7B01EE
:1055C000EA0160E070E0C7010E94EE3C83EB92E1EB
:1055D0000E943B386C01612F70E08E01970140E022
:1055E00050E00E941724CE0DDF1DFE01319710827E
:1055F000C6010E94AC38F701EC17FD0741F080812D
:105600008A3011F08D3009F410823196F5CFC70140
:10561000DF91CF911F910F91FF90EF90DF90CF908E
:1056200008954F925F926F927F928F929F92AF9266
:10563000BF92CF92DF92EF92FF920F931F93CF937F
:10564000DF93CDB7DEB72E970FB6F894DEBF0FBE4F
:10565000CDBF1E861D861C861B860E949A23E12CC8
:10566000F12C8701E39425E030E043E550E065E06C
:1056700070E080E090E00E9448369E01235F3F4F3B
:10568000AE01455F5F4F64EE73E080E090E00E9402
:10569000082A4B855C8584E590E0841B950B9695E4
:1056A00087959E878D87E12CF12C870129E030E0DA
:1056B00060E070E00E9401378D859E85C12CD12C61
:1056C000760101E010E020E030E044EE53E062E0DB
:1056D00070E002960E94473780E00E94072381E035
:1056E0000E940723E090F003F090F1031A861986D8
:1056F00018861F828AE68D831E82E114F10441F42C
:10570000E091F003F091F103309709F0B8C0E7C0E1
:10571000D70112968D919C911397892B89F3169638
:10572000ED91FC911797309759F31A968D919C91B2
:105730001B97892B29F39E01295F3F4FAE01475FDD
:105740005F4FBE016B5F7F4F14968D919C911597B3
:105750000995F70184899589608D718D0E94993C26
:105760003B014C01A12CB12C6701FCE1CF0ED11CF7
:10577000F701808D918DA816B90610F6689E8001FC
:10578000699E100D789E100D11240A0D1B1DD70166
:1057900056968D919C9157970817190708F0B0CF2E
:1057A0001C821B821A8219825A964D905C905B97DC
:1057B000A20160E070E0C6010E94EE3C920121501F
:1057C0003109D7011296ED91FC911397A601B8010A
:1057D0008D919C910995D7015A96ED91FC915B971B
:1057E000EE0DFF1D138E1696ED91FC9117979E01FD
:1057F0002D5F3F4FAE014F5F5F4FB60114968D9105
:105800009C911597099529813A81F70180899189A1
:105810008217930768F4F60101900020E9F73197A9
:10582000EC19FD0929F0EE0DFF1D138ED701DBCF1A
:10583000D7011A96ED91FC911B972F813885189608
:105840008D919C9119978A149B0449F4829EA00122
:10585000839E500D929E500D112401E008C0A29E1F
:10586000A001A39E500DB29E500D112400E09601A0
:1058700060E070E00995BFEFAB1ABB0A79CF2489CD
:105880003589A688B788808D918D8A159B0538F556
:1058900047E2429FC001439F900D1124B5010E9431
:1058A000993C6B01E12CF12C8701E39420E330E07B
:1058B00048E450E069E070E088E490E00E944836F7
:1058C00087E290E0B5010E94993C9B01B601675FB9
:1058D0007F4F43E050E087E490E00E9401370E9450
:1058E00076212E960FB6F894DEBF0FBECDBFDF91A6
:1058F000CF911F910F91FF90EF90DF90CF90BF90CD
:10590000AF909F908F907F906F905F904F90089591
:105910000C94112B611108C04230A9F587FF41C0DA
:105920000E9496280C9440214130D9F56130B1F0A5
:10593000623009F00895E091F003F091F10330979F
:1059400011F40C94112B8489958901962689378945
:1059500082179307B0F7958B848BF3CFA091F00358
:10596000B091F1031097E9F01E96ED91FC911F970D
:105970003097B9F054966D917C9155971C968D9106
:105980009C911D970994413061F4E091F003F091EE
:10599000F1033097B1F284899589009791F20197CC
:1059A000DACF08952F923F924F925F926F927F923B
:1059B0008F929F92AF92BF92CF92DF92EF92FF921F
:1059C0000F931F93CF93DF93CDB7DEB7E7970FB653
:1059D000F894DEBF0FBECDBF8C016B0158A74FA35B
:1059E0001901892B21F4672B11F00E94C13C60E062
:1059F00070E086E090E00E944D1A9EA38DA30115F1
:105A0000110539F07801812C912C412C512C320157
:105A100052C0C114D104B1F3E8CFD7011296AD90B2
:105A2000BC90139716962D913C9117973CA32BA3EE
:105A3000B7FCDBCF37FDD9CF66E070E08D919C914C
:105A40000E942F17FC01419780F6C501BB0CAA0BE1
:105A5000BB0B21E030E040E050E00E2E04C0220FEE
:105A6000331F441F551F0A94D2F782179307A407C8
:105A7000B50784F5CF01FF0FAA0BBB0B0496A11D40
:105A8000B11D2BA13CA1A901330F660B770B840F2D
:105A9000951FA61FB71F480E591E6A1E7B1E38E0B1
:105AA000E30EF11C411440E854066104710494F4BF
:105AB0005FEF851A950A8C149D0409F0AECF520150
:105AC0008DA19EA1B3E0880F991FBA95E1F78415C7
:105AD000950524F4D1011C9280E016C484EDF101F7
