:100000000C948B080C94A8080C94A8080C94A808CD
:100010000C94A8080C94A8080C94A8080C94A808A0
:100020000C94A8080C94A8080C94A8080C94A80890
:100030000C94A8080C94A8080C94A8080C94A80880
:100040000C94A6270C94A8080C94A8080C94A80853
:100050000C94A8080C94A8080C94A8080C94A80860
:100060000C94A8080C94A808BFF82247A069EF0BCD
:10007000D687987BDC34CCBDCFE8BCF6B6600BBB32
:100080004345EFFBDDA3C8DA30DA99A00EE106B4F0
:100090008899D0A07C6FBDBBBB1BB42B92FC91ABED
:1000A000ECF1FA2655A60E8A7E54007964C328D155
:1000B000AFDCF8ADA9EF3652AA62E702D888947691
:1000C000DE37CCBCC9EFB8BAA2197F9957D037EB4D
:1000D000B5AB45ED02FB89FAC29797D10D888C44E8
:1000E000CD28F6A6BE5CF80B16661731626024FFB9
:1000F0009573993EDD01534DB117FC0571002471D4
:100100007D3BE28666AE2BEE2C7C608222CB3040BB
:100110003D1C4C4E0ED5B3558304E33F9177973188
:10012000D62F5D2E0E5B43DDB8DC38F071944A1A91
:1001300009EE4CA55A2A5B7D36387F5436AE65628F
:100140008955071902F096E6FF7457F906B79450DF
:10015000AA30F53A60CFCD31F620CFEACEAF101DF0
:1001600094BE1B0B65E205D95DC3C362A9734B380E
:10017000104547A97A1E8C23AFEA34647CB490867C
:1001800041FE7F06050756CF3DD4EF67FAA67BE513
:100190000E50C4BD2B56A0AAD5934A2EB1068D6829
:1001A0005724F81ABA53A8E6D5124BBF185ABBA267
:1001B000FC0463C86D7F5027C108493967534C72EE
:1001C000A7B84F9616D32285A2409C7DFC631CD411
:1001D0004E8CF423B2105D342F0DB3B1551486D973
:1001E000E0E028726027066C0351B62BD656BB2977
:1001F000EEE76BE06138B5AADCE99069A01CC89B0A
:100200005887A6FDF2337979F3B744DC1F665C9317
:100210009DFF39886171B738D9E9DF01B2AFD430B9
:100220003CBC96F512316F7E1147AC5523507421BA
:100230002CEBB2D636FE7B9E5C0C10C252BB46281D
:1002400025A8B2061EA9C325D3D6F5E519854E62A9
:10025000867F0D766253C8C1B81DC8C041A4F86F2F
:10026000B0F8DE1C0A1A6B4DE0C0E8B893D7A5B20F
:100270005985D7C92D8B6099C784A0F5F1B76E0A4F
:10028000E215574A90C0DC3EA64FB4C4B197C0C235
:100290008A5137D11F987FA3EDF313B55AA3D1A28A
:1002A0008ADFDF9944D8C50CF510CE9E8664C0293C
:1002B000DEAEDFF994A8EC374DCB61E605D9878532
:1002C00079DF34C4BBC8ECB986FD967E9E51BF363B
:1002D000E4B4A8850323F88863F39496D63E94E0AB
:1002E0004BCC3C0B21BF5FFD11E2B30A509CD725DC
:1002F000F094CF47044E3B93A5F014FD158DF49375
:10030000A21FB60B8167AFD4CE5B8CBF79D94831C1
:100310004F63C5A392743A6D228207E9C235AF23B9
:10032000881AD2DC290E27127DCF044408B9974BD6
:100330003AE288BA4FACD6836237328C8237D17BAF
:1003400002956A161EA3FD7EE99FD65F3DFC44948C
:1003500001AF00A5F29ECCD2317722EECEF9B39256
:100360001EA079C60D26F415124B47BDF913919DB9
:1003700096401AF9C288EC8AE3B393203749400CBF
:10038000A870838FD3FE45AD575175CFFE96BD5AE9
:10039000C9F6B3B36815546BD7AE96B5AE307E834D
:1003A000964617EEBD2480525FE2F1A17EE6438DB2
:1003B0004844F04C3677129EC1DD3FF34112DDDD3B
:1003C0009B8E06DEB19CFF5CD365947CEAF87C6C66
:1003D000468E781F79124A5C9AFF2EAA892D16EF55
:1003E000D35EEDB4689CD3FC9115C8AAD511759A5B
:1003F0002AF22B24737BBC69082415716159DC39FE
:10040000E44458B4E50CCE7BCAECBA4E06DDA52216
:100410005AE007D88F7F8F28DD24A519F94D6C9DF0
:10042000C0A4406937A30DA1831044AD121A54B47F
:10043000EFD41AADF137FD6489A53F8EFB567841A4
:100440003F33B8221F7E5712209257B18847C40EFF
:1004500070BF5B8C795F0875AA95E4CEE7B0A77B87
:1004600025041B7A9013F954B2E7E5A17C191FCA41
:10047000BD2704D6CE2C88238609075E12F0B46F00
:1004800007E32BD24DAE235D01A748B5C3B096D08C
:10049000CD8B5236D61E9B7FBCECF092B25BA0286F
:1004A000AC8BDCDE9E4523C573F413CF998767C1FF
:1004B00026DFADDECE2BABED284CA860A114DC9579
:1004C0009A7ADC35CA84CBED80477C1B791F45CCFA
:1004D00041E5B167B22A00F997EB4355912BF194AE
:1004E000824ACF2D6F5FBD52E111F4641138A3A28F
:1004F0005AF1790E4338DF008293B315F5FCCEC272
:10050000227E87C9E4806453CA202E7E7F4720C99B
:100510003E71C0E24A480FD8B5CB01811A86AB358F
:10052000894FADEEDB28FBB6DD63BAC1D90A2B9645
:10053000482BF7EA4EA0A617BC6234378969CA2D4A
:100540009A9F6CE7013FC8E1AEF708F9B13D23453A
:10055000972B50C8D8241C0B32D75362E21A62760C
:10056000DFED8AA1DEF83C4A518BE0DEDA03686EEB
:100570001F9EF8BD0A30A84AEA23464698C84B9702
:1005800063C21E7889EFF8F311E72112679266AB18
:10059000D54F0F9EBF577F988A9397904C27F0FBBB
:1005A000E26DE3B90E881A82CF29E1002AA323AEB7
:1005B000DD33FC07FAAFC65089CA6260D60F794DA9
:1005C0007204D785618FB82CB30763BD1DE58B77A7
:1005D00097D1597541EBD2EAAC985151FB4AAE0E16
:1005E0005EEBE185494EC022F7927841D0133A671D
:1005F000D6817D15DDEC04310975C784B660B9DE9E
:10060000E8E580A9A3A02EE937BBD25B5D79C6C41B
:100610006FD418FAD8506D4DF51C5AABC1275FD076
:10062000123D9B7DB4772103157B82BA4BD0A2E9A2
:1006300085DEAFEEBACFC8CC659FA1F10AFC705938
:10064000B1FD40AAC5C78D561D05CEAAC49504DAD2
:1006500036E09BEAFA87DB36F6AC7511F739BCB9A0
:1006600089D3C6E5856C97D76A4A1B195992E4026B
:10067000C443A4780E30D07681780A79590C0C4A9C
:100680009FFB1FD756B36D3D1DFF5BB24D3D4C6ABE
:10069000313377ACCE28E2659EB9EF0C49F148AC16
:1006A000DFFFE6BCB2FA4B28EE178360A1EBD766FA
:1006B0008C74B5C8BC8C84C2865D3FDA5DCF28AC33
:1006C000F2EC55BF41A2DDAFA1E6F2EF7F17F17A60
:1006D000BC4DC9BBA40FBB6882F394EDFAE4A07FC4
:1006E00016B966E15A86D493C374857106635514AE
:1006F00043489DFB58DF4EF17F3F39D677882E184F
:10070000794610483EA1EA04FF19F97C1A0FE24528
:10071000E81F095F676B7A00C2FF2BE86480144A08
:100720003EF945F5185721414F4A0BC8D435B2134D
:10073000F4206404E71BC836432B1358324E94FA56
:10074000128B02A6693A2DCE07E258471E3966671A
:1007500038F49972BA78F013485DBA1BFD4F420B1A
:1007600026697636A4C62487CC3CE7BBCB2EB9538A
:10077000AFDEFED4C6D99C4D3DDB40CB69D2AEACDA
:1007800057F000E8D7C5D5D986FA385BAC36FA05FC
:1007900084A09A63C928D4A1CBE4F492F93A45ED38
:1007A0006AE20F9795977A9941A3CDB38483E78C3A
:1007B0004631C20B9C3C92E0FD12B858AFC1E38AAF
:1007C000D89C8C4B24872C8D5883D8810D826B9AB2
:1007D000EA8EF4C0ECBB7A01FE2DB54FF5A285661A
:1007E000C427DCFD84E3A9AA18CCAF18DA1C946AEC
:1007F0002128C3648C7C493D70160E42C0DB18C1B1
:100800005BAD360132DD6B823B4C0621787534BE20
:10081000D87FA82FC710430CFC1B8A4A04694218D2
:100820007D7AACC266F7649B6D30688D358B234F43
:10083000301E43400B95B05A9608E77F61768134AD
:10084000963D582F0A1B4212ED8E38A434CC1E1A46
:1008500047AD1FF61B6D1E2E3A5031FD806BC84808
:1008600098441D08ED1AFD45D6A68AD5D18B2D7961
:10087000804FCB33EEA9EC41F85FF09CE487B29D4A
:10088000CF0F73980F803FE693C36BC426DFE1DD83
:10089000FCEFA9E83955F46CE91A97C2B875C43170
:1008A000CFB0C6ECB6F8BA670ED3049466C491B460
:1008B0005BF514EDDBB5D0988FC31A3EC34AAF5336
:1008C0009AC7D05A98618DF9BEFF898CF7274BAD36
:1008D0002BB117D68B9A7F9973CBD793AFFFF7BC09
:1008E0006E03A00BA14D9ECE27CE6388322E7C5680
:1008F000051F04B8FD12CD5BB21045608F26C8718C
:1009000012201A47480F96EF76DD6797465837E36F
:100910005DA65129157D313A73BADC20E967C779A4
:100920002838E81D8659384E17445500DAAC10B007
:100930001CF6665D6B8226C4224F4A6B000A459FF7
:10094000B54EC55DB761336DAC4BD81D6650066EB4
:100950006C2FB28279FE08D619405CF21BE8404049
:100960000C3D797A7EF28A715B9414E0B6A307C8D5
:1009700008EB88F0CA8284C31B20A449C029BAECC2
:10098000FA6FF519F3F7819EFCF4B02B54F326A807
:100990004B95878421EA06ED92F6CE9A9ED96E6831
:1009A000904FCE219CEDF62DFC1DE4D4BCDB949839
:1009B000DB0127DC53B07EA0E6FA1DB21A85D8A071
:1009C00098DA9FBA4C21CA02B05CCE96E007C929DA
:1009D000B0EB8BAEE5FAA76441C038AA4C9CA6BF29
:1009E0006DC525DDEB85E0AD5F10CAEE139A67BEDD
:1009F000763129DE2AAF7906615017174688AB2A6F
:100A0000CA5EAF722F36D17EE27920577A63146CBA
:100A1000A3D15D922DC6114202FD18E8186013752E
:100A2000337059A7D722E37EE43F7A72C52AC67194
:100A3000683011594A07DFBC4DC237CB1B28599F7C
:100A40003DC5235F26014C482DF5937CA523971FB8
:100A50005A0B8F08E41E680E62517E23E19F6DB62B
:100A6000288835494EA558C1E489E3D48194CD1036
:100A70007BDF7DCC7DD2BAA147FE13A5B0E5D79030
:100A80008FDE6F0CD314997EDC91CC37987880B0D0
:100A9000D0B788AFF77570B96CF70693BA9E7BC76D
:100AA0003FC0FD88AE90A2F15139B473C82EFAAAA6
:100AB000EB05E01CE09BEB9CDB98B44A308F319552
:100AC00066F5D0FC11B85FA4E2D492E4E2AC32291E
:100AD000FB36A9538F908A6EBD6688FD84CA9AAB97
:100AE000E03057E022E41EC367739364873F2066BB
:100AF0004E0E0C429DFE139C6DA9792676E7759AE1
:100B00007B0C665D03587088DE30B1458C5A0F004F
:100B1000E45CE869244865445F22FA947EB6628BFF
:100B2000185548A008E3493579304B5308C9BE4FE2
:100B30009212FC6752768D2CCC67742210564106B7
:100B4000C1B659C83DFE336647A316EC14765F184C
:100B50006F783CB3A67EB139CE05223BE443A25365
:100B60002F0D2531286EBCD3CA53DA7ECFB4AB44E7
:100B7000EF0BBCA4F6D18D93C2067BC973D222F5CC
:100B8000A1A817D81EE790E5E6E785F33556B71913
:100B9000974997CCDF3CC92C8AE795BBE2E0E42279
:100BA000098D68F80CDDCE9A00BD45BBC4F083C842
:100BB000D9831212D91D907BAEA0D600B755A3D809
:100BC000A48EB1B4CF17799563A45EC3889D77D105
:100BD0007692A1B28BC5C885282EDA05806FF7A062
:100BE0008B62CC259AF7C7FC5C51108BF453F074E0
:100BF0009F25701AC868956B1223003C3C17BDE90D
:100C00000DD84AA97132389E74AA422D54606C06E0
:100C10006BBF9777BF559E57197E9904E0166152B6
:100C200067736D23F59034E159D4277B26AC21DB23
:100C30003A0E68557A491FC4BA449302F6795B7933
:100C40009C3EC72836425E033473EA9332E56986D8
:100C5000544445E62BEF14281C2C616476CF8A7E21
:100C6000AE3F8B16535AFF3B0BFB8AF8D1C397CA92
:100C7000504183149928EAB7F256FD0FF186A397E5
:100C8000A0CF8A4358824CD8028D908725F02DD270
:100C9000BACEF1B9B0A30657AB70E40798CED445ED
:100CA000CA32DBBDDBFBD5D0D1036F89079D3BF892
:100CB000AFB95BBD4FF7E89CB6F2E5BF6307E2440E
:100CC000AF5A93C7D550D53BC5BCC5E1F2EDE82B73
:100CD0004FA269AE50CDE4C528D7658AE6C0B7F902
:100CE000F2AE6E02E869BF0E792F258251B85C6DB5
:100CF000170F565F1E85FE59971EF02F393A9B54E9
:100D00009A6A0B6F5A14091D9ADD2BF972870A5CD7
:100D10004AD843B15F244F743738308DDC3BF070D4
:100D20008C15310CF155B55B463619494813D7BFC0
:100D300041D628F33A6A75CE7EDE2F55612D5F418C
:100D40001288CA2BDB52BC634D4EEF50B0413102CA
:100D500037234E2AE09962B965E9104D5FB015F767
:100D60001A3E3D2C696833E96E9E1DF534E7BFA934
:100D700040FC0CBDCDB8E88C80C70F608C43D121FE
:100D800099CEED00A843F89599A6FEF2B62D56F13E
:100D90005AEB1AD5959C2F8F7EE4B9C9F5BABDF2EE
:100DA0006067A57AEC01DD8CFB4C9744BED4BA9AFF
:100DB0008E8AC87828DB149F0DDDDAC1399C7985CD
:100DC0009F9FABF2EBBA1842F226A342D2978B2830
:100DD000817795EDD7BEF8A7A1661AFD2FA54688A5
:100DE000D19669D37787F899460E044399F912C7CB
:100DF00049B96A3D60CF678C291F694517081A8772
:100E0000F10EC511B92C00000000230026002900B6
:100E100000004908B400BEF67B7AA59455B8480096
:100E20002944442A15A00B420050030200082590D3
:100E300076BA595CC59EC53892E6F33A73BAE59026
:100E400077BA773A084008502A441CE08852E508EF
:100E5000568E77B677B8728CD6BA739E739272AE8E
:100E6000B7B6E95C64AAB7B4929CBEB6D6B656AA29
:100E7000D79276EE77B47138E948B6AEB6AAB6F630
:100E8000B5B4B548E59C694C9124642E5400001C0F
:100E900044000EAE9ABA0E8C2EAE0ECE56D0553BF6
:100EA00093B44144415197B4494417B61AB60AAABB
:100EB000D6D3766717900F389A8C16AE16BA16F6F8
:100EC00015B4B52B1C5E6B4C4948C95A540056E208
:100ED0008D01020408102040801B3653636865644E
:100EE000756C65004C696E6B730047616D657300CE
:100EF0000000181400001814000018140000181442
:100F0000000059000004080400001900040408044B
:100F1000000408140000190100050804001019005D
:100F2000000408050001190000140804000019104D
:100F3000001018040000091400040901000518003D
:100F4000000418100000180500010904001409002D
:100F50000004180400001904000409040004190026
:100F6000AA882AA22A2A2A2A23303623002A2330B2
:100F70003030302300637C777BF26B6FC5300167C4
:100F80002BFED7AB76CA82C97DFA5947F0ADD4A201
:100F9000AF9CA472C0B7FD9326363FF7CC34A5E5CD
:100FA000F171D8311504C723C31896059A0712802A
:100FB000E2EB27B27509832C1A1B6E5AA0523BD65E
:100FC000B329E32F8453D100ED20FCB15B6ACBBE83
:100FD000394A4C58CFD0EFAAFB434D338545F9022F
:100FE0007F503C9FA851A3408F929D38F5BCB6DA44
:100FF0002110FFF3D2CD0C13EC5F974417C4A77EEA
:101000003D645D197360814FDC222A908846EEB8FA
:1010100014DE5E0BDBE0323A0A4906245CC2D3AC34
:10102000629195E479E7C8376D8DD54EA96C56F479
:10103000EA657AAE08BA78252E1CA6B4C6E8DD7437
:101040001F4BBD8B8A703EB5664803F60E6135575F
:10105000B986C11D9EE1F8981169D98E949B1E87AF
:10106000E9CE5528DF8CA1890DBFE6426841992D54
:101070000FB054BB1600000000240027002A000017
:10108000000000250028002B0004040404040404CC
:101090000402020202020203030303030301020427
:1010A00008102040800102040810200102040810EA
:1010B00020000000080002010000030407000000F7
:1010C0000000000000EC103BDF6C1C548F7CF756D6
:1010D0003D437E85DA6D5CB082FFAB81D963616E82
:1010E0002774206265207472757374656400756E70
:1010F0006C6F636B656420616E6400596F7572205C
:10110000646576696365206973004E4F50494120DC
:1011100031333337000011241FBECFEFD8E0DEBFDC
:10112000CDBF11E0A0E0B1E0E2EAF8E702C005902F
:101130000D92A837B107D9F725E0A8E7B1E001C0C3
:101140001D92A239B207E1F70E9494380C944F3CEB
:101150000C940000FB01E859FF4F84910895CF9350
:10116000DF93CDB7DEB760970FB6F894DEBF0FBE42
:10117000CDBF2091C0013091C101DE01119640E048
:1011800050E0BD018AEAFA013496E20FF31F949110
:10119000982794279D934F5F5F4F4031510599F7F2
:1011A000F90174968491E091D101F091D20140E16E
:1011B00050E090E0099560960FB6F894DEBF0FBE40
:1011C000CDBFDF91CF91089525E030E040E050E0C1
:1011D00060E070E0CB010E94ED266093790125E08C
:1011E00030E040E050E060E070E0CB010E94ED268E
:1011F0006093780108950F931F93CF93DF93082F87
:1012000087E00E94532760E086E00E945327C7E0F2
:10121000D0E010E0B8010C2E02C0759567950A94D5
:10122000E2F7617077278BE00E94532761E08DE041
:101230000E94532760E08DE00E945327219750F7CA
:1012400061E086E0DF91CF911F910F910C945327BD
:101250000C949A27EF92FF920F931F93CF93DF93F3
:10126000D62F9C013327F901EF54FF4E8491F901E9
:10127000E356FF4EF490F901E757FF4EC491062F55
:1012800010E0CC2371F081110E942A27EC2FF0E0AE
:10129000EE0FFF1FEA5FF14FA591B491EC91EF21A2
:1012A000F1F4F801E253FE4F808181111EC081E00C
:1012B00080830E949A27000F111F000F111FF80151
:1012C000EE53FE4F6083718382839383E0918005A8
:1012D000F0918105309709F447C041E030C0F80132
:1012E000E253FE4F8081811136C0C80182539E4F68
:1012F0007C01FC0180818130B9F50E949A27000FA2
:10130000111F000F111FF801EE53FE4F00811181D4
:1013100022813381DC01CB01801B910BA20BB30B2B
:10132000893E9340A105B105F8F082E0F701808382
:10133000E0918005F09181053097B1F042E06D2F8A
:1013400080917E0590917F05DF91CF911F910F9144
:10135000FF90EF9009941082E0918005F091810553
:10136000309711F040E0EBCFDF91CF911F910F91BB
:10137000FF90EF90089560E082E090E00E942A09DB
:1013800061E083E090E00E942A0962E084E090E05E
:101390000C942A09CF92DF92EF92FF920F931F9342
:1013A000CF93DF9397FD18C069017A018B01EC019F
:1013B00040E050E00E945C340817190769F4A60168
:1013C000B701CE01DF91CF911F910F91FF90EF9068
:1013D000DF90CF900C94DF338FEF9FEFDF91CF91B1
:1013E0001F910F91FF90EF90DF90CF900895EF92B3
:1013F000FF920F931F93CF93DF93EC018B017C013E
:10140000E40EF51ECE15DF0541F0F80161918F0164
:10141000CE010E946E3B2196F5CF81E0DF91CF9106
:101420001F910F91FF90EF900895A091DD03B0916F
:10143000DE03109799F01197B093DE03A093DD03BC
:10144000AA0FBB1FAA0FBB1FA658BE4FED91FC9160
:10145000119712968D919C9113970994089520915C
:10146000DD033091DE032A30310588F4F901EE0FF7
:10147000FF1FEE0FFF1FE658FE4F9183808373839B
:1014800062832F5F3F4F3093DE032093DD03089587
:1014900060E00C94FB08CF93DF9380E80E94480A39
:1014A00080E40E94480AC7EDD1E061E089910E9482
:1014B000FB0883E0CF3CD807C1F7DF91CF910895B7
:1014C000F4E5F69F9001F79F300D1124820F931FD2
:1014D00060EA72E00E94F33BF69F9001F79F300DA7
:1014E000112464E570E00E94F33BF901E80FF91F55
:1014F000E83F81E0F80788F4E952FE4F81E090E090
:1015000001C0880F6A95EAF7442319F09081892B6E
:1015100003C0809590818923808308950F931F9342
:10152000FB01BA0141E0012B022B032B09F440E03F
:10153000CF011F910F910C94600A2F923F924F920E
:101540005F926F927F928F929F92AF92BF92CF9253
:10155000DF92EF92FF920F931F93CF93DF93CDB75C
:10156000DEB728970FB6F894DEBF0FBECDBF3B01A4
:101570002A01302F512F20320CF420E2812C912CA3
:101580002052822F90E0880F991F8C010F5E114F1F
:10159000BC01605F714F78876F83F801849180FF91
:1015A00003C0C401019701C0C401009719F4EF8181
:1015B000F8851BC08130910519F4EF81F8851CC0B6
:1015C0008230910571F4EF81F8859491F8012491AE
:1015D0009370F4E09F9FC0011124922F9270892B89
:1015E00010C08330910529F4F801849182958F70A1
:1015F00007C0049721F4F8018491869501C080E02A
:101600008E70212C312C682F70E07A836983C4019D
:10161000840D951D9C838B8383E090E08219930950
:10162000E981FA8102C0F595E7958A95E2F7E0FD38
:1016300003C0C501D60103C0C701A32FB52F41E0E8
:10164000892B8A2B8B2B09F440E06B817C81C101B3
:10165000860D971D3D835E830E94600AFFEF2F1A5F
:101660003F0A3D815E8144E024163104A9F66FEF04
:10167000861A960A76E08716910409F08ECF28968E
:101680000FB6F894DEBF0FBECDBFDF91CF911F9193
:101690000F91FF90EF90DF90CF90BF90AF909F9011
:1016A0008F907F906F905F904F903F902F90089514
:1016B0002F923F924F925F926F927F928F929F9262
:1016C000AF92BF92CF92DF92EF92FF920F931F9350
:1016D000CF93DF9300D000D01F92CDB7DEB72B01A0
:1016E0007A0149010E9419376C01198298012E0D67
:1016F0003F1D3D832C838701612C712CA12CB12CC3
:101700002C813D8102171307E1F1E12CF12C13012B
:1017100081E0281A3108E814F90461F1C1018E1939
:101720009F099C01277033273B832A83C7018A0DB9
:101730009B1D87709927892B51F441E050E0BE0131
:101740006F5F7F4FC6010E94DF330197D1F449815B
:1017500050E00A8002C0559547950A94E2F741701F
:10176000B801C701840D951D0E94600A3FEFE31A7E
:10177000F30AD1CF0F5F1F4FA80CB91C6818790866
:10178000BFCFC6010E9421300F900F900F900F9095
:101790000F90DF91CF911F910F91FF90EF90DF900D
:1017A000CF90BF90AF909F908F907F906F905F9001
:1017B0004F903F902F900895AF92BF92CF92DF92BB
:1017C000EF92FF920F931F93CF93DF93A82EB090C9
:1017D0007801811108C0B0907901C1E0D0E04EE4F9
:1017E000C42ED12C04C0C0E0D0E0C12CD12CE12CFF
:1017F000F12C870126E230E046E050E060E070E046
:10180000C6010E945F35CC0EDD1ECC0EDD1E83E0CE
:101810008B1568F4E12CF12C8701E39427E030E08C
:1018200044E050E060E070E0C6010E945F35CC0EFD
:10183000DD1E82E08B1568F4E12CF12C8701E39426
:1018400027E030E043E050E068E070E0C6010E942D
:101850005F35CC0DDD1D81E08B1570F4E12CF12C92
:101860008701E39427E030E042E050E060E170E07F
:10187000CE010E945F3502C0BB2069F0E12CF12C43
:101880008701E39426E030E042E050E068E170E058
:10189000CE010E945F35A1100CC0BE0162507109DB
:1018A00006E010E024E030E04FE150E089EE94EAF9
:1018B00009C006E010E025E030E04FE150E0BE0155
:1018C0008DE69CE50E94580BDF91CF911F910F91FF
:1018D000FF90EF90DF90CF90BF90AF90089588EF8A
:1018E00091E0E7EDF1E0DF019C011D9221503040D5
:1018F000E1F708955F926F927F928F929F92AF92DD
:10190000BF92CF92DF92EF92FF920F931F93CF93EC
:10191000DF93CDB7DEB7E0970FB6F894DEBF0FBE0A
:10192000CDBF5C018090D1039090D203E090CF03B3
:10193000F090D003FC0101900020E9F731978F016E
:10194000081B190B39F49401A70160E070E080E0F6
:1019500090E099C0009709F447C06C01FC018191A7
:10196000811144C017FD0FC19801AAE0B0E00E94A8
:10197000D03B6E5F7F4F8F4F9F4F23E030E040E0C2
:1019800050E00E947C3B211580E838074105510555
:101990000CF0F9C0C9010796BC01F3E07695679594
:1019A000FA95E1F7653D710508F0EDC081E090E042
:1019B0009AA789A759011CA70BA7AB0160E070E0AB
:1019C000C7010E94343C18AA1FA660E070E080E0C6
:1019D00090E01AE0D6012D916D012223E1F030ED67
:1019E000320F3A3008F49BC00E94073C80538A3083
:1019F00008F4B5CF3501F30161913F01662309F485
:101A0000ACC0062E000C770B8FE391E00E943B3CAC
:101A1000892B89F732C16115710569F09B01220F8D
:101A2000331F620F731F6F5F7F4F9E01215D3F4F1A
:101A3000A7010E94A72A8FA598A98A159B05A1F640
:101A4000EDA6FEA688E0FE01B996DE01599601904A
:101A50000D928A95E1F788E0FE017996DE01919674
:101A600001900D928A95E1F788E0FE01B196DE01C2
:101A7000519601900D928A95E1F79401A70161E0DA
:101A800070E0CE0141960E94562B882309F418C1BC
:101A90008091D1039091D2030E9410296C018C0196
:101AA00097FF02C00F5F1F4F159507951195019580
:101AB00011090E946F0CE12CF12C065D1F4FEC14F4
:101AC000FD040CF0FDC0A12CB12C8091D1039091AC
:101AD000D203009709F488CFDC012C9130E0A216E4
:101AE000B3064CF4E216F30634F4A701B5010E94E4
:101AF000DF28282F02C020E030E0422F4170B701DC
:101B0000C8018A0D9B1D0E94600ABFEFAB1ABB0A79
:101B1000AC14BD04D4F2EFEFEE1AFE0AD0CF189F3A
:101B2000A001199F500D1124CA01C097820F911D69
:101B300027FD9A956F5F7F4F6330710509F04ACF9B
:101B40009E01215D3F4FA7016AE070E00E94A72A35
:101B500060E070E080E090E03DCF17FD14C0980198
:101B6000ABE0B0E00E94D03BDC01CB010196A11DAF
:101B7000B11DB595A795979587958115F0E89F07B5
:101B8000A105B1051CF0F40110829AC0AC01495FB7
:101B90005F4F63E0569547956A95E1F7453D5105DE
:101BA00090F722E030E03A8B298B5C011C8B0B8B89
:101BB00060E070E0C7010E94343C188E1F8A612CDF
:101BC000712C00E010E04DE2542ED6016D916D01B4
:101BD000662349F1062E000C770B8FE391E00E94FB
:101BE0003B3C009709F400CF509E9001519E300D70
:101BF00011248F5391408C01020F131F6A946728A0
:101C000071F49E01295E3F4FA7016BE070E0C801AF
:101C10000E94A72A612C712C00E010E0D6CF662428
:101C20006394712CD2CF6A94672849F49E01295E8F
:101C30003F4FA70166E070E0C8010E94A72A8F8984
:101C4000988D8A159B0509F0CFCEED8AFE8A88E033
:101C5000FE017196DE01119601900D928A95E1F7D1
:101C600088E0FE013196DE01199601900D928A9569
:101C7000E1F788E0FE013996FACE053D110508F03E
:101C800082CFF701A00EB11ED6018D916D01819317
:101C9000AA15BB05C9F784E090E09A8B898BC8012F
:101CA000A0E0B0E023E0880F991FAA1FBB1F2A9570
:101CB000D1F7988F8F8B1C8B0B8BED8AFE8ADDCE34
:101CC000E0960FB6F894DEBF0FBECDBFDF91CF9187
:101CD0001F910F91FF90EF90DF90CF90BF90AF904A
:101CE0009F908F907F906F905F9008950C946F0CF1
:101CF0008F929F92AF92BF92EF92FF920F931F939A
:101D0000CF93DF93E091C004F091C104309799F133
:101D1000E090C204F090C304AEEBB4E0C0E0D0E0C9
:101D2000CE15DF0541F11C9614960D911C91159767
:101D3000012BF9F479018A014B015C018091BE0409
:101D40009091BF0409952CE02C9FF0012D9FF00D80
:101D50001124E254FB4F62877387848795878682BC
:101D60009782A086B186F786E686118B008BCE011E
:101D700004C02196D5CF8FEF9FEFDF91CF911F91B8
:101D80000F91FF90EF90BF90AF909F908F9008952C
:101D90000F931F93CF93DF938C0142E050E060E0FC
:101DA00070E00E945C34EC0197FF03C080E090E09B
:101DB0000AC040E050E060E070E0C8010E945C347E
:101DC000892BA1F7CE01DF91CF911F910F9108953B
:101DD0002F923F924F925F926F927F928F929F923B
:101DE000AF92BF92CF92DF92EF92FF920F931F9329
:101DF000CF93DF9300D000D01F92CDB7DEB74C0158
:101E00007D836C831A016901F90110820E94C80E5A
:101E10009B838A831982C114D10409F45AC0011525
:101E2000110509F456C0F6011082612C712CE12CC9
:101E3000F12CA12CB12C412C512C2A813B81621612
:101E4000730609F446C021E030E0AE014F5F5F4FFA
:101E5000B301C4010E94CA090197D9F58981A2146E
:101E6000B30419F52C813D8142165306F1F48C32EE
:101E700081F18A3071F1882361F1E016F10630F0CA
:101E80000C0D1D1DF8013197108223C0F601EE0DD7
:101E9000FF1D80833FEFE31AF30AE016F10680F797
:101EA000F601EE0DFF1D108210C08C3221F48FEF71
:101EB000A81AB80A0AC08A3031F49FEF491A590AA1
:101EC000A12CB12C02C0882321F0EFEF6E1A7E0AFC
:101ED000B4CF0F900F900F900F900F90DF91CF9194
:101EE0001F910F91FF90EF90DF90CF90BF90AF9038
:101EF0009F908F907F906F905F904F903F902F902A
:101F0000089520E031E040E050E060E070E0CB0177
:101F10000E94ED26862F0895EF92FF921F93CF9394
:101F2000DF93CDB7DEB760970FB6F894DEBF0FBE74
:101F3000CDBF7C01BE016F5F7F4F80E090E00E94CB
:101F40008536882309F45CC04AE050E06DE671E014
:101F5000CE0101960E940C3C892B09F457C08AE0FF
:101F6000EDE6F1E0DE01119601900D928A95E1F720
:101F700080E00E948327182F0E94810F81278D8780
:101F800081E00E948327182F0E94810F81278E876E
:101F900082E00E948327182F0E94810F81278F875C
:101FA00083E00E948327182F0E94810F8127888B4E
:101FB0000E949A272D853E85622773277E876D872D
:101FC0001C861B8640E150E0BE016F5F7F4F80E0C2
:101FD00090E00E94F709882399F0BE016F5F7F4F60
:101FE00080E090E00E948536882351F04AE050E07E
:101FF0006DE671E0CE0101960E940C3C892B31F018
:10200000F701108211821282138209C08D859E858C
:10201000AF85B889F70180839183A283B3836096EB
:102020000FB6F894DEBF0FBECDBFDF91CF911F91E9
:10203000FF90EF90089580FF12C081FD0AC06A30C2
:1020400010F480E311C06A3089F06B3089F083E4CA
:102050000BC082FD02C08BE407C08BE605C082FD89
:1020600002C081E401C081E6860F08958FE50895DE
:102070008DE208954F925F926F927F92AF92BF92DE
:10208000CF92DF92EF92FF920F931F93CF93DF9344
:10209000EC016A017B01022F4AE050E060E370E04E
:1020A0000E94343C1A861AE08AE0482E512C612C9A
:1020B000712CC114D104E104F10481F011505E01CE
:1020C000A10EB11CC701B601A30192010E94AE3B53
:1020D000605DF501608369017A01EBCF011124C0D5
:1020E00060E0FE01E60FF11D8081803311F46F5F27
:1020F000F8CF6A3009F469E070E04BE050E0461B2D
:10210000570B6C0F7D1FCE01DF91CF911F910F9167
:10211000FF90EF90DF90CF90BF90AF907F906F9047
:102120005F904F900C94223CDF91CF911F910F91C3
:10213000FF90EF90DF90CF90BF90AF907F906F9027
:102140005F904F900895CB01880F991F860F971FBE
:10215000BA01660F771F460F571FBA016E5F7F4F98
:1021600023E030E043E050E002960C941D36EF92FD
:10217000FF920F931F93CB01880F991F860F971F14
:10218000BA01660F771F460F571FBA016E5F7F4F68
:10219000E12CF12C8701E39423E030E043E050E0B0
:1021A00002960E945F351F910F91FF90EF90089566
:1021B000413011F40C94150A08958091000190911A
:1021C00001010E94A3368FEF9FEF9093010180934E
:1021D00000014091D7035091D80360E070E08091F6
:1021E000D9039091DA030C94343C611107C042305A
:1021F00009F06BC00E94DD100C94150A413009F003
:1022000073C0613069F0623009F008958091020175
:102210008F3F11F482E007C08D7FE1F783E003C0B8
:10222000809102018F5F80930201809102018430CE
:1022300010F010920201809102018130A9F028F083
:10224000823009F1833081F10895E091D903F09152
:10225000DA03309709F448C0848D958D019709F40D
:1022600043C08FEF9FEF1BC0E091D903F091DA03D9
:102270003097D1F1868D978D0197B1F1158E148E1F
:102280008FEF9FEF1FC0E091D903F091DA033097F1
:1022900059F1848D958D019639F181E090E0958F0B
:1022A000848F178E168E0895E091D903F091DA038A
:1022B0003097D1F0868D978D0196B1F0158E148EE2
:1022C00081E090E0978F868F0895413069F4809186
:1022D00002018F3F19F410920201A7CF8D7F813048
:1022E000D1F340930201A1CF08958F929F92AF92B4
:1022F000BF92CF92DF92EF92FF920F931F93CF93F3
:10230000DF93C091D903D091DA03209709F4CAC0B2
:1023100028A139A18C8D9D8D280F391F39A328A3A1
:102320004AA15BA18E8D9F8D840F951F9BA38AA3CD
:10233000488D598D37FF05C09A012150310939A3C5
:1023400028A328A139A12417350714F019A218A22F
:102350002A8D3B8D97FF04C0C90101979BA38AA3D7
:102360008AA19BA18217930714F01BA21AA2EA81EB
:10237000FB81309719F0888199810995CE010E94DF
:102380008B1F5C0108A119A1EAA0FBA08EA49FA449
:10239000C12CD12CCA14DB0409F469C0C114D104C6
:1023A00039F46E8D7F8D8C8D9D8D0E94A71F22C06C
:1023B000F401F695E795F695E795EC0FFD1F82A9D8
:1023C00090E0940123703327220F331F02C09595AC
:1023D00087952A95E2F78370992728A939A981144E
:1023E000910429F44901880C991C880C991C21E05E
:1023F000821A910802969C0123703327211531051A
:1024000049F40150110917FF29C0088D198D015099
:10241000110924C02130310559F481E0E81AF1088E
:10242000F7FE1CC0EA8CFB8C21E0E21AF10816C012
:102430002230310549F40F5F1F4F888D998D0817A1
:1024400019070CF044C00AC08FEFE81AF80A8A8D09
:102450009B8DE816F90614F0E12CF12CA701B801C8
:10246000CE010E940B192FEFC21AD20A93CFEC8C27
:10247000FD8CE114F10429F48E8D9F8D892B09F4D4
:1024800056C008A919A9000F111F000F111FCE0176
:102490000E948B1F019680179107E0F080E0813049
:1024A00009F468C08091000190910101019609F43E
:1024B000ACC0DF91CF911F910F91FF90EF90DF9013
:1024C000CF90BF90AF909F908F900C944B0A00E0FC
:1024D00010E0C4CF6E8D7F8DC7010E94A71F2EA56F
:1024E0003FA52F5F3F4F2017310710F020E030E06D
:1024F0003FA72EA7F901F695E795F695E795237086
:102500003327220F331FEC0FFD1F43E050E0022E54
:1025100001C0440F0A94EAF7409532A9432383701F
:10252000992701C0880F2A95EAF7842B82AB81E0B6
:10253000B6CF8CA59DA52EA53FA58217930709F4BC
:10254000B1CF019628A939A9220F331F220F331FBB
:1025500082179307C0F020E080E02CA78DA7EE81C2
:10256000FF81309739F040E050E060E070E08C810E
:102570009D810995CE010E948B1F2AA53BA5281796
:102580003907B8F203C0282F892FE7CF4CA15DA1EE
:1025900088A199A14817590739F44EA15FA18AA1D2
:1025A0009BA14817590729F0EE85FF85309781F4E4
:1025B00079CF2F5F3F4F3BA72AA788A599A5019602
:1025C00099A788A7CE010E94611F813069F36ACF65
:1025D0004EA15FA16CA17DA18C859D8509958AA5E1
:1025E0009BA5069708F05ECF68A579A561157105D2
:1025F00009F458CF19A618A6EE89FF89309709F477
:1026000051CF8C899D8909954DCFDF91CF911F9135
:102610000F91FF90EF90DF90CF90BF90AF909F9081
:102620008F9008959A012F5F3F4F032E000C440BAB
:10263000550B072E000C880B990B0E94ED26CB0141
:102640000895AF92BF92CF92DF92EF92FF920F93D5
:102650001F93CF93DF93CDB7DEB72B970FB6F894C8
:10266000DEBF0FBECDBF0E946F0C20E330E044E51B
:1026700050E060E070E080E090E00E941D36E09164
:10268000D903F091DA0320A531A5A4E6B0E00E94B9
:10269000D03BAB01BC0120E0CE0101965C010E9461
:1026A0003A10F50101900020E9F73197EA19FB098A
:1026B000EE0FFF1FEE0FFF1FC12CD12C760101E0A2
:1026C00010E020E030E0A50169E270E083E590E0F1
:1026D0008E1B9F0B0E94A5352B960FB6F894DEBF7C
:1026E0000FBECDBFDF91CF911F910F91FF90EF9063
:1026F000DF90CF90BF90AF9008950F931F93CF932B
:10270000DF938FEF80930201C091D703D091D8035C
:102710000091D9031091DA03C333D10580F0AE01E3
:1027200060E070E0C8010E94343CE297F801D1AB50
:10273000C0AB85E090E093A782A711A610A6E09118
:10274000D903F091DA03309741F18AE190E0918F5B
:10275000808F8EE090E0938F828F81E293E193836C
:10276000828384E295E09183808327EB30E1338795
:1027700022879187808723EA30E1378726879587EC
:10278000848782E193E1938B828B118A108A87E19F
:1027900098E1978B868B158A148A9F0145E751E152
:1027A00062E470E080E090E00E94780E9093010176
:1027B0008093000185EF90E19093810580938005DF
:1027C00010927F0510927E05E091D903F091DA0313
:1027D000309729F1158E148E178E168E808D918D5F
:1027E00097FD01969595879591A380A3828D938DF2
:1027F00097FD01969595879593A382A385E090E038
:1028000093A782A711A610A615A614A617A616A60A
:10281000CF01DF91CF911F910F910C94611FDF9138
:10282000CF911F910F9108950C947D132F923F9299
:102830004F925F926F927F928F929F92AF92BF92D0
:10284000CF92DF92EF92FF920F931F93CF93DF937C
:10285000CDB7DEB7C850D1400FB6F894DEBF0FBE7B
:10286000CDBFE82E8B01CE0101961C0188ECF10151
:1028700011928A95E9F789E499E40E9419376C016D
:1028800047EC50E0B1010E94DF33C6010E942130C5
:10289000F10101900020E9F731976F01C218D308C8
:1028A00087EC90E05C01AC18BD08C750DF4F188280
:1028B00019821A821B82C95FD0409801A4E6B0E059
:1028C0000E94D03B2B013C01CE0187509F4F0E94BC
:1028D0008C0F8E0107521F4FE0E1FE2EF8016F2D85
:1028E00011926A95E9F7C750DF4F88819981AA81D3
:1028F000BB81C95FD040F80180839183A283B383F9
:102900004482558266827782E0860E94810FF801B8
:1029100081870E94810FF80182870E94810FF80150
:102920008387BE0167517F4F8FEF90E00E9485360D
:10293000AE0147535F4FFA011192FA94E9F7C7517C
:10294000DF4F8881C95ED0408093D701C651DF4FE9
:102950008881CA5ED0408093D801C551DF4F8881FD
:10296000CB5ED0408093D901C451DF4F8881CC5ECB
:10297000D0408093DA01C351DF4F8881CD5ED040D3
:102980008093DB01C251DF4F8881CE5ED0408093BF
:10299000DC01C151DF4F8881CF5ED0408093DD01E3
:1029A000C051DF4F8881C05FD0408093DE01CF509F
:1029B000DF4F8881C15FD0408093DF01CE50DF4F71
:1029C0008881C25FD0408093E001CD50DF4F888185
:1029D000C35FD0408093E101CC50DF4F8881C45F5A
:1029E000D0408093E201CB50DF4F8881C55FD0405B
:1029F0008093E301CA50DF4F8881C65FD040809347
:102A0000E401C950DF4F8881C75FD0408093E50162
:102A1000C850DF4F8881C85FD0408093E601AAEE9E
:102A2000B1E024E030E0FD013797E0803196F0809E
:102A30003196908131968081B90163707727672B39
:102A4000E9F4EF2DF0E0EB58F04F6491E92FF0E05E
:102A5000EB58F04FF490E82FF0E0EB58F04F9491E2
:102A6000EE2DF0E0EB58F04F8491F901F695E795E3
:102A7000F695E795E053F14FE490E6264D01F3E03B
:102A80008F1A9108BD0163517109FB016081E6262F
:102A9000F401E0824D01F2E08F1A9108BD0162510C
:102AA0007109FB016081F626F401F0827D01F1E0FD
:102AB000EF1AF108BD0161517109FB016081962790
:102AC000F70190833F97E0818E278C932F5F3F4FD4
:102AD00014962C32310509F0A6CF80E1FA01A7E85F
:102AE000B2E001900D928A95E1F7A7E8B2E0C350F9
:102AF000DF4F19830883CD5FD040F80190E1900F3C
:102B00008D912081822781939E13FACF47ED51E06A
:102B1000B80180E00E940428FF24F39489ED90E03E
:102B20008C0F9D1F0196C150DF4F99838883CF5F23
:102B3000D040E9EDF0E0EC0FFD1F3296CF5FDE4FA5
:102B4000F983E883C150D14089ED90E08C0F9D1F3F
:102B50000396CD5FDE4F99838883C350D140E9ED62
:102B6000F0E0EC0FFD1F7096CB5FDE4FF983E8833A
:102B7000C550D1409BE1E92ECE0187529F4F0E9464
:102B8000F027C652DF4F8881CA5DD040C252DF4F66
:102B90009881CE5DD040C652DF4F9883CA5DD04049
:102BA000CE51DF4F9881C25ED040C252DF4F988332
:102BB000CE5DD040CA51DF4F9881C65ED040CE5125
:102BC000DF4F9883C25ED040CA51DF4F8883C65E14
:102BD000D040C552DF4F8881CB5DD040CD51DF4F13
:102BE0009881C35ED040C552DF4F9883CB5DD04003
:102BF000CD51DF4F8883C35ED040C152DF4F888103
:102C0000CF5DD040C951DF4F9881C75ED040C152DF
:102C1000DF4F9883CF5DD040C951DF4F8883C75EB7
:102C2000D040C452DF4F8881CC5DD040C851DF4FC7
:102C30009881C85ED040C452DF4F9883CC5DD040AD
:102C4000CC51DF4F9881C45ED040C851DF4F98838C
:102C5000C85ED040C052DF4F9881C05ED040CC519A
:102C6000DF4F9883C45ED040C052DF4F8883C05E80
:102C7000D040C150DF4F48815981CF5FD040CF5FF6
:102C8000DE4FA881B981C150D140CD5FDE4F888130
:102C90009981C350D140C95FDE4F99838883C75063
:102CA000D1409801F9018081FA0190809826C95F8E
:102CB000DE4FE881F981C750D14060819C91962711
:102CC0009925892E8826792D771F7727771F7E9D56
:102CD000602D1124990C96268924F9018082FA012D
:102CE00080809C9098248926792D771F7727771FDD
:102CF0007E9D602D1124990C9626892480828C90CB
:102D0000C95FDE4FE881F981C750D1409080982497
:102D10008926792D771F7727771F7E9D602D1124B7
:102D2000990C962689248C92608186279627782F85
:102D3000771F7727771F7E9D602D1124880F8627A8
:102D4000982790832C5F3F4F4C5F5F4F14963496CB
:102D5000C95FDE4FF983E883C750D140CB5FDE4FB8
:102D600088819981C550D1402817390709F09ACF39
:102D700047ED51E0BE0167527F4F8F2D0E9404281E
:102D8000F3949AE0F912F8CECE0187529F4F0E9439
:102D9000F027C652DF4F8881CA5DD040C252DF4F54
:102DA0009881CE5DD040C652DF4F9883CA5DD04037
:102DB000CE51DF4F9881C25ED040C252DF4F988320
:102DC000CE5DD040CA51DF4F9881C65ED040CE5113
:102DD000DF4F9883C25ED040CA51DF4F8883C65E02
:102DE000D040C552DF4F8881CB5DD040CD51DF4F01
:102DF0009881C35ED040C552DF4F9883CB5DD040F1
:102E0000CD51DF4F8883C35ED040C152DF4F8881F0
:102E1000CF5DD040C951DF4F9881C75ED040C152CD
:102E2000DF4F9883CF5DD040C951DF4F8883C75EA5
:102E3000D040C452DF4F8881CC5DD040C851DF4FB5
:102E40009881C85ED040C452DF4F9883CC5DD0409B
:102E5000CC51DF4F9881C45ED040C851DF4F98837A
:102E6000C85ED040C052DF4F9881C05ED040CC5188
:102E7000DF4F9883C45ED040C052DF4F8883C05E6E
:102E8000D04047ED51E0BE0167527F4F8AE00E947B
:102E9000042880E1FE01E752FF4FA7E8B2E001906D
:102EA0000D928A95E1F7A114B10409F457C071019C
:102EB000EC0CFD1CEDE2AE16B10408F44DC010E0C0
:102EC000C12CD12CC350DF4F88809980CD5FD0407A
:102ED000F4010191C350DF4FF983E883CD5FD04007
:102EE00002950F70602F812F0E941B105701AC0CB0
:102EF000BD1CF5018083F40110811F70612F802FAC
:102F00000E941B10F5018183F2E0CF0ED11C60E21C
:102F1000C616D104B9F6670180E2C80ED11C57016C
:102F20009BE2A90EB11C20E130E040E050E060E0FF
:102F300070E0CB010E94ED26062F812F0E941B100E
:102F4000F60181936F01102FEA15FB0561F78DE300
:102F5000F70183A714A602C0F7011082C1010E94E5
:102F60007A0C0E944B0A88ED90E190938105809342
:102F7000800510927F0510927E0588ECF101119278
:102F80008A95E9F783E19FE10E9419378C0147ECAC
:102F900050E0B1010E94DF33C8010E942130C12CF2
:102FA000D12C760101E010E020E030E0A1016AE2DE
:102FB00070E080E090E00E94A53520E0B301A2011E
:102FC000C1010E943A10F10101900020E9F7319708
:102FD000E219F309EE0FFF1FEE0FFF1F01E010E0F3
:102FE00020E030E0A1016AE270E084E590E08E1B11
:102FF0009F0B0E94A5350E944B0AC85FDE4F0FB69B
:10300000F894DEBF0FBECDBFDF91CF911F910F911E
:10301000FF90EF90DF90CF90BF90AF909F908F90F8
:103020007F906F905F904F903F902F900895CF9337
:10303000DF93EB010E94DD1060E070E084E194E139
:103040000E942F0ABE0185E5DF91CF910C941614E2
:10305000DC019696ED91FC9197974E9F90014F9FC2
:10306000300D5E9F300D1124620F731F9B0143E0F2
:10307000359527954A95E1F79A964D915C919B97E6
:103080002417350770F4FC01E20FF31F84A590E0CC
:103090006770772702C0959587956A95E2F78170EA
:1030A000089580E00895CF93782F4115510561F47C
:1030B000813009F04BC0623009F048C081E0223015
:1030C000310509F043C043C02430310561F481303B
:1030D00009F03CC0613009F039C081E0423051054F
:1030E00009F034C034C0862F90E064E0769F800DF4
:1030F000911D1124880F991F880F991F8051914F9E
:10310000FC01C49131967491319664913196E491A9
:103110008E2F90E0A0E0B0E0B82FAA27992788274B
:10312000972B8C2BA62B220F331F220F331F4150BE
:103130005109420F531F440F551F04C0B695A79560
:10314000979587954A95D2F7837001C080E0CF911B
:1031500008952F923F924F925F926F927F928F923B
:103160009F92AF92BF92CF92DF92EF92FF920F9316
:103170001F93CF93DF93E114F104D1F12701122FB4
:103180001B013C017A01812C912CC22DD32DA12C45
:10319000B12CD7FD1BC0F30186A197A18C179D0709
:1031A000ACF0F7FC13C080A591A58E159F0574F0B7
:1031B0009401A501602F812F0E945318882331F0BC
:1031C000212FA701BE01C601F2010995FFEFAF1A39
:1031D000BF0A219685E0A816B104D9F6EFEF8E1A42
:1031E0009E0AFFEFEF1AFF0A85E08816910469F640
:1031F000DF91CF911F910F91FF90EF90DF90CF90D3
:10320000BF90AF909F908F907F906F905F904F9006
:103210003F902F900895EF92FF920F931F93CF93BB
:10322000DF930097C1F08A017B01EC01EA85FB8501
:10323000309719F088859985099588A199A1E81694
:10324000F90649F48AA19BA10817190721F485E022
:1032500090E09BA78AA7DF91CF911F910F91FF90DC
:10326000EF9008950F9301E09C0149E559E166E173
:1032700078E98AEE9EE00E949C370F9108950F93A3
:1032800001E09C0149E759E162E275EC84EE9EE0C1
:103290000E949C370F9108950F9300E09C0144EE2B
:1032A0005FE161E378ED8AE091E10E949C370F9144
:1032B00008956130710549F020F06230710579F0B0
:1032C00008950E94B4210C94150A0E94B42161E073
:1032D00070E082E399E10E942F0A0C947D130E9412
:1032E000B42162E070E082E399E10E942F0A0C941D
:1032F0003E33AF92BF92CF92DF92EF92FF920F9345
:103300001F93CF93DF93CDB7DEB7C85CD1090FB65B
:10331000F894DEBF0FBECDBF6B01CE0101967C01DC
:1033200088ECF70111928A95E9F7672B29F40E943E
:10333000B4210E94150A28C082E295EC0E94193738
:103340005C01B6016150710908EC10E0970141E0A1
:1033500050E00E94E80EC5010E9421300E94B42175
:10336000B6018FE399E10E942F0AC7010E947A0CEF
:103370000E944B0A88ED90E190938105809380052F
:1033800010927F0510927E05C853DF4F0FB6F89458
:10339000DEBF0FBECDBFDF91CF911F910F91FF9088
:1033A000EF90DF90CF90BF90AF900895CF93DF93D1
:1033B000CDB7DEB72B970FB6F894DEBF0FBECDBFEB
:1033C0002BE0E1E1F1E0DE01119601900D922A95EA
:1033D000E1F7892B59F46A30710544F4E1E0F0E03B
:1033E000EC0FFD1FE60FF71F808101C08FEF2B96BA
:1033F0000FB6F894DEBF0FBECDBFDF91CF91089519
:103400000F931F93CF93DF9300D000D000D0CDB7A0
:10341000DEB7DC011E821D821C821B828AE6898344
:103420001A8255961C921E92549759961C921E927F
:10343000589756968D919C915797892B69F1509684
:103440008D919C915197892B39F152968D919C9138
:103450005397892B09F11696ED91FC9117973097A8
:10346000D9F08D019E012D5F3F4FAE014B5F5F4F45
:10347000BE016F5F7F4F14968D919C9115970995B2
:10348000D80152968D919C9153976B817C810E94BB
:10349000DF3BF801718F608F26960FB6F894DEBF80
:1034A0000FBECDBFDF91CF911F910F9108953F9235
:1034B0004F925F926F927F928F929F92AF92BF9244
:1034C000CF92DF92EF92FF920F931F93CF93DF93F0
:1034D00000D000D01F92CDB7DEB7E0E2ED831C82B2
:1034E0001B821A8219822115310519F48FEF9FEF83
:1034F00093C029017A015B016C01A90160E070E0D1
:10350000C7010E94343C370100E010E081E0481A16
:10351000510880E2382E0415150508F04AC0D6017E
:103520001296ED91FC91139721E030E0AE014B5FD4
:103530005F4FB8016A0D7B1D8D919C910995019794
:10354000A9F68D81811101C03D828D81893009F4F8
:103550003D828D81F30181933F014801FFEF8F1A76
:103560009F0A8A3029F1D60150962D913C915197AE
:10357000C4018A0D9B1D82179307D0F41696ED9116
:10358000FC9117979E012F5F3F4FAE014D5F5F4F3C
:10359000B70114968D919C91159709952B813C81CB
:1035A000F601848595858217930718F08401B3CFBF
:1035B0008401F701E00FF11F10820115110551F18F
:1035C000D8011197AE0DBF1D8C918A3011F41C9259
:1035D0001FC08032C9F080E090E02291203229F0B3
:1035E000019680179107C9F70FC08017910760F403
:1035F000A00EB11ED60150962D913C915197A21666
:10360000B30610F4081B190BF701E00FF11F10822D
:10361000C80102C080E090E00F900F900F900F90D3
:103620000F90DF91CF911F910F91FF90EF90DF905E
:10363000CF90BF90AF909F908F907F906F905F9052
:103640004F903F900895CF92DF92EF92FF920F93A9
:103650001F93CF93DF9300D000D000D0CDB7DEB75B
:10366000DC011E821D821C821B828AE689831A82EB
:1036700053961C921E92529755961C921E925497E6
:1036800057961C921E92569750968D919C915197E9
:10369000892B09F466C01C968D919C911D97892BEE
:1036A00009F45FC01E968D919C911F97892B09F498
:1036B00058C012968D919C911397892B09F451C093
:1036C0001696ED91FC911797309709F44AC08D0139
:1036D0009E012D5F3F4FAE014B5F5F4FBE016F5F9D
:1036E0007F4F14968D919C9115970995D8011E9640
:1036F0008D919C911F976B817C810E94DF3BF8012B
:10370000778B668B672B69F1E12CF12C6801FAE16C
:10371000CF0ED11CF80180899189E816F906F8F4DA
:10372000D80158962D913C9159972F5F3F4FA60194
:10373000B701C8010E94571A97FF04C0F801158A03
:10374000148A0FC0E80EF91ED80154968D919C91F1
:103750005597019655969C938E935497DBCF138A79
:10376000128A26960FB6F894DEBF0FBECDBFDF914A
:10377000CF911F910F91FF90EF90DF90CF90089520
:10378000EF92FF920F931F93CF93DF938B016115FD
:103790007105B1F40E94B42180910301909104015C
:1037A0000E9421308FEF9FEF9093040180930301DB
:1037B000DF91CF911F910F91FF90EF900C94150A1C
:1037C0007B0181E0E81AF1080E94B421B80185E488
:1037D00090E20E942F0AC0910301D09104010E943F
:1037E000C123B701CE010E94CF369093A5018093EB
:1037F000A401B701CE010E94CF367C01B801CE01F1
:103800000E94CF36F7FC07C08E159F0524F09C015F
:103810002E193F0902C020E030E03093A30120932D
:10382000A201E091D501F091D601309759F0318B8A
:10383000208B8AE990E393838283D183C083CF0175
:103840000E94231B0E942024DF91CF911F910F9192
:10385000FF90EF900C944B0ACF92DF92EF92FF9281
:103860000F931F93CF93DF93EC01EA81FB81309795
:1038700019F0888199810995C884D984EA84FB84E8
:103880000DA12CA140E050E060E070E0CE010E946C
:10389000A9188E859F85892BB1F4CC80DD80EE80C0
:1038A000FF804C8D5D8D6A8D7B8D0F8D2E8DCE01B1
:1038B0000E94A918DF91CF911F910F91FF90EF9077
:1038C000DF90CF90089500E010E08EA19FA108172F
:1038D00019071CF7E12CF12C88A599A5E816F90623
:1038E0005CF4A701B801CE010E942818811107C01D
:1038F0008FEFE81AF80AF0CF0F5F1F4FE6CFEE8583
:10390000FF85A701B8018C859D850995F1CFCF93DF
:10391000DF93EC01ECA1EE8F8DA18F8F2EA13FA143
:1039200037FF02C02F5F3F4F35952795F0E0E05AF3
:10393000F04F449190E0880F991F50E0082E02C08C
:10394000559547950A94E2F740FF03C04DEF5FEFAE
:1039500002C04EEF5FEF240F351F3B8F2A8FE4919B
:10396000F0E0816002C0F595E7958A95E2F7E0FF07
:1039700003C08DEF9FEF02C08EEF9FEF9D8F8C8F66
:1039800066E070E0CE010E948A378CA363E070E0AD
:10399000CE010E948A378DA3DF91CF910895CF93F6
:1039A000DF93009709F461C0EC01198E188E66E070
:1039B00070E00E948A378E8F63E070E0CE010E9433
:1039C0008A378F8F2EA13FA137FF02C02F5F3F4F55
:1039D000A90155954795EE8DF0E0E05AF04F2491FE
:1039E0009927880F991F30E0082E02C0359527953A
:1039F0000A94E2F720FF03C02DEF3FEF02C02EEF45
:103A00003FEF240F351F3B8F2A8FE491F0E0816058
:103A100002C0F595E7958A95E2F7E0FF03C08DEFC8
:103A20009FEF02C08EEF9FEF9D8F8C8F66E070E05E
:103A3000CE010E948A378CA363E070E0CE010E9421
:103A40008A378DA38EA19FA1059699A388A385E0AF
:103A500090E09BA38AA34AA55BA560E070E0CE013D
:103A60008C960E94343C81E001C080E0DF91CF91D0
:103A700008952F923F924F925F926F927F928F9212
:103A80009F92AF92BF92CF92DF92EF92FF920F93ED
:103A90001F93CF93DF9300D000D0CDB7DEB75C018A
:103AA0004B016A01122F7B011B0124E0220E311C05
:103AB000CA0104969A8389833701681879082E14FD
:103AC0003F040CF445C0DC82CB824B805C804C18F8
:103AD0005D0829813A818B819C8128173907A4F1DF
:103AE000F7FC12C0F50186A197A1E816F90664F467
:103AF00080A591A52B813C81281739072CF48B8157
:103B00009C8197FF0BC01AC09201A301602F812FE7
:103B10000E945318882399F380E01BC09201A301EF
:103B2000602F812F0E945318882341F04B815C81C4
:103B3000B701C5010E9428188111EECFEB81FC81ED
:103B40003196FC83EB83C1CF9FEFE91AF90AB4CF1A
:103B500081E00F900F900F900F90DF91CF911F9108
:103B60000F91FF90EF90DF90CF90BF90AF909F901C
:103B70008F907F906F905F904F903F902F9008951F
:103B80002F923F924F925F926F927F928F929F926D
:103B9000AF92BF92CF92DF92EF92FF920F931F935B
:103BA000CF93DF9300D000D000D0CDB7DEB79E8397
:103BB0008D83DC0198960D90BC91A02DBA83A983CA
:103BC000C12CD12CE12CF12C44244394512C69813B
:103BD0007A81C616D7060CF076C0AD81BE81969666
:103BE000AD90BC90979700E010E00A151B0564F4B7
:103BF000A601B8018D819E810E942818813009F0AC
:103C00005EC00F5F1F4FF1CF0A151B0509F057C0AB
:103C10000C9D10010D9D300C1C9D300C1124C60113
:103C2000612C712C181619060CF046C09301220D58
:103C3000331D812C912CFC0131975F018016910678
:103C4000BCF5A501B4018D819E812B833C830E942C
:103C500028182B813C81A401420F531FFA0193E0E5
:103C6000F595E7959A95E1F7AD81BE819A966D91AC
:103C70007C919B97E617F707B8F4EA0FFB1F477094
:103C80005527811109C0C20101C0880F4A95EAF782
:103C9000809594A5892307C0C20101C0880F4A9569
:103CA000EAF794A5892B84A7BFEF8B1A9B0AC6CF8E
:103CB000C501601A710AB6CFFFEFEF1AFF0A4FEF86
:103CC000C41AD40A84CFB2E0EB16F104D1F058F450
:103CD000EA94EF2851F5AD81BE8158968D919C9163
:103CE000599701961BC043E0E416F10481F054E0BB
:103CF000E516F104D1F4ED81FE81808D918D409621
:103D000012C0ED81FE81808D918D04960CC0AD8135
:103D1000BE8158968D919C915997089659969C937F
:103D20008E93589702C0918F808F26960FB6F89485
:103D3000DEBF0FBECDBFDF91CF911F910F91FF90DE
:103D4000EF90DF90CF90BF90AF909F908F907F903B
:103D50006F905F904F903F902F900895FC0166A167
:103D600077A120E030E026173707BCF4F90143E0E3
:103D7000F595E7954A95E1F7E80FF91F44A550E05E
:103D8000F901E770FF2702C055954795EA95E2F7DC
:103D900040FD05C02F5F3F4FE6CF80E0089581E0F2
:103DA00008952F923F924F925F926F927F928F92DF
:103DB0009F92AF92BF92CF92DF92EF92FF920F93BA
:103DC0001F93CF93DF9300D000D0CDB7DEB76C0147
:103DD0005B017A01922F702F2501150124E0220E3C
:103DE000311C4A0134E0830E911C66246394712CCB
:103DF00082010A191B09241435040CF44BC0FC82FF
:103E0000EB822B813C812E193F09EB81FC818E16C0
:103E10009F06E4F1A801672F892F7A8399830E9476
:103E200053187A819981882359F1D60196964D913C
:103E30005C919797EB81FC81E49F9001E59F300DA9
:103E4000F49F300D1124240D351DF90183E0F59503
:103E5000E7958A95E1F79A964D915C919B97E417C7
:103E6000F50770F4EC0DFD1D27703327A30102C088
:103E7000440F551F2A95E2F79A0184A5282B24A701
:103E8000AB81BC811196BC83AB83BBCFFFEF4F1AD4
:103E90005F0AAECF0F900F900F900F90DF91CF91F0
:103EA0001F910F91FF90EF90DF90CF90BF90AF9058
:103EB0009F908F907F906F905F904F903F902F904A
:103EC0000895CF93DF93009711F1DC015296ED91A5
:103ED000FC9153973097D9F0EC01488D598D4150A2
:103EE000510960E070E08889998909959DA38CA3A8
:103EF0004A8D5B8D41505109EA89FB8960E070E091
:103F00008889998909959FA38EA381E001C080E0EB
:103F1000DF91CF910895FC0180A991A93097A1F07C
:103F200026A537A544A555A52417350720F0C901B6
:103F3000841B950B0895880F991F880F991F841B68
:103F4000950B820F931F089580E090E0089597FDF0
:103F500012C0892B19F477FF06C00AC0672B59F4E9
:103F600082E090E00895672B31F083E090E00895BF
:103F700081E090E0089580E090E008950F93CF9362
:103F8000DF93EB01209103013091040137FF0CC056
:103F9000009751F09093A7018093A6010E941937D2
:103FA00090930401809303016091A6017091A70191
:103FB00001E09E0140EC5BE18BED9EE00E949C37AE
:103FC000DF91CF910F9108950F9362307105C9F180
:103FD000A0F46115710551F16130710509F053C00C
:103FE0000E94B42161E070E08CE499E10E942F0A04
:103FF00060E070E08DEA90E030C06330710581F1DF
:104000006430710509F03FC00E94B42164E070E0A3
:104010008CE499E10E942F0A01E020E030E049E5BC
:1040200059E166E178E98AEE9EE02BC00E94B42156
:1040300060E070E08CE499E10E942F0A0F910C94EB
:104040009A230E94B42162E070E08CE499E10E941E
:104050002F0A60E070E088EB95EE0F910C94BE1F84
:104060000E94B42163E070E08CE499E10E942F0A81
:1040700001E020E030E049E759E162E275EC84EECE
:104080009EE00E949C370F910895BC0180E090E073
:104090000C94BE1F7F928F929F92AF92BF92CF924D
:1040A000DF92EF92FF920F931F93CF93DF935B0109
:1040B000EA014901702ECC24C3940C1511F0C12CD7
:1040C0000FC0E12CF12C8701E39429E030E048E3B4
:1040D00050E0BE01675F7F4FC5010E960E945F35BD
:1040E000D12CE12CF12C01E010E020E030E081E067
:1040F000781203C000E010E09801BE01655F7F4FB9
:10410000A401C50140960E94A535DF91CF911F9172
:104110000F91FF90EF90DF90CF90BF90AF909F9066
:104120008F907F9008950F931F93DC01FA01A7FFF2
:104130000BC06115710529F48EE2808381831282A0
:1041400009C0615071098F7789019F0140E050E0FB
:104150000E94E80E1F910F9108954115510579F0C5
:10416000FB0101900020E9F73197E61BF70BEE0FFA
:10417000FF1FEE0FFF1F3496DA01ED93FC9321151C
:10418000310529F089E090E0F90191838083089559
:104190002F923F924F925F926F927F928F929F9257
:1041A000AF92BF92CF92DF92EF92FF920F931F9345
:1041B000CF93DF9300D000D01F92CDB7DEB7198226
:1041C0001A821B821C820E946F0C4091DB0350916B
:1041D000DC034E5F5F4FC12CD12C760101E010E073
:1041E00020E030E061E070E082E190E00E94A535DF
:1041F00052E0452E512C912C80E3890D8D8389E06E
:10420000682E712C812CE091DB03F091DC0391107E
:104210000EC08CE389839DE29A839B83808149E071
:10422000242E312CA12CB12C882371F127C084E0DD
:10423000981210C095E499838EE48A8394E59B8359
:10424000808129E0222E312C35E4A32EB12C84303C
:10425000A9F41AC080E289839D819A3339F0892FAD
:104260009B3331F09C3329F483E203C08AE201C01E
:1042700080E38A8380E28B8313015201808198124C
:1042800012C0818188120FC0E12CF12C8701E394C8
:1042900029E030E04FE050E0B101C5010E945F35F8
:1042A00011E000E00AC029E030E04FE050E0B10149
:1042B000C5010E941D3610E001E01C8240E0B10102
:1042C000C5010E94600A75019EE0E90EF11C40E004
:1042D000B101C7010E94600A610188E0C80ED11CCB
:1042E00040E0B601C5010E94600A40E0B601C70186
:1042F0000E94600AC12ED12CE12CF12C10E020E0AC
:1043000030E0B1016E5F7F4FAE014F5F5F4FC5017F
:1043100002960E94A53583949D819D5F9D83C30174
:104320000A963C0194E089126ECF939480E1480E86
:10433000511C95E0991260CF0F900F900F900F9045
:104340000F90DF91CF911F910F91FF90EF90DF9031
:10435000CF90BF90AF909F908F907F906F905F9025
:104360004F903F902F9008958091090190910A01FC
:104370000E94A3368FEF9FEF90930A01809309016B
:1043800080910B0190910C0197FF0E9421308FEFDB
:104390009FEF90930C0180930B01409190055091F9
:1043A000910560E070E080918E0590918F050C94EE
:1043B000343C4F925F926F927F928F929F92AF9216
:1043C000BF92CF92DF92EF92FF920F931F93CF9302
:1043D000DF93CDB7DEB72E970FB6F894DEBF0FBED2
:1043E000CDBF1E861D861C861B860E946F0CE12C8D
:1043F000F12C8701E39425E030E043E550E065E0EF
:1044000070E080E090E00E94A6349E01235F3F4F61
:10441000AE01455F5F4F62E875E080E090E00E948A
:10442000AD204B855C8584E590E0841B950B9695CB
:1044300087959E878D87E12CF12C870129E030E05C
:1044400060E070E00E945F358D859E85C12CD12C87
:10445000760101E010E020E030E042E855E062E063
:1044600070E002960E94A53580E00E94DC0B81E09E
:104470000E94DC0BE0908E05F0908F051A8619865D
:1044800018861F828AE68D831E82E114F10441F4AE
:10449000E0918E05F0918F05309709F0B8C0E7C024
:1044A000D70112968D919C911397892B89F31696BB
:1044B000ED91FC911797309759F31A968D919C9135
:1044C0001B97892B29F39E01295F3F4FAE01475F60
:1044D0005F4FBE016B5F7F4F14968D919C91159736
:1044E0000995F70184899589608D718D0E94DF3B64
:1044F0003B014C01A12CB12C6701FCE1CF0ED11C7A
:10450000F701808D918DA816B90610F6689E80017E
:10451000699E100D789E100D11240A0D1B1DD701E8
:1045200056968D919C9157970817190708F0B0CFB0
:104530001C821B821A8219825A964D905C905B975E
:10454000A20160E070E0C6010E94343C920121505B
:104550003109D7011296ED91FC911397A601B8018C
:104560008D919C910995D7015A96ED91FC915B979D
:10457000EE0DFF1D138E1696ED91FC9117979E017F
:104580002D5F3F4FAE014F5F5F4FB60114968D9187
:104590009C911597099529813A81F7018089918924
:1045A0008217930768F4F60101900020E9F731972C
:1045B000EC19FD0929F0EE0DFF1D138ED701DBCF9D
:1045C000D7011A96ED91FC911B972F81388518968B
:1045D0008D919C9119978A149B0449F4829EA001A5
:1045E000839E500D929E500D112401E008C0A29EA2
:1045F000A001A39E500DB29E500D112400E0960123
:1046000060E070E00995BFEFAB1ABB0A79CF24894F
:104610003589A688B788808D918D8A159B0538F5D8
:1046200047E2429FC001439F900D1124B5010E94B3
:10463000DF3B6B01E12CF12C8701E39420E330E0B8
:1046400048E450E069E070E088E490E00E94A6341D
:1046500087E290E0B5010E94DF3B9B01B601675FF6
:104660007F4F43E050E087E490E00E945F350E9476
:104670004B0A2E960FB6F894DEBF0FBECDBFDF916A
:10468000CF911F910F91FF90EF90DF90CF90BF904F
:10469000AF909F908F907F906F905F904F90089514
:1046A0000C94D921611108C04230A9F587FF41C09F
:1046B0000E94B4210C94150A4130D9F56130B1F053
:1046C000623009F00895E0918E05F0918F053097E2
:1046D00011F40C94D921848995890196268937890A
:1046E00082179307B0F7958B848BF3CFA0918E053B
:1046F000B0918F051097E9F01E96ED91FC911F97F0
:104700003097B9F054966D917C9155971C968D9188
:104710009C911D970994413061F4E0918E05F091D0
:104720008F053097B1F284899589009791F20197AE
:10473000DACF0895E091DB03F091DC0383E2DF013F
:104740001D928A95E9F787EE94E290938105809314
:10475000800510927F0510927E050E94C8200C945F
:104760004B0A809105019091060197FD08C00E94B7
:1047700021308FEF9FEF90930601809305010C94F9
:104780009A230F931F93CF93DF931092A901109256
:10479000A8011092AB011092AA01C091D301D0914F
:1047A000D4010091D5011091D601CB31D10550F043
:1047B000AE0160E070E0C8010E94343C6B97F801E4
:1047C000D18FC08F8091D5019091D601009759F07B
:1047D00022E530E0FC013587248720E330E037878D
:1047E00026870E94231B8091D5019091D6010097C6
:1047F00049F028E630E3FC013783268315821482D2
:104800000E94231B8091D5019091D601009749F019
:104810002FE430E3FC0133872287118610860E9443
:10482000231B82E196E2909381058093800510928C
:104830007F0510927E05DF91CF911F910F91089512
:104840008F929F92AF92BF92CF92DF92EF92FF92A0
:104850000F931F93CF93DF9300D000D000D0CDB73C
:10486000DEB70E946F0C0091D5011091D6011E8217
:104870001D821C821B828AE689831A82011511051A
:1048800041F4E091D501F091D601309709F066C06E
:104890008BC0D8011A968D919C911B97892B89F317
:1048A0001696ED91FC911797309759F312968D91CA
:1048B0009C911397892B29F39E012D5F3F4FAE01E9
:1048C0004B5F5F4FBE016F5F7F4F14968D919C9140
:1048D00015970995A12CB12CE12CF12CC12CD12CD0
:1048E0004801BAE18B0E911CF80180899189E81684
:1048F000F90638F6F801208D318D2F5F3F4FA40166
:10490000B701C8010E94571A97FDBBCFE80EF91EE8
:10491000D80152962D913C915397C216D306D0F0F0
:1049200056968D919C915797820F931FC816D90662
:1049300088F41A96ED91FC911B979401A50160E013
:1049400070E018968D919C91199709958B819C81A7
:10495000A80EB91EBFEFCB1ADB0AC6CFE288F388D8
:10496000048915894689578940175107E8F430E3CF
:10497000349FC001359F900D1124B8010E94DF3B88
:10498000FB013E9DC0013F9D900D1124B8010E9486
:10499000DF3BE12CF12C8701E3949F0142E050E0E2
:1049A00082E590E00E945F3526960FB6F894DEBF50
:1049B0000FBECDBFDF91CF911F910F91FF90EF9070
:1049C000DF90CF90BF90AF909F908F900895EF921F
:1049D000FF920F931F93CF93DF9300D000D0CDB7FA
:1049E000DEB7611106C0423009F001C10E94150A0C
:1049F0000EC1413009F00BC1613079F0623009F02D
:104A000006C1E091DB03F091DC0380818F5F85308C
:104A100010F48083D3C01082D1C0A091DB03B09189
:104A2000DC0311962C9111979C919923F9F2943003
:104A300099F0905D822F880F280F920F9A3309F416
:104A4000E4C09B3309F4BFC09C3309F4CEC0992362
:104A500069F2913009F0B8C07D0182E0E80EF11CE6
:104A600044E150E06DE67FE0CD010F960E945D3B92
:104A70000091DB031091DC03015F1F4FB801C701F8
:104A80000E94463C892B59F586E598E60E94193725
:104A90008C01909306018093050160E070E081EB4A
:104AA00093E20E942F0A0E94C12342E050E060E09E
:104AB00070E0C8010E945C3497FD98CFE091D50169
:104AC000F091D601309709F491CF918B808B82E8D9
:104AD00090E39383828311830083CF0163C044E119
:104AE00050E067E67FE0C8010E945D3B0091DB0378
:104AF0001091DC03B801615F7F4FC7010E94463C03
:104B0000892B09F054C019821A821B821C82CE01A3
:104B100001960E948C0F0CEA11E083E38093AC01B4
:104B200095E39093AD018093AE0194E39093AF0130
:104B30008093B0019093B10149815A816B817C814E
:104B400021E082EB91E00E943A101092BC0160E0FB
:104B500070E081EB93E20E942F0A0E94C123109320
:104B6000AB010093AA01F80101900020E9F7319709
:104B7000EC5AF140F093A901E093A801A091D5016E
:104B8000B091D601109781F05196FC93EE93509717
:104B900082E091E313969C938E93129711961C9248
:104BA0001E92CD010E94231B0E94202409C0F801FF
:104BB00032968DE0DF011D928A95E9F70E94C820A8
:104BC0000E944B0A24C090E39D012E5F3F4FF901E4
:104BD00001900020E9F73197E21BF30BEC30F1056F
:104BE00068F7EA0FFB1F9283E9CF93E2EDCF4130E4
:104BF00071F4E091DB03F091DC0381818F5F8430FD
:104C000010F48183DBCF1182D9CF9AE2DDCF0F90F0
:104C10000F900F900F90DF91CF911F910F91FF9008
:104C2000EF900895611103C0423069F507C041302B
:104C3000C1F5613019F0623019F008950C94150A2D
:104C4000E091D501F091D601309721F40E94202403
:104C50000C944B0A2289338946895789848995891E
:104C60008417950718F4138A128AF0CF2F5F3F4FED
:104C7000841B950B2817390718F0938B828BE6CF8E
:104C8000338B228BE3CF413061F4E091D501F09179
:104C9000D6013097D9F2828993890097B9F20197AA
:104CA000ECCF0895CF93DF9390E0FC01E356FF4EE5
:104CB0002491FC01E757FF4E8491882361F190E035
:104CC000880F991FFC01EB58FF4EC591D491FC0150
:104CD000E158FF4EA591B491611109C09FB7F894B6
:104CE0008881209582238883EC912E230BC062302B
:104CF00061F49FB7F8943881822F8095832388834D
:104D0000EC912E2B2C939FBF06C08FB7F894E881AF
:104D10002E2B28838FBFDF91CF9108953FB7F89452
:104D20008091E4039091E503A091E603B091E7033D
:104D300026B5A89B05C02F3F19F00196A11DB11DF6
:104D40003FBFBA2FA92F982F8827820F911DA11D31
:104D5000B11DBC01CD0142E0660F771F881F991F6E
:104D60004A95D1F708958F929F92AF92BF92CF92BA
:104D7000DF92EF92FF926B017C010E948E264B0125
:104D80005C01C114D104E104F104F1F00E948E260B
:104D9000DC01CB0188199909AA09BB09883E934017
:104DA000A105B10570F321E0C21AD108E108F108AC
:104DB00088EE880E83E0981EA11CB11CC114D1049A
:104DC000E104F10419F7DDCFFF90EF90DF90CF9071
:104DD000BF90AF909F908F900895CF92DF92EF9207
:104DE000FF920F931F93CF93DF9300D000D0CDB7E6
:104DF000DEB76217730784079507FCF489019A01EF
:104E00006B017C01A9019801261B370B480B590B3C
:104E100069F029833A834B835C830E944F3B29814D
:104E20003A814B815C810E947C3B03C060E070E072
:104E3000CB016C0D7D1D8E1D9F1D0F900F900F904F
:104E40000F90DF91CF911F910F91FF90EF90DF9026
:104E5000CF900895833081F028F4813099F082302A
:104E6000A1F008958730A9F08830B9F08430D1F4EA
:104E7000809180008F7D03C0809180008F77809328
:104E80008000089584B58F7702C084B58F7D84BD7E
:104E900008958091B0008F7703C08091B0008F7D1E
:104EA0008093B00008951F93CF93DF93282F30E0B5
:104EB000F901EF54FF4E8491F901E356FF4ED4916E
:104EC000F901E757FF4EC491CC23C9F0162F811189
:104ED0000E942A27EC2FF0E0EE0FFF1FE158FF4E53
:104EE000A591B4918FB7F894111105C09C91ED2F45
:104EF000E095E92302C0EC91ED2BEC938FBFDF919D
:104F0000CF911F9108958E3008F08E508770806485
:104F100080937C0080917A00806480937A008091F5
:104F20007A0086FDFCCF809178002091790090E096
:104F3000922B08952FB7F8946091E0037091E103EC
:104F40008091E2039091E3032FBF08951F920F9287
:104F50000FB60F9211242F933F938F939F93AF938C
:104F6000BF938091E0039091E103A091E203B0919F
:104F7000E3033091DF0323E0230F2D3720F4019664
:104F8000A11DB11D05C026E8230F0296A11DB11D6C
:104F90002093DF038093E0039093E103A093E20367
:104FA000B093E3038091E4039091E503A091E603BD
:104FB000B091E7030196A11DB11D8093E403909386
:104FC000E503A093E603B093E703BF91AF919F91F0
:104FD0008F913F912F910F900FBE0F901F901895BA
:104FE0009C0184E0D90190E0EC91F0E0EB58F04FA7
:104FF000E491EC939F5F14969430B1F781502F5F4A
:105000003F4F8111EFCF08950F931F93CF93DF93FD
:105010009B0190E1899F80011124A0E0B0E0FD0197
:10502000E00FF11FE40FF51F60E070E0E901C60F2B
:10503000D71F91918881982798836F5F7F4F643045
:105040007105A1F714962C5F3F4FA031B10539F7D8
:10505000DF91CF911F910F9108959C01CB01019792
:10506000889770F5CB01079661E170E00E94F33BF1
:1050700024303105E9F060F4660F771F21303105E7
:1050800099F022303105E1F4FB01ED5CFE4F15C0D3
:1050900027303105B9F02830310591F4660F771FBC
:1050A000FB01E95DFE4F09C0FB01E75CFE4F05C057
:1050B000660F771FFB01E35DFE4F808191810895AC
:1050C0000E94073C80E090E00895FC01A081B0E0E0
:1050D000FD017597ED39F10550F477FD08C06A17A9
:1050E0007B072CF457FD03C04A175B0714F00E949E
:1050F000073C4A9FF0014B9FF00D5A9FF00D112481
:105100006E0F7F1FAB014770552733E0759567958C
:105110003A95E1F76F5F7F4FFC01E60FF71F81E0E3
:1051200090E001C0880F4A95EAF7222319F0908198
:10513000892B03C0809590818923808308954F92A5
:105140005F926F927F928F929F92AF92BF92CF9217
:10515000DF92EF92FF920F931F93CF93DF936C0137
:105160005B014A0179012801C0E0D0E0CE15DF05DE
:10517000ACF400E010E03E016A0C7B1C0815190538
:105180005CF4B8016C0D7D1D21E0A301C2010E94F9
:1051900065280F5F1F4FF2CF2196E8CFDF91CF91A7
:1051A0001F910F91FF90EF90DF90CF90BF90AF9045
:1051B0009F908F907F906F905F904F900895FC012B
:1051C000208130E0F9017597ED39F10550F477FD54
:1051D00008C0621773072CF457FD03C0421753072A
:1051E00014F00E94073C429FF001439FF00D529F34
:1051F000F00D11246E0F7F1F9B0143E0359527951D
:105200004A95E1F7FC01E20FF31F818190E067709E
:10521000772702C0959587956A95E2F78170089582
:10522000009711F40E94073CFC01808190E09C01F2
:10523000255131092D393105A8F708950F931F9392
:10524000CF93DF939C018B0181309105A1F167E041
:1052500070E00E94F33BEB012296FB013196203275
:10526000310581F0C901880F991F8C0F9D1F880F90
:10527000991F0196BF01660F771F0E94F33B660FCF
:10528000771F02C06AE170E0CF01220F331F220FA7
:10529000331F265F3F4F1816190644F4F801E80F34
:1052A000F91F20830197261B370BF5CF86E0F80105
:1052B0008083CE0102C080E090E0DF91CF911F910A
:1052C0000F9108952F923F924F925F926F927F922B
:1052D0008F929F92AF92BF92CF92DF92EF92FF9206
:1052E0000F931F93CF93DF93CDB7DEB729970FB6F8
:1052F000F894DEBF0FBECDBF4C017B012C01440CE6
:10530000551C440C551C620181E1C80ED11CCC9C7B
:10531000A001CD9C500D500D1124495F5F4F93E0CB
:10532000559547959A95E1F74F5F5F4F60E070E0C4
:10533000C7010E94343CF701C0828701960141E019
:1053400050E060E070E086E090E00E949F2821E05D
:1053500030E0A60166E070E080E090E00E949F28C7
:1053600029E030E049E050E060E070E080E090E06B
:105370000E949F286201F9E0CF0ED11C29E030E0A5
:1053800048E050E060E070E0C6010E949F2828E0FD
:1053900030E049E050E0B60180E090E00E949F28B4
:1053A000BE016F5F7F4FC4010E941E293C01A12CEA
:1053B000B12C1C0181E0281A3108A614B704D4F5D9
:1053C000C12CD12C81E090E08C0F9D1F8A0D9B1D7C
:1053D00099878887C614D7044CF5A114B10431F419
:1053E000C114D104F9F0C214D304E1F0A214B3043F
:1053F00019F4C114D104B1F0E1E0F0E0EC0FFD1FAD
:10540000EC0DFD1D608170E062507109E885F98541
:10541000808190E0870125E030E045E050E0029790
:105420000E949F28FFEFCF1ADF0AD4CF9FEFA91A5F
:10543000B90AC3CFE7E08E169104B4F0F6E04F0E40
:10544000511C870126E030E043E050E060E070E06E
:10545000C2010E949F2823E030E046E050E0B20104
:1054600080E090E00E949F2829960FB6F894DEBF56
:105470000FBECDBFDF91CF911F910F91FF90EF90A5
:10548000DF90CF90BF90AF909F908F907F906F9064
:105490005F904F903F902F900895E7E0F0E020E07C
:1054A0005DE170E0422F441F4427441F459F402D7B
:1054B0001124220F42279B010E2E02C035952795FD
:1054C0000A94E2F7922F9170989F902D1124242F27
:1054D0002927319738F7822F08951F93FC010197F0
:1054E000889710F00E94073CCF01089624E0880FAF
:1054F000991F2A95E1F78E9F90018F9F300D9E9FF7
:10550000300D1124205C3F4FE130F105E9F0CF016F
:1055100067E070E00E94F33B6E5F7F4F17EE16036B
:10552000A001179F500D1124465F5F4F469FC00199
:10553000479F900D569F900D1124C796280F391F35
:10554000379714F024523109C9011F910895CF9261
:10555000DF92EF92FF92CF93DF936131710578F480
:105560006C01E12CF12C062E04C0F694E794D7943C
:10557000C7940A94D2F7CD28CE28CF2811F00E94E4
:10558000073C615071096F3FBFEF7B0749F1F9019B
:10559000A081B181ED01E3E0D595C795EA95E1F7EA
:1055A000C40FD51FFC01062E02C0F695E7950A949C
:1055B000E2F7E170FF27A095B095A770BB2701C067
:1055C000EE0FAA95EAF7F881EF2BE8836150710995
:1055D000D901ED91FC9111973196ED93FC93D3CFC6
:1055E000DF91CF91FF90EF90DF90CF900895CF9310
:1055F000DF93CDB7DEB72B970FB6F894DEBF0FBEA3
:10560000CDBF2BE0ECE1F1E0DE01119601900D92AF
:105610002A95E1F7892B59F46A30710544F4E1E0E9
:10562000F0E0EC0FFD1FE60FF71F808101C08FEF48
:105630002B960FB6F894DEBF0FBECDBFDF91CF9192
:105640000895DF92EF92FF920F931F93CF93DF9312
:105650008C01EB016430710510F00E94073C0E9440
:105660006D2AD82EE92EB801CE010E94D619F82E47
:10567000B801CE010E94F72A2D2D3E2D37FF02C022
:10568000295F3F4F93E0359527959A95E1F7A9015A
:105690006F2D6802401951091124CA01DF91CF9181
:1056A0001F910F91FF90EF90DF9008952F923F92FE
:1056B0004F925F926F927F928F929F92AF92BF9222
:1056C000CF92DF92EF92FF920F931F93CF93DF93CE
:1056D000CDB7DEB7E7970FB6F894DEBF0FBECDBFEC
:1056E0008C016B0158A74FA31901892B21F4672B5B
:1056F00011F00E94073C60E070E086E090E00E94BC
:10570000212B9EA38DA30115110539F07801812C61
:10571000912C412C512C320152C0C114D104B1F34F
:10572000E8CFD7011296AD90BC90139716962D91A5
:105730003C9117973CA32BA3B7FCDBCF37FDD9CF08
:1057400066E070E08D919C910E942D28FC014197AC
:1057500080F6C501BB0CAA0BBB0B21E030E040E09A
:1057600050E00E2E04C0220F331F441F551F0A9411
:10577000D2F782179307A407B50784F5CF01FF0F6F
:10578000AA0BBB0B0496A11DB11D2BA13CA1A90125
:10579000330F660B770B840F951FA61FB71F480E9C
:1057A000591E6A1E7B1E38E0E30EF11C411440E8CE
:1057B00054066104710494F45FEF851A950A8C1401
:1057C0009D0409F0AECF52018DA19EA1B3E0880FD8
:1057D000991FBA95E1F78415950524F4D1011C921F
:1057E00080E016C484EDF10111928A95E9F718A2C0
:1057F0001F8E812C912C8C149D0409F453C09E01A2
:10580000215E3F4FA10164E070E0D8018D919C9131
:105810000E94A72A66E070E0F801808191810E94D1
:105820002D289E01215E3F4FA101BC01D801129697
:105830008D919C9113970E94A72AE12CF12CF801DD
:1058400086819781E816F9063CF5C701A3E0959596
:105850008795AA95E1F7D8011496ED91FC911597DB
:10586000E80FF91F808190E097012095309527700F
:10587000332702C0959587952A95E2F79E01215E10
:105880003F4FA10161E070E0817099270E94A72A33
:10589000BFEFEB1AFB0AD3CFFFEF8F1A9F0A085F07
:1058A0001F4FA9CF8F8D98A18A159B0509F021CF95
:1058B00060E070E086E090E00E94212B8C01F3E034
:1058C000000F111FFA95E1F70A151B050CF411CF13
:1058D000B8016A197B096530710514F064E070E065
:1058E0009E01215E3F4FA10180E090E00E94A72A27
:1058F0008F8D98A128E030E0B9010E94F33BB901F7
:10590000681B790B677077279E01215E3F4FA101CD
:1059100080E090E00E94A72A8F8D98A18770992738
:10592000892B09F0E6CE7CEEF72EEDEFEE2E8F8D73
:1059300098A18017910764F49E01215E3F4FA10159
:1059400068E070E08F2D90E00E94A72AFE24EFCF40
:1059500066E070E080E090E00E94F72A882E880FD1
:10596000990866E070E080E090E00E94D619482E29
:10597000880F550886E090E00E946D2A97FD0796F3
:105980008C0163E0159507956A95E1F760E070E09A
:1059900086E090E00E94212B9CA38BA3C801B40158
:1059A0000E94F33B9401281B390B3EA32DA39B01BE
:1059B000241935093AA729A7720131E0E31AF10841
:1059C0004EE1E416F10408F094CE8E010F5F1F4FF4
:1059D000A20160E070E0C8010E94343CF801EE0DC5
:1059E000FF1D81E08083C12CD12C91E01AA309A373
:1059F000C414D5041CF558013801692FD3018C91CA
:105A00009CAB0E944D2AF30181933F019F0149A164
:105A10005AA1241B350B9CA92415350534F420818B
:105A20008227D5018D935D01E8CF62E0892F0E9426
:105A30004D2A982FBFEFCB1ADB0ADACF5101C12CC8
:105A4000D12C0BA11CA1020D131D92012150310973
:105A50003FA72EA798012F5F3F4F39AB28AB980186
:105A60002E0D3F1D3BAB2AABC814D9040CF084C0EB
:105A700081E090E02DA13EA1C216D30614F480E08F
:105A800090E0E9A4FAA4E80EF91EA20160E070E03B
:105A9000C8010E94343CBCA6ABA63501C3018A19DB
:105AA0009B098E159F0584F5D3019D913D01F80159
:105AB000808198279DA74EA55FA568A979A9C801EF
:105AC0000E94223CAAA9BBA91C92AE014F5F5F4F66
:105AD0009801C901801B910B84159505FCF66DA5F5
