:100000000C9415090C9432090C9432090C943209A1
:100010000C9432090C9432090C9432090C94320974
:100020000C9432090C9432090C9432090C94320964
:100030000C9432090C9432090C9432090C94320954
:100040000C94892E0C9432090C9432090C943209C8
:100050000C9432090C9432090C9432090C94320934
:100060000C9432090C943209000018140000181482
:1000700000001814000018140000590000040804BF
:100080000000190004040804000408140000190109
:1000900000050804001019000004080500011900FB
:1000A00000140804000019100010180400000914BE
:1000B00000040901000518000004181000001805CC
:1000C00000010904001409000004180400001904C8
:1000D0000004090400041900AA882AA22A2A2A8DE9
:1000E00001020408102040801B3642E1ADBB63933F
:1000F000DD6BD591E2E4C1A13D03A1B0330BAFECC0
:10010000F7C775F237E82094EBC7A52B2704C75A29
:10011000A6BE1AF9CB4FABA444579ABF99CB530351
:100120005442A92081CCDD04F7B871CE89FBFADEF8
:10013000BD2011B2A02254F6B9AE6998D562DBFE9B
:10014000EEE9C3A23D02A7B73749DB96835AADE279
:1001500057E8A3D034F0970A37949A186AC899944C
:100160004FBEFF48F5B0C4C3E5A4E7D87969ED9D5B
:100170003D7069B2430CBD0245372E0A69F4ED6E3D
:100180007CFE80226D7AA5541EAE2F6A1A1D3F5E3A
:10019000C1FE53BBC3B3175A4F9679368324BF0DA4
:1001A000082C43DEE34056D7A0043720FB0A43F473
:1001B00045038F88D0B0AB943525B936C2029A1466
:1001C0001F571551E169C8FECF12391AF76B03DECC
:1001D000AEAD2F8F85DA6CE869AD61A03F00A59FB9
:1001E0009F0FA4CDFB689FD065D8CBB7B2E0E06885
:1001F000F55648CA92B00423373638DF623204AB72
:1002000082128ECFEE7175025A68C1F8059876AAEF
:10021000ED9F96CDD1427B350446288AC5D233FC6A
:1002200050E9AE0CE565B841A11EB457DB64114D31
:1002300068827E4F9B3B00720C3B55C9D458B93C39
:100240004E94DFB6827DDAACD1A8E81C7E98ED3200
:100250006D9101713602B52BAB08AE0741CBC49747
:100260006E91D85C9EEDEB2689E93530026FCBA00C
:100270003E261375D1DDF77A3B8ACB664BAA2EF367
:10028000571B8EE2FA00607AC07BB4C74787AABBCF
:1002900020962F78DAA0EB8ACA4B2C174955DE5DE1
:1002A0000D405980733C8D33F5077E5A39A49D3E2D
:1002B0002CAEE0723D2CED6C8A70677A666D4F2E25
:1002C00033C8A913114A642A3FE6215A8BAFA36DA4
:1002D000A9BC138EB392430ED6F68E70CB3A73C27E
:1002E0005D7483CD49909BA405156919B9F4E50C9B
:1002F000CF803986C1B3B296CA9049EAF87A0CAE7B
:10030000E1F621D09D2A93D6A6A1BBDA457ADFCFAC
:100310004F3F93DECB12E5AA1FA0FB8974A9CF52F1
:100320006FCCD2502280CBDC07F6C74ECD88FCFBC9
:10033000BDBC2F10B1AD3555F5B8B8689BD465D9A3
:10034000A363E6C2A65005A6B436B733B5825D2ACC
:10035000D156E7A2E12A9A960921771B1B6BCB7D28
:100360006298AD98B440B7C5C05B84DB4941AF1B10
:10037000DE3C7F7F4CB5BD6062CAC02F096A0DF3B9
:100380001B8E2F7DDBEC7DA408C57FF512F7C556CB
:100390005DC0FAA81D1901A094B0097834FD7361FD
:1003A00078D25EBD14E247783EC48CDBD405D442DB
:1003B000F74DFE5F8BADA8C58A082AB895CDECAB8A
:1003C00076BF51D7A9106F97F9FD7CF7E6F6721D3D
:1003D0005DAE820DBA9B5E61DEAC6E61E12B169064
:1003E0008B197F39751BB83F823898A64742E03E8B
:1003F000768E4C1DFD642A241048D8EB2622CFA20D
:10040000C5213C11A1F75657F8BB2112C40555155B
:10041000D3EA6E104EAB4A8B26354E8916142EF455
:10042000C9B10D69F0FE555CFB574F4C4FB4ACE9B8
:10043000535D36003817ACE759B0B47441FA20D197
:10044000F9987A4EB09F0B466E277DB4BE269F5D0D
:10045000E04C863F0B366DB197A48AB2F9B737C727
:1004600083F5832099BFCAE6384758A02884B5771A
:100470005AC0C91D8E132A8664E686D59AB4AEA3E7
:10048000EE581F52223B78A7053AA4B5DBBB1E519C
:10049000446E5ED1851BEF151034AAE8A4779D5DEC
:1004A0005E0C4F18BB75FA4DC906665F5938BD948E
:1004B000C51D3EDF74FC2DF47898FE78189ABA7446
:1004C0006DB082C24F520C781119592865D214D6DA
:1004D0004252B4327DB21707B8374C046B2A03720C
:1004E000C77A33414583F99AD886EA681AB8B1E4E5
:1004F000C04E70D885C0B4B195F60B48D619FD0D25
:10050000ADE4F920D39E3C92D5A79EBAD9447CDEB7
:10051000CC4EB092DDCACDE4AA02BFFA8A8DAFCE2E
:10052000516EC32BA32387CADF0689C673FC8BFDDC
:10053000F8DCB32E13B0A62857F4A7B06B9AD36497
:10054000D99FFCA7C1A03B04A5B509792164855CAE
:10055000AFE059E6A1D3E2F69508298A981A6CCE45
:100560004D9581BFFD8AFCB6C50D6CFA15D9BF5FEC
:10057000EC5F3285F3B2230B270C5AB12C6E092B9A
:1005800056DA1483E4C6B2FD3EE9D1FFF4F6E1E2A7
:1005900082AD099C9CDAF3D8A63E3D440A87B65C3E
:1005A000B0940AFBDAEFE37A980F6B1CF6149BC049
:1005B000807BF4341EACE1FB30251D5DD7079C1118
:1005C000F05D729226A58C565C88EA4A63EB3DB0DA
:1005D000985C1F08D3226BDC6124518F690893ACAF
:1005E0000D1D91E14F3C1DC43778318EC9BBB99EBA
:1005F000056151F2E06214B6F9EE29D895229BDE2E
:10060000AEA983E27D7267F777079BD6C35AFDA434
:1006100008A8E19194B0E94A77D219E42A8843C442
:100620001186BF0E7B0F4583A5C4289B79A9D1A253
:1006300003B0A970845382C38910102AA934026DB3
:100640007C4E400CD2466594DAA12FAADAD2002162
:10065000C136927BF373D79A708969F643E57CCDF6
:10066000C8ECBCE1D880961769DCF7E03CB5BC74F7
:10067000495C404ED2F0EB239A9DF989368389F488
:100680005F1C96E9512721F85A01F85A4935781F1D
:10069000513762879D9A0351AE31AB475A0D717F36
:1006A000DFA8DC0E4B03ED44B6300C5E83D837A3D5
:1006B000ACFDD372F04FC4DDF70651DF42E7EC6BBF
:1006C000B2DCBDC071D22A1B3D2800392F64D5F59C
:1006D0008CA2E3E0958CF5160D155654CE62CF2D05
:1006E00071E6D33671B88BB0BBAEBFAB6A1BB0CE70
:1006F0001851C4DB64745317638D6440BA60FDBB4A
:100700009F246F7DDA35F5794C2C85C11CBD8CE1B9
:100710002102BEC4521B2C47C5F7BA7D067464D5AE
:100720003A3A6B172BDDDA27B63125FA6B2036778C
:1007300001B1D7CE469562FCD858E5A6428B5AE265
:100740005A44BA90140721250BDB8BFF15E79C98C0
:10075000A38F1F9F15BE6F0D15E498EA97856375EB
:10076000B3BDD747B3046DF37604FD648604FD7111
:10077000EEE66C0E4151CA8A39B6673BD5CC8CED9A
:100780004A3192F3748D38964FA676D96C30673D16
:10079000F8C390C130AFB93547F4594F770BCFBB91
:1007A000C6838F18B6B124637AB6562686CDDA038F
:1007B00010BD0EB83E8C8DA9FA5770D5C745239150
:1007C000DEC91EEFA235ACE9999E84E57A45E0F0DA
:1007D0007000ACE1F42DDA95209FC4B6B397F06DAC
:1007E00050F3ED6F1DBFF4E338C983307094FEAB56
:1007F0008DFC334515BCA3EC3DB000A4A07C63F98F
:100800000786AA82B212248D917C6CFFA1B0749FDE
:10081000F516E5B1FBF1D2A5651EBFAF2B58B5EDBE
:10082000F87986C925D684ECE4C1C8476E96CD43D5
:1008300033D2DEDD5C88882FA8E08D9CE5C0477848
:10084000DDCE0B6ECEDBCA13B9BA2287CDBEA99F0F
:10085000E82E52FDED2C15A3B6ED3AD191278890E4
:10086000A6BD8EEE170EB697530E5A1A69E92E6A78
:10087000D26C6D1170710ECAE67E299BE24D075A4B
:100880008F1A7ED135622E6F6C0AAC8B530EACD0B2
:10089000782343C00B43E94D16770D1373E4DD2F26
:1008A00031F299387C6AE41915CD20641C182D5B4F
:1008B000CFFD5603ECA3125446987E7AB035731BD5
:1008C00001230398A36B4FD8AF011D39E11B53B52A
:1008D000040061674B20BBD57829D28C306A7AB886
:1008E0005A5C840F11003B0460EA79939B4A48CC20
:1008F00098855AACE454E4E6F2DEFC84552B819BE7
:100900005F7BCB8BDB4DA1F24AE2CBDDF5CEBA307B
:100910000CB9E21040FFB9A0728BC420D29EACFF8C
:10092000C5A97F21A6B83B42A580C01BE0A107E670
:10093000C09A82BEC2587AC4C92C79DA9F825DFD02
:10094000BC4AE6A2D8D0F7C7542AD8EA7F18B7FB2A
:10095000E93981C90985DEA6FCA7FF735DEDBE5BA1
:1009600002ADFCEB4983CB76C48459523549D2E6BB
:100970004C5D80FC1D2A02E30E4EE83E38454E2EAB
:10098000149FB4435C9AEB51490DF60540FD450BAD
:100990003E7A5C27A196772FA6C16E6621EF1C5682
:1009A000A7411C74760033BF9F300AC5BF0B40457A
:1009B000986B3CD40161021A313E86B913088DACA4
:1009C000000C08D2296CDD7E46042C0F6DEDD36738
:1009D0002CE19E726962B0042BB10A543E344F265A
:1009E000E1DB6D33FB822B663FA9AFA655EDA2D8A4
:1009F00098EC9F147ADCA80562DC869E42BFFF0457
:100A0000BFFCF3CFF482084ED4C77309A9A4A83061
:100A1000DE9A299691FEBEFA80062A82F8187ECBCD
:100A2000809D2DFA8C3083C6F6ECF78B1F2F8FDF5D
:100A30004273B1CBC21EE1A311A7BBAA84A9C35EB6
:100A40006AC2D55562ACC4DF0CE5CB1B81CDACBA14
:100A50008E963E0AA4B17518F9AAAB798B8428D674
:100A6000F2BFA38CA14F40F5F57BFD16171BCD2DD2
:100A700072C56E2C5515553BAAA54B2F89EA4B071D
:100A800014DC3078DF3813444E2410A395362BA89D
:100A9000C7166D72A2525BF10D57323F1938BEC0B6
:100AA0001935B48153233CE0574C9E6E5A131F32C4
:100AB0005180F84100F2B5005C4AC96F3C96333E64
:100AC00029062C469DCB4943D2A92F7F6CB45E4E9C
:100AD0009B01423C745637DDDE786392D972332431
:100AE000BF5353FB4F0274330828261EADAC3F534F
:100AF000F2BFA71081DE78C38E9BA4B9D3467D9E3A
:100B000091523498DCCA55B9B566CE89F1F4D1B9A1
:100B10006138BAA13156B799A77797D866D0DFA5C3
:100B2000CEEFEA7E2DA5A22349F6DCD357C1BA1831
:100B3000A0E9FAC3EB811B64D8890D73DA94C5016F
:100B4000B38401A4F48296E6E95957FEFB691DAE11
:100B5000F4A616C19F3E86C8BFBF8CA65B4FEEF3BE
:100B60003F38AAFDFE4881C07CC03B54102D45D0C3
:100B7000EF0C0FCCD3540D09D93262D2782B0C4232
:100B8000634CB8AC080596ED4C0626B83B6DD60A0A
:100B9000207675403EAF9A3830B4C7662937FF0FCC
:100BA00011F2585246604123B8921B6DC2A91245FA
:100BB000468C646EB82B770C500459D9FF4D5DC834
:100BC000A7034114A7607BBF38782E361638C0D9EA
:100BD0006E6CF3945B2937E61718AC520C71795E92
:100BE0007DFD8D4671EBC40565714AADA961E2A238
:100BF000C8D0FCD24B72BC9E0B7ECE19F113E7A27B
:100C000017F9BE8D9DBAD64A2689E60C5BE1F390B2
:100C100068818F4FC08CF7FCD8B1772AA8BA36010B
:100C2000DEA9B5769AD32D94D5CC87B6D041178757
:100C3000961F6093D08644B4F34EEFFB87C18EDAE3
:100C4000456FC0D85A2D808AF70FCE8E73BFCABEAB
:100C5000AD8EFA7A4AB0CA6B15BFA7C332C98721D5
:100C600094CFEC938EF0622EB4A5D3A90915089009
:100C70007E30833471525F3A3687BC040C9FFE4746
:100C80000F11811364C8762406605F2CA0882C2E77
:100C9000BDC6330A39F3014FFC521A6F780402B310
:100CA0009B387287CB6C2833FF7C76C0773A4C1A1E
:100CB00030109EA10B1095B41814768474368436C7
:100CC0003D27092C44C5F5494096AC28706CB95FA6
:100CD0004D930B4E3B3A0336CBC46275F0E17E3345
:100CE0002DFF011FA65806777A54CB1636D4A00DD7
:100CF00068DD93C554A3F155EFA388D8E09C1B6C25
:100D0000A992126AC49ED162A5FD7FCD81F2FFB483
:100D1000EC724BE2F03259BAE8F439C8C56F97B2B9
:100D2000DBC7E08A7D209592166CF187994ABDB2A7
:100D30001AE4B2CBC1E0C7473BF1FC7E6ACFF0D1E9
:100D40000CEBAD0DF2B0ADAEE5F76457EBEC6E1CFD
:100D5000AFF4A902C69A3487D2FB8A8BE7340BAE74
:100D6000D17F14B687AB7F81C93E626608072E4EDD
:100D700091B35F278AF617320EC43D3694300F4C7C
:100D80005B7F1491B10405D4D6483221E80F29A61F
:100D9000135D20675C7CF8CE6575A9C4250539E034
:100DA0005F49E6430323404736BDEA1A49D8B95E96
:100DB00073439D6F239D637219511E5999AA5B5706
:100DC000DAEF05474991617ADD0E186B7C217AE3F1
:100DD000CD6F22EF94704869B45305A90941601B97
:100DE000086DEDC36431B3C5167C844FAAF641800B
:100DF000FE8586A2810179C5DE5438DA88DE6C9AD8
:100E0000C563C59CEDEAC9C63B149E8A001795E1EF
:100E1000FD2CD1DE7688D3AFA184BB3B479FB6259E
:100E20000EF5A0AD2381D363C4989C91FECC0369D9
:100E3000CEC80102A2F0A740BDF951AEF4C7DEF45E
:100E40009E0071CF9C772883DFDF2DC79772A9CFD3
:100E5000ADB090E12D14B7D76803AEE8E723DC9E70
:100E600067BEC6B5B192E23A71F10686FF4A120634
:100E7000D62266CC6C25471F421D8DB21059D5EC89
:100E8000460159EA3C6FC53B5F13240969B490726F
:100E900079F482222D27B9254AEA560C6F2D662057
:100EA000B2872736BDD727183AF579299D3F6A5171
:100EB0003B3D5DCAFF5955CCF65207648E6F2781C2
:100EC000377E0515262A8EBE1705F99475213FE851
:100ED0001F10B44A6024330471FB892C38D9802157
:100EE000727FAF575D891644232CF4941C76AC8630
:100EF0000369DA91CB14E5C146ECB2CC6788BA221B
:100F000003A3B33422F3A8B37593AD78D99CECA1B5
:100F100092F3211FA1A8241BF4A8FC7B94C171D2D9
:100F200098EEF5D6EC6E4BA3B8372B8EDCC11FE9DB
:100F3000A018B4F69399BC984A79C69452258BC7E9
:100F4000CF40F9AA06B8A891DDCED5496BD1CF2CF8
:100F50004FEFACBF59FB84299384ACAA9FE1704941
:100F6000ADF4626BB4E2F12BD493D46A695A547A2B
:100F70007783B01C4796B4541C4EDD2A60D16F3B7A
:100F80004A23500195A703029BE2111A2AF4065145
:100F90009D6F027C71435DE0D4646AE89A2B497EC0
:100FA000AC4E09AB3F5A2730107693BB331895ED02
:100FB0004D031CC237469E3B67120F385ACFE91FBC
:100FC0005DD29F511808D16953E56F5C6A734C304C
:100FD000B1937166F79200000000230026002900FB
:100FE00000004908B400BEF67B7AA59455B84800C5
:100FF0002944442A15A00B42005003020008259002
:1010000076BA595CC59EC53892E6F33A73BAE59054
:1010100077BA773A084008502A441CE08852E5081D
:10102000568E77B677B8728CD6BA739E739272AEBC
:10103000B7B6E95C64AAB7B4929CBEB6D6B656AA57
:10104000D79276EE77B47138E948B6AEB6AAB6F65E
:10105000B5B4B548E59C694C9124642E5400001C3D
:1010600044000EAE9ABA0E8C2EAE0ECE56D0553B24
:1010700093B44144415197B4494417B61AB60AAAE9
:10108000D6D3766717900F389A8C16AE16BA16F626
:1010900015B4B52B1C5E6B4C4948C95A540056E236
:1010A000637C777BF26B6FC53001672BFED7AB7625
:1010B000CA82C97DFA5947F0ADD4A2AF9CA472C0D0
:1010C000B7FD9326363FF7CC34A5E5F171D831153D
:1010D00004C723C31896059A071280E2EB27B2755E
:1010E00009832C1A1B6E5AA0523BD6B329E32F84D6
:1010F00053D100ED20FCB15B6ACBBE394A4C58CFCE
:10110000D0EFAAFB434D338545F9027F503C9FA8A1
:1011100051A3408F929D38F5BCB6DA2110FFF3D26F
:10112000CD0C13EC5F974417C4A77E3D645D197323
:1011300060814FDC222A908846EEB814DE5E0BDB1D
:10114000E0323A0A4906245CC2D3AC629195E47954
:10115000E7C8376D8DD54EA96C56F4EA657AAE08AE
:10116000BA78252E1CA6B4C6E8DD741F4BBD8B8A49
:10117000703EB5664803F60E613557B986C11D9EAF
:10118000E1F8981169D98E949B1E87E9CE5528DF26
:101190008CA1890DBFE6426841992D0FB054BB1652
:1011A00000000000240027002A00000000002500A5
:1011B00028002B00040404040404040402020202B4
:1011C000020203030303030301020408102040800A
:1011D0000102040810200102040810200000000889
:1011E00000020100000304070000000000000000EE
:1011F00075B723726C1C548F7CF7563D437E85DA9D
:101200006D5CB082FFB859BF637962656172737BB0
:10121000793075725F6433763163335F31735F7534
:101220006E377275733733647D0011241FBECFEFA4
:10123000D8E0DEBFCDBF11E0A0E0B1E0E2EDFCE719
:1012400002C005900D92A637B107D9F725E0A6E7B1
:10125000B1E001C01D92A339B207E1F70E94B53A8F
:101260000C94673E0C940000DC019696ED91FC9185
:1012700097974E9F90014F9F300D5E9F300D112428
:10128000620F731F9B0143E0359527954A95E1F75F
:101290009A964D915C919B972417350770F4FC0149
:1012A000E20FF31F84A590E06770772702C0959541
:1012B00087956A95E2F78170089580E00895CF934D
:1012C000782F4115510561F4813009F04BC062302F
:1012D00009F048C081E02230310509F043C043C025
:1012E0002430310561F4813009F03CC0613009F0EF
:1012F00039C081E04230510509F034C034C0862F36
:1013000090E064E0769F800D911D1124880F991F55
:10131000880F991F88599F4FFC01C4913196749191
:10132000319664913196E4918E2F90E0A0E0B0E088
:10133000B82FAA2799278827972B8C2BA62B220F0B
:10134000331F220F331F41505109420F531F440FC7
:10135000551F04C0B695A795979587954A95D2F7DE
:10136000837001C080E0CF9108952F923F924F92F9
:101370005F926F927F928F929F92AF92BF92CF9225
:10138000DF92EF92FF920F931F93CF93DF93E114BD
:10139000F104D1F12701122F1B013C017A01812CAC
:1013A000912CC22DD32DA12CB12CD7FD1BC0F30144
:1013B00086A197A18C179D07ACF0F7FC13C080A500
:1013C00091A58E159F0574F09401A501602F812FC2
:1013D0000E945F09882331F0212FA701BE01C601B9
:1013E000F2010995FFEFAF1ABF0A219685E0A81612
:1013F000B104D9F6EFEF8E1A9E0AFFEFEF1AFF0A3B
:1014000085E08816910469F6DF91CF911F910F91C5
:10141000FF90EF90DF90CF90BF90AF909F908F9014
:101420007F906F905F904F903F902F900895EF9234
:10143000FF920F931F93CF93DF930097C1F08A0120
:101440007B01EC01EA85FB85309719F08885998549
:10145000099588A199A1E816F90649F48AA19BA1EA
:101460000817190721F485E090E09BA78AA7DF9170
:10147000CF911F910F91FF90EF9008954F925F923F
:101480006F927F928F929F92AF92BF92CF92DF9294
:10149000EF92FF920F931F93CF93DF936C015B0149
:1014A0004A0179012801C0E0D0E0CE15DF05ACF497
:1014B00000E010E03E016A0C7B1C081519055CF485
:1014C000B8016C0D7D1D21E0A301C2010E94482FCF
:1014D0000F5F1F4FF2CF2196E8CFDF91CF911F9181
:1014E0000F91FF90EF90DF90CF90BF90AF909F90C3
:1014F0008F907F906F905F904F9008950F93623020
:101500007105B9F1A0F46115710541F16130710502
:1015100009F050C00E94CF1661E070E08DEF92E1BB
:101520000E94112760E070E08DEA90E02EC06330E9
:10153000710571F164307105E9F50E94CF1664E020
:1015400070E08DEF92E10E94112701E020E030E091
:1015500044EF56E166E178E988E02AC00E94CF16A0
:1015600060E070E08DEF92E10E9411270F910C94E2
:1015700079190E94CF1662E070E08DEF92E10E942F
:10158000112760E070E088EB95EE0F910C94A116A6
:101590000E94CF1663E070E08DEF92E10E94112768
:1015A00001E020E030E044E157E162E275EC87E0E1
:1015B0000E949C2C0F910895FC01208130E0F901DC
:1015C0007597ED39F10550F477FD08C06217730780
:1015D0002CF457FD03C04217530714F00E941F3E1E
:1015E000429FF001439FF00D529FF00D11246E0FAA
:1015F0007F1F9B0143E0359527954A95E1F7FC0154
:10160000E20FF31F818190E06770772702C0959504
:1016100087956A95E2F781700895009711F40E940A
:101620001F3EFC01808190E09C01255131092D393C
:101630003105A8F708950F931F93CF93DF939C0173
:101640008B0181309105A1F167E070E00E940B3EB3
:10165000EB012296FB0131962032310581F0C90160
:10166000880F991F8C0F9D1F880F991F0196BF012E
:10167000660F771F0E940B3E660F771F02C06AE15C
:1016800070E0CF01220F331F220F331F265F3F4F21
:101690001816190644F4F801E80FF91F2083019782
:1016A000261B370BF5CF86E0F8018083CE0102C000
:1016B00080E090E0DF91CF911F910F9108952F92DC
:1016C0003F924F925F926F927F928F929F92AF92D2
:1016D000BF92CF92DF92EF92FF920F931F93CF931F
:1016E000DF93CDB7DEB729970FB6F894DEBF0FBEF4
:1016F000CDBF4C017B012C01440C551C440C551CE6
:10170000620181E1C80ED11CCC9CA001CD9C500D82
:10171000500D1124495F5F4F93E0559547959A9579
:10172000E1F74F5F5F4F60E070E0C7010E944C3E01
:10173000F701C0828701960141E050E060E070E06F
:1017400086E090E00E943E0A21E030E0A60166E0DB
:1017500070E080E090E00E943E0A29E030E049E03D
:1017600050E060E070E080E090E00E943E0A62019C
:10177000F9E0CF0ED11C29E030E048E050E060E015
:1017800070E0C6010E943E0A28E030E049E050E0E7
:10179000B60180E090E00E943E0ABE016F5F7F4F7D
:1017A000C4010E941B0B3C01A12CB12C1C0181E047
:1017B000281A3108A614B704D4F5C12CD12C81E025
:1017C00090E08C0F9D1F8A0D9B1D99878887C614FA
:1017D000D7044CF5A114B10431F4C114D104F9F0CB
:1017E000C214D304E1F0A214B30419F4C114D10457
:1017F000B1F0E1E0F0E0EC0FFD1FEC0DFD1D6081AC
:1018000070E062507109E885F985808190E0870178
:1018100025E030E045E050E002970E943E0AFFEFED
:10182000CF1ADF0AD4CF9FEFA91AB90AC3CFE7E0D6
:101830008E169104B4F0F6E04F0E511C870126E09D
:1018400030E043E050E060E070E0C2010E943E0AF8
:1018500023E030E046E050E0B20180E090E00E94FA
:101860003E0A29960FB6F894DEBF0FBECDBFDF91BA
:10187000CF911F910F91FF90EF90DF90CF90BF908D
:10188000AF909F908F907F906F905F904F903F9020
:101890002F900895E7E0F0E020E05DE170E0422F56
:1018A000441F4427441F459F402D1124220F4227E7
:1018B0009B010E2E02C0359527950A94E2F7922FD0
:1018C0009170989F902D1124242F2927319738F754
:1018D000822F08951F93FC010197889710F00E94B2
:1018E0001F3ECF01089624E0880F991F2A95E1F743
:1018F0008E9F90018F9F300D9E9F300D1124205C94
:101900003F4FE130F105E9F0CF0167E070E00E9460
:101910000B3E6E5F7F4F17EE1603A001179F500D11
:101920001124465F5F4F469FC001479F900D569F11
:10193000900D1124C796280F391F379714F02452A1
:101940003109C9011F910895CF92DF92EF92FF9262
:10195000CF93DF936131710578F46C01E12CF12CA8
:10196000062E04C0F694E794D794C7940A94D2F74D
:10197000CD28CE28CF2811F00E941F3E615071095A
:101980006F3FBFEF7B0749F1F901A081B181ED0104
:10199000E3E0D595C795EA95E1F7C40FD51FFC01A3
:1019A000062E02C0F695E7950A94E2F7E170FF274C
:1019B000A095B095A770BB2701C0EE0FAA95EAF7D6
:1019C000F881EF2BE88361507109D901ED91FC9109
:1019D00011973196ED93FC93D3CFDF91CF91FF9088
:1019E000EF90DF90CF900895CF93DF93CDB7DEB720
:1019F0002B970FB6F894DEBF0FBECDBF2BE0E1E111
:101A0000F1E0DE01119601900D922A95E1F7892B04
:101A100059F46A30710544F4E1E0F0E0EC0FFD1F89
:101A2000E60FF71F808101C08FEF2B960FB6F89459
:101A3000DEBF0FBECDBFDF91CF910895CF93DF936F
:101A4000CDB7DEB72B970FB6F894DEBF0FBECDBF74
:101A50002BE0ECE1F1E0DE01119601900D922A9568
:101A6000E1F7892B59F46A30710544F4E1E0F0E0C4
:101A7000EC0FFD1FE60FF71F808101C08FEF2B9643
:101A80000FB6F894DEBF0FBECDBFDF91CF910895A2
:101A9000DF92EF92FF920F931F93CF93DF938C010E
:101AA000EB016430710510F00E941F3E0E946A0C29
:101AB000D82EE92EB801CE010E941E0DF82EB801D5
:101AC000CE010E94F40C2D2D3E2D37FF02C0295F60
:101AD0003F4F93E0359527959A95E1F7A9016F2D32
:101AE0006802401951091124CA01DF91CF911F9159
:101AF0000F91FF90EF90DF9008950F931F93CF9376
:101B0000DF9300D000D000D0CDB7DEB7DC011E825D
:101B10001D821C821B828AE689831A8255961C923A
:101B20001E92549759961C921E92589756968D91D4
:101B30009C915797892B69F150968D919C91519763
:101B4000892B39F152968D919C915397892B09F1EC
:101B50001696ED91FC9117973097D9F08D019E0163
:101B60002D5F3F4FAE014B5F5F4FBE016F5F7F4FF9
:101B700014968D919C9115970995D80152968D9147
:101B80009C9153976B817C810E94F73DF801718F86
:101B9000608F26960FB6F894DEBF0FBECDBFDF91E3
:101BA000CF911F910F9108953F924F925F926F9244
:101BB0007F928F929F92AF92BF92CF92DF92EF92DD
:101BC000FF920F931F93CF93DF9300D000D01F920B
:101BD000CDB7DEB7E0E2ED831C821B821A82198248
:101BE0002115310519F48FEF9FEF93C029017A0178
:101BF0005B016C01A90160E070E0C7010E944C3EEE
:101C0000370100E010E081E0481A510880E2382EE8
:101C10000415150508F04AC0D6011296ED91FC9105
:101C2000139721E030E0AE014B5F5F4FB8016A0DC2
:101C30007B1D8D919C9109950197A9F68D8181114C
:101C400001C03D828D81893009F43D828D81F3018F
:101C500081933F014801FFEF8F1A9F0A8A3029F1D3
:101C6000D60150962D913C915197C4018A0D9B1D30
:101C700082179307D0F41696ED91FC9117979E0169
:101C80002F5F3F4FAE014D5F5F4FB70114968D91AF
:101C90009C91159709952B813C81F601848595854A
:101CA0008217930718F08401B3CF8401F701E00F86
:101CB000F11F10820115110551F1D8011197AE0DD8
:101CC000BF1D8C918A3011F41C921FC08032C9F064
:101CD00080E090E02291203229F001968017910750
:101CE000C9F70FC08017910760F4A00EB11ED6018E
:101CF00050962D913C915197A216B30610F4081BF3
:101D0000190BF701E00FF11F1082C80102C080E03B
:101D100090E00F900F900F900F900F90DF91CF9168
:101D20001F910F91FF90EF90DF90CF90BF90AF90F9
:101D30009F908F907F906F905F904F903F9008950D
:101D4000CF92DF92EF92FF920F931F93CF93DF9387
:101D500000D000D000D0CDB7DEB7DC011E821D82DE
:101D60001C821B828AE689831A8253961C921E92D9
:101D7000529755961C921E92549757961C921E92FB
:101D8000569750968D919C915197892B09F466C076
:101D90001C968D919C911D97892B09F45FC01E960E
:101DA0008D919C911F97892B09F458C012968D91A3
:101DB0009C911397892B09F451C01696ED91FC91D3
:101DC0001797309709F44AC08D019E012D5F3F4F50
:101DD000AE014B5F5F4FBE016F5F7F4F14968D91D9
:101DE0009C9115970995D8011E968D919C911F97EE
:101DF0006B817C810E94F73DF801778B668B672BA6
:101E000069F1E12CF12C6801FAE1CF0ED11CF80147
:101E100080899189E816F906F8F4D80158962D9131
:101E20003C9159972F5F3F4FA601B701C8010E940F
:101E3000D40D97FF04C0F801158A148A0FC0E80E6C
:101E4000F91ED80154968D919C91559701965596FF
:101E50009C938E935497DBCF138A128A26960FB6E3
:101E6000F894DEBF0FBECDBFDF91CF911F910F91D0
:101E7000FF90EF90DF90CF900895CF92DF92EF9296
:101E8000FF920F931F93CF93DF93EC01EA81FB81C5
:101E9000309719F0888199810995C884D984EA849A
:101EA000FB840DA12CA140E050E060E070E0CE0189
:101EB0000E94B5098E859F85892BB1F4CC80DD8089
:101EC000EE80FF804C8D5D8D6A8D7B8D0F8D2E8D0C
:101ED000CE010E94B509DF91CF911F910F91FF9024
:101EE000EF90DF90CF90089500E010E08EA19FA1C9
:101EF000081719071CF7E12CF12C88A599A5E816FD
:101F0000F9065CF4A701B801CE010E9434098111E1
:101F100007C08FEFE81AF80AF0CF0F5F1F4FE6CF28
:101F2000EE85FF85A701B8018C859D850995F1CFC8
:101F3000CF93DF93EC01ECA1EE8F8DA18F8F2EA1BB
:101F40003FA137FF02C02F5F3F4F35952795F0E047
:101F5000E852FF4F449190E0880F991F50E0082EFF
:101F600002C0559547950A94E2F740FF03C04DEF34
:101F70005FEF02C04EEF5FEF240F351F3B8F2A8FBC
:101F8000E491F0E0816002C0F595E7958A95E2F76B
:101F9000E0FF03C08DEF9FEF02C08EEF9FEF9D8F9C
:101FA0008C8F66E070E0CE010E944D348CA363E01C
:101FB00070E0CE010E944D348DA3DF91CF91089542
:101FC000CF93DF93009709F461C0EC01198E188E4E
:101FD00066E070E00E944D348E8F63E070E0CE01C9
:101FE0000E944D348F8F2EA13FA137FF02C02F5F7B
:101FF0003F4FA90155954795EE8DF0E0E852FF4F10
:1020000024919927880F991F30E0082E02C035953A
:1020100027950A94E2F720FF03C02DEF3FEF02C09F
:102020002EEF3FEF240F351F3B8F2A8FE491F0E016
:10203000816002C0F595E7958A95E2F7E0FF03C05D
:102040008DEF9FEF02C08EEF9FEF9D8F8C8F66E02C
:1020500070E0CE010E944D348CA363E070E0CE01AD
:102060000E944D348DA38EA19FA1059699A388A3AC
:1020700085E090E09BA38AA34AA55BA560E070E0A1
:10208000CE018C960E944C3E81E001C080E0DF9141
:10209000CF9108952F923F924F925F926F927F92CD
:1020A0008F929F92AF92BF92CF92DF92EF92FF9268
:1020B0000F931F93CF93DF9300D000D0CDB7DEB73F
:1020C0005C014B016A01122F7B011B0124E0220EEF
:1020D000311CCA0104969A838983370168187908EC
:1020E0002E143F040CF445C0DC82CB824B805C8014
:1020F0004C185D0829813A818B819C81281739070A
:10210000A4F1F7FC12C0F50186A197A1E816F90623
:1021100064F480A591A52B813C81281739072CF404
:102120008B819C8197FF0BC01AC09201A301602F85
:10213000812F0E945F09882399F380E01BC09201E0
:10214000A301602F812F0E945F09882341F04B81FA
:102150005C81B701C5010E9434098111EECFEB818A
:10216000FC813196FC83EB83C1CF9FEFE91AF90A1A
:10217000B4CF81E00F900F900F900F90DF91CF912F
:102180001F910F91FF90EF90DF90CF90BF90AF9095
:102190009F908F907F906F905F904F903F902F9087
:1021A00008952F923F924F925F926F927F928F92FB
:1021B0009F92AF92BF92CF92DF92EF92FF920F93D6
:1021C0001F93CF93DF9300D000D000D0CDB7DEB700
:1021D0009E838D83DC0198960D90BC91A02DBA83CF
:1021E000A983C12CD12CE12CF12C44244394512CF3
:1021F00069817A81C616D7060CF076C0AD81BE81A2
:102200009696AD90BC90979700E010E00A151B05DC
:1022100064F4A601B8018D819E810E943409813049
:1022200009F05EC00F5F1F4FF1CF0A151B0509F0C3
:1022300057C00C9D10010D9D300C1C9D300C1124BD
:10224000C601612C712C181619060CF046C09301BA
:10225000220D331D812C912CFC0131975F018016DA
:102260009106BCF5A501B4018D819E812B833C8331
:102270000E9434092B813C81A401420F531FFA01B3
:1022800093E0F595E7959A95E1F7AD81BE819A9631
:102290006D917C919B97E617F707B8F4EA0FFB1F47
:1022A00047705527811109C0C20101C0880F4A95A6
:1022B000EAF7809594A5892307C0C20101C0880F61
:1022C0004A95EAF794A5892B84A7BFEF8B1A9B0A3E
:1022D000C6CFC501601A710AB6CFFFEFEF1AFF0A29
:1022E0004FEFC41AD40A84CFB2E0EB16F104D1F058
:1022F00058F4EA94EF2851F5AD81BE8158968D913E
:102300009C91599701961BC043E0E416F10481F0BB
:1023100054E0E516F104D1F4ED81FE81808D918DBC
:10232000409612C0ED81FE81808D918D04960CC087
:10233000AD81BE8158968D919C915997089659967A
:102340009C938E93589702C0918F808F26960FB6DC
:10235000F894DEBF0FBECDBFDF91CF911F910F91DB
:10236000FF90EF90DF90CF90BF90AF909F908F90B5
:102370007F906F905F904F903F902F900895FC0159
:1023800066A177A120E030E026173707BCF4F901F9
:1023900043E0F595E7954A95E1F7E80FF91F44A565
:1023A00050E0F901E770FF2702C055954795EA957F
:1023B000E2F740FD05C02F5F3F4FE6CF80E0089574
:1023C00081E008952F923F924F925F926F927F9299
:1023D0008F929F92AF92BF92CF92DF92EF92FF9235
:1023E0000F931F93CF93DF9300D000D0CDB7DEB70C
:1023F0006C015B017A01922F702F2501150124E0F9
:10240000220E311C4A0134E0830E911C6624639431
:10241000712C82010A191B09241435040CF44BC0D9
:10242000FC82EB822B813C812E193F09EB81FC81E0
:102430008E169F06E4F1A801672F892F7A8399836E
:102440000E945F097A819981882359F1D601969675
:102450004D915C919797EB81FC81E49F9001E59F02
:10246000300DF49F300D1124240D351DF90183E04A
:10247000F595E7958A95E1F79A964D915C919B9732
:10248000E417F50770F4EC0DFD1D27703327A30149
:1024900002C0440F551F2A95E2F79A0184A5282B04
:1024A00024A7AB81BC811196BC83AB83BBCFFFEF6C
:1024B0004F1A5F0AAECF0F900F900F900F90DF91E1
:1024C000CF911F910F91FF90EF90DF90CF90BF9031
:1024D000AF909F908F907F906F905F904F903F90C4
:1024E0002F900895CF93DF93009711F1DC0152965E
:1024F000ED91FC9153973097D9F0EC01488D598DAF
:102500004150510960E070E08889998909959DA33F
:102510008CA34A8D5B8D41505109EA89FB8960E0AB
:1025200070E08889998909959FA38EA381E001C0F5
:1025300080E0DF91CF910895FC0180A991A93097A7
:10254000A1F026A537A544A555A52417350720F0E9
:10255000C901841B950B0895880F991F880F991F37
:10256000841B950B820F931F089580E090E00895DF
:1025700097FD12C0892B19F477FF06C00AC0672B9C
:1025800059F482E090E00895672B31F083E090E009
:10259000089581E090E0089580E090E00895CF9262
:1025A000DF92EF92FF920F931F93CF93DF93182F39
:1025B0007B01EA0160E070E0C7010E944C3E83EBC2
:1025C00092E10E9446376C01612F70E08E01970105
:1025D00040E050E00E94582ACE0DDF1D219718825E
:1025E000C6010E94B737C701DF91CF911F910F91AC
:1025F000FF90EF90DF90CF9008950F9300E09C0143
:102600004EE75AE061E378ED82E00E949C2C0F9146
:1026100008950F9310927F0110927E0101E09C01BA
:1026200044EF56E166E178E988E00E949C2C0F9126
:1026300008950F9310927F0110927E0101E09C019A
:1026400044E157E162E275EC87E00E949C2C0F9117
:1026500008954115510579F0FB0101900020E9F73B
:102660003197E61BF70BEE0FFF1FEE0FFF1F34969F
:10267000DA01ED93FC932115310529F089E090E012
:10268000F9019183808308950F931F93DC01FA0170
:10269000A7FF0BC06115710529F48EE28083818349
:1026A000128209C0615071098F7789019F0140E052
:1026B00050E00E94582A1F910F9108957F928F92A7
:1026C0009F92AF92BF92CF92DF92EF92FF920F93C1
:1026D0001F93CF93DF935B01EA014901702ECC2455
:1026E000C3940C1511F0C12C0FC0E12CF12C870103
:1026F000E39429E030E048E350E0BE01675F7F4F9C
:10270000C5010E960E940C36D12CE12CF12C01E073
:1027100010E020E030E081E0781203C000E010E03B
:102720009801BE01655F7F4FA401C50140960E94DC
:102730005236DF91CF911F910F91FF90EF90DF9074
:10274000CF90BF90AF909F908F907F900895611130
:1027500003C0423069F507C04130C1F5613019F05E
:10276000623019F008950C949F1FE091D601F0910A
:10277000D701309721F40E9495220C942D272289AD
:10278000338946895789848995898417950718F470
:10279000138A128AF0CF2F5F3F4F841B950B2817A7
:1027A000390718F0938B828BE6CF338B228BE3CFE4
:1027B000413061F4E091D601F091D7013097D9F220
:1027C000828993890097B9F20197ECCF08950F930E
:1027D0001F93CF93DF9310927B0110927A01109296
:1027E0007D0110927C01C091D401D091D50100915E
:1027F000D6011091D701CB31D10550F0AE0160E088
:1028000070E0C8010E944C3E6B97F801D18FC08FD9
:102810008091D6019091D701009759F022E530E0E0
:10282000FC013587248720E330E0378726870E9424
:10283000A00E8091D6019091D701009749F028EF22
:102840003FE1FC0137832683158214820E94A00E8B
:102850008091D6019091D701009749F02FED3FE18B
:10286000FC0133872287118610860E94A00E87EA1A
:1028700093E19093E3038093E2031092E1031092BB
:10288000E003DF91CF911F910F9108952F923F9216
:102890004F925F926F927F928F929F92AF92BF9270
:1028A000CF92DF92EF92FF920F931F93CF93DF931C
:1028B00000D000D01F92CDB7DEB719821A821B82DA
:1028C0001C820E944D294091DC035091DD034E5F34
:1028D0005F4FC12CD12C760101E010E020E030E008
:1028E00061E070E082E190E00E94523652E0452EB5
:1028F000512C912C80E3890D8D8389E0682E712CF9
:10290000812CE091DC03F091DD0391100EC08CE38B
:1029100089839DE29A839B83808149E0242E312C18
:10292000A12CB12C882371F127C084E0981210C02B
:1029300095E499838EE48A8394E59B83808129E0E2
:10294000222E312C35E4A32EB12C8430A9F41AC0E8
:1029500080E289839D819A3339F0892F9B3331F04E
:102960009C3329F483E203C08AE201C080E38A83B6
:1029700080E28B83130152018081981212C0818101
:1029800088120FC0E12CF12C8701E39429E030E09C
:102990004FE050E0B101C5010E940C3611E000E0AB
:1029A0000AC029E030E04FE050E0B101C5010E94CB
:1029B000CA3610E001E01C8240E0B101C5010E946E
:1029C000422775019EE0E90EF11C40E0B101C7010C
:1029D0000E944227610188E0C80ED11C40E0B60188
:1029E000C5010E94422740E0B601C7010E9442276C
:1029F000C12ED12CE12CF12C10E020E030E0B1010F
:102A00006E5F7F4FAE014F5F5F4FC50102960E9420
:102A1000523683949D819D5F9D83C3010A963C013C
:102A200094E089126ECF939480E1480E511C95E09A
:102A3000991260CF0F900F900F900F900F90DF9131
:102A4000CF911F910F91FF90EF90DF90CF90BF90AB
:102A5000AF909F908F907F906F905F904F903F903E
:102A60002F900895EF92FF920F931F93CF93DF93D0
:102A70008C01EB010E94E713BE01C8010E941B38C4
:102A80009093790180937801BE01C8010E941B38A0
:102A90007C01BE016F5F7F4FC8010E941B38F7FCAD
:102AA00007C08E159F0524F09C012E193F0902C016
:102AB00020E030E03093770120937601E091D60159
:102AC000F091D701309759F0318B208B82E190E261
:102AD0009383828311830083CF010E94A00E0E9402
:102AE0009522DF91CF911F910F91FF90EF900C9461
:102AF0002D27AF92BF92DF92EF92FF920F931F9319
:102B0000CF93DF93CDB7DEB768970FB6F894DEBFEB
:102B10000FBECDBF611106C0423009F0F2C00E9465
:102B20009F1FFFC0413009F0FCC0613079F0623076
:102B300009F0F7C0E091DC03F091DD0380818F5F45
:102B4000853010F48083C4C01082C2C0A091DC0321
:102B5000B091DD0311962C9111979C919923F9F274
:102B6000943099F0905D822F880F280F920F9A333E
:102B700009F4D5C09B3309F4B0C09C3309F4BFC03D
:102B8000992369F2913009F0A9C08D010E5F1F4FA2
:102B900084E1E0E8F1E0DF011D928A95E9F7E12C9C
:102BA000F12CF701E95DFE4F5F01D08044E150E078
:102BB000BE016F5F7F4F8D2D0E94CF12BE016F5FF0
:102BC0007F4FC8010E945E3E892B09F06FC060E014
:102BD00070E080E999E10E94112744E150E060E84B
:102BE00071E0D50111968C910E94CF12B9E0DB12F1
:102BF0000DC080E390E30E944637909301018093DB
:102C0000000160E070E00E9432158BC0EAE0DE1245
:102C100022C01D8A1E8A1F8A188ECE0145960E94E8
:102C2000AA2983E38093800195E3909381018093A7
:102C3000820194E3909383018093840190938501B2
:102C40004D895E896F89788D21E086E891E00E9448
:102C5000102B109290010E94E713E0E8F1E0F0934E
:102C60007D01E0937C0101900020E9F73197E05865
:102C7000F140F0937B01E0937A01A091D601B091ED
:102C8000D701109781F05196FC93EE9350978AE705
:102C900090E213969C938E93129711961C921E921B
:102CA000CD010E94A00E0E94952214C0F2E0EF0E0A
:102CB000F11C88E0E816F10409F073CFE091DC0321
:102CC000F091DD0332968DE0DF011D928A95E9F7E0
:102CD0000E9446140E942D2724C090E39D012E5F80
:102CE0003F4FF90101900020E9F73197E21BF30B08
:102CF000EC30F10568F7EA0FFB1F9283E9CF93E20E
:102D0000EDCF413071F4E091DC03F091DD0381817E
:102D10008F5F843010F48183DBCF1182D9CF9AE2A8
:102D2000DDCF68960FB6F894DEBF0FBECDBFDF9142
:102D3000CF911F910F91FF90EF90DF90BF90AF90D8
:102D400008950F93CF93DF93EB012091020130910F
:102D5000030137FF0CC0009751F0909395018093C9
:102D600094010E9446379093030180930201609181
:102D700094017091950101E09E014FE857E186E0D2
:102D80000E949C2CDF91CF910F91089510927F01AA
:102D900010927E01BC0180E090E00C94A11680911D
:102DA000090190910A010E9403388FEF9FEF9093E1
:102DB0000A018093090180910B0190910C0197FF0A
:102DC0000E94B7378FEF9FEF90930C0180930B0118
:102DD0004091F2035091F30360E070E08091F003C2
:102DE0009091F1030C944C3E6130710549F020F054
:102DF0006230710579F008950E94CF160C949F1FE0
:102E00000E94CF1661E070E089E093E10E941127F3
:102E10000C94D0230E94CF1662E070E089E093E129
:102E20000E9411270C945C23AF92BF92CF92DF9245
:102E3000EF92FF920F931F93CF93DF93CDB7DEB73F
:102E4000C85CD1090FB6F894DEBF0FBECDBF6B01D1
:102E5000CE0101967C0188ECF70111928A95E9F781
:102E6000672B29F40E94CF160E949F1F46C082E262
:102E700095EC0E9446375C0108EC10E0970141E0B8
:102E800050E0B601615071090E94582AC5010E94A4
:102E9000B737F70101900020E9F73197EE19FF09E4
:102EA0003597A8F405E110E022E530E040E050E07D
:102EB00060E070E081E39BE40E943A280E942D27A5
:102EC00068E873E180E090E00E94432E16C00E9403
:102ED000CF16B60189E193E10E941127C7010E9434
:102EE000A0190E942D2789EB9FE19093E303809323
:102EF000E2031092E1031092E003C853DF4F0FB6D4
:102F0000F894DEBF0FBECDBFDF91CF911F910F911F
:102F1000FF90EF90DF90CF90BF90AF900895CF9348
:102F2000DF93EB01209791F40E94CF16809102016C
:102F3000909103010E94B7378FEF9FEF90930301A9
:102F400080930201DF91CF910C949F1F0E94CF16B6
:102F5000BE0186EC96E10E941127BE016150710905
:102F60008091020190910301DF91CF910C94321571
:102F70004F925F926F927F928F929F92AF92BF9289
:102F8000CF92DF92EF92FF920F931F93CF93DF9335
:102F9000CDB7DEB72E970FB6F894DEBF0FBECDBF0C
:102FA0001E861D861C861B860E944D29E12CF12C55
:102FB0008701E39425E030E043E550E065E070E010
:102FC00080E090E00E9453359E01235F3F4FAE01A9
:102FD000455F5F4F64EE73E080E090E00E9429134C
:102FE0004B855C8584E590E0841B950B96958795D1
:102FF0009E878D87E12CF12C870129E030E060E08D
:1030000070E00E940C368D859E85C12CD12C7601F6
:1030100001E010E020E030E044EE53E062E070E0D8
:1030200002960E94523680E00E94BE2881E00E94F3
:10303000BE28E090F003F090F1031A8619861886F6
:103040001F828AE68D831E82E114F10441F4E0912F
:10305000F003F091F103309709F0B8C0E7C0D70151
:1030600012968D919C911397892B89F31696ED9169
:10307000FC911797309759F31A968D919C911B9755
:10308000892B29F39E01295F3F4FAE01475F5F4FB8
:10309000BE016B5F7F4F14968D919C91159709959A
:1030A000F70184899589608D718D0E94F73D3B0100
:1030B0004C01A12CB12C6701FCE1CF0ED11CF70112
:1030C000808D918DA816B90610F6689E8001699EC4
:1030D000100D789E100D11240A0D1B1DD701569658
:1030E0008D919C9157970817190708F0B0CF1C8253
:1030F0001B821A8219825A964D905C905B97A201AE
:1031000060E070E0C6010E944C3E920121503109FE
:10311000D7011296ED91FC911397A601B8018D91FC
:103120009C910995D7015A96ED91FC915B97EE0D14
:10313000FF1D138E1696ED91FC9117979E012D5F42
:103140003F4FAE014F5F5F4FB60114968D919C913A
:103150001597099529813A81F7018089918982170C
:10316000930768F4F60101900020E9F73197EC1914
:10317000FD0929F0EE0DFF1D138ED701DBCFD7011E
:103180001A96ED91FC911B972F81388518968D9199
:103190009C9119978A149B0449F4829EA001839EF6
:1031A000500D929E500D112401E008C0A29EA00176
:1031B000A39E500DB29E500D112400E0960160E0D8
:1031C00070E00995BFEFAB1ABB0A79CF2489358926
:1031D000A688B788808D918D8A159B0538F547E2C2
:1031E000429FC001439F900D1124B5010E94F73DFD
:1031F0006B01E12CF12C8701E39420E330E048E4FB
:1032000050E069E070E088E490E00E94533587E286
:1032100090E0B5010E94F73D9B01B601675F7F4FCB
:1032200043E050E087E490E00E940C360E942D2796
:103230002E960FB6F894DEBF0FBECDBFDF91CF91B3
:103240001F910F91FF90EF90DF90CF90BF90AF90C4
:103250009F908F907F906F905F904F9008950C9407
:10326000B817611108C04230A9F587FF41C00E941C
:10327000CF160C949F1F4130D9F56130B1F0623008
:1032800009F00895E091F003F091F103309711F403
:103290000C94B817848995890196268937898217F5
:1032A0009307B0F7958B848BF3CFA091F003B09187
:1032B000F1031097E9F01E96ED91FC911F9730975E
:1032C000B9F054966D917C9155971C968D919C9177
:1032D0001D970994413061F4E091F003F091F103FE
:1032E0003097B1F284899589009791F20197DACFEE
:1032F0000895E091DC03F091DD0383E2DF011D928C
:103300008A95E9F789E795E19093E3038093E203D7
:103310001092E1031092E0030E9446140C942D27B2
:10332000809100019091010197FD08C00E94B7377C
:103330008FEF9FEF90930101809300010C94791916
:103340005F926F927F928F929F92AF92BF92CF9235
:10335000DF92EF92FF920F931F93CF93DF93CDB73E
:10336000DEB7E0970FB6F894DEBF0FBECDBF5C01AD
:103370008090D2039090D303E090D003F090D103DB
:10338000FC0101900020E9F731978F01081B190B10
:1033900039F49401A70160E070E080E090E099C00A
:1033A000009709F447C06C01FC018191811144C070
:1033B00017FD0FC19801AAE0B0E00E94E83D6E5FE2
:1033C0007F4F8F4F9F4F23E030E040E050E00E945E
:1033D000943D211580E83807410551050CF0F9C0EE
:1033E000C9010796BC01F3E076956795FA95E1F778
:1033F000653D710508F0EDC081E090E09AA789A7CE
:1034000059011CA70BA7AB0160E070E0C7010E9447
:103410004C3E18AA1FA660E070E080E090E01AE041
:10342000D6012D916D012223E1F030ED320F3A30BB
:1034300008F49BC00E941F3E80538A3008F4B5CF29
:103440003501F30161913F01662309F4ACC0062EFA
:10345000000C770B87E491E00E94533E892B89F79B
:1034600032C16115710569F09B01220F331F620F94
:10347000731F6F5F7F4F9E01215D3F4FA7010E9429
:10348000A40C8FA598A98A159B05A1F6EDA6FEA60A
:1034900088E0FE01B996DE01599601900D928A9559
:1034A000E1F788E0FE017996DE01919601900D9298
:1034B0008A95E1F788E0FE01B196DE015196019010
:1034C0000D928A95E1F79401A70161E070E0CE01C9
:1034D00041960E94822F882309F418C18091D2035B
:1034E0009091D3030E940D0B6C018C0197FF02C0D9
:1034F0000F5F1F4F159507951195019511090E94B2
:103500004D29E12CF12C065D1F4FEC14FD040CF04D
:10351000FDC0A12CB12C8091D2039091D3030097D0
:1035200009F488CFDC012C9130E0A216B3064CF4EC
:10353000E216F30634F4A701B5010E94DC0A282F35
:1035400002C020E030E0422F4170B701C8018A0D6F
:103550009B1D0E944227BFEFAB1ABB0AAC14BD04EF
:10356000D4F2EFEFEE1AFE0AD0CF189FA001199FF8
:10357000500D1124CA01C097820F911D27FD9A9505
:103580006F5F7F4F6330710509F04ACF9E01215D67
:103590003F4FA7016AE070E00E94A40C60E070E079
:1035A00080E090E03DCF17FD14C09801ABE0B0E0A3
:1035B0000E94E83DDC01CB010196A11DB11DB5952E
:1035C000A795979587958115F0E89F07A105B10507
:1035D0001CF0F40110829AC0AC01495F5F4F63E0B8
:1035E000569547956A95E1F7453D510590F722E0DC
:1035F00030E03A8B298B5C011C8B0B8B60E070E018
:10360000C7010E944C3E188E1F8A612C712C00E06D
:1036100010E04DE2542ED6016D916D01662349F103
:10362000062E000C770B87E491E00E94533E009732
:1036300009F400CF509E9001519E300D1124875403
:1036400091408C01020F131F6A94672871F49E0148
:10365000295E3F4FA7016BE070E0C8010E94A40CF7
:10366000612C712C00E010E0D6CF66246394712C9D
:10367000D2CF6A94672849F49E01295E3F4FA70183
:1036800066E070E0C8010E94A40C8F89988D8A15AD
:103690009B0509F0CFCEED8AFE8A88E0FE01719687
:1036A000DE01119601900D928A95E1F788E0FE0106
:1036B0003196DE01199601900D928A95E1F788E026
:1036C000FE013996FACE053D110508F082CFF701CB
:1036D000A00EB11ED6018D916D018193AA15BB0577
:1036E000C9F784E090E09A8B898BC801A0E0B0E034
:1036F00023E0880F991FAA1FBB1F2A95D1F7988F27
:103700008F8B1C8B0B8BED8AFE8ADDCEE0960FB67D
:10371000F894DEBF0FBECDBFDF91CF911F910F9107
:10372000FF90EF90DF90CF90BF90AF909F908F90E1
:103730007F906F905F9008952F923F924F925F928B
:103740006F927F928F929F92AF92BF92CF92DF92B1
:10375000EF92FF920F931F93CF93DF93CDB7DEB716
:10376000C151D1400FB6F894DEBF0FBECDBF182FA8
:103770007B0148EC50E09E012F5F3F4F2901B901CA
:1037800081E00E94CF12F20101900020E9F7319709
:103790001F012418350887EC90E0FC01E219F309B9
:1037A000CA5FDE4FF983E883C650D140C250DF4F75
:1037B000188219821A821B82CE5FD0409701A4E63C
:1037C000B0E00E94E83D4B015C01CE0182509F4F6A
:1037D0000E94AA293E01FEED6F0E711C60E1F62EDB
:1037E000F3012F2D11922A95E9F7C250DF4F8881FE
:1037F0009981AA81BB81CE5FD040F3018083918300
:10380000A283B38384829582A682B782108763E005
:1038100070E0C30109960E94792BC250DF4F888166
:103820009981AA81BB81CE5FD040F30184879587BF
:10383000A687B787AE014E5F5E4F60E170E0C301BF
:103840000E94E82BCE5FDE4F88819981AA81BB81DF
:10385000C250D140F30184879587A687B7878E0130
:1038600002511F4FF8011192FA94E9F78CED99E09B
:103870000E9446376C017E01F9ECEF0EF11C40E12D
:1038800050E0B7010E948C349C01C601C25FDE4F3C
:103890002883CE50D140C15FDE4F3883CF50D14016
:1038A0000E94B737C25FDE4F2881CE50D140C15F42
:1038B000DE4F3881CF50D1402031310579F4B80145
:1038C0008FEF90E00E94E537D701F80190E1900F6B
:1038D0008D912081822781939E13FACF80E1F70199
:1038E00011928A95E9F7F80180818093D80181814E
:1038F0008093D90182818093DA0183818093DB01F7
:1039000084818093DC0185818093DD0186818093B1
:10391000DE0187818093DF0180858093E0018185CE
:103920008093E10182858093E20183858093E301A6
:1039300084858093E40185858093E5018685809365
:10394000E60187858093E701ABEEB1E024E030E04B
:10395000FD01379770813196608131969081319663
:103960008081A90143705527452BE9F4E62FF0E04B
:10397000E056FF4E4491E92FF0E0E056FF4E64918F
:10398000E82FF0E0E056FF4E9491E72FF0E0E0568C
:10399000FF4E8491F901F695E795F695E795E1528A
:1039A000FF4F749174278D0103501109AD014351EC
:1039B0005109FA0140817427F80170830F5F1F4F8E
:1039C000AD0142515109FA0140816427F801608339
:1039D000BD0161507109AD0141515109FA014081A8
:1039E0009427FB0190833F97E0818E278C932F5F74
:1039F0003F4F14962C32310509F0AACF80E1F70130
:103A0000A8E8B2E001900D928A95E1F7A8E8B2E04B
:103A1000F30190E1960D8D912081822781939E1371
:103A2000FACF48ED51E0B30180E00E94E72E11E0AB
:103A30002EED30E02C0F3D1F2F5F3F4FC85FDE4F54
:103A400039832883C850D1402EED30E02C0F3D1F24
:103A50002E5F3F4FC65FDE4F39832883CA50D14067
:103A60002EED30E02C0F3D1F2D5F3F4FC45FDE4F2A
:103A700039832883CC50D1403EEDC32ED12CCC0EBF
:103A8000DD1E30E1C30ED11C0BE1CE0182529F4FEF
:103A90000E94D32EC152DF4F8881CF5DD040CD51DF
:103AA000DF4F9881C35ED040C152DF4F9883CF5D16
:103AB000D040C951DF4F9881C75ED040CD51DF4F14
:103AC0009883C35ED040C551DF4F9881CB5ED04014
:103AD000C951DF4F9883C75ED040C551DF4F8883FF
:103AE000CB5ED040C052DF4F8881C05ED040C8510D
:103AF000DF4F9881C85ED040C052DF4F9883C05ED0
:103B0000D040C851DF4F8883C85ED040CC51DF4FD2
:103B10008881C45ED040C451DF4F9881CC5ED040D4
:103B2000CC51DF4F9883C45ED040C451DF4F8883AF
:103B3000CC5ED040CF51DF4F8881C15ED040C351B1
:103B4000DF4F9881CD5ED040CF51DF4F9883C15E6B
:103B5000D040C751DF4F9881C95ED040C351DF4F7D
:103B60009883CD5ED040CB51DF4F9881C55ED04069
:103B7000C751DF4F9883C95ED040CB51DF4F888358
:103B8000C55ED040C85FDE4F48815981C850D140E2
:103B9000C65FDE4FA881B981CA50D140C45FDE4FF5
:103BA00028813981CC50D140C05FDE4F39832883D2
:103BB000C051D1409301F9018081FA01F080F826CB
:103BC000C05FDE4FE881F981C051D14060819C9196
:103BD00096279F25E92EE8267F2D771F7727771FC9
:103BE000709F602D1124FF0CF626EF24F901E0826E
:103BF000FA01E080FC90FE24E9267F2D771F7727CD
:103C0000771F709F602D1124FF0CF626EF24E082B1
:103C1000EC90C05FDE4FE881F981C051D140F08067
:103C2000FE24E9267F2D771F7727771F709F602D51
:103C30001124FF0CF626EF24EC926081862796274C
:103C4000782F771F7727771F709F602D1124880F9B
:103C50008627982790832C5F3F4F4C5F5F4F1496C9
:103C60003496C05FDE4FF983E883C051D1402C15F4
:103C70003D0509F0A0CF48ED51E0BE0162527F4FF3
:103C8000812F0E94E72E1F5F1A3009F0FECECE0171
:103C900082529F4F0E94D32EC152DF4F8881CF5D49
:103CA000D040CD51DF4F9881C35ED040C152DF4F2D
:103CB0009883CF5DD040C951DF4F9881C75ED04017
:103CC000CD51DF4F9883C35ED040C551DF4F9881FF
:103CD000CB5ED040C951DF4F9883C75ED040C551FD
:103CE000DF4F8883CB5ED040C052DF4F8881C05EFB
:103CF000D040C851DF4F9881C85ED040C052DF4FDE
:103D00009883C05ED040C851DF4F8883C85ED040E2
:103D1000CC51DF4F8881C45ED040C451DF4F9881C1
:103D2000CC5ED040CC51DF4F9883C45ED040C451AC
:103D3000DF4F8883CC5ED040CF51DF4F8881C15E9A
:103D4000D040C351DF4F9881CD5ED040CF51DF4F7F
:103D50009883C15ED040C751DF4F9881C95ED04083
:103D6000C351DF4F9883CD5ED040CB51DF4F988158
:103D7000C55ED040C751DF4F9883C95ED040CB515C
:103D8000DF4F8883C55ED04048ED51E0BE016252EE
:103D90007F4F8AE00E94E72E80E1FE01E252FF4F52
:103DA000A8E8B2E001900D928A95E1F7CA5FDE4F74
:103DB00028813981C650D1402115310509F462C0EE
:103DC0007201E20CF31C2D32310518F4F701108258
:103DD00059C080E1FE01E252FF4FDE01A753BF4F01
:103DE00001900D928A95E1F761E070E089EC90E036
:103DF0008C0F9D1F40960E94792B49EC50E04C0F90
:103E00005D1F4F5E5F4F61E170E0CE0187539F4FB2
:103E10000E94E82B8E0107531F4F312CC12CD12C4F
:103E2000F80191918F01292E22942FE02222622DF8
:103E3000832DC25FDE4F9883CE50D1400E94F12A7D
:103E400037016C0C7D1CF3018083C25FDE4F9881CB
:103E5000CE50D1409F70392E692F822D0E94F12AB9
:103E6000F3018183F2E0CF0ED11C2AE2C216D10405
:103E7000B9F6F701E30DF11D8081F70182A78DE30B
:103E800083A714A6C2010E94A0190E942D2789EBC6
:103E90009FE19093E3038093E2031092E103109279
:103EA000E00348EC50E0B20180E00E94CF12C12C48
:103EB000D12C760101E010E020E030E0A2016AE2BE
:103EC00070E080E090E00E94523620E0B501A4014D
:103ED000C2010E94102BF20101900020E9F73197F6
:103EE000E419F509EE0FFF1FEE0FFF1F01E010E0D0
:103EF00020E030E0A2016AE270E084E590E08E1BF1
:103F00009F0B0E9452360E942D27CF5EDE4F0FB6C8
:103F1000F894DEBF0FBECDBFDF91CF911F910F91FF
:103F2000FF90EF90DF90CF90BF90AF909F908F90D9
:103F30007F906F905F904F903F902F900895A09149
:103F4000DE03B091DF03109799F01197B093DF0370
:103F5000A093DE03AA0FBB1FAA0FBB1FAA56BE4F1A
:103F6000ED91FC91119712968D919C911397099464
:103F70000895413011F40C949F1F0895EF92FF9221
:103F80000F931F93CB01880F991F860F971FBA01BC
:103F9000660F771F460F571FBA016E5F7F4FE12CE8
:103FA000F12C8701E39423E030E043E050E00296F7
:103FB0000E940C361F910F91FF90EF900895CF92C1
:103FC000DF92EF92FF920F931F93CB01BA01A901E9
:103FD000C12CD12C760101E010E020E030E00E94FD
:103FE00052361F910F91FF90EF90DF90CF90089580
:103FF0004115510571F0FB0101900020E9F731975F
:10400000E61BF70BEE0FFF1FEE0FFF1FDA01ED931C
:10401000FC932115310529F086E090E0F9019183A8
:10402000808308958F929F92AF92BF92CF92DF923A
:10403000EF92FF920F931F93CF93DF935C016B017D
:104040008A0179012091760130917701E216F30619
:1040500020F0E0907A01F0907B01C216D306C0F503
:10406000C7018C0D9D1D2817390718F47901EC182C
:10407000FD08E114F10479F1609178017091790102
:104080006C0D7D1D40E050E0C5010E940935E8013E
:1040900000E010E08AE0982E9DE2892E41E050E099
:1040A000BE01C5010E948C34019781F488818C3255
:1040B00039F48AE0C816D10410F4888201C09882CD
:1040C0000F5F1F4F21960E151F0541F7C80105C050
:1040D0008FEF9FEF02C080E090E0DF91CF911F91C2
:1040E0000F91FF90EF90DF90CF90BF90AF909F9097
:1040F0008F900895CF93DF93E0917A01F0917B0147
:10410000E901E217F30708F4EF016E177F07B8F42F
:10411000CE01860F971FE817F90718F4EF01C61BA9
:10412000D70B209779F0CA0120917C0130917D0155
:10413000620F731FAE010E94313ECE0105C08FEFAA
:104140009FEF02C080E090E0DF91CF910895CB0116
:10415000880F991F860F971FBA01660F771F460FAA
:10416000571FBA016E5F7F4F23E030E043E050E01D
:1041700002960C94CA3695E0969FF001979FF00D39
:1041800011244F5F5F4F949FB001959F700D1124D4
:1041900025E030E045E050E0CF018C960C94CA3623
:1041A0000F931F93CF93DF930E944D29C091D603A5
:1041B000D091D703209709F440C0CE010E94BF11CF
:1041C0008130D9F10F8D10E04C8D5D8D4F5F5F4FC9
:1041D0006A8D7B8D2E8DCE010E944A104C8D5D8D97
:1041E000813029F44F5F5F4F5D8F4C8F23C06A8D04
:1041F0007B8D0F8D2E8DCE010E94E211CE010E948B
:10420000D110CE010E94BF11813089F4CE010E94ED
:104210003D0F088D198DCE010E94E00FEE89FF89B8
:10422000309759F0B8018C899D89099506C0CE0157
:104230000E94980FCE010E943D0F8091070190913E
:104240000801019631F0DF91CF911F910F910C94ED
:104250002D27DF91CF911F910F9108958091070134
:10426000909108010E9403388FEF9FEF909308010F
:10427000809307014091D4035091D50360E070E032
:104280008091D6039091D7030C944C3ECF93DF934B
:10429000EB010E942E2160E070E08EEC93E20E9420
:1042A0001127BE018AEADF91CF910C949C1B0F93DA
:1042B0001F93CF93DF93611134C0423041F40E94C9
:1042C0002E21DF91CF911F910F910C949F1F4130B0
:1042D00009F0BBC0C091D603D091D7032097D9F085
:1042E000CE010E94BF118130B1F00F8D10E04C8DD6
:1042F0005D8D6A8D7B8D615071092E8DCE010E947E
:104300004A10813041F48A8D9B8D01979B8F8A8F53
:10431000CE010E943D0FDF91CF911F910F910C9420
:104320002D27623001F5413009F08FC0C091D603CE
:10433000D091D703209779F3CE010E94BF1181302D
:1043400051F30F8D10E04C8D5D8D6A8D7B8D6F5F0D
:104350007F4F2E8DCE010E944A108130E1F68A8D6A
:104360009B8D0196D3CF613009F06FC0411123C0FE
:10437000C091D603D091D703209769F2CE010E9455
:10438000BF11813041F20F8D10E00F5F1F4F03709E
:1043900011274C8D5D8D6A8D7B8D2E8DCE010E94F7
:1043A0004A10813009F0B7CF8F8D90E0019683706D
:1043B00099278F8FADCF423009F047C0C091D60307
:1043C000D091D703209709F4A6CFCE010E94BF1148
:1043D000813009F4A0CF0F8D10E04C8D5D8D4F5FC3
:1043E0005F4F6A8D7B8D2E8DCE010E944A104C8DC1
:1043F0005D8D813029F44F5F5F4F5D8F4C8FEBCF28
:104400006A8D7B8D0F8D2E8DCE010E94E211CE0123
:104410000E94D110CE010E94BF11813091F4CE01D3
:104420000E943D0F088D198DCE010E94E00FEE898C
:10443000FF89309709F46FCFB8018C899D89099560
:104440006ACFCE010E94980F63CFDF91CF911F9169
:104450000F9108959A012F5F3F4F032E000C440BDC
:10446000550B072E000C880B990B0E94962DCB0143
:104470000895AF92BF92CF92DF92EF92FF920F9387
:104480001F93CF93DF93CDB7DEB72B970FB6F8947A
:10449000DEBF0FBECDBF0E944D292EE230E042E2CA
:1044A00050E060E070E080E090E00E94CA36E09169
:1044B000D603F091D703208D318DA4E6B0E00E94A1
:1044C000E83DAB01BC0120E0CE0101965C010E94F9
:1044D000102BF50101900020E9F73197EA19FB094B
:1044E000EE0FFF1FEE0FFF1FC12CD12C760101E054
:1044F00010E020E030E0A5016AE270E084E590E0A1
:104500008E1B9F0B0E9452362B960FB6F894DEBF7F
:104510000FBECDBFDF91CF911F910F91FF90EF9014
:10452000DF90CF90BF90AF9008958F929F92AF92FF
:10453000BF92CF92DF92EF92FF920F931F93CF9390
:10454000DF9300D000D000D0CDB7DEB70E944D2958
:104550000091D6011091D7011E821D821C821B8200
:104560008AE689831A820115110541F4E091D6018A
:10457000F091D701309709F066C08BC0D8011A9628
:104580008D919C911B97892B89F31696ED91FC9147
:104590001797309759F312968D919C911397892B09
:1045A00029F39E012D5F3F4FAE014B5F5F4FBE0170
:1045B0006F5F7F4F14968D919C9115970995A12C53
:1045C000B12CE12CF12CC12CD12C4801BAE18B0E7D
:1045D000911CF80180899189E816F90638F6F801EE
:1045E000208D318D2F5F3F4FA401B701C8010E947C
:1045F000D40D97FDBBCFE80EF91ED80152962D9130
:104600003C915397C216D306D0F056968D919C914B
:104610005797820F931FC816D90688F41A96ED9102
:10462000FC911B979401A50160E070E018968D91B4
:104630009C91199709958B819C81A80EB91EBFEF9B
:10464000CB1ADB0AC6CFE288F3880489158946892C
:10465000578940175107E8F430E3349FC001359F74
:10466000900D1124B8010E94F73DFB013E9DC00151
:104670003F9D900D1124B8010E94F73DE12CF12CD3
:104680008701E3949F0142E050E082E590E00E94C0
:104690000C3626960FB6F894DEBF0FBECDBFDF9165
:1046A000CF911F910F91FF90EF90DF90CF90BF902F
:1046B000AF909F908F9008950F931F93CF93DF93A8
:1046C000C091D403D091D5030091D6031091D703A4
:1046D000CD32D10550F0AE0160E070E0C8010E941B
:1046E0004C3EAC97F801D3A7C2A7E091D603F09156
:1046F000D703309791F182A593A5419740F08AE0C6
:1047000090E097A386A38EE090E091A780A789E32D
:1047100092E29383828389E395E09183808327EA01
:1047200030E237832683958384832BEB30E2338713
:104730002287918780872EEB3FE1378726879587F1
:1047400084878AE292E2938B828B118A108A86E4B4
:1047500091E2978B868B158A148A87E591E2909374
:10476000E3038093E2031092E1031092E0039F01C0
:1047700040ED50E26CEB72E080E090E00E945A293C
:1047800090930801809307018091D6039091D703FD
:10479000DF91CF911F910F910C94E00F0C945C234B
:1047A0000F931F93CF93DF938FEF80930601C091F8
:1047B000D803D091D9030091DA031091DB03C333FE
:1047C000D10580F0AE0160E070E0C8010E944C3E6F
:1047D000E297F801D1ABC0AB85E090E093A782A748
:1047E00011A610A6E091DA03F091DB03309741F1B6
:1047F0008AE190E0918F808F8EE090E0938F828F9E
:1048000089E59AE39383828389E395E091838083AA
:1048100028E33AE3338722879187808724E23AE3CB
:10482000378726879587848785E19AE3938B828BE8
:10483000118A108A82E09AE3978B868B158A148AF4
:104840009F0145E658E362E470E080E090E00E945A
:104850005A2990930501809304018FE794E2909385
:10486000E3038093E2031092E1031092E003E091EE
:10487000DA03F091DB03309729F1158E148E178E31
:10488000168E808D918D97FD01969595879591A3B4
:1048900080A3828D938D97FD01969595879593A31F
:1048A00082A385E090E093A782A711A610A615A683
:1048B00014A617A616A6CF01DF91CF911F910F91D5
:1048C0000C947212DF91CF911F910F9108958091F6
:1048D0000401909105010E9403388FEF9FEF9093A0
:1048E0000501809304014091D8035091D90360E001
:1048F00070E08091DA039091DB030C944C3E6111DF
:1049000007C0423009F06BC00E9467240C949F1FBF
:10491000413009F073C0613069F0623009F00895E8
:10492000809106018F3F11F482E007C08D7FE1F78F
:1049300083E003C0809106018F5F80930601809120
:104940000601843010F0109206018091060181303A
:10495000A9F028F0823009F1833081F10895E091C7
:10496000DA03F091DB03309709F448C0848D958D0C
:10497000019709F443C08FEF9FEF1BC0E091DA036A
:10498000F091DB033097D1F1868D978D0197B1F1CE
:10499000158E148E8FEF9FEF1FC0E091DA03F09118
:1049A000DB03309759F1848D958D019639F181E0C3
:1049B00090E0958F848F178E168E0895E091DA031C
:1049C000F091DB033097D1F0868D978D0196B1F091
:1049D000158E148E81E090E0978F868F0895413078
:1049E00069F4809106018F3F19F410920601A7CF58
:1049F0008D7F8130D1F340930601A1CF0895FB0153
:104A0000E651FF4F8491089520E031E040E050E00E
:104A100060E070E0CB010E94962D862F08950F93E1
:104A20001F93CF93DF93CDB7DEB7A2970FB6F8945D
:104A3000DEBF0FBECDBF8EE480937C0062E070E0ED
:104A400080E090E00E94432E80917A008064809301
:104A50007A0080917A0086FDFCCF209178008091C9
:104A6000790030E0382B032E000C440B550B64EB1F
:104A70007BE281E190E00E94943D243C89E038078C
:104A80006CF02C388AE038075CF0203F8AE0380769
:104A90004CF024353B4044F483E007C080E005C07F
:104AA00081E003C082E001C084E001E010E09801F1
:104AB00002C0220F331F8A95E2F7C901815080930B
:104AC000C00125E030E040E050E060E070E0CB0164
:104AD0000E94962D01C0000F6A95EAF701500093DD
:104AE000BF0180917E018823D9F142E250E068E065
:104AF00072E1CE0101960E94753D8EE690E39A87A1
:104B000089878FE592E69C878B8781E692E79E876F
:104B10008D8785E39DE7A0E08F87988BA98B809197
:104B2000BE01E82FF0E0F595E79521E030E02C0F8D
:104B30003D1FE20FF31F208180FD06C030E094E0AE
:104B4000359527959A95E1F72093BF018F5F809364
:104B5000BE018232A0F010927F0110927E010FC040
:104B600080917F018F5F8E3118F480937F0107C0A1
:104B700010927F011092BE0181E080937E01A29687
:104B80000FB6F894DEBF0FBECDBFDF91CF911F915E
:104B90000F9108950F931F93CF93DF93082F87E012
:104BA0000E94FC2D60E086E00E94FC2DC7E0D0E072
:104BB00010E0B8010C2E02C0759567950A94E2F7D3
:104BC000617077278BE00E94FC2D61E08DE00E94F0
:104BD000FC2D60E08DE00E94FC2D219750F761E0F4
:104BE00086E0DF91CF911F910F910C94FC2D0C94D6
:104BF0007D2EEF92FF920F931F93CF93DF93D62FCB
:104C00009C013327F901E452FE4E8491F901E853E7
:104C1000FE4EF490F901EC54FE4EC491062F10E0C4
:104C2000CC2371F081110E94D32DEC2FF0E0EE0F18
:104C3000FF1FEA52F04FA591B491EC91EF21F1F4EE
:104C4000F801E153FE4F808181111EC081E0808315
:104C50000E947D2E000F111F000F111FF801ED5350
:104C6000FE4F6083718382839383E091E203F0912E
:104C7000E303309709F447C041E030C0F801E15345
:104C8000FE4F8081811136C0C80181539E4F7C0147
:104C9000FC0180818130B9F50E947D2E000F111F2B
:104CA000000F111FF801ED53FE4F00811181228189
:104CB0003381DC01CB01801B910BA20BB30B893E2E
:104CC0009340A105B105F8F082E0F7018083E091FF
:104CD000E203F091E3033097B1F042E06D2F809151
:104CE000E0039091E103DF91CF911F910F91FF902D
:104CF000EF9009941082E091E203F091E303309782
:104D000011F040E0EBCFDF91CF911F910F91FF9019
:104D1000EF90089560E082E090E00E94F92561E064
:104D200083E090E00E94F92562E084E090E00C943A
:104D3000F9250F931F93CF93DF93CDB7DEB72B9752
:104D40000FB6F894DEBF0FBECDBF8C014BE050E034
:104D5000BE016F5F7F4F82E00E94CF124AE050E0B9
:104D6000BE016F5F7F4FC8010E94243E21E0892B66
:104D700009F020E0822F2B960FB6F894DEBF0FBE0D
:104D8000CDBFDF91CF911F910F910895EF92FF92C8
:104D90000F931F93CF93DF93EC018B017C01E40E03
:104DA000F51ECE15DF0541F0F80161918F01CE01AE
:104DB0000E94863D2196F5CF81E0DF91CF911F9132
:104DC0000F91FF90EF900895CF92DF92EF92FF92B4
:104DD0000F931F93CF93DF9397FD18C069017A015A
:104DE0008B01EC0140E050E00E94093508171907DB
:104DF00069F4A601B701CE01DF91CF911F910F9108
:104E0000FF90EF90DF90CF900C948C348FEF9FEF5A
:104E1000DF91CF911F910F91FF90EF90DF90CF9096
:104E200008952091DE033091DF032A30310588F4A4
:104E3000F901EE0FFF1FEE0FFF1FEA56FE4F9183A1
:104E40008083738362832F5F3F4F3093DF03209310
:104E5000DE03089560E00C94CA25CF93DF9380E8C9
:104E60000E942A2780E40E942A27C8EDD1E061E051
:104E700089910E94CA2583E0C03DD807C1F7DF9120
:104E8000CF910895F4E5F69F9001F79F300D11241E
:104E9000820F931F60EA72E00E940B3EF69F900122
:104EA000F79F300D112464E570E00E940B3EF9017C
:104EB000E80FF91FE83F81E0F80788F4E852FE4F59
:104EC00081E090E001C0880F6A95EAF7442319F069
:104ED0009081892B03C080959081892380830895D8
:104EE0000F931F93FB01BA0141E0012B022B032B0F
:104EF00009F440E0CF011F910F910C9442272F92AB
:104F00003F924F925F926F927F928F929F92AF9259
:104F1000BF92CF92DF92EF92FF920F931F93CF93A6
:104F2000DF93CDB7DEB728970FB6F894DEBF0FBE7C
:104F3000CDBF3B012A01302F512F20320CF420E24B
:104F4000812C912C2052822F90E0880F991F8C0188
:104F50000F51104FBC016052704F78876F83F8017A
:104F6000849180FF03C0C401019701C0C401009770
:104F700019F4EF81F8851BC08130910519F4EF8198
:104F8000F8851CC08230910571F4EF81F885949109
:104F9000F80124919370F4E09F9FC0011124922F97
:104FA0009270892B10C08330910529F4F801849107
:104FB00082958F7007C0049721F4F801849186953B
:104FC00001C080E08E70212C312C682F70E07A8334
:104FD0006983C401840D951D9C838B8383E090E0DD
:104FE00082199309E981FA8102C0F595E7958A95BE
:104FF000E2F7E0FD03C0C501D60103C0C701A32F3E
:10500000B52F41E0892B8A2B8B2B09F440E06B8173
:105010007C81C101860D971D3D835E830E944227DE
:10502000FFEF2F1A3F0A3D815E8144E024163104D0
:10503000A9F66FEF861A960A76E08716910409F0B2
:105040008ECF28960FB6F894DEBF0FBECDBFDF918E
:10505000CF911F910F91FF90EF90DF90CF90BF9075
:10506000AF909F908F907F906F905F904F903F9008
:105070002F9008952F923F924F925F926F927F925E
:105080008F929F92AF92BF92CF92DF92EF92FF9258
:105090000F931F93CF93DF9300D000D01F92CDB713
:1050A000DEB72B017A0149010E9446376C01198253
:1050B00098012E0D3F1D3D832C838701612C712C9F
:1050C000A12CB12C2C813D8102171307E1F1E12CB9
:1050D000F12C130181E0281A3108E814F90461F178
:1050E000C1018E199F099C01277033273B832A83B6
:1050F000C7018A0D9B1D87709927892B51F441E0C8
:1051000050E0BE016F5F7F4FC6010E948C34019753
:10511000D1F4498150E00A8002C0559547950A9420
:10512000E2F74170B801C701840D951D0E94422726
:105130003FEFE31AF30AD1CF0F5F1F4FA80CB91C42
:1051400068187908BFCFC6010E94B7370F900F903B
:105150000F900F900F90DF91CF911F910F91FF90C3
:10516000EF90DF90CF90BF90AF909F908F907F9007
:105170006F905F904F903F902F900895AF92BF92A5
:10518000CF92DF92EF92FF920F931F93CF93DF9313
:10519000A82EB090BF01811108C0B090C001C1E03D
:1051A000D0E04EE4C42ED12C04C0C0E0D0E0C12C2D
:1051B000D12CE12CF12C870126E230E046E050E0D2
:1051C00060E070E0C6010E940C36CC0EDD1ECC0EF5
:1051D000DD1EB3FE0DC0E12CF12C8701E39427E026
:1051E00030E044E050E060E070E0C6010E940C3620
:1051F000CC0EDD1EB2FE0DC0E12CF12C8701E39434
:1052000027E030E043E050E068E070E0C6010E9433
:105210000C36CC0DDD1DB1FE0DC0E12CF12C87014B
:10522000E39427E030E042E050E060E170E0CE013E
:105230000E940C36B0FE0DC0E12CF12C8701E394E6
:1052400026E030E042E050E068E170E0CE010E94EC
:105250000C36A1100CC0BE016250710906E010E0CE
:1052600024E030E04FE150E089EE94EA09C006E026
:1052700010E025E030E04FE150E0BE018DE69CE516
:105280000E943A28DF91CF911F910F91FF90EF90EC
:10529000DF90CF90BF90AF90089588EF91E0E8ED58
:1052A000F1E0DF019C011D9221503040E1F70895AB
:1052B0000C944D298F929F92AF92BF92EF92FF92E2
:1052C0000F931F93CF93DF93E091D504F091D60411
:1052D000309799F1E090D704F090D804A3EDB4E0B2
:1052E000C0E0D0E0CE15DF0541F11C9614960D917B
:1052F0001C911597012BF9F479018A014B015C018E
:105300008091D3049091D40409952CE02C9FF00156
:105310002D9FF00D1124ED52FB4F62877387848718
:10532000958786829782A086B186F786E686118B5E
:10533000008BCE0104C02196D5CF8FEF9FEFDF9178
:10534000CF911F910F91FF90EF90BF90AF909F90E2
:105350008F900895EF92FF921F93CF93DF93CDB775
:10536000DEB76B970FB6F894DEBF0FBECDBF7C01E2
:10537000BE016F5F7F4F80E090E00E94E537882399
:1053800009F45BC0CE0101960E94992681115BC091
:105390004BE050E0BE016F5E7F4F82E00E94CF1273
:1053A0008AE0FE017196DE01119601900D928A95B8
:1053B000E1F780E00E942C2E182F0E9404258127FF
:1053C0008D8781E00E942C2E182F0E9404258127B2
:1053D0008E8782E00E942C2E182F0E9404258127A0
:1053E0008F8783E00E942C2E182F0E94042581278E
:1053F000888B0E947D2E2D853E85622773277E87B0
:105400006D871C861B8640E150E0BE016F5F7F4FB9
:1054100080E090E00E94C626882379F0BE016F5F8D
:105420007F4F80E090E00E94E537882331F0CE0185
:1054300001960E949926811106C0F70110821182FF
:105440001282138209C08D859E85AF85B889F701C8
:1054500080839183A283B3836B960FB6F894DEBFEB
:105460000FBECDBFDF91CF911F91FF90EF900895B8
:105470000F931F93CF93DF938C0142E050E060E0E5
:1054800070E00E940935EC0197FF03C080E090E0D6
:105490000AC040E050E060E070E0C8010E940935B9
:1054A000892BA1F7CE01DF91CF911F910F91089524
:1054B0002F923F924F925F926F927F928F929F9224
:1054C000AF92BF92CF92DF92EF92FF920F931F9312
:1054D000CF93DF9300D000D01F92CDB7DEB74C0141
:1054E0007D836C831A016901F90110820E94382AB8
:1054F0009B838A831982C114D10409F45AC001150F
:10550000110509F456C0F6011082612C712CE12CB2
:10551000F12CA12CB12C412C512C2A813B816216FB
:10552000730609F446C021E030E0AE014F5F5F4FE3
:10553000B301C4010E94E4260197D9F58981A21420
:10554000B30419F52C813D8142165306F1F48C32D7
:1055500081F18A3071F1882361F1E016F10630F0B3
:105560000C0D1D1DF8013197108223C0F601EE0DC0
:10557000FF1D80833FEFE31AF30AE016F10680F780
:10558000F601EE0DFF1D108210C08C3221F48FEF5A
:10559000A81AB80A0AC08A3031F49FEF491A590A8A
:1055A000A12CB12C02C0882321F0EFEF6E1A7E0AE5
:1055B000B4CF0F900F900F900F900F90DF91CF917D
:1055C0001F910F91FF90EF90DF90CF90BF90AF9021
:1055D0009F908F907F906F905F904F903F902F9013
:1055E000089580FF12C081FD0AC06A3010F480E384
:1055F00011C06A3089F06B3089F083E40BC082FD02
:1056000002C08BE407C08BE605C082FD02C081E4C6
:1056100001C081E6860F08958FE508958DE2089513
:105620004F925F926F927F92AF92BF92CF92DF9232
:10563000EF92FF920F931F93CF93DF93EC016A01D8
:105640007B01022F4AE050E060E370E00E944C3E94
:105650001A861AE08AE0482E512C612C712CC11454
:10566000D104E104F10481F011505E01A10EB11CDE
:10567000C701B601A30192010E94C63D605DF5011C
:10568000608369017A01EBCF011124C060E0FE0163
:10569000E60FF11D8081803311F46F5FF8CF6A301F
:1056A00009F469E070E04BE050E0461B570B6C0FCB
:1056B0007D1FCE01DF91CF911F910F91FF90EF9051
:1056C000DF90CF90BF90AF907F906F905F904F90A2
:1056D0000C943A3EDF91CF911F910F91FF90EF9084
:1056E000DF90CF90BF90AF907F906F905F904F9082
:1056F00008950F931F93CF93DF93EC018C01060F56
:10570000171FC017D10721F00E9404258993F9CFF4
:10571000DF91CF911F910F910895EF92FF920F9318
:105720001F93CF93DF93CDB7DEB760970FB6F89492
:10573000DEBF0FBECDBF0091C1011091C20180E15B
:10574000E82EF12C60E170E0CE0101960E94792BE9
:10575000E091D201F091D30140E150E0BE016F5FD2
:105760007F4FC701099580E1E80EF11C80EEE81635
:1057700083E0F80639F7DE01119620E030E08AEA8E
:10578000F9013496E00FF11F9491982792279D9389
:105790002F5F3F4F2031310599F7F80174968491BE
:1057A000E091D201F091D30140E150E0BE016F5F82
:1057B0007F4F90E0099560960FB6F894DEBF0FBE5C
:1057C000CDBFDF91CF911F910F91FF90EF90089582
:1057D0008F929F92AF92BF92CF92DF92EF92FF9201
:1057E0000F931F93FA011082118212821382680FA5
:1057F000791F86179707A1F1C080D180E280F380DE
:10580000DC010D91CD010C2510E020E030E048E0F6
:1058100050E000FD09C0B0E28B2EB3E89B2EB8EB40
:10582000AB2EBDEEBB2E03C0812C912C54013695BE
:10583000279517950795082519252A253B254150B9
:10584000510939F7CD2CDE2CEF2CFF24F0940C25D8
:105850001D252E253F250083118322833383C9CF45
:105860001F910F91FF90EF90DF90CF90BF90AF907E
:105870009F908F900895CF93DF9390E0FC01E853C1
:10588000FE4E2491FC01EC54FE4E8491882361F17C
:1058900090E0880F991FFC01E056FE4EC591D4910F
:1058A000FC01E655FE4EA591B491611109C09FB768
:1058B000F8948881209582238883EC912E230BC055
:1058C000623061F49FB7F8943881822F80958323EA
:1058D0008883EC912E2B2C939FBF06C08FB7F89432
:1058E000E8812E2B28838FBFDF91CF9108953FB79A
:1058F000F8948091F9039091FA03A091FB03B09181
:10590000FC0326B5A89B05C02F3F19F00196A11DE9
:10591000B11D3FBFBA2FA92F982F8827820F911D45
:10592000A11DB11DBC01CD0142E0660F771F881F8C
:10593000991F4A95D1F708952F923F924F925F9207
:105940006F927F928F929F92AF92BF92CF92DF928F
:10595000EF92FF920F93CF93DF931F92CDB7DEB7F5
:10596000982E6B012A011901E090F203F090F303E5
:10597000A090F003B090F1038DE1E816F10460F01F
:10598000A70160E070E0C5010E944C3EECE1EE1A18
:10599000F108F501F38EE28E8091F0039091F1030E
:1059A000009759F028E330E0FC01318B208B27E28F
:1059B00030E0338B228B0E947D0D8091F00390911B
:1059C000F103009749F029E233E1FC013783268394
:1059D000158214820E947D0D8091F0039091F10355
:1059E000009749F02EE533E1FC01338722871186C9
:1059F00010860E947D0D4CE050E064EE73E0892D2E
:105A00000E94CF12C6010E9446376C0190930C0190
:105A100080930B014C01002311F0689487F8C601B4
:105A20000E94382A3C011982E12CF12CA12CB12CC6
:105A3000A614B70419F1E114F10419F4EE24E39467
:105A4000F12C21E030E0AE014F5F5F4FB501C601A0
:105A50000E94E426019719F0E12CF12C0FC08981F6
:105A60008C3241F08A3021F4FFEFEF1AFF0A02C0B6
:105A7000882321F08FEFA81AB80ADACF002319F093
:105A8000EFEFEE1AFE0AE091F003F091F103309788
:105A900059F0F78AE68A84E493E1938382839182C2
:105AA0008082CF010E947D0D8091F0039091F103DF
:105AB000009739F0FC0157864686158614860E94A9
:105AC0007D0D20E030E04FE259E168EE73E080E0C8
:105AD00090E00E945A2990930A018093090181E382
