:100000000C948B080C94A8080C94A8080C94A808CD
:100010000C94A8080C94A8080C94A8080C94A808A0
:100020000C94A8080C94A8080C94A8080C94A80890
:100030000C94A8080C94A8080C94A8080C94A80880
:100040000C94FF1E0C94A8080C94A8080C94A80803
:100050000C94A8080C94A8080C94A8080C94A80860
:100060000C94A8080C94A80883A6CE3D6FBAE1951D
:10007000728653888940DA0512FE75CAE88C71745D
:10008000904B715FDC683B8F44CC217D18283AEAA5
:1000900064E31F7372F119BA70E8E15F84444CBDE8
:1000A00024CDA4CA2F69DD84E0F001B297965CC725
:1000B0001701EE6495B1DA2865B1E99C7C895F850A
:1000C0008B43DA0414F97186FCF5055684DEA94FDA
:1000D000B460B6B876ED3127D45EAB8FE1F24397CA
:1000E000C3B652A775AFAD7F00DECA27AB5C7A13EB
:1000F000EFBC4A3043A5528642428813C9DD32B86C
:1001000041650EFCA97D2570887DAB7177BF26F80F
:10011000E00A85725039C99A500A7D9B90BC64648C
:10012000A239E5F318927F8354A6F7237F0AEE1BCA
:10013000C21D19D14C92866BFF0421B84C61B66C7C
:1001400017F106D2F1A5E2F047A941303AE9782A41
:1001500065E3FBA4C4CE06C2A354D95213B9D92176
:10016000CA5261C4B6EC9B7D5C083037DD65F3E5AF
:10017000068C7BF7966443F0A1749065B747C5F28F
:100180005746A210CC3B0823471B3C6964027A2ED9
:10019000FD05B0AB938BB663E9CDA6547ED583F64F
:1001A000F32533E9EF27BE5E0804828346B6C16DAE
:1001B0002F0AFD6C6CB4A372B51EF1E4719A702C19
:1001C0004BC28045184D868469B3C909EADBC1C2B8
:1001D00087B0AACFC8DF8E3AB1A9B27AA641F2CFD2
:1001E000583D3EBB5C79EA16CC82B8B5725770DADE
:1001F000BB937D58BC2E7C968205EAA67312563FAF
:10020000594C55A88625C1A4E57E7882F31C9340FD
:1002100093619D89AA82E24CCF5102177B938ADCBD
:10022000467345FB8C956EB5E212D8439B8D62E810
:1002300010B55EACF92D7500F80DDB3107CF50908D
:10024000F8BE7B3A4045B9EA00D86B41184EBD373D
:10025000F269B5AB749AF49F546707134F3A5C6E1A
:100260007B0B8B681CA2B65B29FCB654E91876BCE4
:10027000C721D602DEDE148F7F59B63CCDE98270ED
:100280002DC659D434C117CDF33BA27C6C8109FE35
:10029000D4BD4D1ECC96E107EC38E0E02EB5697F69
:1002A0009C16E3C7A8A20ADFFB8E6A9F4D97955D57
:1002B000C81602EF5D94B2DB3704B2E89B7D864E30
:1002C0008A8A40D20315FA70BAA37A045182B1A87F
:1002D00040B563765657EE30BEE55DAA88D2EE2F64
:1002E00098C2A2AF2074ACA865F40BD74655EB7B3F
:1002F0001CEE00940AD09F926E0341890335298534
:100300006B23E8E7FBA87CDA50FF8D748A8C3C27CE
:10031000F7BED36AAE2AD617ED510977663464D09A
:10032000DD6EC464F418EE2E23237E8BDBB709EF59
:100330003B297BEF3BBA6E5E74FE0ED26E4D1EA85B
:100340000C0BCE17D550A80AFF270B49F4C01A781A
:100350007B60D3AB6C3ACD19C22256F87624A55BEC
:1003600022FE95BCC2F5FA8BB64A8C4EAC67872547
:100370004B56D3C59C64964530BD0D843682B35927
:10038000DC663B52C53779F3BB2BBA1CF008195B0E
:100390000205E6C77EAD897D1E92C859D4FFAD8D9A
:1003A00008E216254E71F444E73FE76842B8AFF71C
:1003B0008797FED29276D96D94A9294B9C0414E1BB
:1003C000C5627C11629261F8D2AE67299EEEC4B11B
:1003D000504744419568858F94618AAB42DE439BC8
:1003E000C5E630A2A1A08D10EBDA1BA44BB5745169
:1003F000D9A75F32CBA6AAA0347AF90BAE8AD2A7CE
:1004000040459347B078D8C317FA73725831DFED7F
:1004100089EE997C8EB47C7DA9321DC4EF8450C3D3
:100420002CDE8FBA393DA9A048E311D904A289A2D4
:1004300026E844418BF82E6A17013E4508030C5705
:1004400087EEAEEB2320BB68EF41592F2C460FFD02
:1004500025CB4D34A449C149F4799E0134BE39DF1E
:1004600024CFE82FE4054189A42ED9FF9063D01949
:10047000B3B9A0D705DFDD5790B1DA48DBCCEA830A
:100480007D2CF8DCD30A2296F2F23CA37B6D801916
:10049000F1D5BE4C19CD95E118ED3B61E72FB69033
:1004A000719D15E2C0A9590AA0FA8D6B984C9494DD
:1004B00052C91503D8E297B3C43667B3AF8A7894AC
:1004C00051898941DC3C16FB497B22F703D096C257
:1004D000DF41B0AC417F74EF2F36559CAD751DEEFA
:1004E0004D99C1B3CB5E76A1B465E2DCCC2E6A9E99
:1004F000041D03C1903641A48358404081EA761F11
:1005000034B7BB9708FAAB80C4BE8A7FB4B475BD5C
:1005100028C91DF483745134CF04D28F8422AAFEDB
:100520007A1AD9F863F5ED7FE13D56BB16D9250857
:10053000EC2A3C191BD4B0AF6174FD0BD785B0E237
:100540004991F24300F43BB4DAE1B024A7F41F1B55
:100550007B519F1BD6BAB80AF9240616F4A2BF60D5
:1005600016D1D44DA437EF44CF2FE11529561C786E
:10057000A743EE74366E443025F048D83CC98064F9
:1005800036B608C054F931CF4F0B5BDDB49CF80F81
:10059000D484FCCBCB41C7459C5AABCEA05D3F2851
:1005A000ECF347B8C57B4FF6D9913C16E39F7D42EB
:1005B000A7FC2F09640BC79B7A9F16766ED26F84B7
:1005C0004E5A3BFFAE5CB6B21706A84E48919DCF7F
:1005D0004AC790491F07A8257F96CFF5FA815D5B32
:1005E0002AFD59585F87FC7C1BE8B792DE8D9E661A
:1005F0001D722861CB54D927C0499968CCAF6AD005
:100600007641816250F55AFF8F66C49261272ABEF7
:10061000A00716647C51A6BEA0684C131C3196EC52
:100620004CD1E1B26779BFA714B071EF3FC61A345D
:10063000931793B056B5071F6B0105F0C10F252D19
:10064000A7459DBC0CFBD3BA67CA1DA45A3105113E
:10065000C5B5EFFC425ACDFFCAF2996B38EAB22712
:100660002DD20D16D018816FB75CD225077E9ECD96
:10067000174D3ADC0FFB2323F56EB2A44FC530149F
:100680007381D004582DC93CD60C0EC65B85917C75
:10069000F80F2940B4E7316B001DEEC7BAA43CBA8D
:1006A0006722F0758EA4A75221C48DFE05EA1C9521
:1006B000D900A370619A4DFED8B145158EC1B60818
:1006C000F327A6EA35B46572B72FCEB1936D3EA974
:1006D000B2D36DBA6FFCEE1C944B49FB33D8FE933A
:1006E0006C76B5EFC422D5583021F167BEBE43DD2C
:1006F0007F167181970C406FDB3EF22522FC38A0FB
:10070000A450D974604D90CB2C1767D81BC411101E
:100710009C09B18271A2465E2E85E43B6A1EB04BF5
:10072000F50A10810EEFFC5786765524AEFA611D4E
:100730006A8465CF144EBC20FBF605910E107880BC
:10074000DD580C38CD3BE63D52964EFFC32FAF5BD4
:100750006618E3BD69766EB74996494E8959FAD64F
:1007600030A04A6848BCEB54C2A243BA00DDEC2773
:10077000B96623C20FE5C2A1471493C5F776AF67E8
:10078000A4A574FE6F18C310BAA4D42163E5F49B2A
:1007900020A151909C5CC21916F23DAEA7D63F2213
:1007A000B9EC9133945C89CC35B5756E924ADBD245
:1007B000AA4B0DD892A236E136E1ED2CB9793E9CD8
:1007C00011A0D2A75E48FF83C627D94AFED71F8C47
:1007D0005253E209D0E5967B31FEBBD151A34E9531
:1007E0009153CA4559F560964620D5D709120ACECD
:1007F00020E33031F86AF1E066DF321C2CA1D71219
:1008000055339200F92E3EF62DF4DB37B1496A528A
:10081000A2B07B2159B442C70F4EFE5CBCB454D188
:10082000412440B8A9246A05C931A37E60FF35F789
:10083000ED088A7C5579CA95450679DB60BD726101
:10084000E22BE0F21CD27E4C01F4F7773A52BA1B4D
:100850008C5E4A820DD5C338F36C6F11FAA41B4627
:1008600006E01CC31E4F89536E7B9C1CEDD5C10353
:100870004F9CC5AD4AA827B2AD2BE62439917BA188
:1008800091E30957DC8EA1429208989152C9590010
:10089000EA2695B6D52F3BBFE78433C373869145CF
:1008A000D9081BFA7FC4E48B741CD79AF860907F38
:1008B000A8A060FB6368C651B39DF6440C99A1CD16
:1008C0003EC61BA9CD159B4163E940B0A9CB31625F
:1008D000F8BF89728A518CCC07DD6F4EB936CBE2F6
:1008E00082796FD8AFD33ACFEC3D36FC2496A14045
:1008F000CC235A5487DD1E552CB444AB7C73BC67A3
:10090000AAFD0C8E74517A95B90E6909E259FC1052
:1009100008D24791C86BF8062D56A6EF3A6959DD03
:1009200029F31B48F24F8093018D695E36D6DF6351
:100930001268C25CA07173B034F7977DC9361B731F
:10094000CF81165329C532A65F1EAC0BDE8D10A7D2
:1009500050715EF8B62D0648BD4197014E9C56F881
:10096000D12BB046201EF0BE889A8A44B768F49D09
:100970007CFD302DDC4BB89DF75A6B9ACEB71EED3F
:10098000319CA06DE54F5C8835C8EEC72E3CF5A6BE
:10099000D531864FD2BF72FB2A2BD853A287821241
:1009A0005F9CC0BF38EC3DDEA969F26C61CD5DA4EF
:1009B00085ED5D1380BEE004E731EEE76E93607D68
:1009C0008E13A3E4A05B05D1BEC26A972BF49C5D95
:1009D000A65356B82CC6F9883B0FEBA4D238A7749F
:1009E0009E9051CB5358F664634E2694DC4969209F
:1009F000D230E22D7FDB6FBEBC46DE2B1864D1E522
:100A0000195031D62EFD222B966F988A6CAA283267
:100A10004FAB92412358B543C90E4D9C0ED8CE63BF
:100A2000FA4C074BADED30707A9B7BB9367FB267DD
:100A3000D0ED0790765933C682113955BF29926C93
:100A400068B135E7FB1785747319E9B3762D09BBD7
:100A50005BC07C5D9008D0D37498427D0DE5A265A3
:100A60002616914885560DB5F2313EC248A893FC32
:100A70000110AEC2E376BB6AB4AB67B30838C159A4
:100A8000B38083761CC797E0789007C4CD0C960896
:100A90000DA14193A9990A76BFF99837BB55889261
:100AA0004BD64555B8599EAFBD437BA0C6B05EAB93
:100AB00020F6B568F623368A12A4EAA64A40E29BDD
:100AC000F851D137E2ED2BB25A09842DDEF2DE5314
:100AD00034E5A7CD2B91419DE8129E4559DC5397F3
:100AE000BEDC2D2FF1EA806766B86031F32998BB30
:100AF00058C7301C7184DC4F6337DD27BD1420EEEE
:100B00006DB4BB4BCA642E64A4FF624B12FE0ECBC5
:100B100017099C7F9C95738D637C16EEB1656C15EF
:100B2000BC5483535D975F8DA426826F5625C48085
:100B3000411C62C353BD7E79B871CCFF069F7D58BE
:100B40002DCC961B336097678C50439802CE820E53
:100B5000A644625FDCB1623750A123F01716D64578
:100B600097D033F8143050A90580D4E06BB560B746
:100B7000BA7FAA1C2BC744AF9CEA0106A0DCBC517B
:100B8000A063E48D6AF12838F02EB9ADD92C78CA6B
:100B900099D733CD14CF9C589C5F48AD2BDCBACE8F
:100BA0007342BBF69279CF51F3E831AD7C2D9501BC
:100BB000E5DDFE6816CE9EE50AA11DF3E221B560D3
:100BC0007998788891FB035AB0AAC06789568484C3
:100BD0000284196F9D0CF4DBC45415D68EF153A119
:100BE000409199518C4F1AEA956D4E678E9C237AED
:100BF000018171D13B3DE17DAAFE16F5004951937B
:100C0000C20B4437D533F36D21DE54958976A53A6E
:100C10003553EDB86C5B00F318B56A519400D98F69
:100C200071BA517D19EAFB32574A837AED5F74AF8E
:100C30002CB6B543B3754128C08B400C68DD5AB261
:100C40006F6BB33E8E9F48CA082D06E9FD366718C4
:100C5000F0458E157E9B0290C13AA8582823F0B12A
:100C60007D3115B252910C6E7FED3225C70AAB94DF
:100C7000BC3B4CC797B64EB639A5A87BE73E7E81F4
:100C800069F3D4AF224D9FD69C29914CD6A559C467
:100C90000213E7708CFDEA2D64A3EA993CCF1FB6DE
:100CA0009F46CD0506ED1CEC8FEF1546D493A55C51
:100CB000AE72A8E83BE15041A03BD9E18F7D2D9772
:100CC000A1C437C61EA3804FD30418F73BD1B6C7C3
:100CD000356DBAA0CE69E50EDB82119C5E1DA13098
:100CE000CEF0827827BAB190DD2EEE7104CC4AD5D1
:100CF000CA199F634069849644106E8B38F168016D
:100D0000EE7CB3B24CDD354376A7E42A7C19AE5DA8
:100D1000812B16C5499C9262FE046E61A6F4237E67
:100D200012B130C70200C14DFEEB0F80744D3BC5C0
:100D30008E05266D9E6BBE3D2BAA39EDBC3B967D84
:100D40004C64B0E4085C22C74C851C05C45789DF9D
:100D500021EA72740CE3AD6A6B77B44C9443408320
:100D60000C86E03AA0546D051451CEFBAA43BE6236
:100D7000B3A978AB7565FE45BC99E31A4390DFBF14
:100D80003DCF26F3FD37EE2D44B037CEE8C12C3EE3
:100D900089E584719457DCDA0AF20114E37381ACBB
:100DA0008C1D6AA9E29F798D30BFC230A86C678C18
:100DB00047B696945214C7919379DB0ACAC90D932A
:100DC0002742BD3BD7E4F4383DF5ADDC769640DBF9
:100DD000D40383550AA8319BFF8A6032FCABD82C20
:100DE000D05D9A860391404450C7381D7583DD1449
:100DF0004727CE3CAB3C32F83FA7B453DE34446BBC
:100E00008BC1161F27880000000023002600290040
:100E100000004908B400BEF67B7AA59455B8480096
:100E20002944442A15A00B420050030200082590D3
:100E300076BA595CC59EC53892E6F33A73BAE59026
:100E400077BA773A084008502A441CE08852E508EF
:100E5000568E77B677B8728CD6BA739E739272AE8E
:100E6000B7B6E95C64AAB7B4929CBEB6D6B656AA29
:100E7000D79276EE77B47138E948B6AEB6AAB6F630
:100E8000B5B4B548E59C694C9124642E5400001C0F
:100E900044000EAE9ABA0E8C2EAE0ECE56D0553BF6
:100EA00093B44144415197B4494417B61AB60AAABB
:100EB000D6D3766717900F389A8C16AE16BA16F6F8
:100EC00015B4B52B1C5E6B4C4948C95A540056E208
:100ED0008D01020408102040801B362A233036235F
:100EE000002A233030303023005363686564756C0A
:100EF00065004C696E6B730047616D657300637CC0
:100F0000777BF26B6FC53001672BFED7AB76CA8259
:100F1000C97DFA5947F0ADD4A2AF9CA472C0B7FD09
:100F20009326363FF7CC34A5E5F171D8311504C7C7
:100F300023C31896059A071280E2EB27B27509833E
:100F40002C1A1B6E5AA0523BD6B329E32F8453D1DF
:100F500000ED20FCB15B6ACBBE394A4C58CFD0EFD4
:100F6000AAFB434D338545F9027F503C9FA851A30E
:100F7000408F929D38F5BCB6DA2110FFF3D2CD0C2C
:100F800013EC5F974417C4A77E3D645D19736081BD
:100F90004FDC222A908846EEB814DE5E0BDBE0328E
:100FA0003A0A4906245CC2D3AC629195E479E7C859
:100FB000376D8DD54EA96C56F4EA657AAE08BA78CD
:100FC000252E1CA6B4C6E8DD741F4BBD8B8A703E6F
:100FD000B5664803F60E613557B986C11D9EE1F826
:100FE000981169D98E949B1E87E9CE5528DF8CA174
:100FF000890DBFE6426841992D0FB054BB16000021
:101000000000240027002A0000000000250028001E
:101010002B00040404040404040402020202020279
:1010200003030303030301020408102040800102AC
:10103000040810200102040810200000000800022B
:101040000100000304070000000000000000EC1095
:101050003BDF6C1C548F7CF7563D437E85DA6D5C1C
:10106000B082FFAB81D963616E2774206265207402
:1010700072757374656400756E6C6F636B65642064
:10108000616E6400596F75722064657669636520CE
:101090006973004E4F50494120313333370000000F
:1010A0001814000018140000181400001814000090
:1010B0005900000408040000190004040804000496
:1010C00008140000190100050804001019000004AC
:1010D0000805000119000014080400001910001090
:1010E0001804000009140004090100051800000498
:1010F000181000001805000109040014090000047C
:101100001804000019040004090400041900AA8846
:101110002AA22A2A2A0011241FBECFEFD8E0DEBF60
:10112000CDBF11E0A0E0B1E0E2ECF9E702C005902C
:101130000D92A837B107D9F725E0A8E7B1E001C0C3
:101140001D92A239B207E1F70E9424390C94DF3CCA
:101150000C940000FB01E859FF4F8491089580FF33
:1011600012C081FD0AC06A3010F480E311C06A30F9
:1011700089F06B3089F083E40BC082FD02C08BE400
:1011800007C08BE605C082FD02C081E401C081E694
:10119000860F08958FE508958DE208958F929F92AE
:1011A000AF92BF92CF92DF92EF92FF920F931F9375
:1011B000FA011082118212821382680F791F86173A
:1011C0009707A1F1C080D180E280F380DC010D910E
:1011D000CD010C2510E020E030E048E050E000FDBB
:1011E00009C0B0E28B2EB3E89B2EB8EBAB2EBDEE60
:1011F000BB2E03C0812C912C540136952795179551
:101200000795082519252A253B254150510939F70D
:10121000CD2CDE2CEF2CFF24F0940C251D252E2543
:101220003F250083118322833383C9CF1F910F9100
:10123000FF90EF90DF90CF90BF90AF909F908F90F6
:101240000895CF93DF93CDB7DEB760970FB6F894CC
:10125000DEBF0FBECDBF2091C0013091C101DE01C4
:10126000119640E050E0BD018AEAFA013496E20F9F
:10127000F31F9491982794279D934F5F5F4F4031C0
:10128000510599F7F90174968491E091D101F0919B
:10129000D20140E150E090E0099560960FB6F894D5
:1012A000DEBF0FBECDBFDF91CF91089520E031E0CA
:1012B00040E050E060E070E0CB010E940C1E862F01
:1012C00008958EE480937C0062E070E080E090E01E
:1012D0000E94B91E80917A00806480937A00809188
:1012E0007A0086FDFCCF209178008091790030E073
:1012F000382B032E000C440B550B64EB7BE281E191
:1013000090E00E940C3C243C89E038076CF02C38BB
:101310008AE038075CF0203F8AE038074CF024353B
:101320003B4044F483E007C080E005C081E003C097
:1013300082E001C084E08093790125E030E040E064
:1013400050E060E070E0CB010E940C1E60937801D9
:1013500008950F931F93CF93DF93082F87E00E9488
:10136000721E60E086E00E94721EC7E0D0E010E0CE
:10137000B8010C2E02C0759567950A94E2F761706A
:1013800077278BE00E94721E61E08DE00E94721E42
:1013900060E08DE00E94721E219750F761E086E0C8
:1013A000DF91CF911F910F910C94721E0C94F31E3C
:1013B000EF92FF920F931F93CF93DF93D62F9C0151
:1013C0003327F901E65CFF4E8491F901EA5DFF4E97
:1013D000F490F901EE5EFF4EC491062F10E0CC238D
:1013E00071F081110E94491EEC2FF0E0EE0FFF1FFB
:1013F000EA5FF14FA591B491EC91EF21F1F4F8017E
:10140000E253FE4F808181111EC081E080830E94E3
:10141000F31E000F111F000F111FF801EE53FE4FB6
:101420006083718382839383E091E103F091E2030F
:10143000309709F447C041E030C0F801E253FE4F55
:101440008081811136C0C80182539E4F7C01FC010E
:1014500080818130B9F50E94F31E000F111F000F2B
:10146000111FF801EE53FE4F00811181228133815B
:10147000DC01CB01801B910BA20BB30B893E934087
:10148000A105B105F8F082E0F7018083E091E10366
:10149000F091E2033097B1F042E06D2F8091DF03CD
:1014A0009091E003DF91CF911F910F91FF90EF900A
:1014B00009941082E091E103F091E203309711F07A
:1014C00040E0EBCFDF91CF911F910F91FF90EF9014
:1014D000089560E082E090E00E94D80961E083E036
:1014E00090E00E94D80962E084E090E00C94D80972
:1014F000CF92DF92EF92FF920F931F93CF93DF93E0
:1015000097FD18C069017A018B01EC0140E050E0C1
:101510000E9467360817190769F4A601B701CE01C2
:10152000DF91CF911F910F91FF90EF90DF90CF90BF
:101530000C94EA358FEF9FEFDF91CF911F910F91C0
:10154000FF90EF90DF90CF900895EF92FF920F936E
:101550001F93CF93DF93EC018B017C01E40EF51E0A
:10156000CE15DF0541F0F80161918F01CE010E9497
:10157000FE3B2196F5CF81E0DF91CF911F910F9136
:10158000FF90EF900895A091DD03B091DE031097D6
:1015900099F01197B093DE03A093DD03AA0FBB1F50
:1015A000AA0FBB1FA658BE4FED91FC911197129642
:1015B0008D919C91139709940895413011F40C94E6
:1015C000C30A08952091DD033091DE032A303105EE
:1015D00088F4F901EE0FFF1FEE0FFF1FE658FE4FD4
:1015E00091838083738362832F5F3F4F3093DE0349
:1015F0002093DD03089560E00C94A909CF93DF9355
:1016000080E80E94FB0A80E40E94FB0AC7EDD1E05B
:1016100061E089910E94A90983E0CF3CD807C1F716
:10162000DF91CF910895F4E5F69F9001F79F300D7B
:101630001124820F931F60EA72E00E94833CF69FA0
:101640009001F79F300D112464E570E00E94833C07
:10165000F901E80FF91FE83F81E0F80788F4E95243
:10166000FE4F81E090E001C0880F6A95EAF74423BD
:1016700019F09081892B03C0809590818923808304
:1016800008950F931F93FB01BA0141E0012B022B38
:10169000032B09F440E0CF011F910F910C94130B21
:1016A0002F923F924F925F926F927F928F929F9272
:1016B000AF92BF92CF92DF92EF92FF920F931F9360
:1016C000CF93DF93CDB7DEB728970FB6F894DEBF80
:1016D0000FBECDBF3B012A01302F512F20320CF419
:1016E00020E2812C912C2052822F90E0880F991FAC
:1016F0008C010F5E114FBC01605F714F78876F8363
:10170000F801849180FF03C0C401019701C0C401A6
:10171000009719F4EF81F8851BC08130910519F409
:10172000EF81F8851CC08230910571F4EF81F88556
:101730009491F80124919370F4E09F9FC0011124CB
:10174000922F9270892B10C08330910529F4F801F3
:10175000849182958F7007C0049721F4F8018491D9
:10176000869501C080E08E70212C312C682F70E0AE
:101770007A836983C401840D951D9C838B8383E0E8
:1017800090E082199309E981FA8102C0F595E79505
:101790008A95E2F7E0FD03C0C501D60103C0C70189
:1017A000A32FB52F41E0892B8A2B8B2B09F440E026
:1017B0006B817C81C101860D971D3D835E830E94F4
:1017C000130BFFEF2F1A3F0A3D815E8144E0241680
:1017D0003104A9F66FEF861A960A76E0871691040F
:1017E00009F08ECF28960FB6F894DEBF0FBECDBF9E
:1017F000DF91CF911F910F91FF90EF90DF90CF90ED
:10180000BF90AF909F908F907F906F905F904F9020
:101810003F902F9008952F923F924F925F926F9238
:101820007F928F929F92AF92BF92CF92DF92EF9270
:10183000FF920F931F93CF93DF9300D000D01F929E
:10184000CDB7DEB72B017A0149010E94911C6C01D2
:10185000198298012E0D3F1D3D832C838701612C39
:10186000712CA12CB12C2C813D8102171307E1F1C1
:10187000E12CF12C130181E0281A3108E814F90455
:1018800061F1C1018E199F099C01277033273B83A9
:101890002A83C7018A0D9B1D87709927892B51F4D4
:1018A00041E050E0BE016F5F7F4FC6010E94EA3504
:1018B0000197D1F4498150E00A8002C055954795BF
:1018C0000A94E2F74170B801C701840D951D0E948A
:1018D000130B3FEFE31AF30AD1CF0F5F1F4FA80C92
:1018E000B91C68187908BFCFC6010E94A7320F90B3
:1018F0000F900F900F900F90DF91CF911F910F914C
:10190000FF90EF90DF90CF90BF90AF909F908F901F
:101910007F906F905F904F903F902F900895AF927F
:10192000BF92CF92DF92EF92FF920F931F93CF93CC
:10193000DF93A82EB0907801811108C0B090790192
:10194000C1E0D0E04EE4C42ED12C04C0C0E0D0E011
:10195000C12CD12CE12CF12C870126E230E046E0AD
:1019600050E060E070E0C6010E946A37CC0EDD1ED8
:10197000CC0EDD1E83E08B1568F4E12CF12C870181
:10198000E39427E030E044E050E060E070E0C6011E
:101990000E946A37CC0EDD1E82E08B1568F4E12CC4
:1019A000F12C8701E39427E030E043E050E068E069
:1019B00070E0C6010E946A37CC0DDD1D81E08B15F9
:1019C00070F4E12CF12C8701E39427E030E042E051
:1019D00050E060E170E0CE010E946A3702C0BB2097
:1019E00069F0E12CF12C8701E39426E030E042E03D
:1019F00050E068E170E0CE010E946A37A1100CC08F
:101A0000BE016250710906E010E024E030E04FE1D1
:101A100050E089EE94EA09C006E010E025E030E0ED
:101A20004FE150E0BE018DE69CE50E940B0CDF917A
:101A3000CF911F910F91FF90EF90DF90CF90BF90CB
:101A4000AF90089588EF91E0E7EDF1E0DF019C01B0
:101A50001D9221503040E1F708955F926F927F927E
:101A60008F929F92AF92BF92CF92DF92EF92FF92AE
:101A70000F931F93CF93DF93CDB7DEB7E0970FB6E9
:101A8000F894DEBF0FBECDBF5C018090D103909073
:101A9000D203E090CF03F090D003FC01019000202E
:101AA000E9F731978F01081B190B39F49401A7014D
:101AB00060E070E080E090E099C0009709F447C0D2
:101AC0006C01FC018191811144C017FD0FC1980187
:101AD000AAE0B0E00E94603C6E5F7F4F8F4F9F4F47
:101AE00023E030E040E050E00E940C3C211580E80B
:101AF0003807410551050CF0F9C0C9010796BC0132
:101B0000F3E076956795FA95E1F7653D710508F084
:101B1000EDC081E090E09AA789A759011CA70BA707
:101B2000AB0160E070E0C7010E94C43C18AA1FA688
:101B300060E070E080E090E01AE0D6012D916D0148
:101B40002223E1F030ED320F3A3008F49BC00E94BE
:101B5000973C80538A3008F4B5CF3501F301619189
:101B60003F01662309F4ACC0062E000C770B8FE30F
:101B700091E00E94CB3C892B89F732C16115710538
:101B800069F09B01220F331F620F731F6F5F7F4F3E
:101B90009E01215D3F4FA7010E94E4278FA598A9D0
:101BA0008A159B05A1F6EDA6FEA688E0FE01B99672
:101BB000DE01599601900D928A95E1F788E0FE01C9
:101BC0007996DE01919601900D928A95E1F788E071
:101BD000FE01B196DE01519601900D928A95E1F7D2
:101BE0009401A70161E070E0CE0141960E94DC2DD6
:101BF000882309F418C18091D1039091D2030E94E7
:101C000029206C018C0197FF02C00F5F1F4F1595B3
:101C100007951195019511090E94220DE12CF12CD7
:101C2000065D1F4FEC14FD040CF0FDC0A12CB12C7F
:101C30008091D1039091D203009709F488CFDC0101
:101C40002C9130E0A216B3064CF4E216F30634F4FD
:101C5000A701B5010E94F81F282F02C020E030E044
:101C6000422F4170B701C8018A0D9B1D0E94130BC2
:101C7000BFEFAB1ABB0AAC14BD04D4F2EFEFEE1AFF
:101C8000FE0AD0CF189FA001199F500D1124CA0140
:101C9000C097820F911D27FD9A956F5F7F4F63302C
:101CA000710509F04ACF9E01215D3F4FA7016AE00F
:101CB00070E00E94E42760E070E080E090E03DCFBB
:101CC00017FD14C09801ABE0B0E00E94603CDC015D
:101CD000CB010196A11DB11DB595A7959795879547
:101CE0008115F0E89F07A105B1051CF0F4011082F1
:101CF0009AC0AC01495F5F4F63E0569547956A957E
:101D0000E1F7453D510590F722E030E03A8B298B11
:101D10005C011C8B0B8B60E070E0C7010E94C43C2F
:101D2000188E1F8A612C712C00E010E04DE2542EB9
:101D3000D6016D916D01662349F1062E000C770BDB
:101D40008FE391E00E94CB3C009709F400CF509EB6
:101D50009001519E300D11248F5391408C01020F40
:101D6000131F6A94672871F49E01295E3F4FA701F3
:101D70006BE070E0C8010E94E427612C712C00E048
:101D800010E0D6CF66246394712CD2CF6A94672872
:101D900049F49E01295E3F4FA70166E070E0C8014B
:101DA0000E94E4278F89988D8A159B0509F0CFCE74
:101DB000ED8AFE8A88E0FE017196DE01119601909F
:101DC0000D928A95E1F788E0FE013196DE011996C1
:101DD00001900D928A95E1F788E0FE013996FACEDE
:101DE000053D110508F082CFF701A00EB11ED60106
:101DF0008D916D018193AA15BB05C9F784E090E030
:101E00009A8B898BC801A0E0B0E023E0880F991F6E
:101E1000AA1FBB1F2A95D1F7988F8F8B1C8B0B8B1A
:101E2000ED8AFE8ADDCEE0960FB6F894DEBF0FBED7
:101E3000CDBFDF91CF911F910F91FF90EF90DF9079
:101E4000CF90BF90AF909F908F907F906F905F905A
:101E500008950C94220D8F929F92AF92BF92EF92B1
:101E6000FF920F931F93CF93DF93E091D404F091EF
:101E7000D504309799F1E090D604F090D704A2ED04
:101E8000B4E0C0E0D0E0CE15DF0541F11C96149619
:101E90000D911C911597012BF9F479018A014B01E1
:101EA0005C018091D2049091D30409952CE02C9F81
:101EB000F0012D9FF00D1124EE52FB4F62877387C6
:101EC0008487958786829782A086B186F786E68684
:101ED000118B008BCE0104C02196D5CF8FEF9FEFE1
:101EE000DF91CF911F910F91FF90EF90BF90AF9036
:101EF0009F908F9008950F931F93CF93DF938C0142
:101F000042E050E060E070E00E946736EC0197FF2D
:101F100003C080E090E00AC040E050E060E070E084
:101F2000C8010E946736892BA1F7CE01DF91CF91BE
:101F30001F910F9108952F923F924F925F926F924F
:101F40007F928F929F92AF92BF92CF92DF92EF9249
:101F5000FF920F931F93CF93DF9300D000D01F9277
:101F6000CDB7DEB74C017D836C831A016901F9019D
:101F700010820E947B0F9B838A831982C114D10433
:101F800009F45AC00115110509F456C0F601108272
:101F9000612C712CE12CF12CA12CB12C412C512C59
:101FA0002A813B816216730609F446C021E030E0C5
:101FB000AE014F5F5F4FB301C4010E94780A0197E1
:101FC000D9F58981A214B30419F52C813D814216FB
:101FD0005306F1F48C3281F18A3071F1882361F17A
:101FE000E016F10630F00C0D1D1DF801319710823E
:101FF00023C0F601EE0DFF1D80833FEFE31AF30AC5
:10200000E016F10680F7F601EE0DFF1D108210C0FC
:102010008C3221F48FEFA81AB80A0AC08A3031F442
:102020009FEF491A590AA12CB12C02C0882321F034
:10203000EFEF6E1A7E0AB4CF0F900F900F900F90B3
:102040000F90DF91CF911F910F91FF90EF90DF9054
:10205000CF90BF90AF909F908F907F906F905F9048
:102060004F903F902F900895EF92FF921F93CF9340
:10207000DF93CDB7DEB760970FB6F894DEBF0FBE23
:10208000CDBF7C01BE016F5F7F4F80E090E00E947A
:102090009038882309F45CC04AE050E06DE671E0B6
:1020A000CE0101960E949C3C892B09F457C08AE01E
:1020B000EDE6F1E0DE01119601900D928A95E1F7CF
:1020C00080E00E94A21E182F0E94560981278D874A
:1020D00081E00E94A21E182F0E94560981278E8738
:1020E00082E00E94A21E182F0E94560981278F8726
:1020F00083E00E94A21E182F0E9456098127888B18
:102100000E94F31E2D853E85622773277E876D878B
:102110001C861B8640E150E0BE016F5F7F4F80E070
:1021200090E00E94A50A882399F0BE016F5F7F4F5F
:1021300080E090E00E949038882351F04AE050E01F
:102140006DE671E0CE0101960E949C3C892B31F036
:10215000F701108211821282138209C08D859E853B
:10216000AF85B889F70180839183A283B38360969A
:102170000FB6F894DEBF0FBECDBFDF91CF911F9198
:10218000FF90EF9008954F925F926F927F92AF927F
:10219000BF92CF92DF92EF92FF920F931F93CF9354
:1021A000DF93EC016A017B01022F4AE050E060E31B
:1021B00070E00E94C43C1A861AE08AE0482E512C36
:1021C000612C712CC114D104E104F10481F011508F
:1021D0005E01A10EB11CC701B601A30192010E94CC
:1021E0003E3C605DF501608369017A01EBCF01112E
:1021F00024C060E0FE01E60FF11D8081803311F400
:102200006F5FF8CF6A3009F469E070E04BE050E0AE
:10221000461B570B6C0F7D1FCE01DF91CF911F9195
:102220000F91FF90EF90DF90CF90BF90AF907F9095
:102230006F905F904F900C94B23CDF91CF911F91C3
:102240000F91FF90EF90DF90CF90BF90AF907F9075
:102250006F905F904F9008952F923F924F925F92B0
:102260006F927F928F929F92AF92BF92CF92DF92A6
:10227000EF92FF920F931F93CF93DF93CDB7DEB70B
:10228000CC50D1400FB6F894DEBF0FBECDBFE82EC4
:102290008B01CE0101962C0188ECF20111928A95F6
:1022A000E9F789E499E40E94911C6C0147EC50E045
:1022B000B2010E94EA35C6010E94A732F2010190E4
:1022C0000020E9F731976F01C418D50887EC90E03A
:1022D0003C016C187D08C250DF4F188219821A82A7
:1022E0001B82CE5FD0409801A4E6B0E00E94603C23
:1022F0004B015C01CE0182509F4F0E9434108E0131
:1023000002521F4FE0E1FE2EF8016F2D11926A95E7
:10231000E9F7C250DF4F88819981AA81BB81CE5FE6
:10232000D040F80180839183A283B3838482958215
:10233000A682B782E0860E945609F80181870E9432
:102340005609F80182870E945609F8018387A8017F
:10235000445F5F4F6CE070E0C8010E94CE08BE0190
:1023600062517F4F8FEF90E00E949038AE0147534B
:102370005F4FFA011192FA94E9F7C251DF4F888159
:10238000CE5ED0408093D701C151DF4F8881CF5EB0
:10239000D0408093D801C051DF4F8881C05FD040CA
:1023A0008093D901CF50DF4F8881C15FD0408093A7
:1023B000DA01CE50DF4F8881C25FD0408093DB01CD
:1023C000CD50DF4F8881C35FD0408093DC01CC507B
:1023D000DF4F8881C45FD0408093DD01CB50DF4F59
:1023E0008881C55FD0408093DE01CA50DF4F88816D
:1023F000C65FD0408093DF01C950DF4F8881C75F3F
:10240000D0408093E001C850DF4F8881C85FD04042
:102410008093E101C750DF4F8881C95FD04080932E
:10242000E201C650DF4F8881CA5FD0408093E3014C
:10243000C550DF4F8881CB5FD0408093E401C4500A
:10244000DF4F8881CC5FD0408093E501C350DF4FE0
:102450008881CD5FD0408093E601AAEEB1E024E010
:1024600030E0FD013797E0803196F0803196908121
:1024700031968081B90163707727672BE9F4EF2DDE
:10248000F0E0E250F14F6491E92FF0E0E250F14FBB
:10249000F490E82FF0E0E250F14F9491EE2DF0E04F
:1024A000E250F14F8491F901F695E795F695E7959D
:1024B000E053F14FE490E6261D01F3E02F1A3108B6
:1024C000BD0163517109FB016081E626F101E082E3
:1024D0001D01F2E02F1A3108BD0162517109FB01A3
:1024E0006081F626F101F0827D01F1E0EF1AF1083A
:1024F000BD0161517109FB0160819627F70190834D
:102500003F97E0818E278C932F5F3F4F14962C329C
:10251000310509F0A6CF80E1FA01A7E8B2E0019009
:102520000D928A95E1F7A7E8B2E0F80190E1900FEB
:102530008D912081822781939E13FACF47ED51E040
:10254000B80180E00E945D1FFF24F3948EED90E0BF
:102550008C0F9D1F0196CE5FDE4F99838883C250FA
:10256000D140EEEDF0E0EC0FFD1F3296CC5FDE4F78
:10257000F983E883C450D1408EED90E08C0F9D1F0D
:102580000396CA5FDE4F99838883C650D140EEED33
:10259000F0E0EC0FFD1F7096C85FDE4FF983E88313
:1025A000C850D1403BE1E32ECE0182529F4F0E94A2
:1025B000491FC152DF4F8881CF5DD040CD51DF4FE1
:1025C0009881C35ED040C152DF4F9883CF5DD04029
:1025D000C951DF4F9881C75ED040CD51DF4F9883FE
:1025E000C35ED040C551DF4F9881CB5ED040C9510A
:1025F000DF4F9883C75ED040C551DF4F8883CB5EE5
:10260000D040C052DF4F8881C05ED040C851DF4FFC
:102610009881C85ED040C052DF4F9883C05ED040E2
:10262000C851DF4F8883C85ED040CC51DF4F8881CE
:10263000C45ED040C451DF4F9881CC5ED040CC51B5
:10264000DF4F9883C45ED040C451DF4F8883CC5E97
:10265000D040CF51DF4F8881C15ED040C351DF4FA2
:102660009881CD5ED040CF51DF4F9883C15ED0407E
:10267000C751DF4F9881C95ED040C351DF4F988367
:10268000CD5ED040CB51DF4F9881C55ED040C75161
:10269000DF4F9883C95ED040CB51DF4F8883C55E42
:1026A000D040CE5FDE4F48815981C250D140CC5FCF
:1026B000DE4FA881B981C450D140CA5FDE4F888106
:1026C0009981C650D140C55FDE4F99838883CB5036
:1026D000D1409801F9018081FA0130803826C55F28
:1026E000DE4FE881F981CB50D14060819C919627E3
:1026F0009325292E2826732D771F7727771F7E9DF8
:10270000602D1124330C36262324F9012082FA018E
:1027100020803C9032242926732D771F7727771F3E
:102720007E9D602D1124330C3626232420822C908C
:10273000C55FDE4FE881F981CB50D1403080322433
:102740002926732D771F7727771F7E9D602D1124F3
:10275000330C362623242C92608186279627782FE7
:10276000771F7727771F7E9D602D1124880F86277E
:10277000982790832C5F3F4F4C5F5F4F14963496A1
:10278000C55FDE4FF983E883CB50D140C85FDE4F91
:1027900088819981C850D1402817390709F09ACF0C
:1027A00047ED51E0BE0162527F4F8F2D0E945D1FA9
:1027B000F3949AE0F912F8CECE0182529F4F0E9414
:1027C000491FC152DF4F8881CF5DD040CD51DF4FCF
:1027D0009881C35ED040C152DF4F9883CF5DD04017
:1027E000C951DF4F9881C75ED040CD51DF4F9883EC
:1027F000C35ED040C551DF4F9881CB5ED040C951F8
:10280000DF4F9883C75ED040C551DF4F8883CB5ED2
:10281000D040C052DF4F8881C05ED040C851DF4FEA
:102820009881C85ED040C052DF4F9883C05ED040D0
:10283000C851DF4F8883C85ED040CC51DF4F8881BC
:10284000C45ED040C451DF4F9881CC5ED040CC51A3
:10285000DF4F9883C45ED040C451DF4F8883CC5E85
:10286000D040CF51DF4F8881C15ED040C351DF4F90
:102870009881CD5ED040CF51DF4F9883C15ED0406C
:10288000C751DF4F9881C95ED040C351DF4F988355
:10289000CD5ED040CB51DF4F9881C55ED040C7514F
:1028A000DF4F9883C95ED040CB51DF4F8883C55E30
:1028B000D04047ED51E0BE0162527F4F8AE00E9456
:1028C0005D1F80E1FE01E252FF4FA7E8B2E00190F8
:1028D0000D928A95E1F76114710409F461C07201E7
:1028E000EC0CFD1CEDE26E16710418F4F701108279
:1028F00057C080E1FE01E252FF4FDE01A753BF4FF8
:1029000001900D928A95E1F70E945609C752DF4F58
:102910008883C95DD04049EC50E04C0F5D1F4F5E8D
:102920005F4F61E170E0CE0187539F4F0E94CE0858
:102930008E0107531F4F312CC12CD12CF8019191DE
:102940008F01292E22942FE02222622D832DC65F33
:10295000DE4F9883CA50D1400E94AF0837016C0CFB
:102960007D1CF3018083C65FDE4F9881CA50D14041
:102970009F70392E692F822D0E94AF08F301818349
:10298000F2E0CF0ED11C6AE2C616D104B9F6F70107
:10299000E30DF11D8081F70182A78DE383A714A6C3
:1029A000C2010E942D0D0E94FE0A8DED9AE09093C7
:1029B000E2038093E1031092E0031092DF0388ECBE
:1029C000F20111928A95E9F783E19FE10E94911C3F
:1029D0008C0147EC50E0B2010E94EA35C8010E9428
:1029E000A732C12CD12C760101E010E020E030E0CC
:1029F000A2016AE270E080E090E00E94B03720E03F
:102A0000B501A401C2010E94C310F201019000208F
:102A1000E9F73197E419F509EE0FFF1FEE0FFF1FDD
:102A200001E010E020E030E0A2016AE270E084E51D
:102A300090E08E1B9F0B0E94B0370E94FE0AC45F7D
:102A4000DE4F0FB6F894DEBF0FBECDBFDF91CF9142
:102A50001F910F91FF90EF90DF90CF90BF90AF90BC
:102A60009F908F907F906F905F904F903F902F90AE
:102A70000895EF92FF920F931F93CF93DF930097E8
:102A8000C1F08A017B01EC01EA85FB85309719F0E2
:102A900088859985099588A199A1E816F90649F4D0
:102AA0008AA19BA10817190721F485E090E09BA754
:102AB0008AA7DF91CF911F910F91FF90EF9008951A
:102AC0000F9301E09C014EE456E166E178E988EF5E
:102AD0009EE00E94141D0F9108950F9301E09C0148
:102AE00041EF55E162E275EC82EF9EE00E94141D19
:102AF0000F9108950F9300E09C0140EA58E161E3D3
:102B000078ED83E990E10E94141D0F9108950F93D1
:102B10001F93DC01FA01A7FF0BC06115710529F4B1
:102B20008EE280838183128209C0615071098F77A0
:102B300089019F0140E050E00E949B0F1F910F917F
:102B400008950F93CF93DF93EB0120910201309111
:102B5000030137FF0CC0009751F09093BF018093A1
:102B6000BE010E94911C9093030180930201609129
:102B7000BE017091BF0101E09E0146E157E189EE7F
:102B80009EE00E94141DDF91CF910F910895BC012A
:102B900080E090E00C94A1158091040190910501D2
:102BA0000E94AE388FEF9FEF909305018093040150
:102BB000809106019091070197FF0E94A7328FEF45
:102BC0009FEF90930701809306014091F10350918C
:102BD000F20360E070E08091EF039091F0030C94B9
:102BE000C43CAF92BF92CF92DF92EF92FF920F93CD
:102BF0001F93CF93DF93CDB7DEB7C85CD1090FB673
:102C0000F894DEBF0FBECDBF6B01CE0101967C01F3
:102C100088ECF70111928A95E9F7672B29F40E9455
:102C2000CC150E94C30A28C082E295EC0E94911C38
:102C30005C01B6016150710908EC10E0970141E0B8
:102C400050E00E949B0FC5010E94A7320E94CC1544
:102C5000B6018DE695E10E94E20AC7010E942D0DA2
:102C60000E94FE0A8DED9AE09093E2038093E103C7
:102C70001092E0031092DF03C853DF4F0FB6F894B1
:102C8000DEBF0FBECDBFDF91CF911F910F91FF909F
:102C9000EF90DF90CF90BF90AF90089561307105B5
:102CA00049F020F06230710579F008950E94CC154A
:102CB0000C94C30A0E94CC1561E070E080E695E1B7
:102CC0000E94E20A0C9425250E94CC1562E070E077
:102CD00080E695E10E94E20A0C94B1247F928F92E3
:102CE0009F92AF92BF92CF92DF92EF92FF920F939B
:102CF0001F93CF93DF935B01EA014901702ECC242F
:102D0000C3940C1511F0C12C0FC0E12CF12C8701DC
:102D1000E39429E030E048E350E0BE01675F7F4F75
:102D2000C5010E960E946A37D12CE12CF12C01E0EE
:102D300010E020E030E081E0781203C000E010E015
:102D40009801BE01655F7F4FA401C50140960E94B6
:102D5000B037DF91CF911F910F91FF90EF90DF90EF
:102D6000CF90BF90AF909F908F907F9008950F93DA
:102D70001F93CF93DF931092A3011092A2011092A0
:102D8000A5011092A401C091D301D091D40100916A
:102D9000D5011091D601CB31D10550F0AE0160E0E4
:102DA00070E0C8010E94C43C6B97F801D18FC08FBE
:102DB0008091D5019091D601009759F022E530E03D
:102DC000FC013587248720E330E0378726870E947F
:102DD000E0298091D5019091D601009749F025EF27
:102DE00030E2FC0137832683158214820E94E02999
:102DF0008091D5019091D601009749F02CED30E2F9
:102E0000FC0133872287118610860E94E02981E722
:102E100094E29093E2038093E1031092E003109216
:102E2000DF03DF91CF911F910F910895EF92FF92F1
:102E30000F931F93CF93DF938B0161157105B1F44D
:102E40000E94CC1580910201909103010E94A7324B
:102E50008FEF9FEF9093030180930201DF91CF9159
:102E60001F910F91FF90EF900C94C30A7B0181E0BA
:102E7000E81AF1080E94CC15B80187EC95E10E9490
:102E8000E20AC0910201D09103010E94B716B70176
:102E9000CE010E94DA389093A9018093A801B7016E
:102EA000CE010E94DA387C01B801CE010E94DA38E6
:102EB000F7FC07C08E159F0524F09C012E193F09D1
:102EC00002C020E030E03093A7012093A601E091FA
:102ED000D501F091D601309759F0318B208B87E2E4
:102EE00091E293838283D183C083CF010E94E02942
:102EF0000E94AA23DF91CF911F910F91FF90EF9035
:102F00000C94FE0A4115510579F0FB010190002057
:102F1000E9F73197E61BF70BEE0FFF1FEE0FFF1FD0
:102F20003496DA01ED93FC932115310529F089E0FF
:102F300090E0F9019183808308952F923F924F9200
:102F40005F926F927F928F929F92AF92BF92CF9239
:102F5000DF92EF92FF920F931F93CF93DF9300D0F6
:102F600000D01F92CDB7DEB719821A821B821C8255
:102F70000E94220D4091DB035091DC034E5F5F4FB6
:102F8000C12CD12C760101E010E020E030E061E0BE
:102F900070E082E190E00E94B03752E0452E512C63
:102FA000912C80E3890D8D8389E0682E712C812C12
:102FB000E091DB03F091DC0391100EC08CE3898378
:102FC0009DE29A839B83808149E0242E312CA12CA1
:102FD000B12C882371F127C084E0981210C095E4C9
:102FE00099838EE48A8394E59B83808129E0222E55
:102FF000312C35E4A32EB12C8430A9F41AC080E220
:1030000089839D819A3339F0892F9B3331F09C332A
:1030100029F483E203C08AE201C080E38A8380E26C
:103020008B83130152018081981212C08181881212
:103030000FC0E12CF12C8701E39429E030E04FE050
:1030400050E0B101C5010E946A3711E000E00AC0FA
:1030500029E030E04FE050E0B101C5010E9428387E
:1030600010E001E01C8240E0B101C5010E94130B99
:1030700075019EE0E90EF11C40E0B101C7010E941C
:10308000130B610188E0C80ED11C40E0B601C501F8
:103090000E94130B40E0B601C7010E94130BC12E22
:1030A000D12CE12CF12C10E020E030E0B1016E5F7A
:1030B0007F4FAE014F5F5F4FC50102960E94B03750
:1030C00083949D819D5F9D83C3010A963C0194E09A
:1030D00089126ECF939480E1480E511C95E09912AD
:1030E00060CF0F900F900F900F900F90DF91CF91C6
:1030F0001F910F91FF90EF90DF90CF90BF90AF9016
:103100009F908F907F906F905F904F903F902F9007
:103110000895E091DB03F091DC0383E2DF011D926F
:103120008A95E9F781E199E19093E2038093E103C5
:103130001092E0031092DF030E949D170C94FE0A88
:103140000F9362307105C9F1A0F46115710551F159
:103150006130710509F053C00E94CC1561E070E048
:103160008AE795E10E94E20A60E070E08DEA90E073
:1031700030C06330710581F16430710509F03FC0E2
:103180000E94CC1564E070E08AE795E10E94E20AB3
:1031900001E020E030E04EE456E166E178E988EFB6
:1031A0009EE02BC00E94CC1560E070E08AE795E1BC
:1031B0000E94E20A0F910C9489180E94CC1562E0DB
:1031C00070E08AE795E10E94E20A60E070E088EB37
:1031D00095EE0F910C94A1150E94CC1563E070E060
:1031E0008AE795E10E94E20A01E020E030E041EF49
:1031F00055E162E275EC82EF9EE00E94141D0F9192
:103200000895809100019091010197FD08C00E94EE
:10321000A7328FEF9FEF90930101809300010C94F0
:103220008918EF92FF920F931F93CF93DF9300D0F3
:1032300000D0CDB7DEB7611106C0423009F001C140
:103240000E94C30A0EC1413009F00BC1613079F010
:10325000623009F006C1E091DB03F091DC0380816C
:103260008F5F853010F48083D3C01082D1C0A091CD
:10327000DB03B091DC0311962C9111979C9199235B
:10328000F9F2943099F0905D822F880F280F920FF9
:103290009A3309F4E4C09B3309F4BFC09C3309F4AA
:1032A000CEC0992369F2913009F0B8C07D0182E067
:1032B000E80EF11C44E150E061EE7EE0CD010F9696
:1032C0000E94ED3B0091DB031091DC03015F1F4F77
:1032D000B801C7010E94D63C892B59F586E598E6CE
:1032E0000E94911C8C01909301018093000160E089
:1032F00070E081E099E10E94E20A0E94B71642E084
:1033000050E060E070E0C8010E94673697FD98CFFA
:10331000E091D501F091D601309709F491CF918BCE
:10332000808B8FE091E29383828311830083CF01AE
:1033300063C044E150E06BED7EE0C8010E94ED3BCC
:103340000091DB031091DC03B801615F7F4FC7017F
:103350000E94D63C892B09F054C019821A821B8224
:103360001C82CE0101960E9434100AEA11E083E328
:103370008093AA0195E39093AB018093AC0194E311
:103380009093AD018093AE019093AF0149815A8132
:103390006B817C8121E080EB91E00E94C310109250
:1033A000BA0160E070E081E099E10E94E20A0E94C7
:1033B000B7161093A5010093A401F8010190002015
:1033C000E9F73197EA5AF140F093A301E093A201A3
:1033D000A091D501B091D601109781F05196FC9340
:1033E000EE9350978FE891E213969C938E931297E9
:1033F00011961C921E92CD010E94E0290E94AA23E0
:1034000009C0F80132968DE0DF011D928A95E9F737
:103410000E949D170E94FE0A24C090E39D012E5F2A
:103420003F4FF90101900020E9F73197E21BF30BC0
:10343000EC30F10568F7EA0FFB1F9283E9CF93E2C6
:10344000EDCF413071F4E091DB03F091DC03818139
:103450008F5F843010F48183DBCF1182D9CF9AE261
:10346000DDCF0F900F900F900F90DF91CF911F91B4
:103470000F91FF90EF900895FC0180A991A93097DA
:10348000A1F026A537A544A555A52417350720F09A
:10349000C901841B950B0895880F991F880F991FE8
:1034A000841B950B820F931F089580E090E0089590
:1034B00097FD12C0892B19F477FF06C00AC0672B4D
:1034C00059F482E090E00895672B31F083E090E0BA
:1034D000089581E090E0089580E090E008954F9293
:1034E0005F926F927F928F929F92AF92BF92CF9294
:1034F000DF92EF92FF920F931F93CF93DF93CDB79D
:10350000DEB72E970FB6F894DEBF0FBECDBF1E8676
:103510001D861C861B860E94220DE12CF12C870142
:10352000E39425E030E043E550E065E070E080E0C2
:1035300090E00E94B1369E01235F3F4FAE01455F90
:103540005F4F63EE73E080E090E00E9482174B854E
:103550005C8584E590E0841B950B969587959E8706
:103560008D87E12CF12C870129E030E060E070E0EC
:103570000E946A378D859E85C12CD12C760101E091
:1035800010E020E030E043EE53E062E070E00296AD
:103590000E94B03780E00E948F0C81E00E948F0C67
:1035A000E090EF03F090F0031A86198618861F82C8
:1035B0008AE68D831E82E114F10441F4E091EF0369
:1035C000F091F003309709F0B8C0E7C0D701129628
:1035D0008D919C911397892B89F31696ED91FC910F
:1035E0001797309759F31A968D919C911B97892BB9
:1035F00029F39E01295F3F4FAE01475F5F4FBE0138
:103600006B5F7F4F14968D919C9115970995F701EB
:1036100084899589608D718D0E946F3C3B014C01BE
:10362000A12CB12C6701FCE1CF0ED11CF701808DDC
:10363000918DA816B90610F6689E8001699E100D3E
:10364000789E100D11240A0D1B1DD70156968D91E1
:103650009C9157970817190708F0B0CF1C821B825E
:103660001A8219825A964D905C905B97A20160E095
:1036700070E0C6010E94C43C920121503109D7017B
:103680001296ED91FC911397A601B8018D919C9132
:103690000995D7015A96ED91FC915B97EE0DFF1DB0
:1036A000138E1696ED91FC9117979E012D5F3F4F5B
:1036B000AE014F5F5F4FB60114968D919C911597A7
:1036C000099529813A81F7018089918982179307A9
:1036D00068F4F60101900020E9F73197EC19FD0933
:1036E00029F0EE0DFF1D138ED701DBCFD7011A96FF
:1036F000ED91FC911B972F81388518968D919C91A7
:1037000019978A149B0449F4829EA001839E500D50
:10371000929E500D112401E008C0A29EA001A39E1C
:10372000500DB29E500D112400E0960160E070E053
:103730000995BFEFAB1ABB0A79CF24893589A688D2
:10374000B788808D918D8A159B0538F547E2429F99
:10375000C001439F900D1124B5010E946F3C6B0185
:10376000E12CF12C8701E39420E330E048E450E0C1
:1037700069E070E088E490E00E94B13687E290E072
:10378000B5010E946F3C9B01B601675F7F4F43E02C
:1037900050E087E490E00E946A370E94FE0A2E966D
:1037A0000FB6F894DEBF0FBECDBFDF91CF911F9152
:1037B0000F91FF90EF90DF90CF90BF90AF909F90D0
:1037C0008F907F906F905F904F9008950C946F1A38
:1037D000611108C04230A9F587FF41C00E94CC1595
:1037E0000C94C30A4130D9F56130B1F0623009F070
:1037F0000895E091EF03F091F003309711F40C94E9
:103800006F1A8489958901962689378982179307CB
:10381000B0F7958B848BF3CFA091EF03B091F003B9
:103820001097E9F01E96ED91FC911F973097B9F033
:1038300054966D917C9155971C968D919C911D97F6
:103840000994413061F4E091EF03F091F003309777
:10385000B1F284899589009791F20197DACF0895A2
:10386000CF93DF9390E0FC01EA5DFF4E2491FC01D1
:10387000EE5EFF4E8491882361F190E0880F991FDE
:10388000FC01E250F04FC591D491FC01E85FFF4E7E
:10389000A591B491611109C09FB7F89488812095D2
:1038A00082238883EC912E230BC0623061F49FB792
:1038B000F8943881822F809583238883EC912E2B76
:1038C0002C939FBF06C08FB7F894E8812E2B2883D6
:1038D0008FBFDF91CF9108953FB7F8948091F8039F
:1038E0009091F903A091FA03B091FB0326B5A89B30
:1038F00005C02F3F19F00196A11DB11D3FBFBA2F82
:10390000A92F982F8827820F911DA11DB11DBC01E1
:10391000CD0142E0660F771F881F991F4A95D1F7A6
:103920000895EF92FF920F931F93CF93DF937C0143
:10393000C7E1D0E000E010E020914E0530914F0546
:10394000021713071CF08FEF9FEF55C0CE010E94A6
:10395000C638E816F90671F4F02EE12E0F3F8FEF0E
:10396000180789F3C0914E05D0914F05CC0FDD1F8C
:10397000679604C022960F5F1F4FDECFCE01101650
:10398000110644F40E94C6380296C80FD91F015090
:103990001109F4CF0E94C63840915005509151054D
:1039A000E8E4F5E020E030E02417350764F63896C7
:1039B000628173816F3F7F4FD9F4F90143E0EE0FCD
:1039C000FF1F4A95E1F7E85BFA4FF286E38615861A
:1039D00014862296D787C687F90153E0EE0FFF1FA2
:1039E0005A95E1F7E85AFA4F91838083C90103C0E1
:1039F0002F5F3F4FD9CFDF91CF911F910F91FF9054
:103A0000EF900895AB01DC015296ED91FC91539734
:103A1000309739F060E070E050968D919C9151970D
:103A2000099480E090E008953F924F925F926F92E8
:103A30007F928F929F92AF92BF92CF92DF92EF923E
:103A4000FF920F931F93CF93DF931F92CDB7DEB7F3
:103A50006C017B013A012901302E0091F103109194
:103A6000F203A090EF03B090F0030D31110558F070
:103A7000A80160E070E0C5010E94C43C0C5111092E
:103A8000F501138F028F8091EF039091F00300975F
:103A900059F028E330E0FC01318B208B27E230E045
:103AA000338B228B0E94BD288091EF039091F0030D
:103AB000009749F022E837E1FC013783268315821D
:103AC00014820E94BD288091EF039091F00300972B
:103AD00049F02EE636E1FC013387228711861086F5
:103AE0000E94BD284CE050E0B60183EE93E00E94B6
:103AF000ED3B1092EE03C7010E94911C7C01909354
:103B00000701809306015C01332011F06894A7F847
:103B1000C7010E947B0F4C01198200E010E0C12C0C
:103B2000D12CC814D90409F10115110511F401E0D3
:103B300010E021E030E0AE014F5F5F4FB601C701FA
:103B40000E94780A019719F000E010E00EC0898108
:103B50008C3239F08A3019F40F5F1F4F02C088236E
:103B600021F0FFEFCF1ADF0ADCCF332011F00F5F17
:103B70001F4FE091EF03F091F003309759F0178B4E
:103B8000068B87E895E193838283B182A082CF017F
:103B90000E94BD288091EF039091F003009739F0C7
:103BA000FC0177866686158614860E94BD2820E073
:103BB00030E046EE5BE168EE73E080E090E00E946A
:103BC0002B0F909305018093040188EE9BE1909365
:103BD000E2038093E103B092E003A092DF03E0915F
:103BE000EF03F091F003309711F0558A448A0E9458
:103BF0006F1A0F90DF91CF911F910F91FF90EF906F
:103C0000DF90CF90BF90AF909F908F907F906F90FC
:103C10005F904F903F900895CF92DF92EF92FF9286
:103C20000F931F93CF93DF9300D000D0CDB7DEB7B3
:103C30006217730784079507FCF489019A016B01E9
:103C40007C01A9019801261B370B480B590B69F021
:103C500029833A834B835C830E94DF3B29813A812D
:103C60004B815C810E940C3C03C060E070E0CB01A2
:103C70006C0D7D1D8E1D9F1D0F900F900F900F904E
:103C8000DF91CF911F910F91FF90EF90DF90CF9038
:103C90000895833081F028F4813099F08230A1F0CA
:103CA00008958730A9F08830B9F08430D1F480913C
:103CB00080008F7D03C0809180008F77809380008B
:103CC000089584B58F7702C084B58F7D84BD089533
:103CD0008091B0008F7703C08091B0008F7D80937A
:103CE000B00008951F93CF93DF93282F30E0F901A0
:103CF000E65CFF4E8491F901EA5DFF4ED491F90133
:103D0000EE5EFF4EC491CC23C9F0162F81110E94A4
:103D1000491EEC2FF0E0EE0FFF1FE85FFF4EA5916C
:103D2000B4918FB7F894111105C09C91ED2FE095D7
:103D3000E92302C0EC91ED2BEC938FBFDF91CF9183
:103D40001F9108958E3008F08E50877080648093A4
:103D50007C0080917A00806480937A0080917A0060
:103D600086FDFCCF809178002091790090E0922B25
:103D700008958F929F92AF92BF92CF92DF92EF926F
:103D8000FF926B017C010E946C1C4B015C01C11411
:103D9000D104E104F104F1F00E946C1CDC01CB01C0
:103DA00088199909AA09BB09883E9340A105B10564
:103DB00070F321E0C21AD108E108F10888EE880EFC
:103DC00083E0981EA11CB11CC114D104E104F104CC
:103DD00019F7DDCFFF90EF90DF90CF90BF90AF90BD
:103DE0009F908F9008952FB7F8946091F40370918D
:103DF000F5038091F6039091F7032FBF08951F926A
:103E00000F920FB60F9211242F933F938F939F938E
:103E1000AF93BF938091F4039091F503A091F603C3
:103E2000B091F7033091F30323E0230F2D3720F4F3
:103E30000196A11DB11D05C026E8230F0296A11D04
:103E4000B11D2093F3038093F4039093F503A093A3
:103E5000F603B093F7038091F8039091F903A091D2
:103E6000FA03B091FB030196A11DB11D8093F803E5
:103E70009093F903A093FA03B093FB03BF91AF9122
:103E80009F918F913F912F910F900FBE0F901F9098
:103E900018959C0184E0D90190E0EC91F0E0E250AB
:103EA000F14FE491EC939F5F14969430B1F78150F9
:103EB0002F5F3F4F8111EFCF08950F931F93CF9343
:103EC000DF939B0190E1899F80011124A0E0B0E085
:103ED000FD01E00FF11FE40FF51F60E070E0E90164
:103EE000C60FD71F91918881982798836F5F7F4F66
:103EF00064307105A1F714962C5F3F4FA031B105D6
:103F000039F7DF91CF911F910F9108959C01CB015B
:103F10000197889770F5CB01079661E170E00E94E8
:103F2000833C24303105E9F060F4660F771F2130BF
:103F3000310599F022303105E1F4FB01E35EFE4FDB
:103F400015C027303105B9F02830310591F4660FDE
:103F5000771FFB01EF5EFE4F09C0FB01ED5DFE4FD9
:103F600005C0660F771FFB01E95EFE4F80819181DE
:103F700008950E94973C80E090E00895FC01A081A4
:103F8000B0E0FD017597ED39F10550F477FD08C0FB
:103F90006A177B072CF457FD03C04A175B0714F020
:103FA0000E94973C4A9FF0014B9FF00D5A9FF00DE5
:103FB00011246E0F7F1FAB014770552733E07595B5
:103FC00067953A95E1F76F5F7F4FFC01E60FF71FAA
:103FD00081E090E001C0880F4A95EAF7222319F0AA
:103FE0009081892B03C080959081892380830895D7
:103FF000FC01208130E0F9017597ED39F10550F4AD
:1040000077FD08C0621773072CF457FD03C04217F1
:10401000530714F00E94973C429FF001439FF00D1C
:10402000529FF00D11246E0F7F1F9B0143E03595C9
:1040300027954A95E1F7FC01E20FF31F818190E09B
:104040006770772702C0959587956A95E2F781702A
:104050000895009711F40E94973CFC01808190E044
:104060009C01255131092D393105A8F708954F924A
:104070005F926F927F928F929F92AF92BF92CF92F8
:10408000DF92EF92FF920F931F93CF93DF936C0118
:104090005B014A0179012801C0E0D0E0CE15DF05BF
:1040A000ACF400E010E03E016A0C7B1C0815190519
:1040B0005CF4B8016C0D7D1D21E0A301C2010E94DA
:1040C000BE1F0F5F1F4FF2CF2196E8CFDF91CF9138
:1040D0001F910F91FF90EF90DF90CF90BF90AF9026
:1040E0009F908F907F906F905F904F9008950F9367
:1040F0001F93CF93DF939C018B0181309105A1F138
:1041000067E070E00E94833CEB012296FB01319650
:104110002032310581F0C901880F991F8C0F9D1F36
:10412000880F991F0196BF01660F771F0E94833C7D
:10413000660F771F02C06AE170E0CF01220F331FC4
:10414000220F331F265F3F4F1816190644F4F8015B
:10415000E80FF91F20830197261B370BF5CF86E068
:10416000F8018083CE0102C080E090E0DF91CF9122
:104170001F910F910895EF92FF920F931F93CB0120
:10418000880F991F860F971FBA01660F771F460F7A
:10419000571FBA016E5F7F4FE12CF12C8701E3942A
:1041A00023E030E043E050E002960E946A371F911E
:1041B0000F91FF90EF900895CF92DF92EF92FF92D0
:1041C0000F931F93CB01BA01A901C12CD12C760109
:1041D00001E010E020E030E00E94B0371F910F9125
:1041E000FF90EF90DF90CF9008954115510571F049
:1041F000FB0101900020E9F73197E61BF70BEE0F6A
:10420000FF1FEE0FFF1FDA01ED93FC93211531051F
:1042100029F086E090E0F901918380830895EF9280
:10422000FF920F931F93CF93DF93EC018A017901E3
:1042300040E050E00E946736A701B801CE01DF914F
:10424000CF911F910F91FF90EF900C94EA358F92D0
:104250009F92AF92BF92CF92DF92EF92FF920F9315
:104260001F93CF93DF935C016B018A017901209149
:10427000A6013091A701E216F30620F0E090A2011A
:10428000F090A301C216D306C0F5C7018C0D9D1D89
:104290002817390718F47901EC18FD08E114F10426
:1042A00079F16091A8017091A9016C0D7D1D40E02C
:1042B00050E0C5010E946736E80100E010E08AE0A6
:1042C000982E9DE2892E41E050E0BE01C5010E947A
:1042D000EA35019781F488818C3239F48AE0C81676
:1042E000D10410F4888201C098820F5F1F4F21967D
:1042F0000E151F0541F7C80105C08FEF9FEF02C0E3
:1043000080E090E0DF91CF911F910F91FF90EF90AF
:10431000DF90CF90BF90AF909F908F900895CF93F4
:10432000DF93E091A201F091A301E901E217F30705
:1043300008F4EF016E177F07B8F4CE01860F971FC0
:10434000E817F90718F4EF01C61BD70B209779F08F
:10435000CA012091A4013091A501620F731FAE0123
:104360000E94A93CCE0105C08FEF9FEF02C080E004
:1043700090E0DF91CF910895CB01880F991F860FB0
:10438000971FBA01660F771F460F571FBA016E5F5E
:104390007F4F23E030E043E050E002960C94283851
:1043A00095E0969FF001979FF00D11244F5F5F4FAE
:1043B000949FB001959F700D112425E030E045E0F9
:1043C00050E0CF018C960C9428380F931F93CF9315
:1043D000DF930E94220DC091D503D091D603209780
:1043E00009F440C0CE010E94FF2C8130D9F10F8D1D
:1043F00010E04C8D5D8D4F5F5F4F6A8D7B8D2E8DF4
:10440000CE010E948A2B4C8D5D8D813029F44F5F47
:104410005F4F5D8F4C8F23C06A8D7B8D0F8D2E8DEE
:10442000CE010E94222DCE010E94112CCE010E94AD
:10443000FF2C813089F4CE010E947D2A088D198DD0
:10444000CE010E94202BEE89FF89309759F0B801E8
:104450008C899D89099506C0CE010E94D82ACE017B
:104460000E947D2A80910B0190910C01019631F000
:10447000DF91CF911F910F910C94FE0ADF91CF91A4
:104480001F910F91089580910B0190910C010E9452
:10449000AE388FEF9FEF90930C0180930B0140910A
:1044A000D3035091D40360E070E08091D5039091E4
:1044B000D6030C94C43CCF93DF93EB010E944322BC
:1044C00060E070E083E295E20E94E20ABE018AEABF
:1044D000DF91CF910C942C110F931F93CF93DF9307
:1044E000611134C0423041F40E944322DF91CF91E8
:1044F0001F910F910C94C30A413009F0BBC0C091C9
:10450000D503D091D6032097D9F0CE010E94FF2C7D
:104510008130B1F00F8D10E04C8D5D8D6A8D7B8DFB
:10452000615071092E8DCE010E948A2B813041F499
:104530008A8D9B8D01979B8F8A8FCE010E947D2A49
:10454000DF91CF911F910F910C94FE0A623001F51B
:10455000413009F08FC0C091D503D091D603209788
:1045600079F3CE010E94FF2C813051F30F8D10E0C2
:104570004C8D5D8D6A8D7B8D6F5F7F4F2E8DCE0153
:104580000E948A2B8130E1F68A8D9B8D0196D3CFD4
:10459000613009F06FC0411123C0C091D503D091A3
:1045A000D603209769F2CE010E94FF2C813041F2A0
:1045B0000F8D10E00F5F1F4F037011274C8D5D8D25
:1045C0006A8D7B8D2E8DCE010E948A2B813009F061
:1045D000B7CF8F8D90E00196837099278F8FADCFE5
:1045E000423009F047C0C091D503D091D60320973F
:1045F00009F4A6CFCE010E94FF2C813009F4A0CF90
:104600000F8D10E04C8D5D8D4F5F5F4F6A8D7B8D00
:104610002E8DCE010E948A2B4C8D5D8D813029F428
:104620004F5F5F4F5D8F4C8FEBCF6A8D7B8D0F8D12
:104630002E8DCE010E94222DCE010E94112CCE0182
:104640000E94FF2C813091F4CE010E947D2A088DBA
:10465000198DCE010E94202BEE89FF89309709F435
:104660006FCFB8018C899D8909956ACFCE010E94D0
:10467000D82A63CFDF91CF911F910F9108959A01AE
:104680002F5F3F4F032E000C440B550B072E000CE1
:10469000880B990B0E940C1ECB010895AF92BF921C
:1046A000CF92DF92EF92FF920F931F93CF93DF93FE
:1046B000CDB7DEB72B970FB6F894DEBF0FBECDBFD8
:1046C0000E94220D2EE230E042E250E060E070E015
:1046D00080E090E00E942838E091D503F091D60365
:1046E000208D318DA4E6B0E00E94603CAB01BC019E
:1046F00020E0CE0101965C010E94C310F5010190FB
:104700000020E9F73197EA19FB09EE0FFF1FEE0FC2
:10471000FF1FC12CD12C760101E010E020E030E039
:10472000A5016AE270E084E590E08E1B9F0B0E9479
:10473000B0372B960FB6F894DEBF0FBECDBFDF911A
:10474000CF911F910F91FF90EF90DF90CF90BF908E
:10475000AF9008958F929F92AF92BF92CF92DF92C7
:10476000EF92FF920F931F93CF93DF9300D000D06F
:1047700000D0CDB7DEB70E94220D0091D501109177
:10478000D6011E821D821C821B828AE689831A82C0
:104790000115110541F4E091D501F091D601309752
:1047A00009F066C08BC0D8011A968D919C911B9719
:1047B000892B89F31696ED91FC911797309759F351
:1047C00012968D919C911397892B29F39E012D5F51
:1047D0003F4FAE014B5F5F4FBE016F5F7F4F14963F
:1047E0008D919C9115970995A12CB12CE12CF12C60
:1047F000C12CD12C4801BAE18B0E911CF8018089A3
:104800009189E816F90638F6F801208D318D2F5F71
:104810003F4FA401B701C8010E94142997FDBBCFE7
:10482000E80EF91ED80152962D913C915397C2166D
:10483000D306D0F056968D919C915797820F931F77
:10484000C816D90688F41A96ED91FC911B9794012D
:10485000A50160E070E018968D919C9119970995DB
:104860008B819C81A80EB91EBFEFCB1ADB0AC6CF85
:10487000E288F388048915894689578940175107CA
:10488000E8F430E3349FC001359F900D1124B80146
:104890000E946F3CFB013E9DC0013F9D900D112485
:1048A000B8010E946F3CE12CF12C8701E3949F0139
:1048B00042E050E082E590E00E946A3726960FB60B
:1048C000F894DEBF0FBECDBFDF91CF911F910F9146
:1048D000FF90EF90DF90CF90BF90AF909F908F9020
:1048E0000895611103C0423069F507C04130C1F538
:1048F000613019F0623019F008950C94C30AE09108
:10490000D501F091D601309721F40E94AA230C948E
:10491000FE0A2289338946895789848995898417B3
:10492000950718F4138A128AF0CF2F5F3F4F841B2C
:10493000950B2817390718F0938B828BE6CF338BB2
:10494000228BE3CF413061F4E091D501F091D601A3
:104950003097D9F2828993890097B9F20197ECCF09
:1049600008950F931F93CF93DF93C091D303D091FA
:10497000D4030091D5031091D603CD32D10550F068
:10498000AE0160E070E0C8010E94C43CAC97F80141
:10499000D3A7C2A7E091D503F091D603309791F148
:1049A00082A593A5419740F08AE090E097A386A363
:1049B0008EE090E091A780A78EE493E293838283B8
:1049C00088E395E0918380832CEB31E23783268363
:1049D0009583848320ED31E2338722879187808716
:1049E0002BEB30E237872687958784878FE393E226
:1049F000938B828B118A108A8BE592E2978B868B40
:104A0000158A148A8CE692E29093E2038093E10384
:104A10001092E0031092DF039F0145EE51E26CEB30
:104A200072E080E090E00E942B0F90930C01809345
:104A30000B018091D5039091D603DF91CF911F9107
:104A40000F910C94202B0C94B1240F931F93CF93B0
:104A5000DF938FEF80930A01C091D703D091D803E1
:104A60000091D9031091DA03C333D10580F0AE0170
:104A700060E070E0C8010E94C43CE297F801D1AB4D
:104A8000C0AB85E090E093A782A711A610A6E091A5
:104A9000D903F091DA03309741F18AE190E0918FE8
:104AA000808F8EE090E0938F828F81E695E39383F1
:104AB000828388E395E09183808320E435E3338724
:104AC0002287918780872CE235E337872687958771
:104AD00084878DE195E3938B828B118A108A8AE01B
:104AE00095E3978B868B158A148A9F014DE653E3D5
:104AF00062E470E080E090E00E942B0F9093090147
:104B0000809308018DEE92E39093E2038093E1039A
:104B10001092E0031092DF03E091D903F091DA03E1
:104B2000309729F1158E148E178E168E808D918DEB
:104B300097FD01969595879591A380A3828D938D7E
:104B400097FD01969595879593A382A385E090E0C4
:104B500093A782A711A610A615A614A617A616A697
:104B6000CF01DF91CF911F910F910C94B22DDF9166
:104B7000CF911F910F910895DC019696ED91FC91D4
:104B800097974E9F90014F9F300D5E9F300D1124DF
:104B9000620F731F9B0143E0359527954A95E1F716
:104BA0009A964D915C919B972417350770F4FC0100
:104BB000E20FF31F84A590E06770772702C09595F8
:104BC00087956A95E2F78170089580E00895CF9304
:104BD000782F4115510561F4813009F04BC06230E6
:104BE00009F048C081E02230310509F043C043C0DC
:104BF0002430310561F4813009F03CC0613009F0A6
:104C000039C081E04230510509F034C034C0862FEC
:104C100090E064E0769F800D911D1124880F991F0C
:104C2000880F991F82569F4EFC01C4913196749152
:104C3000319664913196E4918E2F90E0A0E0B0E03F
:104C4000B82FAA2799278827972B8C2BA62B220FC2
:104C5000331F220F331F41505109420F531F440F7E
:104C6000551F04C0B695A795979587954A95D2F795
:104C7000837001C080E0CF9108952F923F924F92B0
:104C80005F926F927F928F929F92AF92BF92CF92DC
:104C9000DF92EF92FF920F931F93CF93DF93E11474
:104CA000F104D1F12701122F1B013C017A01812C63
:104CB000912CC22DD32DA12CB12CD7FD1BC0F301FB
:104CC00086A197A18C179D07ACF0F7FC13C080A5B7
:104CD00091A58E159F0574F09401A501602F812F79
:104CE0000E94E725882331F0212FA701BE01C601CC
:104CF000F2010995FFEFAF1ABF0A219685E0A816C9
:104D0000B104D9F6EFEF8E1A9E0AFFEFEF1AFF0AF1
:104D100085E08816910469F6DF91CF911F910F917C
:104D2000FF90EF90DF90CF90BF90AF909F908F90CB
:104D30007F906F905F904F903F902F9008952F92AB
:104D40003F924F925F926F927F928F929F92AF921B
:104D5000BF92CF92DF92EF92FF920F931F93CF9368
:104D6000DF93CDB7DEB729970FB6F894DEBF0FBE3D
:104D7000CDBF4C017B012C01440C551C440C551C2F
:104D8000620181E1C80ED11CCC9CA001CD9C500DCC
:104D9000500D1124495F5F4F93E0559547959A95C3
:104DA000E1F74F5F5F4F60E070E0C7010E94C43CD5
:104DB000F701C0828701960141E050E060E070E0B9
:104DC00086E090E00E94372021E030E0A60166E016
:104DD00070E080E090E00E94372029E030E049E078
:104DE00050E060E070E080E090E00E9437206201D7
:104DF000F9E0CF0ED11C29E030E048E050E060E05F
:104E000070E0C6010E94372028E030E049E050E021
:104E1000B60180E090E00E943720BE016F5F7F4FB7
:104E2000C4010E9477203C01A12CB12C1C0181E01F
:104E3000281A3108A614B704D4F5C12CD12C81E06E
:104E400090E08C0F9D1F8A0D9B1D99878887C61443
:104E5000D7044CF5A114B10431F4C114D104F9F014
:104E6000C214D304E1F0A214B30419F4C114D104A0
:104E7000B1F0E1E0F0E0EC0FFD1FEC0DFD1D6081F5
:104E800070E062507109E885F985808190E08701C2
:104E900025E030E045E050E002970E943720FFEF28
:104EA000CF1ADF0AD4CF9FEFA91AB90AC3CFE7E020
:104EB0008E169104B4F0F6E04F0E511C870126E0E7
:104EC00030E043E050E060E070E0C2010E94372033
:104ED00023E030E046E050E0B20180E090E00E9444
:104EE000372029960FB6F894DEBF0FBECDBFDF91F5
:104EF000CF911F910F91FF90EF90DF90CF90BF90D7
:104F0000AF909F908F907F906F905F904F903F9069
:104F10002F900895E7E0F0E020E05DE170E0422F9F
:104F2000441F4427441F459F402D1124220F422730
:104F30009B010E2E02C0359527950A94E2F7922F19
:104F40009170989F902D1124242F2927319738F79D
:104F5000822F08951F93FC010197889710F00E94FB
:104F6000973CCF01089624E0880F991F2A95E1F716
:104F70008E9F90018F9F300D9E9F300D1124205CDD
:104F80003F4FE130F105E9F0CF0167E070E00E94AA
:104F9000833C6E5F7F4F17EE1603A001179F500DE5
:104FA0001124465F5F4F469FC001479F900D569F5B
:104FB000900D1124C796280F391F379714F02452EB
:104FC0003109C9011F910895CF92DF92EF92FF92AC
:104FD000CF93DF936131710578F46C01E12CF12CF2
:104FE000062E04C0F694E794D794C7940A94D2F797
:104FF000CD28CE28CF2811F00E94973C615071092E
:105000006F3FBFEF7B0749F1F901A081B181ED014D
:10501000E3E0D595C795EA95E1F7C40FD51FFC01EC
:10502000062E02C0F695E7950A94E2F7E170FF2795
:10503000A095B095A770BB2701C0EE0FAA95EAF71F
:10504000F881EF2BE88361507109D901ED91FC9152
:1050500011973196ED93FC93D3CFDF91CF91FF90D1
:10506000EF90DF90CF900895CF93DF93CDB7DEB769
:105070002B970FB6F894DEBF0FBECDBF2BE0E9E251
:10508000F1E0DE01119601900D922A95E1F7892B4E
:1050900059F46A30710544F4E1E0F0E0EC0FFD1FD3
:1050A000E60FF71F808101C08FEF2B960FB6F894A3
:1050B000DEBF0FBECDBFDF91CF910895CF93DF93B9
:1050C000CDB7DEB72B970FB6F894DEBF0FBECDBFBE
:1050D0002BE0E4E3F1E0DE01119601900D922A95B8
:1050E000E1F7892B59F46A30710544F4E1E0F0E00E
:1050F000EC0FFD1FE60FF71F808101C08FEF2B968D
:105100000FB6F894DEBF0FBECDBFDF91CF910895EB
:10511000DF92EF92FF920F931F93CF93DF938C0157
:10512000EB016430710510F00E94973C0E94AA27A1
:10513000D82EE92EB801CE010E945E28F82EB801C3
:10514000CE010E9434282D2D3E2D37FF02C0295F4D
:105150003F4F93E0359527959A95E1F7A9016F2D7B
:105160006802401951091124CA01DF91CF911F91A2
:105170000F91FF90EF90DF9008950F931F93CF93BF
:10518000DF9300D000D000D0CDB7DEB7DC011E82A7
:105190001D821C821B828AE689831A8255961C9284
:1051A0001E92549759961C921E92589756968D911E
:1051B0009C915797892B69F150968D919C915197AD
:1051C000892B39F152968D919C915397892B09F136
:1051D0001696ED91FC9117973097D9F08D019E01AD
:1051E0002D5F3F4FAE014B5F5F4FBE016F5F7F4F43
:1051F00014968D919C9115970995D80152968D9191
:105200009C9153976B817C810E946F3CF801718F58
:10521000608F26960FB6F894DEBF0FBECDBFDF912C
:10522000CF911F910F9108953F924F925F926F928D
:105230007F928F929F92AF92BF92CF92DF92EF9226
:10524000FF920F931F93CF93DF9300D000D01F9254
:10525000CDB7DEB7E0E2ED831C821B821A82198291
:105260002115310519F48FEF9FEF93C029017A01C1
:105270005B016C01A90160E070E0C7010E94C43CC1
:10528000370100E010E081E0481A510880E2382E32
:105290000415150508F04AC0D6011296ED91FC914F
:1052A000139721E030E0AE014B5F5F4FB8016A0D0C
:1052B0007B1D8D919C9109950197A9F68D81811196
:1052C00001C03D828D81893009F43D828D81F301D9
:1052D00081933F014801FFEF8F1A9F0A8A3029F11D
:1052E000D60150962D913C915197C4018A0D9B1D7A
:1052F00082179307D0F41696ED91FC9117979E01B3
:105300002F5F3F4FAE014D5F5F4FB70114968D91F8
:105310009C91159709952B813C81F6018485958593
:105320008217930718F08401B3CF8401F701E00FCF
:10533000F11F10820115110551F1D8011197AE0D21
:10534000BF1D8C918A3011F41C921FC08032C9F0AD
:1053500080E090E02291203229F001968017910799
:10536000C9F70FC08017910760F4A00EB11ED601D7
:1053700050962D913C915197A216B30610F4081B3C
:10538000190BF701E00FF11F1082C80102C080E085
:1053900090E00F900F900F900F900F90DF91CF91B2
:1053A0001F910F91FF90EF90DF90CF90BF90AF9043
:1053B0009F908F907F906F905F904F903F90089557
:1053C000CF92DF92EF92FF920F931F93CF93DF93D1
:1053D00000D000D000D0CDB7DEB7DC011E821D8228
:1053E0001C821B828AE689831A8253961C921E9223
:1053F000529755961C921E92549757961C921E9245
:10540000569750968D919C915197892B09F466C0BF
:105410001C968D919C911D97892B09F45FC01E9657
:105420008D919C911F97892B09F458C012968D91EC
:105430009C911397892B09F451C01696ED91FC911C
:105440001797309709F44AC08D019E012D5F3F4F99
:10545000AE014B5F5F4FBE016F5F7F4F14968D9122
:105460009C9115970995D8011E968D919C911F9737
:105470006B817C810E946F3CF801778B668B672B78
:1054800069F1E12CF12C6801FAE1CF0ED11CF80191
:1054900080899189E816F906F8F4D80158962D917B
:1054A0003C9159972F5F3F4FA601B701C8010E9459
:1054B000142997FF04C0F801158A148A0FC0E80E5A
:1054C000F91ED80154968D919C9155970196559649
:1054D0009C938E935497DBCF138A128A26960FB62D
:1054E000F894DEBF0FBECDBFDF91CF911F910F911A
:1054F000FF90EF90DF90CF900895CF92DF92EF92E0
:10550000FF920F931F93CF93DF93EC01EA81FB810E
:10551000309719F0888199810995C884D984EA84E3
:10552000FB840DA12CA140E050E060E070E0CE01D2
:105530000E943D268E859F85892BB1F4CC80DD802D
:10554000EE80FF804C8D5D8D6A8D7B8D0F8D2E8D55
:10555000CE010E943D26DF91CF911F910F91FF90C8
:10556000EF90DF90CF90089500E010E08EA19FA112
:10557000081719071CF7E12CF12C88A599A5E81646
:10558000F9065CF4A701B801CE010E94BC25811187
:1055900007C08FEFE81AF80AF0CF0F5F1F4FE6CF72
:1055A000EE85FF85A701B8018C859D850995F1CF12
:1055B000CF93DF93EC01ECA1EE8F8DA18F8F2EA105
:1055C0003FA137FF02C02F5F3F4F35952795F0E091
:1055D000E25FFE4E449190E0880F991F50E0082E44
:1055E00002C0559547950A94E2F740FF03C04DEF7E
:1055F0005FEF02C04EEF5FEF240F351F3B8F2A8F06
:10560000E491F0E0816002C0F595E7958A95E2F7B4
:10561000E0FF03C08DEF9FEF02C08EEF9FEF9D8FE5
:105620008C8F66E070E0CE010E94021D8CA363E0C7
:1056300070E0CE010E94021D8DA3DF91CF910895ED
:10564000CF93DF93009709F461C0EC01198E188E97
:1056500066E070E00E94021D8E8F63E070E0CE0174
:105660000E94021D8F8F2EA13FA137FF02C02F5F26
:105670003F4FA90155954795EE8DF0E0E25FFE4E54
:1056800024919927880F991F30E0082E02C0359584
:1056900027950A94E2F720FF03C02DEF3FEF02C0E9
:1056A0002EEF3FEF240F351F3B8F2A8FE491F0E060
:1056B000816002C0F595E7958A95E2F7E0FF03C0A7
:1056C0008DEF9FEF02C08EEF9FEF9D8F8C8F66E076
:1056D00070E0CE010E94021D8CA363E070E0CE0159
:1056E0000E94021D8DA38EA19FA1059699A388A358
:1056F00085E090E09BA38AA34AA55BA560E070E0EB
:10570000CE018C960E94C43C81E001C080E0DF9114
:10571000CF9108952F923F924F925F926F927F9216
:105720008F929F92AF92BF92CF92DF92EF92FF92B1
:105730000F931F93CF93DF9300D000D0CDB7DEB788
:105740005C014B016A01122F7B011B0124E0220E38
:10575000311CCA0104969A83898337016818790835
:105760002E143F040CF445C0DC82CB824B805C805D
:105770004C185D0829813A818B819C812817390753
:10578000A4F1F7FC12C0F50186A197A1E816F9066D
:1057900064F480A591A52B813C81281739072CF44E
:1057A0008B819C8197FF0BC01AC09201A301602FCF
:1057B000812F0E94E725882399F380E01BC0920186
:1057C000A301602F812F0E94E725882341F04B81A0
:1057D0005C81B701C5010E94BC258111EECFEB8130
:1057E000FC813196FC83EB83C1CF9FEFE91AF90A64
:1057F000B4CF81E00F900F900F900F90DF91CF9179
:105800001F910F91FF90EF90DF90CF90BF90AF90DE
:105810009F908F907F906F905F904F903F902F90D0
:1058200008952F923F924F925F926F927F928F9244
:105830009F92AF92BF92CF92DF92EF92FF920F931F
:105840001F93CF93DF9300D000D000D0CDB7DEB749
:105850009E838D83DC0198960D90BC91A02DBA8318
:10586000A983C12CD12CE12CF12C44244394512C3C
:1058700069817A81C616D7060CF076C0AD81BE81EB
:105880009696AD90BC90979700E010E00A151B0526
:1058900064F4A601B8018D819E810E94BC258130EF
:1058A00009F05EC00F5F1F4FF1CF0A151B0509F00D
:1058B00057C00C9D10010D9D300C1C9D300C112407
:1058C000C601612C712C181619060CF046C0930104
:1058D000220D331D812C912CFC0131975F01801624
:1058E0009106BCF5A501B4018D819E812B833C837B
:1058F0000E94BC252B813C81A401420F531FFA0159
:1059000093E0F595E7959A95E1F7AD81BE819A967A
:105910006D917C919B97E617F707B8F4EA0FFB1F90
:1059200047705527811109C0C20101C0880F4A95EF
:10593000EAF7809594A5892307C0C20101C0880FAA
:105940004A95EAF794A5892B84A7BFEF8B1A9B0A87
:10595000C6CFC501601A710AB6CFFFEFEF1AFF0A72
:105960004FEFC41AD40A84CFB2E0EB16F104D1F0A1
:1059700058F4EA94EF2851F5AD81BE8158968D9187
:105980009C91599701961BC043E0E416F10481F005
:1059900054E0E516F104D1F4ED81FE81808D918D06
:1059A000409612C0ED81FE81808D918D04960CC0D1
:1059B000AD81BE8158968D919C91599708965996C4
:1059C0009C938E93589702C0918F808F26960FB626
:1059D000F894DEBF0FBECDBFDF91CF911F910F9125
:1059E000FF90EF90DF90CF90BF90AF909F908F90FF
:1059F0007F906F905F904F903F902F900895FC01A3
:105A000066A177A120E030E026173707BCF4F90142
:105A100043E0F595E7954A95E1F7E80FF91F44A5AE
:105A200050E0F901E770FF2702C055954795EA95C8
:105A3000E2F740FD05C02F5F3F4FE6CF80E00895BD
:105A400081E008952F923F924F925F926F927F92E2
:105A50008F929F92AF92BF92CF92DF92EF92FF927E
:105A60000F931F93CF93DF9300D000D0CDB7DEB755
:105A70006C015B017A01922F702F2501150124E042
:105A8000220E311C4A0134E0830E911C662463947B
:105A9000712C82010A191B09241435040CF44BC023
:105AA000FC82EB822B813C812E193F09EB81FC812A
:105AB0008E169F06E4F1A801672F892F7A839983B8
:105AC0000E94E7257A819981882359F1D60196961B
:105AD0004D915C919797EB81FC81E49F9001E59F4C
