:100000000C9415090C9432090C9432090C943209A1
:100010000C9432090C9432090C9432090C94320974
:100020000C9432090C9432090C9432090C94320964
:100030000C9432090C9432090C9432090C94320954
:100040000C946B0B0C9432090C9432090C94320909
:100050000C9432090C9432090C9432090C94320934
:100060000C9432090C943209637C777BF26B6FC578
:100070003001672BFED7AB76CA82C97DFA5947F0AB
:10008000ADD4A2AF9CA472C0B7FD9326363FF7CC87
:1000900034A5E5F171D8311504C723C31896059A24
:1000A000071280E2EB27B27509832C1A1B6E5AA047
:1000B000523BD6B329E32F8453D100ED20FCB15B32
:1000C0006ACBBE394A4C58CFD0EFAAFB434D33859B
:1000D00045F9027F503C9FA851A3408F929D38F56F
:1000E000BCB6DA2110FFF3D2CD0C13EC5F974417A6
:1000F000C4A77E3D645D197360814FDC222A90881D
:1001000046EEB814DE5E0BDBE0323A0A4906245CA8
:10011000C2D3AC629195E479E7C8376D8DD54EA90D
:100120006C56F4EA657AAE08BA78252E1CA6B4C6D9
:10013000E8DD741F4BBD8B8A703EB5664803F60E32
:10014000613557B986C11D9EE1F8981169D98E9421
:100150009B1E87E9CE5528DF8CA1890DBFE642683A
:1001600041992D0FB054BB16000000002400270059
:100170002A0000000000250028002B0004040404CD
:100180000404040402020202020203030303030341
:10019000010204081020408001020408102001021E
:1001A00004081020000000080002010000030407FA
:1001B0000000000000000000396AD11A6C1C548F46
:1001C0007CF7563D437E85DA6D5CB082FF97B9E0DF
:1001D000637962656172737B793075725F643376BF
:1001E0003163335F31735F756E37727573373364A4
:1001F0007D008D01020408102040801B360000188D
:1002000014000018140000181400001814000059FD
:100210000000040804000019000404080400040895
:10022000140000190100050804001019000004085A
:10023000050001190000140804000019100010182E
:100240000400000914000409010005180000041846
:10025000100000180500010904001409000004182A
:1002600004000019040004090400041900AA882AE3
:10027000A22A2A2A4A54601285B07807102907203A
:100280002CAF7C087CD6EE031A215E2156575B2DDD
:1002900098712F2AAB6A2CD9A187AE0BD7502D6C41
:1002A0000EC881EF7F7B74C512088924742834013D
:1002B00074E2D41D1D0B311E3E33B3611A6FC6FFAD
:1002C0005C4374078FBB700E1E460B2D2EAC7C0951
:1002D0007AD1EA416E5B2ABC8E473B2D1B35F01D5F
:1002E000994B3C49FCC5627D543DA99D5A24300878
:1002F000210708AAA6D3A40F309588BDC05460A9D1
:10030000D1C7FDD2EAE767B5E6B31A238897A0D331
:100310004377BBC2EAD2FFD9D25080F58EDD1EBB37
:10032000A297E6705A93EFE107E8CCC14D9FE89D94
:10033000300AA8B1FA891D29E69880BB6A4C3DBEF7
:10034000EA9FE843643E77CF33F23CF27994598CCC
:100350000C13C15332C791B60B6B6304C9AC20B602
:10036000A9508C698CAE7E0B78F942071100528E31
:10037000BC75091D7352760DEE29FE8B2E179A055A
:10038000C98AD1159DB3A78AE16F6F1CCFC43317FB
:10039000A80AEFA5681E263D1A6F557A5220DF0382
:1003A00070E8629B203F087BD5DFF5856BB400A128
:1003B000554FE0156931066CA480C1645DEAF7FE13
:1003C000B897C8D65B88DF85DFE14621121F645EDF
:1003D0007FC014100DD89396AC39B0F7DC7983CF79
:1003E0001CCD88ADC2C2F92E007A60D0D381F8301E
:1003F000E3934440D313A7030E18DBE2FE7B90D6B1
:100400002A1CE6827EABE24C0D563BDE36073EED03
:100410006E3BCBA6D21A4F326712C6B58A141F188C
:100420000E4E27456D1C94330355B88DF0665099D8
:10043000E1F64DE2BAB737E596E34A73E8C7F085CF
:100440000B4F2F1CA2C283A9A22072C37475CC4289
:10045000D1E7960002FFE76A1B886D511DCFB84FA8
:1004600025D3DE4343D92D19D6AE98CC6609A49E78
:10047000DAAFD873B4110C394CEAEC2555437956F0
:10048000767BC4D142379EA7041B2C5FC7F3384646
:10049000566E436556D4047102A99237261362F44E
:1004A000C60F7365436CB044C1136411B48D2A3513
:1004B0000675E1D562220830193F50B26E1B6CCB35
:1004C000E85D4075118EB871091C1B86222FA8119A
:1004D0000E7BD2EBBF86782BBB09743A221A04EE4E
:1004E0007798482AAA7DC6637EB0CB7E8E3DD8859C
:1004F0000F2004B68A9A429CC9C6D689B2D6AA965B
:10050000180CA77225EBE4644CF8C6E8F2756E216E
:10051000D4422B601330AA1201BB5381F1757BC406
:1005200009155919EF5B9191B6D99D16B3B355E9E9
:100530009A1EE3CC39167DE3F7E79B8846BA4F4015
:10054000A68481D54C659D782102909CF4BB6CA853
:100550008A5314F33DFC3B90AF15E8632BEB993EB7
:1005600032A46649AA8CEF6A1D4DEDC4778CB8B2EF
:100570005E1C27545D1EA2860D303785917B206C52
:100580009FE9B9AEFB4E4AE7774701CC3250AA2A21
:10059000308AF00EECBB2226F07916528BD4A3A53C
:1005A0000B80FB539381A3D98712EA1461AC481BDB
:1005B00091B1F51644912969A45C9EF4D0239D7BEA
:1005C000695FBC74597A00F1FDB72490CF83197923
:1005D00028E302E2C5517ACB911CEB91E0E2038360
:1005E000A01871872FDE3C0FD2036EFBC22B44D9BB
:1005F00017EE8D8AF1460B21D9B2E2250DF080521B
:10060000215B023B8E60571D48804B34DAEAC7FFFE
:1006100095A9443179D306B3AB9CED887D74E9DEAE
:1006200057F0D4D9A4A9AFAAFB8056B982B15D56C0
:100630005F210CBE839BB436FC9F187BE3D7C1318E
:1006400084125B3D92BDA07F7E9963F1891F298F43
:1006500004CDDCB0BF0BC0BED16EA796593C3CB9EF
:10066000CA61653FF9C9C2CC20D7ABBF8BA4816EEC
:10067000F7DBD35B8CB5120D7C4D266DD5B440787D
:10068000517578F84A430B7F2005182950C6F03B76
:1006900050576D425A57D7057703AA93B82710636E
:1006A0002BC70F6E7A426F4942C010651E4D7E2BDC
:1006B000320776E0AA631F3933183C31BD6F186DDD
:1006C000C0F55F416A198DB976081C2719632CAEF5
:1006D0007A0F78D3D47194A92CBA8C453523193666
:1006E000261B9B492257FEC7647B803C679C58E6CB
:1006F000390E20C981F454D26239315787485A548F
:1007000000AE4BC9E254E883076A5D07725EEC7382
:100710007F54D8CA7493314E04266FA3489741BCC6
:100720002ED013F394A22922DA990871CE16D4AEF2
:10073000E8A7FED263A93BBD7DE32517318CFB689A
:100740000CF5712EC03B0A0F29DC59BB51374A60AA
:1007500034B39865E40B68365B6D90E9D2A135013E
:10076000CEB0A49CB44B8406D2A7D07B4CE9FAF15E
:10077000B42214DD5D4B715E7D730B205A2F86BF52
:100780001C033447CFFB304E5E664B6D6EEC3C79FC
:10079000BA91AA0F2E1B6ABCDE01646D5974505DBC
:1007A000E70B7C0F7F39223D8E6DF7A51A62BEB72D
:1007B000A04748CA6990A4CF0CAAB67D0096A7F6B8
:1007C000EE0631F5D4C7A77509B01A9348B91FEFE3
:1007D00083B77FCDEA123F16ED2F803D4F1D2E7B54
:1007E0006257D96F4A532F20C4280C01B2A0D35DA1
:1007F000F0CA61693A49DA9619188CE4A58A3FFE75
:10080000AA2847FB2481834E20127CB9FA2CE9C226
:10081000E5155440F3872FE870AA9C9E84A438F60F
:10082000C6E94BF546491B06AC1902A069C3E2E5CF
:10083000CEE1DAF5B4BB473539E2A720B5AFF8FA17
:1008400009741125F4B3875F09AF5FD2FCCBACB458
:10085000F71388E5A9DF0CC1B9303447270D9BCDCC
:10086000FECB6BC85EE103CB290ED48A168E947C36
:1008700066BEFAA562CDB7130503B1B7E77E08B12E
:10088000EBF2A7606A01B1BD9B669791A2D43C16BA
:10089000501589946005F1B3CDEAFC6463CCE7D6CA
:1008A00085A1E652D6B8BE91A038347B60CA4D000F
:1008B000D2927B98C3D9CE4CF3CFE4753AC0079E51
:1008C000BF9A0550506BEB6D794736810275D0EABF
:1008D0002F640006ED221D52513145ACBAF3D0060B
:1008E0008AC9F8EAD9E14AE3BE7D06707EA190A1EB
:1008F0000136CEE139898845F6AC883B64BB8CF87B
:100900002CA99CDAA283300861E30B3A4F95A985A4
:100910008D5BE640557C00F5DFD83C2E9E803B7217
:10092000DFE84F4194E691286AD7033B6ADC5BBF5E
:100930006568A7D08B2E330073E53318627D866916
:100940004944F4167B08A1982B241360F8CC07596E
:1009500069517C5A69EB3B4E3D96AD08192C5DCB35
:10096000F9304C5A7C53777AFE2C5B2E8BB2150AE9
:10097000394ADEEA265CB52C1B6F60F2724EC8DA8B
:100980007EE4887DA94283D90F3CBF636E6FBC5360
:100990002F50F7A1644A6C1992BC507A20091E3579
:1009A0003FAB241562C9F6500020519FA56C491336
:1009B0003C09202CC606654BAB9E3B671374BAAB53
:1009C0002D436D58685808CE067300A8D6667B166E
:1009D00063F59A1F4E42755B6D72E66F59208BF17D
:1009E0001D167B44DCF2344B4D28437963E05605F9
:1009F0006BF18E06EFD7C00F0DCFBEA9D5F4B49C16
:100A0000008BEDA34F46EAF8CAF36939DBBDF0DA93
:100A1000CBAB8104ED808E6871D8CDEEEA2628E656
:100A20008588AE92C9FE7DA5D6F2572F918DB1C3B0
:100A3000023AB0A1E5DCF9DCC0558EF68B6531AB2E
:100A4000A799EF7E5DDFDCF0CBFEC5CE0DD9A8B651
:100A50002905A7B4D0900738F6D9C1B884A3A62E2B
:100A6000FADEA54F0F8485A7D35E79F9E8CAA9E518
:100A7000FFE96EAB724EFD974079552CBC8F413823
:100A8000215E171A118A14205CFD82737E4672ABB8
:100A90008257262773383123B471076484CD484ABE
:100AA000740994A8614C1726493B28A73E2A7BDE8F
:100AB000E64A104D69FDC3046B23787F4653CC1979
:100AC0007119AFF1716F522BBBDE1926231A3D1439
:100AD0001AC91521058CA210023640DFA26C6540B0
:100AE0006643384AF1325630D8860A183142AFA0F0
:100AF0006E1A013CBC96D84793ED913B5DF4A8E794
:100B0000AB052DEB84FB80A08AC31ADEBF9E3A475B
:100B1000E3E484A41026E59180B3DBBEB129E09D17
:100B2000AA497BC9DBAB88093FF3CB84A491B2ED22
:100B30003DFE94ED6C18B7BE8DEC7E4899B8C4D9D3
:100B4000E7DEDC30C7B2CE6E50A4B5C1A1340AC90D
:100B5000B1BBFEE1E8E263ACD8BA4A3C96C7A4CB8D
:100B600056278EDDCFECDBF0A228A0D0B055268A28
:100B70009EAB964F8C0339281A3D5C01915571014B
:100B8000CED86A694B37A49C5A687A44160B198CE4
:100B9000494509A1AE011C6901D6FD3F4553291BFA
:100BA0007A178E47215F9EC5767E4D34CBD9295C5E
:100BB000467E13281A855E2452B99F7B04066BF883
:100BC000C2067D62034F4044CD1F611FB3886A197E
:100BD0000976EAC66E774475497E63987F0179D7B6
:100BE000A8104C67029FA82144134A5A6761AF0EB0
:100BF0004B2893A6F5A3DAB22B0ED7A9AB94B0D1AC
:100C0000B835EBAE964954E2FECABD3A13DDB3FDEA
:100C1000ABA18AC91EE29EEB4D75CFA3A0DB447148
:100C2000FE9DC8EFD7FBF436FFCBC4536989E6EECF
:100C3000950674E9F2ABE2F6DBDF5FC1F39C662F49
:100C4000BDB591E32F4C99FAF686CCC2C148DCC001
:100C500094250FA19AB2C5527DEBF7C4FAD9B0BB67
:100C6000399CD5A5054FD1C7FE8D5970F6978ABA24
:100C700091F7E526671570CAE25B47720EF6A27B14
:100C80001406367E6054DD077643F78F3C2D1163E2
:100C9000B39A100A0B3114303CB7203367C7EC5EAF
:100CA00002540E91B47D0A1567400A02E43F26788B
:100CB000C4FE4143117AB1E21F7465511F07068FCC
:100CC0005A6F05EFD07B6F596CE790216D614C67CF
:100CD000520BE7185C239DB4151B390FF0E23A5212
:100CE00043705A7B61A81A443395E2301F3057AEE7
:100CF000A265100583B1D4C04B91E4D16911DBE149
:100D0000C0A03F11C7BEBD93E9868E42F9A7D56347
:100D10004BE5F9CB8F5E18C8BACF9893B1AD30EEE2
:100D200091E55669CFD3E49E192CB49E9DEAA3A405
:100D3000AC2DF999C60B1FA1A788EF6A47CBD4EE5B
:100D4000CFE994E95798F4903B15AFB68CBD414379
:100D5000DED3FDC0CBF2FB3681D2B30A2E9CEEE48B
:100D60009E0034BDC097B494BDB373BC869B173648
:100D7000CCB0A8D8AC8E0C0D271A2D1411DC0A7932
:100D800061F8D6767BD458F5C4077B3C0668595782
:100D9000D80B2D5480D153543E398EA22A230534CA
:100DA000123835BF362175DCEB096B641C90B976BF
:100DB00041516D29435BDE001C5AF0C268261D2F8D
:100DC000A29756222A43620563D404641DBE872578
:100DD00035475EE9ED2B1F7A725B6963F43B416D29
:100DE000ACB61D0A6A6AD4EA224D5177095763FEF0
:100DF000232569C30EA1BCD8A1765D95EFF1C9B7D3
:100E00009BD738C6B7D96A42F6F2C2B86730C1A4D8
:100E1000B39CE3A4B222E183F14860CE86C790156B
:100E200022EA9097A28ABCE90CF290E5145AC3D941
:100E3000E59A195FD3ACB282A9DEDD1EDFAAD676B1
:100E400048BCADD9DF625793E8F385C2CDC14A846F
:100E5000FE94264BA49DBDC55F7CE8FFCEF6DEFE6A
:100E6000EE388ACFBF132DE9CBFE841922BACA9D72
:100E7000BE92BEB9C5573D09C6D060685E6CB280EF
:100E800054392A1B6D1C0D925A6774F4CF6271534A
:100E900078848658130839173B59E233403F96EF60
:100EA000510F255DDFEB6003520A3E030D843C2B9E
:100EB00048F4CB64444A30AC9E1776210A2E050DC7
:100EC000C906302C9AA3627A3D78EAC808613708CF
:100ED000486A08F9255C368AB3141A3900E4E53FFC
:100EE00058426A1E4E66E9750073B7A21C034A0297
:100EF00099A26C52A7DEEDC3C340D0B8824157FE21
:100F0000A2FFA7221E93F8F5B7A99F921AD0BAD9CB
:100F10006309DEFDFF880E2C8CCAD6E5C5A3B1722D
:100F2000B9C5B81374CC90C890067CEC8A86BBC651
:100F300084AA38FCE1C72F05B1EBBEEA7B4C86F1F1
:100F4000A6CAFC95F357D8A1863107E7B08AE077A7
:100F500042DFB1CBA08EB8CC74A2C6B244329CC5DD
:100F600085C05270A0C5CCF985DFE563ACC8B95720
:100F70006ECDA3B12DA989532D454660424F8F40B8
:100F80007218B889306F45778AB9600F0024082E2F
:100F900024C87A1F43ECDD1F202C54CAF27B1A4D63
:100FA0006B4A6569B57A4C42D0F806406D04C5A21B
:100FB000760F0120795513C2426213AEDC0A173D49
:100FC0000EA69E5C3D6B4C221A1990417A12FAAA29
:100FD00020361276CBE4321E6C7748747DEF6C1F9E
:100FE0006AB1B50B1B254EC5FF3B0B7B7E50757F51
:100FF000EC7B7A2C605BF7FFDFAF3001C3A0A99DCB
:10100000A2DBAF13CCB9CD3F08E4F3CCF00C1FCA80
:10101000A9FEE7F6E0E467F59BAF1F298A97E08E0B
:101020005F06EF8693B48AE98B2EF38CFA5060DF6B
:1010300092D593135A8CF1FAD2B4FFD0538BF48427
:101040003311FEE7CACD684C82EDF2C6E0D1CB2465
:10105000CFB5CA63249CC0EC960E3CB5D88FD8C1DE
:10106000F7E97FBA82F15E048894BFD64974F8E547
:10107000D3FCC6E8199A5D7D71E0DE616F5C62F2B7
:10108000C6642A290A29A365B463087ED5E92A46DD
:10109000651A93B008141C2409657FFD60147CCE8A
:1010A000F9134165559DB7641D17200B313BE22FA5
:1010B000407EDEEA233B1168F9CA0574714E765D05
:1010C00051960B721BF28F2D3E0A66A6DA0F6A7DCF
:1010D00010741923DB08600CA9F1475A6116BFD8B8
:1010E0002145563C496E72EF31427092BF63012F29
:1010F00058CDF736B8AFD1BF909779C2BBC1214B5D
:10110000BCE1D1E73B09C5BDAA83AFE7BD0FD4ACB5
:10111000DE6446EAA4D7831225F4F1AABA99B5AEE3
:1011200053A1DFB90C35929E84D74A6DACC7FAE261
:10113000C2F4FD78D2B0EE7E48E5F8CEB52414E3D3
:10114000F2FEDFF7CBD5548EE2C23B0F97E4D5A178
:10115000374AF689AAE48FB7A63EF198AC002A9ADE
:101160000000000023002600290000004908B40008
:10117000BEF67B7AA59455B848002944442A15A0A8
:101180000B42005003020008259076BA595CC59EB8
:10119000C53892E6F33A73BAE59077BA773A0840E1
:1011A00008502A441CE08852E508568E77B677B876
:1011B000728CD6BA739E739272AEB7B6E95C64AAAB
:1011C000B7B4929CBEB6D6B656AAD79276EE77B48E
:1011D0007138E948B6AEB6AAB6F6B5B4B548E59CDE
:1011E000694C9124642E5400001C44000EAE9ABA3F
:1011F0000E8C2EAE0ECE56D0553B93B44144415189
:1012000097B4494417B61AB60AAAD6D37667179088
:101210000F389A8C16AE16BA16F615B4B52B1C5E9E
:101220006B4C4948C95A540056E211241FBECFEFF7
:10123000D8E0DEBFCDBF11E0A0E0B1E0E8EDFCE713
:1012400002C005900D92A638B107D9F726E0A6E8AE
:10125000B1E001C01D92A636B207E1F70E94DC3A68
:101260000C946A3E0C940000CF93DF9390E0FC0155
:10127000E057FE4F2491FC01E458FE4F84918823EF
:1012800061F190E0880F991FFC01E859FE4FC5916C
:10129000D491FC01EE58FE4FA591B491611109C0A3
:1012A0009FB7F8948881209582238883EC912E2320
:1012B0000BC0623061F49FB7F8943881822F80951B
:1012C00083238883EC912E2B2C939FBF06C08FB76E
:1012D000F894E8812E2B28838FBFDF91CF9108955A
:1012E0003FB7F8948091C0039091C103A091C203CD
:1012F000B091C30326B5A89B05C02F3F19F00196F6
:10130000A11DB11D3FBFBA2FA92F982F8827820F8B
:10131000911DA11DB11DBC01CD0142E0660F771FDB
:10132000881F991F4A95D1F708952F923F924F92A7
:101330005F926F927F928F929F92AF92BF92CF9265
:10134000DF92EF92FF920F93CF93DF931F92CDB76F
:10135000DEB7982E6B012A011901E090B903F090D5
:10136000BA03A090B703B090B8038DE1E816F1047A
:1013700060F0A70160E070E0C5010E944F3EECE123
:10138000EE1AF108F501F38EE28E8091B703909189
:10139000B803009759F028E330E0FC01318B208B33
:1013A00027E230E0338B228B0E9417188091B7031D
:1013B0009091B803009749F025EB39E2FC0137839F
:1013C0002683158214820E9417188091B70390918A
:1013D000B803009749F022E539E2FC013387228700
:1013E000118610860E9417184CE050E06BEA73E0FB
:1013F000892D0E94691DC6010E94DB396C01909302
:101400001301809312014C01002311F0689487F8B6
:10141000C6010E9453223C011982E12CF12CA12C1F
:10142000B12CA614B70419F1E114F10419F4EE2457
:10143000E394F12C21E030E0AE014F5F5F4FB50146
:10144000C6010E94CE1E019719F0E12CF12C0FC0AD
:1014500089818C3241F08A3021F4FFEFEF1AFF0AC4
:1014600002C0882321F08FEFA81AB80ADACF002330
:1014700019F0EFEFEE1AFE0AE091B703F091B8030E
:10148000309759F0F78AE68A8BE999E29383828351
:1014900091828082CF010E9417188091B7039091AA
:1014A000B803009739F0FC015786468615861486E6
:1014B0000E94171820E030E047ED5DE268EE73E02F
:1014C00080E090E00E94032290931101809310012C
:1014D00089ED9DE29093AA038093A9039092A803BB
:1014E0008092A703E091B703F091B803309711F011
:1014F000358A248A0E94602C0F90DF91CF910F9142
:10150000FF90EF90DF90CF90BF90AF909F908F9023
:101510007F906F905F904F903F902F900895CF9263
:10152000DF92EF92FF920F931F93CF93DF9300D040
:1015300000D0CDB7DEB76217730784079507FCF4B8
:1015400089019A016B017C01A9019801261B370BC7
:10155000480B590B69F029833A834B835C830E94C3
:101560006A3D29813A814B815C810E94973D03C08D
:1015700060E070E0CB016C0D7D1D8E1D9F1D0F90F6
:101580000F900F900F90DF91CF911F910F91FF90CF
:10159000EF90DF90CF900895833081F028F4813070
:1015A00099F08230A1F008958730A9F08830B9F021
:1015B0008430D1F4809180008F7D03C080918000C1
:1015C0008F7780938000089584B58F7702C084B5AB
:1015D0008F7D84BD08958091B0008F7703C0809186
:1015E000B0008F7D8093B00008951F93CF93DF9359
:1015F000282F30E0F901EC55FE4F8491F901E057B6
:10160000FE4FD491F901E458FE4FC491CC23C9F0A8
:10161000162F81110E94CC0AEC2FF0E0EE0FFF1F75
:10162000EE58FE4FA591B4918FB7F894111105C0F3
:101630009C91ED2FE095E92302C0EC91ED2BEC930A
:101640008FBFDF91CF911F9108958F929F92AF929C
:10165000BF92CF92DF92EF92FF926B017C010E94CA
:1016600070094B015C01C114D104E104F104F1F0F3
:101670000E947009DC01CB0188199909AA09BB09EC
:10168000883E9340A105B10570F321E0C21AD1084C
:10169000E108F10888EE880E83E0981EA11CB11CB9
:1016A000C114D104E104F10419F7DDCFFF90EF90EC
:1016B000DF90CF90BF90AF909F908F9008952FB7FD
:1016C000F8946091BC037091BD038091BE0390912A
:1016D000BF032FBF08951F920F920FB60F921124D0
:1016E0002F933F938F939F93AF93BF938091BC03AE
:1016F0009091BD03A091BE03B091BF033091BB0395
:1017000023E0230F2D3720F40196A11DB11D05C044
:1017100026E8230F0296A11DB11D2093BB038093E1
:10172000BC039093BD03A093BE03B093BF0380910D
:10173000C0039091C103A091C203B091C30301966D
:10174000A11DB11D8093C0039093C103A093C20358
:10175000B093C303BF91AF919F918F913F912F9110
:101760000F900FBE0F901F9018959C0184E0D90137
:1017700090E0EC91F0E0E859FF4FE491EC939F5F2B
:1017800014969430B1F781502F5F3F4F8111EFCF06
:1017900008950F931F93CF93DF939B0190E1899F4F
:1017A00080011124A0E0B0E0FD01E00FF11FE40F83
:1017B000F51F60E070E0E901C60FD71F91918881A5
:1017C000982798836F5F7F4F64307105A1F7149657
:1017D0002C5F3F4FA031B10539F7DF91CF911F91B9
:1017E0000F9108959C01CB010197889770F5CB016B
:1017F000079661E170E00E940E3E24303105E9F069
:1018000060F4660F771F2130310599F022303105E1
:10181000E1F4FB01E35DFE4F15C027303105B9F05F
:101820002830310591F4660F771FFB01EF5DFE4F05
:1018300009C0FB01ED5CFE4F05C0660F771FFB0181
:10184000E95DFE4F8081918108950E94223E80E0F3
:1018500090E00895FC01A081B0E0FD017597ED399D
:10186000F10550F477FD08C06A177B072CF457FD8B
:1018700003C04A175B0714F00E94223E4A9FF00102
:101880004B9FF00D5A9FF00D11246E0F7F1FAB017F
:101890004770552733E0759567953A95E1F76F5F87
:1018A0007F4FFC01E60FF71F81E090E001C0880F39
:1018B0004A95EAF7222319F09081892B03C080957D
:1018C00090818923808308954F925F926F927F92D7
:1018D0008F929F92AF92BF92CF92DF92EF92FF9240
:1018E0000F931F93CF93DF936C015B014A01790142
:1018F0002801C0E0D0E0CE15DF05ACF400E010E038
:101900003E016A0C7B1C081519055CF4B8016C0DCE
:101910007D1D21E0A301C2010E942A0C0F5F1F4F11
:10192000F2CF2196E8CFDF91CF911F910F91FF90D9
:10193000EF90DF90CF90BF90AF909F908F907F906F
:101940006F905F904F900895FC01208130E0F90185
:101950007597ED39F10550F477FD08C062177307EC
:101960002CF457FD03C04217530714F00E94223E87
:10197000429FF001439FF00D529FF00D11246E0F16
:101980007F1F9B0143E0359527954A95E1F7FC01C0
:10199000E20FF31F818190E06770772702C0959571
:1019A00087956A95E2F781700895009711F40E9477
:1019B000223EFC01808190E09C01255131092D39A6
:1019C0003105A8F708950F931F93CF93DF939C01E0
:1019D0008B0181309105A1F167E070E00E940E3E1D
:1019E000EB012296FB0131962032310581F0C901CD
:1019F000880F991F8C0F9D1F880F991F0196BF019B
:101A0000660F771F0E940E3E660F771F02C06AE1C5
:101A100070E0CF01220F331F220F331F265F3F4F8D
:101A20001816190644F4F801E80FF91F20830197EE
:101A3000261B370BF5CF86E0F8018083CE0102C06C
:101A400080E090E0DF91CF911F910F9108952F9248
:101A50003F924F925F926F927F928F929F92AF923E
:101A6000BF92CF92DF92EF92FF920F931F93CF938B
:101A7000DF93CDB7DEB729970FB6F894DEBF0FBE60
:101A8000CDBF4C017B012C01440C551C440C551C52
:101A9000620181E1C80ED11CCC9CA001CD9C500DEF
:101AA000500D1124495F5F4F93E0559547959A95E6
:101AB000E1F74F5F5F4F60E070E0C7010E944F3E6B
:101AC000F701C0828701960141E050E060E070E0DC
:101AD00086E090E00E94640C21E030E0A60166E020
:101AE00070E080E090E00E94640C29E030E049E082
:101AF00050E060E070E080E090E00E94640C6201E1
:101B0000F9E0CF0ED11C29E030E048E050E060E081
:101B100070E0C6010E94640C28E030E049E050E02B
:101B2000B60180E090E00E94640CBE016F5F7F4FC1
:101B3000C4010E94E30C3C01A12CB12C1C0181E0EA
:101B4000281A3108A614B704D4F5C12CD12C81E091
:101B500090E08C0F9D1F8A0D9B1D99878887C61466
:101B6000D7044CF5A114B10431F4C114D104F9F037
:101B7000C214D304E1F0A214B30419F4C114D104C3
:101B8000B1F0E1E0F0E0EC0FFD1FEC0DFD1D608118
:101B900070E062507109E885F985808190E08701E5
:101BA00025E030E045E050E002970E94640CFFEF32
:101BB000CF1ADF0AD4CF9FEFA91AB90AC3CFE7E043
:101BC0008E169104B4F0F6E04F0E511C870126E00A
:101BD00030E043E050E060E070E0C2010E94640C3D
:101BE00023E030E046E050E0B20180E090E00E9467
:101BF000640C29960FB6F894DEBF0FBECDBFDF91FF
:101C0000CF911F910F91FF90EF90DF90CF90BF90F9
:101C1000AF909F908F907F906F905F904F903F908C
:101C20002F900895E7E0F0E020E05DE170E0422FC2
:101C3000441F4427441F459F402D1124220F422753
:101C40009B010E2E02C0359527950A94E2F7922F3C
:101C50009170989F902D1124242F2927319738F7C0
:101C6000822F08951F93FC010197889710F00E941E
:101C7000223ECF01089624E0880F991F2A95E1F7AC
:101C80008E9F90018F9F300D9E9F300D1124205C00
:101C90003F4FE130F105E9F0CF0167E070E00E94CD
:101CA0000E3E6E5F7F4F17EE1603A001179F500D7B
:101CB0001124465F5F4F469FC001479F900D569F7E
:101CC000900D1124C796280F391F379714F024520E
:101CD0003109C9011F910895DF92EF92FF920F938E
:101CE0001F93CF93DF938C01EB016430710510F0EB
:101CF0000E94223E0E94320ED82EE92EB801CE015B
:101D00000E94ED17F82EB801CE010E94C3172D2DA9
:101D10003E2D37FF02C0295F3F4F93E03595279551
:101D20009A95E1F7A9016F2D680240195109112414
:101D3000CA01DF91CF911F910F91FF90EF90DF903B
:101D40000895CF92DF92EF92FF92CF93DF936131AC
:101D5000710578F46C01E12CF12C062E04C0F69488
:101D6000E794D794C7940A94D2F7CD28CE28CF28E9
:101D700011F00E94223E615071096F3FBFEF7B0757
:101D800049F1F901A081B181ED01E3E0D595C79555
:101D9000EA95E1F7C40FD51FFC01062E02C0F695A7
:101DA000E7950A94E2F7E170FF27A095B095A77038
:101DB000BB2701C0EE0FAA95EAF7F881EF2BE88365
:101DC00061507109D901ED91FC9111973196ED9314
:101DD000FC93D3CFDF91CF91FF90EF90DF90CF9026
:101DE0000895AF92BF92CF92DF92EF92FF920F933E
:101DF0001F93CF93DF93CDB7DEB72B970FB6F89431
:101E0000DEBF0FBECDBF0E94F62120E330E044E5E7
:101E100050E060E070E080E090E00E945F39E09187
:101E2000A103F091A20320A531A5A4E6B0E00E9491
:101E3000EB3DAB01BC0120E0CE0101965C010E94AC
:101E40002B23F50101900020E9F73197EA19FB09EE
:101E5000EE0FFF1FEE0FFF1FC12CD12C760101E00A
:101E600010E020E030E0A50169E270E083E590E059
:101E70008E1B9F0B0E94E7382B960FB6F894DEBF9F
:101E80000FBECDBFDF91CF911F910F91FF90EF90CB
:101E9000DF90CF90BF90AF9008955F926F927F9246
:101EA0008F929F92AF92BF92CF92DF92EF92FF926A
:101EB0000F931F93CF93DF93CDB7DEB7E0970FB6A5
:101EC000F894DEBF0FBECDBF5C0180909903909067
:101ED0009A03E0909703F0909803FC010190002092
:101EE000E9F731978F01081B190B39F49401A70109
:101EF00060E070E080E090E099C0009709F447C08E
:101F00006C01FC018191811144C017FD0FC1980142
:101F1000AAE0B0E00E94EB3D6E5F7F4F8F4F9F4F76
:101F200023E030E040E050E00E94973D211580E83A
:101F30003807410551050CF0F9C0C9010796BC01ED
:101F4000F3E076956795FA95E1F7653D710508F040
:101F5000EDC081E090E09AA789A759011CA70BA7C3
:101F6000AB0160E070E0C7010E944F3E18AA1FA6B7
:101F700060E070E080E090E01AE0D6012D916D0104
:101F80002223E1F030ED320F3A3008F49BC00E947A
:101F9000223E80538A3008F4B5CF3501F3016191B8
:101FA0003F01662309F4ACC0062E000C770B87E5D1
:101FB00091E00E94563E892B89F732C16115710567
:101FC00069F09B01220F331F620F731F6F5F7F4FFA
:101FD0009E01215D3F4FA7010E94A10E8FA598A9E8
:101FE0008A159B05A1F6EDA6FEA688E0FE01B9962E
:101FF000DE01599601900D928A95E1F788E0FE0185
:102000007996DE01919601900D928A95E1F788E02C
:10201000FE01B196DE01519601900D928A95E1F78D
:102020009401A70161E070E0CE0141960E94982ED4
:10203000882309F418C18091990390919A030E9412
:10204000D50C6C018C0197FF02C00F5F1F4F1595D7
:1020500007951195019511090E94F621E12CF12CAB
:10206000065D1F4FEC14FD040CF0FDC0A12CB12C3B
:102070008091990390919A03009709F488CFDC012D
:102080002C9130E0A216B3064CF4E216F30634F4B9
:10209000A701B5010E94A40C282F02C020E030E067
:1020A000422F4170B701C8018A0D9B1D0E94EB1F92
:1020B000BFEFAB1ABB0AAC14BD04D4F2EFEFEE1ABB
:1020C000FE0AD0CF189FA001199F500D1124CA01FC
:1020D000C097820F911D27FD9A956F5F7F4F6330E8
:1020E000710509F04ACF9E01215D3F4FA7016AE0CB
:1020F00070E00E94A10E60E070E080E090E03DCFD3
:1021000017FD14C09801ABE0B0E00E94EB3DDC018C
:10211000CB010196A11DB11DB595A7959795879502
:102120008115F0E89F07A105B1051CF0F4011082AC
:102130009AC0AC01495F5F4F63E0569547956A9539
:10214000E1F7453D510590F722E030E03A8B298BCD
:102150005C011C8B0B8B60E070E0C7010E944F3E5E
:10216000188E1F8A612C712C00E010E04DE2542E75
:10217000D6016D916D01662349F1062E000C770B97
:1021800087E591E00E94563E009709F400CF509EEB
:102190009001519E300D1124875591408C01020F02
:1021A000131F6A94672871F49E01295E3F4FA701AF
:1021B0006BE070E0C8010E94A10E612C712C00E060
:1021C00010E0D6CF66246394712CD2CF6A9467282E
:1021D00049F49E01295E3F4FA70166E070E0C80107
:1021E0000E94A10E8F89988D8A159B0509F0CFCE8C
:1021F000ED8AFE8A88E0FE017196DE01119601905B
:102200000D928A95E1F788E0FE013196DE0119967C
:1022100001900D928A95E1F788E0FE013996FACE99
:10222000053D110508F082CFF701A00EB11ED601C1
:102230008D916D018193AA15BB05C9F784E090E0EB
:102240009A8B898BC801A0E0B0E023E0880F991F2A
:10225000AA1FBB1F2A95D1F7988F8F8B1C8B0B8BD6
:10226000ED8AFE8ADDCEE0960FB6F894DEBF0FBE93
:10227000CDBFDF91CF911F910F91FF90EF90DF9035
:10228000CF90BF90AF909F908F907F906F905F9016
:1022900008952F923F924F925F926F927F928F920A
:1022A0009F92AF92BF92CF92DF92EF92FF920F93E5
:1022B0001F93CF93DF93CDB7DEB7C151D1400FB697
:1022C000F894DEBF0FBECDBF182F7B0148EC50E065
:1022D0009E012F5F3F4F2901B90181E00E94691DD6
:1022E000F20101900020E9F731971F012418350809
:1022F00087EC90E0DC01A219B309CA5FDE4FB98315
:10230000A883C650D140C250DF4F188219821A826A
:102310001B82CE5FD0409701A4E6B0E00E94EB3D67
:102320004B015C01CE0182509F4F0E94D8233E0199
:10233000BEED6B0E711C60E1F62EF3012F2D119294
:102340002A95E9F7C250DF4F88819981AA81BB8124
:10235000CE5FD040F30180839183A283B3838482D4
:102360009582A682B782108763E0C30109960E9416
:10237000BB23C250DF4F88819981AA81BB81CE5F88
:10238000D040F30184879587A687B787AE014E5F5B
:102390005E4F60E170E0C3010E946324CE5FDE4FB8
:1023A00088819981AA81BB81C250D140F301848781
:1023B0009587A687B7878E0102511F4FD8011D92BE
:1023C000FA94E9F78CED99E00E94DB396C017E010B
:1023D000B9ECEB0EF11C40E150E0B7010E9421374F
:1023E0009C01C601C25FDE4F2883CE50D140C15F41
:1023F000DE4F3883CF50D1400E944C3AC25FDE4F4F
:102400002881CE50D140C15FDE4F3881CF50D140BE
:102410002031310591F480E1E0E0F1E0D801019054
:102420000D928A95E1F7D701F80190E1900F8D9117
:102430002081822781939E13FACF80E1F7011192C8
:102440008A95E9F780ECE2ECF4E0DF011D928A95D1
:10245000E9F7F80180818093C20481818093C304ED
:1024600082818093C40483818093C5048481809396
:10247000C60485818093C70486818093C8048781C0
:102480008093C90480858093CA0481858093CB049E
:1024900082858093CC0483858093CD04848580934A
:1024A000CE0485858093CF0486858093D00487856C
:1024B0008093D104A5EDB4E024E030E0FD0137972E
:1024C0007081319660813196908131968081A90129
:1024D00043705527452BE9F4E62FF0E0E859FF4F0C
:1024E0004491E92FF0E0E859FF4F6491E82FF0E0C4
:1024F000E859FF4F9491E72FF0E0E859FF4F84919E
:10250000F901F695E795F695E795EE50FE4F749133
:1025100074278D0103501109AD0143515109FA018E
:1025200040817427F80170830F5F1F4FAD01425146
:102530005109FA0140816427F8016083BD016150AF
:102540007109AD0141515109FA0140819427FB0104
:1025500090833F97E0818E278C932F5F3F4F149697
:102560002C32310509F0AACF80E1F701A2E7B5E0EE
:1025700001900D928A95E1F7A2E7B5E0F30190E1B1
:10258000960D8D912081822781939E13FACF42EC84
:1025900054E0B30180E00E94C90B11E02EED30E061
:1025A0002C0F3D1F2F5F3F4FC85FDE4F39832883BD
:1025B000C850D1402EED30E02C0F3D1F2E5F3F4F15
:1025C000C65FDE4F39832883CA50D1402EED30E0FC
:1025D0002C0F3D1F2D5F3F4FC45FDE4F3983288393
:1025E000CC50D1403EEDC32ED12CCC0EDD1E30E1BF
:1025F000C30ED11C0BE1CE0182529F4F0E94B50B3E
:10260000C152DF4F8881CF5DD040CD51DF4F9881DF
:10261000C35ED040C152DF4F9883CF5DD040C951D7
:10262000DF4F9881C75ED040CD51DF4F9883C35EA6
:10263000D040C551DF4F9881CB5ED040C951DF4FAC
:102640009883C75ED040C551DF4F8883CB5ED040B2
:10265000C052DF4F8881C05ED040C851DF4F9881A3
:10266000C85ED040C052DF4F9883C05ED040C85192
:10267000DF4F8883C85ED040CC51DF4F8881C45E75
:10268000D040C451DF4F9881CC5ED040CC51DF4F59
:102690009883C45ED040C451DF4F8883CC5ED04065
:1026A000CF51DF4F8881C15ED040C351DF4F988149
:1026B000CD5ED040CF51DF4F9883C15ED040C7512F
:1026C000DF4F9881C95ED040C351DF4F9883CD5E04
:1026D000D040CB51DF4F9881C55ED040C751DF4F0E
:1026E0009883C95ED040CB51DF4F8883C55ED04010
:1026F000C85FDE4F48815981C850D140C65FDE4F68
:10270000A881B981CA50D140C45FDE4F2881398188
:10271000CC50D140C05FDE4F39832883C051D140B7
:102720009301F9018081FA01F080F826C05FDE4F45
:10273000E881F981C051D14060819C9196279F2505
:10274000E92EE8267F2D771F7727771F709F602D52
:102750001124FF0CF626EF24F901E082FA01E08053
:10276000FC90FE24E9267F2D771F7727771F709F27
:10277000602D1124FF0CF626EF24E082EC90C05F60
:10278000DE4FE881F981C051D140F080FE24E92676
:102790007F2D771F7727771F709F602D1124FF0CE7
:1027A000F626EF24EC92608186279627782F771FF4
:1027B0007727771F709F602D1124880F8627982711
:1027C00090832C5F3F4F4C5F5F4F14963496C05FF1
:1027D000DE4FF983E883C051D1402C153D0509F047
:1027E000A0CF42EC54E0BE0162527F4F812F0E9485
:1027F000C90B1F5F1A3009F0FECECE0182529F4FE7
:102800000E94B50BC152DF4F8881CF5DD040CD51C2
:10281000DF4F9881C35ED040C152DF4F9883CF5DB8
:10282000D040C951DF4F9881C75ED040CD51DF4FB6
:102830009883C35ED040C551DF4F9881CB5ED040B6
:10284000C951DF4F9883C75ED040C551DF4F8883A1
:10285000CB5ED040C052DF4F8881C05ED040C851AF
:10286000DF4F9881C85ED040C052DF4F9883C05E72
:10287000D040C851DF4F8883C85ED040CC51DF4F75
:102880008881C45ED040C451DF4F9881CC5ED04077
:10289000CC51DF4F9883C45ED040C451DF4F888352
:1028A000CC5ED040CF51DF4F8881C15ED040C35154
:1028B000DF4F9881CD5ED040CF51DF4F9883C15E0E
:1028C000D040C751DF4F9881C95ED040C351DF4F20
:1028D0009883CD5ED040CB51DF4F9881C55ED0400C
:1028E000C751DF4F9883C95ED040CB51DF4F8883FB
:1028F000C55ED04042EC54E0BE0162527F4F8AE098
:102900000E94C90B80E1FE01E252FF4FA2E7B5E051
:1029100001900D928A95E1F7CA5FDE4F28813981D7
:10292000C650D1402115310509F466C07201E20C90
:10293000F31C2D32310518F4D7011C925DC080E1E3
:10294000FE01E252FF4FDE01A753BF4F01900D92EF
:102950008A95E1F761E089EC90E08C0F9D1F40962D
:102960000E94BB2349EC50E04C0F5D1F4F5E5F4F50
:1029700061E170E0CE0187539F4F0E9463248E0176
:1029800007531F4F312CC12CD12CF80191918F018D
:10299000292E22942FE02222622D832DC25FDE4F4A
:1029A0009883CE50D1400E940C2337016C0C7D1CC3
:1029B000D3018C93C25FDE4F9881CE50D1409F707F
:1029C000392E692F822D0E940C23F3018183F2E0BE
:1029D000CF0ED11C2AE2C216D104B9F6F701E30DDD
:1029E000F11D8081D7019A968C939A978DE39B96DF
:1029F0008C939B979C961C92C2010E944D0F0E9443
:102A0000D61F83E795E19093AA038093A9031092C0
:102A1000A8031092A70348EC50E0B20180E00E94A6
:102A2000691DC12CD12C760101E010E020E030E0DE
:102A3000A2016AE270E080E090E00E94E73820E0C6
:102A4000B501A401C2010E942B23F20101900020D4
:102A5000E9F73197E419F509EE0FFF1FEE0FFF1F9D
:102A600001E010E020E030E0A2016AE270E084E5DD
:102A700090E08E1B9F0B0E94E7380E94D61FCF5E0E
:102A8000DE4F0FB6F894DEBF0FBECDBFDF91CF9102
:102A90001F910F91FF90EF90DF90CF90BF90AF907C
:102AA0009F908F907F906F905F904F903F902F906E
:102AB0000895A091A503B091A603109799F01197DE
:102AC000B093A603A093A503AA0FBB1FAA0FBB1F19
:102AD000A656BB4FED91FC91119712968D919C914A
:102AE000139709940895413011F40C9459150895E1
:102AF000DC019696ED91FC9197974E9F90014F9F28
:102B0000300D5E9F300D1124620F731F9B0143E057
:102B1000359527954A95E1F79A964D915C919B974B
:102B20002417350770F4FC01E20FF31F84A590E031
:102B30006770772702C0959587956A95E2F781704F
:102B4000089580E00895CF93782F4115510561F4E1
:102B5000813009F04BC0623009F048C081E022307A
:102B6000310509F043C043C02430310561F48130A0
:102B700009F03CC0613009F039C081E042305105B4
:102B800009F034C034C0862F90E064E0769F800D59
:102B9000911D1124880F991F880F991F83509E4FF4
:102BA000FC01C49131967491319664913196E4910F
:102BB0008E2F90E0A0E0B0E0B82FAA2799278827B1
:102BC000972B8C2BA62B220F331F220F331F415024
:102BD0005109420F531F440F551F04C0B695A795C6
:102BE000979587954A95D2F7837001C080E0CF9181
:102BF00008952F923F924F925F926F927F928F92A1
:102C00009F92AF92BF92CF92DF92EF92FF920F937B
:102C10001F93CF93DF93E114F104D1F12701122F19
:102C20001B013C017A01812C912CC22DD32DA12CAA
:102C3000B12CD7FD1BC0F30186A197A18C179D076E
:102C4000ACF0F7FC13C080A591A58E159F0574F01C
:102C50009401A501602F812F0E94A315882331F0D4
:102C6000212FA701BE01C601F2010995FFEFAF1A9E
:102C7000BF0A219685E0A816B104D9F6EFEF8E1AA7
:102C80009E0AFFEFEF1AFF0A85E08816910469F6A5
:102C9000DF91CF911F910F91FF90EF90DF90CF9038
:102CA000BF90AF909F908F907F906F905F904F906C
:102CB0003F902F900895EF92FF920F931F93CF9321
:102CC000DF930097C1F08A017B01EC01EA85FB8567
:102CD000309719F088859985099588A199A1E816FA
:102CE000F90649F48AA19BA10817190721F485E088
:102CF00090E09BA78AA7DF91CF911F910F91FF9042
:102D0000EF9008950F93109283051092820501E0D1
:102D10009C0148E257E166E178E988E00E94950964
:102D20000F9108950F93109283051092820501E090
:102D30009C0148E457E162E275EC87E00E94950946
:102D40000F9108950F936230710509F441C0A0F40A
:102D50006115710591F16130710509F06BC00E9438
:102D6000122C61E070E08CE197E10E94BA1F60E0F4
:102D700070E08DEA90E038C06430710509F448C015
:102D8000B0F16530710509F055C00E94122C65E064
:102D900070E08CE197E10E94BA1F1092840580E0F8
:102DA0000E94212E8AE49EE29093AA038093A903B5
:102DB0001092A8031092A7033DC00E94122C60E05D
:102DC00070E08CE197E10E94BA1F0F910C94712E74
:102DD0000E94122C62E070E08CE197E10E94BA1F21
:102DE00060E070E088EB95EE0F910C94E42B0E946C
:102DF000122C63E070E08CE197E10E94BA1F01E0C1
:102E000020E030E048E457E162E275EC87E010C072
:102E10000E94122C64E070E08CE197E10E94BA1FDE
:102E200001E020E030E048E257E166E178E988E03F
:102E30000E9495090F9108950F9300E09C0142EACA
:102E400056E161E378ED82E00E9495090F910895C3
:102E50006130710549F020F06230710579F0089514
:102E60000E94122C0C9459150E94122C61E070E003
:102E700082E896E10E94BA1F0C945B360E94122CE5
:102E800062E070E082E896E10E94BA1F0C94DE28AE
:102E9000AF92BF92CF92DF92EF92FF920F931F9368
:102EA000CF93DF93CDB7DEB7C85CD1090FB6F894E6
:102EB000DEBF0FBECDBF6B01CE0101967C0188EC59
:102EC000F70111928A95E9F7672B29F40E94122CD9
:102ED0000E94591546C082E295EC0E94DB395C01E4
:102EE00008EC10E0970141E050E0B6016150710933
:102EF0000E947322C5010E944C3AF7010190002004
:102F0000E9F73197EE19FF093597A8F405E110E0CC
:102F100022E530E040E050E060E070E081E39BE4D7
:102F20000E94E3200E94D61F68E873E180E090E0F1
:102F30000E94250B16C00E94122CB60182E996E170
:102F40000E94BA1FC7010E944D0F0E94D61F83E73F
:102F500095E19093AA038093A9031092A80310927D
:102F6000A703C853DF4F0FB6F894DEBF0FBECDBF27
:102F7000DF91CF911F910F91FF90EF90DF90CF9055
:102F8000BF90AF900895CF93DF93CDB7DEB72B9767
:102F90000FB6F894DEBF0FBECDBF2BE0E9E3F1E042
:102FA000DE01119601900D922A95E1F7892B59F4D3
:102FB0006A30710544F4E1E0F0E0EC0FFD1FE60F2C
:102FC000F71F808101C08FEF2B960FB6F894DEBFFC
:102FD0000FBECDBFDF91CF910895CF93DF93CDB7D3
:102FE000DEB72B970FB6F894DEBF0FBECDBF2BE038
:102FF000E4E4F1E0DE01119601900D922A95E1F7EB
:10300000892B59F46A30710544F4E1E0F0E0EC0FEB
:10301000FD1FE60FF71F808101C08FEF2B960FB6C3
:10302000F894DEBF0FBECDBFDF91CF9108950F930F
:103030001F93CF93DF9300D000D000D0CDB7DEB781
:10304000DC011E821D821C821B828AE689831A8211
:1030500055961C921E92549759961C921E92589700
:1030600056968D919C915797892B69F150968D9129
:103070009C915197892B39F152968D919C91539740
:10308000892B09F11696ED91FC9117973097D9F09D
:103090008D019E012D5F3F4FAE014B5F5F4FBE0123
:1030A0006F5F7F4F14968D919C9115970995D8016C
:1030B00052968D919C9153976B817C810E94FA3D31
:1030C000F801718F608F26960FB6F894DEBF0FBEA1
:1030D000CDBFDF91CF911F910F9108953F924F92F5
:1030E0005F926F927F928F929F92AF92BF92CF9298
:1030F000DF92EF92FF920F931F93CF93DF9300D055
:1031000000D01F92CDB7DEB7E0E2ED831C821B82B8
:103110001A8219822115310519F48FEF9FEF93C0A0
:1031200029017A015B016C01A90160E070E0C7012F
:103130000E944F3E370100E010E081E0481A51083C
:1031400080E2382E0415150508F04AC0D601129603
:10315000ED91FC91139721E030E0AE014B5F5F4FA2
:10316000B8016A0D7B1D8D919C9109950197A9F677
:103170008D81811101C03D828D81893009F43D82AC
:103180008D81F30181933F014801FFEF8F1A9F0A60
:103190008A3029F1D60150962D913C915197C40166
:1031A0008A0D9B1D82179307D0F41696ED91FC9122
:1031B00017979E012F5F3F4FAE014D5F5F4FB701E5
:1031C00014968D919C91159709952B813C81F60160
:1031D000848595858217930718F08401B3CF840105
:1031E000F701E00FF11F10820115110551F1D8010F
:1031F0001197AE0DBF1D8C918A3011F41C921FC027
:103200008032C9F080E090E02291203229F00196CE
:1032100080179107C9F70FC08017910760F4A00EBF
:10322000B11ED60150962D913C915197A216B3062E
:1032300010F4081B190BF701E00FF11F1082C801F1
:1032400002C080E090E00F900F900F900F900F90D1
:10325000DF91CF911F910F91FF90EF90DF90CF9072
:10326000BF90AF909F908F907F906F905F904F90A6
:103270003F900895CF92DF92EF92FF920F931F93AA
:10328000CF93DF9300D000D000D0CDB7DEB7DC0104
:103290001E821D821C821B828AE689831A825396B3
:1032A0001C921E92529755961C921E9254975796B6
:1032B0001C921E92569750968D919C915197892BF6
:1032C00009F466C01C968D919C911D97892B09F479
:1032D0005FC01E968D919C911F97892B09F458C051
:1032E00012968D919C911397892B09F451C01696D3
:1032F000ED91FC911797309709F44AC08D019E011A
:103300002D5F3F4FAE014B5F5F4FBE016F5F7F4F41
:1033100014968D919C9115970995D8011E968D91C3
:103320009C911F976B817C810E94FA3DF801778BFD
:10333000668B672B69F1E12CF12C6801FAE1CF0E65
:10334000D11CF80180899189E816F906F8F4D801B2
:1033500058962D913C9159972F5F3F4FA601B70189
:10336000C8010E946E1897FF04C0F801158A148ADC
:103370000FC0E80EF91ED80154968D919C91559777
:10338000019655969C938E935497DBCF138A128A9D
:1033900026960FB6F894DEBF0FBECDBFDF91CF915A
:1033A0001F910F91FF90EF90DF90CF900895CF92F3
:1033B000DF92EF92FF920F931F93CF93DF93EC0175
:1033C000EA81FB81309719F0888199810995C88439
:1033D000D984EA84FB840DA12CA140E050E060E098
:1033E00070E0CE010E94F9158E859F85892BB1F47E
:1033F000CC80DD80EE80FF804C8D5D8D6A8D7B8D75
:103400000F8D2E8DCE010E94F915DF91CF911F9166
:103410000F91FF90EF90DF90CF90089500E010E0C3
:103420008EA19FA1081719071CF7E12CF12C88A584
:1034300099A5E816F9065CF4A701B801CE010E942F
:103440007815811107C08FEFE81AF80AF0CF0F5FE7
:103450001F4FE6CFEE85FF85A701B8018C859D85BE
:103460000995F1CFCF93DF93EC01ECA1EE8F8DA105
:103470008F8F2EA13FA137FF02C02F5F3F4F3595A1
:103480002795F0E0E359FD4F449190E0880F991F94
:1034900050E0082E02C0559547950A94E2F740FF88
:1034A00003C04DEF5FEF02C04EEF5FEF240F351FFB
:1034B0003B8F2A8FE491F0E0816002C0F595E7959B
:1034C0008A95E2F7E0FF03C08DEF9FEF02C08EEF19
:1034D0009FEF9D8F8C8F66E070E0CE010E9463337A
:1034E0008CA363E070E0CE010E9463338DA3DF9173
:1034F000CF910895CF93DF93009709F461C0EC0159
:10350000198E188E66E070E00E9463338E8F63E040
:1035100070E0CE010E9463338F8F2EA13FA137FF51
:1035200002C02F5F3F4FA90155954795EE8DF0E002
:10353000E359FD4F24919927880F991F30E0082EF9
:1035400002C0359527950A94E2F720FF03C02DEFBE
:103550003FEF02C02EEF3FEF240F351F3B8F2A8F26
:10356000E491F0E0816002C0F595E7958A95E2F775
:10357000E0FF03C08DEF9FEF02C08EEF9FEF9D8FA6
:103580008C8F66E070E0CE010E9463338CA363E011
:1035900070E0CE010E9463338DA38EA19FA105969A
:1035A00099A388A385E090E09BA38AA34AA55BA585
:1035B00060E070E0CE018C960E944F3E81E001C039
:1035C00080E0DF91CF9108952F923F924F925F92CA
:1035D0006F927F928F929F92AF92BF92CF92DF9223
:1035E000EF92FF920F931F93CF93DF9300D000D001
:1035F000CDB7DEB75C014B016A01122F7B011B01C5
:1036000024E0220E311CCA0104969A838983370173
:10361000681879082E143F040CF445C0DC82CB8274
:103620004B805C804C185D0829813A818B819C819C
:1036300028173907A4F1F7FC12C0F50186A197A15C
:10364000E816F90664F480A591A52B813C81281722
:1036500039072CF48B819C8197FF0BC01AC0920113
:10366000A301602F812F0E94A315882399F380E086
:103670001BC09201A301602F812F0E94A3158823F4
:1036800041F04B815C81B701C5010E947815811121
:10369000EECFEB81FC813196FC83EB83C1CF9FEFB2
:1036A000E91AF90AB4CF81E00F900F900F900F90B4
:1036B000DF91CF911F910F91FF90EF90DF90CF900E
:1036C000BF90AF909F908F907F906F905F904F9042
:1036D0003F902F9008952F923F924F925F926F925A
:1036E0007F928F929F92AF92BF92CF92DF92EF9292
:1036F000FF920F931F93CF93DF9300D000D000D0A1
:10370000CDB7DEB79E838D83DC0198960D90BC917A
:10371000A02DBA83A983C12CD12CE12CF12C4424F7
:103720004394512C69817A81C616D7060CF076C075
:10373000AD81BE819696AD90BC90979700E010E069
:103740000A151B0564F4A601B8018D819E810E94B3
:103750007815813009F05EC00F5F1F4FF1CF0A1559
:103760001B0509F057C00C9D10010D9D300C1C9DD0
:10377000300C1124C601612C712C181619060CF09E
:1037800046C09301220D331D812C912CFC013197F1
:103790005F0180169106BCF5A501B4018D819E8163
:1037A0002B833C830E9478152B813C81A401420F1E
:1037B000531FFA0193E0F595E7959A95E1F7AD81EE
:1037C000BE819A966D917C919B97E617F707B8F4A6
:1037D000EA0FFB1F47705527811109C0C20101C0C4
:1037E000880F4A95EAF7809594A5892307C0C201FE
:1037F00001C0880F4A95EAF794A5892B84A7BFEFEB
:103800008B1A9B0AC6CFC501601A710AB6CFFFEFAB
:10381000EF1AFF0A4FEFC41AD40A84CFB2E0EB16B6
:10382000F104D1F058F4EA94EF2851F5AD81BE814E
:1038300058968D919C91599701961BC043E0E416D0
:10384000F10481F054E0E516F104D1F4ED81FE813C
:10385000808D918D409612C0ED81FE81808D918D7D
:1038600004960CC0AD81BE8158968D919C9159975C
:10387000089659969C938E93589702C0918F808F8B
:1038800026960FB6F894DEBF0FBECDBFDF91CF9165
:103890001F910F91FF90EF90DF90CF90BF90AF906E
:1038A0009F908F907F906F905F904F903F902F9060
:1038B0000895FC0166A177A120E030E026173707C4
:1038C000BCF4F90143E0F595E7954A95E1F7E80F77
:1038D000F91F44A550E0F901E770FF2702C0559594
:1038E0004795EA95E2F740FD05C02F5F3F4FE6CFD1
:1038F00080E0089581E008952F923F924F925F9269
:103900006F927F928F929F92AF92BF92CF92DF92EF
:10391000EF92FF920F931F93CF93DF9300D000D0CD
:10392000CDB7DEB76C015B017A01922F702F2501B4
:10393000150124E0220E311C4A0134E0830E911C53
:1039400066246394712C82010A191B09241435041E
:103950000CF44BC0FC82EB822B813C812E193F0979
:10396000EB81FC818E169F06E4F1A801672F892F59
:103970007A8399830E94A3157A819981882359F1CA
:10398000D60196964D915C919797EB81FC81E49FCF
:103990009001E59F300DF49F300D1124240D351D4D
:1039A000F90183E0F595E7958A95E1F79A964D91AF
:1039B0005C919B97E417F50770F4EC0DFD1D2770E3
:1039C0003327A30102C0440F551F2A95E2F79A013D
:1039D00084A5282B24A7AB81BC811196BC83AB8323
:1039E000BBCFFFEF4F1A5F0AAECF0F900F900F9033
:1039F0000F90DF91CF911F910F91FF90EF90DF908B
:103A0000CF90BF90AF909F908F907F906F905F907E
:103A10004F903F902F900895CF93DF93009711F12F
:103A2000DC015296ED91FC9153973097D9F0EC015F
:103A3000488D598D4150510960E070E0888999891D
:103A400009959DA38CA34A8D5B8D41505109EA894C
:103A5000FB8960E070E08889998909959FA38EA30E
:103A600081E001C080E0DF91CF910895FC0180A941
:103A700091A93097A1F026A537A544A555A52417EF
:103A8000350720F0C901841B950B0895880F991FF5
:103A9000880F991F841B950B820F931F089580E058
:103AA00090E0089597FD12C0892B19F477FF06C0A6
:103AB0000AC0672B59F482E090E00895672B31F03B
:103AC00083E090E0089581E090E0089580E090E048
:103AD0000895CF92DF92EF92FF920F931F93CF93AF
:103AE000DF93182F7B01EA0160E070E0C7010E94BC
:103AF0004F3E83EB92E10E94DB396C01612F70E055
:103B00008E01970140E050E00E947322CE0DDF1D30
:103B100021971882C6010E944C3AC701DF91CF91CC
:103B20001F910F91FF90EF90DF90CF900895CF936A
:103B3000DF93CDB7DEB760970FB6F894DEBF0FBE48
:103B4000CDBF4091860150918701DE01119680E042
:103B500090E0BD012AEAFC013496E40FF51FE491E0
:103B6000E227E827ED93019680319105A1F7E091D6
:103B70009901F0919A0140E150E080919701909174
:103B80009801099560960FB6F894DEBF0FBECDBFC1
:103B9000DF91CF910895FB01EC58FD4F849108957A
:103BA0000C94343E0F931F93CF93DF93082F87E03D
:103BB0000E94F50A60E086E00E94F50AC7E0D0E0C6
:103BC00010E0B8010C2E02C0759567950A94E2F7D3
:103BD000617077278BE00E94F50A61E08DE00E941A
:103BE000F50A60E08DE00E94F50A219750F761E048
:103BF00086E0DF91CF911F910F910C94F50A0C9400
:103C00005F0BEF92FF920F931F93CF93DF93D62F0B
:103C10009C013327F901EC55FE4F8491F901E057DF
:103C2000FE4FF490F901E458FE4FC491062F10E0C6
:103C3000CC2371F081110E94CC0AEC2FF0E0EE0F42
:103C4000FF1FE05AFE4EA591B491EC91EF21F1F4E3
:103C5000F801EC56FE4F808181111EC081E0808307
:103C60000E945F0B000F111F000F111FF801E85792
:103C7000FE4F6083718382839383E091A903F09167
:103C8000AA03309709F447C041E030C0F801EC5670
:103C9000FE4F8081811136C0C8018C569E4F7C0139
:103CA000FC0180818130B9F50E945F0B000F111F6C
:103CB000000F111FF801E857FE4F0081118122818A
:103CC0003381DC01CB01801B910BA20BB30B893E2E
:103CD0009340A105B105F8F082E0F7018083E091FF
:103CE000A903F091AA033097B1F042E06D2F8091C3
:103CF000A7039091A803DF91CF911F910F91FF909F
:103D0000EF9009941082E091A903F091AA033097F3
:103D100011F040E0EBCFDF91CF911F910F91FF9019
:103D2000EF90089560E082E090E00E94011E61E063
:103D300083E090E00E94011E62E084E090E00C9439
:103D4000011E0F931F93CF93DF93CDB7DEB72B9751
:103D50000FB6F894DEBF0FBECDBF8C014BE050E034
:103D6000BE016F5F7F4F82E00E94691D4AE050E014
:103D7000BE016F5F7F4FC8010E94273E21E0892B63
:103D800009F020E0822F2B960FB6F894DEBF0FBE0D
:103D9000CDBFDF91CF911F910F910895CF92DF9208
:103DA000EF92FF920F931F93CF93DF9397FD18C06D
:103DB00069017A018B01EC0140E050E00E949E37DE
:103DC0000817190769F4A601B701CE01DF91CF9159
:103DD0001F910F91FF90EF90DF90CF900C942137BF
:103DE0008FEF9FEFDF91CF911F910F91FF90EF9099
:103DF000DF90CF9008958EE480937C0062E070E0C5
:103E000080E090E00E94250B80917A00806480938E
:103E10007A0080917A0086FDFCCF20917800809115
:103E2000790030E0382B032E000C440B550B64EB6B
:103E30007BE281E190E00E94973DC90108950F93D4
:103E40001F93CF93DF93CDB7DEB7A2970FB6F89449
:103E5000DEBF0FBECDBF0E94FB1E843C29E092074F
:103E600068F08C383AE0930758F0803F2AE09207D8
:103E700048F084359B4040F483E007C080E005C0F3
:103E800081E003C082E001C084E001E010E098011D
:103E900002C0220F331F8A95E2F7C9018150809337
:103EA000870525E030E040E050E060E070E0CB01C5
:103EB0000E948F0A01C0000F6A95EAF70150009333
:103EC0008605809182058823D9F142E250E060EDB9
:103ED00071E0CE0101960E94783D8EE690E39A87CC
:103EE00089878FE592E69C878B8781E692E79E879C
:103EF0008D8785E39DE7A0E08F87988BA98B8091C4
:103F00008505E82FF0E0F595E79521E030E02C0FEE
:103F10003D1FE20FF31F208180FD06C030E094E0DA
:103F2000359527959A95E1F7209386058F5F8093C5
:103F300085058232A0F010928305109282050FC091
:103F4000809183058F5F8E3118F48093830507C0BD
:103F5000109283051092850581E080938205A296D8
:103F60000FB6F894DEBF0FBECDBFDF91CF911F918A
:103F70000F9108952091A5033091A6032A303105B1
:103F800088F4F901EE0FFF1FEE0FFF1FE656FB4FFF
:103F900091838083738362832F5F3F4F3093A603A7
:103FA0002093A503089560E00C94D21DCF93DF9376
:103FB00080E80E94D31F80E40E94D31FCFE9D1E0A4
:103FC00061E089910E94D21D83E0C739D807C1F70B
:103FD000DF91CF910895F4E5F69F9001F79F300DA2
:103FE0001124820F931F60EA72E00E940E3EF69F3A
:103FF0009001F79F300D112464E570E00E940E3EA1
:10400000F901E80FF91FE83F81E0F80788F4E1566D
:10401000FE4F81E090E001C0880F6A95EAF74423E3
:1040200019F09081892B03C080959081892380832A
:1040300008950F931F93FB01BA0141E0012B022B5E
:10404000032B09F440E0CF011F910F910C94EB1F5B
:104050002F923F924F925F926F927F928F929F9298
:10406000AF92BF92CF92DF92EF92FF920F931F9386
:10407000CF93DF93CDB7DEB728970FB6F894DEBFA6
:104080000FBECDBF3B012A01302F512F20320CF43F
:1040900020E2812C912C2052822F90E0880F991FD2
:1040A0008C0105591E4EBC0166597E4E78876F8380
:1040B000F801849180FF03C0C401019701C0C401CD
:1040C000009719F4EF81F8851BC08130910519F430
:1040D000EF81F8851CC08230910571F4EF81F8857D
:1040E0009491F80124919370F4E09F9FC0011124F2
:1040F000922F9270892B10C08330910529F4F8011A
:10410000849182958F7007C0049721F4F8018491FF
:10411000869501C080E08E70212C312C682F70E0D4
:104120007A836983C401840D951D9C838B8383E00E
:1041300090E082199309E981FA8102C0F595E7952B
:104140008A95E2F7E0FD03C0C501D60103C0C701AF
:10415000A32FB52F41E0892B8A2B8B2B09F440E04C
:104160006B817C81C101860D971D3D835E830E941A
:10417000EB1FFFEF2F1A3F0A3D815E8144E02416BA
:104180003104A9F66FEF861A960A76E08716910435
:1041900009F08ECF28960FB6F894DEBF0FBECDBFC4
:1041A000DF91CF911F910F91FF90EF90DF90CF9013
:1041B000BF90AF909F908F907F906F905F904F9047
:1041C0003F902F9008952F923F924F925F926F925F
:1041D0007F928F929F92AF92BF92CF92DF92EF9297
:1041E000FF920F931F93CF93DF9300D000D01F92C5
:1041F000CDB7DEB72B017A0149010E94DB396C0192
:10420000198298012E0D3F1D3D832C838701612C5F
:10421000712CA12CB12C2C813D8102171307E1F1E7
:10422000E12CF12C130181E0281A3108E814F9047B
:1042300061F1C1018E199F099C01277033273B83CF
:104240002A83C7018A0D9B1D87709927892B51F4FA
:1042500041E050E0BE016F5F7F4FC6010E942137F1
:104260000197D1F4498150E00A8002C055954795E5
:104270000A94E2F74170B801C701840D951D0E94B0
:10428000EB1F3FEFE31AF30AD1CF0F5F1F4FA80CCC
:10429000B91C68187908BFCFC6010E944C3A0F902C
:1042A0000F900F900F900F90DF91CF911F910F9172
:1042B000FF90EF90DF90CF90BF90AF909F908F9046
:1042C0007F906F905F904F903F902F900895AF92A6
:1042D000BF92CF92DF92EF92FF920F931F93CF93F3
:1042E000DF93A82EB0908605811108C0B090870595
:1042F000C1E0D0E04EE4C42ED12C04C0C0E0D0E038
:10430000C12CD12CE12CF12C870126E230E046E0D3
:1043100050E060E070E0C6010E94A138CC0EDD1EC6
:10432000CC0EDD1EB3FE0DC0E12CF12C8701E39411
:1043300027E030E044E050E060E070E0C6010E9419
:10434000A138CC0EDD1EB2FE0DC0E12CF12C870190
:10435000E39427E030E043E050E068E070E0C6011D
:104360000E94A138CC0DDD1DB1FE0DC0E12CF12C59
:104370008701E39427E030E042E050E060E170E044
:10438000CE010E94A138B0FE0DC0E12CF12C8701B6
:10439000E39426E030E042E050E068E170E0CE01D6
:1043A0000E94A138A1100CC0BE016250710906E044
:1043B00010E024E030E04FE150E089EE94EA09C0DB
:1043C00006E010E025E030E04FE150E0BE018DE670
:1043D0009CE50E94E320DF91CF911F910F91FF9008
:1043E000EF90DF90CF90BF90AF90089588EF91E06D
:1043F000EFE9F1E0DF019C011D9221503040E1F72F
:1044000008950C94F6218F929F92AF92BF92EF92F3
:10441000FF920F931F93CF93DF93E091A805F09144
:10442000A905309799F1E090AA05F090AB05A6EAAE
:10443000B5E0C0E0D0E0CE15DF0541F11C96149642
:104440000D911C911597012BF9F479018A014B010B
:104450005C018091A6059091A70509952CE02C9F01
:10446000F0012D9FF00D1124EA55FA4F62877387F2
:104470008487958786829782A086B186F786E686AE
:10448000118B008BCE0104C02196D5CF8FEF9FEF0B
:10449000DF91CF911F910F91FF90EF90BF90AF9060
:1044A0009F908F9008950F931F93CF93DF938C016C
:1044B00042E050E060E070E00E949E37EC0197FF20
:1044C00003C080E090E00AC040E050E060E070E0AF
:1044D000C8010E949E37892BA1F7CE01DF91CF91B1
:1044E0001F910F9108952F923F924F925F926F927A
:1044F0007F928F929F92AF92BF92CF92DF92EF9274
:10450000FF920F931F93CF93DF9300D000D01F92A1
:10451000CDB7DEB74C017D836C831A016901F901C7
:1045200010820E9453229B838A831982C114D10472
:1045300009F45AC00115110509F456C0F60110829C
:10454000612C712CE12CF12CA12CB12C412C512C83
:104550002A813B816216730609F446C021E030E0EF
:10456000AE014F5F5F4FB301C4010E94CE1E0197A1
:10457000D9F58981A214B30419F52C813D81421625
:104580005306F1F48C3281F18A3071F1882361F1A4
:10459000E016F10630F00C0D1D1DF8013197108268
:1045A00023C0F601EE0DFF1D80833FEFE31AF30AEF
:1045B000E016F10680F7F601EE0DFF1D108210C027
:1045C0008C3221F48FEFA81AB80A0AC08A3031F46D
:1045D0009FEF491A590AA12CB12C02C0882321F05F
:1045E000EFEF6E1A7E0AB4CF0F900F900F900F90DE
:1045F0000F90DF91CF911F910F91FF90EF90DF907F
:10460000CF90BF90AF909F908F907F906F905F9072
:104610004F903F902F90089580FF12C081FD0AC0F7
:104620006A3010F480E311C06A3089F06B3089F091
:1046300083E40BC082FD02C08BE407C08BE605C09B
:1046400082FD02C081E401C081E6860F08958FE5F6
:1046500008958DE208954F925F926F927F92AF928C
:10466000BF92CF92DF92EF92FF920F931F93CF935F
:10467000DF93EC016A017B01022F4AE050E060E326
:1046800070E00E944F3E1A861AE08AE0482E512CB4
:10469000612C712CC114D104E104F10481F011509A
:1046A0005E01A10EB11CC701B601A30192010E94D7
:1046B000C93D605DF501608369017A01EBCF0111AD
:1046C00024C060E0FE01E60FF11D8081803311F40B
:1046D0006F5FF8CF6A3009F469E070E04BE050E0BA
:1046E000461B570B6C0F7D1FCE01DF91CF911F91A1
:1046F0000F91FF90EF90DF90CF90BF90AF907F90A1
:104700006F905F904F900C943D3EDF91CF911F9141
:104710000F91FF90EF90DF90CF90BF90AF907F9080
:104720006F905F904F900895CF93DF93D82F0E94A2
:104730006A3D2D2F2370206420937C0020917A0005
:10474000206420937A0080917A0086FDFCCF8091CE
:104750007800C62FC8270E94FB1ED0FF982FC927BC
:104760000E945F0BD1FF02C0872F01C0862F8C27CC
:10477000DF91CF910895EF92FF921F93CF93DF9334
:104780001F92CDB7DEB7182F7C018E2D811B8617A7
:1047900040F469830E949423F70181937F0169812A
:1047A000F4CF0F90DF91CF911F91FF90EF9008957C
:1047B0008F929F92AF92BF92CF92DF92EF92FF9231
:1047C0000F931F93CF93DF93CDB7DEB76B970FB6E1
:1047D000F894DEBF0FBECDBF6C018E010F5F1F4F7F
:1047E0005801E12CF12C4801C7010E94813DF501DF
:1047F00081935F01FFEFEF1AFF0A80E1E816F104F1
:1048000099F7C8010E94A11E811141C04BE050E000
:10481000BE016F5E7F4F82E00E94691D2AE0FE01AB
:104820007196D80101900D922A95E1F764E0CE01CE
:104830000D960E94BB231C861B865801E12CF12C8F
:10484000F50161915F01C7010E94893DFFEFEF1AF9
:10485000FF0A80E1E816F10499F7E12CF12CC70179
:104860000E94813DF80181938F01FFEFEF1AFF0A4B
:1048700080E1E816F10499F7C4010E94A11E81119C
:1048800006C0F601108211821282138209C08D8542
:104890009E85AF85B889F60180839183A283B38317
:1048A0006B960FB6F894DEBF0FBECDBFDF91CF91F0
:1048B0001F910F91FF90EF90DF90CF90BF90AF903E
:1048C0009F908F9008958F929F92AF92BF92CF92B8
:1048D000DF92EF92FF920F931F93FA0110821182E1
:1048E00012821382680F791F86179707A1F1C08083
:1048F000D180E280F380DC010D91CD010C2510E028
:1049000020E030E048E050E000FD09C0B0E28B2E2E
:10491000B3E89B2EB8EBAB2EBDEEBB2E03C0812CB3
:10492000912C54013695279517950795082519253B
:104930002A253B254150510939F7CD2CDE2CEF2C8F
:10494000FF24F0940C251D252E253F25008311837F
:1049500022833383C9CF1F910F91FF90EF90DF9097
:10496000CF90BF90AF909F908F9008958F929F921D
:10497000AF92BF92CF92DF92EF92FF920F931F936D
:10498000CF93DF935C016B018A0179012091880547
:1049900030918905E216F30620F0E0908C05F09046
:1049A0008D05C216D306C0F5C7018C0D9D1D2817B5
:1049B000390718F47901EC18FD08E114F10479F1D4
:1049C00060918A0570918B056C0D7D1D40E050E073
:1049D000C5010E949E37E80100E010E08AE0982EB1
:1049E0009DE2892E41E050E0BE01C5010E942137C1
:1049F000019781F488818C3239F48AE0C816D10499
:104A000010F4888201C098820F5F1F4F21960E1507
:104A10001F0541F7C80105C08FEF9FEF02C080E07E
:104A200090E0DF91CF911F910F91FF90EF90DF9079
:104A3000CF90BF90AF909F908F900895CF92DF92CC
:104A4000EF92FF920F931F93CB01BA01A901C12CE2
:104A5000D12C760101E010E020E030E00E94E73840
:104A60001F910F91FF90EF90DF90CF900895EF92FC
:104A7000FF920F931F93CB01880F991F860F971FEB
:104A8000BA01660F771F460F571FBA016E5F7F4F3F
:104A9000E12CF12C8701E39423E030E043E050E087
:104AA00002960E94A1381F910F91FF90EF900895F8
:104AB0004115510571F0FB0101900020E9F7319794
:104AC000E61BF70BEE0FFF1FEE0FFF1FDA01ED9352
:104AD000FC932115310529F086E090E0F9019183DE
:104AE00080830895CF93DF93E0918C05F0918D053D
:104AF000E901E217F30708F4EF016E177F07B8F436
:104B0000CE01860F971FE817F90718F4EF01C61BAF
:104B1000D70B209779F0CA0120918E0530918F052F
:104B2000620F731FAE010E94343ECE0105C08FEFAD
:104B30009FEF02C080E090E0DF91CF910895CB011C
:104B4000880F991F860F971FBA01660F771F460FB0
:104B5000571FBA016E5F7F4F23E030E043E050E023
:104B600002960C945F3995E0969FF001979FF00DA7
:104B700011244F5F5F4F949FB001959F700D1124DA
:104B800025E030E045E050E0CF018C960C945F3991
:104B90000F931F93CF93DF930E94F621C0919D0343
:104BA000D0919E03209709F440C0CE010E94591C69
:104BB0008130D9F10F8D10E04C8D5D8D4F5F5F4FCF
:104BC0006A8D7B8D2E8DCE010E94E41A4C8D5D8DF9
:104BD000813029F44F5F5F4F5D8F4C8F23C06A8D0A
:104BE0007B8D0F8D2E8DCE010E947C1CCE010E94EC
:104BF0006B1BCE010E94591C813089F4CE010E94AA
:104C0000D719088D198DCE010E947A1AEE89FF8975
:104C1000309759F0B8018C899D89099506C0CE015D
:104C20000E94321ACE010E94D719809114019091EE
:104C30001501019631F0DF91CF911F910F910C94E6
:104C4000D61FDF91CF911F910F910895809114018C
:104C5000909115010E947A3A8FEF9FEF9093150182
:104C60008093140140919B0350919C0360E070E09D
:104C700080919D0390919E030C944F3ECF93DF93C0
:104C8000EB010E94262660E070E080E599E20E9438
:104C9000BA1FBE018AEADF91CF910C9449110F939C
:104CA0001F93CF93DF93611134C0423041F40E94CF
:104CB0002626DF91CF911F910F910C945915413009
:104CC00009F0BBC0C0919D03D0919E032097D9F0FD
:104CD000CE010E94591C8130B1F00F8D10E04C8D37
:104CE0005D8D6A8D7B8D615071092E8DCE010E9484
:104CF000E41A813041F48A8D9B8D01979B8F8A8FB6
:104D0000CE010E94D719DF91CF911F910F910C9482
:104D1000D61F623001F5413009F08FC0C0919D036C
:104D2000D0919E03209779F3CE010E94591C8130C7
:104D300051F30F8D10E04C8D5D8D6A8D7B8D6F5F13
:104D40007F4F2E8DCE010E94E41A8130E1F68A8DCC
:104D50009B8D0196D3CF613009F06FC0411123C004
:104D6000C0919D03D0919E03209769F2CE010E94CD
:104D7000591C813041F20F8D10E00F5F1F4F0370FF
:104D800011274C8D5D8D6A8D7B8D2E8DCE010E94FD
:104D9000E41A813009F0B7CF8F8D90E001968370CF
:104DA00099278F8FADCF423009F047C0C0919D0346
:104DB000D0919E03209709F4A6CFCE010E94591CE2
:104DC000813009F4A0CF0F8D10E04C8D5D8D4F5FC9
:104DD0005F4F6A8D7B8D2E8DCE010E94E41A4C8D23
:104DE0005D8D813029F44F5F5F4F5D8F4C8FEBCF2E
:104DF0006A8D7B8D0F8D2E8DCE010E947C1CCE0185
:104E00000E946B1BCE010E94591C813091F4CE018F
:104E10000E94D719088D198DCE010E947A1AEE8949
:104E2000FF89309709F46FCFB8018C899D89099566
:104E30006ACFCE010E94321A63CFDF91CF911F91CA
:104E40000F9108959A012F5F3F4F032E000C440BE2
:104E5000550B072E000C880B990B0E948F0ACB0173
:104E600008950F931F93CF93DF9310928D051092A7
:104E70008C0510928F0510928E05C0919B01D091E8
:104E80009C0100919D0110919E01CB31D10550F004
:104E9000AE0160E070E0C8010E944F3E6B97F801E0
:104EA000D18FC08F80919D0190919E01009759F004
:104EB00022E530E0FC013587248720E330E03787A6
:104EC00026870E943A1980919D0190919E0100973A
:104ED00049F028E535E2FC013783268315821482E8
:104EE0000E943A1980919D0190919E01009749F08E
:104EF0002EE135E2FC0133872287118610860E945D
:104F00003A198EE998E29093AA038093A90310922C
:104F1000A8031092A703DF91CF911F910F910895DD
:104F20008F929F92AF92BF92CF92DF92EF92FF92B9
:104F30000F931F93CF93DF9300D000D000D0CDB755
:104F4000DEB70E94F62100919D0110919E011E8204
:104F50001D821C821B828AE689831A820115110533
:104F600041F4E0919D01F0919E01309709F066C0F7
:104F70008BC0D8011A968D919C911B97892B89F330
:104F80001696ED91FC911797309759F312968D91E3
:104F90009C911397892B29F39E012D5F3F4FAE0102
:104FA0004B5F5F4FBE016F5F7F4F14968D919C9159
:104FB00015970995A12CB12CE12CF12CC12CD12CE9
:104FC0004801BAE18B0E911CF80180899189E8169D
:104FD000F90638F6F801208D318D2F5F3F4FA4017F
:104FE000B701C8010E946E1897FDBBCFE80EF91EED
:104FF000D80152962D913C915397C216D306D0F00A
:1050000056968D919C915797820F931FC816D9067B
:1050100088F41A96ED91FC911B979401A50160E02C
:1050200070E018968D919C91199709958B819C81C0
:10503000A80EB91EBFEFCB1ADB0AC6CFE288F388F1
:10504000048915894689578940175107E8F430E3E8
:10505000349FC001359F900D1124B8010E94FA3D84
:10506000FB013E9DC0013F9D900D1124B8010E949F
:10507000FA3DE12CF12C8701E3949F0142E050E0DE
:1050800082E590E00E94A13826960FB6F894DEBF24
:105090000FBECDBFDF91CF911F910F91FF90EF9089
:1050A000DF90CF90BF90AF909F908F900895EF9238
:1050B000FF920F931F93CF93DF938C01EB010E941C
:1050C0003127BE01C8010E94923A90938B058093CC
:1050D0008A05BE01C8010E94923A7C01BE016F5F41
:1050E0007F4FC8010E94923AF7FC07C08E159F05BA
:1050F00024F09C012E193F0902C020E030E03093DB
:10510000890520938805E0919D01F0919E013097DB
:1051100059F0318B208B86EB94E293838283118349
:105120000083CF010E943A190E949027DF91CF910E
:105130001F910F91FF90EF900C94D61F611103C047
:10514000423069F507C04130C1F5613019F0623075
:1051500019F008950C945915E0919D01F0919E016C
:10516000309721F40E9490270C94D61F228933890E
:1051700046895789848995898417950718F4138A75
:10518000128AF0CF2F5F3F4F841B950B28173907EA
:1051900018F0938B828BE6CF338B228BE3CF413099
:1051A00061F4E0919D01F0919E013097D9F28289DE
:1051B00093890097B9F20197ECCF08950F931F934D
:1051C000CF93DF93C0919B03D0919C0300919D03EB
:1051D00010919E03CD32D10550F0AE0160E070E039
:1051E000C8010E944F3EAC97F801D3A7C2A7E09137
:1051F0009D03F0919E03309791F182A593A541976D
:1052000040F08AE090E097A386A38EE090E091A71B
:1052100080A789E893E3938382838CE096E091836F
:1052200080832FE935E2378326839583848323EBBC
:1052300035E2338722879187808727E335E23787F6
:1052400026879587848782E297E2938B828B118AE7
:10525000108A8EE396E2978B868B158A148A8FE4E8
:1052600096E29093AA038093A9031092A803109248
:10527000A7039F0148EC55E26CEB72E080E090E000
:105280000E940322909315018093140180919D0345
:1052900090919E03DF91CF911F910F910C947A1AF8
:1052A0000C94DE287F928F929F92AF92BF92CF9202
:1052B000DF92EF92FF920F931F93CF93DF935B01E7
:1052C000EA014901702ECC24C3940C1511F0C12CB5
:1052D0000FC0E12CF12C8701E39429E030E048E392
:1052E00050E0BE01675F7F4FC5010E960E94A13856
:1052F000D12CE12CF12C01E010E020E030E081E045
:10530000781203C000E010E09801BE01655F7F4F96
:10531000A401C50140960E94E738DF91CF911F910B
:105320000F91FF90EF90DF90CF90BF90AF909F9044
:105330008F907F9008950F931F93DC01FA01A7FFD0
:105340000BC06115710529F48EE28083818312827E
:1053500009C0615071098F7789019F0140E050E0D9
:105360000E9473221F910F9108954115510579F004
:10537000FB0101900020E9F73197E61BF70BEE0FD8
:10538000FF1FEE0FFF1F3496DA01ED93FC932115FA
:10539000310529F089E090E0F90191838083089537
:1053A0002F923F924F925F926F927F928F929F9235
:1053B000AF92BF92CF92DF92EF92FF920F931F9323
:1053C000CF93DF9300D000D01F92CDB7DEB7198204
:1053D0001A821B821C820E94F6214091A3035091E5
:1053E000A4034E5F5F4FC12CD12C760101E010E089
:1053F00020E030E061E070E082E190E00E94E73878
:1054000052E0452E512C912C80E3890D8D8389E04B
:10541000682E712C812CE091A303F091A4039110CC
:105420000EC08CE389839DE29A839B83808149E04F
:10543000242E312CA12CB12C882371F127C084E0BB
:10544000981210C095E499838EE48A8394E59B8337
:10545000808129E0222E312C35E4A32EB12C84301A
:10546000A9F41AC080E289839D819A3339F0892F8B
:105470009B3331F09C3329F483E203C08AE201C0FC
:1054800080E38A8380E28B8313015201808198122A
:1054900012C0818188120FC0E12CF12C8701E394A6
:1054A00029E030E04FE050E0B101C5010E94A13891
:1054B00011E000E00AC029E030E04FE050E0B10127
:1054C000C5010E945F3910E001E01C8240E0B1019B
:1054D000C5010E94EB1F75019EE0E90EF11C40E042
:1054E000B101C7010E94EB1F610188E0C80ED11C09
:1054F00040E0B601C5010E94EB1F40E0B601C701C4
:105500000E94EB1FC12ED12CE12CF12C10E020E0E9
:1055100030E0B1016E5F7F4FAE014F5F5F4FC5015D
:1055200002960E94E73883949D819D5F9D83C3010D
:105530000A963C0194E089126ECF939480E1480E64
:10554000511C95E0991260CF0F900F900F900F9023
:105550000F90DF91CF911F910F91FF90EF90DF900F
:10556000CF90BF90AF909F908F907F906F905F9003
:105570004F903F902F900895AF92BF92DF92EF929D
:10558000FF920F931F93CF93DF93CDB7DEB768974A
:105590000FB6F894DEBF0FBECDBF611106C042301A
:1055A00009F0F2C00E945915FFC0413009F0FCC05B
:1055B000613079F0623009F0F7C0E091A303F09117
:1055C000A40380818F5F853010F48083C4C0108273
:1055D000C2C0A091A303B091A40311962C9111977E
:1055E0009C919923F9F2943099F0905D822F880F65
:1055F000280F920F9A3309F4D5C09B3309F4B0C039
:105600009C3309F4BFC0992369F2913009F0A9C015
:105610008D010E5F1F4F84E1E0E9F5E0DF011D928F
:105620008A95E9F7E12CF12CF701E15BFE4F5F0170
:10563000D08044E150E0BE016F5F7F4F8D2D0E940E
:10564000691DBE016F5F7F4FC8010E94613E892BBB
:1056500009F06FC060E070E088E89EE20E94BA1F27
:1056600044E150E060E975E0D50111968C910E940B
:10567000691DB9E0DB120DC080E390E30E94DB39C5
:10568000909317018093160160E070E00E94572804
:105690008BC0EAE0DE1222C01D8A1E8A1F8A188E85
:1056A000CE0145960E94D82383E38093900595E32D
:1056B000909391058093920594E390939305809342
:1056C0009405909395054D895E896F89788D21E0C9
:1056D00086E995E00E942B231092A0050E943127B5
:1056E000E0E9F5E0F0938F05E0938E05019000204E
:1056F000E9F73197E059F540F0938D05E0938C057B
:10570000A0919D01B0919E01109781F05196FC935C
:10571000EE93509782E795E213969C938E9312979F
:1057200011961C921E92CD010E943A190E94902758
:1057300014C0F2E0EF0EF11C88E0E816F10409F065
:1057400073CFE091A303F091A40332968DE0DF01C3
:105750001D928A95E9F70E94D0290E94D61F24C085
:1057600090E39D012E5F3F4FF90101900020E9F782
:105770003197E21BF30BEC30F10568F7EA0FFB1FE2
:105780009283E9CF93E2EDCF413071F4E091A3032E
:10579000F091A40381818F5F843010F48183DBCF8B
:1057A0001182D9CF9AE2DDCF68960FB6F894DEBFAA
:1057B0000FBECDBFDF91CF911F910F91FF90EF9062
:1057C000DF90BF90AF9008950F93CF93DF93EB01DD
:1057D000209118013091190137FF0CC0009751F04A
:1057E0009093A5058093A4050E94DB39909319013D
:1057F000809318016091A4057091A50501E09E01B8
:1058000047E35CE286E00E949509DF91CF910F911A
:1058100008951092830510928205BC0180E090E00B
:105820000C94E42B80911001909111010E947A3A1E
:105830008FEF9FEF909311018093100180911201DF
:105840009091130197FF0E944C3A8FEF9FEF909336
:105850001301809312014091B9035091BA0360E0A3
:1058600070E08091B7039091B8030C944F3ECF93B2
:10587000DF93EB01209791F40E94122C8091180184
:10588000909119010E944C3A8FEF9FEF909319016C
:1058900080931801DF91CF910C9459150E94122C1E
:1058A000BE0189E09CE20E94BA1FBE0161507109ED
:1058B0008091180190911901DF91CF910C94572894
:1058C0004F925F926F927F928F929F92AF92BF9210
:1058D000CF92DF92EF92FF920F931F93CF93DF93BC
:1058E000CDB7DEB72E970FB6F894DEBF0FBECDBF93
:1058F0001E861D861C861B860E94F621E12CF12C3B
:105900008701E39425E030E043E550E065E070E096
:1059100080E090E00E94E8379E01235F3F4FAE0198
:10592000455F5F4F6BEA73E080E090E00E94B5292D
:105930004B855C8584E590E0841B950B9695879557
:105940009E878D87E12CF12C870129E030E060E013
:1059500070E00E94A1388D859E85C12CD12C7601E6
:1059600001E010E020E030E04BEA53E062E070E05C
:1059700002960E94E73880E00E94672181E00E9441
:105980006721E090B703F090B8031A86198618864D
:105990001F828AE68D831E82E114F10441F4E091B6
:1059A000B703F091B803309709F0B8C0E7C0D7014A
:1059B00012968D919C911397892B89F31696ED91F0
:1059C000FC911797309759F31A968D919C911B97DC
:1059D000892B29F39E01295F3F4FAE01475F5F4F3F
:1059E000BE016B5F7F4F14968D919C911597099521
:1059F000F70184899589608D718D0E94FA3D3B0184
:105A00004C01A12CB12C6701FCE1CF0ED11CF70198
:105A1000808D918DA816B90610F6689E8001699E4A
:105A2000100D789E100D11240A0D1B1DD7015696DE
:105A30008D919C9157970817190708F0B0CF1C82D9
:105A40001B821A8219825A964D905C905B97A20134
:105A500060E070E0C6010E944F3E92012150310982
:105A6000D7011296ED91FC911397A601B8018D9183
:105A70009C910995D7015A96ED91FC915B97EE0D9B
:105A8000FF1D138E1696ED91FC9117979E012D5FC9
:105A90003F4FAE014F5F5F4FB60114968D919C91C1
:105AA0001597099529813A81F70180899189821793
:105AB000930768F4F60101900020E9F73197EC199B
:105AC000FD0929F0EE0DFF1D138ED701DBCFD701A5
:105AD0001A96ED91FC911B972F81388518968D9120
