:100000000C94F2080C940F090C940F090C940F092E
:100010000C940F090C940F090C940F090C940F0900
:100020000C940F090C940F090C940F090C940F09F0
:100030000C940F090C940F090C940F090C940F09E0
:100040000C948E120C940F090C940F090C940F0948
:100050000C940F090C940F090C940F090C940F09C0
:100060000C940F090C940F09B924BE24C324C8248E
:10007000CD24D624DF24EA24637C777BF26B6FC522
:100080003001672BFED7AB76CA82C97DFA5947F09B
:10009000ADD4A2AF9CA472C0B7FD9326363FF7CC77
:1000A00034A5E5F171D8311504C723C31896059A14
:1000B000071280E2EB27B27509832C1A1B6E5AA037
:1000C000523BD6B329E32F8453D100ED20FCB15B22
:1000D0006ACBBE394A4C58CFD0EFAAFB434D33858B
:1000E00045F9027F503C9FA851A3408F929D38F55F
:1000F000BCB6DA2110FFF3D2CD0C13EC5F97441796
:10010000C4A77E3D645D197360814FDC222A90880C
:1001100046EEB814DE5E0BDBE0323A0A4906245C98
:10012000C2D3AC629195E479E7C8376D8DD54EA9FD
:100130006C56F4EA657AAE08BA78252E1CA6B4C6C9
:10014000E8DD741F4BBD8B8A703EB5664803F60E22
:10015000613557B986C11D9EE1F8981169D98E9411
:100160009B1E87E9CE5528DF8CA1890DBFE642682A
:1001700041992D0FB054BB16000000002400270049
:100180002A0000000000250028002B0004040404BD
:100190000404040402020202020203030303030331
:1001A000010204081020408001020408102001020E
:1001B00004081020000000080002010000030407EA
:1001C000000000000000000071EF6A5C6C1C548F9E
:1001D0007CF7563D437E85DA6D5CB082FF0DF0748E
:1001E000637962656172737B793075725F643376AF
:1001F0003163335F31735F756E3772757337336494
:100200007D00B6BE052243B8586BE64D2D571699B2
:10021000428275039FFFF0586EE75E7737DBFC5B29
:100220005822B9BD164F038D961F7E47ABEBEB2DC1
:100230004A9547849B68D26E0ADDEFE5EE67444B32
:1002400045A221FC5534490945A06F9E0B8EA0A9FB
:1002500011374649E20817C22125D4E54229D88A38
:10026000311B8431E4657E6CAD6495E0E7275396DD
:100270004980831E343D830D619B0676CCC6A1DA8E
:10028000983C98B94A5BB1C3C8725A38688641C174
:1002900096F26222AF21CCBA30BD6C8D3DE3850071
:1002A00064AE12B83668D866BE7F80006FA7A6CE4F
:1002B000D6B652B3830C43CCA50AE4471C951D0760
:1002C000D5DB6076D8DF2908851F47DA89F0AC6A6C
:1002D0002F69FAC0C98CDCCC3352E98BD35CCD9149
:1002E0001E0434F6CB28E8EEB85FF1059139D70A41
:1002F00057EC43AD6A2B3C320B0481466D1AE0FF8C
:10030000C83BD0F67293C9FDDFD851BF261752A85B
:10031000D63312232E035D075AE9DCFCD542A1F146
:100320008BBFB8C719DE8A62CED02B6A153C0D9DF3
:10033000861563256D8B12D73406842E4D3670E6F4
:1003400026E76F1887AFA01A3E5DAA4B7B96DDB6F5
:100350007BE015494A7C0D989EDBA52B6B296E6CC2
:10036000E24894A9A298BFB2553EAD8586104CD6FE
:100370008645D7CD6504795BF1E398F4AABE9099E0
:100380002107996380B23B92F18AC44A9253A3D762
:10039000B4E374CE588B7697B82B8FEE97E75F85D2
:1003A00046B3FD644E47F99DBF45AAFFC73CDBA09D
:1003B0000FECA8699114E35952E0A3A058B812FABF
:1003C000C1C8CD32E5DB1CF960D57C5C0E4D052F34
:1003D000CD8192BD81AD1BF84E0FE07FE881E4E155
:1003E000282E02E2AC4048EB04D556B132D342533A
:1003F000B4D554BE3111F7BB015BF9426F87342588
:10040000C652441A8BEBA3E0740446FE02C36EFE90
:1004100033DFC829BF6D070734D3750B5895EB95AB
:1004200056212EFE450300885F123739ADCD31CFFE
:1004300040D6C98AC4BE76D0138A9BD33838C6A4A6
:10044000C0039C5F5F2B4D8AE71BEF7E9C6F825E33
:1004500043F751955FA68E016CD0D56EF42D7F0DBC
:10046000591A037D42C036F8DB8C2073E069DE58F0
:100470007548B8DF170040D1F6589B7F947980F714
:100480006C34E8E22963A0B8D4B237CCC83256D76E
:10049000DD632902CFBD54974AF2E2AC9704FBF921
:1004A0001A4BBCFF4B2A29C89E7047371D67B7817E
:1004B000E1E84562096478929C05F3813C11A3232D
:1004C0007B2E336145D5D938088BDFB9B878ECD4A9
:1004D000E91F76143E30145DB00AE517E2CC8BB00C
:1004E000EC1B07DA0A4B21090CAB7403F4D1C2519F
:1004F000FB993D833FE4EF4A5E32146586632763D0
:10050000C4D9BC168AAE768A1D3C87244FE4082DD8
:1005100096DEEC2B042F036224A7D50421A43DD83A
:10052000F2F48F58FB5F1E1B1A305F2466D44B35E4
:100530000E86B5DDD6686C232C3AF7852D4C2171DB
:10054000EEC799911F86A8A1163F3228ABA2F29A56
:100550002F7AA2AFCA877BFC93B6BC1E3E5CB35F0A
:10056000EFA3572E511E171DDB4801AD46933015E2
:10057000078D9478CE840D79BA8C605ACD22619C17
:100580001AE0CE980C4D4354773EEC7E329538DD20
:1005900061B11BCB30544B69A27D493836F00B3D1D
:1005A0008BDCE24EBC42F3976E72871D407A3D03AE
:1005B000153B15CFB1F15BAB36888A72983558423E
:1005C0003F1E8E7A7D8D6A6E8E82D639F5AD3410DF
:1005D0002DCDE16DC5A4D99915CC08F6831E30390F
:1005E00081A3F803812258D291EAA7CAF233AF8FD0
:1005F000EB031CAF8B0D96F7ABA4139EF7B73F1D13
:100600001AD0560B11075B7D1F9CF5C8A6D204EECD
:1006100042CC0835014DD1F715B7A000F825D1A17E
:100620000968D2961D3B7C15F0E2C4CD7AAEC8CFE6
:100630002C1F1016453E7B09D15F1760CF26506AEC
:100640004E5959BF77FE5435D7338B5EEC9B958856
:10065000A35570ECCBB1959B1A406F6BF567D495A1
:10066000711959CD963B0342FF655BD6069E692101
:100670007589DBBC2BB6E5652807781C9BDAC018AA
:10068000768ACCC28967B4C161489329E2926EEC44
:100690004ECC7FE6902057A94BB6F8A193FFC3FB41
:1006A000973DA299E4AB08F1C224B471856B52A0C6
:1006B000A647C88940B38F49E2FF6B3E1B83E0D653
:1006C000E76A2CD6524D2D7291097D9490F718FD52
:1006D000B90F7FB46E27B882F1504C3EB6B84A7F4E
:1006E00039C57F00E50042DF563FC984C12C156043
:1006F0006D07791B01464C808616C2FF095A71238B
:1007000036181E628A80890E03A7AD73EC3E10096D
:100710005E69158013FB6A957E162CBBF204C35BE1
:10072000AD00348F95F8D92B689AD4E3C960E7C936
:10073000D7E1AE155934BFAD5FDAB8089A10770724
:100740009D025A99953A0E6A61DB87AC4B49FA775C
:1007500046C64525AAF4736207E25542C6234440C3
:10076000A39F1CF41B61D4968280B8CFB09989D323
:10077000E9B18DB0BC309BF38244A499D1AA1A4749
:100780006D6440066A9E59CBD96F007B3AB76BCA3D
:100790005E29AB8286C8EC7128D7B9358DB0843517
:1007A00000418106B397C43A1199D291819610E91C
:1007B000B7C39717A03FFE9801322F7CC2F53BDDEF
:1007C000A36BA3C2BFFC3DF2319FE67B084DE0DC8A
:1007D000B348A1811BEAC0B7F73AA174FFC47852AD
:1007E0005FE2F7976BCDBD2D85E0969F06DC43B5A4
:1007F000C0047A74CEEE8F789BAD6A8DE29B9F7CAD
:10080000B54E4B3DB4AC81341C7B98795ABD4F0D2D
:100810006A37A76CB81025A48E83345B2CD66A5B2C
:10082000CB7C23491CCE5F926451AF96A710314711
:100830008F4F73877628581A9E038862178EA3E31A
:100840004E683BD029169D21522876A421FF0277BD
:10085000E08DD76147409A1267AF264F3B1DCC26EB
:10086000EE155D8AAEC35A645FB4600BB5147E04A6
:100870000C8C2CC8240A8393DA605640DC1834E1CF
:100880005802C58517BB18CBA6625667999AFB0418
:10089000FFB46BE788FBAB5CDE27D8B43004A9C09B
:1008A000DFBC7293F2729FEB91DA5BD01FA8BA188B
:1008B000272586A7CC71F5E178C5A2DB9801AE5C4F
:1008C000ABD7354C4BB08DEC1EF5C914B0908AE413
:1008D00074B9678AEE361511D8DAA055AC9F0DEAC7
:1008E000C0A18C619556A2D244252298BEB7628ED3
:1008F000B13C95A6B7CA599947B6C6487971A9B40B
:10090000D7273200DF795F397AFE21E4443FE5A33F
:1009100098350963FA20159330557438F532F40888
:1009200073EFADA8511A5FB25773B4513B06149CD4
:1009300043846B48DAFF95123E42B5527FEE452D57
:10094000131CF62BBA1E78ECCBD77E5E3DDA26154B
:10095000827850356AF86CFD0C6CF1DCDD24562190
:10096000CC3222B4017B1B40C00C9C1652DAC883E7
:10097000002753A74523A54E304B0E8E57C23E0885
:10098000F8FC16B794FD46C6C74BF39BA79026D339
:100990003F8C9A201B01AECDC819FBDB5586DAA12E
:1009A000E8688D18E0D6507B78C9E5C02585D974F4
:1009B000D6BADB8802C80DEE861C337DAFA2D33ECB
:1009C000EFED0EBFC5BAA86BBF7390F17D4204D3A3
:1009D000D2A45BB28D4F8BC7A9E97EB363FEB42A64
:1009E000080A8AE9962DD7EE6BC5EF898A64815B88
:1009F000A2DE3F2C2C9DB99C79D9FB7FDCB981DC30
:100A000011ACAD4C3EB486842D1A62CB5B5FD36FC4
:100A10000B6B28AB26895E22F3B89D2B006D8B6D86
:100A200041C63D64155ED24D932442D6F7FA033891
:100A30001B876541DA0A6D165AB55495740192B850
:100A4000B4071812F30E3BD906552725DD3CFF07E6
:100A500079F990F9625E24C45E55DE7F18267DB276
:100A600075BD7B0DD7E2AC7E711BF94B1DB80977C4
:100A7000024F933FCF2E44D6F3F046750AF6106C22
:100A8000900D96E0A239BC11CCBF29451ABBD4D633
:100A900009F9D548F7C4CABC36FA32DFB7274F5533
:100AA000888FD63180D96DC8DB99DE5E8703EED89A
:100AB0005F7964DEBAC77AF5F56ECEA5BDC34595FC
:100AC00056E0F4281B1DAB8DAF48E6BA1FB2DAB270
:100AD000FB2C986889E979505CEF80ED18948C0ABA
:100AE000A0C68A8D559359EAEC556D79D6FBD95F2E
:100AF00089AA29C6D79FD65D8741DD95052728D2CB
:100B0000EBCAD739008F631F271FA374F24227ADAA
:100B100091836F1A66947A488A6F093424B96AB649
:100B20005E2BC5AEA91A3A59A10954F44F28480FB3
:100B3000CD7F9A7105FCEDEB5A7F51B6143FBA1E7A
:100B4000794261AE1EFA123CB28BCF7A5D21CB4561
:100B500049C974162F72BB7CBC4231ACD7D22F630B
:100B600035D40631A7545D014DCC04911553DBF506
:100B7000F3280B51AA4175A80C2C4C0F8853C53F84
:100B80000BED0909BE94F002A4C25BBEB9E7B96ED1
:100B9000A45D86F2664F11A7C2BF4AA19B17EA87E0
:100BA000BF9806C014E389056A6ED786DB28DABBD6
:100BB0006198AED2DE118C27F88711372C81A5CF32
:100BC000639DB91CB6DFA0E762FF648EF62E4979FB
:100BD000F9D8A756EAC25AF290EEB928F232CAA85A
:100BE000565276D5BABE6990B351CEAEDD971F94FA
:100BF0005BEC980424269EEC8239B8BA238DE0FA87
:100C0000830C22E8183BACC5D3684A24DD68509DAC
:100C10004A2B557DA264EC5220A6D48F2C046D8BF8
:100C20003C40F3417B0E389451996E1C86A9AF521B
:100C30003F42F2446AFB4B62733AA872AA38279D7E
:100C4000BCFB4D5C3AD3221B9470196447EC31F91C
:100C5000415DF4CFDF614546856553D1784D3C3D1C
:100C6000AC76827A0EC7E5AD707025AB0934B45A04
:100C70006D0A59922CDE2F59C1FEBC496442CE1A2E
:100C800021B7F285FBA629FA72E2B43E0302AAD587
:100C9000D002FEC45DF086F1B45EB1708FF66C10C8
:100CA00017ECE98A7A90A069DCFCE49508C71CFB84
:100CB000D70B3231CD8ADF24D1E86DCDF796915E26
:100CC000F00E8CEC685D49FBD0FE6FB99A57B7DF28
:100CD000B0F07CA72A93E3305C5AE0C9B750B08BE0
:100CE00042BCFF898E53894FBFDB446962D5FA97B6
:100CF00069CDB23984F09C95749B54B7C04B631393
:100D000090B523D23542D53E403075FF62BE0F18F4
:100D1000BE8D9726603BCC2612DB6242256DEE30FD
:100D2000B65D55B3A7EA39385EB71038DF522F45A4
:100D30000E80418E780485F9931D344FB65660EECF
:100D40005C3B6D5AE876DA033FCACBC3704A25C0D4
:100D5000385EA823513B7BE227E0192CC9DECE6721
:100D60004D66D0023EBE107A0A45CF03D32A3F9A81
:100D7000B8BA1A7906BD457EFB557F191ACF0DCB3F
:100D80003549321E46B799EE0AE0D515FB89FBBB03
:100D900024F92F92AC3F151DBCE5B241A99F50E745
:100DA000C5A1D6568F0BE6D0302A2186BED76E98C5
:100DB000A7298782DA9C18C31DEC9309352B8AAAD0
:100DC000C97D8D965E959384E36AA569C5D36D57F9
:100DD0004FE2DBA942B88405E1F4BAFA75A86D8642
:100DE000AB596477D4E8896E85B874B9E88FC64882
:100DF0008452D59B0D2B25DAE3C22EC1FB779BE7EE
:100E0000DFF1B17CBB4757F4D0D367017EC53B0609
:100E100082281771728363B84B2DB8D59D2B006162
:100E2000DC6E74FE4026401D9C1F91731787B4E949
:100E300002274CB65422FA572F1631964682614447
:100E4000B6B2D66B4929C3297DCE650E7777E27994
:100E5000A05A3AA4CEDA276E23DA2901882B0B1385
:100E600077EE1DD42254D883B4022340F80471E0F5
:100E70004B224D0DD00680094EC6E1EF41621CBFEA
:100E800032275BFE81AE9827EC2BDEAE4F5658E83A
:100E9000C6A613FE8F1EB3D8A8EB3AEC6EE7A839AE
:100EA000000FDFB8D720D4F9699CADC2855E8D44B0
:100EB000B8FC446766DCBCC17884B3369DBCDCDD1D
:100EC0003FC67C89FE267F4EEBD4A243A78A5CBF37
:100ED000DAF2BC34EA7B9EF876310EBC91F24EB267
:100EE000C350CDA6DFDF4AD16AA0D85F2666C0B561
:100EF000BF6C91AB2B96A3BBCF589454A7C7155A80
:100F00007FD61176C04059DA7E136EE4C922E41808
:100F100067FA9D98615A3CCD2416C563414131B0B2
:100F200068A62F1F82BBE013304AA50B72F95D350E
:100F300050069016C650189BBBA01D6164B659633D
:100F4000EE435E2979E93FE74938ADF7C7775F3D62
:100F50008C0F149F2E415328AF7FB0066EB2818351
:100F6000321709EE4C10B916760F04FD1DC1284743
:100F7000C3ECE4026F09A65761EB1F6B0352B55730
:100F80009C63E934034BE8C7AF55FAD51AD494F7FC
:100F9000E218E769FEA53F0D00A78CA021F6D85303
:100FA000A9AAE4A2329736EB9207376DACB66A4F26
:100FB000F9CE40E984FAD825ED20C5A5753F2C96D9
:100FC000B69C0DEC9D10A3DBAAA56AA13F97FA7D04
:100FD0005643EAC8B845FBD644A5C3B5E56CAD6633
:100FE00093E3446375C8FD906FCBBA3A90B388CF52
:100FF000499250F0C342757D96FBDC11B68510A373
:10100000C8D27DF129EC2105AC9E9E7616779866B4
:101010005CD6270F6C55A263A25722B7939B63043B
:1010200069992873FF5A745C4A8655D171009CB245
:10103000BE152C2283526DEC45355910F36F8D7C13
:101040000C89A6E27C5638D44E5CD76E0D7630AD56
:101050005CBD5C38A19CBA200D7D8F695FC4411BCB
:101060006B23934A8F7E09AAE9FA557412FB1D2758
:10107000B64966106183599F6D53B7BFBD1435479C
:101080009657920FA4D783E366AF6285D9012B6F81
:10109000D181B85DA18C1800000000230026002932
:1010A0000000004908B400BEF67B7AA59455B84804
:1010B000002944442A15A00B4200500302000825D1
:1010C0009076BA595CC59EC53892E6F33A73BAE594
:1010D0009077BA773A084008502A441CE08852E5D5
:1010E00008568E77B677B8728CD6BA739E739272A2
:1010F000AEB7B6E95C64AAB7B4929CBEB6D6B65693
:10110000AAD79276EE77B47138E948B6AEB6AAB6E9
:10111000F6B5B4B548E59C694C9124642E540000A2
:101120001C44000EAE9ABA0E8C2EAE0ECE56D05582
:101130003B93B44144415197B4494417B61AB60A97
:10114000AAD6D3766717900F389A8C16AE16BA16B1
:10115000F615B4B52B1C5E6B4C4948C95A54005661
:10116000E28D01020408102040801B360000181494
:101170000000181400001814000018140000590092
:101180000004080400001900040408040004081402
:1011900000001901000508040010190000040805EA
:1011A00000011900001408040000191000101804B0
:1011B00000000914000409010005180000041810BB
:1011C00000001805000109040014090000041804B7
:1011D000000019040004090400041900AA882AA2C6
:1011E0002A2A2A0011241FBECFEFD8E0DEBFCDBFD0
:1011F00011E0A0E0B1E0E0E6FDE702C005900D924D
:10120000AC38B107D9F726E0ACE8B1E001C01D92D7
:10121000AD36B207E1F70E94273B0C94AE3E0C942A
:1012200000000F93CF93DF93EC010E947E1701E043
:101230009E014CE355E262E275EC87E00E94B81033
:10124000DF91CF910F9108957F928F929F92AF92ED
:10125000BF92CF92DF92EF92FF920F931F93CF93A3
:10126000DF935B01EA014901702ECC24C3940C1575
:1012700011F0C12C0FC0E12CF12C8701E39429E07F
:1012800030E048E350E0BE01675F7F4FC5010E9636
:101290000E949C36D12CE12CF12C01E010E020E0E2
:1012A00030E081E0781203C000E010E09801BE0158
:1012B000655F7F4FA401C50140960E94E236DF9131
:1012C000CF911F910F91FF90EF90DF90CF90BF9043
:1012D000AF909F908F907F9008950F931F93DC01A4
:1012E000FA01A7FF0BC06115710529F48EE2808316
:1012F0008183128209C0615071098F7789019F0132
:1013000040E050E00E94321A1F910F91089541155C
:10131000510579F0FB0101900020E9F73197E61BB8
:10132000F70BEE0FFF1FEE0FFF1F3496DA01ED9360
:10133000FC932115310529F089E090E0F9019183B2
:10134000808308950F931F93CF93DF9310929101A1
:10135000109290011092930110929201C091BF01DE
:10136000D091C0010091C1011091C201CB31D105D2
:1013700050F0AE0160E070E0C8010E94933E6B97B0
:10138000F801D18FC08F8091C1019091C201009767
:1013900059F022E530E0FC013587248720E330E076
:1013A000378726870E943B278091C1019091C20117
:1013B000009749F021EB3BE2FC013783268315823D
:1013C00014820E943B278091C1019091C201009735
:1013D00049F028E93BE2FC01338722871186108619
:1013E0000E943B2787E39DE09093CE038093CD033B
:1013F0001092CC031092CB03DF91CF911F910F91EC
:1014000008952F923F924F925F926F927F928F92A8
:101410009F92AF92BF92CF92DF92EF92FF920F9383
:101420001F93CF93DF9300D000D01F92CDB7DEB7CC
:1014300019821A821B821C820E94B1194091C70333
:101440005091C8034E5F5F4FC12CD12C760101E053
:1014500010E020E030E061E070E082E190E00E9486
:10146000E23652E0452E512C912C80E3890D8D837C
:1014700089E0682E712C812CE091C703F091C8039C
:1014800091100EC08CE389839DE29A839B838081B7
:1014900049E0242E312CA12CB12C882371F127C0D6
:1014A00084E0981210C095E499838EE48A8394E5D1
:1014B0009B83808129E0222E312C35E4A32EB12C90
:1014C0008430A9F41AC080E289839D819A3339F06F
:1014D000892F9B3331F09C3329F483E203C08AE2E5
:1014E00001C080E38A8380E28B83130152018081F3
:1014F000981212C0818188120FC0E12CF12C870153
:10150000E39429E030E04FE050E0B101C5010E94D2
:101510009C3611E000E00AC029E030E04FE050E0E6
:10152000B101C5010E945A3710E001E01C8240E081
:10153000B101C5010E949E1775019EE0E90EF11CE4
:1015400040E0B101C7010E949E17610188E0C80E0A
:10155000D11C40E0B601C5010E949E1740E0B601D3
:10156000C7010E949E17C12ED12CE12CF12C10E056
:1015700020E030E0B1016E5F7F4FAE014F5F5F4F03
:10158000C50102960E94E23683949D819D5F9D83F2
:10159000C3010A963C0194E089126ECF939480E1D6
:1015A000480E511C95E0991260CF0F900F900F904C
:1015B0000F900F90DF91CF911F910F91FF90EF90BF
:1015C000DF90CF90BF90AF909F908F907F906F9063
:1015D0005F904F903F902F9008958F929F92AF927F
:1015E000BF92CF92DF92EF92FF920F931F93CF9310
:1015F000DF9300D000D000D0CDB7DEB70E94B11984
:101600000091C1011091C2011E821D821C821B82A9
:101610008AE689831A820115110541F4E091C1011E
:10162000F091C201309709F066C08BC0D8011A96BC
:101630008D919C911B97892B89F31696ED91FC91C6
:101640001797309759F312968D919C911397892B88
:1016500029F39E012D5F3F4FAE014B5F5F4FBE01EF
:101660006F5F7F4F14968D919C9115970995A12CD2
:10167000B12CE12CF12CC12CD12C4801BAE18B0EFC
:10168000911CF80180899189E816F90638F6F8016D
:10169000208D318D2F5F3F4FA401B701C8010E94FB
:1016A0006F2697FDBBCFE80EF91ED80152962D91FB
:1016B0003C915397C216D306D0F056968D919C91CB
:1016C0005797820F931FC816D90688F41A96ED9182
:1016D000FC911B979401A50160E070E018968D9134
:1016E0009C91199709958B819C81A80EB91EBFEF1B
:1016F000CB1ADB0AC6CFE288F388048915894689AC
:10170000578940175107E8F430E3349FC001359FF3
:10171000900D1124B8010E94453EFB013E9DC00181
:101720003F9D900D1124B8010E94453EE12CF12C03
:101730008701E3949F0142E050E082E590E00E943F
:101740009C3626960FB6F894DEBF0FBECDBFDF9154
:10175000CF911F910F91FF90EF90DF90CF90BF90AE
:10176000AF909F908F900895EF92FF920F931F93E9
:10177000CF93DF938C01EB010E94A209BE01C80147
:101780000E948D3890938F0180938E01BE01C80115
:101790000E948D387C01BE016F5F7F4FC8010E949F
:1017A0008D38F7FC07C08E159F0524F09C012E197B
:1017B0003F0902C020E030E030938D0120938C017E
:1017C000E091C101F091C201309759F0318B208B2B
:1017D0008BEC9BE29383828311830083CF010E9471
:1017E0003B270E94ED0ADF91CF911F910F91FF904F
:1017F000EF900C948917CF92DF92EF92FF920F93A4
:101800001F93CF93DF93CDB7DEB769970FB6F894E8
:10181000DEBF0FBECDBF611106C0423009F008C166
:101820000E944B1715C1413009F012C1613079F0A7
:10183000623009F00DC1E091C703F091C8038081C7
:101840008F5F853010F48083DAC01082D8C0A091F9
:10185000C703B091C80311962C9111979C919923BD
:10186000F9F2943099F0905D822F880F280F920F33
:101870009A3309F4EBC09B3309F4C6C09C3309F4D6
:10188000D5C0992369F2913009F0BFC08D010E5F78
:101890001F4F84E1E4E9F1E0DF011D928A95E9F749
:1018A000E12CF12CF701EE5DFE4F6F01208144E148
:1018B00050E0BE016F5F7F4F822F298F0E946A2BFD
:1018C000BE016F5F7F4FC8010E94A53E892B09F0C2
:1018D00084C060E070E087E490E10E94651744E115
:1018E00050E064E971E0D60111968C910E946A2B58
:1018F000298D293069F480E390E30E94EE379093BC
:1019000002018093010160E070E00E94B40BA0C06E
:101910002E3059F40E94E71BAC0160E070E020E03B
:1019200084E991E00E94EA1A2DC02A3019F51D8A37
:101930001E8A1F8A188ECE0145960E94FA1C83E3E8
:101940008093940195E3909395018093960194E39D
:101950009093970180939801909399014D895E89A6
:101960006F89788D21E08AE991E00E94EA1A10924D
:10197000A40108C0203131F49091000181E0892751
:10198000809300010E94A209E4E9F1E0F093930141
:10199000E093920101900020E9F73197E459F1407A
:1019A000F0939101E0939001A091C101B091C20127
:1019B000109781F05196FC93EE93509783E39CE24D
:1019C00013969C938E93129711961C921E92CD01A2
:1019D0000E943B270E94ED0A14C0B2E0EB0EF11CFE
:1019E000EEE0EE16F10409F05DCFE091C703F0914F
:1019F000C80332968DE0DF011D928A95E9F70E94B7
:101A0000010A0E94891724C090E39D012E5F3F4F79
:101A1000F90101900020E9F73197E21BF30BEC305C
:101A2000F10568F7EA0FFB1F9283E9CF93E2EDCF50
:101A3000413071F4E091C703F091C80381818F5F59
:101A4000843010F48183DBCF1182D9CF9AE2DDCFCD
:101A500069960FB6F894DEBF0FBECDBFDF91CF9170
:101A60001F910F91FF90EF90DF90CF90089561113B
:101A700003C0423069F507C04130C1F5613019F04B
:101A8000623019F008950C944B17E091C101F09168
:101A9000C201309721F40E94ED0A0C948917228923
:101AA000338946895789848995898417950718F45D
:101AB000138A128AF0CF2F5F3F4F841B950B281794
:101AC000390718F0938B828BE6CF338B228BE3CFD1
:101AD000413061F4E091C101F091C2013097D9F237
:101AE000828993890097B9F20197ECCF0895EF921C
:101AF000FF920F93CF93DF93EC017B01892B91F041
:101B0000809103019091040197FF0E945F38D09368
:101B1000A901C093A801CE010E94EE379093040161
:101B2000809303016091A8017091A90101E09701E0
:101B300044ED5DE086E00E94B810DF91CF910F91F7
:101B4000FF90EF900895CF93DF93EC010E947E17F2
:101B5000BE0180E090E0DF91CF910C94770D8091F1
:101B60001501909116010E94C2378FEF9FEF90935D
:101B7000160180931501809117019091180197FF2C
:101B80000E945F388FEF9FEF9093180180931701A9
:101B90004091DD035091DE0360E070E08091DB0353
:101BA0009091DC030C94933ECF93DF93EB0120974D
:101BB00031F40E94AF0DDF91CF910C944B170E942E
:101BC000AF0DBE0183EA9DE00E946517BE01615022
:101BD00071098091030190910401DF91CF910C94E0
:101BE000B40B4F925F926F927F928F929F92AF92BF
:101BF000BF92CF92DF92EF92FF920F931F93CF93FA
:101C0000DF93CDB7DEB72E970FB6F894DEBF0FBEC9
:101C1000CDBF1E861D861C861B860E94B119E12C35
:101C2000F12C8701E39425E030E043E550E065E0E6
:101C300070E080E090E00E94E3359E01235F3F4F1B
:101C4000AE01455F5F4F6FEC73E080E090E00E9473
:101C500087094B855C8584E590E0841B950B969500
:101C600087959E878D87E12CF12C870129E030E054
:101C700060E070E00E949C368D859E85C12CD12C41
:101C8000760101E010E020E030E04FEC53E062E04C
:101C900070E002960E94E23680E00E94221981E004
:101CA0000E942219E090DB03F090DC031A8619866B
:101CB00018861F828AE68D831E82E114F10441F4A6
:101CC000E091DB03F091DC03309709F0B8C0E7C086
:101CD000D70112968D919C911397892B89F31696B3
:101CE000ED91FC911797309759F31A968D919C912D
:101CF0001B97892B29F39E01295F3F4FAE01475F58
:101D00005F4FBE016B5F7F4F14968D919C9115972D
:101D10000995F70184899589608D718D0E94453EF2
:101D20003B014C01A12CB12C6701FCE1CF0ED11C71
:101D3000F701808D918DA816B90610F6689E800176
:101D4000699E100D789E100D11240A0D1B1DD701E0
:101D500056968D919C9157970817190708F0B0CFA8
:101D60001C821B821A8219825A964D905C905B9756
:101D7000A20160E070E0C6010E94933E92012150F2
:101D80003109D7011296ED91FC911397A601B80184
:101D90008D919C910995D7015A96ED91FC915B9795
:101DA000EE0DFF1D138E1696ED91FC9117979E0177
:101DB0002D5F3F4FAE014F5F5F4FB60114968D917F
:101DC0009C911597099529813A81F701808991891C
:101DD0008217930768F4F60101900020E9F7319724
:101DE000EC19FD0929F0EE0DFF1D138ED701DBCF95
:101DF000D7011A96ED91FC911B972F813885189683
:101E00008D919C9119978A149B0449F4829EA0019C
:101E1000839E500D929E500D112401E008C0A29E99
:101E2000A001A39E500DB29E500D112400E096011A
:101E300060E070E00995BFEFAB1ABB0A79CF248947
:101E40003589A688B788808D918D8A159B0538F5D0
:101E500047E2429FC001439F900D1124B5010E94AB
:101E6000453E6B01E12CF12C8701E39420E330E047
:101E700048E450E069E070E088E490E00E94E335D7
:101E800087E290E0B5010E94453E9B01B601675F85
:101E90007F4F43E050E087E490E00E949C360E9430
:101EA00089172E960FB6F894DEBF0FBECDBFDF9117
:101EB000CF911F910F91FF90EF90DF90CF90BF9047
:101EC000AF909F908F907F906F905F904F9008950C
:101ED0000C94F10D611108C04230A9F587FF41C093
:101EE0000E94AF0D0C944B174130D9F56130B1F021
:101EF000623009F00895E091DB03F091DC03309744
:101F000011F40C94F10D84899589019626893789FD
:101F100082179307B0F7958B848BF3CFA091DB03E7
:101F2000B091DC031097E9F01E96ED91FC911F979C
:101F30003097B9F054966D917C9155971C968D9180
:101F40009C911D970994413061F4E091DB03F0917D
:101F5000DC033097B1F284899589009791F201975B
:101F6000DACF0895EF92FF920F931F93CF93DF93F1
:101F70001F92CDB7DEB789830E94B1198981813064
:101F8000E9F048F08230E9F50DE22DE441E062E04D
:101F90008CE797EF27C00BE010E029E030E040E04D
:101FA00050E06EE270E081E79AE50E949E1800E240
:101FB00024E54BE060E08CE69CE114C0E12CF12CC0
:101FC0008701E39425E030E044E550E06CE270E006
:101FD00080E090E00E949C360BE224E541E060E066
:101FE00083E49EE710E030E050E070E00E949E182D
:101FF0000F90DF91CF911F910F91FF90EF900C9474
:1020000089170F90DF91CF911F910F91FF90EF9063
:102010000895611103C04230C1F411C04130F9F498
:10202000613069F0623069F48091AC058F5F833074
:1020300018F48093AC0505C01092AC0502C00C9456
:102040004B178091AC050C94B20F413041F4809154
:10205000AC05811102C082E0ECCF8150EACF089537
:10206000E091C703F091C80383E2DF011D928A95D6
:10207000E9F78BEF9BE09093CE038093CD03109212
:10208000CC031092CB030E94010A0C948917809113
:1020900001019091020197FD08C00E945F388FEF07
:1020A0009FEF90930201809301010C943010CF9325
:1020B000DF9390E0FC01E056FE4F2491FC01E457D1
:1020C000FE4F8491882361F190E0880F991FFC01F5
:1020D000E858FE4FC591D491FC01EE57FE4FA591F3
:1020E000B491611109C09FB7F8948881209582232B
:1020F0008883EC912E230BC0623061F49FB7F89473
:102100003881822F809583238883EC912E2B2C930A
:102110009FBF06C08FB7F894E8812E2B28838FBF0E
:10212000DF91CF9108953FB7F8948091E4039091A7
:10213000E503A091E603B091E70326B5A89B05C08F
:102140002F3F19F00196A11DB11D3FBFBA2FA92F36
:10215000982F8827820F911DA11DB11DBC01CD01B3
:1021600042E0660F771F881F991F4A95D1F708959F
:102170002F923F924F925F926F927F928F929F9297
:10218000AF92BF92CF92DF92EF92FF920F93CF93D5
:10219000DF931F92CDB7DEB7982E6B012A0119018C
:1021A000E090DD03F090DE03A090DB03B090DC0351
:1021B0008DE1E816F10460F0A70160E070E0C50170
:1021C0000E94933EECE1EE1AF108F501F38EE28EE7
:1021D0008091DB039091DC03009759F028E330E015
:1021E000FC01318B208B27E230E0338B228B0E9465
:1021F00018268091DB039091DC03009749F027E8D3
:1022000039E0FC0137832683158214820E94182648
:102210008091DB039091DC03009749F024E239E0E0
:10222000FC0133872287118610860E9418264CE015
:1022300050E06FEC73E0892D0E946A2BC6010E946A
:10224000EE376C0190931801809317014C01002325
:1022500011F0689487F8C6010E94121A3C01198295
:10226000E12CF12CA12CB12CA614B70419F1E11426
:10227000F10419F4EE24E394F12C21E030E0AE01F6
:102280004F5F5F4FB501C6010E941E17019719F0FD
:10229000E12CF12C0FC089818C3241F08A3021F47D
:1022A000FFEFEF1AFF0A02C0882321F08FEFA81A70
:1022B000B80ADACF002319F0EFEFEE1AFE0AE09128
:1022C000DB03F091DC03309759F0F78AE68A8DE65C
:1022D00099E09383828391828082CF010E941826A5
:1022E0008091DB039091DC03009739F0FC01578665
:1022F0004686158614860E94182620E030E048E6BF
:102300005FE068EE73E080E090E00E94C219909375
:102310001601809315018AE69FE09093CE03809387
:10232000CD039092CC038092CB03E091DB03F0913C
:10233000DC03309711F0358A248A0E94F10D0F904A
:10234000DF91CF910F91FF90EF90DF90CF90BF90F2
:10235000AF909F908F907F906F905F904F903F9045
:102360002F900895CF92DF92EF92FF920F931F93D9
:10237000CF93DF9300D000D0CDB7DEB762177307DD
:1023800084079507FCF489019A016B017C01A9017E
:102390009801261B370B480B590B69F029833A83A8
:1023A0004B835C830E94B53D29813A814B815C81DE
:1023B0000E94E23D03C060E070E0CB016C0D7D1D2A
:1023C0008E1D9F1D0F900F900F900F90DF91CF915A
:1023D0001F910F91FF90EF90DF90CF900895833081
:1023E00081F028F4813099F08230A1F0089587308F
:1023F000A9F08830B9F08430D1F4809180008F7DCD
:1024000003C0809180008F7780938000089584B509
:102410008F7702C084B58F7D84BD08958091B00010
:102420008F7703C08091B0008F7D8093B0000895B6
:102430001F93CF93DF93282F30E0F901EC54FE4F28
:102440008491F901E056FE4FD491F901E457FE4F13
:10245000C491CC23C9F0162F81110E94EF11EC2FEB
:10246000F0E0EE0FFF1FEE57FE4FA591B4918FB72E
:10247000F894111105C09C91ED2FE095E92302C05D
:10248000EC91ED2BEC938FBFDF91CF911F910895CD
:102490008F929F92AF92BF92CF92DF92EF92FF9274
:1024A0006B017C010E9493104B015C01C114D104AB
:1024B000E104F104F1F00E949310DC01CB018819D2
:1024C0009909AA09BB09883E9340A105B10570F39B
:1024D00021E0C21AD108E108F10888EE880E83E0F5
:1024E000981EA11CB11CC114D104E104F10419F718
:1024F000DDCFFF90EF90DF90CF90BF90AF909F9097
:102500008F9008952FB7F8946091E0037091E103E4
:102510008091E2039091E3032FBF08951F920F92E1
:102520000FB60F9211242F933F938F939F93AF93E6
:10253000BF938091E0039091E103A091E203B091F9
:10254000E3033091DF0323E0230F2D3720F40196BE
:10255000A11DB11D05C026E8230F0296A11DB11DC6
:102560002093DF038093E0039093E103A093E203C1
:10257000B093E3038091E4039091E503A091E60317
:10258000B091E7030196A11DB11D8093E4039093E0
:10259000E503A093E603B093E703BF91AF919F914A
:1025A0008F913F912F910F900FBE0F901F90189514
:1025B0009C0184E0D90190E0EC91F0E0E858FF4FF5
:1025C000E491EC939F5F14969430B1F781502F5FA4
:1025D0003F4F8111EFCF08950F931F93CF93DF9358
:1025E0009B0190E1899F80011124A0E0B0E0FD01F2
:1025F000E00FF11FE40FF51F60E070E0E901C60F86
:10260000D71F91918881982798836F5F7F4F64309F
:102610007105A1F714962C5F3F4FA031B10539F732
:10262000DF91CF911F910F9108959C01CB010197EC
:10263000889770F5CB01079661E170E00E94593EE2
:1026400024303105E9F060F4660F771F2130310541
:1026500099F022303105E1F4FB01E45CFE4F15C036
:1026600027303105B9F02830310591F4660F771F16
:10267000FB01E05DFE4F09C0FB01EE5BFE4F05C0B4
:10268000660F771FFB01EA5CFE4F80819181089500
:102690000E94733E80E090E00895FC01A081B0E0CC
:1026A000FD017597ED39F10550F477FD08C06A1703
:1026B0007B072CF457FD03C04A175B0714F00E94F8
:1026C000733E4A9FF0014B9FF00D5A9FF00D11246D
:1026D0006E0F7F1FAB014770552733E075956795E7
:1026E0003A95E1F76F5F7F4FFC01E60FF71F81E03E
:1026F00090E001C0880F4A95EAF7222319F09081F3
:10270000892B03C0809590818923808308954F92FF
:102710005F926F927F928F929F92AF92BF92CF9271
:10272000DF92EF92FF920F931F93CF93DF936C0191
:102730005B014A0179012801C0E0D0E0CE15DF0538
:10274000ACF400E010E03E016A0C7B1C0815190592
:102750005CF4B8016C0D7D1D21E0A301C2010E9453
:102760004D130F5F1F4FF2CF2196E8CFDF91CF912E
:102770001F910F91FF90EF90DF90CF90BF90AF909F
:102780009F908F907F906F905F904F900895FC0185
:10279000208130E0F9017597ED39F10550F477FDAE
:1027A00008C0621773072CF457FD03C04217530784
:1027B00014F00E94733E429FF001439FF00D529F20
:1027C000F00D11246E0F7F1F9B0143E03595279577
:1027D0004A95E1F7FC01E20FF31F818190E06770F9
:1027E000772702C0959587956A95E2F781700895DD
:1027F000009711F40E94733EFC01808190E09C01DF
:10280000255131092D393105A8F708950F931F93EC
:10281000CF93DF939C018B0181309105A1F167E09B
:1028200070E00E94593EEB012296FB013196203266
:10283000310581F0C901880F991F8C0F9D1F880FEA
:10284000991F0196BF01660F771F0E94593E660FC0
:10285000771F02C06AE170E0CF01220F331F220F01
:10286000331F265F3F4F1816190644F4F801E80F8E
:10287000F91F20830197261B370BF5CF86E0F8015F
:102880008083CE0102C080E090E0DF91CF911F9164
:102890000F9108952F923F924F925F926F927F9285
:1028A0008F929F92AF92BF92CF92DF92EF92FF9260
:1028B0000F931F93CF93DF93CDB7DEB729970FB652
:1028C000F894DEBF0FBECDBF4C017B012C01440C40
:1028D000551C440C551C620181E1C80ED11CCC9CD6
:1028E000A001CD9C500D500D1124495F5F4F93E026
:1028F000559547959A95E1F74F5F5F4F60E070E01F
:10290000C7010E94933EF701C0828701960141E012
:1029100050E060E070E086E090E00E94871321E0E4
:1029200030E0A60166E070E080E090E00E9487134E
:1029300029E030E049E050E060E070E080E090E0C5
:102940000E9487136201F9E0CF0ED11C29E030E02C
:1029500048E050E060E070E0C6010E94871328E084
:1029600030E049E050E0B60180E090E00E9487133B
:10297000BE016F5F7F4FC4010E9406143C01A12C71
:10298000B12C1C0181E0281A3108A614B704D4F533
:10299000C12CD12C81E090E08C0F9D1F8A0D9B1DD6
:1029A00099878887C614D7044CF5A114B10431F473
:1029B000C114D104F9F0C214D304E1F0A214B30499
:1029C00019F4C114D104B1F0E1E0F0E0EC0FFD1F07
:1029D000EC0DFD1D608170E062507109E885F9859C
:1029E000808190E0870125E030E045E050E00297EB
:1029F0000E948713FFEFCF1ADF0AD4CF9FEFA91AE7
:102A0000B90AC3CFE7E08E169104B4F0F6E04F0E9A
:102A1000511C870126E030E043E050E060E070E0C8
:102A2000C2010E94871323E030E046E050E0B2018B
:102A300080E090E00E94871329960FB6F894DEBFDD
:102A40000FBECDBFDF91CF911F910F91FF90EF90FF
:102A5000DF90CF90BF90AF909F908F907F906F90BE
:102A60005F904F903F902F900895E7E0F0E020E0D6
:102A70005DE170E0422F441F4427441F459F402DD5
:102A80001124220F42279B010E2E02C03595279557
:102A90000A94E2F7922F9170989F902D1124242F81
:102AA0002927319738F7822F08951F93FC0101974A
:102AB000889710F00E94733ECF01089624E0880F9B
:102AC000991F2A95E1F78E9F90018F9F300D9E9F51
:102AD000300D1124205C3F4FE130F105E9F0CF01CA
:102AE00067E070E00E94593E6E5F7F4F17EE16035D
:102AF000A001179F500D1124465F5F4F469FC001F4
:102B0000479F900D569F900D1124C796280F391F8F
:102B1000379714F024523109C9011F910895DF92AB
:102B2000EF92FF920F931F93CF93DF938C01EB01F2
:102B30006430710510F00E94733E0E945515D82E26
:102B4000E92EB801CE010E94EE25F82EB801CE0183
:102B50000E94C4252D2D3E2D37FF02C0295F3F4F17
:102B600093E0359527959A95E1F7A9016F2D6802B5
:102B7000401951091124CA01DF91CF911F910F9182
:102B8000FF90EF90DF900895CF92DF92EF92FF9247
:102B9000CF93DF936131710578F46C01E12CF12C56
:102BA000062E04C0F694E794D794C7940A94D2F7FB
:102BB000CD28CE28CF2811F00E94733E61507109B4
:102BC0006F3FBFEF7B0749F1F901A081B181ED01B2
:102BD000E3E0D595C795EA95E1F7C40FD51FFC0151
:102BE000062E02C0F695E7950A94E2F7E170FF27FA
:102BF000A095B095A770BB2701C0EE0FAA95EAF784
:102C0000F881EF2BE88361507109D901ED91FC91B6
:102C100011973196ED93FC93D3CFDF91CF91FF9035
:102C2000EF90DF90CF900895CF93DF93CDB7DEB7CD
:102C300060970FB6F894DEBF0FBECDBF4091AA01DA
:102C40005091AB01DE01119680E090E0BD012AEACF
:102C5000FC013496E40FF51FE491E227E827ED9399
:102C6000019680319105A1F7E091BD01F091BE017F
:102C700040E150E08091BB019091BC0109956096C4
:102C80000FB6F894DEBF0FBECDBFDF91CF91089590
:102C9000FB01EE5FFD4F849108950C94783E0F93F5
:102CA0001F93CF93DF93082F87E00E94181260E0F4
:102CB00086E00E941812C7E0D0E010E0B8010C2EA8
:102CC00002C0759567950A94E2F7617077278BE0EB
:102CD0000E94181261E08DE00E94181260E08DE001
:102CE0000E941812219750F761E086E0DF91CF91A2
:102CF0001F910F910C9418120C948212EF92FF9274
:102D00000F931F93CF93DF93D62F9C013327F901A5
:102D1000EC54FE4F8491F901E056FE4FF490F90116
:102D2000E457FE4FC491062F10E0CC2371F08111BF
:102D30000E94EF11EC2FF0E0EE0FFF1FE956FF4E5F
:102D4000A591B491EC91EF21F1F4F801E854FE4F14
:102D5000808181111EC081E080830E948212000F59
:102D6000111F000F111FF801E455FE4F608371839E
:102D700082839383E091CD03F091CE03309709F4E1
:102D800047C041E030C0F801E854FE4F8081811116
:102D900036C0C80188549E4F7C01FC01808181307F
:102DA000B9F50E948212000F111F000F111FF801C8
:102DB000E455FE4F0081118122813381DC01CB017A
:102DC000801B910BA20BB30B893E9340A105B1056B
:102DD000F8F082E0F7018083E091CD03F091CE031B
:102DE0003097B1F042E06D2F8091CB039091CC03EE
:102DF000DF91CF911F910F91FF90EF900994108276
:102E0000E091CD03F091CE03309711F040E0EBCF8D
:102E1000DF91CF911F910F91FF90EF90089560E0A7
:102E200082E090E00E947E1661E083E090E00E94E4
:102E30007E1662E084E090E00C947E16CF92DF92E2
:102E4000EF92FF920F931F93CF93DF9397FD18C0DC
:102E500069017A018B01EC0140E050E00E94993554
:102E60000817190769F4A601B701CE01DF91CF91C8
:102E70001F910F91FF90EF90DF90CF900C941C3535
:102E80008FEF9FEFDF91CF911F910F91FF90EF9008
:102E9000DF90CF900895A091C903B091CA03109715
:102EA00099F01197B093CA03A093C903AA0FBB1F4F
:102EB000AA0FBB1FAC53BB4FED91FC91119712961B
:102EC0008D919C911397099408952091C903309195
:102ED000CA032A30310588F4F901EE0FFF1FEE0F07
:102EE000FF1FEC53FB4F91838083738362832F5FBB
:102EF0003F4F3093CA032093C90308951092BE0434
:102F00001092C00482E08093C204089560E00C94A3
:102F10004F16CF93DF9380E80E94861780E40E94CB
:102F20008617C3ECD1E061E089910E944F1683E0DF
:102F3000CB3BD807C1F7DF91CF910895F4E5F69F19
:102F40009001F79F300D1124820F931F60EA72E009
:102F50000E94593EF69F9001F79F300D112464E5C1
:102F600070E00E94593EF901E80FF91FE83F81E047
:102F7000F807C8F480910001ED53FE4F841309C097
:102F800081E090E001C0880F6A95EAF79081892B73
:102F900009C081E090E001C0880F6A95EAF780954A
:102FA00090818923808308950F931F93FB01BA01B9
:102FB00041E0012B022B032B09F440E0CF011F91CC
:102FC0000F910C949E172F923F924F925F926F92A7
:102FD0007F928F929F92AF92BF92CF92DF92EF92A9
:102FE000FF920F931F93CF93DF93CDB7DEB7289750
:102FF0000FB6F894DEBF0FBECDBF3B012A01302FC4
:10300000512F20320CF420E2812C912C2052822F5F
:1030100090E0880F991F8C010E551F4EBC016F5513
:103020007F4E78876F83F801849180FF03C0C401CD
:10303000019701C0C401009719F4EF81F8851BC006
:103040008130910519F4EF81F8851CC0823091051B
:1030500071F4EF81F8859491F80124919370F4E074
:103060009F9FC0011124922F9270892B10C0833032
:10307000910529F4F801849182958F7007C0049717
:1030800021F4F8018491869501C080E08E70212C96
:10309000312C682F70E07A836983C401840D951DFB
:1030A0009C838B8383E090E082199309E981FA8104
:1030B00002C0F595E7958A95E2F7E0FD03C0C501EA
:1030C000D60103C0C701A32FB52F41E0892B8A2B5E
:1030D0008B2B09F440E06B817C81C101860D971D2B
:1030E0003D835E830E949E17FFEF2F1A3F0A3D81AA
:1030F0005E8144E024163104A9F66FEF861A960A21
:1031000076E08716910409F08ECF28960FB6F894D2
:10311000DEBF0FBECDBFDF91CF911F910F91FF900A
:10312000EF90DF90CF90BF90AF909F908F907F9067
:103130006F905F904F903F902F9008952F923F9205
:103140004F925F926F927F928F929F92AF92BF92B7
:10315000CF92DF92EF92FF920F931F93CF93DF9363
:1031600000D000D01F92CDB7DEB72B017A01490104
:103170000E94EE376C01198298012E0D3F1D3D8390
:103180002C838701612C712CA12CB12C2C813D81C9
:1031900002171307E1F1E12CF12C130181E0281A49
:1031A0003108E814F90461F1C1018E199F099C01ED
:1031B000277033273B832A83C7018A0D9B1D8770A5
:1031C0009927892B51F441E050E0BE016F5F7F4F9A
:1031D000C6010E941C350197D1F4498150E00A8054
:1031E00002C0559547950A94E2F74170B801C701AE
:1031F000840D951D0E949E173FEFE31AF30AD1CF6D
:103200000F5F1F4FA80CB91C68187908BFCFC60103
:103210000E945F380F900F900F900F900F90DF91EA
:10322000CF911F910F91FF90EF90DF90CF90BF90C3
:10323000AF909F908F907F906F905F904F903F9056
:103240002F900895AF92BF92CF92DF92EF92FF92AC
:103250000F931F93CF93DF93A82EB090C1048111D9
:1032600008C0B090C304C1E0D0E04EE4C42ED12C1D
:1032700004C0C0E0D0E0C12CD12CE12CF12C87019E
:1032800026E230E046E050E060E070E0C6010E94D7
:103290009C36CC0EDD1ECC0EDD1EB3FE0DC0E12C27
:1032A000F12C8701E39427E030E044E050E060E057
:1032B00070E0C6010E949C36CC0EDD1EB2FE0DC031
:1032C000E12CF12C8701E39427E030E043E050E06B
:1032D00068E070E0C6010E949C36CC0DDD1DB1FE99
:1032E0000DC0E12CF12C8701E39427E030E042E0AF
:1032F00050E060E170E0CE010E949C36B0FE0DC04F
:10330000E12CF12C8701E39426E030E042E050E02C
:1033100068E170E0CE010E949C36A1100CC0BE0195
:103320006250710906E010E024E030E04FE150E027
:1033300089EE94EA09C006E010E025E030E04FE1B4
:1033400050E0BE018DE69CE50E949E18DF91CF9172
:103350001F910F91FF90EF90DF90CF90BF90AF90B3
:10336000089580910001811103C06FEF70E002C0E9
:1033700060E070E048EF51E083EC91E00C94933E04
:103380000C94B1198F929F92AF92BF92EF92FF92DD
:103390000F931F93CF93DF93E091AF05F091B005AA
:1033A000309799F1E090B105F090B205ADEAB5E043
:1033B000C0E0D0E0CE15DF0541F11C9614960D91CA
:1033C0001C911597012BF9F479018A014B015C01DD
:1033D0008091AD059091AE0509952CE02C9FF001F0
:1033E0002D9FF00D1124E355FA4F62877387848770
:1033F000958786829782A086B186F786E686118BAE
:10340000008BCE0104C02196D5CF8FEF9FEFDF91C7
:10341000CF911F910F91FF90EF90BF90AF909F9031
:103420008F9008950F931F93CF93DF938C0142E009
:1034300050E060E070E00E949935EC0197FF03C016
:1034400080E090E00AC040E050E060E070E0C80139
:103450000E949935892BA1F7CE01DF91CF911F9161
:103460000F9108952F923F924F925F926F927F92A9
:103470008F929F92AF92BF92CF92DF92EF92FF9284
:103480000F931F93CF93DF9300D000D01F92CDB73F
:10349000DEB74C017D836C831A016901F90110824A
:1034A0000E94121A9B838A831982C114D10409F4E1
:1034B0005AC00115110509F456C0F6011082612C9D
:1034C000712CE12CF12CA12CB12C412C512C2A81F6
:1034D0003B816216730609F446C021E030E0AE017C
:1034E0004F5F5F4FB301C4010E941E170197D9F5CA
:1034F0008981A214B30419F52C813D81421653062B
:10350000F1F48C3281F18A3071F1882361F1E01697
:10351000F10630F00C0D1D1DF8013197108223C00B
:10352000F601EE0DFF1D80833FEFE31AF30AE0166C
:10353000F10680F7F601EE0DFF1D108210C08C32EF
:1035400021F48FEFA81AB80A0AC08A3031F49FEF2D
:10355000491A590AA12CB12C02C0882321F0EFEF9F
:103560006E1A7E0AB4CF0F900F900F900F900F90AD
:10357000DF91CF911F910F91FF90EF90DF90CF904F
:10358000BF90AF909F908F907F906F905F904F9083
:103590003F902F90089580FF12C081FD0AC06A30CD
:1035A00010F480E311C06A3089F06B3089F083E455
:1035B0000BC082FD02C08BE407C08BE605C082FD14
:1035C00002C081E401C081E6860F08958FE5089569
:1035D0008DE208954F925F926F927F92AF92BF9269
:1035E000CF92DF92EF92FF920F931F93CF93DF93CF
:1035F000EC016A017B01022F4AE050E060E370E0D9
:103600000E94933E1A861AE08AE0482E512C612CC3
:10361000712CC114D104E104F10481F011505E0158
:10362000A10EB11CC701B601A30192010E94143E74
:10363000605DF501608369017A01EBCF011124C05F
:1036400060E0FE01E60FF11D8081803311F46F5FB1
:10365000F8CF6A3009F469E070E04BE050E0461BB7
:10366000570B6C0F7D1FCE01DF91CF911F910F91F2
:10367000FF90EF90DF90CF90BF90AF907F906F90D2
:103680005F904F900C94813EDF91CF911F910F91ED
:10369000FF90EF90DF90CF90BF90AF907F906F90B2
:1036A0005F904F9008958F929F92AF92BF92CF926A
:1036B000DF92EF92FF920F931F93FA011082118213
:1036C00012821382680F791F86179707A1F1C080B5
:1036D000D180E280F380DC010D91CD010C2510E05A
:1036E00020E030E048E050E000FD09C0B0E28B2E61
:1036F000B3E89B2EB8EBAB2EBDEEBB2E03C0812CE6
:10370000912C54013695279517950795082519256D
:103710002A253B254150510939F7CD2CDE2CEF2CC1
:10372000FF24F0940C251D252E253F2500831183B1
:1037300022833383C9CF1F910F91FF90EF90DF90C9
:10374000CF90BF90AF909F908F9008950F931F934D
:10375000CF93DF93CDB7DEB764970FB6F894DEBF93
:103760000FBECDBF8C0180E1F801DE011196019002
:103770000D928A95E1F783E99FEDA3EBB8EA8D8777
:103780009E87AF87B88BAE014F5E5F4F60E170E000
:10379000CE0101960E94531B81E0F8010485158536
:1037A0002685378549895A896B897C8904171507CD
:1037B0002607370709F080E064960FB6F894DEBF5D
:1037C0000FBECDBFDF91CF911F910F9108958EE471
:1037D00080937C0062E070E080E090E00E944812FC
:1037E00080917A00806480937A0080917A0086FDCF
:1037F000FCCF209178008091790030E0382B032EA7
:10380000000C440B550B64EB7BE281E190E00E94DD
:10381000E23DC9010895CF93DF93CDB7DEB7A297FC
:103820000FB6F894DEBF0FBECDBF0E94E71B8239F2
:1038300029E0920768F0843C39E0930758F0883219
:103840002AE0920748F08C389A4040F423E007C001
:1038500020E005C021E003C022E001C024E081E0B7
:1038600090E001C0880F2A95EAF781508093C30445
:1038700023E030E040E050E060E070E0CB010E94E7
:10388000B2112091C2047727620F711D663018F4BF
:103890006093C20403C085E08093C2048091C20497
:1038A000882319F081508093C20481E090E0009059
:1038B000C20402C0880F991F0A94E2F781508093D6
:1038C000C1048091C0048823C9F142E250E060EE57
:1038D00071E0CE0101960E94C33D8EE690E39A8787
:1038E00089878FE592E69C878B8781E692E79E87A2
:1038F0008D8785E39DE7A0E08F87988BA98B8091CA
:10390000BF04E82FF0E0F595E79521E030E02C0FBB
:103910003D1FE20FF31F208180FD06C030E094E0E0
:10392000359527959A95E1F72093C1048F5F809391
:10393000BF04823290F00E947E170FC08091BE04B7
:103940008F5F8C3318F48093BE0407C01092BE04BE
:103950001092BF0481E08093C004A2960FB6F89441
:10396000DEBF0FBECDBFDF91CF910895CF93DF9320
:10397000D82F0E94B53D2D2F2370206420937C000A
:1039800020917A00206420937A0080917A0086FD4D
:10399000FCCF80917800C62FC8270E94E71BD0FF7C
:1039A000982FC9270E948212D1FF02C0872F01C021
:1039B000862F8C27DF91CF910895EF92FF921F936E
:1039C000CF93DF931F92CDB7DEB7182F7C018E2DDA
:1039D000811B861740F469830E94B61CF70181930E
:1039E0007F016981F4CF0F90DF91CF911F91FF90FC
:1039F000EF9008958F929F92AF92BF92CF92DF92F5
:103A0000EF92FF920F931F93CF93DF93CDB7DEB763
:103A100064970FB6F894DEBF0FBECDBF6C018E0168
:103A20000F5F1F4F5801E12CF12C4801C7010E9484
:103A3000CC3DF50181935F01FFEFEF1AFF0A80E1B2
:103A4000E816F10499F7C8010E94A61B811146C02F
:103A50006CE0C8010E94DD1C83E99FEDA3EBB8EA8E
:103A60008D879E87AF87B88BAE014F5E5F4F60E159
:103A700070E0C8010E94531B89899A89AB89BC896F
:103A80008D879E87AF87B88B5801E12CF12CF5010B
:103A900061915F01C7010E94D43DFFEFEF1AFF0A59
:103AA00080E1E816F10499F7E12CF12CC7010E949E
:103AB000CC3DF80181938F01FFEFEF1AFF0A80E1FF
:103AC000E816F10499F7C4010E94A61B811106C0F3
:103AD000F601108211821282138209C08D819E81AB
:103AE000AF81B885F60180839183A283B383649606
:103AF0000FB6F894DEBF0FBECDBFDF91CF911F91FF
:103B00000F91FF90EF90DF90CF90BF90AF909F907C
:103B10008F900895413011F40C944B1708955F92E3
:103B20006F927F928F929F92AF92BF92CF92DF92CD
:103B3000EF92FF920F931F93CF93DF93CDB7DEB732
:103B4000E0970FB6F894DEBF0FBECDBF5C0180904A
:103B5000BD039090BE03E090BB03F090BC03FC015A
:103B600001900020E9F731978F01081B190B39F4F8
:103B70009401A70160E070E080E090E099C00097B8
:103B800009F447C06C01FC018191811144C017FD0B
:103B90000FC19801AAE0B0E00E94363E6E5F7F4FF1
:103BA0008F4F9F4F23E030E040E050E00E94E23D25
:103BB000211580E83807410551050CF0F9C0C9010D
:103BC0000796BC01F3E076956795FA95E1F7653DB8
:103BD000710508F0EDC081E090E09AA789A759012E
:103BE0001CA70BA7AB0160E070E0C7010E94933EE9
:103BF00018AA1FA660E070E080E090E01AE0D6010D
:103C00002D916D012223E1F030ED320F3A3008F4AE
:103C10009BC00E94733E80538A3008F4B5CF3501B3
:103C2000F30161913F01662309F4ACC0062E000C3C
:103C3000770B8EE591E00E949A3E892B89F732C17D
:103C40006115710569F09B01220F331F620F731F0D
:103C50006F5F7F4F9E01215D3F4FA7010E94C415FA
:103C60008FA598A98A159B05A1F6EDA6FEA688E06A
:103C7000FE01B996DE01599601900D928A95E1F701
:103C800088E0FE017996DE01919601900D928A9569
:103C9000E1F788E0FE01B196DE01519601900D92A8
:103CA0008A95E1F79401A70161E070E0CE014196A9
:103CB0000E941230882309F418C18091BD039091AD
:103CC000BE030E94F8136C018C0197FF02C00F5FC6
:103CD0001F4F159507951195019511090E94B1196E
:103CE000E12CF12C065D1F4FEC14FD040CF0FDC01F
:103CF000A12CB12C8091BD039091BE03009709F4D3
:103D000088CFDC012C9130E0A216B3064CF4E21609
:103D1000F30634F4A701B5010E94C713282F02C08F
:103D200020E030E0422F4170B701C8018A0D9B1D91
:103D30000E949E17BFEFAB1ABB0AAC14BD04D4F2AD
:103D4000EFEFEE1AFE0AD0CF189FA001199F500D79
:103D50001124CA01C097820F911D27FD9A956F5FAC
:103D60007F4F6330710509F04ACF9E01215D3F4FBF
:103D7000A7016AE070E00E94C41560E070E080E096
:103D800090E03DCF17FD14C09801ABE0B0E00E9479
:103D9000363EDC01CB010196A11DB11DB595A7955D
:103DA000979587958115F0E89F07A105B1051CF04F
:103DB000F40110829AC0AC01495F5F4F63E05695F1
:103DC00047956A95E1F7453D510590F722E030E0CF
:103DD0003A8B298B5C011C8B0B8B60E070E0C70178
:103DE0000E94933E188E1F8A612C712C00E010E017
:103DF0004DE2542ED6016D916D01662349F1062ED8
:103E0000000C770B8EE591E00E949A3E009709F432
:103E100000CF509E9001519E300D11248E5591403F
:103E20008C01020F131F6A94672871F49E01295EAA
:103E30003F4FA7016BE070E0C8010E94C415612CE0
:103E4000712C00E010E0D6CF66246394712CD2CFA1
:103E50006A94672849F49E01295E3F4FA70166E0F6
:103E600070E0C8010E94C4158F89988D8A159B0542
:103E700009F0CFCEED8AFE8A88E0FE017196DE0160
:103E8000119601900D928A95E1F788E0FE01319636
:103E9000DE01199601900D928A95E1F788E0FE0106
:103EA0003996FACE053D110508F082CFF701A00E34
:103EB000B11ED6018D916D018193AA15BB05C9F77D
:103EC00084E090E09A8B898BC801A0E0B0E023E009
:103ED000880F991FAA1FBB1F2A95D1F7988F8F8B28
:103EE0001C8B0B8BED8AFE8ADDCEE0960FB6F89424
:103EF000DEBF0FBECDBFDF91CF911F910F91FF901D
:103F0000EF90DF90CF90BF90AF909F908F907F9079
:103F10006F905F9008952F923F924F925F926F92B1
:103F20007F928F929F92AF92BF92CF92DF92EF9249
:103F3000FF920F931F93CF93DF93CDB7DEB7C1519D
:103F4000D1400FB6F894DEBF0FBECDBF182F7B0156
:103F500048EC50E09E012F5F3F4F2901B90181E0FD
:103F60000E946A2BF20101900020E9F731971F01AE
:103F70002418350887EC90E0DC01A219B309CA5F68
:103F8000DE4FB983A883C650D140C250DF4F18829C
:103F900019821A821B82CE5FD0409701A4E6B0E05E
:103FA0000E94363E4B015C01CE0182509F4F0E9421
:103FB000FA1C3E01BEED6B0E711C60E1F62EF301A2
:103FC0002F2D11922A95E9F7C250DF4F88819981F0
:103FD000AA81BB81CE5FD040F30180839183A2830D
:103FE000B38384829582A682B782108763E0C3017F
:103FF00009960E94DD1CC250DF4F88819981AA81F9
:10400000BB81CE5FD040F30184879587A687B787B1
:10401000AE014E5F5E4F60E170E0C3010E94531B32
:10402000CE5FDE4F88819981AA81BB81C250D14089
:10403000F30184879587A687B7878E0102511F4FAA
:10404000D8011D92FA94E9F78CED99E00E94EE37C1
:104050006C017E01B9ECEB0EF11C40E150E0B701C0
:104060000E941C359C01C601C25FDE4F2883CE50E2
:10407000D140C15FDE4F3883CF50D1400E945F38BE
:10408000C25FDE4F2881CE50D140C15FDE4F388104
:10409000CF50D1402031310591F480E1E5E0F1E0ED
:1040A000D80101900D928A95E1F7D701F80190E1CE
:1040B000900F8D912081822781939E13FACF80E10A
:1040C000F70111928A95E9F780ECECEEF4E0DF015C
:1040D0001D928A95E9F7F80180818093EC04818133
:1040E0008093ED0482818093EE0483818093EF04BA
:1040F00084818093F00485818093F104868180938C
:10410000F20487818093F30480858093F404818591
:104110008093F50482858093F60483858093F70469
:1041200084858093F80485858093F904868580933F
:10413000FA0487858093FB04AFEFB4E024E030E01D
:10414000FD0137977081319660813196908131966B
:104150008081A90143705527452BE9F4E62FF0E053
:10416000E858FF4F4491E92FF0E0E858FF4F649181
:10417000E82FF0E0E858FF4F9491E72FF0E0E8587F
:10418000FF4F8491F901F695E795F695E795EF597C
:10419000FE4E749174278D0103501109AD014351F6
:1041A0005109FA0140817427F80170830F5F1F4F96
:1041B000AD0142515109FA0140816427F801608341
:1041C000BD0161507109AD0141515109FA014081B0
:1041D0009427FB0190833F97E0818E278C932F5F7C
:1041E0003F4F14962C32310509F0AACF80E1F70138
:1041F000ACE9B5E001900D928A95E1F7ACE9B5E044
:10420000F30190E1960D8D912081822781939E1379
:10421000FACF4CEE54E0B30180E00E94EC1211E0C2
:104220002EED30E02C0F3D1F2F5F3F4FC85FDE4F5C
:1042300039832883C850D1402EED30E02C0F3D1F2C
:104240002E5F3F4FC65FDE4F39832883CA50D1406F
:104250002EED30E02C0F3D1F2D5F3F4FC45FDE4F32
:1042600039832883CC50D1403EEDC32ED12CCC0EC7
:10427000DD1E30E1C30ED11C0BE1CE0182529F4FF7
:104280000E94D812C152DF4F8881CF5DD040CD51FE
:10429000DF4F9881C35ED040C152DF4F9883CF5D1E
:1042A000D040C951DF4F9881C75ED040CD51DF4F1C
:1042B0009883C35ED040C551DF4F9881CB5ED0401C
:1042C000C951DF4F9883C75ED040C551DF4F888307
:1042D000CB5ED040C052DF4F8881C05ED040C85115
:1042E000DF4F9881C85ED040C052DF4F9883C05ED8
:1042F000D040C851DF4F8883C85ED040CC51DF4FDB
:104300008881C45ED040C451DF4F9881CC5ED040DC
:10431000CC51DF4F9883C45ED040C451DF4F8883B7
:10432000CC5ED040CF51DF4F8881C15ED040C351B9
:10433000DF4F9881CD5ED040CF51DF4F9883C15E73
:10434000D040C751DF4F9881C95ED040C351DF4F85
:104350009883CD5ED040CB51DF4F9881C55ED04071
:10436000C751DF4F9883C95ED040CB51DF4F888360
:10437000C55ED040C85FDE4F48815981C850D140EA
:10438000C65FDE4FA881B981CA50D140C45FDE4FFD
:1043900028813981CC50D140C05FDE4F39832883DA
:1043A000C051D1409301F9018081FA01F080F826D3
:1043B000C05FDE4FE881F981C051D14060819C919E
:1043C00096279F25E92EE8267F2D771F7727771FD1
:1043D000709F602D1124FF0CF626EF24F901E08276
:1043E000FA01E080FC90FE24E9267F2D771F7727D5
:1043F000771F709F602D1124FF0CF626EF24E082BA
:10440000EC90C05FDE4FE881F981C051D140F0806F
:10441000FE24E9267F2D771F7727771F709F602D59
:104420001124FF0CF626EF24EC9260818627962754
:10443000782F771F7727771F709F602D1124880FA3
:104440008627982790832C5F3F4F4C5F5F4F1496D1
:104450003496C05FDE4FF983E883C051D1402C15FC
:104460003D0509F0A0CF4CEE54E0BE0162527F4FF3
:10447000812F0E94EC121F5F1A3009F0FECECE0190
:1044800082529F4F0E94D812C152DF4F8881CF5D68
:10449000D040CD51DF4F9881C35ED040C152DF4F35
:1044A0009883CF5DD040C951DF4F9881C75ED0401F
:1044B000CD51DF4F9883C35ED040C551DF4F988107
:1044C000CB5ED040C951DF4F9883C75ED040C55105
:1044D000DF4F8883CB5ED040C052DF4F8881C05E03
:1044E000D040C851DF4F9881C85ED040C052DF4FE6
:1044F0009883C05ED040C851DF4F8883C85ED040EB
:10450000CC51DF4F8881C45ED040C451DF4F9881C9
:10451000CC5ED040CC51DF4F9883C45ED040C451B4
:10452000DF4F8883CC5ED040CF51DF4F8881C15EA2
:10453000D040C351DF4F9881CD5ED040CF51DF4F87
:104540009883C15ED040C751DF4F9881C95ED0408B
:10455000C351DF4F9883CD5ED040CB51DF4F988160
:10456000C55ED040C751DF4F9883C95ED040CB5164
:10457000DF4F8883C55ED0404CEE54E0BE016252EE
:104580007F4F8AE00E94EC1280E1FE01E252FF4F71
:10459000ACE9B5E001900D928A95E1F7CA5FDE4F74
:1045A00028813981C650D1402115310509F466C0F2
:1045B0007201E20CF31C2D32310518F4D7011C9264
:1045C0005DC080E1FE01E252FF4FDE01A753BF4F05
:1045D00001900D928A95E1F761E089EC90E08C0FF3
:1045E0009D1F40960E94DD1C49EC50E04C0F5D1F62
:1045F0004F5E5F4F61E170E0CE0187539F4F0E9495
:10460000531B8E0107531F4F312CC12CD12CF801A5
:1046100091918F01292E22942FE02222622D832D49
:10462000C25FDE4F9883CE50D1400E94CB1A370133
:104630006C0C7D1CD3018C93C25FDE4F9881CE50F1
:10464000D1409F70392E692F822D0E94CB1AF30121
:104650008183F2E0CF0ED11C2AE2C216D104B9F652
:10466000F701E30DF11D8081D7019A968C939A97FB
:104670008DE39B968C939B979C961C92C2010E9403
:104680008F1D0E9489178AE89DE19093CE03809345
:10469000CD031092CC031092CB0348EC50E0B20152
:1046A00080E00E946A2BC12CD12C760101E010E041
:1046B00020E030E0A2016AE270E080E090E00E9439
:1046C000E23620E0B501A401C2010E94EA1AF2011B
:1046D00001900020E9F73197E419F509EE0FFF1F6B
:1046E000EE0FFF1F01E010E020E030E0A2016AE2DF
:1046F00070E084E590E08E1B9F0B0E94E2360E94E2
:104700008917CF5EDE4F0FB6F894DEBF0FBECDBF68
:10471000DF91CF911F910F91FF90EF90DF90CF909D
:10472000BF90AF909F908F907F906F905F904F90D1
:104730003F902F900895DC019696ED91FC9197970C
:104740004E9F90014F9F300D5E9F300D1124620FE0
:10475000731F9B0143E0359527954A95E1F79A969B
:104760004D915C919B972417350770F4FC01E20F83
:10477000F31F84A590E06770772702C09595879511
:104780006A95E2F78170089580E00895CF93782FBD
:104790004115510561F4813009F04BC0623009F0D8
:1047A00048C081E02230310509F043C043C02430C5
:1047B000310561F4813009F03CC0613009F039C045
:1047C00081E04230510509F034C034C0862F90E0BA
:1047D00064E0769F800D911D1124880F991F880F2A
:1047E000991F84599E4EFC01C49131967491319663
:1047F00064913196E4918E2F90E0A0E0B0E0B82F64
:10480000AA2799278827972B8C2BA62B220F331F9B
:10481000220F331F41505109420F531F440F551FA0
:1048200004C0B695A795979587954A95D2F783705A
:1048300001C080E0CF9108952F923F924F925F92F6
:104840006F927F928F929F92AF92BF92CF92DF92A0
:10485000EF92FF920F931F93CF93DF93E114F10434
:10486000D1F12701122F1B013C017A01812C912CDF
:10487000C22DD32DA12CB12CD7FD1BC0F30186A1D5
:1048800097A18C179D07ACF0F7FC13C080A591A5EC
:104890008E159F0574F09401A501602F812F0E9451
:1048A000C623882331F0212FA701BE01C601F201E2
:1048B0000995FFEFAF1ABF0A219685E0A816B1044B
:1048C000D9F6EFEF8E1A9E0AFFEFEF1AFF0A85E086
:1048D0008816910469F6DF91CF911F910F91FF9097
:1048E000EF90DF90CF90BF90AF909F908F907F9090
:1048F0006F905F904F903F902F900895EF92FF92AE
:104900000F931F93CF93DF930097C1F08A017B0130
:10491000EC01EA85FB85309719F088859985099522
:1049200088A199A1E816F90649F48AA19BA1081764
:10493000190721F485E090E09BA78AA7DF91CF912A
:104940001F910F91FF90EF9008950F93CF93DF93F6
:10495000EB010E94AF0DBE018DEF94E20E9465173E
:10496000C830D10508F045C0FE01EC5CFF4F0C9447
:104970006D3EDF91CF910F910C94301060E070E0AC
:104980008DEA90E00EC060E070E088EB95EE09C023
:1049900060E070E088E99EEF04C060E070E083E8CA
:1049A00093E1DF91CF910F910C94770D01E020E01E
:1049B00030E04CE355E262E275EC87E008C001E0CC
:1049C00020E030E049E055E266E178E988E00E94C5
:1049D000B8100FC01092AC0580E00E94B20F89E0C1
:1049E00090E19093CE038093CD031092CC0310926C
:1049F000CB03DF91CF910F9108950F9300E09C01BD
:104A000045EA54E261E378ED82E00E94B8100F912C
:104A10000895CF93DF93EB010E94AF0D209771F0C3
:104A2000BE0189E295E20E946517C130D10551F0BF
:104A3000229761F4DF91CF910C946F2EDF91CF918B
:104A40000C944B17DF91CF910C94E32EDF91CF9113
:104A500008950F93CF93DF93EC010E947E1701E03E
:104A60009E0149E055E266E178E988E00E94B810CD
:104A7000DF91CF910F9108958F929F92AF92BF9245
:104A8000CF92DF92EF92FF920F931F93CF93DF931A
:104A9000CDB7DEB7C85CD1090FB6F894DEBF0FBE44
:104AA000CDBF5B01CE0101966C0188ECF60111923D
:104AB0008A95E9F7672B29F40E94AF0D0E944B17E6
:104AC0004FC082E295EC0E94EE374C0108EC10E0FA
:104AD000960141E050E07501F1E0EF1AF108B701ED
:104AE0000E94321AC4010E945F3884E0E816F10483
:104AF00009F509E010E02DE030E040E050E064E02E
:104B000070E081E39BE40E949E180BE010E029E432
:104B100030E049E050E060E070E084E89CEE0E9404
:104B20009E180E94891768E873E180E090E00E9477
:104B3000481216C00E94AF0DB50181E199E00E94B4
:104B40006517C6010E948F1D0E9489178AE89DE1A2
:104B50009093CE038093CD031092CC031092CB039D
:104B6000C853DF4F0FB6F894DEBF0FBECDBFDF9145
:104B7000CF911F910F91FF90EF90DF90CF90BF905A
:104B8000AF909F908F900895CF93DF93CDB7DEB70E
:104B90002B970FB6F894DEBF0FBECDBF2BE0E8E435
:104BA000F1E0DE01119601900D922A95E1F7892B33
:104BB00059F46A30710544F4E1E0F0E0EC0FFD1FB8
:104BC000E60FF71F808101C08FEF2B960FB6F89488
:104BD000DEBF0FBECDBFDF91CF910895CF93DF939E
:104BE000CDB7DEB72B970FB6F894DEBF0FBECDBFA3
:104BF0002BE0E3E5F1E0DE01119601900D922A959C
:104C0000E1F7892B59F46A30710544F4E1E0F0E0F2
:104C1000EC0FFD1FE60FF71F808101C08FEF2B9671
:104C20000FB6F894DEBF0FBECDBFDF91CF910895D0
:104C30000F931F93CF93DF9300D000D000D0CDB758
:104C4000DEB7DC011E821D821C821B828AE68983FC
:104C50001A8255961C921E92549759961C921E9237
:104C6000589756968D919C915797892B69F150963C
:104C70008D919C915197892B39F152968D919C91F0
:104C80005397892B09F11696ED91FC911797309760
:104C9000D9F08D019E012D5F3F4FAE014B5F5F4FFD
:104CA000BE016F5F7F4F14968D919C91159709956A
:104CB000D80152968D919C9153976B817C810E9473
:104CC000453EF801718F608F26960FB6F894DEBFCF
:104CD0000FBECDBFDF91CF911F910F9108953F92ED
:104CE0004F925F926F927F928F929F92AF92BF92FC
:104CF000CF92DF92EF92FF920F931F93CF93DF93A8
:104D000000D000D01F92CDB7DEB7E0E2ED831C8269
:104D10001B821A8219822115310519F48FEF9FEF3A
:104D200093C029017A015B016C01A90160E070E088
:104D3000C7010E94933E370100E010E081E0481A6D
:104D4000510880E2382E0415150508F04AC0D60136
:104D50001296ED91FC91139721E030E0AE014B5F8C
:104D60005F4FB8016A0D7B1D8D919C91099501974C
:104D7000A9F68D81811101C03D828D81893009F4B0
:104D80003D828D81F30181933F014801FFEF8F1A2E
:104D90009F0A8A3029F1D60150962D913C91519766
:104DA000C4018A0D9B1D82179307D0F41696ED91CE
:104DB000FC9117979E012F5F3F4FAE014D5F5F4FF4
:104DC000B70114968D919C91159709952B813C8183
:104DD000F601848595858217930718F08401B3CF77
:104DE0008401F701E00FF11F10820115110551F147
:104DF000D8011197AE0DBF1D8C918A3011F41C9211
:104E00001FC08032C9F080E090E02291203229F06A
:104E1000019680179107C9F70FC08017910760F4BA
:104E2000A00EB11ED60150962D913C915197A2161D
:104E3000B30610F4081B190BF701E00FF11F1082E5
:104E4000C80102C080E090E00F900F900F900F908B
:104E50000F90DF91CF911F910F91FF90EF90DF9016
:104E6000CF90BF90AF909F908F907F906F905F900A
:104E70004F903F900895CF92DF92EF92FF920F9361
:104E80001F93CF93DF9300D000D000D0CDB7DEB713
:104E9000DC011E821D821C821B828AE689831A82A3
:104EA00053961C921E92529755961C921E9254979E
:104EB00057961C921E92569750968D919C915197A1
:104EC000892B09F466C01C968D919C911D97892BA6
:104ED00009F45FC01E968D919C911F97892B09F450
:104EE00058C012968D919C911397892B09F451C04B
:104EF0001696ED91FC911797309709F44AC08D01F1
:104F00009E012D5F3F4FAE014B5F5F4FBE016F5F54
:104F10007F4F14968D919C9115970995D8011E96F7
:104F20008D919C911F976B817C810E94453EF80179
:104F3000778B668B672B69F1E12CF12C6801FAE124
:104F4000CF0ED11CF80180899189E816F906F8F492
:104F5000D80158962D913C9159972F5F3F4FA6014C
:104F6000B701C8010E946F2697FF04C0F801158A97
:104F7000148A0FC0E80EF91ED80154968D919C91A9
:104F80005597019655969C938E935497DBCF138A31
:104F9000128A26960FB6F894DEBF0FBECDBFDF9102
:104FA000CF911F910F91FF90EF90DF90CF900895D8
:104FB000CF92DF92EF92FF920F931F93CF93DF93E5
:104FC000EC01EA81FB81309719F08881998109957C
:104FD000C884D984EA84FB840DA12CA140E050E070
:104FE00060E070E0CE010E941C248E859F85892B95
:104FF000B1F4CC80DD80EE80FF804C8D5D8D6A8DBC
:105000007B8D0F8D2E8DCE010E941C24DF91CF91C0
:105010001F910F91FF90EF90DF90CF90089500E0E7
:1050200010E08EA19FA1081719071CF7E12CF12CA5
:1050300088A599A5E816F9065CF4A701B801CE0188
:105040000E949B23811107C08FEFE81AF80AF0CF66
:105050000F5F1F4FE6CFEE85FF85A701B8018C8556
:105060009D850995F1CFCF93DF93EC01ECA1EE8FF5
:105070008DA18F8F2EA13FA137FF02C02F5F3F4F21
:1050800035952795F0E0E452FE4E449190E0880F6C
:10509000991F50E0082E02C0559547950A94E2F7F3
:1050A00040FF03C04DEF5FEF02C04EEF5FEF240FF4
:1050B000351F3B8F2A8FE491F0E0816002C0F595A7
:1050C000E7958A95E2F7E0FF03C08DEF9FEF02C0FE
:1050D0008EEF9FEF9D8F8C8F66E070E0CE010E9477
:1050E000DD348CA363E070E0CE010E94DD348DA33B
:1050F000DF91CF910895CF93DF93009709F461C0BA
:10510000EC01198E188E66E070E00E94DD348E8FFF
:1051100063E070E0CE010E94DD348F8F2EA13FA1AD
:1051200037FF02C02F5F3F4FA90155954795EE8D80
:10513000F0E0E452FE4E24919927880F991F30E049
:10514000082E02C0359527950A94E2F720FF03C088
:105150002DEF3FEF02C02EEF3FEF240F351F3B8FA7
:105160002A8FE491F0E0816002C0F595E7958A9579
:10517000E2F7E0FF03C08DEF9FEF02C08EEF9FEFDD
:105180009D8F8C8F66E070E0CE010E94DD348CA391
:1051900063E070E0CE010E94DD348DA38EA19FA15B
:1051A000059699A388A385E090E09BA38AA34AA5CE
:1051B0005BA560E070E0CE018C960E94933E81E09A
:1051C00001C080E0DF91CF9108952F923F924F92DE
:1051D0005F926F927F928F929F92AF92BF92CF9287
:1051E000DF92EF92FF920F931F93CF93DF9300D044
:1051F00000D0CDB7DEB75C014B016A01122F7B01F5
:105200001B0124E0220E311CCA0104969A83898373
:105210003701681879082E143F040CF445C0DC826D
:10522000CB824B805C804C185D0829813A818B8150
:105230009C8128173907A4F1F7FC12C0F50186A15B
:1052400097A1E816F90664F480A591A52B813C810D
:10525000281739072CF48B819C8197FF0BC01AC04B
:105260009201A301602F812F0E94C623882399F306
:1052700080E01BC09201A301602F812F0E94C623F2
:10528000882341F04B815C81B701C5010E949B23BB
:105290008111EECFEB81FC813196FC83EB83C1CF92
:1052A0009FEFE91AF90AB4CF81E00F900F900F90A9
:1052B0000F90DF91CF911F910F91FF90EF90DF90B2
:1052C000CF90BF90AF909F908F907F906F905F90A6
:1052D0004F903F902F9008952F923F924F925F9260
:1052E0006F927F928F929F92AF92BF92CF92DF92F6
:1052F000EF92FF920F931F93CF93DF9300D000D0D4
:1053000000D0CDB7DEB79E838D83DC0198960D90DB
:10531000BC91A02DBA83A983C12CD12CE12CF12CF6
:1053200044244394512C69817A81C616D7060CF027
:1053300076C0AD81BE819696AD90BC90979700E007
:1053400010E00A151B0564F4A601B8018D819E8149
:105350000E949B23813009F05EC00F5F1F4FF1CF89
:105360000A151B0509F057C00C9D10010D9D300C4E
:105370001C9D300C1124C601612C712C18161906C5
:105380000CF046C09301220D331D812C912CFC01A1
:1053900031975F0180169106BCF5A501B4018D819E
:1053A0009E812B833C830E949B232B813C81A40103
:1053B000420F531FFA0193E0F595E7959A95E1F7AF
:1053C000AD81BE819A966D917C919B97E617F70708
:1053D000B8F4EA0FFB1F47705527811109C0C201BD
:1053E00001C0880F4A95EAF7809594A5892307C0E4
:1053F000C20101C0880F4A95EAF794A5892B84A7BA
:10540000BFEF8B1A9B0AC6CFC501601A710AB6CFCF
:10541000FFEFEF1AFF0A4FEFC41AD40A84CFB2E0AD
:10542000EB16F104D1F058F4EA94EF2851F5AD8170
:10543000BE8158968D919C91599701961BC043E06F
:10544000E416F10481F054E0E516F104D1F4ED81A5
:10545000FE81808D918D409612C0ED81FE81808D00
:10546000918D04960CC0AD81BE8158968D919C9112
:105470005997089659969C938E93589702C0918F8E
:10548000808F26960FB6F894DEBF0FBECDBFDF919A
:10549000CF911F910F91FF90EF90DF90CF90BF9031
:1054A000AF909F908F907F906F905F904F903F90C4
:1054B0002F900895FC0166A177A120E030E0261727
:1054C0003707BCF4F90143E0F595E7954A95E1F714
:1054D000E80FF91F44A550E0F901E770FF2702C06B
:1054E00055954795EA95E2F740FD05C02F5F3F4F80
:1054F000E6CF80E0089581E008952F923F924F9289
:105500005F926F927F928F929F92AF92BF92CF9253
:10551000DF92EF92FF920F931F93CF93DF9300D010
:1055200000D0CDB7DEB76C015B017A01922F702FEE
:105530002501150124E0220E311C4A0134E0830EBE
:10554000911C66246394712C82010A191B0924148E
:1055500035040CF44BC0FC82EB822B813C812E196C
:105560003F09EB81FC818E169F06E4F1A801672FAD
:10557000892F7A8399830E94C6237A81998188230F
:1055800059F1D60196964D915C919797EB81FC81EC
:10559000E49F9001E59F300DF49F300D1124240D00
:1055A000351DF90183E0F595E7958A95E1F79A961F
:1055B0004D915C919B97E417F50770F4EC0DFD1D80
:1055C00027703327A30102C0440F551F2A95E2F725
:1055D0009A0184A5282B24A7AB81BC811196BC839A
:1055E000AB83BBCFFFEF4F1A5F0AAECF0F900F9088
:1055F0000F900F90DF91CF911F910F91FF90EF903F
:10560000DF90CF90BF90AF909F908F907F906F90E2
:105610005F904F903F902F900895CF93DF93009726
:1056200011F1DC015296ED91FC9153973097D9F02E
:10563000EC01488D598D4150510960E070E0888936
:10564000998909959DA38CA34A8D5B8D4150510981
:10565000EA89FB8960E070E08889998909959FA3B0
:105660008EA381E001C080E0DF91CF910895FC011D
:1056700080A991A93097A1F026A537A544A555A5E5
:105680002417350720F0C901841B950B0895880F56
:10569000991F880F991F841B950B820F931F0895E4
:1056A00080E090E0089597FD12C0892B19F477FFF0
:1056B00006C00AC0672B59F482E090E00895672B7A
:1056C00031F083E090E0089581E090E0089580E07B
:1056D00090E00895CF92DF92EF92FF920F931F9385
:1056E000CF93DF93182F7B01EA0160E070E0C701E0
:1056F0000E94933E83EB92E10E94EE376C01612F92
:1057000070E08E01970140E050E00E94321ACE0D09
:10571000DF1D21971882C6010E945F38C701DF9103
:10572000CF911F910F91FF90EF90DF90CF90089550
:10573000CF92DF92EF92FF920F931F93CB01BA01AA
:10574000A901C12CD12C760101E010E020E030E06D
:105750000E94E2361F910F91FF90EF90DF90CF9063
:1057600008954115510571F0FB0101900020E9F702
:105770003197E61BF70BEE0FFF1FEE0FFF1FDA014D
:10578000ED93FC932115310529F086E090E0F901B5
:105790009183808308958F929F92AF92BF92CF9210
:1057A000DF92EF92FF920F931F93CF93DF935C01F1
:1057B0006B018A01790120918C0130918D01E216F3
:1057C000F30620F0E0909001F0909101C216D3060C
:1057D000C0F5C7018C0D9D1D2817390718F47901F4
:1057E000EC18FD08E114F10479F160918E017091DB
:1057F0008F016C0D7D1D40E050E0C5010E94993580
:10580000E80100E010E08AE0982E9DE2892E41E058
:1058100050E0BE01C5010E941C35019781F48881CA
:105820008C3239F48AE0C816D10410F4888201C0A1
:1058300098820F5F1F4F21960E151F0541F7C80173
:1058400005C08FEF9FEF02C080E090E0DF91CF9125
:105850001F910F91FF90EF90DF90CF90BF90AF908E
:105860009F908F900895CF93DF93E0919001F091F6
:105870009101E901E217F30708F4EF016E177F07C2
:10588000B8F4CE01860F971FE817F90718F4EF0157
:10589000C61BD70B209779F0CA0120919201309155
:1058A0009301620F731FAE010E94783ECE0105C0C6
:1058B0008FEF9FEF02C080E090E0DF91CF910895DD
:1058C000CB01880F991F860F971FBA01660F771FAC
:1058D000460F571FBA016E5F7F4F23E030E043E071
:1058E00050E002960C945A3795E0969FF001979FEE
:1058F000F00D11244F5F5F4F949FB001959F700D85
:10590000112425E030E045E050E0CF018C960C9466
:105910005A37EF92FF920F931F93CB01880F991F75
:10592000860F971FBA01660F771F460F571FBA01E0
:105930006E5F7F4FE12CF12C8701E39423E030E090
:1059400043E050E002960E949C361F910F91FF9019
:10595000EF9008950F931F93CF93DF930E94B11997
:10596000C091C103D091C203209709F440C0CE0179
:105970000E945A2A8130D9F10F8D10E04C8D5D8D37
:105980004F5F5F4F6A8D7B8D2E8DCE010E94E52883
:105990004C8D5D8D813029F44F5F5F4F5D8F4C8F53
:1059A00023C06A8D7B8D0F8D2E8DCE010E947D2AA6
:1059B000CE010E946C29CE010E945A2A813089F4BE
:1059C000CE010E94D827088D198DCE010E947B2818
:1059D000EE89FF89309759F0B8018C899D89099526
:1059E00006C0CE010E943328CE010E94D8278091A4
:1059F0001C0190911D01019631F0DF91CF911F9113
:105A00000F910C948917DF91CF911F910F910895F9
:105A100080911C0190911D010E94C2378FEF9FEF72
:105A200090931D0180931C014091BF035091C003CE
:105A300060E070E08091C1039091C2030C94933EAA
:105A4000CF93DF93EB010E94082D60E070E081EEC0
:105A50009EE20E946517BE018AEADF91CF910C9405
:105A60008B1F0F931F93CF93DF93611134C042308C
:105A700041F40E94082DDF91CF911F910F910C945A
:105A80004B17413009F0BBC0C091C103D091C20394
:105A90002097D9F0CE010E945A2A8130B1F00F8DA3
:105AA00010E04C8D5D8D6A8D7B8D615071092E8D5E
:105AB000CE010E94E528813041F48A8D9B8D0197AB
:105AC0009B8F8A8FCE010E94D827DF91CF911F91A3
:105AD0000F910C948917623001F5413009F08FC0A5
