:100000000C94EA080C9407090C9407090C9407094E
:100010000C9407090C9407090C9407090C94070920
:100020000C9407090C9407090C9407090C94070910
:100030000C9407090C9407090C9407090C94070900
:100040000C9480120C9407090C9407090C9407096E
:100050000C9407090C9407090C9407090C940709E0
:100060000C9407090C9407099F24A424A924AE2406
:10007000B324BC24C524D024637C777BF26B6FC58A
:100080003001672BFED7AB76CA82C97DFA5947F09B
:10009000ADD4A2AF9CA472C0B7FD9326363FF7CC77
:1000A00034A5E5F171D8311504C723C31896059A14
:1000B000071280E2EB27B27509832C1A1B6E5AA037
:1000C000523BD6B329E32F8453D100ED20FCB15B22
:1000D0006ACBBE394A4C58CFD0EFAAFB434D33858B
:1000E00045F9027F503C9FA851A3408F929D38F55F
:1000F000BCB6DA2110FFF3D2CD0C13EC5F97441796
:10010000C4A77E3D645D197360814FDC222A90880C
:1001100046EEB814DE5E0BDBE0323A0A4906245C98
:10012000C2D3AC629195E479E7C8376D8DD54EA9FD
:100130006C56F4EA657AAE08BA78252E1CA6B4C6C9
:10014000E8DD741F4BBD8B8A703EB5664803F60E22
:10015000613557B986C11D9EE1F8981169D98E9411
:100160009B1E87E9CE5528DF8CA1890DBFE642682A
:1001700041992D0FB054BB16000000002400270049
:100180002A0000000000250028002B0004040404BD
:100190000404040402020202020203030303030331
:1001A000010204081020408001020408102001020E
:1001B00004081020000000080002010000030407EA
:1001C0000000000000000000554E7C076C1C548F9E
:1001D0007CF7563D437E85DA6D5CB082FF40024677
:1001E000637962656172737B793075725F643376AF
:1001F0003163335F31735F756E3772757337336494
:100200007D008569D8A6D021A08E910E5B30FEBB03
:10021000EA38308B8ECC2785EA74C78FD2ACBF2DDD
:100220003FCA9B15AC0A8B9CA5C8A3C3387213C8E0
:100230003DD631E3734A7AD44F55FED639BAC0D889
:10024000DC5AC48B16422EE16708D5DB839F937E70
:10025000CCB3D5D01AED608157423CC7EA939D02DA
:10026000202853EC60F6E7944813D69680CF713E71
:10027000F3C50B0F07EA5E89F202FE93BB85D7BD7B
:10028000701E30030FD3A0F01FAFDEABF17EA4B61B
:10029000D58405CA8D8976FFB8AC5F5AE067169998
:1002A0009C4B65FB400F304416C5C5887E94711386
:1002B0005225CB4B667B00BAC2E2C6EFA6D095169C
:1002C000E60CBDF24B46D1EDF25C31BD61D204D0FB
:1002D0006AE1EBF31E51585FAAAA0CFC902AAA7996
:1002E0003CAC8EB34339DB3965DB629C69DCA049E9
:1002F000218BAB8FC29179BA1A37569BE98979075E
:100300002D4C9380157BEB55659DD9AE15C08F2C78
:1003100045AAEAC659402B60B2CB744690CAB0C217
:100320005C623C5480266F158DA64C823794B7D8FA
:100330000E0450F2B00F814ECCE3F36D3B5198C4E4
:100340008E5D2A90969C77C7BACE33B39EE19EC04D
:100350001C0837E1F0398589AD0C78AFF8B0968983
:10036000950BE2CE4ABA170810B6BCB651CDC845B7
:100370001FBD32BA26721EB3D34B22B122AFA34E99
:10038000FC830AFA78574CD187ED2C683AE9E65F8E
:10039000A5D0A313DC18EF6F5D5CCC98F00F7D2D1A
:1003A000FCF675757D9024192CDC521AB07FADC710
:1003B000E7CE00D3D49CF26A853D2733C140F78D48
:1003C00082BEAADAC773A6BCE8C44F8BD3C996B65F
:1003D0003564E5FEF7CAF3DAE6B5A5F7F9B2333CC2
:1003E000ACBD9B1A49370B9D633D74198896CA4270
:1003F0008702893AA2880F5E76188F2587A59C9F71
:1004000083DA55295C362773EDFCA38941B50916BB
:100410001177726C377C34D0E957E692A0709CD685
:100420002046C6DCEDB945004E21E0E4295EA83740
:10043000A5A18AFCA3565478A9CF13C20BEF1B20A9
:10044000539A64BA28683BED0F3947C4D9E7936DD6
:10045000942AD506C65E6B762FA6B286D685C54889
:10046000D10B30AA9F44A56123695730960E367A86
:10047000DDF2FD570633970C72CB0287710EC381F4
:100480000BDCCA4A932628A9E765EA485BABAE3283
:10049000AA205F65279FFC2D0F7AF39F40D97F6AC2
:1004A00083B35988085C4E20BCD8FD72957684567B
:1004B0003C6CD6FBF1810FD1EA621BA394ABE6AB97
:1004C0006A1DE4BCC14640C0EDFC9CCFDF90CE7CF1
:1004D000535AFE050DE7C9D923931DF2958FFDD719
:1004E0000439AF604FC3303ADB76F0906D29272690
:1004F000B8EF5A6B1D4C550FD62327B25BE7B4FA01
:100500003C3CCB55FCC99EA8B586C2AC5ED7DFF09B
:10051000124D75D3E1584014434FF7AC9BE1B5C978
:10052000C12352DC68C6E6FE6D7329438EF6E38F65
:100530004B0EA4EE01B5E8B0B5C212F26E3A469980
:10054000CC6F23D497979B76CBBBA1B1534785D96A
:10055000591D4A8D623D3E7482856BC3BACF2AA76E
:100560000AD4145836F635B5610D89BC7544ED9141
:1005700094146C9DB9C77B1E52AEC8E088AA70AFB8
:10058000CD3D4A0B95B5A62334488B96103D8298F5
:10059000E9A0281CEDD0D8F05A983E7B4097E31F85
:1005A0002366A7C6AD71244AEAE11EE5A50D7E7556
:1005B00072D337670BB4D3BA055F57F60BACA0A75D
:1005C000485DF81D95AFC2D4CB0AC70A2270B0832C
:1005D000B435041A86D2BE713764B2B30B0F03EE82
:1005E0005C276B9A79C72F91E78D4FE85A89EA0704
:1005F000FA30CB720F9E0F0F4ED350E8905F1DB5AF
:10060000A095DE1A22D086F98C050D2DD191728924
:10061000AAEEA08F44C5C0C4C26A249361DD34D65B
:100620004A1EB57E3F93C65078F3F71AA72A5B5649
:10063000D4FA67553359932B79E552E8DE1587B71D
:10064000CACAC04792891743B0DBA9F656DE1D9986
:100650009082AD6858286D7E6D03190C1D457C2F66
:10066000349148FE41E687D1669DBEA145E80EC99A
:10067000572161F9A3A7D6B2F583EB85633FB75B3A
:1006800000ED24E021DDF149707B44F46601F714AC
:10069000ABBB3C90F7C87501F1F370B0A0281E7F8A
:1006A00004A45A7C93E87E962A061CCBC0E34393AD
:1006B000719A4C1AD94B6A3EA1890CD6392B5A93A0
:1006C0006F7B1F018FC9BEEB69EC0AD7E690F0DFA4
:1006D00011B53A3C7F146F5F75C3D5C653CF090976
:1006E0005E2D5DA85F45CACE65E8140052B5ED8564
:1006F0001A440F7CE964E43AC39ED3CCDE87F5B09C
:10070000AFE0FB15C9F6EEE6210F1736642F23DEA6
:1007100083ED8619EB1E1DD60871C4995ABE86D387
:10072000BC33E352116B40D38DED9795AE88C56114
:100730006DA426046AE36229CC4340EDED530160C9
:100740007520F223D0B21F59B606033FD2B11F0065
:1007500005B022CD885CC9278FF366951BA7D7D932
:100760005B7A6BB76D063CB42A3AFD47A1AA5E0ED0
:100770006D2214485947D885E5AC86316BEF925607
:100780005EB39D82F907A12EAE2C761CD295C37064
:100790001BA1BAB1511568E2B12F5C42CEC6E3DDB0
:1007A00022E93B433B86F7EDCC1D4108797367AAEC
:1007B000C1A47F350885BB101001F8A14666A225AB
:1007C000461CE0B4D8141F5A8BDA6E6A3B9A3D5827
:1007D00020D159646CA9B6D01F1809CEBA4C6961F2
:1007E000883F7304F235585AC696F1772474F9F0AD
:1007F000481549A3136A1CE163481DCE94FC775E3B
:100800001DF40EB5A59F56E998E80181BFCA0C7B7F
:100810000DDF85C40255ADB5BD54E9DFBF4F92BEB3
:10082000BC3F552EF4ECF72821D9BEA570CDB5D428
:1008300016B796F0355E3FF2BCAB32279F9F9034DF
:1008400093ECA849D1F3EA62244F9E86894547FF7D
:10085000F1BE00BCC3D303EA82D865395CF5EE8EE5
:100860005450D59B9D1487E0CC2D98EEC257086359
:10087000E4AE8472618292A00DBDD2D345E0D196E0
:100880001B74A26D3513A28E2E7365B0441E689D35
:1008900007511CA4FE9C437E769D9D3C21377E1D06
:1008A0005B2FEB6B1705DC9DF6327978A5ED3209ED
:1008B00014F25B235FE80D040F86D4BC702306E6B8
:1008C000EE5F247F9C6D097F870D2C63F3E6ED0CB2
:1008D0005611DDCF662726C6055E33CC547A7AA939
:1008E000B6C664433DECE75A5516F5453A24FB7607
:1008F000544BD6D0D0227B31FDF34E594AA67430EA
:1009000044BECAE5A83A295E92DC895E01B7F4903C
:100910004FE88DF063D8F0E4732313D0D79A4E4D8F
:10092000FBFE9E7F8C9ECC2BAF96C3124D61FCBE0E
:10093000EB3E2EC0CBCC42CFBAD12CAA9A99065B03
:1009400074F4D483005BF0FDF800A3DAAE43DEF06C
:10095000F53B265282DAC44749E4E0EF0AF9D2B205
:1009600055CAC7C3420D7CA8E2A42653DACBFB5478
:10097000DDA3C03EBDC6D20D462CE6ACFF787B8021
:10098000E9CFC16A106EDF3E223CB0EDC078047B37
:1009900085C9123128D673495B80033E22C5ACC697
:1009A000004A25A2A55E4148AF146153BC7D3C03BB
:1009B00095CCBC602060B7AB0E0D00AA722640A794
:1009C000170879FCB3DD404917C9D5796C71D30E8E
:1009D0005637C24A6838C8B1CE015C1BD9BB3C3B14
:1009E0003BDD576D05B42F0B1C8699EE624629E15D
:1009F000E7562E1FFB403D0FE0211E089FCFE63437
:100A000033041709B6A5B553F09EF152A3BAA42C2E
:100A10007D0CC0898E331BAAE28B4AF684FE1295A8
:100A2000A4B17E1272B6F0E52961CAC7C42DDEBC3E
:100A3000881E9DA4AD491B71B297FC2F3189838B11
:100A400063DA9C816AF6DEAE452340CDFF944542D1
:100A5000F1E8A32EBFDAB75DA6B0A93C6E41959030
:100A6000DD073E85C6D17BA3F58860B3F8CF4A0188
:100A700065A7B197756BCCC7C0279BF1996FE889C3
:100A8000E74EE0874A1B14AB89373876CD66504570
:100A90009001303FB4B2AD541452889A3F367C82F4
:100AA000550B45A8783C1A8BADFE367C2FB9AB5060
:100AB0004E4AB3033E54E30D10198DD3DA2B673D34
:100AC000ECA57C3928CA76093CD11E5F68F1ACD50B
:100AD000130E30D2CC6168638B32047E816C697DE9
:100AE000E3B0ED65773BE3AF64445EAE0B7F4AC68F
:100AF000714F5E85A1F83E7F2FFB981D1414FF0FE8
:100B00006F594EC1E5F8206940F781DC4807AFBC5A
:100B1000A254B29EF50D82ADFD2C7F53CC9BC20C2E
:100B20001BA3D49D7EC7BECA38F1B1830C5E2FE7EC
:100B3000EFD720348DEDDE3C87FBC22FECDACD5DA4
:100B40000F25898CB64057B4A3B818A7D9B252BDA7
:100B5000ACBE3760489A99D40607B9BDE405F2E700
:100B6000A64DFED4D0172B66A5EEAC2B50DBCAC623
:100B700024F58FC233B990DF4F5A2BE7AAFB7F7A57
:100B800083FC3ADE6310639B5C272CFDCF80514CC5
:100B90000CE7C37A777CC67A462CD3597E60A9F1DC
:100BA000D8702468AEA6011459B90A0248B1225E71
:100BB00016DBD8B53633249DBD0F0004FB5C215CE9
:100BC000FA655C6BF5A9C70F4057DECB7E3F7AAE66
:100BD000245C34CF12272DB1E689510A5A888F2020
:100BE0004761A1083E2DF06856268DD8BA7F3D3C5E
:100BF000E1A9101517F1436811A0405F54CE969DEE
:100C00006B2E8A525DB3BDF604B5CEB74490B5EAFB
:100C1000095D329580CC5617A8B7E758F180FE12CF
:100C2000C4A584020D69D0B6F9232B94979A788FC6
:100C3000BBD16BBC8F8C081414D28ADA107DAF8CB8
:100C40008F2C90D8A94ADAFEE3336F03AFCE9943D5
:100C500004D5E5FC08BCC1D51C9DB6A63B3B5BD5C5
:100C60008EDE383F86D6D67AADF4B632F1D1C319CE
:100C70001B6DB1B084646AD1D0CD6B94E0D157E2E2
:100C8000C4C0B1F39C4E0B52C8A73C2F30D577514E
:100C9000439B06212AB3F0965C7C19CACA7E7D2349
:100CA000C0316D19E368451E9F8A837D2A6FA6BEF9
:100CB0005F1A01E6100E4CBD290D1A8E81F1797C68
:100CC00058B4C964796E9E26546DF6417F20F4A90C
:100CD000D7185E0F90D66B216F8D3D4D24C9486E9D
:100CE00035FF89EE667121F5FA53555AB5087E0431
:100CF000F035574EC786FB7D5633EEF2485A50C446
:100D00004D31B04BCDA7A27D36579DDDCA044A9028
:100D1000AFBE40FBE4A855DEF7AC21344285CC9849
:100D20000C18DDA2943DE4BCCD2EE8DDA8115922BB
:100D3000E6A2E9343D8C94CA44C0B0DC2FAE85995C
:100D40001F4D0AB2CADE6046B7DBF814ADCEB65905
:100D5000C0BBDF60275C93C08F5A5CA4D8ED19BA82
:100D6000C9F549FADBC9530C6DADEDAB696FB78BB3
:100D70008B6DC7FD9524BD9B8C16097EF2EDA57188
:100D800070C1232D916A1D7D93183062B8FF9C536A
:100D9000065195D7242E26CA616121D8517A27A4FD
:100DA000B3C63E7427B1A3582119F65B3A44F760E5
:100DB000425EC4F4BD743A6BA7A91B1806FC572EFB
:100DC0005AE4757329D6E5E30B480DD3805B7C6448
:100DD000983F5F3ADB406172A282DD125700D7C3B1
:100DE000234857A0096C1AF77D5D03FA9EE82E6A26
:100DF0002CE890131C18F2076751B7391E00D891E0
:100E0000B81993D40102DFE5E304BA85ED5CC3E3CE
:100E1000F56B61169AA1CB020EA5A9E64AF684F2FB
:100E200045969189035027F5BEB72B369F96873E8E
:100E3000DFA3DF2FACC78D145971D9B4EE3824CCA1
:100E4000A78101B6CDBA5AD198B92678109FC0D1E2
:100E50001A1FB2B5FD0DFAEAB043D1E4FF687D7404
:100E60009FCCB56E67DCC9B063DFA7D361FC9497F4
:100E700008542AE5F2AE3A4CC6D7D2389CE68F2603
:100E8000CAC22CBDF7C9700544919B265E658F359B
:100E900042358A066A69F0AECF031844D4A22028EE
:100EA00033D8023C44B92C1C1EDFDBA56D7C25FE2B
:100EB000FD745554B1013852E17C5641DECABB3550
:100EC0001D6EC6CC76374C99365031DA5F6F2BFCED
:100ED000AC95541642C1DB706702D9611561D74ADF
:100EE00026278ED0B8376879D0E5504E15B11D3120
:100EF0002CF5694E5CD5D5DC277A3CEEE24F0469CF
:100F0000A80B95E559B8BCAD3D65090CEB8A5E5D53
:100F1000EFEBAE4FBCDEAF54DCF3B2203726D992F4
:100F2000C01C6A97938837CEB4D93CF3978E1E4382
:100F300037EEB2BE7C15908A8877C0E5F72FA18680
:100F40009900284E91CB975D0CB0BCC410AADBAEC3
:100F500015F7F1E86D3734C08DD70A43E6A3B254D4
:100F6000EF939A77B4F5CE550068ECDFB57B6DCF83
:100F7000D2DF33DFEB9A3FAF849C5C1D64BA97FFEE
:100F800026266125309C35433CCC02306D97E2909B
:100F90000A3A4FD3BB2D2E3ED77A0833B80E3D24E4
:100FA000EADC834A103F8CAE1A1604BA7132F6D6C8
:100FB000012B37AAF29D3007459A802D640CFB4B1C
:100FC000320F94147867E0ADCD4D480985D2726C2C
:100FD0006594374C2BDC033333E6B5D20D4E05DC7C
:100FE000D66B5550A2157903F6335F4DD3C5EF2765
:100FF0006B3AEAB54B5346AA4B7F4F884E6067E089
:10100000BEB595D38156648DBDAD49AB92E4019ECA
:10101000B9A164790BBD80CB1812AAA6A04CBE80E2
:10102000FA00D0968819023BA2A4FD6B34888D810A
:1010300069C8A8B11AAA889B06433EF8D1C73739B8
:1010400084989535A1D2AB4DB6B9A02D7B11D88F20
:10105000F40719B0B0AF6DFD89EE1691BAB3026D09
:101060000CCBB1E2353B81BBDA2D88F08162E5C261
:10107000C10A107789A1F12528DBA68C6AC9B1D4F1
:101080000385227BF8B2C011000000002300260077
:10109000290000004908B400BEF67B7AA59455B833
:1010A00048002944442A15A00B42005003020008BE
:1010B000259076BA595CC59EC53892E6F33A73BA64
:1010C000E59077BA773A084008502A441CE08852E5
:1010D000E508568E77B677B8728CD6BA739E73923F
:1010E00072AEB7B6E95C64AAB7B4929CBEB6D6B687
:1010F00056AAD79276EE77B47138E948B6AEB6AA5A
:10110000B6F6B5B4B548E59C694C9124642E5400FC
:10111000001C44000EAE9ABA0E8C2EAE0ECE56D0E7
:10112000553B93B44144415197B4494417B61AB65C
:101130000AAAD6D3766717900F389A8C16AE16BACD
:1011400016F615B4B52B1C5E6B4C4948C95A5400B1
:1011500056E28D01020408102040801B3600001862
:10116000140000181400001814000018140000598E
:101170000000040804000019000404080400040826
:1011800014000019010005080400101900000408EB
:1011900005000119000014080400001910001018BF
:1011A00004000009140004090100051800000418D7
:1011B00010000018050001090400140900000418BB
:1011C00004000019040004090400041900AA882A74
:1011D000A22A2A2A11241FBECFEFD8E0DEBFCDBF3E
:1011E00011E0A0E0B1E0ECE2FDE702C005900D9255
:1011F000A838B107D9F726E0A8E8B1E001C01D92F0
:10120000A936B207E1F70E940D3B0C94943E0C9472
:1012100000000F93CF93DF93EC010E94701701E061
:101220009E0142E255E262E275EC87E00E94AA105C
:10123000DF91CF910F9108957F928F929F92AF92FD
:10124000BF92CF92DF92EF92FF920F931F93CF93B3
:10125000DF935B01EA014901702ECC24C3940C1585
:1012600011F0C12C0FC0E12CF12C8701E39429E08F
:1012700030E048E350E0BE01675F7F4FC5010E9646
:101280000E948236D12CE12CF12C01E010E020E00C
:1012900030E081E0781203C000E010E09801BE0168
:1012A000655F7F4FA401C50140960E94C836DF915B
:1012B000CF911F910F91FF90EF90DF90CF90BF9053
:1012C000AF909F908F907F9008950F931F93DC01B4
:1012D000FA01A7FF0BC06115710529F48EE2808326
:1012E0008183128209C0615071098F7789019F0142
:1012F00040E050E00E94181A1F910F910895411587
:10130000510579F0FB0101900020E9F73197E61BC8
:10131000F70BEE0FFF1FEE0FFF1F3496DA01ED9370
:10132000FC932115310529F089E090E0F9019183C2
:10133000808308950F931F93CF93DF9310928D01B5
:1013400010928C0110928F0110928E01C091BB01FE
:10135000D091BC010091BD011091BE01CB31D105EE
:1013600050F0AE0160E070E0C8010E94793E6B97DA
:10137000F801D18FC08F8091BD019091BE0100977F
:1013800059F022E530E0FC013587248720E330E086
:10139000378726870E9421278091BD019091BE0149
:1013A000009749F027E93BE2FC0137832683158249
:1013B00014820E9421278091BD019091BE01009767
:1013C00049F02EE73BE2FC01338722871186108625
:1013D0000E94212789E29DE09093CA038093C9036C
:1013E0001092C8031092C703DF91CF911F910F9104
:1013F00008952F923F924F925F926F927F928F92B9
:101400009F92AF92BF92CF92DF92EF92FF920F9393
:101410001F93CF93DF9300D000D01F92CDB7DEB7DC
:1014200019821A821B821C820E949B194091C3035D
:101430005091C4034E5F5F4FC12CD12C760101E067
:1014400010E020E030E061E070E082E190E00E9496
:10145000C83652E0452E512C912C80E3890D8D83A6
:1014600089E0682E712C812CE091C303F091C403B4
:1014700091100EC08CE389839DE29A839B838081C7
:1014800049E0242E312CA12CB12C882371F127C0E6
:1014900084E0981210C095E499838EE48A8394E5E1
:1014A0009B83808129E0222E312C35E4A32EB12CA0
:1014B0008430A9F41AC080E289839D819A3339F07F
:1014C000892F9B3331F09C3329F483E203C08AE2F5
:1014D00001C080E38A8380E28B8313015201808103
:1014E000981212C0818188120FC0E12CF12C870163
:1014F000E39429E030E04FE050E0B101C5010E94E3
:10150000823611E000E00AC029E030E04FE050E010
:10151000B101C5010E94403710E001E01C8240E0AB
:10152000B101C5010E94901775019EE0E90EF11C02
:1015300040E0B101C7010E949017610188E0C80E28
:10154000D11C40E0B601C5010E94901740E0B601F1
:10155000C7010E949017C12ED12CE12CF12C10E074
:1015600020E030E0B1016E5F7F4FAE014F5F5F4F13
:10157000C50102960E94C83683949D819D5F9D831C
:10158000C3010A963C0194E089126ECF939480E1E6
:10159000480E511C95E0991260CF0F900F900F905C
:1015A0000F900F90DF91CF911F910F91FF90EF90CF
:1015B000DF90CF90BF90AF909F908F907F906F9073
:1015C0005F904F903F902F9008958F929F92AF928F
:1015D000BF92CF92DF92EF92FF920F931F93CF9320
:1015E000DF9300D000D000D0CDB7DEB70E949B19AA
:1015F0000091BD011091BE011E821D821C821B82C2
:101600008AE689831A820115110541F4E091BD0132
:10161000F091BE01309709F066C08BC0D8011A96D0
:101620008D919C911B97892B89F31696ED91FC91D6
:101630001797309759F312968D919C911397892B98
:1016400029F39E012D5F3F4FAE014B5F5F4FBE01FF
:101650006F5F7F4F14968D919C9115970995A12CE2
:10166000B12CE12CF12CC12CD12C4801BAE18B0E0C
:10167000911CF80180899189E816F90638F6F8017D
:10168000208D318D2F5F3F4FA401B701C8010E940B
:10169000552697FDBBCFE80EF91ED80152962D9125
:1016A0003C915397C216D306D0F056968D919C91DB
:1016B0005797820F931FC816D90688F41A96ED9192
:1016C000FC911B979401A50160E070E018968D9144
:1016D0009C91199709958B819C81A80EB91EBFEF2B
:1016E000CB1ADB0AC6CFE288F388048915894689BC
:1016F000578940175107E8F430E3349FC001359F04
:10170000900D1124B8010E942B3EFB013E9DC001AB
:101710003F9D900D1124B8010E942B3EE12CF12C2D
:101720008701E3949F0142E050E082E590E00E944F
:10173000823626960FB6F894DEBF0FBECDBFDF917E
:10174000CF911F910F91FF90EF90DF90CF90BF90BE
:10175000AF909F908F900895EF92FF920F931F93F9
:10176000CF93DF938C01EB010E949A09BE01C8015F
:101770000E94733890938B0180938A01BE01C80147
:101780000E9473387C01BE016F5F7F4FC8010E94C9
:101790007338F7FC07C08E159F0524F09C012E19A5
:1017A0003F0902C020E030E0309389012093880196
:1017B000E091BD01F091BE01309759F0318B208B43
:1017C00081EB9BE29383828311830083CF010E948C
:1017D00021270E94E50ADF91CF911F910F91FF9081
:1017E000EF900C947B17AF92BF92DF92EF92FF9233
:1017F0000F931F93CF93DF93CDB7DEB768970FB6E4
:10180000F894DEBF0FBECDBF611106C0423009F0B3
:1018100000C10E943D170DC1413009F00AC161307D
:1018200079F0623009F005C1E091C303F091C4037F
:1018300080818F5F853010F48083D2C01082D0C049
:10184000A091C303B091C40311962C9111979C9160
:101850009923F9F2943099F0905D822F880F280F28
:10186000920F9A3309F4E3C09B3309F4BEC09C3352
:1018700009F4CDC0992369F2913009F0B7C08D0108
:101880000E5F1F4F84E1E0E9F1E0DF011D928A95D0
:10189000E9F7E12CF12CF701EF5DFE4F5F01D080FD
:1018A00044E150E0BE016F5F7F4F8D2D0E94502BB1
:1018B000BE016F5F7F4FC8010E948B3E892B09F0EC
:1018C0007DC060E070E089E390E10E94571744E139
:1018D00050E060E971E0D50111968C910E94502B87
:1018E000B9E0DB120DC080E390E30E94D4379093FF
:1018F00001018093000160E070E00E94AC0B99C090
:10190000EEE0DE120BC00E94CD1BAC0160E070E087
:1019100020E080E991E00E94D01A25C0FAE0DF12B1
:1019200022C01D8A1E8A1F8A188ECE0145960E94EB
:10193000E01C83E38093900195E390939101809361
:10194000920194E390939301809394019093950175
:101950004D895E896F89788D21E086E991E00E944A
:10196000D01A1092A0010E949A09E0E9F1E0F093E8
:101970008F01E0938E0101900020E9F73197E05943
:10198000F140F0938D01E0938C01A091BD01B091E5
:10199000BE01109781F05196FC93EE93509789E128
:1019A0009CE213969C938E93129711961C921E9212
:1019B000CD010E9421270E94E50A14C082E0E80EB2
:1019C000F11C9AE0E916F10409F065CFE091C30338
:1019D000F091C40332968DE0DF011D928A95E9F7FC
:1019E0000E94F9090E947B1724C090E39D012E5F9D
:1019F0003F4FF90101900020E9F73197E21BF30B0B
:101A0000EC30F10568F7EA0FFB1F9283E9CF93E210
:101A1000EDCF413071F4E091C303F091C4038181B3
:101A20008F5F843010F48183DBCF1182D9CF9AE2AB
:101A3000DDCF68960FB6F894DEBF0FBECDBFDF9145
:101A4000CF911F910F91FF90EF90DF90BF90AF90DB
:101A50000895611103C0423069F507C04130C1F5F6
:101A6000613019F0623019F008950C943D17E0913F
:101A7000BD01F091BE01309721F40E94E50A0C945B
:101A80007B172289338946895789848995898417E8
:101A9000950718F4138A128AF0CF2F5F3F4F841BEB
:101AA000950B2817390718F0938B828BE6CF338B71
:101AB000228BE3CF413061F4E091BD01F091BE0192
:101AC0003097D9F2828993890097B9F20197ECCFC8
:101AD0000895EF92FF920F93CF93DF93EC017B0178
:101AE000892B91F0809102019091030197FF0E9450
:101AF0004538D093A501C093A401CE010E94D437EC
:101B000090930301809302016091A4017091A5015B
:101B100001E0970146EC5DE086E00E94AA10DF91AB
:101B2000CF910F91FF90EF900895CF93DF93EC0149
:101B30000E947017BE0180E090E0DF91CF910C947D
:101B4000690D80911401909115010E94A8378FEFC3
:101B50009FEF90931501809314018091160190914D
:101B6000170197FF0E9445388FEF9FEF9093170161
:101B7000809316014091D9035091DA0360E070E040
:101B80008091D7039091D8030C94793ECF93DF9343
:101B9000EB01209731F40E94A10DDF91CF910C94BD
:101BA0003D170E94A10DBE0185E99DE00E945717D7
:101BB000BE01615071098091020190910301DF9192
:101BC000CF910C94AC0B4F925F926F927F928F9259
:101BD0009F92AF92BF92CF92DF92EF92FF920F93BC
:101BE0001F93CF93DF93CDB7DEB72E970FB6F89440
:101BF000DEBF0FBECDBF1E861D861C861B860E94C3
:101C00009B19E12CF12C8701E39425E030E043E5BA
:101C100050E065E070E080E090E00E94C9359E01F0
:101C2000235F3F4FAE01455F5F4F6BEC73E080E099
:101C300090E00E947F094B855C8584E590E0841BE1
:101C4000950B969587959E878D87E12CF12C8701C2
:101C500029E030E060E070E00E9482368D859E854C
:101C6000C12CD12C760101E010E020E030E04BECFB
:101C700053E062E070E002960E94C83680E00E9465
:101C80000C1981E00E940C19E090D703F090D80362
:101C90001A86198618861F828AE68D831E82E114B1
:101CA000F10441F4E091D703F091D803309709F0A3
:101CB000B8C0E7C0D70112968D919C911397892BDC
:101CC00089F31696ED91FC911797309759F31A9670
:101CD0008D919C911B97892B29F39E01295F3F4F82
:101CE000AE01475F5F4FBE016B5F7F4F14968D91D2
:101CF0009C9115970995F70184899589608D718D5F
:101D00000E942B3E3B014C01A12CB12C6701FCE150
:101D1000CF0ED11CF701808D918DA816B90610F653
:101D2000689E8001699E100D789E100D11240A0D89
:101D30001B1DD70156968D919C915797081719072F
:101D400008F0B0CF1C821B821A8219825A964D90DD
:101D50005C905B97A20160E070E0C6010E94793E52
:101D6000920121503109D7011296ED91FC91139700
:101D7000A601B8018D919C910995D7015A96ED91D4
:101D8000FC915B97EE0DFF1D138E1696ED91FC9165
:101D900017979E012D5F3F4FAE014F5F5F4FB6011A
:101DA00014968D919C911597099529813A81F70197
:101DB000808991898217930768F4F60101900020C9
:101DC000E9F73197EC19FD0929F0EE0DFF1D138E8F
:101DD000D701DBCFD7011A96ED91FC911B972F818C
:101DE000388518968D919C9119978A149B0449F413
:101DF000829EA001839E500D929E500D112401E001
:101E000008C0A29EA001A39E500DB29E500D1124A9
:101E100000E0960160E070E00995BFEFAB1ABB0AE5
:101E200079CF24893589A688B788808D918D8A15C8
:101E30009B0538F547E2429FC001439F900D112456
:101E4000B5010E942B3E6B01E12CF12C8701E3943C
:101E500020E330E048E450E069E070E088E490E09E
:101E60000E94C93587E290E0B5010E942B3E9B019C
:101E7000B601675F7F4F43E050E087E490E00E9447
:101E800082360E947B172E960FB6F894DEBF0FBEE7
:101E9000CDBFDF91CF911F910F91FF90EF90DF9019
:101EA000CF90BF90AF909F908F907F906F905F90FA
:101EB0004F9008950C94E30D611108C04230A9F5CC
:101EC00087FF41C00E94A10D0C943D174130D9F508
:101ED0006130B1F0623009F00895E091D703F091DC
:101EE000D803309711F40C94E30D848995890196F9
:101EF0002689378982179307B0F7958B848BF3CFA8
:101F0000A091D703B091D8031097E9F01E96ED91F8
:101F1000FC911F973097B9F054966D917C9155972D
:101F20001C968D919C911D970994413061F4E0912C
:101F3000D703F091D8033097B1F28489958900973F
:101F400091F20197DACF0895EF92FF920F931F93CA
:101F5000CF93DF931F92CDB7DEB789830E949B1981
:101F600089818130E9F048F08230E9F50DE22DE415
:101F700041E062E08CE797EF27C00BE010E029E03A
:101F800030E040E050E06EE270E081E79AE50E94C8
:101F9000881800E224E54BE060E08CE69CE114C088
:101FA000E12CF12C8701E39425E030E044E550E09A
:101FB0006CE270E080E090E00E9482360BE224E563
:101FC00041E060E083E49EE710E030E050E070E044
:101FD0000E9488180F90DF91CF911F910F91FF9071
:101FE000EF900C947B170F90DF91CF911F910F9181
:101FF000FF90EF900895611103C04230C1F411C009
:102000004130F9F4613069F0623069F48091A805DB
:102010008F5F833018F48093A80505C01092A8053F
:1020200002C00C943D178091A8050C94A40F413078
:1020300041F48091A805811102C082E0ECCF81506B
:10204000EACF0895E091C303F091C40383E2DF0176
:102050001D928A95E9F783EF9BE09093CA038093E2
:10206000C9031092C8031092C7030E94F9090C9487
:102070007B17809100019091010197FD08C00E949B
:1020800045388FEF9FEF90930101809300010C94EE
:102090002210CF93DF9390E0FC01E056FE4F249195
:1020A000FC01E457FE4F8491882361F190E0880F92
:1020B000991FFC01E858FE4FC591D491FC01EE57E1
:1020C000FE4FA591B491611109C09FB7F894888122
:1020D000209582238883EC912E230BC0623061F41B
:1020E0009FB7F8943881822F809583238883EC9161
:1020F0002E2B2C939FBF06C08FB7F894E8812E2B10
:1021000028838FBFDF91CF9108953FB7F8948091D6
:10211000E0039091E103A091E203B091E30326B5BF
:10212000A89B05C02F3F19F00196A11DB11D3FBF0F
:10213000BA2FA92F982F8827820F911DA11DB11D9D
:10214000BC01CD0142E0660F771F881F991F4A9599
:10215000D1F708952F923F924F925F926F927F92A4
:102160008F929F92AF92BF92CF92DF92EF92FF92A7
:102170000F93CF93DF931F92CDB7DEB7982E6B01ED
:102180002A011901E090D903F090DA03A090D70357
:10219000B090D8038DE1E816F10460F0A70160E08B
:1021A00070E0C5010E94793EECE1EE1AF108F501FC
:1021B000F38EE28E8091D7039091D803009759F067
:1021C00028E330E0FC01318B208B27E230E0338BB9
:1021D000228B0E94FE258091D7039091D80300970F
:1021E00049F02FE739E0FC013783268315821482FA
:1021F0000E94FE258091D7039091D803009749F063
:102200002CE139E0FC0133872287118610860E9479
:10221000FE254CE050E06BEC73E0892D0E94502BC2
:10222000C6010E94D4376C01909317018093160168
:102230004C01002311F0689487F8C6010E94F81938
:102240003C011982E12CF12CA12CB12CA614B7046D
:1022500019F1E114F10419F4EE24E394F12C21E0D6
:1022600030E0AE014F5F5F4FB501C6010E9410170D
:10227000019719F0E12CF12C0FC089818C3241F0CB
:102280008A3021F4FFEFEF1AFF0A02C0882321F001
:102290008FEFA81AB80ADACF002319F0EFEFEE1A81
:1022A000FE0AE091D703F091D803309759F0F78AEE
:1022B000E68A85E699E09383828391828082CF01CA
:1022C0000E94FE258091D7039091D803009739F0A2
:1022D000FC0157864686158614860E94FE2520E05E
:1022E00030E04AE55FE068EE73E080E090E00E9455
:1022F000A81990931501809314018CE59FE09093A9
:10230000CA038093C9039092C8038092C703E091E7
:10231000D703F091D803309711F0358A248A0E94B0
:10232000E30D0F90DF91CF910F91FF90EF90DF9031
:10233000CF90BF90AF909F908F907F906F905F9065
:102340004F903F902F900895CF92DF92EF92FF929F
:102350000F931F93CF93DF9300D000D0CDB7DEB79C
:102360006217730784079507FCF489019A016B01D2
:102370007C01A9019801261B370B480B590B69F00A
:1023800029833A834B835C830E949B3D29813A8158
:102390004B815C810E94C83D03C060E070E0CB01CE
:1023A0006C0D7D1D8E1D9F1D0F900F900F900F9037
:1023B000DF91CF911F910F91FF90EF90DF90CF9021
:1023C0000895833081F028F4813099F08230A1F0B3
:1023D00008958730A9F08830B9F08430D1F4809125
:1023E00080008F7D03C0809180008F778093800074
:1023F000089584B58F7702C084B58F7D84BD08951C
:102400008091B0008F7703C08091B0008F7D809362
:10241000B00008951F93CF93DF93282F30E0F90188
:10242000EC54FE4F8491F901E056FE4FD491F9012E
:10243000E457FE4FC491CC23C9F0162F81110E949E
:10244000E111EC2FF0E0EE0FFF1FEE57FE4FA591CC
:10245000B4918FB7F894111105C09C91ED2FE095C0
:10246000E92302C0EC91ED2BEC938FBFDF91CF916C
:102470001F9108958F929F92AF92BF92CF92DF9259
:10248000EF92FF926B017C010E9485104B015C0171
:10249000C114D104E104F104F1F00E948510DC01C3
:1024A000CB0188199909AA09BB09883E9340A10567
:1024B000B10570F321E0C21AD108E108F10888EEF5
:1024C000880E83E0981EA11CB11CC114D104E10444
:1024D000F10419F7DDCFFF90EF90DF90CF90BF9020
:1024E000AF909F908F9008952FB7F8946091DC0380
:1024F0007091DD038091DE039091DF032FBF08957B
:102500001F920F920FB60F9211242F933F938F9328
:102510009F93AF93BF938091DC039091DD03A091D3
:10252000DE03B091DF033091DB0323E0230F2D376F
:1025300020F40196A11DB11D05C026E8230F0296C7
:10254000A11DB11D2093DB038093DC039093DD0379
:10255000A093DE03B093DF038091E0039091E10349
:10256000A091E203B091E3030196A11DB11D8093F8
:10257000E0039093E103A093E203B093E303BF91E0
:10258000AF919F918F913F912F910F900FBE0F9020
:102590001F9018959C0184E0D90190E0EC91F0E047
:1025A000E858FF4FE491EC939F5F14969430B1F795
:1025B00081502F5F3F4F8111EFCF08950F931F93ED
:1025C000CF93DF939B0190E1899F80011124A0E0CC
:1025D000B0E0FD01E00FF11FE40FF51F60E070E0D7
:1025E000E901C60FD71F91918881982798836F5F63
:1025F0007F4F64307105A1F714962C5F3F4FA031D7
:10260000B10539F7DF91CF911F910F9108959C018A
:10261000CB010197889770F5CB01079661E170E0D7
:102620000E943F3E24303105E9F060F4660F771FC9
:102630002130310599F022303105E1F4FB01E95CEC
:10264000FE4F15C027303105B9F02830310591F41F
:10265000660F771FFB01E55DFE4F09C0FB01E35CE0
:10266000FE4F05C0660F771FFB01EF5CFE4F8081B8
:10267000918108950E94593E80E090E00895FC0108
:10268000A081B0E0FD017597ED39F10550F477FDBB
:1026900008C06A177B072CF457FD03C04A175B0775
:1026A00014F00E94593E4A9FF0014B9FF00D5A9F33
:1026B000F00D11246E0F7F1FAB014770552733E0DB
:1026C000759567953A95E1F76F5F7F4FFC01E60FCF
:1026D000F71F81E090E001C0880F4A95EAF72223B6
:1026E00019F09081892B03C0809590818923808384
:1026F00008954F925F926F927F928F929F92AF92C6
:10270000BF92CF92DF92EF92FF920F931F93CF93DE
:10271000DF936C015B014A0179012801C0E0D0E040
:10272000CE15DF05ACF400E010E03E016A0C7B1C26
:10273000081519055CF4B8016C0D7D1D21E0A3019D
:10274000C2010E943F130F5F1F4FF2CF2196E8CFC7
:10275000DF91CF911F910F91FF90EF90DF90CF907D
:10276000BF90AF909F908F907F906F905F904F90B1
:102770000895FC01208130E0F9017597ED39F105EC
:1027800050F477FD08C0621773072CF457FD03C09F
:102790004217530714F00E94593E429FF001439F95
:1027A000F00D529FF00D11246E0F7F1F9B0143E02F
:1027B000359527954A95E1F7FC01E20FF31F8181DA
:1027C00090E06770772702C0959587956A95E2F744
:1027D00081700895009711F40E94593EFC01808198
:1027E00090E09C01255131092D393105A8F7089554
:1027F0000F931F93CF93DF939C018B018130910541
:10280000A1F167E070E00E943F3EEB012296FB01E0
:1028100031962032310581F0C901880F991F8C0F44
:102820009D1F880F991F0196BF01660F771F0E9499
:102830003F3E660F771F02C06AE170E0CF01220FB2
:10284000331F220F331F265F3F4F1816190644F41B
:10285000F801E80FF91F20830197261B370BF5CFEE
:1028600086E0F8018083CE0102C080E090E0DF9135
:10287000CF911F910F9108952F923F924F925F92A7
:102880006F927F928F929F92AF92BF92CF92DF9280
:10289000EF92FF920F931F93CF93DF93CDB7DEB7E5
:1028A00029970FB6F894DEBF0FBECDBF4C017B0158
:1028B0002C01440C551C440C551C620181E1C80ECE
:1028C000D11CCC9CA001CD9C500D500D1124495F12
:1028D0005F4F93E0559547959A95E1F74F5F5F4FAE
:1028E00060E070E0C7010E94793EF701C082870175
:1028F000960141E050E060E070E086E090E00E94E8
:10290000791321E030E0A60166E070E080E090E01D
:102910000E94791329E030E049E050E060E070E087
:1029200080E090E00E9479136201F9E0CF0ED11CA3
:1029300029E030E048E050E060E070E0C6010E942D
:10294000791328E030E049E050E0B60180E090E003
:102950000E947913BE016F5F7F4FC4010E94F8137C
:102960003C01A12CB12C1C0181E0281A3108A614CD
:10297000B704D4F5C12CD12C81E090E08C0F9D1FC1
:102980008A0D9B1D99878887C614D7044CF5A1141E
:10299000B10431F4C114D104F9F0C214D304E1F04C
:1029A000A214B30419F4C114D104B1F0E1E0F0E0D1
:1029B000EC0FFD1FEC0DFD1D608170E06250710990
:1029C000E885F985808190E0870125E030E045E0E9
:1029D00050E002970E947913FFEFCF1ADF0AD4CF9D
:1029E0009FEFA91AB90AC3CFE7E08E169104B4F09D
:1029F000F6E04F0E511C870126E030E043E050E046
:102A000060E070E0C2010E94791323E030E046E00C
:102A100050E0B20180E090E00E94791329960FB651
:102A2000F894DEBF0FBECDBFDF91CF911F910F9104
:102A3000FF90EF90DF90CF90BF90AF909F908F90DE
:102A40007F906F905F904F903F902F900895E7E0B8
:102A5000F0E020E05DE170E0422F441F4427441F76
:102A6000459F402D1124220F42279B010E2E02C0AC
:102A7000359527950A94E2F7922F9170989F902DA3
:102A80001124242F2927319738F7822F08951F9377
:102A9000FC010197889710F00E94593ECF010896DB
:102AA00024E0880F991F2A95E1F78E9F90018F9F50
:102AB000300D9E9F300D1124205C3F4FE130F10519
:102AC000E9F0CF0167E070E00E943F3E6E5F7F4F0C
:102AD00017EE1603A001179F500D1124465F5F4F9C
:102AE000469FC001479F900D569F900D1124C79699
:102AF000280F391F379714F024523109C9011F914B
:102B00000895DF92EF92FF920F931F93CF93DF937D
:102B10008C01EB016430710510F00E94593E0E9457
:102B20004715D82EE92EB801CE010E94D425F82EE3
:102B3000B801CE010E94AA252D2D3E2D37FF02C0DF
:102B4000295F3F4F93E0359527959A95E1F7A901C5
:102B50006F2D6802401951091124CA01DF91CF91EC
:102B60001F910F91FF90EF90DF900895CF92DF9229
:102B7000EF92FF92CF93DF936131710578F46C018E
:102B8000E12CF12C062E04C0F694E794D794C79458
:102B90000A94D2F7CD28CE28CF2811F00E94593EB2
:102BA000615071096F3FBFEF7B0749F1F901A081C7
:102BB000B181ED01E3E0D595C795EA95E1F7C40F42
:102BC000D51FFC01062E02C0F695E7950A94E2F7A0
:102BD000E170FF27A095B095A770BB2701C0EE0F4D
:102BE000AA95EAF7F881EF2BE88361507109D901C2
:102BF000ED91FC9111973196ED93FC93D3CFDF913A
:102C0000CF91FF90EF90DF90CF900895CF93DF9317
:102C1000CDB7DEB760970FB6F894DEBF0FBECDBF5D
:102C20004091A6015091A701DE01119680E090E04D
:102C3000BD012AEAFC013496E40FF51FE491E22776
:102C4000E827ED93019680319105A1F7E091B90154
:102C5000F091BA0140E150E08091B7019091B80144
:102C6000099560960FB6F894DEBF0FBECDBFDF9119
:102C7000CF910895FB01EE5FFD4F849108950C9470
:102C80005E3E0F931F93CF93DF93082F87E00E9440
:102C90000A1260E086E00E940A12C7E0D0E010E06D
:102CA000B8010C2E02C0759567950A94E2F7617021
:102CB00077278BE00E940A1261E08DE00E940A12E1
:102CC00060E08DE00E940A12219750F761E086E0F3
:102CD000DF91CF911F910F910C940A120C947412F2
:102CE000EF92FF920F931F93CF93DF93D62F9C0108
:102CF0003327F901EC54FE4F8491F901E056FE4F61
:102D0000F490F901E457FE4FC491062F10E0CC2354
:102D100071F081110E94E111EC2FF0E0EE0FFF1F26
:102D2000E857FF4EA591B491EC91EF21F1F4F80131
:102D3000EC54FE4F808181111EC081E080830E948F
:102D40007412000F111F000F111FF801E855FE4FFC
:102D50006083718382839383E091C903F091CA03F6
:102D6000309709F447C041E030C0F801EC54FE4F01
:102D70008081811136C0C8018C549E4F7C01FC01BA
:102D800080818130B9F50E947412000F111F000F6D
:102D9000111FF801E855FE4F008111812281338116
:102DA000DC01CB01801B910BA20BB30B893E93403E
:102DB000A105B105F8F082E0F7018083E091C90335
:102DC000F091CA033097B1F042E06D2F8091C703B4
:102DD0009091C803DF91CF911F910F91FF90EF90D9
:102DE00009941082E091C903F091CA03309711F061
:102DF00040E0EBCFDF91CF911F910F91FF90EF90CB
:102E0000089560E082E090E00E94701661E083E047
:102E100090E00E94701662E084E090E00C947016DE
:102E2000CF92DF92EF92FF920F931F93CF93DF9396
:102E300097FD18C069017A018B01EC0140E050E078
:102E40000E947F350817190769F4A601B701CE0162
:102E5000DF91CF911F910F91FF90EF90DF90CF9076
:102E60000C9402358FEF9FEFDF91CF911F910F915F
:102E7000FF90EF90DF90CF900895A091C503B0919F
:102E8000C603109799F01197B093C603A093C5039A
:102E9000AA0FBB1FAA0FBB1FA054BB4FED91FC9103
:102EA000119712968D919C911397099408952091F2
:102EB000C5033091C6032A30310588F4F901EE0FBD
:102EC000FF1FEE0FFF1FE054FB4F9183808373833E
:102ED00062832F5F3F4F3093C6032093C50308954D
:102EE0001092BA041092BC0482E08093BE0408954C
:102EF00060E00C944116CF93DF9380E80E9478172E
:102F000080E40E947817CFEBD1E061E089910E94C4
:102F1000411683E0C73BD807C1F7DF91CF910895F1
:102F2000F4E5F69F9001F79F300D1124820F931F57
:102F300060EA72E00E943F3EF69F9001F79F300DDD
:102F4000112464E570E00E943F3EF901E80FF91F8B
:102F5000E83F81E0F80788F4E154FE4F81E090E01B
:102F600001C0880F6A95EAF7442319F09081892BF4
:102F700003C0809590818923808308950F931F93C8
:102F8000FB01BA0141E0012B022B032B09F440E0C5
:102F9000CF011F910F910C9490172F923F924F9257
:102FA0005F926F927F928F929F92AF92BF92CF92D9
:102FB000DF92EF92FF920F931F93CF93DF93CDB7E2
:102FC000DEB728970FB6F894DEBF0FBECDBF3B012A
:102FD0002A01302F512F20320CF420E2812C912C29
:102FE0002052822F90E0880F991F8C010D561F4EA2
:102FF000BC016E567F4E78876F83F801849180FF05
:1030000003C0C401019701C0C401009719F4EF8106
:10301000F8851BC08130910519F4EF81F8851CC03B
:103020008230910571F4EF81F8859491F801249133
:103030009370F4E09F9FC0011124922F9270892B0E
:1030400010C08330910529F4F801849182958F7026
:1030500007C0049721F4F8018491869501C080E0AF
:103060008E70212C312C682F70E07A836983C40123
:10307000840D951D9C838B8383E090E082199309D6
:10308000E981FA8102C0F595E7958A95E2F7E0FDBE
:1030900003C0C501D60103C0C701A32FB52F41E06E
:1030A000892B8A2B8B2B09F440E06B817C81C10139
:1030B000860D971D3D835E830E949017FFEF2F1AA8
:1030C0003F0A3D815E8144E024163104A9F66FEF8A
:1030D000861A960A76E08716910409F08ECF289614
:1030E0000FB6F894DEBF0FBECDBFDF91CF911F9119
:1030F0000F91FF90EF90DF90CF90BF90AF909F9097
:103100008F907F906F905F904F903F902F90089599
:103110002F923F924F925F926F927F928F929F92E7
:10312000AF92BF92CF92DF92EF92FF920F931F93D5
:10313000CF93DF9300D000D01F92CDB7DEB72B0125
:103140007A0149010E94D4376C01198298012E0D31
:103150003F1D3D832C838701612C712CA12CB12C48
:103160002C813D8102171307E1F1E12CF12C1301B1
:1031700081E0281A3108E814F90461F1C1018E19BF
:103180009F099C01277033273B832A83C7018A0D3F
:103190009B1D87709927892B51F441E050E0BE01B7
:1031A0006F5F7F4FC6010E9402350197D1F44981BC
:1031B00050E00A8002C0559547950A94E2F74170A5
:1031C000B801C701840D951D0E9490173FEFE31AC7
:1031D000F30AD1CF0F5F1F4FA80CB91C68187908EC
:1031E000BFCFC6010E9445380F900F900F900F90EF
:1031F0000F90DF91CF911F910F91FF90EF90DF9093
:10320000CF90BF90AF909F908F907F906F905F9086
:103210004F903F902F900895AF92BF92CF92DF9240
:10322000EF92FF920F931F93CF93DF93A82EB0904E
:10323000BD04811108C0B090BF04C1E0D0E04EE4ED
:10324000C42ED12C04C0C0E0D0E0C12CD12CE12C84
:10325000F12C870126E230E046E050E060E070E0CB
:10326000C6010E948236CC0EDD1ECC0EDD1EB3FEE2
:103270000DC0E12CF12C8701E39427E030E044E01D
:1032800050E060E070E0C6010E948236CC0EDD1E88
:10329000B2FE0DC0E12CF12C8701E39427E030E071
:1032A00043E050E068E070E0C6010E948236CC0D39
:1032B000DD1DB1FE0DC0E12CF12C8701E39427E068
:1032C00030E042E050E060E170E0CE010E948236E2
:1032D000B0FE0DC0E12CF12C8701E39426E030E034
:1032E00042E050E068E170E0CE010E948236A11019
:1032F0000CC0BE016250710906E010E024E030E02D
:103300004FE150E089EE94EA09C006E010E025E0C4
:1033100030E04FE150E0BE018DE69CE50E94881848
:10332000DF91CF911F910F91FF90EF90DF90CF90A1
:10333000BF90AF90089588EF91E0EFEBF1E0DF01EF
:103340009C011D9221503040E1F708950C949B1987
:103350008F929F92AF92BF92EF92FF920F931F9323
:10336000CF93DF93E091AB05F091AC05309799F1E5
:10337000E090AD05F090AE05A9EAB5E0C0E0D0E080
:10338000CE15DF0541F11C9614960D911C911597F1
:10339000012BF9F479018A014B015C018091A905A7
:1033A0009091AA0509952CE02C9FF0012D9FF00D1E
:1033B0001124E755FA4F6287738784879587868241
:1033C0009782A086B186F786E686118B008BCE01A8
:1033D00004C02196D5CF8FEF9FEFDF91CF911F9142
:1033E0000F91FF90EF90BF90AF909F908F900895B6
:1033F0000F931F93CF93DF938C0142E050E060E086
:1034000070E00E947F35EC0197FF03C080E090E000
:103410000AC040E050E060E070E0C8010E947F35E3
:10342000892BA1F7CE01DF91CF911F910F910895C4
:103430002F923F924F925F926F927F928F929F92C4
:10344000AF92BF92CF92DF92EF92FF920F931F93B2
:10345000CF93DF9300D000D01F92CDB7DEB74C01E1
:103460007D836C831A016901F90110820E94F819A9
:103470009B838A831982C114D10409F45AC00115AF
:10348000110509F456C0F6011082612C712CE12C53
:10349000F12CA12CB12C412C512C2A813B8162169C
:1034A000730609F446C021E030E0AE014F5F5F4F84
:1034B000B301C4010E9410170197D9F58981A214A4
:1034C000B30419F52C813D8142165306F1F48C3278
:1034D00081F18A3071F1882361F1E016F10630F054
:1034E0000C0D1D1DF8013197108223C0F601EE0D61
:1034F000FF1D80833FEFE31AF30AE016F10680F721
:10350000F601EE0DFF1D108210C08C3221F48FEFFA
:10351000A81AB80A0AC08A3031F49FEF491A590A2A
:10352000A12CB12C02C0882321F0EFEF6E1A7E0A85
:10353000B4CF0F900F900F900F900F90DF91CF911D
:103540001F910F91FF90EF90DF90CF90BF90AF90C1
:103550009F908F907F906F905F904F903F902F90B3
:10356000089580FF12C081FD0AC06A3010F480E324
:1035700011C06A3089F06B3089F083E40BC082FDA2
:1035800002C08BE407C08BE605C082FD02C081E467
:1035900001C081E6860F08958FE508958DE20895B4
:1035A0004F925F926F927F92AF92BF92CF92DF92D3
:1035B000EF92FF920F931F93CF93DF93EC016A0179
:1035C0007B01022F4AE050E060E370E00E94793E08
:1035D0001A861AE08AE0482E512C612C712CC114F5
:1035E000D104E104F10481F011505E01A10EB11C7F
:1035F000C701B601A30192010E94FA3D605DF50189
:10360000608369017A01EBCF011124C060E0FE0103
:10361000E60FF11D8081803311F46F5FF8CF6A30BF
:1036200009F469E070E04BE050E0461B570B6C0F6B
:103630007D1FCE01DF91CF911F910F91FF90EF90F1
:10364000DF90CF90BF90AF907F906F905F904F9042
:103650000C94673EDF91CF911F910F91FF90EF90F7
:10366000DF90CF90BF90AF907F906F905F904F9022
:1036700008958F929F92AF92BF92CF92DF92EF9276
:10368000FF920F931F93FA0110821182128213820C
:10369000680F791F86179707A1F1C080D180E2805B
:1036A000F380DC010D91CD010C2510E020E030E02D
:1036B00048E050E000FD09C0B0E28B2EB3E89B2E3D
:1036C000B8EBAB2EBDEEBB2E03C0812C912C540168
:1036D0003695279517950795082519252A253B2501
:1036E0004150510939F7CD2CDE2CEF2CFF24F094FA
:1036F0000C251D252E253F2500831183228333832E
:10370000C9CF1F910F91FF90EF90DF90CF90BF90A6
:10371000AF909F908F9008950F931F93CF93DF9357
:10372000CDB7DEB764970FB6F894DEBF0FBECDBF3E
:103730008C0180E1F801DE01119601900D928A95CD
:10374000E1F783E99FEDA3EBB8EA8D879E87AF870A
:10375000B88BAE014F5E5F4F60E170E0CE01019625
:103760000E94391B81E0F80104851585268537857F
:1037700049895A896B897C890417150726073707F9
:1037800009F080E064960FB6F894DEBF0FBECDBF9F
:10379000DF91CF911F910F9108958EE480937C006B
:1037A00062E070E080E090E00E943A1280917A003E
:1037B000806480937A0080917A0086FDFCCF20910E
:1037C00078008091790030E0382B032E000C440BF8
:1037D000550B64EB7BE281E190E00E94C83DC9019A
:1037E0000895CF93DF93CDB7DEB7A2970FB6F894C5
:1037F000DEBF0FBECDBF0E94CD1B843C29E09207E7
:1038000068F08C383AE0930758F0803F2AE092073E
:1038100048F084359B4040F423E007C020E005C019
:1038200021E003C022E001C024E081E090E001C07B
:10383000880F2A95EAF781508093BF0423E030E097
:1038400040E050E060E070E0CB010E94A4112091C4
:10385000BE047727620F711D663018F46093BE04B2
:1038600003C085E08093BE048091BE04882319F0D4
:1038700081508093BE0481E090E00090BE0402C0BD
:10388000880F991F0A94E2F781508093BD048091BC
:10389000BC048823C9F142E250E060EE71E0CE0141
:1038A00001960E94A93D8EE690E39A8789878FE56D
:1038B00092E69C878B8781E692E79E878D8785E3DA
:1038C0009DE7A0E08F87988BA98B8091BB04E82FA0
:1038D000F0E0F595E79521E030E02C0F3D1FE20F79
:1038E000F31F208180FD06C030E094E035952795D8
:1038F0009A95E1F72093BD048F5F8093BB048232D9
:1039000090F00E9470170FC08091BA048F5F8C33C3
:1039100018F48093BA0407C01092BA041092BB0442
:1039200081E08093BC04A2960FB6F894DEBF0FBE70
:10393000CDBFDF91CF910895CF93DF93D82F0E9411
:103940009B3D2D2F2370206420937C0020917A00D2
:10395000206420937A0080917A0086FDFCCF8091CC
:103960007800C62FC8270E94CD1BD0FF982FC927EB
:103970000E947412D1FF02C0872F01C0862F8C27AE
:10398000DF91CF910895EF92FF921F93CF93DF9332
:103990001F92CDB7DEB7182F7C018E2D811B8617A5
:1039A00040F469830E949C1CF70181937F01698127
:1039B000F4CF0F90DF91CF911F91FF90EF9008957A
:1039C0008F929F92AF92BF92CF92DF92EF92FF922F
:1039D0000F931F93CF93DF93CDB7DEB764970FB6E6
:1039E000F894DEBF0FBECDBF6C018E010F5F1F4F7D
:1039F0005801E12CF12C4801C7010E94B23DF501AC
:103A000081935F01FFEFEF1AFF0A80E1E816F104EE
:103A100099F7C8010E948C1B811146C06CE0C80157
:103A20000E94C31C83E99FEDA3EBB8EA8D879E87B4
:103A3000AF87B88BAE014F5E5F4F60E170E0C801A9
:103A40000E94391B89899A89AB89BC898D879E8799
:103A5000AF87B88B5801E12CF12CF50161915F0122
:103A6000C7010E94BA3DFFEFEF1AFF0A80E1E81696
:103A7000F10499F7E12CF12CC7010E94B23DF80145
:103A800081938F01FFEFEF1AFF0A80E1E816F1043E
:103A900099F7C4010E948C1B811106C0F6011082A7
:103AA00011821282138209C08D819E81AF81B885F7
:103AB000F60180839183A283B38364960FB6F89452
:103AC000DEBF0FBECDBFDF91CF911F910F91FF9051
:103AD000EF90DF90CF90BF90AF909F908F90089520
:103AE000413011F40C943D1708955F926F927F92CC
:103AF0008F929F92AF92BF92CF92DF92EF92FF92FE
:103B00000F931F93CF93DF93CDB7DEB7E0970FB638
:103B1000F894DEBF0FBECDBF5C018090B9039090DA
:103B2000BA03E090B703F090B803FC0101900020C5
:103B3000E9F731978F01081B190B39F49401A7019C
:103B400060E070E080E090E099C0009709F447C021
:103B50006C01FC018191811144C017FD0FC19801D6
:103B6000AAE0B0E00E941C3E6E5F7F4F8F4F9F4FD8
:103B700023E030E040E050E00E94C83D211580E89D
:103B80003807410551050CF0F9C0C9010796BC0181
:103B9000F3E076956795FA95E1F7653D710508F0D4
:103BA000EDC081E090E09AA789A759011CA70BA757
:103BB000AB0160E070E0C7010E94793E18AA1FA621
:103BC00060E070E080E090E01AE0D6012D916D0198
:103BD0002223E1F030ED320F3A3008F49BC00E940E
:103BE000593E80538A3008F4B5CF3501F301619115
:103BF0003F01662309F4ACC0062E000C770B89E563
:103C000091E00E94803E892B89F732C161157105D0
:103C100069F09B01220F331F620F731F6F5F7F4F8D
:103C20009E01215D3F4FA7010E94B6158FA598A95F
:103C30008A159B05A1F6EDA6FEA688E0FE01B996C1
:103C4000DE01599601900D928A95E1F788E0FE0118
:103C50007996DE01919601900D928A95E1F788E0C0
:103C6000FE01B196DE01519601900D928A95E1F721
:103C70009401A70161E070E0CE0141960E94F82F07
:103C8000882309F418C18091B9039091BA030E9466
:103C9000EA136C018C0197FF02C00F5F1F4F15954F
:103CA00007951195019511090E949B19E12CF12CA2
:103CB000065D1F4FEC14FD040CF0FDC0A12CB12CCF
:103CC0008091B9039091BA03009709F488CFDC0181
:103CD0002C9130E0A216B3064CF4E216F30634F44D
:103CE000A701B5010E94B913282F02C020E030E0DF
:103CF000422F4170B701C8018A0D9B1D0E94901789
:103D0000BFEFAB1ABB0AAC14BD04D4F2EFEFEE1A4E
:103D1000FE0AD0CF189FA001199F500D1124CA018F
:103D2000C097820F911D27FD9A956F5F7F4F63307B
:103D3000710509F04ACF9E01215D3F4FA7016AE05E
:103D400070E00E94B61560E070E080E090E03DCF4A
:103D500017FD14C09801ABE0B0E00E941C3EDC01EE
:103D6000CB010196A11DB11DB595A7959795879596
:103D70008115F0E89F07A105B1051CF0F401108240
:103D80009AC0AC01495F5F4F63E0569547956A95CD
:103D9000E1F7453D510590F722E030E03A8B298B61
:103DA0005C011C8B0B8B60E070E0C7010E94793EC8
:103DB000188E1F8A612C712C00E010E04DE2542E09
:103DC000D6016D916D01662349F1062E000C770B2B
:103DD00089E591E00E94803E009709F400CF509E53
:103DE0009001519E300D1124895591408C01020F94
:103DF000131F6A94672871F49E01295E3F4FA70143
:103E00006BE070E0C8010E94B615612C712C00E0D7
:103E100010E0D6CF66246394712CD2CF6A946728C1
:103E200049F49E01295E3F4FA70166E070E0C8019A
:103E30000E94B6158F89988D8A159B0509F0CFCE03
:103E4000ED8AFE8A88E0FE017196DE0111960190EE
:103E50000D928A95E1F788E0FE013196DE01199610
:103E600001900D928A95E1F788E0FE013996FACE2D
:103E7000053D110508F082CFF701A00EB11ED60155
:103E80008D916D018193AA15BB05C9F784E090E07F
:103E90009A8B898BC801A0E0B0E023E0880F991FBE
:103EA000AA1FBB1F2A95D1F7988F8F8B1C8B0B8B6A
:103EB000ED8AFE8ADDCEE0960FB6F894DEBF0FBE27
:103EC000CDBFDF91CF911F910F91FF90EF90DF90C9
:103ED000CF90BF90AF909F908F907F906F905F90AA
:103EE00008952F923F924F925F926F927F928F929E
:103EF0009F92AF92BF92CF92DF92EF92FF920F9379
:103F00001F93CF93DF93CDB7DEB7C151D1400FB62A
:103F1000F894DEBF0FBECDBF182F7B0148EC50E0F8
:103F20009E012F5F3F4F2901B90181E00E94502B74
:103F3000F20101900020E9F731971F01241835089C
:103F400087EC90E0DC01A219B309CA5FDE4FB983A8
:103F5000A883C650D140C250DF4F188219821A82FE
:103F60001B82CE5FD0409701A4E6B0E00E941C3EC9
:103F70004B015C01CE0182509F4F0E94E01C3E012C
:103F8000BEED6B0E711C60E1F62EF3012F2D119228
:103F90002A95E9F7C250DF4F88819981AA81BB81B8
:103FA000CE5FD040F30180839183A283B383848268
:103FB0009582A682B782108763E0C30109960E94AA
:103FC000C31CC250DF4F88819981AA81BB81CE5F1B
:103FD000D040F30184879587A687B787AE014E5FEF
:103FE0005E4F60E170E0C3010E94391BCE5FDE4F7F
:103FF00088819981AA81BB81C250D140F301848715
:104000009587A687B7878E0102511F4FD8011D9251
:10401000FA94E9F78CED99E00E94D4376C017E01A7
:10402000B9ECEB0EF11C40E150E0B7010E94023503
:104030009C01C601C25FDE4F2883CE50D140C15FD4
:10404000DE4F3883CF50D1400E944538C25FDE4FEB
:104050002881CE50D140C15FDE4F3881CF50D14052
:104060002031310591F480E1E4E0F1E0D8010190E4
:104070000D928A95E1F7D701F80190E1900F8D91AB
:104080002081822781939E13FACF80E1F70111925C
:104090008A95E9F780ECE8EEF4E0DF011D928A955D
:1040A000E9F7F80180818093E80481818093E90435
:1040B00082818093EA0483818093EB0484818093DE
:1040C000EC0485818093ED0486818093EE048781E2
:1040D0008093EF0480858093F00481858093F104C0
:1040E00082858093F20483858093F3048485809392
:1040F000F40485858093F50486858093F60487858E
:104100008093F704ABEFB4E024E030E0FD01379793
:104110007081319660813196908131968081A901BC
:1041200043705527452BE9F4E62FF0E0E858FF4FA0
:104130004491E92FF0E0E858FF4F6491E82FF0E058
:10414000E858FF4F9491E72FF0E0E858FF4F849133
:10415000F901F695E795F695E795EE5AFE4E7491BE
:1041600074278D0103501109AD0143515109FA0122
:1041700040817427F80170830F5F1F4FAD014251DA
:104180005109FA0140816427F8016083BD01615043
:104190007109AD0141515109FA0140819427FB0198
:1041A00090833F97E0818E278C932F5F3F4F14962B
:1041B0002C32310509F0AACF80E1F701A8E9B5E07A
:1041C00001900D928A95E1F7A8E9B5E0F30190E13D
:1041D000960D8D912081822781939E13FACF48EE10
:1041E00054E0B30180E00E94DE1211E02EED30E0D9
:1041F0002C0F3D1F2F5F3F4FC85FDE4F3983288351
:10420000C850D1402EED30E02C0F3D1F2E5F3F4FA8
:10421000C65FDE4F39832883CA50D1402EED30E08F
:104220002C0F3D1F2D5F3F4FC45FDE4F3983288326
:10423000CC50D1403EEDC32ED12CCC0EDD1E30E152
:10424000C30ED11C0BE1CE0182529F4F0E94CA12B5
:10425000C152DF4F8881CF5DD040CD51DF4F988173
:10426000C35ED040C152DF4F9883CF5DD040C9516B
:10427000DF4F9881C75ED040CD51DF4F9883C35E3A
:10428000D040C551DF4F9881CB5ED040C951DF4F40
:104290009883C75ED040C551DF4F8883CB5ED04046
:1042A000C052DF4F8881C05ED040C851DF4F988137
:1042B000C85ED040C052DF4F9883C05ED040C85126
:1042C000DF4F8883C85ED040CC51DF4F8881C45E09
:1042D000D040C451DF4F9881CC5ED040CC51DF4FED
:1042E0009883C45ED040C451DF4F8883CC5ED040F9
:1042F000CF51DF4F8881C15ED040C351DF4F9881DD
:10430000CD5ED040CF51DF4F9883C15ED040C751C2
:10431000DF4F9881C95ED040C351DF4F9883CD5E97
:10432000D040CB51DF4F9881C55ED040C751DF4FA1
:104330009883C95ED040CB51DF4F8883C55ED040A3
:10434000C85FDE4F48815981C850D140C65FDE4FFB
:10435000A881B981CA50D140C45FDE4F288139811C
:10436000CC50D140C05FDE4F39832883C051D1404B
:104370009301F9018081FA01F080F826C05FDE4FD9
:10438000E881F981C051D14060819C9196279F2599
:10439000E92EE8267F2D771F7727771F709F602DE6
:1043A0001124FF0CF626EF24F901E082FA01E080E7
:1043B000FC90FE24E9267F2D771F7727771F709FBB
:1043C000602D1124FF0CF626EF24E082EC90C05FF4
:1043D000DE4FE881F981C051D140F080FE24E9260A
:1043E0007F2D771F7727771F709F602D1124FF0C7B
:1043F000F626EF24EC92608186279627782F771F88
:104400007727771F709F602D1124880F86279827A4
:1044100090832C5F3F4F4C5F5F4F14963496C05F84
:10442000DE4FF983E883C051D1402C153D0509F0DA
:10443000A0CF48EE54E0BE0162527F4F812F0E9410
:10444000DE121F5F1A3009F0FECECE0182529F4F5E
:104450000E94CA12C152DF4F8881CF5DD040CD513A
:10446000DF4F9881C35ED040C152DF4F9883CF5D4C
:10447000D040C951DF4F9881C75ED040CD51DF4F4A
:104480009883C35ED040C551DF4F9881CB5ED0404A
:10449000C951DF4F9883C75ED040C551DF4F888335
:1044A000CB5ED040C052DF4F8881C05ED040C85143
:1044B000DF4F9881C85ED040C052DF4F9883C05E06
:1044C000D040C851DF4F8883C85ED040CC51DF4F09
:1044D0008881C45ED040C451DF4F9881CC5ED0400B
:1044E000CC51DF4F9883C45ED040C451DF4F8883E6
:1044F000CC5ED040CF51DF4F8881C15ED040C351E8
:10450000DF4F9881CD5ED040CF51DF4F9883C15EA1
:10451000D040C751DF4F9881C95ED040C351DF4FB3
:104520009883CD5ED040CB51DF4F9881C55ED0409F
:10453000C751DF4F9883C95ED040CB51DF4F88838E
:10454000C55ED04048EE54E0BE0162527F4F8AE023
:104550000E94DE1280E1FE01E252FF4FA8E9B5E0C1
:1045600001900D928A95E1F7CA5FDE4F288139816B
:10457000C650D1402115310509F466C07201E20C24
:10458000F31C2D32310518F4D7011C925DC080E177
:10459000FE01E252FF4FDE01A753BF4F01900D9283
:1045A0008A95E1F761E089EC90E08C0F9D1F4096C1
:1045B0000E94C31C49EC50E04C0F5D1F4F5E5F4FE3
:1045C00061E170E0CE0187539F4F0E94391B8E013D
:1045D00007531F4F312CC12CD12CF80191918F0121
:1045E000292E22942FE02222622D832DC25FDE4FDE
:1045F0009883CE50D1400E94B11A37016C0C7D1CBB
:10460000D3018C93C25FDE4F9881CE50D1409F7012
:10461000392E692F822D0E94B11AF3018183F2E0B5
:10462000CF0ED11C2AE2C216D104B9F6F701E30D70
:10463000F11D8081D7019A968C939A978DE39B9672
:104640008C939B979C961C92C2010E94751D0E94A0
:104650007B1780E79DE19093CA038093C903109272
:10466000C8031092C70348EC50E0B20180E00E94FA
:10467000502BC12CD12C760101E010E020E030E07D
:10468000A2016AE270E080E090E00E94C83620E07B
:10469000B501A401C2010E94D01AF20101900020CC
:1046A000E9F73197E419F509EE0FFF1FEE0FFF1F31
:1046B00001E010E020E030E0A2016AE270E084E571
:1046C00090E08E1B9F0B0E94C8360E947B17CF5E26
:1046D000DE4F0FB6F894DEBF0FBECDBFDF91CF9196
:1046E0001F910F91FF90EF90DF90CF90BF90AF9010
:1046F0009F908F907F906F905F904F903F902F9002
:104700000895DC019696ED91FC9197974E9F90014C
:104710004F9F300D5E9F300D1124620F731F9B0160
:1047200043E0359527954A95E1F79A964D915C912E
:104730009B972417350770F4FC01E20FF31F84A543
:1047400090E06770772702C0959587956A95E2F7A4
:104750008170089580E00895CF93782F4115510519
:1047600061F4813009F04BC0623009F048C081E04B
:104770002230310509F043C043C02430310561F4D3
:10478000813009F03CC0613009F039C081E042302D
:10479000510509F034C034C0862F90E064E0769F64
:1047A000800D911D1124880F991F880F991F835A1E
:1047B0009E4EFC01C491319674913196649131966C
:1047C000E4918E2F90E0A0E0B0E0B82FAA279927BF
:1047D0008827972B8C2BA62B220F331F220F331FDA
:1047E00041505109420F531F440F551F04C0B69545
:1047F000A795979587954A95D2F7837001C080E079
:10480000CF9108952F923F924F925F926F927F9235
:104810008F929F92AF92BF92CF92DF92EF92FF92D0
:104820000F931F93CF93DF93E114F104D1F127018C
:10483000122F1B013C017A01812C912CC22DD32D0A
:10484000A12CB12CD7FD1BC0F30186A197A18C1719
:104850009D07ACF0F7FC13C080A591A58E159F05B0
:1048600074F09401A501602F812F0E94AC2388234E
:1048700031F0212FA701BE01C601F2010995FFEF1A
:10488000AF1ABF0A219685E0A816B104D9F6EFEF5A
:104890008E1A9E0AFFEFEF1AFF0A85E08816910430
:1048A00069F6DF91CF911F910F91FF90EF90DF900C
:1048B000CF90BF90AF909F908F907F906F905F90C0
:1048C0004F903F902F900895EF92FF920F931F9378
:1048D000CF93DF930097C1F08A017B01EC01EA8559
:1048E000FB85309719F088859985099588A199A14C
:1048F000E816F90649F48AA19BA10817190721F4C3
:1049000085E090E09BA78AA7DF91CF911F910F913F
:10491000FF90EF9008950F93CF93DF93EB010E94E8
:10492000A10DBE0183EE94E20E945717C830D10555
:1049300008F045C0FE01EC5CFF4F0C94533EDF9144
:10494000CF910F910C94221060E070E08DEA90E01E
:104950000EC060E070E088EB95EE09C060E070E0AA
:1049600088E99EEF04C060E070E083E893E1DF91A6
:10497000CF910F910C94690D01E020E030E042E20C
:1049800055E262E275EC87E008C001E020E030E02B
:104990004FEE54E266E178E988E00E94AA100FC069
:1049A0001092A80580E00E94A40F8BEF9FE09093E7
:1049B000CA038093C9031092C8031092C703DF9102
:1049C000CF910F9108950F9300E09C014BE854E2C2
:1049D00061E378ED82E00E94AA100F910895CF93D1
:1049E000DF93EB010E94A10D209771F0BE018FE0D3
:1049F00095E20E945717C130D10551F0229761F41A
:104A0000DF91CF910C94552EDF91CF910C943D17EF
:104A1000DF91CF910C94C92EDF91CF9108950F9320
:104A2000CF93DF93EC010E94701701E09E014FEEDF
:104A300054E266E178E988E00E94AA10DF91CF9104
:104A40000F9108958F929F92AF92BF92CF92DF9273
:104A5000EF92FF920F931F93CF93DF93CDB7DEB703
:104A6000C85CD1090FB6F894DEBF0FBECDBF5B01A5
:104A7000CE0101966C0188ECF60111928A95E9F756
:104A8000672B29F40E94A10D0E943D174FC082E2BE
:104A900095EC0E94D4374C0108EC10E0960141E0FF
:104AA00050E07501F1E0EF1AF108B7010E94181A01
:104AB000C4010E94453884E0E816F10409F509E0D4
:104AC00010E02DE030E040E050E064E070E081E391
:104AD0009BE40E9488180BE010E029E430E049E0F4
:104AE00050E060E070E084E89CEE0E9488180E942C
:104AF0007B1768E873E180E090E00E943A1216C0EC
:104B00000E94A10DB50189E099E00E945717C601E6
:104B10000E94751D0E947B1780E79DE19093CA0358
:104B20008093C9031092C8031092C703C853DF4F84
:104B30000FB6F894DEBF0FBECDBFDF91CF911F91AE
:104B40000F91FF90EF90DF90CF90BF90AF909F902C
:104B50008F900895CF93DF93CDB7DEB72B970FB625
:104B6000F894DEBF0FBECDBF2BE0E3E4F1E0DE0141
:104B7000119601900D922A95E1F7892B59F46A302C
:104B8000710544F4E1E0F0E0EC0FFD1FE60FF71FC4
:104B9000808101C08FEF2B960FB6F894DEBF0FBE59
:104BA000CDBFDF91CF910895CF93DF93CDB7DEB71F
:104BB0002B970FB6F894DEBF0FBECDBF2BE0EEE40F
:104BC000F1E0DE01119601900D922A95E1F7892B13
:104BD00059F46A30710544F4E1E0F0E0EC0FFD1F98
:104BE000E60FF71F808101C08FEF2B960FB6F89468
:104BF000DEBF0FBECDBFDF91CF9108950F931F93FE
:104C0000CF93DF9300D000D000D0CDB7DEB7DC016A
:104C10001E821D821C821B828AE689831A82559617
:104C20001C921E92549759961C921E925897569613
:104C30008D919C915797892B69F150968D919C91FC
:104C40005197892B39F152968D919C915397892BCD
:104C500009F11696ED91FC9117973097D9F08D01D7
:104C60009E012D5F3F4FAE014B5F5F4FBE016F5FF7
:104C70007F4F14968D919C9115970995D801529666
:104C80008D919C9153976B817C810E942B3EF80102
:104C9000718F608F26960FB6F894DEBF0FBECDBF22
:104CA000DF91CF911F910F9108953F924F925F92A4
:104CB0006F927F928F929F92AF92BF92CF92DF922C
:104CC000EF92FF920F931F93CF93DF9300D000D00A
:104CD0001F92CDB7DEB7E0E2ED831C821B821A8201
:104CE00019822115310519F48FEF9FEF93C0290127
:104CF0007A015B016C01A90160E070E0C7010E94CC
:104D0000793E370100E010E081E0481A510880E266
:104D1000382E0415150508F04AC0D6011296ED91FB
:104D2000FC91139721E030E0AE014B5F5F4FB8017B
:104D30006A0D7B1D8D919C9109950197A9F68D8136
:104D4000811101C03D828D81893009F43D828D81C0
:104D5000F30181933F014801FFEF8F1A9F0A8A30C8
:104D600029F1D60150962D913C915197C4018A0D9D
:104D70009B1D82179307D0F41696ED91FC9117971F
:104D80009E012F5F3F4FAE014D5F5F4FB7011496FD
:104D90008D919C91159709952B813C81F601848515
:104DA00095858217930718F08401B3CF8401F7012A
:104DB000E00FF11F10820115110551F1D801119773
:104DC000AE0DBF1D8C918A3011F41C921FC0803231
:104DD000C9F080E090E02291203229F001968017FE
:104DE0009107C9F70FC08017910760F4A00EB11E9C
:104DF000D60150962D913C915197A216B30610F40E
:104E0000081B190BF701E00FF11F1082C80102C047
:104E100080E090E00F900F900F900F900F90DF9137
:104E2000CF911F910F91FF90EF90DF90CF90BF90A7
:104E3000AF909F908F907F906F905F904F903F903A
:104E40000895CF92DF92EF92FF920F931F93CF932B
:104E5000DF9300D000D000D0CDB7DEB7DC011E82DA
:104E60001D821C821B828AE689831A8253961C92B9
:104E70001E92529755961C921E92549757961C92CA
:104E80001E92569750968D919C915197892B09F4BB
:104E900066C01C968D919C911D97892B09F45FC06B
:104EA0001E968D919C911F97892B09F458C01296DC
:104EB0008D919C911397892B09F451C01696ED9111
:104EC000FC911797309709F44AC08D019E012D5F20
:104ED0003F4FAE014B5F5F4FBE016F5F7F4F149638
:104EE0008D919C9115970995D8011E968D919C9155
:104EF0001F976B817C810E942B3EF801778B668B1C
:104F0000672B69F1E12CF12C6801FAE1CF0ED11C7D
:104F1000F80180899189E816F906F8F4D8015896C5
:104F20002D913C9159972F5F3F4FA601B701C801C2
:104F30000E94552697FF04C0F801158A148A0FC0F5
:104F4000E80EF91ED80154968D919C9155970196C3
:104F500055969C938E935497DBCF138A128A26968C
:104F60000FB6F894DEBF0FBECDBFDF91CF911F917A
:104F70000F91FF90EF90DF90CF900895CF92DF9246
:104F8000EF92FF920F931F93CF93DF93EC01EA818F
:104F9000FB81309719F0888199810995C884D9845B
:104FA000EA84FB840DA12CA140E050E060E070E0B9
:104FB000CE010E9402248E859F85892BB1F4CC807E
:104FC000DD80EE80FF804C8D5D8D6A8D7B8D0F8D39
:104FD0002E8DCE010E940224DF91CF911F910F915F
:104FE000FF90EF90DF90CF90089500E010E08EA149
:104FF0009FA1081719071CF7E12CF12C88A599A58A
:10500000E816F9065CF4A701B801CE010E948123DD
:10501000811107C08FEFE81AF80AF0CF0F5F1F4F1A
:10502000E6CFEE85FF85A701B8018C859D850995A2
:10503000F1CFCF93DF93EC01ECA1EE8F8DA18F8F99
:105040002EA13FA137FF02C02F5F3F4F3595279517
:10505000F0E0E353FE4E449190E0880F991F50E03A
:10506000082E02C0559547950A94E2F740FF03C009
:105070004DEF5FEF02C04EEF5FEF240F351F3B8F08
:105080002A8FE491F0E0816002C0F595E7958A955A
:10509000E2F7E0FF03C08DEF9FEF02C08EEF9FEFBE
:1050A0009D8F8C8F66E070E0CE010E94C3348CA38C
:1050B00063E070E0CE010E94C3348DA3DF91CF91F5
:1050C0000895CF93DF93009709F461C0EC01198E26
:1050D000188E66E070E00E94C3348E8F63E070E04B
:1050E000CE010E94C3348F8F2EA13FA137FF02C093
:1050F0002F5F3F4FA90155954795EE8DF0E0E353A3
:10510000FE4E24919927880F991F30E0082E02C087
:10511000359527950A94E2F720FF03C02DEF3FEF66
:1051200002C02EEF3FEF240F351F3B8F2A8FE491F3
:10513000F0E0816002C0F595E7958A95E2F7E0FF1F
:1051400003C08DEF9FEF02C08EEF9FEF9D8F8C8F7E
:1051500066E070E0CE010E94C3348CA363E070E08F
:10516000CE010E94C3348DA38EA19FA1059699A361
:1051700088A385E090E09BA38AA34AA55BA560E095
:1051800070E0CE018C960E94793E81E001C080E003
:10519000DF91CF9108952F923F924F925F926F923D
:1051A0007F928F929F92AF92BF92CF92DF92EF92B7
:1051B000FF920F931F93CF93DF9300D000D0CDB712
:1051C000DEB75C014B016A01122F7B011B0124E059
:1051D000220E311CCA0104969A838983370168180C
:1051E00079082E143F040CF445C0DC82CB824B803E
:1051F0005C804C185D0829813A818B819C8128173D
:105200003907A4F1F7FC12C0F50186A197A1E816B1
:10521000F90664F480A591A52B813C8128173907F4
:105220002CF48B819C8197FF0BC01AC09201A301C3
:10523000602F812F0E94AC23882399F380E01BC04C
:105240009201A301602F812F0E94AC23882341F09B
:105250004B815C81B701C5010E9481238111EECF92
:10526000EB81FC813196FC83EB83C1CF9FEFE91A80
:10527000F90AB4CF81E00F900F900F900F90DF915B
:10528000CF911F910F91FF90EF90DF90CF90BF9043
:10529000AF909F908F907F906F905F904F903F90D6
:1052A0002F9008952F923F924F925F926F927F922C
:1052B0008F929F92AF92BF92CF92DF92EF92FF9226
:1052C0000F931F93CF93DF9300D000D000D0CDB7C2
:1052D000DEB79E838D83DC0198960D90BC91A02D46
:1052E000BA83A983C12CD12CE12CF12C4424439402
:1052F000512C69817A81C616D7060CF076C0AD8133
:10530000BE819696AD90BC90979700E010E00A158C
:105310001B0564F4A601B8018D819E810E94812342
:10532000813009F05EC00F5F1F4FF1CF0A151B05DA
:1053300009F057C00C9D10010D9D300C1C9D300CC8
:105340001124C601612C712C181619060CF046C0E8
:105350009301220D331D812C912CFC0131975F01AB
:1053600080169106BCF5A501B4018D819E812B8329
:105370003C830E9481232B813C81A401420F531F57
:10538000FA0193E0F595E7959A95E1F7AD81BE8135
:105390009A966D917C919B97E617F707B8F4EA0F00
:1053A000FB1F47705527811109C0C20101C0880F3A
:1053B0004A95EAF7809594A5892307C0C20101C0E8
:1053C000880F4A95EAF794A5892B84A7BFEF8B1A1B
:1053D0009B0AC6CFC501601A710AB6CFFFEFEF1A5C
:1053E000FF0A4FEFC41AD40A84CFB2E0EB16F104DF
:1053F000D1F058F4EA94EF2851F5AD81BE8158966A
:105400008D919C91599701961BC043E0E416F104DD
:1054100081F054E0E516F104D1F4ED81FE81808D38
:10542000918D409612C0ED81FE81808D918D049604
:105430000CC0AD81BE8158968D919C91599708966C
:1054400059969C938E93589702C0918F808F269681
:105450000FB6F894DEBF0FBECDBFDF91CF911F9185
:105460000F91FF90EF90DF90CF90BF90AF909F9003
:105470008F907F906F905F904F903F902F90089506
:10548000FC0166A177A120E030E026173707BCF4C5
:10549000F90143E0F595E7954A95E1F7E80FF91F23
:1054A00044A550E0F901E770FF2702C055954795E4
:1054B000EA95E2F740FD05C02F5F3F4FE6CF80E061
:1054C000089581E008952F923F924F925F926F92DC
:1054D0007F928F929F92AF92BF92CF92DF92EF9284
:1054E000FF920F931F93CF93DF9300D000D0CDB7DF
:1054F000DEB76C015B017A01922F702F2501150137
:1055000024E0220E311C4A0134E0830E911C6624F3
:105510006394712C82010A191B09241435040CF4BC
:105520004BC0FC82EB822B813C812E193F09EB8121
:10553000FC818E169F06E4F1A801672F892F7A83DC
:1055400099830E94AC237A819981882359F1D601ED
:1055500096964D915C919797EB81FC81E49F900129
:10556000E59F300DF49F300D1124240D351DF901F8
:1055700083E0F595E7958A95E1F79A964D915C91D0
:105580009B97E417F50770F4EC0DFD1D277033278A
:10559000A30102C0440F551F2A95E2F79A0184A582
:1055A000282B24A7AB81BC811196BC83AB83BBCFD6
:1055B000FFEF4F1A5F0AAECF0F900F900F900F9032
:1055C000DF91CF911F910F91FF90EF90DF90CF90DF
:1055D000BF90AF909F908F907F906F905F904F9013
:1055E0003F902F900895CF93DF93009711F1DC0146
:1055F0005296ED91FC9153973097D9F0EC01488D7C
:10560000598D4150510960E070E088899989099568
:105610009DA38CA34A8D5B8D41505109EA89FB897A
:1056200060E070E08889998909959FA38EA381E045
:1056300001C080E0DF91CF910895FC0180A991A97C
:105640003097A1F026A537A544A555A52417350701
:1056500020F0C901841B950B0895880F991F880FAE
:10566000991F841B950B820F931F089580E090E093
:10567000089597FD12C0892B19F477FF06C00AC060
:10568000672B59F482E090E00895672B31F083E0B6
:1056900090E0089581E090E0089580E090E0089522
:1056A000CF92DF92EF92FF920F931F93CF93DF93EE
:1056B000182F7B01EA0160E070E0C7010E94793E8B
:1056C00083EB92E10E94D4376C01612F70E08E0170
:1056D000970140E050E00E94181ACE0DDF1D21977F
:1056E0001882C6010E944538C701DF91CF911F91F2
:1056F0000F91FF90EF90DF90CF900895CF92DF92BF
:10570000EF92FF920F931F93CB01BA01A901C12C15
:10571000D12C760101E010E020E030E00E94C83694
:105720001F910F91FF90EF90DF90CF90089541155A
:10573000510571F0FB0101900020E9F73197E61B5C
:10574000F70BEE0FFF1FEE0FFF1FDA01ED93FC9337
:105750002115310529F086E090E0F90191838083DD
:1057600008958F929F92AF92BF92CF92DF92EF9265
:10577000FF920F931F93CF93DF935C016B018A011C
:1057800079012091880130918901E216F30620F019
:10579000E0908C01F0908D01C216D306C0F5C701D0
:1057A0008C0D9D1D2817390718F47901EC18FD0898
:1057B000E114F10479F160918A0170918B016C0D13
:1057C0007D1D40E050E0C5010E947F35E80100E00A
:1057D00010E08AE0982E9DE2892E41E050E0BE0163
:1057E000C5010E940235019781F488818C3239F419
:1057F0008AE0C816D10410F4888201C098820F5F35
:105800001F4F21960E151F0541F7C80105C08FEFE8
:105810009FEF02C080E090E0DF91CF911F910F9148
:10582000FF90EF90DF90CF90BF90AF909F908F90C0
:105830000895CF93DF93E0918C01F0918D01E90100
:10584000E217F30708F4EF016E177F07B8F4CE01F3
:10585000860F971FE817F90718F4EF01C61BD70B3F
:10586000209779F0CA0120918E0130918F01620F4B
:10587000731FAE010E945E3ECE0105C08FEF9FEF09
:1058800002C080E090E0DF91CF910895CB01880FB6
:10589000991F860F971FBA01660F771F460F571F74
:1058A000BA016E5F7F4F23E030E043E050E00296A4
:1058B0000C94403795E0969FF001979FF00D1124CE
:1058C0004F5F5F4F949FB001959F700D112425E0AD
:1058D00030E045E050E0CF018C960C944037EF92D9
:1058E000FF920F931F93CB01880F991F860F971F6D
:1058F000BA01660F771F460F571FBA016E5F7F4FC1
:10590000E12CF12C8701E39423E030E043E050E008
:1059100002960E9482361F910F91FF90EF9008959A
:105920000F931F93CF93DF930E949B19C091BD03E8
:10593000D091BE03209709F440C0CE010E94402AB6
:105940008130D9F10F8D10E04C8D5D8D4F5F5F4F31
:105950006A8D7B8D2E8DCE010E94CB284C8D5D8D66
:10596000813029F44F5F5F4F5D8F4C8F23C06A8D6C
:105970007B8D0F8D2E8DCE010E94632ACE010E9459
:105980005229CE010E94402A813089F4CE010E9422
:10599000BE27088D198DCE010E946128EE89FF89EE
:1059A000309759F0B8018C899D89099506C0CE01C0
:1059B0000E941928CE010E94BE2780911B01909160
:1059C0001C01019631F0DF91CF911F910F910C9442
:1059D0007B17DF91CF911F910F91089580911B014B
:1059E00090911C010E94A8378FEF9FEF90931C01AC
:1059F00080931B014091BB035091BC0360E070E0B9
:105A00008091BD039091BE030C94793ECF93DF93B8
:105A1000EB010E94EE2C60E070E087EC9EE20E94B9
:105A20005717BE018AEADF91CF910C94711F0F9333
:105A30001F93CF93DF93611134C0423041F40E9431
:105A4000EE2CDF91CF911F910F910C943D174130B7
:105A500009F0BBC0C091BD03D091BE032097D9F01F
:105A6000CE010E94402A8130B1F00F8D10E04C8DA4
:105A70005D8D6A8D7B8D615071092E8DCE010E94E6
:105A8000CB28813041F48A8D9B8D01979B8F8A8F23
:105A9000CE010E94BE27DF91CF911F910F910C94F0
:105AA0007B17623001F5413009F08FC0C091BD0312
:105AB000D091BE03209779F3CE010E94402A813015
:105AC00051F30F8D10E04C8D5D8D6A8D7B8D6F5F76
:105AD0007F4F2E8DCE010E94CB288130E1F68A8D3A
