:100000000C940B090C9428090C9428090C942809C9
:100010000C9428090C9428090C9428090C9428099C
:100020000C9428090C9428090C9428090C9428098C
:100030000C9428090C9428090C9428090C9428097C
:100040000C94772A0C9428090C9428090C942809FC
:100050000C9428090C9428090C9428090C9428095C
:100060000C9428090C942809F3145FD7D4A40D47E5
:100070004312E62F7255D8E3050C54BA5A1D9B70F3
:1000800042221B7EA390207451CEC76AEA094A58C7
:10009000F509A46D9E832557BC471A532F13916011
:1000A0003690743EB1B3C0685D580AFF316D49C5E2
:1000B000F1161C45E5034BC2DEAF052E4D1DEA22AD
:1000C0007056D8E2030550F62E64EFED9A327B7F2E
:1000D000C0D51F4363EFD730267FC13D71F8F88943
:1000E0002F646333C02856700238DDD58A2CC8804F
:1000F000050774DC9194C633E5B9BD112DCAC099CA
:1001000031D79F161563C982B9E91ED68CAA24E699
:10011000F7FFA402E2A823214EFE6FAAFC09C39FA9
:10012000B73B03E7ECB317F1C54C4C3D9FD72070AC
:10013000F53CE2C44E749166755E332E595CD487EB
:1001400035CA38DF435F515DA65F4B6DF2001DC5B8
:100150008E17B238CA5958307254DACAAB431F9D51
:100160005656DDDFA802E3E846C56821A12D15F249
:10017000DE075C8A09702F0EB8E6A35BA79ECF97B7
:100180009520454AED3450FA4393BF74393C6EE4F0
:100190005D0F2B4A55727821997F09BE5B2478D474
:1001A000469199C9EC4AB37AEF28A215C5BC3448E8
:1001B00056E1D0D5F81EC5988023EC0C02238F178A
:1001C000BC3BD5650B7C77D45B14A46216C0393177
:1001D000815E1C11ED037FC1956834B6E2DC802B93
:1001E000CFD9A395D544F78A09A215709DD23AF5C7
:1001F0009C89882F0FC66026E6946CFC9AC1564DE8
:100200000E25E8339400D9CF0B30F2121ED028B956
:1002100000744C7AEFC77D5F3204EE15BA1CF8B259
:10022000353744ED21A4F603B5E9CD417D9AA0C947
:100230006181D72E81BDA1B2C5996EA67E9CDE4E8E
:100240002506D77292D85B6D467573CA5D9993CFB8
:10025000E7E9163E9A41CEC1F57C7C0B87A02C3590
:100260006C1CD2F47E44A1A90EA84C36898BF850A0
:10027000151042B746DD018DA94E441DBD5B139A92
:1002800096E74D060555A26A082EA09A7B73288E24
:10029000662CA7A5D27A3336808C471B3BB78F6874
:1002A0006E37937539B0B0FF175C5B0B98306E48B2
:1002B000CAFC051D42E4094ADDDFAC0777C01EEB2E
:1002C0002A1D55D9E502C7B8E92F6768DA9B317A4C
:1002D00042DEBB1E447510562F277825CFA6E79F18
:1002E000799A6762347EF46A1D3AFA2B928B2FDE7C
:1002F00072F3B2A9B81E7FC72CE644A360DF173D96
:100300006CB0D49E4ECE8E13C6543577D18DA2DFFD
:100310004C2D4913C81D2B223F30ADB1DB26773D54
:1003200059B6382D0A8847FB793B964D3A9726F007
:100330007F88208CDE736790D97AB40248F956160C
:1003400073C4C867DC710D9F9DA74255EAF2233F35
:10035000FC9097BF0A0F86586D6646EFDA2D3F82F4
:1003600029B6827D89F5BE8EE4B6C1B63BDA3B4044
:10037000C928997CBD7682FCEBF81F053104BC507E
:10038000F58C0367B40C4183FA435ADC093EC1E89B
:100390006B2703DB5D6466D9A14887CE8FBACCBFDB
:1003A000245DA57D771A674B1E80E45A0FF0044A3E
:1003B00033DA7237FA448DE40CAE5F84CDD4C11EBB
:1003C0001DA14949A3FD952B4A031714B437DB0738
:1003D00047813518A9E29D6323639037A679C278D7
:1003E000E2EEFAAE8F1B09626E8F7CA98E63313408
:1003F000025E7AF935D2D67EC61994E1E595C98AAE
:1004000081CF592F486EE3D8EFF7AD09E95014D6E4
:1004100048C13FB2E4113AB9F00CC86D12BB1FB924
:100420008533F58413D2B9D77CB4F4C4BE4C069F8F
:10043000C3A084CE3E932FBECC394A55E1FDDAB538
:100440001E6644CB4DB45B526E1FCA06E1A69DB238
:1004500030E668528C7BE744C614417D0AA0EBEE7F
:10046000B1A671D38CFD47A0560FE94DFE08771950
:100470005F141341B07A5A00AD48CD451AB85812EE
:100480009595F54C010456A355092CA19D7AF029A8
:100490008167F7A6A1CF793229798E461C3AB476C6
:1004A000976F34927238B3B1BE265B5A0CF9336F32
:1004B00047CBF3181B43E70155DCDCAD034B535F1F
:1004C000E42C7254DEE4010996382C66E9EB98308E
:1004D000757012D7194561EDC92E247D1138B3F519
:1004E000F647226666F9B58A588DC00AD81389D5B1
:1004F0005E8C6104EAD6920ED84B816202A149BBA0
:10050000A871EA5400AFE60E2E224612A72148C475
:10051000E78BC39011628C664C8C7F826437F2D279
:1005200056A2B305C93B5BD7AAB9A1828BB622EC10
:10053000BD58C0737D717A10E34B2F495D633895C8
:10054000EB7F5CF1A8AD5A3B37906880D4EB4FA9A4
:10055000ED646415BBF0EE674C84DAFC764CA9A11F
:10056000F860B4FE717300A81D1849BF892C098575
:10057000B1565C05A5430B829EEF450E0D5DAA6248
:10058000302618A2434B10B66E64BFABC572393E1D
:100590006095610323A954CC663F1B6D2FC0B8CF73
:1005A000A1DBE273804819B302F8E1EAB4EC084237
:1005B000C2584B1D5DB3F813257952122D7A00B73E
:1005C0008EEB5FD6D16CC942792621A98C62E526D3
:1005D000C73F64C2DDB733E18E3FAC6A3CC93CA083
:1005E0008CFBC327256B57B102F3B3BD9388EFB6DD
:1005F000F77CA273E1CCD1D981DF20CE1917573F08
:100600008584D1D9D64C901D180130AC0D9A50CDAF
:100610009657DD810DC592D717590E2AEBE4675E18
:10062000E63DAF4B7BEAA48177FDBFEAF8868E4AB0
:10063000BCF89C74C940460E98334B9B9750FC986D
:100640000A831A538A74913B696F1C2B58011BC98A
:1006500019C1A5695C2106FF92CFF56F7A2B05EED3
:10066000D24CAA38F6FA38065E570396B56F8EDC80
:10067000A9AE83B097A8F411EE1BA88BD3933FDCEF
:10068000E473FAB096F81A093931C5B15A53868421
:10069000E547857D83FC6BBBD2D794F4B677336096
:1006A0007AE99294EA9C67C060EDE8A7A245FE4E05
:1006B0000BC11DA9EC144EE6EFB518ED979E623FF5
:1006C000E022A96C5FA0E6F75950C4319DC9185EBD
:1006D000CF6AC8FD3068C9A2ECD4533D04E17675F9
:1006E000F50FA42DA2A7F5BD0A49AD0EBFD22CB5BA
:1006F0001DFCF0C8327BA1F37638AD650765E5AE29
:1007000040C18BCEE2980CEEA1EAB79A0CE61080BD
:1007100064D4EC050B4319FE494DC0721C5720E010
:10072000933D6D3301E71E163191733956B6CF6E86
:10073000EA2F7D88761A38B296716B2282642CA5D6
:10074000A9F872393A6A9D5537119FA5444C17B1E3
:100750005913989AED450C0947B278240488B0578C
:100760005108AC4A068F7401AA40595BB4707D668B
:10077000EBDB305756C13478F4ECB8444B5F37CFDD
:10078000084239F1D1363862B34008D9DDAC5F5840
:100790004208F23B7743D9B80C0851B41B4594B3D7
:1007A000853D4E4611F2677F3BB78B6F2864C07E54
:1007B0003AB3EAD7683933629F450F72B583642F25
:1007C00037853B3DA2BAC46D0E5642AB7C2163C94E
:1007D000E036780CA44F61B19DE7400A431D8E635B
:1007E0002956C9C8704818B3AAAA2F491BABBBAC7D
:1007F000CA7996CDE87C3D97A7F25EAE9B4870061D
:10080000BBEBF0B323D18CA0127990D99336D99257
:10081000444A78BFDEDA8076B7FCD35268CAAFC9E3
:100820007499D658556FBACBB5FF17D9CCEC64354F
:10083000EEF3AD0788F179701EE7A2E6AD5999CFC6
:10084000E73A0EA8C1B60EFF8A180931FE81DFEC27
:100850002DFEA7964E3DC299AA2AD595121761CEB4
:1008600082C0F628FEBBD11CD73A7479C52E23E589
:10087000F29F38643501DB0C5D6CE3CF6B136AD1FA
:100880003470F2F8916A6C6048E93F6E0BE6F8113B
:100890001040A32D48C3CBB41500661EFC2C6D4C34
:1008A000D5F2086703A44A0AFDAED138686C34CE8D
:1008B0000D0028E5B6736C22917639B9FA8C532B6A
:1008C0003862CA7D0037AA831F7000AB5913E1D884
:1008D000A604424245BC37764EC9FA1C4316F36F54
:1008E00012A3BDC36240065958D4D3E3731DF5B9B2
:1008F000E957E4FD6E6E15B7E3EDFA4C8EC8F5715D
:1009000001AEADE350F3E9774F3BD5C7D29868F21B
:10091000F4C35066D396C5758DD5585839CEEFCFF0
:10092000866CAB99820E3DD1A6AE06A1F07A720913
:10093000AFF880E002CD92A93C11ADEAB45CECBA0C
:10094000307766E3B4AAE21AB5E19D14339AD888E9
:100950002DCBCF090433DF9384DC6EF6B0805D626B
:10096000E9CE803AD3961A149276393A1FD1064DC1
:10097000748182666033973178B0ADD773387F3237
:100980008820675ADDEC610B7CCD2D6D85A1E94A8D
:10099000050012FA75341B98B91E0911DF0E5AD6DC
:1009A000D2AE03410536EA2B0422A5947C7668A2D8
:1009B000692FACB69E513F33688C54716AEDDA38BA
:1009C0007E3ADF2763E1E0D15A50345BBD7E6E3B57
:1009D0008FA3545007E842138D9EFF57000259EB36
:1009E0004F1C368AE5765A104DAAE47C6B1DA5B6DD
:1009F000D5A058DEEFE76258AAA3E530E8AA2A2975
:100A000016A3ABB1EE11DBC7C20F4F94978B5D8677
:100A1000CC4004219490E48F69A8F69C5F7FC9B113
:100A2000D76691DA1144299CB5F8CD10DE89E90C1E
:100A30001FE2F9AB11EAA42C2D03C9A7ACF04A843C
:100A4000D081310EFA81E34C9ED41F003681C1CC97
:100A50009025F2EFA22903F5F4B114F2BF583A5BE6
:100A6000EAA5A89F4ABBECC2B2C830793E9679325B
:100A7000F5EAD81470772DDA0B5E3DD7C428327CA6
:100A8000911477F7FC8D2C6E1941D815250AEAFBD5
:100A900003084BF0095B8FEAB70A464F76BD792E03
:100AA00007CBEE485E09A44135A1E0E97B2A3A6E06
:100AB000801C2E25A090627A3F8879769EBADA64EF
:100AC000202E7B894E591FB8B852143AA45806E01C
:100AD000D2AD0E460548FE2F624CC0BA460F39BA59
:100AE00040199981F7580615E854998BCC6B56AC90
:100AF000BDEF4AABEE20503884ACC6B24B92D1FB6E
:100B0000754EB1BFFD58BCFF5F5C7C80D69CAA7E51
:100B1000BBE4C45D35B491D37488D64C5F6BA2C579
:100B2000D188269EE6DD4863FCE3A505E4EC0F3B97
:100B300016CDBEBEF218D4C79C3618EDF0BE75AC0B
:100B4000E7666455E6ECF2AD6FA4BA814A18D8C8DE
:100B5000C603C88112063CEB8484CC26EEFDDF552B
:100B60000ADFC09C304CF94BB4CF657F706183487D
:100B70001136E9DF7F1F61DF7E40E8F2CA156E6241
:100B800033CA025633DDC6231D03D8044DDEC1B679
:100B90005F121328E9346F45B8B157540AFD151E8A
:100BA0008487FE5C11451BAF741D39A09E717927A7
:100BB000862707AFA5DB39012C7A9B54152EADCEC5
:100BC0004B603799320BAAA2EA531209008D7C3F81
:100BD0001EE1E2040053F74018D0CDBD195A5F5E04
:100BE000A920111B8BAA554CFC41A2E1294801B256
:100BF000F0E2E2769DD3E47F5AAFB6E41D8FE17B4D
:100C00007202AEF4E4B356C6C5CF546EDBA4C16223
:100C100085C35F2F63CA8984C86CAAB78A0635D991
:100C2000DED67ED9FE5C5F23F6B0FBC317DE8BB148
:100C30003A1FE1BD9616E5A4392C00C1A5A0F70422
:100C4000D9D1972B0CECE3DB789EDD5F5A7ADCD6AA
:100C5000C0936CAEF492017AE1C68A3BD6DD1C18D3
:100C60007CC789859436E2A367A3FF333160CA3B12
:100C700021C2F69035737F2EC96E0B2EAC9C793154
:100C80007B9C6524A1A3902511743FD1124509E7EF
:100C9000C3333D6E8F5211928EBF08021C47BF7244
:100CA000605B94C7252D10B15D21ACB8C8777C7E00
:100CB00049B81F3020A08575653E8979718ABDDFEE
:100CC0006621343FA4491870C4F870541EB82253EA
:100CD000DFD2A44C1C5814E934690D9CE16E491C08
:100CE000F17F1E8496A31E4EC9A84D85DBE5765A7A
:100CF000A4FFD44EA7E9706464F4B5BBEC598E939D
:100D0000A42113F4BAFE1B90C9400C249CCDCDCF76
:100D100056BDF1C15D34908BDB38BED35554268768
:100D200085D49D279CE69D1D0DF6F1ED0BE2B139B2
:100D30003217AF88E6B752E39DBF2219ABECBE5E17
:100D4000C5B9342050E3B7BF840DF2AA99043A988C
:100D500098C710D18C170163D3E6D88178B0AE95CF
:100D600056739F9FC224DDD6CCC9A8114B5201F403
:100D7000330147DBF013132DB36C2DACAA9B2C264B
:100D8000356B975E447FB0F1170E0CF305558BDA87
:100D9000BE11425E00FF7C731FC6F8094268CC3565
:100DA00037808EF45B504A5BC80E597CB69135543F
:100DB0002A85722FB5ACC2380F296986420E79F3A5
:100DC000C1566321907D2FBB8FF315380859AF6052
:100DD0002546BEA75F5505B45F169691E356020BF4
:100DE00043E9583A0985BE00FEEE40ACA142670ACD
:100DF000B7BD99F70ACB96F07F04F8FFA80CA8FFBF
:100E0000395607B8E8F2B3039CE7CE48799F9EDDD8
:100E100021B5CA55523C97C1CCD54DA7F2DE5867D3
:100E200094879434D2EC56444AF3B1B8E90BD4E534
:100E3000F27141A4EAAE4BB4EF686C5DEEE48EE86B
:100E400005DE96A77E42A1CA8227DF8F070C38F302
:100E50009082C73AF6AB98411AC7C88B34D4D35C9A
:100E6000564CD48A8CD0898A7D5ECCF51A1728FD21
:100E70000543D5C0F83267622897481475F8DF211A
:100E80002F39D22534E3FF9403545E0AEB24231A4E
:100E900084F5191C51F00949DFDAAD0A5A581FE7E9
:100EA000263F56D6E84D015F8D6A3FE0A2CF7C36E3
:100EB0006E75CB342A0D9CBF4E276DC92967D18032
:100EC000C97B356270845D1E0C86FB554161BA4753
:100ED000018B87FE5E145746A260501F97A20E55E5
:100EE00056B2515E8581F55BE9FDAE35A2CEE1607B
:100EF00055A3B0E02F8FE26C751CCFC9ECB04F91B9
:100F0000BABC3B12F3FBA015E48E0C1D6CD1B1945E
:100F1000C326EAB1970C1DC1DE8F2BCE840A0C4389
:100F20008CDDC19661BAE5CB2649FCF9955FBDF031
:100F3000713A3E97D1A2B65D97D7EB7C0FEFF4B82C
:100F40000000000023002600290000004908B4002A
:100F5000BEF67B7AA59455B848002944442A15A0CA
:100F60000B42005003020008259076BA595CC59EDA
:100F7000C53892E6F33A73BAE59077BA773A084003
:100F800008502A441CE08852E508568E77B677B898
:100F9000728CD6BA739E739272AEB7B6E95C64AACD
:100FA000B7B4929CBEB6D6B656AAD79276EE77B4B0
:100FB0007138E948B6AEB6AAB6F6B5B4B548E59C00
:100FC000694C9124642E5400001C44000EAE9ABA61
:100FD0000E8C2EAE0ECE56D0553B93B441444151AB
:100FE00097B4494417B61AB60AAAD6D376671790AB
:100FF0000F389A8C16AE16BA16F615B4B52B1C5EC1
:101000006B4C4948C95A540056E2000018140000BD
:1010100018140000181400001814000059000004EF
:101020000804000019000404080400040814000067
:10103000190100050804001019000004080500014A
:101040001900001408040000191000101804000012
:10105000091400040901000518000004181000001C
:101060001805000109040014090000041804000018
:1010700019040004090400041900AA882AA22A2AD3
:101080002A637C777BF26B6FC53001672BFED7AB91
:1010900076CA82C97DFA5947F0ADD4A2AF9CA4723A
:1010A000C0B7FD9326363FF7CC34A5E5F171D831B2
:1010B0001504C723C31896059A071280E2EB27B2DE
:1010C0007509832C1A1B6E5AA0523BD6B329E32F05
:1010D0008453D100ED20FCB15B6ACBBE394A4C5839
:1010E000CFD0EFAAFB434D338545F9027F503C9F9B
:1010F000A851A3408F929D38F5BCB6DA2110FFF3BA
:10110000D2CD0C13EC5F974417C4A77E3D645D19E4
:101110007360814FDC222A908846EEB814DE5E0BA5
:10112000DBE0323A0A4906245CC2D3AC629195E412
:1011300079E7C8376D8DD54EA96C56F4EA657AAE5D
:1011400008BA78252E1CA6B4C6E8DD741F4BBD8BEB
:101150008A703EB5664803F60E613557B986C11DE3
:101160009EE1F8981169D98E949B1E87E9CE552887
:10117000DF8CA1890DBFE6426841992D0FB054BBA9
:101180001600000000240027002A000000000025AF
:101190000028002B000404040404040404020202D6
:1011A00002020203030303030301020408102040A8
:1011B0008001020408102001020408102000000031
:1011C0000800020100000304070000000000000006
:1011D00000EC103BDF6C1C548F7CF7563D437E8542
:1011E000DA6D5CB082FFAB81D9637962656172733D
:1011F0007B793075725F6433763163335F31735F4F
:10120000756E377275733733647D008D0102040883
:10121000102040801B3611241FBECFEFD8E0DEBF68
:10122000CDBF11E0A0E0B1E0EAE9FCE702C0059023
:101230000D92A637B107D9F725E0A6E7B1E001C0C6
:101240001D92A339B207E1F70E94993A0C944B3EE4
:101250000C940000FB01E859FF4F8491089520E0B1
:1012600031E040E050E060E070E0CB010E94842972
:10127000862F08950F931F93CF93DF93CDB7DEB7DB
:10128000A2970FB6F894DEBF0FBECDBF8EE4809359
:101290007C0062E070E080E090E00E94312A809162
:1012A0007A00806480937A0080917A0086FDFCCF7A
:1012B000209178008091790030E0382B032E000CCB
:1012C000440B550B64EB7BE281E190E00E94783D9A
:1012D000243C89E038076CF02C388AE038075CF051
:1012E000203F8AE038074CF024353B4044F483E04B
:1012F00007C080E005C081E003C082E001C084E057
:1013000001E010E0980102C0220F331F8A95E2F736
:10131000C90181508093780125E030E040E050E041
:1013200060E070E0CB010E94842901C0000F6A9543
:10133000EAF70150009377018091A9018823D9F140
:1013400042E250E069EE71E1CE0101960E94593D02
:101350008EE690E39A8789878FE592E69C878B8754
:1013600081E692E79E878D8785E39DE7A0E08F87E2
:10137000988BA98B80917601E82FF0E0F595E795A1
:1013800021E030E02C0F3D1FE20FF31F208180FD94
:1013900006C030E094E0359527959A95E1F72093C3
:1013A00077018F5F809376018232A0F01092AA01BC
:1013B0001092A9010FC08091AA018F5F8E3118F49D
:1013C0008093AA0107C01092AA011092760181E0D1
:1013D0008093A901A2960FB6F894DEBF0FBECDBFD1
:1013E000DF91CF911F910F9108950F931F93CF938A
:1013F000DF93082F87E00E94EA2960E086E00E94E0
:10140000EA29C7E0D0E010E0B8010C2E02C07595C3
:1014100067950A94E2F7617077278BE00E94EA29CA
:1014200061E08DE00E94EA2960E08DE00E94EA29F7
:10143000219750F761E086E0DF91CF911F910F91E6
:101440000C94EA290C946B2AEF92FF920F931F934E
:10145000CF93DF93D62F9C013327F901E354FE4E3F
:101460008491F901E755FE4EF490F901EB56FE4EDA
:10147000C491062F10E0CC2371F081110E94C12984
:10148000EC2FF0E0EE0FFF1FE05CF04FA591B49160
:10149000EC91EF21F1F4F801E153FE4F80818111CD
:1014A0001EC081E080830E946B2A000F111F000F75
:1014B000111FF801ED53FE4F608371838283938384
:1014C000E091E203F091E303309709F447C041E073
:1014D00030C0F801E153FE4F8081811136C0C80150
:1014E00081539E4F7C01FC0180818130B9F50E94BF
:1014F0006B2A000F111F000F111FF801ED53FE4F53
:101500000081118122813381DC01CB01801B910B91
:10151000A20BB30B893E9340A105B105F8F082E020
:10152000F7018083E091E203F091E3033097B1F09B
:1015300042E06D2F8091E0039091E103DF91CF9124
:101540001F910F91FF90EF9009941082E091E203B8
:10155000F091E303309711F040E0EBCFDF91CF91B2
:101560001F910F91FF90EF90089560E082E090E06E
:101570000E94240A61E083E090E00E94240A62E075
:1015800084E090E00C94240A0F931F93CF93DF9391
:10159000CDB7DEB72B970FB6F894DEBF0FBECDBF29
:1015A0008C014BE050E0BE016F5F7F4F82E00E94F4
:1015B000171C4AE050E0BE016F5F7F4FC8010E94D8
:1015C000083E21E0892B09F020E0822F2B960FB6F0
:1015D000F894DEBF0FBECDBFDF91CF911F910F9169
:1015E0000895EF92FF920F931F93CF93DF93EC0137
:1015F0008B017C01E40EF51ECE15DF0541F0F801EC
:1016000061918F01CE010E946A3D2196F5CF81E064
:10161000DF91CF911F910F91FF90EF900895CF929E
:10162000DF92EF92FF920F931F93CF93DF9397FD7B
:1016300018C069017A018B01EC0140E050E00E9482
:101640003D370817190769F4A601B701CE01DF91EC
:10165000CF911F910F91FF90EF90DF90CF900C945E
:10166000C0368FEF9FEFDF91CF911F910F91FF90C9
:10167000EF90DF90CF900895A091DE03B091DF034B
:10168000109799F01197B093DF03A093DE03AA0F90
:10169000BB1FAA0FBB1FA758BE4FED91FC9111971E
:1016A00012968D919C911397099408952091DE03D1
:1016B0003091DF032A30310588F4F901EE0FFF1F66
:1016C000EE0FFF1FE758FE4F918380837383628381
:1016D0002F5F3F4F3093DF032093DE03089560E0D8
:1016E0000C94F509CF93DF9380E80E946F0B80E4A0
:1016F0000E946F0BC8EDD1E061E089910E94F5096D
:1017000083E0C03DD807C1F7DF91CF910895F4E59C
:10171000F69F9001F79F300D1124820F931F60EA0E
:1017200072E00E94EF3DF69F9001F79F300D11246B
:1017300064E570E00E94EF3DF901E80FF91FE83F12
:1017400081E0F80788F4E852FE4F81E090E001C0A4
:10175000880F6A95EAF7442319F09081892B03C01A
:10176000809590818923808308950F931F93FB01B7
:10177000BA0141E0012B022B032B09F440E0CF0119
:101780001F910F910C94870B2F923F924F925F9273
:101790006F927F928F929F92AF92BF92CF92DF9281
:1017A000EF92FF920F931F93CF93DF93CDB7DEB7E6
:1017B00028970FB6F894DEBF0FBECDBF3B012A01BC
:1017C000302F512F20320CF420E2812C912C20520A
:1017D000822F90E0880F991F8C01055B104FBC0190
:1017E000665B704F78876F83F801849180FF03C038
:1017F000C401019701C0C401009719F4EF81F88575
:101800001BC08130910519F4EF81F8851CC082302E
:10181000910571F4EF81F8859491F801249193700A
:10182000F4E09F9FC0011124922F9270892B10C069
:101830008330910529F4F801849182958F7007C057
:10184000049721F4F8018491869501C080E08E70A0
:10185000212C312C682F70E07A836983C401840DB8
:10186000951D9C838B8383E090E082199309E98125
:10187000FA8102C0F595E7958A95E2F7E0FD03C08D
:10188000C501D60103C0C701A32FB52F41E0892BA5
:101890008A2B8B2B09F440E06B817C81C101860D82
:1018A000971D3D835E830E94870BFFEF2F1A3F0A2F
:1018B0003D815E8144E024163104A9F66FEF861A5B
:1018C000960A76E08716910409F08ECF28960FB617
:1018D000F894DEBF0FBECDBFDF91CF911F910F9166
:1018E000FF90EF90DF90CF90BF90AF909F908F9040
:1018F0007F906F905F904F903F902F9008952F9220
:101900003F924F925F926F927F928F929F92AF928F
:10191000BF92CF92DF92EF92FF920F931F93CF93DC
:10192000DF9300D000D01F92CDB7DEB72B017A0134
:1019300049010E947A396C01198298012E0D3F1DD0
:101940003D832C838701612C712CA12CB12C2C811F
:101950003D8102171307E1F1E12CF12C130181E025
:10196000281A3108E814F90461F1C1018E199F09A0
:101970009C01277033273B832A83C7018A0D9B1D57
:1019800087709927892B51F441E050E0BE016F5FC9
:101990007F4FC6010E94C0360197D1F4498150E0C3
:1019A0000A8002C0559547950A94E2F74170B80144
:1019B000C701840D951D0E94870B3FEFE31AF30AC0
:1019C000D1CF0F5F1F4FA80CB91C68187908BFCF83
:1019D000C6010E94EB390F900F900F900F900F905F
:1019E000DF91CF911F910F91FF90EF90DF90CF90FB
:1019F000BF90AF909F908F907F906F905F904F902F
:101A00003F902F900895AF92BF92CF92DF92EF92C6
:101A1000FF920F931F93CF93DF93A82EB09077017F
:101A2000811108C0B0907801C1E0D0E04EE4C42E2E
:101A3000D12C04C0C0E0D0E0C12CD12CE12CF12C81
:101A4000870126E230E046E050E060E070E0C60149
:101A50000E944038CC0EDD1ECC0EDD1EB3FE0DC044
:101A6000E12CF12C8701E39427E030E044E050E0E2
:101A700060E070E0C6010E944038CC0EDD1EB2FE70
:101A80000DC0E12CF12C8701E39427E030E043E026
:101A900050E068E070E0C6010E944038CC0DDD1DCA
:101AA000B1FE0DC0E12CF12C8701E39427E030E07A
:101AB00042E050E060E170E0CE010E944038B0FEAC
:101AC0000DC0E12CF12C8701E39426E030E042E0E8
:101AD00050E068E170E0CE010E944038A1100CC0D7
:101AE000BE016250710906E010E024E030E04FE1F1
:101AF00050E089EE94EA09C006E010E025E030E00D
:101B00004FE150E0BE018DE69CE50E947F0CDF9125
:101B1000CF911F910F91FF90EF90DF90CF90BF90EA
:101B2000AF90089588EF91E0E8EDF1E0DF019C01CE
:101B30001D9221503040E1F708955F926F927F929D
:101B40008F929F92AF92BF92CF92DF92EF92FF92CD
:101B50000F931F93CF93DF93CDB7DEB7E0970FB608
:101B6000F894DEBF0FBECDBF5C018090D203909091
:101B7000D303E090D003F090D103FC01019000204A
:101B8000E9F731978F01081B190B39F49401A7016C
:101B900060E070E080E090E099C0009709F447C0F1
:101BA0006C01FC018191811144C017FD0FC19801A6
:101BB000AAE0B0E00E94CC3D6E5F7F4F8F4F9F4FF9
:101BC00023E030E040E050E00E94783D211580E8BD
:101BD0003807410551050CF0F9C0C9010796BC0151
:101BE000F3E076956795FA95E1F7653D710508F0A4
:101BF000EDC081E090E09AA789A759011CA70BA727
:101C0000AB0160E070E0C7010E94303E18AA1FA639
:101C100060E070E080E090E01AE0D6012D916D0167
:101C20002223E1F030ED320F3A3008F49BC00E94DD
:101C3000033E80538A3008F4B5CF3501F30161913A
:101C40003F01662309F4ACC0062E000C770B87E435
:101C500091E00E94373E892B89F732C161157105E9
:101C600069F09B01220F331F620F731F6F5F7F4F5D
:101C70009E01215D3F4FA7010E94EC158FA598A9F9
:101C80008A159B05A1F6EDA6FEA688E0FE01B99691
:101C9000DE01599601900D928A95E1F788E0FE01E8
:101CA0007996DE01919601900D928A95E1F788E090
:101CB000FE01B196DE01519601900D928A95E1F7F1
:101CC0009401A70161E070E0CE0141960E94B63117
:101CD000882309F418C18091D2039091D3030E9404
:101CE00055146C018C0197FF02C00F5F1F4F1595B3
:101CF00007951195019511090E94920DE12CF12C87
:101D0000065D1F4FEC14FD040CF0FDC0A12CB12C9E
:101D10008091D2039091D303009709F488CFDC011E
:101D20002C9130E0A216B3064CF4E216F30634F41C
:101D3000A701B5010E942414282F02C020E030E042
:101D4000422F4170B701C8018A0D9B1D0E94870B6D
:101D5000BFEFAB1ABB0AAC14BD04D4F2EFEFEE1A1E
:101D6000FE0AD0CF189FA001199F500D1124CA015F
:101D7000C097820F911D27FD9A956F5F7F4F63304B
:101D8000710509F04ACF9E01215D3F4FA7016AE02E
:101D900070E00E94EC1560E070E080E090E03DCFE4
:101DA00017FD14C09801ABE0B0E00E94CC3DDC010F
:101DB000CB010196A11DB11DB595A7959795879566
:101DC0008115F0E89F07A105B1051CF0F401108210
:101DD0009AC0AC01495F5F4F63E0569547956A959D
:101DE000E1F7453D510590F722E030E03A8B298B31
:101DF0005C011C8B0B8B60E070E0C7010E94303EE1
:101E0000188E1F8A612C712C00E010E04DE2542ED8
:101E1000D6016D916D01662349F1062E000C770BFA
:101E200087E491E00E94373E009709F400CF509E6E
:101E30009001519E300D1124875491408C01020F66
:101E4000131F6A94672871F49E01295E3F4FA70112
:101E50006BE070E0C8010E94EC15612C712C00E071
:101E600010E0D6CF66246394712CD2CF6A94672891
:101E700049F49E01295E3F4FA70166E070E0C8016A
:101E80000E94EC158F89988D8A159B0509F0CFCE9D
:101E9000ED8AFE8A88E0FE017196DE0111960190BE
:101EA0000D928A95E1F788E0FE013196DE011996E0
:101EB00001900D928A95E1F788E0FE013996FACEFD
:101EC000053D110508F082CFF701A00EB11ED60125
:101ED0008D916D018193AA15BB05C9F784E090E04F
:101EE0009A8B898BC801A0E0B0E023E0880F991F8E
:101EF000AA1FBB1F2A95D1F7988F8F8B1C8B0B8B3A
:101F0000ED8AFE8ADDCEE0960FB6F894DEBF0FBEF6
:101F1000CDBFDF91CF911F910F91FF90EF90DF9098
:101F2000CF90BF90AF909F908F907F906F905F9079
:101F300008950C94920D8F929F92AF92BF92EF9260
:101F4000FF920F931F93CF93DF93E091D504F0910D
:101F5000D604309799F1E090D704F090D804A3ED1F
:101F6000B4E0C0E0D0E0CE15DF0541F11C96149638
:101F70000D911C911597012BF9F479018A014B0100
:101F80005C018091D3049091D40409952CE02C9F9E
:101F9000F0012D9FF00D1124ED52FB4F62877387E6
:101FA0008487958786829782A086B186F786E686A3
:101FB000118B008BCE0104C02196D5CF8FEF9FEF00
:101FC000DF91CF911F910F91FF90EF90BF90AF9055
:101FD0009F908F900895EF92FF921F93CF93DF937E
:101FE000CDB7DEB76B970FB6F894DEBF0FBECDBF8F
:101FF0007C01BE016F5F7F4F80E090E00E94193A44
:10200000882309F45BC0CE0101960E94C40A8111A5
:102010005BC04BE050E0BE016F5E7F4F82E00E94EC
:10202000171C8AE0FE017196DE01119601900D9257
:102030008A95E1F780E00E941A2A182F0E942F0942
:1020400081278D8781E00E941A2A182F0E942F096C
:1020500081278E8782E00E941A2A182F0E942F095A
:1020600081278F8783E00E941A2A182F0E942F0948
:102070008127888B0E946B2A2D853E8562277327D6
:102080007E876D871C861B8640E150E0BE016F5F36
:102090007F4F80E090E00E94F10A882379F0BE0132
:1020A0006F5F7F4F80E090E00E94193A882331F003
:1020B000CE0101960E94C40A811106C0F701108268
:1020C00011821282138209C08D859E85AF85B889E1
:1020D000F70180839183A283B3836B960FB6F89444
:1020E000DEBF0FBECDBFDF91CF911F91FF90EF906C
:1020F00008950F931F93CF93DF938C0142E050E03C
:1021000060E070E00E943D37EC0197FF03C080E083
:1021100090E00AC040E050E060E070E0C8010E943A
:102120003D37892BA1F7CE01DF91CF911F910F9100
:1021300008952F923F924F925F926F927F928F926B
:102140009F92AF92BF92CF92DF92EF92FF920F9346
:102150001F93CF93DF9300D000D01F92CDB7DEB78F
:102160004C017D836C831A016901F90110820E9480
:1021700079109B838A831982C114D10409F45AC04F
:102180000115110509F456C0F6011082612C712C5D
:10219000E12CF12CA12CB12C412C512C2A813B811A
:1021A0006216730609F446C021E030E0AE014F5FCD
:1021B0005F4FB301C4010E940F0B0197D9F58981CC
:1021C000A214B30419F52C813D8142165306F1F493
:1021D0008C3281F18A3071F1882361F1E016F106C9
:1021E00030F00C0D1D1DF8013197108223C0F6014F
:1021F000EE0DFF1D80833FEFE31AF30AE016F106B0
:1022000080F7F601EE0DFF1D108210C08C3221F414
:102210008FEFA81AB80A0AC08A3031F49FEF491A22
:10222000590AA12CB12C02C0882321F0EFEF6E1ABD
:102230007E0AB4CF0F900F900F900F900F90DF9108
:10224000CF911F910F91FF90EF90DF90CF90BF90B3
:10225000AF909F908F907F906F905F904F903F9046
:102260002F90089580FF12C081FD0AC06A3010F4DB
:1022700080E311C06A3089F06B3089F083E40BC0D1
:1022800082FD02C08BE407C08BE605C082FD02C060
:1022900081E401C081E6860F08958FE508958DE2FF
:1022A00008954F925F926F927F92AF92BF92CF92BA
:1022B000DF92EF92FF920F931F93CF93DF93EC0186
:1022C0006A017B01022F4AE050E060E370E00E9467
:1022D000303E1A861AE08AE0482E512C612C712C6F
:1022E000C114D104E104F10481F011505E01A10E8A
:1022F000B11CC701B601A30192010E94AA3D605D15
:10230000F501608369017A01EBCF011124C060E01F
:10231000FE01E60FF11D8081803311F46F5FF8CF6D
:102320006A3009F469E070E04BE050E0461B570B5F
:102330006C0F7D1FCE01DF91CF911F910F91FF9008
:10234000EF90DF90CF90BF90AF907F906F905F90B5
:102350004F900C941E3EDF91CF911F910F91FF90F3
:10236000EF90DF90CF90BF90AF907F906F905F9095
:102370004F9008950F931F93CF93DF93EC018C013F
:10238000060F171FC017D10721F00E942F0989934C
:10239000F9CFDF91CF911F910F910895EF92FF92A6
:1023A0000F931F93CF93DF93CDB7DEB760970FB630
:1023B000F894DEBF0FBECDBF0091C1011091C201E4
:1023C00080E1E82EF12C60E170E0CE0101960E94E0
:1023D000BA11E091D201F091D30140E150E0BE0189
:1023E0006F5F7F4FC701099580E1E80EF11C80EE19
:1023F000E81683E0F80639F7DE01119620E030E0B8
:102400008AEAF9013496E00FF11F949198279227F8
:102410009D932F5F3F4F2031310599F7F801749656
:102420008491E091D201F091D30140E150E0BE01EE
:102430006F5F7F4F90E0099560960FB6F894DEBF0E
:102440000FBECDBFDF91CF911F910F91FF90EF9005
:1024500008958F929F92AF92BF92CF92DF92EF92A8
:10246000FF920F931F93FA0110821182128213823E
:10247000680F791F86179707A1F1C080D180E2808D
:10248000F380DC010D91CD010C2510E020E030E05F
:1024900048E050E000FD09C0B0E28B2EB3E89B2E6F
:1024A000B8EBAB2EBDEEBB2E03C0812C912C54019A
:1024B0003695279517950795082519252A253B2533
:1024C0004150510939F7CD2CDE2CEF2CFF24F0942C
:1024D0000C251D252E253F25008311832283338360
:1024E000C9CF1F910F91FF90EF90DF90CF90BF90D9
:1024F000AF909F908F900895DC019696ED91FC919E
:1025000097974E9F90014F9F300D5E9F300D112485
:10251000620F731F9B0143E0359527954A95E1F7BC
:102520009A964D915C919B972417350770F4FC01A6
:10253000E20FF31F84A590E06770772702C095959E
:1025400087956A95E2F78170089580E00895CF93AA
:10255000782F4115510561F4813009F04BC062308C
:1025600009F048C081E02230310509F043C043C082
:102570002430310561F4813009F03CC0613009F04C
:1025800039C081E04230510509F034C034C0862F93
:1025900090E064E0769F800D911D1124880F991FB3
:1025A000880F991F865F9F4EFC01C49131967491EC
:1025B000319664913196E4918E2F90E0A0E0B0E0E6
:1025C000B82FAA2799278827972B8C2BA62B220F69
:1025D000331F220F331F41505109420F531F440F25
:1025E000551F04C0B695A795979587954A95D2F73C
:1025F000837001C080E0CF9108952F923F924F9257
:102600005F926F927F928F929F92AF92BF92CF9282
:10261000DF92EF92FF920F931F93CF93DF93E1141A
:10262000F104D1F12701122F1B013C017A01812C09
:10263000912CC22DD32DA12CB12CD7FD1BC0F301A1
:1026400086A197A18C179D07ACF0F7FC13C080A55D
:1026500091A58E159F0574F09401A501602F812F1F
:102660000E94A712882331F0212FA701BE01C601C5
:10267000F2010995FFEFAF1ABF0A219685E0A8166F
:10268000B104D9F6EFEF8E1A9E0AFFEFEF1AFF0A98
:1026900085E08816910469F6DF91CF911F910F9123
:1026A000FF90EF90DF90CF90BF90AF909F908F9072
:1026B0007F906F905F904F903F902F900895EF9292
:1026C000FF920F931F93CF93DF930097C1F08A017E
:1026D0007B01EC01EA85FB85309719F088859985A7
:1026E000099588A199A1E816F90649F48AA19BA148
:1026F0000817190721F485E090E09BA78AA7DF91CE
:10270000CF911F910F91FF90EF9008954F925F929C
:102710006F927F928F929F92AF92BF92CF92DF92F1
:10272000EF92FF920F931F93CF93DF936C015B01A6
:102730004A0179012801C0E0D0E0CE15DF05ACF4F4
:1027400000E010E03E016A0C7B1C081519055CF4E2
:10275000B8016C0D7D1D21E0A301C2010E94362B42
:102760000F5F1F4FF2CF2196E8CFDF91CF911F91DE
:102770000F91FF90EF90DF90CF90BF90AF909F9020
:102780008F907F906F905F904F9008950F9362307D
:102790007105B9F1A0F46115710541F16130710560
:1027A00009F050C00E94172061E070E085E49CE1D0
:1027B0000E94560B60E070E08DEA90E02EC063301E
:1027C000710571F164307105E9F50E94172064E02C
:1027D00070E085E49CE10E94560B01E020E030E0CF
:1027E0004CE350E266E178E988E02AC00E941720B5
:1027F00060E070E085E49CE10E94560B0F910C9420
:10280000C1220E94172062E070E085E49CE10E94F2
:10281000560B60E070E088EB95EE0F910C94E91F89
:102820000E94172063E070E085E49CE10E94560B53
:1028300001E020E030E04CE550E262E275EC87E038
:102840000E948A280F910895FC01208130E0F9014F
:102850007597ED39F10550F477FD08C062177307DD
:102860002CF457FD03C04217530714F00E94033E97
:10287000429FF001439FF00D529FF00D11246E0F07
:102880007F1F9B0143E0359527954A95E1F7FC01B1
:10289000E20FF31F818190E06770772702C0959562
:1028A00087956A95E2F781700895009711F40E9468
:1028B000033EFC01808190E09C01255131092D39B6
:1028C0003105A8F708950F931F93CF93DF939C01D1
:1028D0008B0181309105A1F167E070E00E94EF3D2E
:1028E000EB012296FB0131962032310581F0C901BE
:1028F000880F991F8C0F9D1F880F991F0196BF018C
:10290000660F771F0E94EF3D660F771F02C06AE1D6
:1029100070E0CF01220F331F220F331F265F3F4F7E
:102920001816190644F4F801E80FF91F20830197DF
:10293000261B370BF5CF86E0F8018083CE0102C05D
:1029400080E090E0DF91CF911F910F9108952F9239
:102950003F924F925F926F927F928F929F92AF922F
:10296000BF92CF92DF92EF92FF920F931F93CF937C
:10297000DF93CDB7DEB729970FB6F894DEBF0FBE51
:10298000CDBF4C017B012C01440C551C440C551C43
:10299000620181E1C80ED11CCC9CA001CD9C500DE0
:1029A000500D1124495F5F4F93E0559547959A95D7
:1029B000E1F74F5F5F4F60E070E0C7010E94303E7B
:1029C000F701C0828701960141E050E060E070E0CD
:1029D00086E090E00E94861321E030E0A60166E0E8
:1029E00070E080E090E00E94861329E030E049E04A
:1029F00050E060E070E080E090E00E9486136201A9
:102A0000F9E0CF0ED11C29E030E048E050E060E072
:102A100070E0C6010E94861328E030E049E050E0F3
:102A2000B60180E090E00E948613BE016F5F7F4F89
:102A3000C4010E9463143C01A12CB12C1C0181E053
:102A4000281A3108A614B704D4F5C12CD12C81E082
:102A500090E08C0F9D1F8A0D9B1D99878887C61457
:102A6000D7044CF5A114B10431F4C114D104F9F028
:102A7000C214D304E1F0A214B30419F4C114D104B4
:102A8000B1F0E1E0F0E0EC0FFD1FEC0DFD1D608109
:102A900070E062507109E885F985808190E08701D6
:102AA00025E030E045E050E002970E948613FFEFFA
:102AB000CF1ADF0AD4CF9FEFA91AB90AC3CFE7E034
:102AC0008E169104B4F0F6E04F0E511C870126E0FB
:102AD00030E043E050E060E070E0C2010E94861305
:102AE00023E030E046E050E0B20180E090E00E9458
:102AF000861329960FB6F894DEBF0FBECDBFDF91C7
:102B0000CF911F910F91FF90EF90DF90CF90BF90EA
:102B1000AF909F908F907F906F905F904F903F907D
:102B20002F900895E7E0F0E020E05DE170E0422FB3
:102B3000441F4427441F459F402D1124220F422744
:102B40009B010E2E02C0359527950A94E2F7922F2D
:102B50009170989F902D1124242F2927319738F7B1
:102B6000822F08951F93FC010197889710F00E940F
:102B7000033ECF01089624E0880F991F2A95E1F7BC
:102B80008E9F90018F9F300D9E9F300D1124205CF1
:102B90003F4FE130F105E9F0CF0167E070E00E94BE
:102BA000EF3D6E5F7F4F17EE1603A001179F500D8C
:102BB0001124465F5F4F469FC001479F900D569F6F
:102BC000900D1124C796280F391F379714F02452FF
:102BD0003109C9011F910895CF92DF92EF92FF92C0
:102BE000CF93DF936131710578F46C01E12CF12C06
:102BF000062E04C0F694E794D794C7940A94D2F7AB
:102C0000CD28CE28CF2811F00E94033E61507109D3
:102C10006F3FBFEF7B0749F1F901A081B181ED0161
:102C2000E3E0D595C795EA95E1F7C40FD51FFC0100
:102C3000062E02C0F695E7950A94E2F7E170FF27A9
:102C4000A095B095A770BB2701C0EE0FAA95EAF733
:102C5000F881EF2BE88361507109D901ED91FC9166
:102C600011973196ED93FC93D3CFDF91CF91FF90E5
:102C7000EF90DF90CF900895CF93DF93CDB7DEB77D
:102C80002B970FB6F894DEBF0FBECDBF2BE0E1E16E
:102C9000F1E0DE01119601900D922A95E1F7892B62
:102CA00059F46A30710544F4E1E0F0E0EC0FFD1FE7
:102CB000E60FF71F808101C08FEF2B960FB6F894B7
:102CC000DEBF0FBECDBFDF91CF910895CF93DF93CD
:102CD000CDB7DEB72B970FB6F894DEBF0FBECDBFD2
:102CE0002BE0ECE1F1E0DE01119601900D922A95C6
:102CF000E1F7892B59F46A30710544F4E1E0F0E022
:102D0000EC0FFD1FE60FF71F808101C08FEF2B96A0
:102D10000FB6F894DEBF0FBECDBFDF91CF910895FF
:102D2000DF92EF92FF920F931F93CF93DF938C016B
:102D3000EB016430710510F00E94033E0E94B21551
:102D4000D82EE92EB801CE010E946616F82EB801E1
:102D5000CE010E943C162D2D3E2D37FF02C0295F6B
:102D60003F4F93E0359527959A95E1F7A9016F2D8F
:102D70006802401951091124CA01DF91CF911F91B6
:102D80000F91FF90EF90DF9008950F931F93CF93D3
:102D9000DF9300D000D000D0CDB7DEB7DC011E82BB
:102DA0001D821C821B828AE689831A8255961C9298
:102DB0001E92549759961C921E92589756968D9132
:102DC0009C915797892B69F150968D919C915197C1
:102DD000892B39F152968D919C915397892B09F14A
:102DE0001696ED91FC9117973097D9F08D019E01C1
:102DF0002D5F3F4FAE014B5F5F4FBE016F5F7F4F57
:102E000014968D919C9115970995D80152968D91A4
:102E10009C9153976B817C810E94DB3DF801718FFF
:102E2000608F26960FB6F894DEBF0FBECDBFDF9140
:102E3000CF911F910F9108953F924F925F926F92A1
:102E40007F928F929F92AF92BF92CF92DF92EF923A
:102E5000FF920F931F93CF93DF9300D000D01F9268
:102E6000CDB7DEB7E0E2ED831C821B821A821982A5
:102E70002115310519F48FEF9FEF93C029017A01D5
:102E80005B016C01A90160E070E0C7010E94303E67
:102E9000370100E010E081E0481A510880E2382E46
:102EA0000415150508F04AC0D6011296ED91FC9163
:102EB000139721E030E0AE014B5F5F4FB8016A0D20
:102EC0007B1D8D919C9109950197A9F68D818111AA
:102ED00001C03D828D81893009F43D828D81F301ED
:102EE00081933F014801FFEF8F1A9F0A8A3029F131
:102EF000D60150962D913C915197C4018A0D9B1D8E
:102F000082179307D0F41696ED91FC9117979E01C6
:102F10002F5F3F4FAE014D5F5F4FB70114968D910C
:102F20009C91159709952B813C81F60184859585A7
:102F30008217930718F08401B3CF8401F701E00FE3
:102F4000F11F10820115110551F1D8011197AE0D35
:102F5000BF1D8C918A3011F41C921FC08032C9F0C1
:102F600080E090E02291203229F0019680179107AD
:102F7000C9F70FC08017910760F4A00EB11ED601EB
:102F800050962D913C915197A216B30610F4081B50
:102F9000190BF701E00FF11F1082C80102C080E099
:102FA00090E00F900F900F900F900F90DF91CF91C6
:102FB0001F910F91FF90EF90DF90CF90BF90AF9057
:102FC0009F908F907F906F905F904F903F9008956B
:102FD000CF92DF92EF92FF920F931F93CF93DF93E5
:102FE00000D000D000D0CDB7DEB7DC011E821D823C
:102FF0001C821B828AE689831A8253961C921E9237
:10300000529755961C921E92549757961C921E9258
:10301000569750968D919C915197892B09F466C0D3
:103020001C968D919C911D97892B09F45FC01E966B
:103030008D919C911F97892B09F458C012968D9100
:103040009C911397892B09F451C01696ED91FC9130
:103050001797309709F44AC08D019E012D5F3F4FAD
:10306000AE014B5F5F4FBE016F5F7F4F14968D9136
:103070009C9115970995D8011E968D919C911F974B
:103080006B817C810E94DB3DF801778B668B672B1F
:1030900069F1E12CF12C6801FAE1CF0ED11CF801A5
:1030A00080899189E816F906F8F4D80158962D918F
:1030B0003C9159972F5F3F4FA601B701C8010E946D
:1030C0001C1797FF04C0F801158A148A0FC0E80E78
:1030D000F91ED80154968D919C915597019655965D
:1030E0009C938E935497DBCF138A128A26960FB641
:1030F000F894DEBF0FBECDBFDF91CF911F910F912E
:10310000FF90EF90DF90CF900895CF92DF92EF92F3
:10311000FF920F931F93CF93DF93EC01EA81FB8122
:10312000309719F0888199810995C884D984EA84F7
:10313000FB840DA12CA140E050E060E070E0CE01E6
:103140000E94FD128E859F85892BB1F4CC80DD8095
:10315000EE80FF804C8D5D8D6A8D7B8D0F8D2E8D69
:10316000CE010E94FD12DF91CF911F910F91FF9030
:10317000EF90DF90CF90089500E010E08EA19FA126
:10318000081719071CF7E12CF12C88A599A5E8165A
:10319000F9065CF4A701B801CE010E947C128111EE
:1031A00007C08FEFE81AF80AF0CF0F5F1F4FE6CF86
:1031B000EE85FF85A701B8018C859D850995F1CF26
:1031C000CF93DF93EC01ECA1EE8F8DA18F8F2EA119
:1031D0003FA137FF02C02F5F3F4F35952795F0E0A5
:1031E000E658FF4E449190E0880F991F50E0082E5A
:1031F00002C0559547950A94E2F740FF03C04DEF92
:103200005FEF02C04EEF5FEF240F351F3B8F2A8F19
:10321000E491F0E0816002C0F595E7958A95E2F7C8
:10322000E0FF03C08DEF9FEF02C08EEF9FEF9D8FF9
:103230008C8F66E070E0CE010E9481368CA363E043
:1032400070E0CE010E9481368DA3DF91CF91089569
:10325000CF93DF93009709F461C0EC01198E188EAB
:1032600066E070E00E9481368E8F63E070E0CE01F0
:103270000E9481368F8F2EA13FA137FF02C02F5FA2
:103280003F4FA90155954795EE8DF0E0E658FF4E6A
:1032900024919927880F991F30E0082E02C0359598
:1032A00027950A94E2F720FF03C02DEF3FEF02C0FD
:1032B0002EEF3FEF240F351F3B8F2A8FE491F0E074
:1032C000816002C0F595E7958A95E2F7E0FF03C0BB
:1032D0008DEF9FEF02C08EEF9FEF9D8F8C8F66E08A
:1032E00070E0CE010E9481368CA363E070E0CE01D5
:1032F0000E9481368DA38EA19FA1059699A388A3D4
:1033000085E090E09BA38AA34AA55BA560E070E0FE
:10331000CE018C960E94303E81E001C080E0DF91BA
:10332000CF9108952F923F924F925F926F927F922A
:103330008F929F92AF92BF92CF92DF92EF92FF92C5
:103340000F931F93CF93DF9300D000D0CDB7DEB79C
:103350005C014B016A01122F7B011B0124E0220E4C
:10336000311CCA0104969A83898337016818790849
:103370002E143F040CF445C0DC82CB824B805C8071
:103380004C185D0829813A818B819C812817390767
:10339000A4F1F7FC12C0F50186A197A1E816F90681
:1033A00064F480A591A52B813C81281739072CF462
:1033B0008B819C8197FF0BC01AC09201A301602FE3
:1033C000812F0E94A712882399F380E01BC09201ED
:1033D000A301602F812F0E94A712882341F04B8107
:1033E0005C81B701C5010E947C128111EECFEB8197
:1033F000FC813196FC83EB83C1CF9FEFE91AF90A78
:10340000B4CF81E00F900F900F900F90DF91CF918C
:103410001F910F91FF90EF90DF90CF90BF90AF90F2
:103420009F908F907F906F905F904F903F902F90E4
:1034300008952F923F924F925F926F927F928F9258
:103440009F92AF92BF92CF92DF92EF92FF920F9333
:103450001F93CF93DF9300D000D000D0CDB7DEB75D
:103460009E838D83DC0198960D90BC91A02DBA832C
:10347000A983C12CD12CE12CF12C44244394512C50
:1034800069817A81C616D7060CF076C0AD81BE81FF
:103490009696AD90BC90979700E010E00A151B053A
:1034A00064F4A601B8018D819E810E947C12813056
:1034B00009F05EC00F5F1F4FF1CF0A151B0509F021
:1034C00057C00C9D10010D9D300C1C9D300C11241B
:1034D000C601612C712C181619060CF046C0930118
:1034E000220D331D812C912CFC0131975F01801638
:1034F0009106BCF5A501B4018D819E812B833C838F
:103500000E947C122B813C81A401420F531FFA01BF
:1035100093E0F595E7959A95E1F7AD81BE819A968E
:103520006D917C919B97E617F707B8F4EA0FFB1FA4
:1035300047705527811109C0C20101C0880F4A9503
:10354000EAF7809594A5892307C0C20101C0880FBE
:103550004A95EAF794A5892B84A7BFEF8B1A9B0A9B
:10356000C6CFC501601A710AB6CFFFEFEF1AFF0A86
:103570004FEFC41AD40A84CFB2E0EB16F104D1F0B5
:1035800058F4EA94EF2851F5AD81BE8158968D919B
:103590009C91599701961BC043E0E416F10481F019
:1035A00054E0E516F104D1F4ED81FE81808D918D1A
:1035B000409612C0ED81FE81808D918D04960CC0E5
:1035C000AD81BE8158968D919C91599708965996D8
:1035D0009C938E93589702C0918F808F26960FB63A
:1035E000F894DEBF0FBECDBFDF91CF911F910F9139
:1035F000FF90EF90DF90CF90BF90AF909F908F9013
:103600007F906F905F904F903F902F900895FC01B6
:1036100066A177A120E030E026173707BCF4F90156
:1036200043E0F595E7954A95E1F7E80FF91F44A5C2
:1036300050E0F901E770FF2702C055954795EA95DC
:10364000E2F740FD05C02F5F3F4FE6CF80E00895D1
:1036500081E008952F923F924F925F926F927F92F6
:103660008F929F92AF92BF92CF92DF92EF92FF9292
:103670000F931F93CF93DF9300D000D0CDB7DEB769
:103680006C015B017A01922F702F2501150124E056
:10369000220E311C4A0134E0830E911C662463948F
:1036A000712C82010A191B09241435040CF44BC037
:1036B000FC82EB822B813C812E193F09EB81FC813E
:1036C0008E169F06E4F1A801672F892F7A839983CC
:1036D0000E94A7127A819981882359F1D601969682
:1036E0004D915C919797EB81FC81E49F9001E59F60
:1036F000300DF49F300D1124240D351DF90183E0A8
:10370000F595E7958A95E1F79A964D915C919B978F
:10371000E417F50770F4EC0DFD1D27703327A301A6
:1037200002C0440F551F2A95E2F79A0184A5282B61
:1037300024A7AB81BC811196BC83AB83BBCFFFEFC9
:103740004F1A5F0AAECF0F900F900F900F90DF913E
:10375000CF911F910F91FF90EF90DF90CF90BF908E
:10376000AF909F908F907F906F905F904F903F9021
:103770002F900895CF93DF93009711F1DC015296BB
:10378000ED91FC9153973097D9F0EC01488D598D0C
:103790004150510960E070E08889998909959DA39D
:1037A0008CA34A8D5B8D41505109EA89FB8960E009
:1037B00070E08889998909959FA38EA381E001C053
:1037C00080E0DF91CF910895FC0180A991A9309705
:1037D000A1F026A537A544A555A52417350720F047
:1037E000C901841B950B0895880F991F880F991F95
:1037F000841B950B820F931F089580E090E008953D
:1038000097FD12C0892B19F477FF06C00AC0672BF9
:1038100059F482E090E00895672B31F083E090E066
:10382000089581E090E0089580E090E00895CF92BF
:10383000DF92EF92FF920F931F93CF93DF93182F96
:103840007B01EA0160E070E0C7010E94303E83EB3B
:1038500092E10E947A396C01612F70E08E0197012C
:1038600040E050E00E949910CE0DDF1D2197188294
:10387000C6010E94EB39C701DF91CF911F910F91D3
:10388000FF90EF90DF90CF9008950F9300E09C01A0
:1038900046EC53E161E378ED82E00E948A280F91C3
:1038A00008950F931092AA011092A90101E09C01C2
:1038B0004CE350E266E178E988E00E948A280F91A3
:1038C00008950F931092AA011092A90101E09C01A2
:1038D0004CE550E262E275EC87E00E948A280F9185
:1038E00008954115510579F0FB0101900020E9F799
:1038F0003197E61BF70BEE0FFF1FEE0FFF1F3496FD
:10390000DA01ED93FC932115310529F089E090E06F
:10391000F9019183808308950F931F93DC01FA01CD
:10392000A7FF0BC06115710529F48EE280838183A6
:10393000128209C0615071098F7789019F0140E0AF
:1039400050E00E9499101F910F9108957F928F92DD
:103950009F92AF92BF92CF92DF92EF92FF920F931E
:103960001F93CF93DF935B01EA014901702ECC24B2
:10397000C3940C1511F0C12C0FC0E12CF12C870160
:10398000E39429E030E048E350E0BE01675F7F4FF9
:10399000C5010E960E944038D12CE12CF12C01E09B
:1039A00010E020E030E081E0781203C000E010E099
:1039B0009801BE01655F7F4FA401C50140960E943A
:1039C0008638DF91CF911F910F91FF90EF90DF909C
:1039D000CF90BF90AF909F908F907F90089561118E
:1039E00003C0423069F507C04130C1F5613019F0BC
:1039F000623019F008950C943C0BE091D601F091DF
:103A0000D701309721F40E94BF250C94720B2289B4
:103A1000338946895789848995898417950718F4CD
:103A2000138A128AF0CF2F5F3F4F841B950B281704
:103A3000390718F0938B828BE6CF338B228BE3CF41
:103A4000413061F4E091D601F091D7013097D9F27D
:103A5000828993890097B9F20197ECCF08950F936B
:103A60001F93CF93DF931092A6011092A50110929D
:103A7000A8011092A701C091D401D091D501009165
:103A8000D6011091D701CB31D10550F0AE0160E0E5
:103A900070E0C8010E94303E6B97F801D18FC08F53
:103AA0008091D6019091D701009759F022E530E03E
:103AB000FC013587248720E330E0378726870E9482
:103AC000E8178091D6019091D701009749F022E242
:103AD00033E2FC0137832683158214820E94E817A3
:103AE0008091D6019091D701009749F029E033E207
:103AF000FC0133872287118610860E94E8178FEE1B
:103B00009CE19093E3038093E2031092E10310920F
:103B1000E003DF91CF911F910F9108952F923F9273
:103B20004F925F926F927F928F929F92AF92BF92CD
:103B3000CF92DF92EF92FF920F931F93CF93DF9379
:103B400000D000D01F92CDB7DEB719821A821B8237
:103B50001C820E94920D4091DC035091DD034E5F68
:103B60005F4FC12CD12C760101E010E020E030E065
:103B700061E070E082E190E00E94863852E0452EDC
:103B8000512C912C80E3890D8D8389E0682E712C56
:103B9000812CE091DC03F091DD0391100EC08CE3E9
:103BA00089839DE29A839B83808149E0242E312C76
:103BB000A12CB12C882371F127C084E0981210C089
:103BC00095E499838EE48A8394E59B83808129E040
:103BD000222E312C35E4A32EB12C8430A9F41AC046
:103BE00080E289839D819A3339F0892F9B3331F0AC
:103BF0009C3329F483E203C08AE201C080E38A8314
:103C000080E28B83130152018081981212C081815E
:103C100088120FC0E12CF12C8701E39429E030E0F9
:103C20004FE050E0B101C5010E94403811E000E0D2
:103C30000AC029E030E04FE050E0B101C5010E9428
:103C4000FE3810E001E01C8240E0B101C5010E9495
:103C5000870B75019EE0E90EF11C40E0B101C70140
:103C60000E94870B610188E0C80ED11C40E0B601BC
:103C7000C5010E94870B40E0B601C7010E94870B77
:103C8000C12ED12CE12CF12C10E020E030E0B1016C
:103C90006E5F7F4FAE014F5F5F4FC50102960E947E
:103CA000863883949D819D5F9D83C3010A963C0164
:103CB00094E089126ECF939480E1480E511C95E0F8
:103CC000991260CF0F900F900F900F900F90DF918F
:103CD000CF911F910F91FF90EF90DF90CF90BF9009
:103CE000AF909F908F907F906F905F904F903F909C
:103CF0002F900895EF92FF920F931F93CF93DF932E
:103D00008C01EB010E942F1DBE01C8010E944F3A99
:103D10009093A4018093A301BE01C8010E944F3A71
:103D20007C01BE016F5F7F4FC8010E944F3AF7FCD4
:103D300007C08E159F0524F09C012E193F0902C073
:103D400020E030E03093A2012093A101E091D60160
:103D5000F091D701309759F0318B208B8CE393E2AF
:103D60009383828311830083CF010E94E8170E940E
:103D7000BF25DF91CF911F910F91FF90EF900C9491
:103D8000720BAF92BF92DF92EF92FF920F931F934D
:103D9000CF93DF93CDB7DEB768970FB6F894DEBF49
:103DA0000FBECDBF611106C0423009F0F2C00E94C3
:103DB0003C0BFFC0413009F0FCC0613079F062304B
:103DC00009F0F7C0E091DC03F091DD0380818F5FA3
:103DD000853010F48083C4C01082C2C0A091DC037F
:103DE000B091DD0311962C9111979C919923F9F2D2
:103DF000943099F0905D822F880F280F920F9A339C
:103E000009F4D5C09B3309F4B0C09C3309F4BFC09A
:103E1000992369F2913009F0A9C08D010E5F1F4FFF
:103E200084E1EBEAF1E0DF011D928A95E9F7E12CEC
:103E3000F12CF701E95DFE4F5F01D08044E150E0D5
:103E4000BE016F5F7F4F8D2D0E94171CBE016F5FFB
:103E50007F4FC8010E94423E892B09F06FC060E08D
:103E600070E088ED92E20E94560B44E150E06BEA6C
:103E700071E0D50111968C910E94171CB9E0DB12FC
:103E80000DC080E390E30E947A3990930101809302
:103E9000000160E070E00E947A1E8BC0EAE0DE1252
:103EA00022C01D8A1E8A1F8A188ECE0145960E9446
:103EB000EB0F83E38093AB0195E39093AC01809388
:103EC000AD0194E39093AE018093AF019093B00164
:103ED0004D895E896F89788D21E081EB91E00E94A8
:103EE00051111092BB010E942F1DEBEAF1E0F093FB
:103EF000A801E093A70101900020E9F73197EB5A60
:103F0000F140F093A601E093A501A091D601B091F4
:103F1000D701109781F05196FC93EE93509784EA65
:103F200093E213969C938E93129711961C921E9275
:103F3000CD010E94E8170E94BF2514C0F2E0EF0EE9
:103F4000F11C88E0E816F10409F073CFE091DC037E
:103F5000F091DD0332968DE0DF011D928A95E9F73D
:103F60000E948E1D0E94720B24C090E39D012E5F63
:103F70003F4FF90101900020E9F73197E21BF30B65
:103F8000EC30F10568F7EA0FFB1F9283E9CF93E26B
:103F9000EDCF413071F4E091DC03F091DD038181DC
:103FA0008F5F843010F48183DBCF1182D9CF9AE206
:103FB000DDCF68960FB6F894DEBF0FBECDBFDF91A0
:103FC000CF911F910F91FF90EF90DF90BF90AF9036
:103FD00008950F93CF93DF93EB012091020130916D
:103FE000030137FF0CC0009751F09093C0018093FC
:103FF000BF010E947A39909303018093020160917E
:10400000BF017091C00101E09E0147ED50E286E0E2
:104010000E948A28DF91CF910F9108951092AA01F2
:104020001092A901BC0180E090E00C94E91F8091FE
:10403000090190910A010E94373A8FEF9FEF909308
:104040000A018093090180910B0190910C0197FF67
:104050000E94EB398FEF9FEF90930C0180930B013F
:104060004091F2035091F30360E070E08091F0031F
:104070009091F1030C94303E6130710549F020F0CD
:104080006230710579F008950E9417200C943C0B62
:104090000E94172061E070E081E59CE10E94560BD0
:1040A0000C94FA260E94172062E070E081E59CE102
:1040B0000E94560B0C948626AF92BF92CF92DF924D
:1040C000EF92FF920F931F93CF93DF93CDB7DEB79D
:1040D000C85CD1090FB6F894DEBF0FBECDBF6B012F
:1040E000CE0101967C0188ECF70111928A95E9F7DF
:1040F000672B29F40E9417200E943C0B46C082E2E5
:1041000095EC0E947A395C0108EC10E0970141E0DF
:1041100050E0B601615071090E949910C5010E94DA
:10412000EB39F70101900020E9F73197EE19FF090B
:104130003597A8F405E110E022E530E040E050E0DA
:1041400060E070E081E39BE40E947F0C0E94720BB0
:1041500068E873E180E090E00E94312A16C00E9476
:104160001720B60181E69CE10E94560BC7010E9410
:104170009D0D0E94720B8FEA9DE29093E303809362
:10418000E2031092E1031092E003C853DF4F0FB631
:10419000F894DEBF0FBECDBFDF91CF911F910F917D
:1041A000FF90EF90DF90CF90BF90AF900895CF93A6
:1041B000DF93EB01209791F40E9417208091020178
:1041C000909103010E94EB398FEF9FEF90930301D1
:1041D00080930201DF91CF910C943C0B0E94172039
:1041E000BE018EE090E20E94560BBE016150710943
:1041F0008091020190910301DF91CF910C947A1E7E
:104200004F925F926F927F928F929F92AF92BF92E6
:10421000CF92DF92EF92FF920F931F93CF93DF9392
:10422000CDB7DEB72E970FB6F894DEBF0FBECDBF69
:104230001E861D861C861B860E94920DE12CF12C89
:104240008701E39425E030E043E550E065E070E06D
:1042500080E090E00E9487379E01235F3F4FAE01D0
:10426000455F5F4F64EE73E080E090E00E94711C58
:104270004B855C8584E590E0841B950B969587952E
:104280009E878D87E12CF12C870129E030E060E0EA
:1042900070E00E9440388D859E85C12CD12C76011E
:1042A00001E010E020E030E044EE53E062E070E036
:1042B00002960E94863880E00E94030D81E00E94F1
:1042C000030DE090F003F090F1031A86198618862A
:1042D0001F828AE68D831E82E114F10441F4E0918D
:1042E000F003F091F103309709F0B8C0E7C0D701AF
:1042F00012968D919C911397892B89F31696ED91C7
:10430000FC911797309759F31A968D919C911B97B2
:10431000892B29F39E01295F3F4FAE01475F5F4F15
:10432000BE016B5F7F4F14968D919C9115970995F7
:10433000F70184899589608D718D0E94DB3D3B0179
:104340004C01A12CB12C6701FCE1CF0ED11CF7016F
:10435000808D918DA816B90610F6689E8001699E21
:10436000100D789E100D11240A0D1B1DD7015696B5
:104370008D919C9157970817190708F0B0CF1C82B0
:104380001B821A8219825A964D905C905B97A2010B
:1043900060E070E0C6010E94303E92012150310978
:1043A000D7011296ED91FC911397A601B8018D915A
:1043B0009C910995D7015A96ED91FC915B97EE0D72
:1043C000FF1D138E1696ED91FC9117979E012D5FA0
:1043D0003F4FAE014F5F5F4FB60114968D919C9198
:1043E0001597099529813A81F7018089918982176A
:1043F000930768F4F60101900020E9F73197EC1972
:10440000FD0929F0EE0DFF1D138ED701DBCFD7017B
:104410001A96ED91FC911B972F81388518968D91F6
:104420009C9119978A149B0449F4829EA001839E53
:10443000500D929E500D112401E008C0A29EA001D3
:10444000A39E500DB29E500D112400E0960160E035
:1044500070E00995BFEFAB1ABB0A79CF2489358983
:10446000A688B788808D918D8A159B0538F547E21F
:10447000429FC001439F900D1124B5010E94DB3D76
:104480006B01E12CF12C8701E39420E330E048E458
:1044900050E069E070E088E490E00E94873787E2AE
:1044A00090E0B5010E94DB3D9B01B601675F7F4F45
:1044B00043E050E087E490E00E9440380E94720B95
:1044C0002E960FB6F894DEBF0FBECDBFDF91CF9111
:1044D0001F910F91FF90EF90DF90CF90BF90AF9022
:1044E0009F908F907F906F905F904F9008950C9465
:1044F0000021611108C04230A9F587FF41C00E9428
:1045000017200C943C0B4130D9F56130B1F062308A
:1045100009F00895E091F003F091F103309711F460
:104520000C94002184899589019626893789821700
:104530009307B0F7958B848BF3CFA091F003B091E4
:10454000F1031097E9F01E96ED91FC911F973097BB
:10455000B9F054966D917C9155971C968D919C91D4
:104560001D970994413061F4E091F003F091F1035B
:104570003097B1F284899589009791F20197DACF4B
:104580000895E091DC03F091DD0383E2DF011D92E9
:104590008A95E9F781EC9EE19093E3038093E2032F
:1045A0001092E1031092E0030E948E1D0C94720B96
:1045B000809100019091010197FD08C00E94EB39A4
:1045C0008FEF9FEF90930101809300010C94C12223
:1045D000EF92FF920F931F93CB01880F991F860FC5
:1045E000971FBA01660F771F460F571FBA016E5FFC
:1045F0007F4FE12CF12C8701E39423E030E043E08E
:1046000050E002960E9440381F910F91FF90EF906A
:104610000895CF92DF92EF92FF920F931F93CB01F9
:10462000BA01A901C12CD12C760101E010E020E0F3
:1046300030E00E9486381F910F91FF90EF90DF903D
:10464000CF9008954115510571F0FB0101900020B4
:10465000E9F73197E61BF70BEE0FFF1FEE0FFF1F79
:10466000DA01ED93FC932115310529F086E090E005
:10467000F9019183808308958F929F92AF92BF92A8
:10468000CF92DF92EF92FF920F931F93CF93DF931E
:104690005C016B018A0179012091A1013091A20195
:1046A000E216F30620F0E090A501F090A601C216F4
:1046B000D306C0F5C7018C0D9D1D2817390718F4C6
:1046C0007901EC18FD08E114F10479F16091A3017E
:1046D0007091A4016C0D7D1D40E050E0C5010E9469
:1046E0003D37E80100E010E08AE0982E9DE2892E37
:1046F00041E050E0BE01C5010E94C036019781F43F
:1047000088818C3239F48AE0C816D10410F488828A
:1047100001C098820F5F1F4F21960E151F0541F7AC
:10472000C80105C08FEF9FEF02C080E090E0DF91ED
:10473000CF911F910F91FF90EF90DF90CF90BF909E
:10474000AF909F908F900895CF93DF93E091A50154
:10475000F091A601E901E217F30708F4EF016E17E3
:104760007F07B8F4CE01860F971FE817F90718F4F2
:10477000EF01C61BD70B209779F0CA012091A70142
:104780003091A801620F731FAE010E94153ECE0149
:1047900005C08FEF9FEF02C080E090E0DF91CF91E6
:1047A0000895CB01880F991F860F971FBA01660FD6
:1047B000771F460F571FBA016E5F7F4F23E030E02F
:1047C00043E050E002960C94FE3895E0969FF0018D
:1047D000979FF00D11244F5F5F4F949FB001959FFD
:1047E000700D112425E030E045E050E0CF018C96BB
:1047F0000C94FE380F931F93CF93DF930E94920D7A
:10480000C091D603D091D703209709F440C0CE01C0
:104810000E94071B8130D9F10F8D10E04C8D5D8D0A
:104820004F5F5F4F6A8D7B8D2E8DCE010E94921956
:104830004C8D5D8D813029F44F5F5F4F5D8F4C8FC4
:1048400023C06A8D7B8D0F8D2E8DCE010E942A1B79
:10485000CE010E94191ACE010E94071B813089F4F3
:10486000CE010E948518088D198DCE010E9428194D
:10487000EE89FF89309759F0B8018C899D89099597
:1048800006C0CE010E94E018CE010E9485188091DA
:10489000070190910801019631F0DF91CF911F91AE
:1048A0000F910C94720BDF91CF911F910F9108958E
:1048B00080910701909108010E94373A8FEF9FEF96
:1048C00090930801809307014091D4035091D50340
:1048D00060E070E08091D6039091D7030C94303E55
:1048E000CF93DF93EB010E94582460E070E088EFE3
:1048F00096E20E94560BBE018AEADF91CF910C949A
:10490000B42D0F931F93CF93DF93611134C04230C6
:1049100041F40E945824DF91CF911F910F910C9484
:104920003C0B413009F0BBC0C091D603D091D703F6
:104930002097D9F0CE010E94071B8130B1F00F8D76
:1049400010E04C8D5D8D6A8D7B8D615071092E8DCF
:10495000CE010E949219813041F48A8D9B8D01977E
:104960009B8F8A8FCE010E948518DF91CF911F9176
:104970000F910C94720B623001F5413009F08FC039
:10498000C091D603D091D703209779F3CE010E942E
:10499000071B813051F30F8D10E04C8D5D8D6A8DBA
:1049A0007B8D6F5F7F4F2E8DCE010E9492198130DB
:1049B000E1F68A8D9B8D0196D3CF613009F06FC0EF
:1049C000411123C0C091D603D091D703209769F23B
:1049D000CE010E94071B813041F20F8D10E00F5F66
:1049E0001F4F037011274C8D5D8D6A8D7B8D2E8D31
:1049F000CE010E949219813009F0B7CF8F8D90E0DF
:104A00000196837099278F8FADCF423009F047C050
:104A1000C091D603D091D703209709F4A6CFCE0139
:104A20000E94071B813009F4A0CF0F8D10E04C8D40
:104A30005D8D4F5F5F4F6A8D7B8D2E8DCE010E9405
:104A400092194C8D5D8D813029F44F5F5F4F5D8FE2
:104A50004C8FEBCF6A8D7B8D0F8D2E8DCE010E94FA
:104A60002A1BCE010E94191ACE010E94071B813019
:104A700091F4CE010E948518088D198DCE010E94F7
:104A80002819EE89FF89309709F46FCFB8018C8916
:104A90009D8909956ACFCE010E94E01863CFDF910E
:104AA000CF911F910F9108959A012F5F3F4F032ED1
:104AB000000C440B550B072E000C880B990B0E9421
:104AC0008429CB010895AF92BF92CF92DF92EF92EB
:104AD000FF920F931F93CF93DF93CDB7DEB72B9742
:104AE0000FB6F894DEBF0FBECDBF0E94920D2EE22E
:104AF00030E042E250E060E070E080E090E00E9450
:104B0000FE38E091D603F091D703208D318DA4E6D5
:104B1000B0E00E94CC3DAB01BC0120E0CE0101968B
:104B20005C010E945111F50101900020E9F73197D5
:104B3000EA19FB09EE0FFF1FEE0FFF1FC12CD12C4E
:104B4000760101E010E020E030E0A5016AE270E0CB
:104B500084E590E08E1B9F0B0E9486382B960FB643
:104B6000F894DEBF0FBECDBFDF91CF911F910F91A3
:104B7000FF90EF90DF90CF90BF90AF9008958F920D
:104B80009F92AF92BF92CF92DF92EF92FF920F93DC
:104B90001F93CF93DF9300D000D000D0CDB7DEB706
:104BA0000E94920D0091D6011091D7011E821D82A4
:104BB0001C821B828AE689831A820115110541F441
:104BC000E091D601F091D701309709F066C08BC013
:104BD000D8011A968D919C911B97892B89F3169673
:104BE000ED91FC911797309759F312968D919C9106
:104BF0001397892B29F39E012D5F3F4FAE014B5F29
:104C00005F4FBE016F5F7F4F14968D919C911597FA
:104C10000995A12CB12CE12CF12CC12CD12C4801EF
:104C2000BAE18B0E911CF80180899189E816F9068A
:104C300038F6F801208D318D2F5F3F4FA401B70169
:104C4000C8010E941C1797FDBBCFE80EF91ED801C2
:104C500052962D913C915397C216D306D0F056969A
:104C60008D919C915797820F931FC816D90688F48F
:104C70001A96ED91FC911B979401A50160E070E0FC
:104C800018968D919C91199709958B819C81A80EFE
:104C9000B91EBFEFCB1ADB0AC6CFE288F3880489BE
:104CA00015894689578940175107E8F430E3349F46
:104CB000C001359F900D1124B8010E94DB3DFB011E
:104CC0003E9DC0013F9D900D1124B8010E94DB3D27
:104CD000E12CF12C8701E3949F0142E050E082E552
:104CE00090E00E94403826960FB6F894DEBF0FBEC3
:104CF000CDBFDF91CF911F910F91FF90EF90DF908B
:104D0000CF90BF90AF909F908F9008950F931F9377
:104D1000CF93DF93C091D403D091D5030091D603F4
:104D20001091D703CD32D10550F0AE0160E070E0B4
:104D3000C8010E94303EAC97F801D3A7C2A7E0910A
:104D4000D603F091D703309791F182A593A54197AF
:104D500040F08AE090E097A386A38EE090E091A7D0
:104D600080A783E695E29383828389E395E091832C
:104D7000808321ED33E2378326839583848325EE78
:104D800033E2338722879187808728EE32E23787A4
:104D900026879587848784E595E2938B828B118A99
:104DA000108A80E794E2978B868B158A148A81E8B3
:104DB00094E29093E3038093E2031092E103109254
:104DC000E0039F014AEF53E26CEB72E080E090E079
:104DD0000E949B0F90930801809307018091D60356
:104DE0009091D703DF91CF911F910F910C942819C7
:104DF0000C9486260F931F93CF93DF938FEF8093AE
:104E00000601C091D803D091D9030091DA03109123
:104E1000DB03C333D10580F0AE0160E070E0C80170
:104E20000E94303EE297F801D1ABC0AB85E090E044
:104E300093A782A711A610A6E091DA03F091DB03F5
:104E4000309741F18AE190E0918F808F8EE090E081
:104E5000938F828F83E59DE29383828389E395E03C
:104E60009183808322E33DE2338722879187808785
:104E70002EE13DE237872687958784878FE09DE284
:104E8000938B828B118A108A85EA91E3978B868BAC
:104E9000158A148A9F0140E75BE262E470E080E0DB
:104EA00090E00E949B0F909305018093040189EA92
:104EB00097E29093E3038093E2031092E103109250
:104EC000E003E091DA03F091DB03309729F1158ECE
:104ED000148E178E168E808D918D97FD0196959567
:104EE000879591A380A3828D938D97FD01969595CB
:104EF000879593A382A385E090E093A782A711A64C
:104F000010A615A614A617A616A6CF01DF91CF915D
:104F10001F910F910C94BA1BDF91CF911F910F91AC
:104F2000089580910401909105010E94373A8FEF16
:104F30009FEF90930501809304014091D803509115
:104F4000D90360E070E08091DA039091DB030C9468
:104F5000303E611107C0423009F06BC00E949127BA
:104F60000C943C0B413009F073C0613069F0623041
:104F700009F00895809106018F3F11F482E007C087
:104F80008D7FE1F783E003C0809106018F5F8093FE
:104F9000060180910601843010F010920601809184
:104FA00006018130A9F028F0823009F1833081F1C7
:104FB0000895E091DA03F091DB03309709F448C0DB
:104FC000848D958D019709F443C08FEF9FEF1BC02F
:104FD000E091DA03F091DB033097D1F1868D978D64
:104FE0000197B1F1158E148E8FEF9FEF1FC0E091E6
:104FF000DA03F091DB03309759F1848D958D01969A
:1050000039F181E090E0958F848F178E168E089588
:10501000E091DA03F091DB033097D1F0868D978D24
:105020000196B1F0158E148E81E090E0978F868FF7
:105030000895413069F4809106018F3F19F4109270
:105040000601A7CF8D7F8130D1F340930601A1CF18
:105050000895CF93DF9390E0FC01E755FE4E249135
:10506000FC01EB56FE4E8491882361F190E0880F9D
:10507000991FFC01EF57FE4EC591D491FC01E557F5
:10508000FE4EA591B491611109C09FB7F894888133
:10509000209582238883EC912E230BC0623061F42B
:1050A0009FB7F8943881822F809583238883EC9171
:1050B0002E2B2C939FBF06C08FB7F894E8812E2B20
:1050C00028838FBFDF91CF9108953FB7F8948091E7
:1050D000F9039091FA03A091FB03B091FC0326B56C
:1050E000A89B05C02F3F19F00196A11DB11D3FBF20
:1050F000BA2FA92F982F8827820F911DA11DB11DAE
:10510000BC01CD0142E0660F771F881F991F4A95A9
:10511000D1F708952F923F924F925F926F927F92B4
:105120008F929F92AF92BF92CF92DF92EF92FF92B7
:105130000F93CF93DF931F92CDB7DEB7982E6B01FD
:105140002A011901E090F203F090F303A090F0031C
:10515000B090F1038DE1E816F10460F0A70160E082
:1051600070E0C5010E94303EECE1EE1AF108F50155
:10517000F38EE28E8091F0039091F103009759F045
:1051800028E330E0FC01318B208B27E230E0338BC9
:10519000228B0E94C5168091F0039091F103009735
:1051A00049F021E73CE1FC01378326831582148214
:1051B0000E94C5168091F0039091F103009749F089
:1051C00026EA3CE1FC0133872287118610860E9483
:1051D000C5164CE050E064EE73E0892D0E94171C68
:1051E000C6010E947A396C0190930C0180930B01E7
:1051F0004C01002311F0689487F8C6010E947910D1
:105200003C011982E12CF12CA12CB12CA614B7047D
:1052100019F1E114F10419F4EE24E394F12C21E0E6
:1052200030E0AE014F5F5F4FB501C6010E940F0B2A
:10523000019719F0E12CF12C0FC089818C3241F0DB
:105240008A3021F4FFEFEF1AFF0A02C0882321F011
:105250008FEFA81AB80ADACF002319F0EFEFEE1A91
:10526000FE0AE091F003F091F103309759F0F78ACC
:10527000E68A8CE89CE19383828391828082CF01CD
:105280000E94C5168091F0039091F103009739F0C8
:10529000FC0157864686158614860E94C51620E0B6
:1052A00030E047E752E268EE73E080E090E00E9471
:1052B0009B0F90930A018093090189E792E29093F2
:1052C000E3038093E2039092E1038092E003E09194
:1052D000F003F091F103309711F0358A248A0E948F
:1052E00000210F90DF91CF910F91FF90EF90DF9011
:1052F000CF90BF90AF909F908F907F906F905F9076
:105300004F903F902F900895CF92DF92EF92FF92AF
:105310000F931F93CF93DF9300D000D0CDB7DEB7AC
:105320006217730784079507FCF489019A016B01E2
:105330007C01A9019801261B370B480B590B69F01A
:1053400029833A834B835C830E944B3D29813A81B8
:105350004B815C810E94783D03C060E070E0CB012E
:105360006C0D7D1D8E1D9F1D0F900F900F900F9047
:10537000DF91CF911F910F91FF90EF90DF90CF9031
:105380000895833081F028F4813099F08230A1F0C3
:1053900008958730A9F08830B9F08430D1F4809135
:1053A00080008F7D03C0809180008F778093800084
:1053B000089584B58F7702C084B58F7D84BD08952C
:1053C0008091B0008F7703C08091B0008F7D809373
:1053D000B00008951F93CF93DF93282F30E0F90199
:1053E000E354FE4E8491F901E755FE4ED491F90144
:1053F000EB56FE4EC491CC23C9F0162F81110E94AA
:10540000C129EC2FF0E0EE0FFF1FE557FE4EA591EE
:10541000B4918FB7F894111105C09C91ED2FE095D0
:10542000E92302C0EC91ED2BEC938FBFDF91CF917C
:105430001F9108958E3008F08E508770806480939D
:105440007C0080917A00806480937A0080917A0059
:1054500086FDFCCF809178002091790090E0922B1E
:1054600008958F929F92AF92BF92CF92DF92EF9268
:10547000FF926B017C010E9465284B015C01C11405
:10548000D104E104F104F1F00E946528DC01CB01B4
:1054900088199909AA09BB09883E9340A105B1055D
:1054A00070F321E0C21AD108E108F10888EE880EF5
:1054B00083E0981EA11CB11CC114D104E104F104C5
:1054C00019F7DDCFFF90EF90DF90CF90BF90AF90B6
:1054D0009F908F9008952FB7F8946091F503709185
:1054E000F6038091F7039091F8032FBF08951F9260
:1054F0000F920FB60F9211242F933F938F939F9388
:10550000AF93BF938091F5039091F603A091F703B9
:10551000B091F8033091F40323E0230F2D3720F4EA
:105520000196A11DB11D05C026E8230F0296A11DFD
:10553000B11D2093F4038093F5039093F603A09399
:10554000F703B093F8038091F9039091FA03A091C7
:10555000FB03B091FC030196A11DB11D8093F903DB
:105560009093FA03A093FB03B093FC03BF91AF9118
:105570009F918F913F912F910F900FBE0F901F9091
:1055800018959C0184E0D90190E0EC91F0E0EF5790
:10559000FF4EE491EC939F5F14969430B1F78150E5
:1055A0002F5F3F4F8111EFCF08950F931F93CF933C
:1055B000DF939B0190E1899F80011124A0E0B0E07E
:1055C000FD01E00FF11FE40FF51F60E070E0E9015D
:1055D000C60FD71F91918881982798836F5F7F4F5F
:1055E00064307105A1F714962C5F3F4FA031B105CF
:1055F00039F7DF91CF911F910F9108959C01CB0155
:105600000197889770F5CB01079661E170E00E94E1
:10561000EF3D24303105E9F060F4660F771F21304B
:10562000310599F022303105E1F4FB01E55CFE4FD4
:1056300015C027303105B9F02830310591F4660FD7
:10564000771FFB01E15DFE4F09C0FB01EF5BFE4FE1
:1056500005C0660F771FFB01EB5CFE4F80819181D7
:1056600008950E94033E80E090E00895FC01A0812F
:10567000B0E0FD017597ED39F10550F477FD08C0F4
:105680006A177B072CF457FD03C04A175B0714F019
:105690000E94033E4A9FF0014B9FF00D5A9FF00D70
:1056A00011246E0F7F1FAB014770552733E07595AE
:1056B00067953A95E1F76F5F7F4FFC01E60FF71FA3
:1056C00081E090E001C0880F4A95EAF7222319F0A3
:1056D0009081892B03C080959081892380830895D0
:1056E0008F929F92AF92BF92CF92DF92EF92FF92F2
:1056F0000F931F93CF93DF93C091DA03D091DB0315
:10570000209709F4CAC028A139A18C8D9D8D280F3E
:10571000391F39A328A34AA15BA18E8D9F8D840FC9
:10572000951F9BA38AA3488D598D37FF05C09A0109
:105730002150310939A328A328A139A124173507FD
:1057400014F019A218A22A8D3B8D97FF04C0C9013D
:1057500001979BA38AA38AA19BA18217930714F0A8
:105760001BA21AA2EA81FB81309719F088819981E6
:105770000995CE010E94E41B5C0108A119A1EAA0D1
:10578000FBA08EA49FA4C12CD12CCA14DB0409F465
:1057900069C0C114D10439F46E8D7F8D8C8D9D8DBF
:1057A0000E94001C22C0F401F695E795F695E79556
:1057B000EC0FFD1F82A990E0940123703327220F84
:1057C000331F02C0959587952A95E2F78370992734
:1057D00028A939A98114910429F44901880C991C3C
:1057E000880C991C21E0821A910802969C01237072
:1057F00033272115310549F40150110917FF29C03C
:10580000088D198D0150110924C02130310559F43A
:1058100081E0E81AF108F7FE1CC0EA8CFB8C21E05D
:10582000E21AF10816C02230310549F40F5F1F4F0C
:10583000888D998D081719070CF044C00AC08FEFA6
:10584000E81AF80A8A8D9B8DE816F90614F0E12C07
:10585000F12CA701B801CE010E945F132FEFC21AED
:10586000D20A93CFEC8CFD8CE114F10429F48E8DD7
:105870009F8D892B09F456C008A919A9000F111F83
:10588000000F111FCE010E94E41B019680179107A3
:10589000E0F080E0813009F468C0809104019091CB
:1058A0000501019609F4ACC0DF91CF911F910F91D2
:1058B000FF90EF90DF90CF90BF90AF909F908F9030
:1058C0000C94720B00E010E0C4CF6E8D7F8DC70189
:1058D0000E94001C2EA53FA52F5F3F4F20173107C8
:1058E00010F020E030E03FA72EA7F901F695E795EC
:1058F000F695E79523703327220F331FEC0FFD1F1A
:1059000043E050E0022E01C0440F0A94EAF74095AC
:1059100032A943238370992701C0880F2A95EAF79B
:10592000842B82AB81E0B6CF8CA59DA52EA53FA58B
:105930008217930709F4B1CF019628A939A9220F3C
:10594000331F220F331F82179307C0F020E080E03F
:105950002CA78DA7EE81FF81309739F040E050E011
:1059600060E070E08C819D810995CE010E94E41B6E
:105970002AA53BA528173907B8F203C0282F892F7D
:10598000E7CF4CA15DA188A199A14817590739F427
:105990004EA15FA18AA19BA14817590729F0EE8566
:1059A000FF85309781F479CF2F5F3F4F3BA72AA720
:1059B00088A599A5019699A788A7CE010E94BA1B30
:1059C000813069F36ACF4EA15FA16CA17DA18C8566
:1059D0009D8509958AA59BA5069708F05ECF68A5C9
:1059E00079A56115710509F458CF19A618A6EE8995
:1059F000FF89309709F451CF8C899D8909954DCF46
:105A0000DF91CF911F910F91FF90EF90DF90CF909A
:105A1000BF90AF909F908F9008950C94FA269A01B2
:105A20002F5F3F4F032E000C440B550B072E000C2D
:105A3000880B990B0E948429CB010895CB01880F14
:105A4000991F860F971FBA01660F771F460F571FC2
:105A5000BA016E5F7F4F23E030E043E050E00296F2
:105A60000C94FE38EF92FF920F931F93CB01880F97
:105A7000991F860F971FBA01660F771F460F571F92
:105A8000BA016E5F7F4FE12CF12C8701E39423E094
:105A900030E043E050E002960E9440381F910F91A1
:105AA000FF90EF900895AF92BF92CF92DF92EF9266
:105AB000FF920F931F93CF93DF93CDB7DEB72B9752
:105AC0000FB6F894DEBF0FBECDBF0E94920D20E34B
:105AD00030E044E550E060E070E080E090E00E945B
