:100000000C94F8080C9415090C9415090C94150916
:100010000C9415090C9415090C9415090C941509E8
:100020000C9415090C9415090C9415090C941509D8
:100030000C9415090C9415090C9415090C941509C8
:100040000C9494120C9415090C9415090C94150930
:100050000C9415090C9415090C9415090C941509A8
:100060000C9415090C941509BF24C424C924CE246A
:10007000D324DC24E524F024637C777BF26B6FC50A
:100080003001672BFED7AB76CA82C97DFA5947F09B
:10009000ADD4A2AF9CA472C0B7FD9326363FF7CC77
:1000A00034A5E5F171D8311504C723C31896059A14
:1000B000071280E2EB27B27509832C1A1B6E5AA037
:1000C000523BD6B329E32F8453D100ED20FCB15B22
:1000D0006ACBBE394A4C58CFD0EFAAFB434D33858B
:1000E00045F9027F503C9FA851A3408F929D38F55F
:1000F000BCB6DA2110FFF3D2CD0C13EC5F97441796
:10010000C4A77E3D645D197360814FDC222A90880C
:1001100046EEB814DE5E0BDBE0323A0A4906245C98
:10012000C2D3AC629195E479E7C8376D8DD54EA9FD
:100130006C56F4EA657AAE08BA78252E1CA6B4C6C9
:10014000E8DD741F4BBD8B8A703EB5664803F60E22
:10015000613557B986C11D9EE1F8981169D98E9411
:100160009B1E87E9CE5528DF8CA1890DBFE642682A
:1001700041992D0FB054BB16000000002400270049
:100180002A0000000000250028002B0004040404BD
:100190000404040402020202020203030303030331
:1001A000010204081020408001020408102001020E
:1001B00004081020000000080002010000030407EA
:1001C0000000000000000000A0C4F3096C1C548F64
:1001D0007CF7563D437E85DA6D5CB082FF15BC1618
:1001E000637962656172737B793075725F643376AF
:1001F0003163335F31735F756E3772757337336494
:100200007D001828E478994758908016A4D4EC4BC8
:10021000CED5D7F1615166B9343DA177CCBDA7D217
:10022000DBD86B3141EDF17338899F1D7114EBD62A
:100230002CCECE0761BA5E39A82F114B78861E915D
:10024000BAA2DA9A0EBDCAF3972C383CF9700E3F69
:10025000F06D9CB6E2F37199A8A62E37CE7E7A781F
:10026000CFB512D0BEBF816C5602CE6964DD811A53
:100270001E2271E09AAB6257BB64068DAA9D285975
:1002800062EE14EEE8A94F6D5E9300E29786BAA77E
:10029000CD7BE1D87DAD9B18C243C21BDCB95FFFAB
:1002A000645574E3BFEB22B4322822F29109302F57
:1002B0008C6CADB3786A184526F036CB4B37EFF926
:1002C0007B4D812C022029F3E344CE597322203D3B
:1002D0008D9B046E5F6D8616CC5212ED88D54E6BE9
:1002E000CC88635439D6467859052BFA91C2B1515E
:1002F000DE6FB97FE67C9EC0F5AA17A737C01FFF47
:10030000335D8B7FF1691B71887AA3418881B3F2D9
:100310000CCC12D84858D484A03B50AB77B05F5F68
:100320001D5EE21DE6DE71049559A890C7B05A3FE4
:1003300074EBCDB38CD1C82834FDE275C4B58A34D2
:10034000AAB0CDEA790136FB6487554B80F0863F31
:10035000F81AC7C51DDEFF66304D4471B1D66E97E1
:1003600084131D2A584A33E5F7CC532B10F1160C91
:1003700079452CAB3E8DFAA1236FCF5658403E0FE6
:10038000C05D439C80495DC978093E981E040125E3
:100390004A4DE22F02518997434DD467141D8D09B0
:1003A00011110F9AE0D118C765BAAA04A1675223A8
:1003B000F53E243E33E61DF7C401F97AA7B8E99C5F
:1003C0009A414EC837574B5B922BD2CAEF17DFD0FA
:1003D000CD7AF4E6082EE12AC258428D162F72001B
:1003E00072F4FDE257261362872F843D6571B0AD2C
:1003F0001A43B5E4EBEEF740670070C19555B8724B
:1004000064A0BAB41D0AF93A8B04BD98594AED04A8
:10041000E1539F8B4D93A991D589AFF4586E8DCE42
:10042000DFA2D42CC954A27AA1BCA1D8F717CECF91
:10043000BBB092034744A45C4428692D96AE27FEC6
:100440001AFC9CA43970C4091DC963293E9D7CF027
:10045000D5160B4FA0A675673759569426A128AF1D
:10046000ABE4ADEBA39AEC07DB77462869EA248A74
:10047000F91F1A2DE9AED630AC82647F6F1FDB7E88
:10048000EFCE3A6E7EC152467A24D69612CD562CC5
:10049000BB38A081356FD8C0E8001C0201E5A1235C
:1004A000E54B479910A3AA324CFC1095EF99191708
:1004B00000B29F9D099F1EC915860953B04601D100
:1004C0008580A5801F0F2638F3ED84303B823E588F
:1004D000BEBD84EA90A6F5076AF5E5EC8497023381
:1004E00016C98B8DA8B9DFA79A4A2ED90BD13937F7
:1004F000A010BE79ED68B8E8ACCCBAF36739FD9CC2
:10050000C422DA4D032D8C58916B25D6B14A9ECC6E
:10051000CC04132BFF4958EBA75D07887606CF263E
:100520005C626E0221A01EE07C6BD6A79C06C762AF
:10053000AC744B73408936F9D33A0CE376C5A28B81
:100540003C4BCE33ED780637F765E8D7AB5994C10D
:10055000A6F9587D46D0D90E6D182AFF64864C5FE7
:1005600014C50CA7D2E4C5918CEAF353E805D14F2A
:10057000DD729483A8DF84FA405EEC0D6FD09F3269
:100580008C019442F34DB8322CB76F84E0196F7F21
:10059000934FB55DD10E9196A2862F63BF73F1EF95
:1005A000078B40BC42EC657634A8781DBB1C668A7C
:1005B00096C1C743E653A955981E6B2842CA58B93D
:1005C000594507F9875FE6392C702897634C6ECA46
:1005D000D2CD1A0B9E2D5A63C7405F5471E09EAF77
:1005E00060F922FC81D93E8918695D187E640D7D11
:1005F00015AD8A4ED1D769F750C24817744DED91A9
:100600004D72A4F5BF91BA27C563F533C0898D6DCE
:10061000B81E8462A3BF2F598356FADA07252AC76A
:1006200052E1516CCFB72BB7021C6A5B9BF41230BE
:100630002CE4764DCCBD81DB5D08B5923188C68B4C
:100640001483A6BF8C980FBC54C959D2BB396776A6
:100650000DC391B6114E95607C1BE6E80FB558C2EC
:10066000D3EBA76300DA59980065A0B05D17EADB09
:10067000A7058C1ED9484BF3C95DA2E39B21A64375
:10068000FF093610053016339FE605C8B84891ECCF
:10069000B5AA246F13DA85251C140A5F3D6922A1CF
:1006A0004DC2A26282F0817238F638262799AC0ECC
:1006B00030A69253BFB3742FB976E8C4C90FB7748C
:1006C00015948240B317F78D91F21BCF1974E22F66
:1006D0003558DD4690892E63AB8AB33E4DDE11F668
:1006E000BA3FAD8CB2A2B021F8A928DE1BD3159B6E
:1006F0000B5CF098FB94C0D724E43C519FBB2BF9D2
:10070000C918E504D1090AF4D12BFAD11EC0BE9F45
:10071000BF33CF7F13000CCEF795D6697E5361A906
:1007200053AEA26ECF22262B93FC8F6A4A9A354590
:1007300080435CEBF7A25EF78525B8F3FC4BFE84A3
:1007400067D0D6CE37C8F0C4F73ADD76B449011188
:100750001D4FC6DF787824C0F51CFBD427799EBFD7
:10076000A3647AAF92E22E440ED71A3D4E371F3261
:10077000B36B72B04756C07A01BE76158608E8B9E9
:10078000C3F2A15CB0615930BF3489F8C065E79D00
:10079000FCDB552C1029B6ABD7D74253D63907CF3F
:1007A000D2CDD6A441696AACF0C3086E816D76B231
:1007B0003E406DC52C685C6AFF9CB99D982FC4DDD6
:1007C000580DF84B3C06EF7E663D1485A6DB01868E
:1007D00069B7A17A7DB149340DE82D235D3686FCD9
:1007E000C903AD4D94CD464BDE691565D450141741
:1007F00032FAD4E22FB455879B560CD66B1865AEEF
:100800003919E9CF4A0217D546A16779A1DB1484CB
:10081000E9CD75E0EFB2D75A2015D501F6296AA0C7
:10082000AD27AACAE61CD3C5C6A3513831F16B9DCA
:10083000704F88E12DA1DBE04C8FDFC0E5700D75B6
:10084000AF32E12F29EDFB7ADBAB8C76ADA8A0852A
:100850001E2341801D9A65129CC97DC6B8E71EAA59
:10086000B9B7AF740055BB3E854B60F0D34FF787E7
:10087000F65EA09F86F87D3D4C810C9A2318CF87A9
:10088000038B467FC5374F69549CF8F178C021FB34
:10089000FF4F0DBC0178518E52707A46CEAA3F218F
:1008A00085668D930914C4621220895C480A48E663
:1008B00089B367FD168EF51A1E9E2B5862D3220B44
:1008C0000925CBE2DD51D736E1F53272EB19091E6D
:1008D000A63530281CC8BB8739807AAAAC646BB1B6
:1008E000492276B319010020BA8BB479E46D9D8E4C
:1008F0004A5ACE2F34308B15101434B6D7E748EE51
:100900000DD832FBB922D6BA802CADB3E6CD1B0D83
:100910000ED453B90520EEF56BDCF7C227BEA3AAAF
:100920008111033EB040854D5788D20AB285EE4E04
:10093000CFD3C9BA245103F364984A5284881EA4C1
:1009400090E624A7EDBC8A1265419F04E72526EEB8
:10095000E423D9B6902AE0AAAE9E0F724BC50CFBD9
:100960003332D9D25AF298BA1280CBB4A024661589
:10097000E17D895845D8C315B9C8F45CDB959CFA6C
:1009800006528056CE27B9C63C2DA812246AF45FC1
:10099000682E68DEB5974F9712E6FB2033DD5322B1
:1009A00012BA014F4224AED5EE28BF1ADA852212C0
:1009B0008D335872D0445A4C74E29DEB4EF809C105
:1009C000EF1668E44C3952B93324320383EC923287
:1009D000887EA4B27629D04E2A13AC3F345C46D42C
:1009E000A69C6BB34CD2D7150D9E660A70B60D0C43
:1009F000002CC182BA7CE34686D9001987300226D2
:100A0000C320FAEECC4A2812CC40B8345BA4B534EB
:100A100082E8D279AADEFCD00D160BCA5AB7746DE3
:100A2000BAA066ED96A400C1C486B028596CE262F3
:100A3000C17865BABC51E495A067D8C2D6F36C16EC
:100A400022E642C80C0EC0BF5DDCA4DF0FB0A8A533
:100A50008B073E6F8304FE3B5EAEB82491A5876092
:100A6000F9EAD9FF294C3A9F2BC1064BE6DE52FE2C
:100A700081B541B3988CB6285D66A72FD009109731
:100A8000F6561F6358EB30466E4DD7EB8C5A8E0CE2
:100A9000F6F92E2EAC4D4946E476657D45D9E1C385
:100AA00069D50CCE80220B93521A248C0B544C2AFD
:100AB000A1D7F23FE01D85F50E08952C3E39971918
:100AC000014206D6B58B4AD775B7E64179E953316D
:100AD00001FE143F2B1B87FECA0EDA37E794776CB2
:100AE000FB4F0977871F0E481EABC3EF37A103A04A
:100AF00089514F9D5E1C2C8F0B167F67FB89BE337F
:100B0000B1102839FBE93896A4E571F8A5E0D55372
:100B10003F158E40BC6B7AB3EC3480B7DE6BE6E1F8
:100B2000FCD93B003FFB60835E09AF9214A1CBF57B
:100B30001FF3CDD3F702437DBB258B4914C4DC459D
:100B4000F0C19B7C92ADB0CE4C25599B07FB344540
:100B5000B2AF2F9FAC8869F0EBE0C3527944CE3935
:100B6000EF2B06CAC10FD482B71E88C6B7A1255B7A
:100B700065C9518B55418ECE57A5CFF55ADF929D51
:100B8000F913A79F5FCE2AFDA4393DE5306443BC2D
:100B9000280A240098E187469865B5A16071B10ED6
:100BA0003C62D44C43417BFBC4F836DC01D7DA40CD
:100BB00007C3275124C300705A75EF99BA60FF1517
:100BC0009C9D427AED56231DB073332C04D0E7EF81
:100BD00018827DA9EA393CA9196D43FA7E65685AE5
:100BE000A8FCE034E0649690483795275E6DCD18F8
:100BF0000C4E6AFA8AB07FB658C6B84145D66979B4
:100C000079DEAEBFBAC9526B458910FE2268ABFBD4
:100C100011A2D68770E8BBF0D2587A19CD5EB774AE
:100C20003CBB951AF28DC246DDCECCEE780739B3C7
:100C300065980D44919D10EBF0C07AFEFD9AD56346
:100C4000126DAC06E02C22E0F22B90E7BD3EBDAE6B
:100C5000E3AF0A6149801F9C7A65A8B723C4BFC768
:100C60007EFAD5D8FC394B3B912AFF5409CFD201EB
:100C7000E489A340A0898DAB3F502AA83E98311A41
:100C8000DAD1A90C785CFB76254046C0AD944B8F39
:100C90000AFDFE3F3BAB0F724E8C3D272D0492BEEA
:100CA000810DB35085905B0F8775676FDA4B4B5999
:100CB00025F59CA72CD005DBD1130B967E156B8CEC
:100CC0007C592E1E96F3DF1A8A2490B96131EC56B6
:100CD000330AAE2B7D3111CEF2CC01936DAFB070E3
:100CE00024E7760A748105181D29BAC7F434A04D8B
:100CF00096CD495FDF791F6FA617031532B5CD85F5
:100D000071EFF92D35B9B365C9B38F2DEEE9ADEAB1
:100D1000402301C73AE13326E9BD39CBA6973CBC55
:100D2000E1FFA74D097CD862844810C3B909A6C663
:100D3000F452CDD9DAF67B5705FC6E9549569B885F
:100D400007B2EEA03AFA8DA1CD3465559110FF3F60
:100D500038A5CE78D8B88130ABB7BBDE37705886AF
:100D600017BC2F02C5D84BF389BF1D8F8488CD6473
:100D7000162CFB23DC4245859D0EF69AE01D819CD6
:100D800097BBCCB0D056C334F5E02E73A0007841A9
:100D9000F67578305EC1BB8B5DBF68BEA96436BC9A
:100DA0004C222C84035C4422CE84B767E40D9198D6
:100DB0005C4FDC0B5966CA4F4A4E61F79BBD6BF026
:100DC00013828D6D38CE1A0719B8293E672193F921
:100DD000D9038173BDB87F63BA7D3900A7243A2453
:100DE00059A7CAE135B25391854312E2610C3C9A8E
:100DF00008057769F385B33BB918D1C10011C06EFE
:100E00005C0B63F0ECE5A50A7E45865BA43A3BFDEE
:100E1000E4739EF28851EFEFE9DF467B0BCA5ABBC1
:100E2000236E8F981BAFC3E74E93C6D1E5791A7F27
:100E3000E37D964954D99C0CA695CB44CAD5C3B63C
:100E4000481C408A13F33C2986A83E87F48D30F570
:100E5000F7F8C85A604CC634F92529FAEE7082902A
:100E60008D3C918380A6262D22E3799A07048A86F9
:100E700010ABCEF7028AD7ABBC384F79A038C6404A
:100E800032DC3DA5082D62F5607C7C85B1F8CE0989
:100E90009C7CECFE7478E8512B11E86039455AC708
:100EA000AE993EE20DDFD4020FC724417F8C0113BF
:100EB0001A0EBAC9F03DE61B87844850C6355F2735
:100EC000ED4A2B2B0CD8D1D80A8E78BCA7713AE406
:100ED000537146E6662C3C0A889F985DCB28B1B2D8
:100EE0003836962F5C25985D3D022AA188F021EFC7
:100EF000659391504DCD2A38358A18030535EBF4AA
:100F0000E9374BAC3F40A2BC259AEDB528A5B3B05C
:100F1000D5597E509602E77879F19706A6B5FA7E04
:100F2000E5E4C2E9760D25B74281474C95824080C1
:100F3000D9F44ECB1CBEAE3E4E75B67A940A0FC69F
:100F4000DE438EAE997E87ABA582122B5F901AAEE0
:100F50003A23EEE43EC4B48528B0B2B7CE4C525A20
:100F60008B1CD00640EED14EF785B5119B9388A51A
:100F70002F0D24EF02D90A1CD58D76F286A608E340
:100F8000C0C81B8AB09C16967FA9BA333DEB30626D
:100F90005CF9613E4857DDBC9741D52AABFC3577FB
:100FA000F2470E67D6434E223FA6D9EB64E4438353
:100FB00096555A8D21114ACB5518617DA1BAA16D64
:100FC000E80EB2AF2840E74E3A519B140A154BBCCD
:100FD000EDD00B803197B3DC0CCE761B238B0C72DB
:100FE000003794F1D557AE528F955109893A0C3498
:100FF0008F121E523BBBDFE32DA658868A1F45DEAB
:101000006D5FD765B9B3FD93370B35E76189313E25
:10101000F7E66BE5C5CA70F3B9FED654310AC71FAF
:10102000B471289E9603B5C8FB53D886C6EE736587
:101030003FF07CD55B119C8A5ABDC4FA58DBD6D4EC
:101040009F57615B9905F2342187DE6CDAAE8956D1
:101050009DA1B09F1A1B0CC844A4756BB38B3A803A
:10106000E0DF52FFC7CDFC6B1621F541984E5E972D
:101070008716BCCBCE0199989EBD314873A16FDF16
:101080000F22796EFC497739BD30373502BAE4DC7E
:10109000029C7086BA7A7EEB4B1361C30814670713
:1010A0008BEFFC2F00000000230026002900000029
:1010B0004908B400BEF67B7AA59455B84800294487
:1010C000442A15A00B42005003020008259076BA6E
:1010D000595CC59EC53892E6F33A73BAE59077BA83
:1010E000773A084008502A441CE08852E508568E9A
:1010F00077B677B8728CD6BA739E739272AEB7B663
:10110000E95C64AAB7B4929CBEB6D6B656AAD7928A
:1011100076EE77B47138E948B6AEB6AAB6F6B5B48D
:10112000B548E59C694C9124642E5400001C440091
:101130000EAE9ABA0E8C2EAE0ECE56D0553B93B450
:101140004144415197B4494417B61AB60AAAD6D3B6
:10115000766717900F389A8C16AE16BA16F615B435
:10116000B52B1C5E6B4C4948C95A540056E28D01A0
:10117000020408102040801B3600001814000018DC
:10118000140000181400001814000059000004088E
:1011900004000019000404080400040814000019E5
:1011A00001000508040010190000040805000119D9
:1011B00000001408040000191000101804000009B1
:1011C000140004090100051800000418100000189C
:1011D00005000109040014090000041804000019A6
:1011E000040004090400041900AA882AA22A2A2A51
:1011F00011241FBECFEFD8E0DEBFCDBF11E0A0E0CD
:10120000B1E0ECE6FDE702C005900D92AC38B10705
:10121000D9F726E0ACE8B1E001C01D92AD36B207C7
:10122000E1F70E942D3B0C94B43E0C9400000F9308
:10123000CF93DF93EC010E94841701E09E0142E40A
:1012400055E262E275EC87E00E94BE10DF91CF911B
:101250000F9108957F928F929F92AF92BF92CF92FB
:10126000DF92EF92FF920F931F93CF93DF935B0177
:10127000EA014901702ECC24C3940C1511F0C12C45
:101280000FC0E12CF12C8701E39429E030E048E322
:1012900050E0BE01675F7F4FC5010E960E94A236E7
:1012A000D12CE12CF12C01E010E020E030E081E0D5
:1012B000781203C000E010E09801BE01655F7F4F27
:1012C000A401C50140960E94E836DF91CF911F919D
:1012D0000F91FF90EF90DF90CF90BF90AF909F90D5
:1012E0008F907F9008950F931F93DC01FA01A7FF61
:1012F0000BC06115710529F48EE28083818312820F
:1013000009C0615071098F7789019F0140E050E069
:101310000E94381A1F910F9108954115510579F0D7
:10132000FB0101900020E9F73197E61BF70BEE0F68
:10133000FF1FEE0FFF1F3496DA01ED93FC9321158A
:10134000310529F089E090E0F901918380830895C7
:101350000F931F93CF93DF931092910110929001FE
:101360001092930110929201C091BF01D091C001DF
:101370000091C1011091C201CB31D10550F0AE01F5
:1013800060E070E0C8010E94993E6B97F801D18F30
:10139000C08F8091C1019091C201009759F022E560
:1013A00030E0FC013587248720E330E0378726874B
:1013B0000E9441278091C1019091C201009749F09C
:1013C00027EB3BE2FC0137832683158214820E94BF
:1013D00041278091C1019091C201009749F02EE907
:1013E0003BE2FC0133872287118610860E94412749
:1013F0008DE39DE09093CE038093CD031092CC03B8
:101400001092CB03DF91CF911F910F9108952F92EE
:101410003F924F925F926F927F928F929F92AF9284
:10142000BF92CF92DF92EF92FF920F931F93CF93D1
:10143000DF9300D000D01F92CDB7DEB719821A8299
:101440001B821C820E94B7194091C7035091C803A8
:101450004E5F5F4FC12CD12C760101E010E020E0FF
:1014600030E061E070E082E190E00E94E83652E016
:10147000452E512C912C80E3890D8D8389E0682EB7
:10148000712C812CE091C703F091C80391100EC01C
:101490008CE389839DE29A839B83808149E0242E9B
:1014A000312CA12CB12C882371F127C084E0981233
:1014B00010C095E499838EE48A8394E59B838081B0
:1014C00029E0222E312C35E4A32EB12C8430A9F44E
:1014D0001AC080E289839D819A3339F0892F9B332A
:1014E00031F09C3329F483E203C08AE201C080E337
:1014F0008A8380E28B83130152018081981212C08B
:10150000818188120FC0E12CF12C8701E39429E03E
:1015100030E04FE050E0B101C5010E94A23611E079
:1015200000E00AC029E030E04FE050E0B101C50121
:101530000E94603710E001E01C8240E0B101C5016B
:101540000E94A41775019EE0E90EF11C40E0B10174
:10155000C7010E94A417610188E0C80ED11C40E0B9
:10156000B601C5010E94A41740E0B601C7010E9460
:10157000A417C12ED12CE12CF12C10E020E030E09A
:10158000B1016E5F7F4FAE014F5F5F4FC5010296A5
:101590000E94E83683949D819D5F9D83C3010A96D6
:1015A0003C0194E089126ECF939480E1480E511C67
:1015B00095E0991260CF0F900F900F900F900F90C1
:1015C000DF91CF911F910F91FF90EF90DF90CF901F
:1015D000BF90AF909F908F907F906F905F904F9053
:1015E0003F902F9008958F929F92AF92BF92CF928B
:1015F000DF92EF92FF920F931F93CF93DF9300D070
:1016000000D000D0CDB7DEB70E94B7190091C1015C
:101610001091C2011E821D821C821B828AE6898370
:101620001A820115110541F4E091C101F091C20146
:10163000309709F066C08BC0D8011A968D919C91A5
:101640001B97892B89F31696ED91FC91179730978C
:1016500059F312968D919C911397892B29F39E0132
:101660002D5F3F4FAE014B5F5F4FBE016F5F7F4FFE
:1016700014968D919C9115970995A12CB12CE12C74
:10168000F12CC12CD12C4801BAE18B0E911CF80130
:1016900080899189E816F90638F6F801208D318D98
:1016A0002F5F3F4FA401B701C8010E94752697FD27
:1016B000BBCFE80EF91ED80152962D913C9153975D
:1016C000C216D306D0F056968D919C915797820FF3
:1016D000931FC816D90688F41A96ED91FC911B97B2
:1016E0009401A50160E070E018968D919C91199786
:1016F00009958B819C81A80EB91EBFEFCB1ADB0A1E
:10170000C6CFE288F388048915894689578940172E
:101710005107E8F430E3349FC001359F900D112448
:10172000B8010E944B3EFB013E9DC0013F9D900DC4
:101730001124B8010E944B3EE12CF12C8701E39467
:101740009F0142E050E082E590E00E94A23626969A
:101750000FB6F894DEBF0FBECDBFDF91CF911F91C2
:101760000F91FF90EF90DF90CF90BF90AF909F9040
:101770008F900895EF92FF920F931F93CF93DF9373
:101780008C01EB010E94A809BE01C8010E94933898
:1017900090938F0180938E01BE01C8010E949338FF
:1017A0007C01BE016F5F7F4FC8010E949338F7FC38
:1017B00007C08E159F0524F09C012E193F0902C019
:1017C00020E030E030938D0120938C01E091C10145
:1017D000F091C201309759F0318B208B81ED9BE263
:1017E0009383828311830083CF010E9441270E944B
:1017F000F30ADF91CF911F910F91FF90EF900C941E
:101800008F17CF92DF92EF92FF920F931F93CF9398
:10181000DF93CDB7DEB769970FB6F894DEBF0FBE82
:10182000CDBF611106C0423009F008C10E945117B6
:1018300015C1413009F012C1613079F0623009F010
:101840000DC1E091C703F091C80380818F5F85309F
:1018500010F48083DAC01082D8C0A091C703B09181
:10186000C80311962C9111979C919923F9F2943009
:1018700099F0905D822F880F280F920F9A3309F408
:10188000EBC09B3309F4C6C09C3309F4D5C099233F
:1018900069F2913009F0BFC08D010E5F1F4F84E1E6
:1018A000E4E9F1E0DF011D928A95E9F7E12CF12CE2
:1018B000F701EE5DFE4F6F01208144E150E0BE0173
:1018C0006F5F7F4F822F298F0E94702BBE016F5F49
:1018D0007F4FC8010E94AB3E892B09F084C060E0B5
:1018E00070E08DE490E10E946B1744E150E064E900
:1018F00071E0D60111968C910E94702B298D2930B0
:1019000069F480E390E30E94F4379093020180939E
:10191000010160E070E00E94BA0BA0C02E3059F4C3
:101920000E94ED1BAC0160E070E020E084E991E0F2
:101930000E94F01A2DC02A3019F51D8A1E8A1F8AAE
:10194000188ECE0145960E94001D83E3809394017A
:1019500095E3909395018093960194E3909397017A
:1019600080939801909399014D895E896F89788D54
:1019700021E08AE991E00E94F01A1092A40108C0C7
:10198000203131F49091000181E08927809300019A
:101990000E94A809E4E9F1E0F0939301E093920139
:1019A00001900020E9F73197E459F140F09391015B
:1019B000E0939001A091C101B091C201109781F014
:1019C0005196FC93EE93509789E39CE213969C9377
:1019D0008E93129711961C921E92CD010E94412760
:1019E0000E94F30A14C0B2E0EB0EF11CEEE0EE161A
:1019F000F10409F05DCFE091C703F091C80332967E
:101A00008DE0DF011D928A95E9F70E94070A0E9486
:101A10008F1724C090E39D012E5F3F4FF901019085
:101A20000020E9F73197E21BF30BEC30F10568F782
:101A3000EA0FFB1F9283E9CF93E2EDCF413071F4BF
:101A4000E091C703F091C80381818F5F843010F467
:101A50008183DBCF1182D9CF9AE2DDCF69960FB6B1
:101A6000F894DEBF0FBECDBFDF91CF911F910F91D4
:101A7000FF90EF90DF90CF900895611103C0423046
:101A800069F507C04130C1F5613019F0623019F0D5
:101A900008950C945117E091C101F091C201309763
:101AA00021F40E94F30A0C948F1722893389468906
:101AB0005789848995898417950718F4138A128A9F
:101AC000F0CF2F5F3F4F841B950B2817390718F075
:101AD000938B828BE6CF338B228BE3CF413061F443
:101AE000E091C101F091C2013097D9F282899389C6
:101AF0000097B9F20197ECCF0895EF92FF920F9300
:101B0000CF93DF93EC017B01892B91F0809103014E
:101B10009091040197FF0E946538D093A901C0936A
:101B2000A801CE010E94F437909304018093030131
:101B30006091A8017091A90101E097014AED5DE073
:101B400086E00E94BE10DF91CF910F91FF90EF9041
:101B50000895CF93DF93EC010E948417BE0180E0CB
:101B600090E0DF91CF910C947D0D809115019091C3
:101B700016010E94C8378FEF9FEF90931601809354
:101B80001501809117019091180197FF0E94653807
:101B90008FEF9FEF90931801809317014091DD0321
:101BA0005091DE0360E070E08091DB039091DC03F4
:101BB0000C94993ECF93DF93EB01209731F40E9470
:101BC000B50DDF91CF910C9451170E94B50DBE0158
:101BD00089EA9DE00E946B17BE01615071098091F6
:101BE000030190910401DF91CF910C94BA0B4F92B5
:101BF0005F926F927F928F929F92AF92BF92CF929D
:101C0000DF92EF92FF920F931F93CF93DF93CDB7A5
:101C1000DEB72E970FB6F894DEBF0FBECDBF1E867F
:101C20001D861C861B860E94B719E12CF12C8701AA
:101C3000E39425E030E043E550E065E070E080E0CB
:101C400090E00E94E9359E01235F3F4FAE01455F62
:101C50005F4F6FEC73E080E090E00E948D094B8550
:101C60005C8584E590E0841B950B969587959E870F
:101C70008D87E12CF12C870129E030E060E070E0F5
:101C80000E94A2368D859E85C12CD12C760101E063
:101C900010E020E030E04FEC53E062E070E00296AC
:101CA0000E94E83680E00E94281981E00E942819ED
:101CB000E090DB03F090DC031A86198618861F82F9
:101CC0008AE68D831E82E114F10441F4E091DB0386
:101CD000F091DC03309709F0B8C0E7C0D701129645
:101CE0008D919C911397892B89F31696ED91FC9118
:101CF0001797309759F31A968D919C911B97892BC2
:101D000029F39E01295F3F4FAE01475F5F4FBE0140
:101D10006B5F7F4F14968D919C9115970995F701F4
:101D200084899589608D718D0E944B3E3B014C01E9
:101D3000A12CB12C6701FCE1CF0ED11CF701808DE5
:101D4000918DA816B90610F6689E8001699E100D47
:101D5000789E100D11240A0D1B1DD70156968D91EA
:101D60009C9157970817190708F0B0CF1C821B8267
:101D70001A8219825A964D905C905B97A20160E09E
:101D800070E0C6010E94993E920121503109D701AD
:101D90001296ED91FC911397A601B8018D919C913B
:101DA0000995D7015A96ED91FC915B97EE0DFF1DB9
:101DB000138E1696ED91FC9117979E012D5F3F4F64
:101DC000AE014F5F5F4FB60114968D919C911597B0
:101DD000099529813A81F7018089918982179307B2
:101DE00068F4F60101900020E9F73197EC19FD093C
:101DF00029F0EE0DFF1D138ED701DBCFD7011A9608
:101E0000ED91FC911B972F81388518968D919C91AF
:101E100019978A149B0449F4829EA001839E500D59
:101E2000929E500D112401E008C0A29EA001A39E25
:101E3000500DB29E500D112400E0960160E070E05C
:101E40000995BFEFAB1ABB0A79CF24893589A688DB
:101E5000B788808D918D8A159B0538F547E2429FA2
:101E6000C001439F900D1124B5010E944B3E6B01B0
:101E7000E12CF12C8701E39420E330E048E450E0CA
:101E800069E070E088E490E00E94E93587E290E044
:101E9000B5010E944B3E9B01B601675F7F4F43E057
:101EA00050E087E490E00E94A2360E948F172E96A1
:101EB0000FB6F894DEBF0FBECDBFDF91CF911F915B
:101EC0000F91FF90EF90DF90CF90BF90AF909F90D9
:101ED0008F907F906F905F904F9008950C94F70DC6
:101EE000611108C04230A9F587FF41C00E94B50DBD
:101EF0000C9451174130D9F56130B1F0623009F0DE
:101F00000895E091DB03F091DC03309711F40C9419
:101F1000F70D848995890196268937898217930759
:101F2000B0F7958B848BF3CFA091DB03B091DC03EA
:101F30001097E9F01E96ED91FC911F973097B9F03C
:101F400054966D917C9155971C968D919C911D97FF
:101F50000994413061F4E091DB03F091DC033097A8
:101F6000B1F284899589009791F20197DACF0895AB
:101F7000EF92FF920F931F93CF93DF931F92CDB7F2
:101F8000DEB789830E94B71989818130E9F048F072
:101F90008230E9F50DE22DE441E062E08CE797EF55
:101FA00027C00BE010E029E030E040E050E06EE2B6
:101FB00070E081E79AE50E94A41800E224E54BE076
:101FC00060E08CE69CE114C0E12CF12C8701E394E5
:101FD00025E030E044E550E06CE270E080E090E025
:101FE0000E94A2360BE224E541E060E083E49EE734
:101FF00010E030E050E070E00E94A4180F90DF91F4
:10200000CF911F910F91FF90EF900C948F170F902D
:10201000DF91CF911F910F91FF90EF900895611183
:1020200003C04230C1F411C04130F9F4613069F0AD
:10203000623069F48091AC058F5F833018F480932F
:10204000AC0505C01092AC0502C00C9451178091EC
:10205000AC050C94B80F413041F48091AC0581116E
:1020600002C082E0ECCF8150EACF0895E091C7032F
:10207000F091C80383E2DF011D928A95E9F781E0C0
:102080009CE09093CE038093CD031092CC031092EA
:10209000CB030E94070A0C948F1780910101909145
:1020A000020197FD08C00E9465388FEF9FEF909363
:1020B0000201809301010C943610CF93DF9390E0DE
:1020C000FC01E056FE4F2491FC01E457FE4F849141
:1020D000882361F190E0880F991FFC01E858FE4FBA
:1020E000C591D491FC01EE57FE4FA591B4916111B9
:1020F00009C09FB7F8948881209582238883EC914A
:102100002E230BC0623061F49FB7F8943881822F80
:10211000809583238883EC912E2B2C939FBF06C040
:102120008FB7F894E8812E2B28838FBFDF91CF9152
:1021300008953FB7F8948091E4039091E503A0914E
:10214000E603B091E70326B5A89B05C02F3F19F021
:102150000196A11DB11D3FBFBA2FA92F982F882727
:10216000820F911DA11DB11DBC01CD0142E0660F82
:10217000771F881F991F4A95D1F708952F923F9294
:102180004F925F926F927F928F929F92AF92BF9287
:10219000CF92DF92EF92FF920F93CF93DF931F9234
:1021A000CDB7DEB7982E6B012A011901E090DD034F
:1021B000F090DE03A090DB03B090DC038DE1E81625
:1021C000F10460F0A70160E070E0C5010E94993E53
:1021D000ECE1EE1AF108F501F38EE28E8091DB035B
:1021E0009091DC03009759F028E330E0FC01318B3B
:1021F000208B27E230E0338B228B0E941E268091B9
:10220000DB039091DC03009749F02DE839E0FC01F5
:1022100037832683158214820E941E268091DB0359
:102220009091DC03009749F02AE239E0FC01338702
:102230002287118610860E941E264CE050E06FEC2B
:1022400073E0892D0E94702BC6010E94F4376C0147
:1022500090931801809317014C01002311F06894AA
:1022600087F8C6010E94181A3C011982E12CF12C52
:10227000A12CB12CA614B70419F1E114F10419F43E
:10228000EE24E394F12C21E030E0AE014F5F5F4F8C
:10229000B501C6010E942417019719F0E12CF12C19
:1022A0000FC089818C3241F08A3021F4FFEFEF1AA0
:1022B000FF0A02C0882321F08FEFA81AB80ADACFEC
:1022C000002319F0EFEFEE1AFE0AE091DB03F09124
:1022D000DC03309759F0F78AE68A83E799E0938325
:1022E000828391828082CF010E941E268091DB032F
:1022F0009091DC03009739F0FC01578646861586DD
:1023000014860E941E2620E030E04EE65FE068EE74
:1023100073E080E090E00E94C819909316018093CA
:10232000150180E79FE09093CE038093CD039092B8
:10233000CC038092CB03E091DB03F091DC03309778
:1023400011F0358A248A0E94F70D0F90DF91CF910A
:102350000F91FF90EF90DF90CF90BF90AF909F9044
:102360008F907F906F905F904F903F902F90089547
:10237000CF92DF92EF92FF920F931F93CF93DF9351
:1023800000D000D0CDB7DEB762177307840795077A
:10239000FCF489019A016B017C01A9019801261BBB
:1023A000370B480B590B69F029833A834B835C83C5
:1023B0000E94BB3D29813A814B815C810E94E83DAE
:1023C00003C060E070E0CB016C0D7D1D8E1D9F1D74
:1023D0000F900F900F900F90DF91CF911F910F9161
:1023E000FF90EF90DF90CF900895833081F028F434
:1023F000813099F08230A1F008958730A9F08830BB
:10240000B9F08430D1F4809180008F7D03C0809139
:1024100080008F7780938000089584B58F7702C005
:1024200084B58F7D84BD08958091B0008F7703C0FF
:102430008091B0008F7D8093B00008951F93CF935B
:10244000DF93282F30E0F901EC54FE4F8491F9011D
:10245000E056FE4FD491F901E457FE4FC491CC23CE
:10246000C9F0162F81110E94F511EC2FF0E0EE0F4C
:10247000FF1FEE57FE4FA591B4918FB7F89411113D
:1024800005C09C91ED2FE095E92302C0EC91ED2B66
:10249000EC938FBFDF91CF911F9108958F929F9200
:1024A000AF92BF92CF92DF92EF92FF926B017C01CD
:1024B0000E9499104B015C01C114D104E104F104A4
:1024C000F1F00E949910DC01CB0188199909AA0941
:1024D000BB09883E9340A105B10570F321E0C21A03
:1024E000D108E108F10888EE880E83E0981EA11C4F
:1024F000B11CC114D104E104F10419F7DDCFFF9040
:10250000EF90DF90CF90BF90AF909F908F90089505
:102510002FB7F8946091E0037091E1038091E2039A
:102520009091E3032FBF08951F920F920FB60F9261
:1025300011242F933F938F939F93AF93BF938091D9
:10254000E0039091E103A091E203B091E3033091A5
:10255000DF0323E0230F2D3720F40196A11DB11DC9
:1025600005C026E8230F0296A11DB11D2093DF03AD
:102570008093E0039093E103A093E203B093E3031D
:102580008091E4039091E503A091E603B091E70305
:102590000196A11DB11D8093E4039093E503A093E0
:1025A000E603B093E703BF91AF919F918F913F9165
:1025B0002F910F900FBE0F901F9018959C0184E0F3
:1025C000D90190E0EC91F0E0E858FF4FE491EC93F2
:1025D0009F5F14969430B1F781502F5F3F4F811168
:1025E000EFCF08950F931F93CF93DF939B0190E15B
:1025F000899F80011124A0E0B0E0FD01E00FF11FF0
:10260000E40FF51F60E070E0E901C60FD71F91915C
:102610008881982798836F5F7F4F64307105A1F799
:1026200014962C5F3F4FA031B10539F7DF91CF9160
:102630001F910F9108959C01CB010197889770F528
:10264000CB01079661E170E00E945F3E24303105C6
:10265000E9F060F4660F771F2130310599F02230E0
:102660003105E1F4FB01E45CFE4F15C02730310574
:10267000B9F02830310591F4660F771FFB01E05D5A
:10268000FE4F09C0FB01EE5BFE4F05C0660F771FD2
:10269000FB01EA5CFE4F8081918108950E94793EA2
:1026A00080E090E00895FC01A081B0E0FD01759705
:1026B000ED39F10550F477FD08C06A177B072CF45B
:1026C00057FD03C04A175B0714F00E94793E4A9FEA
:1026D000F0014B9FF00D5A9FF00D11246E0F7F1FDC
:1026E000AB014770552733E0759567953A95E1F74B
:1026F0006F5F7F4FFC01E60FF71F81E090E001C0A4
:10270000880F4A95EAF7222319F09081892B03C09C
:10271000809590818923808308954F925F926F9274
:102720007F928F929F92AF92BF92CF92DF92EF9261
:10273000FF920F931F93CF93DF936C015B014A01CC
:1027400079012801C0E0D0E0CE15DF05ACF400E04F
:1027500010E03E016A0C7B1C081519055CF4B801F9
:102760006C0D7D1D21E0A301C2010E9453130F5F78
:102770001F4FF2CF2196E8CFDF91CF911F910F919C
:10278000FF90EF90DF90CF90BF90AF909F908F9091
:102790007F906F905F904F900895FC01208130E012
:1027A000F9017597ED39F10550F477FD08C062170E
:1027B00073072CF457FD03C04217530714F00E940F
:1027C000793E429FF001439FF00D529FF00D11247E
:1027D0006E0F7F1F9B0143E0359527954A95E1F7E2
:1027E000FC01E20FF31F818190E06770772702C040
:1027F000959587956A95E2F781700895009711F491
:102800000E94793EFC01808190E09C0125513109B4
:102810002D393105A8F708950F931F93CF93DF93B8
:102820009C018B0181309105A1F167E070E00E946D
:102830005F3EEB012296FB0131962032310581F09B
:10284000C901880F991F8C0F9D1F880F991F019632
:10285000BF01660F771F0E945F3E660F771F02C0A1
:102860006AE170E0CF01220F331F220F331F265F72
:102870003F4F1816190644F4F801E80FF91F20839A
:102880000197261B370BF5CF86E0F8018083CE0138
:1028900002C080E090E0DF91CF911F910F910895E9
:1028A0002F923F924F925F926F927F928F929F9260
:1028B000AF92BF92CF92DF92EF92FF920F931F934E
:1028C000CF93DF93CDB7DEB729970FB6F894DEBF6D
:1028D0000FBECDBF4C017B012C01440C551C440C98
:1028E000551C620181E1C80ED11CCC9CA001CD9C7D
:1028F000500D500D1124495F5F4F93E0559547955A
:102900009A95E1F74F5F5F4F60E070E0C7010E946A
:10291000993EF701C0828701960141E050E060E0F6
:1029200070E086E090E00E948D1321E030E0A60187
:1029300066E070E080E090E00E948D1329E030E0D6
:1029400049E050E060E070E080E090E00E948D138C
:102950006201F9E0CF0ED11C29E030E048E050E000
:1029600060E070E0C6010E948D1328E030E049E08D
:1029700050E0B60180E090E00E948D13BE016F5FD1
:102980007F4FC4010E940C143C01A12CB12C1C01EE
:1029900081E0281A3108A614B704D4F5C12CD12C33
:1029A00081E090E08C0F9D1F8A0D9B1D9987888781
:1029B000C614D7044CF5A114B10431F4C114D104E8
:1029C000F9F0C214D304E1F0A214B30419F4C11451
:1029D000D104B1F0E1E0F0E0EC0FFD1FEC0DFD1DC6
:1029E000608170E062507109E885F985808190E02E
:1029F000870125E030E045E050E002970E948D130A
:102A0000FFEFCF1ADF0AD4CF9FEFA91AB90AC3CFBD
:102A1000E7E08E169104B4F0F6E04F0E511C8701EA
:102A200026E030E043E050E060E070E0C2010E9448
:102A30008D1323E030E046E050E0B20180E090E00A
:102A40000E948D1329960FB6F894DEBF0FBECDBF3E
:102A5000DF91CF911F910F91FF90EF90DF90CF907A
:102A6000BF90AF909F908F907F906F905F904F90AE
:102A70003F902F900895E7E0F0E020E05DE170E006
:102A8000422F441F4427441F459F402D1124220FED
:102A900042279B010E2E02C0359527950A94E2F736
:102AA000922F9170989F902D1124242F29273197D0
:102AB00038F7822F08951F93FC010197889710F033
:102AC0000E94793ECF01089624E0880F991F2A952D
:102AD000E1F78E9F90018F9F300D9E9F300D112446
:102AE000205C3F4FE130F105E9F0CF0167E070E095
:102AF0000E945F3E6E5F7F4F17EE1603A001179F87
:102B0000500D1124465F5F4F469FC001479F900DB7
:102B1000569F900D1124C796280F391F379714F030
:102B200024523109C9011F910895DF92EF92FF925B
:102B30000F931F93CF93DF938C01EB0164307105EA
:102B400010F00E94793E0E945B15D82EE92EB80144
:102B5000CE010E94F425F82EB801CE010E94CA25AC
:102B60002D2D3E2D37FF02C0295F3F4F93E0359555
:102B700027959A95E1F7A9016F2D6802401951092F
:102B80001124CA01DF91CF911F910F91FF90EF9017
:102B9000DF900895CF92DF92EF92FF92CF93DF9371
:102BA0006131710578F46C01E12CF12C062E04C022
:102BB000F694E794D794C7940A94D2F7CD28CE28F8
:102BC000CF2811F00E94793E615071096F3FBFEF2D
:102BD0007B0749F1F901A081B181ED01E3E0D595D1
:102BE000C795EA95E1F7C40FD51FFC01062E02C078
:102BF000F695E7950A94E2F7E170FF27A095B09566
:102C0000A770BB2701C0EE0FAA95EAF7F881EF2B5A
:102C1000E88361507109D901ED91FC9111973196CA
:102C2000ED93FC93D3CFDF91CF91FF90EF90DF90A6
:102C3000CF900895CF93DF93CDB7DEB760970FB6EF
:102C4000F894DEBF0FBECDBF4091AA015091AB01F9
:102C5000DE01119680E090E0BD012AEAFC01349685
:102C6000E40FF51FE491E227E827ED930196803108
:102C70009105A1F7E091BD01F091BE0140E150E066
:102C80008091BB019091BC01099560960FB6F894B4
:102C9000DEBF0FBECDBFDF91CF910895FB01EE5F88
:102CA000FD4F849108950C947E3E0F931F93CF9314
:102CB000DF93082F87E00E941E1260E086E00E94EA
:102CC0001E12C7E0D0E010E0B8010C2E02C07595CE
:102CD00067950A94E2F7617077278BE00E941E12D5
:102CE00061E08DE00E941E1260E08DE00E941E12E5
:102CF000219750F761E086E0DF91CF911F910F910E
:102D00000C941E120C948812EF92FF920F931F9353
:102D1000CF93DF93D62F9C013327F901EC54FE4F5C
:102D20008491F901E056FE4FF490F901E457FE4F0B
:102D3000C491062F10E0CC2371F081110E94F5118F
:102D4000EC2FF0E0EE0FFF1FEC55FF4EA591B49174
:102D5000EC91EF21F1F4F801E854FE4F80818111EC
:102D60001EC081E080830E948812000F111F000F97
:102D7000111FF801E455FE4F6083718382839383B2
:102D8000E091CD03F091CE03309709F447C041E0C4
:102D900030C0F801E854FE4F8081811136C0C8016F
:102DA00088549E4F7C01FC0180818130B9F50E94DE
:102DB0008812000F111F000F111FF801E455FE4F7C
:102DC0000081118122813381DC01CB01801B910BB9
:102DD000A20BB30B893E9340A105B105F8F082E048
:102DE000F7018083E091CD03F091CE033097B1F0ED
:102DF00042E06D2F8091CB039091CC03DF91CF9176
:102E00001F910F91FF90EF9009941082E091CD03F4
:102E1000F091CE03309711F040E0EBCFDF91CF91EE
:102E20001F910F91FF90EF90089560E082E090E095
:102E30000E94841661E083E090E00E94841662E0C4
:102E400084E090E00C948416CF92DF92EF92FF9290
:102E50000F931F93CF93DF9397FD18C069017A01F9
:102E60008B01EC0140E050E00E949F3508171907E4
:102E700069F4A601B701CE01DF91CF911F910F91A7
:102E8000FF90EF90DF90CF900C9422358FEF9FEF63
:102E9000DF91CF911F910F91FF90EF90DF90CF9036
:102EA0000895A091C903B091CA03109799F01197A2
:102EB000B093CA03A093C903AA0FBB1FAA0FBB1FDD
:102EC000AC53BB4FED91FC91119712968D919C9153
:102ED0001397099408952091C9033091CA032A30A9
:102EE000310588F4F901EE0FFF1FEE0FFF1FEC53C1
:102EF000FB4F91838083738362832F5F3F4F3093B7
:102F0000CA032093C90308951092BE041092C0040E
:102F100082E08093C204089560E00C945516CF932C
:102F2000DF9380E80E948C1780E40E948C17C3EC2A
:102F3000D1E061E089910E94551683E0CB3BD80730
:102F4000C1F7DF91CF910895F4E5F69F9001F79FC7
:102F5000300D1124820F931F60EA72E00E945F3EE1
:102F6000F69F9001F79F300D112464E570E00E94F8
:102F70005F3EF901E80FF91FE83F81E0F807C8F468
:102F800080910001ED53FE4F841309C081E090E071
:102F900001C0880F6A95EAF79081892B09C081E00A
:102FA00090E001C0880F6A95EAF7809590818923A7
:102FB000808308950F931F93FB01BA0141E0012B19
:102FC000022B032B09F440E0CF011F910F910C94C9
:102FD000A4172F923F924F925F926F927F928F929F
:102FE0009F92AF92BF92CF92DF92EF92FF920F9398
:102FF0001F93CF93DF93CDB7DEB728970FB6F89422
:10300000DEBF0FBECDBF3B012A01302F512F203232
:103010000CF420E2812C912C2052822F90E0880F1A
:10302000991F8C0101551F4EBC0162557F4E788758
:103030006F83F801849180FF03C0C401019701C030
:10304000C401009719F4EF81F8851BC08130910508
:1030500019F4EF81F8851CC08230910571F4EF817D
:10306000F8859491F80124919370F4E09F9FC0013A
:103070001124922F9270892B10C08330910529F46E
:10308000F801849182958F7007C0049721F4F801AC
:103090008491869501C080E08E70212C312C682FA0
:1030A00070E07A836983C401840D951D9C838B83B2
:1030B00083E090E082199309E981FA8102C0F595D5
:1030C000E7958A95E2F7E0FD03C0C501D60103C08C
:1030D000C701A32FB52F41E0892B8A2B8B2B09F435
:1030E00040E06B817C81C101860D971D3D835E832D
:1030F0000E94A417FFEF2F1A3F0A3D815E8144E032
:1031000024163104A9F66FEF861A960A76E0871620
:10311000910409F08ECF28960FB6F894DEBF0FBE4B
:10312000CDBFDF91CF911F910F91FF90EF90DF9076
:10313000CF90BF90AF909F908F907F906F905F9057
:103140004F903F902F9008952F923F924F925F9211
:103150006F927F928F929F92AF92BF92CF92DF92A7
:10316000EF92FF920F931F93CF93DF9300D000D085
:103170001F92CDB7DEB72B017A0149010E94F437C7
:103180006C01198298012E0D3F1D3D832C83870110
:10319000612C712CA12CB12C2C813D8102171307BD
:1031A000E1F1E12CF12C130181E0281A3108E81437
:1031B000F90461F1C1018E199F099C012770332721
:1031C0003B832A83C7018A0D9B1D87709927892B12
:1031D00051F441E050E0BE016F5F7F4FC6010E9495
:1031E00022350197D1F4498150E00A8002C05595FB
:1031F00047950A94E2F74170B801C701840D951D07
:103200000E94A4173FEFE31AF30AD1CF0F5F1F4FBD
:10321000A80CB91C68187908BFCFC6010E94653890
:103220000F900F900F900F900F90DF91CF911F9103
:103230000F91FF90EF90DF90CF90BF90AF909F9055
:103240008F907F906F905F904F903F902F90089558
:10325000AF92BF92CF92DF92EF92FF920F931F93A4
:10326000CF93DF93A82EB090C104811108C0B09015
:10327000C304C1E0D0E04EE4C42ED12C04C0C0E0B1
:10328000D0E0C12CD12CE12CF12C870126E230E0DA
:1032900046E050E060E070E0C6010E94A236CC0E2D
:1032A000DD1ECC0EDD1EB3FE0DC0E12CF12C87011E
:1032B000E39427E030E044E050E060E070E0C601D5
:1032C0000E94A236CC0EDD1EB2FE0DC0E12CF12C08
:1032D0008701E39427E030E043E050E068E070E0ED
:1032E000C6010E94A236CC0DDD1DB1FE0DC0E12C41
:1032F000F12C8701E39427E030E042E050E060E108
:1033000070E0CE010E94A236B0FE0DC0E12CF12C7F
:103310008701E39426E030E042E050E068E170E0AD
:10332000CE010E94A236A1100CC0BE0162507109EC
:1033300006E010E024E030E04FE150E089EE94EA4E
:1033400009C006E010E025E030E04FE150E0BE01AA
:103350008DE69CE50E94A418DF91CF911F910F91FB
:10336000FF90EF90DF90CF90BF90AF900895809145
:103370000001811103C06FEF70E002C060E070E0F7
:1033800048EF51E083EC91E00C94993E0C94B7190E
:103390008F929F92AF92BF92EF92FF920F931F93E3
:1033A000CF93DF93E091AF05F091B005309799F19D
:1033B000E090B105F090B205ADEAB5E0C0E0D0E034
:1033C000CE15DF0541F11C9614960D911C911597B1
:1033D000012BF9F479018A014B015C018091AD0563
:1033E0009091AE0509952CE02C9FF0012D9FF00DDA
:1033F0001124E355FA4F6287738784879587868205
:103400009782A086B186F786E686118B008BCE0167
:1034100004C02196D5CF8FEF9FEFDF91CF911F9101
:103420000F91FF90EF90BF90AF909F908F90089575
:103430000F931F93CF93DF938C0142E050E060E045
:1034400070E00E949F35EC0197FF03C080E090E0A0
:103450000AC040E050E060E070E0C8010E949F3583
:10346000892BA1F7CE01DF91CF911F910F91089584
:103470002F923F924F925F926F927F928F929F9284
:10348000AF92BF92CF92DF92EF92FF920F931F9372
:10349000CF93DF9300D000D01F92CDB7DEB74C01A1
:1034A0007D836C831A016901F90110820E94181A48
:1034B0009B838A831982C114D10409F45AC001156F
:1034C000110509F456C0F6011082612C712CE12C13
:1034D000F12CA12CB12C412C512C2A813B8162165C
:1034E000730609F446C021E030E0AE014F5F5F4F44
:1034F000B301C4010E9424170197D9F58981A21450
:10350000B30419F52C813D8142165306F1F48C3237
:1035100081F18A3071F1882361F1E016F10630F013
:103520000C0D1D1DF8013197108223C0F601EE0D20
:10353000FF1D80833FEFE31AF30AE016F10680F7E0
:10354000F601EE0DFF1D108210C08C3221F48FEFBA
:10355000A81AB80A0AC08A3031F49FEF491A590AEA
:10356000A12CB12C02C0882321F0EFEF6E1A7E0A45
:10357000B4CF0F900F900F900F900F90DF91CF91DD
:103580001F910F91FF90EF90DF90CF90BF90AF9081
:103590009F908F907F906F905F904F903F902F9073
:1035A000089580FF12C081FD0AC06A3010F480E3E4
:1035B00011C06A3089F06B3089F083E40BC082FD62
:1035C00002C08BE407C08BE605C082FD02C081E427
:1035D00001C081E6860F08958FE508958DE2089574
:1035E0004F925F926F927F92AF92BF92CF92DF9293
:1035F000EF92FF920F931F93CF93DF93EC016A0139
:103600007B01022F4AE050E060E370E00E94993EA7
:103610001A861AE08AE0482E512C612C712CC114B4
:10362000D104E104F10481F011505E01A10EB11C3E
:10363000C701B601A30192010E941A3E605DF50127
:10364000608369017A01EBCF011124C060E0FE01C3
:10365000E60FF11D8081803311F46F5FF8CF6A307F
:1036600009F469E070E04BE050E0461B570B6C0F2B
:103670007D1FCE01DF91CF911F910F91FF90EF90B1
:10368000DF90CF90BF90AF907F906F905F904F9002
:103690000C94873EDF91CF911F910F91FF90EF9097
:1036A000DF90CF90BF90AF907F906F905F904F90E2
:1036B00008958F929F92AF92BF92CF92DF92EF9236
:1036C000FF920F931F93FA011082118212821382CC
:1036D000680F791F86179707A1F1C080D180E2801B
:1036E000F380DC010D91CD010C2510E020E030E0ED
:1036F00048E050E000FD09C0B0E28B2EB3E89B2EFD
:10370000B8EBAB2EBDEEBB2E03C0812C912C540127
:103710003695279517950795082519252A253B25C0
:103720004150510939F7CD2CDE2CEF2CFF24F094B9
:103730000C251D252E253F250083118322833383ED
:10374000C9CF1F910F91FF90EF90DF90CF90BF9066
:10375000AF909F908F9008950F931F93CF93DF9317
:10376000CDB7DEB764970FB6F894DEBF0FBECDBFFE
:103770008C0180E1F801DE01119601900D928A958D
:10378000E1F783E99FEDA3EBB8EA8D879E87AF87CA
:10379000B88BAE014F5E5F4F60E170E0CE010196E5
:1037A0000E94591B81E0F80104851585268537851F
:1037B00049895A896B897C890417150726073707B9
:1037C00009F080E064960FB6F894DEBF0FBECDBF5F
:1037D000DF91CF911F910F9108958EE480937C002B
:1037E00062E070E080E090E00E944E1280917A00EA
:1037F000806480937A0080917A0086FDFCCF2091CE
:1038000078008091790030E0382B032E000C440BB7
:10381000550B64EB7BE281E190E00E94E83DC90139
:103820000895CF93DF93CDB7DEB7A2970FB6F89484
:10383000DEBF0FBECDBF0E94ED1B823929E092078B
:1038400068F0843C39E0930758F088322AE0920708
:1038500048F08C389A4040F423E007C020E005C0CF
:1038600021E003C022E001C024E081E090E001C03B
:10387000880F2A95EAF781508093C30423E030E053
:1038800040E050E060E070E0CB010E94B811209170
:10389000C2047727620F711D663018F46093C2046A
:1038A00003C085E08093C2048091C204882319F08C
:1038B00081508093C20481E090E00090C20402C075
:1038C000880F991F0A94E2F781508093C104809178
:1038D000C0048823C9F142E250E060EE71E0CE01FD
:1038E00001960E94C93D8EE690E39A8789878FE50D
:1038F00092E69C878B8781E692E79E878D8785E39A
:103900009DE7A0E08F87988BA98B8091BF04E82F5B
:10391000F0E0F595E79521E030E02C0F3D1FE20F38
:10392000F31F208180FD06C030E094E03595279597
:103930009A95E1F72093C1048F5F8093BF04823290
:1039400090F00E9484170FC08091BE048F5F8C336B
:1039500018F48093BE0407C01092BE041092BF04F6
:1039600081E08093C004A2960FB6F894DEBF0FBE2C
:10397000CDBFDF91CF910895CF93DF93D82F0E94D1
:10398000BB3D2D2F2370206420937C0020917A0072
:10399000206420937A0080917A0086FDFCCF80918C
:1039A0007800C62FC8270E94ED1BD0FF982FC9278B
:1039B0000E948812D1FF02C0872F01C0862F8C275A
:1039C000DF91CF910895EF92FF921F93CF93DF93F2
:1039D0001F92CDB7DEB7182F7C018E2D811B861765
:1039E00040F469830E94BC1CF70181937F016981C7
:1039F000F4CF0F90DF91CF911F91FF90EF9008953A
:103A00008F929F92AF92BF92CF92DF92EF92FF92EE
:103A10000F931F93CF93DF93CDB7DEB764970FB6A5
:103A2000F894DEBF0FBECDBF6C018E010F5F1F4F3C
:103A30005801E12CF12C4801C7010E94D23DF5014B
:103A400081935F01FFEFEF1AFF0A80E1E816F104AE
:103A500099F7C8010E94AC1B811146C06CE0C801F7
:103A60000E94E31C83E99FEDA3EBB8EA8D879E8754
:103A7000AF87B88BAE014F5E5F4F60E170E0C80169
:103A80000E94591B89899A89AB89BC898D879E8739
:103A9000AF87B88B5801E12CF12CF50161915F01E2
:103AA000C7010E94DA3DFFEFEF1AFF0A80E1E81636
:103AB000F10499F7E12CF12CC7010E94D23DF801E5
:103AC00081938F01FFEFEF1AFF0A80E1E816F104FE
:103AD00099F7C4010E94AC1B811106C0F601108247
:103AE00011821282138209C08D819E81AF81B885B7
:103AF000F60180839183A283B38364960FB6F89412
:103B0000DEBF0FBECDBFDF91CF911F910F91FF9010
:103B1000EF90DF90CF90BF90AF909F908F900895DF
:103B2000413011F40C94511708955F926F927F9277
:103B30008F929F92AF92BF92CF92DF92EF92FF92BD
:103B40000F931F93CF93DF93CDB7DEB7E0970FB6F8
:103B5000F894DEBF0FBECDBF5C018090BD03909096
:103B6000BE03E090BB03F090BC03FC010190002079
:103B7000E9F731978F01081B190B39F49401A7015C
:103B800060E070E080E090E099C0009709F447C0E1
:103B90006C01FC018191811144C017FD0FC1980196
:103BA000AAE0B0E00E943C3E6E5F7F4F8F4F9F4F78
:103BB00023E030E040E050E00E94E83D211580E83D
:103BC0003807410551050CF0F9C0C9010796BC0141
:103BD000F3E076956795FA95E1F7653D710508F094
:103BE000EDC081E090E09AA789A759011CA70BA717
:103BF000AB0160E070E0C7010E94993E18AA1FA6C1
:103C000060E070E080E090E01AE0D6012D916D0157
:103C10002223E1F030ED320F3A3008F49BC00E94CD
:103C2000793E80538A3008F4B5CF3501F3016191B4
:103C30003F01662309F4ACC0062E000C770B8EE51D
:103C400091E00E94A03E892B89F732C16115710570
:103C500069F09B01220F331F620F731F6F5F7F4F4D
:103C60009E01215D3F4FA7010E94CA158FA598A90B
:103C70008A159B05A1F6EDA6FEA688E0FE01B99681
:103C8000DE01599601900D928A95E1F788E0FE01D8
:103C90007996DE01919601900D928A95E1F788E080
:103CA000FE01B196DE01519601900D928A95E1F7E1
:103CB0009401A70161E070E0CE0141960E941830A6
:103CC000882309F418C18091BD039091BE030E941E
:103CD000FE136C018C0197FF02C00F5F1F4F1595FB
:103CE00007951195019511090E94B719E12CF12C46
:103CF000065D1F4FEC14FD040CF0FDC0A12CB12C8F
:103D00008091BD039091BE03009709F488CFDC0138
:103D10002C9130E0A216B3064CF4E216F30634F40C
:103D2000A701B5010E94CD13282F02C020E030E08A
:103D3000422F4170B701C8018A0D9B1D0E94A41734
:103D4000BFEFAB1ABB0AAC14BD04D4F2EFEFEE1A0E
:103D5000FE0AD0CF189FA001199F500D1124CA014F
:103D6000C097820F911D27FD9A956F5F7F4F63303B
:103D7000710509F04ACF9E01215D3F4FA7016AE01E
:103D800070E00E94CA1560E070E080E090E03DCFF6
:103D900017FD14C09801ABE0B0E00E943C3EDC018E
:103DA000CB010196A11DB11DB595A7959795879556
:103DB0008115F0E89F07A105B1051CF0F401108200
:103DC0009AC0AC01495F5F4F63E0569547956A958D
:103DD000E1F7453D510590F722E030E03A8B298B21
:103DE0005C011C8B0B8B60E070E0C7010E94993E68
:103DF000188E1F8A612C712C00E010E04DE2542EC9
:103E0000D6016D916D01662349F1062E000C770BEA
:103E10008EE591E00E94A03E009709F400CF509EED
:103E20009001519E300D11248E5591408C01020F4E
:103E3000131F6A94672871F49E01295E3F4FA70102
:103E40006BE070E0C8010E94CA15612C712C00E083
:103E500010E0D6CF66246394712CD2CF6A94672881
:103E600049F49E01295E3F4FA70166E070E0C8015A
:103E70000E94CA158F89988D8A159B0509F0CFCEAF
:103E8000ED8AFE8A88E0FE017196DE0111960190AE
:103E90000D928A95E1F788E0FE013196DE011996D0
:103EA00001900D928A95E1F788E0FE013996FACEED
:103EB000053D110508F082CFF701A00EB11ED60115
:103EC0008D916D018193AA15BB05C9F784E090E03F
:103ED0009A8B898BC801A0E0B0E023E0880F991F7E
:103EE000AA1FBB1F2A95D1F7988F8F8B1C8B0B8B2A
:103EF000ED8AFE8ADDCEE0960FB6F894DEBF0FBEE7
:103F0000CDBFDF91CF911F910F91FF90EF90DF9088
:103F1000CF90BF90AF909F908F907F906F905F9069
:103F200008952F923F924F925F926F927F928F925D
:103F30009F92AF92BF92CF92DF92EF92FF920F9338
:103F40001F93CF93DF93CDB7DEB7C151D1400FB6EA
:103F5000F894DEBF0FBECDBF182F7B0148EC50E0B8
:103F60009E012F5F3F4F2901B90181E00E94702B14
:103F7000F20101900020E9F731971F01241835085C
:103F800087EC90E0DC01A219B309CA5FDE4FB98368
:103F9000A883C650D140C250DF4F188219821A82BE
:103FA0001B82CE5FD0409701A4E6B0E00E943C3E69
:103FB0004B015C01CE0182509F4F0E94001D3E01CB
:103FC000BEED6B0E711C60E1F62EF3012F2D1192E8
:103FD0002A95E9F7C250DF4F88819981AA81BB8178
:103FE000CE5FD040F30180839183A283B383848228
:103FF0009582A682B782108763E0C30109960E946A
:10400000E31CC250DF4F88819981AA81BB81CE5FBA
:10401000D040F30184879587A687B787AE014E5FAE
:104020005E4F60E170E0C3010E94591BCE5FDE4F1E
:1040300088819981AA81BB81C250D140F3018487D4
:104040009587A687B7878E0102511F4FD8011D9211
:10405000FA94E9F78CED99E00E94F4376C017E0147
:10406000B9ECEB0EF11C40E150E0B7010E942235A3
:104070009C01C601C25FDE4F2883CE50D140C15F94
:10408000DE4F3883CF50D1400E946538C25FDE4F8B
:104090002881CE50D140C15FDE4F3881CF50D14012
:1040A0002031310591F480E1E5E0F1E0D8010190A3
:1040B0000D928A95E1F7D701F80190E1900F8D916B
:1040C0002081822781939E13FACF80E1F70111921C
:1040D0008A95E9F780ECECEEF4E0DF011D928A9519
:1040E000E9F7F80180818093EC0481818093ED04ED
:1040F00082818093EE0483818093EF048481809396
:10410000F00485818093F10486818093F204878195
:104110008093F30480858093F40481858093F50473
:1041200082858093F60483858093F7048485809349
:10413000F80485858093F90486858093FA04878541
:104140008093FB04AFEFB4E024E030E0FD0137974B
:104150007081319660813196908131968081A9017C
:1041600043705527452BE9F4E62FF0E0E858FF4F60
:104170004491E92FF0E0E858FF4F6491E82FF0E018
:10418000E858FF4F9491E72FF0E0E858FF4F8491F3
:10419000F901F695E795F695E795E259FE4E74918B
:1041A00074278D0103501109AD0143515109FA01E2
:1041B00040817427F80170830F5F1F4FAD0142519A
:1041C0005109FA0140816427F8016083BD01615003
:1041D0007109AD0141515109FA0140819427FB0158
:1041E00090833F97E0818E278C932F5F3F4F1496EB
:1041F0002C32310509F0AACF80E1F701ACE9B5E036
:1042000001900D928A95E1F7ACE9B5E0F30190E1F8
:10421000960D8D912081822781939E13FACF4CEECB
:1042200054E0B30180E00E94F21211E02EED30E084
:104230002C0F3D1F2F5F3F4FC85FDE4F3983288310
:10424000C850D1402EED30E02C0F3D1F2E5F3F4F68
:10425000C65FDE4F39832883CA50D1402EED30E04F
:104260002C0F3D1F2D5F3F4FC45FDE4F39832883E6
:10427000CC50D1403EEDC32ED12CCC0EDD1E30E112
:10428000C30ED11C0BE1CE0182529F4F0E94DE1261
:10429000C152DF4F8881CF5DD040CD51DF4F988133
:1042A000C35ED040C152DF4F9883CF5DD040C9512B
:1042B000DF4F9881C75ED040CD51DF4F9883C35EFA
:1042C000D040C551DF4F9881CB5ED040C951DF4F00
:1042D0009883C75ED040C551DF4F8883CB5ED04006
:1042E000C052DF4F8881C05ED040C851DF4F9881F7
:1042F000C85ED040C052DF4F9883C05ED040C851E6
:10430000DF4F8883C85ED040CC51DF4F8881C45EC8
:10431000D040C451DF4F9881CC5ED040CC51DF4FAC
:104320009883C45ED040C451DF4F8883CC5ED040B8
:10433000CF51DF4F8881C15ED040C351DF4F98819C
:10434000CD5ED040CF51DF4F9883C15ED040C75182
:10435000DF4F9881C95ED040C351DF4F9883CD5E57
:10436000D040CB51DF4F9881C55ED040C751DF4F61
:104370009883C95ED040CB51DF4F8883C55ED04063
:10438000C85FDE4F48815981C850D140C65FDE4FBB
:10439000A881B981CA50D140C45FDE4F28813981DC
:1043A000CC50D140C05FDE4F39832883C051D1400B
:1043B0009301F9018081FA01F080F826C05FDE4F99
:1043C000E881F981C051D14060819C9196279F2559
:1043D000E92EE8267F2D771F7727771F709F602DA6
:1043E0001124FF0CF626EF24F901E082FA01E080A7
:1043F000FC90FE24E9267F2D771F7727771F709F7B
:10440000602D1124FF0CF626EF24E082EC90C05FB3
:10441000DE4FE881F981C051D140F080FE24E926C9
:104420007F2D771F7727771F709F602D1124FF0C3A
:10443000F626EF24EC92608186279627782F771F47
:104440007727771F709F602D1124880F8627982764
:1044500090832C5F3F4F4C5F5F4F14963496C05F44
:10446000DE4FF983E883C051D1402C153D0509F09A
:10447000A0CF4CEE54E0BE0162527F4F812F0E94CC
:10448000F2121F5F1A3009F0FECECE0182529F4F0A
:104490000E94DE12C152DF4F8881CF5DD040CD51E6
:1044A000DF4F9881C35ED040C152DF4F9883CF5D0C
:1044B000D040C951DF4F9881C75ED040CD51DF4F0A
:1044C0009883C35ED040C551DF4F9881CB5ED0400A
:1044D000C951DF4F9883C75ED040C551DF4F8883F5
:1044E000CB5ED040C052DF4F8881C05ED040C85103
:1044F000DF4F9881C85ED040C052DF4F9883C05EC6
:10450000D040C851DF4F8883C85ED040CC51DF4FC8
:104510008881C45ED040C451DF4F9881CC5ED040CA
:10452000CC51DF4F9883C45ED040C451DF4F8883A5
:10453000CC5ED040CF51DF4F8881C15ED040C351A7
:10454000DF4F9881CD5ED040CF51DF4F9883C15E61
:10455000D040C751DF4F9881C95ED040C351DF4F73
:104560009883CD5ED040CB51DF4F9881C55ED0405F
:10457000C751DF4F9883C95ED040CB51DF4F88834E
:10458000C55ED0404CEE54E0BE0162527F4F8AE0DF
:104590000E94F21280E1FE01E252FF4FACE9B5E069
:1045A00001900D928A95E1F7CA5FDE4F288139812B
:1045B000C650D1402115310509F466C07201E20CE4
:1045C000F31C2D32310518F4D7011C925DC080E137
:1045D000FE01E252FF4FDE01A753BF4F01900D9243
:1045E0008A95E1F761E089EC90E08C0F9D1F409681
:1045F0000E94E31C49EC50E04C0F5D1F4F5E5F4F83
:1046000061E170E0CE0187539F4F0E94591B8E01DC
:1046100007531F4F312CC12CD12CF80191918F01E0
:10462000292E22942FE02222622D832DC25FDE4F9D
:104630009883CE50D1400E94D11A37016C0C7D1C5A
:10464000D3018C93C25FDE4F9881CE50D1409F70D2
:10465000392E692F822D0E94D11AF3018183F2E055
:10466000CF0ED11C2AE2C216D104B9F6F701E30D30
:10467000F11D8081D7019A968C939A978DE39B9632
:104680008C939B979C961C92C2010E94951D0E9440
:104690008F1780E99DE19093CE038093CD03109214
:1046A000CC031092CB0348EC50E0B20180E00E94B2
:1046B000702BC12CD12C760101E010E020E030E01D
:1046C000A2016AE270E080E090E00E94E83620E01B
:1046D000B501A401C2010E94F01AF201019000206C
:1046E000E9F73197E419F509EE0FFF1FEE0FFF1FF1
:1046F00001E010E020E030E0A2016AE270E084E531
:1047000090E08E1B9F0B0E94E8360E948F17CF5EB1
:10471000DE4F0FB6F894DEBF0FBECDBFDF91CF9155
:104720001F910F91FF90EF90DF90CF90BF90AF90CF
:104730009F908F907F906F905F904F903F902F90C1
:104740000895DC019696ED91FC9197974E9F90010C
:104750004F9F300D5E9F300D1124620F731F9B0120
:1047600043E0359527954A95E1F79A964D915C91EE
:104770009B972417350770F4FC01E20FF31F84A503
:1047800090E06770772702C0959587956A95E2F764
:104790008170089580E00895CF93782F41155105D9
:1047A00061F4813009F04BC0623009F048C081E00B
:1047B0002230310509F043C043C02430310561F493
:1047C000813009F03CC0613009F039C081E04230ED
:1047D000510509F034C034C0862F90E064E0769F24
:1047E000800D911D1124880F991F880F991F8758DC
:1047F0009E4EFC01C491319674913196649131962C
:10480000E4918E2F90E0A0E0B0E0B82FAA2799277E
:104810008827972B8C2BA62B220F331F220F331F99
:1048200041505109420F531F440F551F04C0B69504
:10483000A795979587954A95D2F7837001C080E038
:10484000CF9108952F923F924F925F926F927F92F5
:104850008F929F92AF92BF92CF92DF92EF92FF9290
:104860000F931F93CF93DF93E114F104D1F127014C
:10487000122F1B013C017A01812C912CC22DD32DCA
:10488000A12CB12CD7FD1BC0F30186A197A18C17D9
:104890009D07ACF0F7FC13C080A591A58E159F0570
:1048A00074F09401A501602F812F0E94CC238823EE
:1048B00031F0212FA701BE01C601F2010995FFEFDA
:1048C000AF1ABF0A219685E0A816B104D9F6EFEF1A
:1048D0008E1A9E0AFFEFEF1AFF0A85E088169104F0
:1048E00069F6DF91CF911F910F91FF90EF90DF90CC
:1048F000CF90BF90AF909F908F907F906F905F9080
:104900004F903F902F900895EF92FF920F931F9337
:10491000CF93DF930097C1F08A017B01EC01EA8518
:10492000FB85309719F088859985099588A199A10B
:10493000E816F90649F48AA19BA10817190721F482
:1049400085E090E09BA78AA7DF91CF911F910F91FF
:10495000FF90EF9008950F93CF93DF93EB010E94A8
:10496000B50DBE0183E095E20E946B17C830D105FA
:1049700008F045C0FE01EC5CFF4F0C94733EDF91E4
:10498000CF910F910C94361060E070E08DEA90E0CA
:104990000EC060E070E088EB95EE09C060E070E06A
:1049A00088E99EEF04C060E070E083E893E1DF9166
:1049B000CF910F910C947D0D01E020E030E042E4B6
:1049C00055E262E275EC87E008C001E020E030E0EB
:1049D0004FE055E266E178E988E00E94BE100FC022
:1049E0001092AC0580E00E94B80F8FE090E19093A8
:1049F000CE038093CD031092CC031092CB03DF91B2
:104A0000CF910F9108950F9300E09C014BEA54E27F
:104A100061E378ED82E00E94BE100F910895CF937C
:104A2000DF93EB010E94B50D209771F0BE018FE27C
:104A300095E20E946B17C130D10551F0229761F4C5
:104A4000DF91CF910C94752EDF91CF910C9451177B
:104A5000DF91CF910C94E92EDF91CF9108950F93C0
:104A6000CF93DF93EC010E94841701E09E014FE099
:104A700055E266E178E988E00E94BE10DF91CF91AF
:104A80000F9108958F929F92AF92BF92CF92DF9233
:104A9000EF92FF920F931F93CF93DF93CDB7DEB7C3
:104AA000C85CD1090FB6F894DEBF0FBECDBF5B0165
:104AB000CE0101966C0188ECF60111928A95E9F716
:104AC000672B29F40E94B50D0E9451174FC082E256
:104AD00095EC0E94F4374C0108EC10E0960141E09F
:104AE00050E07501F1E0EF1AF108B7010E94381AA1
:104AF000C4010E94653884E0E816F10409F509E074
:104B000010E02DE030E040E050E064E070E081E350
:104B10009BE40E94A4180BE010E029E430E049E097
:104B200050E060E070E084E89CEE0E94A4180E94CF
:104B30008F1768E873E180E090E00E944E1216C083
:104B40000E94B50DB50187E199E00E946B17C6017F
:104B50000E94951D0E948F1780E99DE19093CE03DE
:104B60008093CD031092CC031092CB03C853DF4F38
:104B70000FB6F894DEBF0FBECDBFDF91CF911F916E
:104B80000F91FF90EF90DF90CF90BF90AF909F90EC
:104B90008F900895CF93DF93CDB7DEB72B970FB6E5
:104BA000F894DEBF0FBECDBF2BE0E8E4F1E0DE01FC
:104BB000119601900D922A95E1F7892B59F46A30EC
:104BC000710544F4E1E0F0E0EC0FFD1FE60FF71F84
:104BD000808101C08FEF2B960FB6F894DEBF0FBE19
:104BE000CDBFDF91CF910895CF93DF93CDB7DEB7DF
:104BF0002B970FB6F894DEBF0FBECDBF2BE0E3E5D9
:104C0000F1E0DE01119601900D922A95E1F7892BD2
:104C100059F46A30710544F4E1E0F0E0EC0FFD1F57
:104C2000E60FF71F808101C08FEF2B960FB6F89427
:104C3000DEBF0FBECDBFDF91CF9108950F931F93BD
:104C4000CF93DF9300D000D000D0CDB7DEB7DC012A
:104C50001E821D821C821B828AE689831A825596D7
:104C60001C921E92549759961C921E9258975696D3
:104C70008D919C915797892B69F150968D919C91BC
:104C80005197892B39F152968D919C915397892B8D
:104C900009F11696ED91FC9117973097D9F08D0197
:104CA0009E012D5F3F4FAE014B5F5F4FBE016F5FB7
:104CB0007F4F14968D919C9115970995D801529626
:104CC0008D919C9153976B817C810E944B3EF801A2
:104CD000718F608F26960FB6F894DEBF0FBECDBFE2
:104CE000DF91CF911F910F9108953F924F925F9264
:104CF0006F927F928F929F92AF92BF92CF92DF92EC
:104D0000EF92FF920F931F93CF93DF9300D000D0C9
:104D10001F92CDB7DEB7E0E2ED831C821B821A82C0
:104D200019822115310519F48FEF9FEF93C02901E6
:104D30007A015B016C01A90160E070E0C7010E948B
:104D4000993E370100E010E081E0481A510880E206
:104D5000382E0415150508F04AC0D6011296ED91BB
:104D6000FC91139721E030E0AE014B5F5F4FB8013B
:104D70006A0D7B1D8D919C9109950197A9F68D81F6
:104D8000811101C03D828D81893009F43D828D8180
:104D9000F30181933F014801FFEF8F1A9F0A8A3088
:104DA00029F1D60150962D913C915197C4018A0D5D
:104DB0009B1D82179307D0F41696ED91FC911797DF
:104DC0009E012F5F3F4FAE014D5F5F4FB7011496BD
:104DD0008D919C91159709952B813C81F6018485D5
:104DE00095858217930718F08401B3CF8401F701EA
:104DF000E00FF11F10820115110551F1D801119733
:104E0000AE0DBF1D8C918A3011F41C921FC08032F0
:104E1000C9F080E090E02291203229F001968017BD
:104E20009107C9F70FC08017910760F4A00EB11E5B
:104E3000D60150962D913C915197A216B30610F4CD
:104E4000081B190BF701E00FF11F1082C80102C007
:104E500080E090E00F900F900F900F900F90DF91F7
:104E6000CF911F910F91FF90EF90DF90CF90BF9067
:104E7000AF909F908F907F906F905F904F903F90FA
:104E80000895CF92DF92EF92FF920F931F93CF93EB
:104E9000DF9300D000D000D0CDB7DEB7DC011E829A
:104EA0001D821C821B828AE689831A8253961C9279
:104EB0001E92529755961C921E92549757961C928A
:104EC0001E92569750968D919C915197892B09F47B
:104ED00066C01C968D919C911D97892B09F45FC02B
:104EE0001E968D919C911F97892B09F458C012969C
:104EF0008D919C911397892B09F451C01696ED91D1
:104F0000FC911797309709F44AC08D019E012D5FDF
:104F10003F4FAE014B5F5F4FBE016F5F7F4F1496F7
:104F20008D919C9115970995D8011E968D919C9114
:104F30001F976B817C810E944B3EF801778B668BBB
:104F4000672B69F1E12CF12C6801FAE1CF0ED11C3D
:104F5000F80180899189E816F906F8F4D801589685
:104F60002D913C9159972F5F3F4FA601B701C80182
:104F70000E94752697FF04C0F801158A148A0FC095
:104F8000E80EF91ED80154968D919C915597019683
:104F900055969C938E935497DBCF138A128A26964C
:104FA0000FB6F894DEBF0FBECDBFDF91CF911F913A
:104FB0000F91FF90EF90DF90CF900895CF92DF9206
:104FC000EF92FF920F931F93CF93DF93EC01EA814F
:104FD000FB81309719F0888199810995C884D9841B
:104FE000EA84FB840DA12CA140E050E060E070E079
:104FF000CE010E9422248E859F85892BB1F4CC801E
:10500000DD80EE80FF804C8D5D8D6A8D7B8D0F8DF8
:105010002E8DCE010E942224DF91CF911F910F91FE
:10502000FF90EF90DF90CF90089500E010E08EA108
:105030009FA1081719071CF7E12CF12C88A599A549
:10504000E816F9065CF4A701B801CE010E94A1237D
:10505000811107C08FEFE81AF80AF0CF0F5F1F4FDA
:10506000E6CFEE85FF85A701B8018C859D85099562
:10507000F1CFCF93DF93EC01ECA1EE8F8DA18F8F59
:105080002EA13FA137FF02C02F5F3F4F35952795D7
:10509000F0E0E751FE4E449190E0880F991F50E0F8
:1050A000082E02C0559547950A94E2F740FF03C0C9
:1050B0004DEF5FEF02C04EEF5FEF240F351F3B8FC8
:1050C0002A8FE491F0E0816002C0F595E7958A951A
:1050D000E2F7E0FF03C08DEF9FEF02C08EEF9FEF7E
:1050E0009D8F8C8F66E070E0CE010E94E3348CA32C
:1050F00063E070E0CE010E94E3348DA3DF91CF9195
:105100000895CF93DF93009709F461C0EC01198EE5
:10511000188E66E070E00E94E3348E8F63E070E0EA
:10512000CE010E94E3348F8F2EA13FA137FF02C032
:105130002F5F3F4FA90155954795EE8DF0E0E75160
:10514000FE4E24919927880F991F30E0082E02C047
:10515000359527950A94E2F720FF03C02DEF3FEF26
:1051600002C02EEF3FEF240F351F3B8F2A8FE491B3
:10517000F0E0816002C0F595E7958A95E2F7E0FFDF
:1051800003C08DEF9FEF02C08EEF9FEF9D8F8C8F3E
:1051900066E070E0CE010E94E3348CA363E070E02F
:1051A000CE010E94E3348DA38EA19FA1059699A301
:1051B00088A385E090E09BA38AA34AA55BA560E055
:1051C00070E0CE018C960E94993E81E001C080E0A3
:1051D000DF91CF9108952F923F924F925F926F92FD
:1051E0007F928F929F92AF92BF92CF92DF92EF9277
:1051F000FF920F931F93CF93DF9300D000D0CDB7D2
:10520000DEB75C014B016A01122F7B011B0124E018
:10521000220E311CCA0104969A83898337016818CB
:1052200079082E143F040CF445C0DC82CB824B80FD
:105230005C804C185D0829813A818B819C812817FC
:105240003907A4F1F7FC12C0F50186A197A1E81671
:10525000F90664F480A591A52B813C8128173907B4
:105260002CF48B819C8197FF0BC01AC09201A30183
:10527000602F812F0E94CC23882399F380E01BC0EC
:105280009201A301602F812F0E94CC23882341F03B
:105290004B815C81B701C5010E94A1238111EECF32
:1052A000EB81FC813196FC83EB83C1CF9FEFE91A40
:1052B000F90AB4CF81E00F900F900F900F90DF911B
:1052C000CF911F910F91FF90EF90DF90CF90BF9003
:1052D000AF909F908F907F906F905F904F903F9096
:1052E0002F9008952F923F924F925F926F927F92EC
:1052F0008F929F92AF92BF92CF92DF92EF92FF92E6
:105300000F931F93CF93DF9300D000D000D0CDB781
:10531000DEB79E838D83DC0198960D90BC91A02D05
:10532000BA83A983C12CD12CE12CF12C44244394C1
:10533000512C69817A81C616D7060CF076C0AD81F2
:10534000BE819696AD90BC90979700E010E00A154C
:105350001B0564F4A601B8018D819E810E94A123E2
:10536000813009F05EC00F5F1F4FF1CF0A151B059A
:1053700009F057C00C9D10010D9D300C1C9D300C88
:105380001124C601612C712C181619060CF046C0A8
:105390009301220D331D812C912CFC0131975F016B
:1053A00080169106BCF5A501B4018D819E812B83E9
:1053B0003C830E94A1232B813C81A401420F531FF7
:1053C000FA0193E0F595E7959A95E1F7AD81BE81F5
:1053D0009A966D917C919B97E617F707B8F4EA0FC0
:1053E000FB1F47705527811109C0C20101C0880FFA
:1053F0004A95EAF7809594A5892307C0C20101C0A8
:10540000880F4A95EAF794A5892B84A7BFEF8B1ADA
:105410009B0AC6CFC501601A710AB6CFFFEFEF1A1B
:10542000FF0A4FEFC41AD40A84CFB2E0EB16F1049E
:10543000D1F058F4EA94EF2851F5AD81BE81589629
:105440008D919C91599701961BC043E0E416F1049D
:1054500081F054E0E516F104D1F4ED81FE81808DF8
:10546000918D409612C0ED81FE81808D918D0496C4
:105470000CC0AD81BE8158968D919C91599708962C
:1054800059969C938E93589702C0918F808F269641
:105490000FB6F894DEBF0FBECDBFDF91CF911F9145
:1054A0000F91FF90EF90DF90CF90BF90AF909F90C3
:1054B0008F907F906F905F904F903F902F900895C6
:1054C000FC0166A177A120E030E026173707BCF485
:1054D000F90143E0F595E7954A95E1F7E80FF91FE3
:1054E00044A550E0F901E770FF2702C055954795A4
:1054F000EA95E2F740FD05C02F5F3F4FE6CF80E021
:10550000089581E008952F923F924F925F926F929B
:105510007F928F929F92AF92BF92CF92DF92EF9243
:10552000FF920F931F93CF93DF9300D000D0CDB79E
:10553000DEB76C015B017A01922F702F25011501F6
:1055400024E0220E311C4A0134E0830E911C6624B3
:105550006394712C82010A191B09241435040CF47C
:105560004BC0FC82EB822B813C812E193F09EB81E1
:10557000FC818E169F06E4F1A801672F892F7A839C
:1055800099830E94CC237A819981882359F1D6018D
:1055900096964D915C919797EB81FC81E49F9001E9
:1055A000E59F300DF49F300D1124240D351DF901B8
:1055B00083E0F595E7958A95E1F79A964D915C9190
:1055C0009B97E417F50770F4EC0DFD1D277033274A
:1055D000A30102C0440F551F2A95E2F79A0184A542
:1055E000282B24A7AB81BC811196BC83AB83BBCF96
:1055F000FFEF4F1A5F0AAECF0F900F900F900F90F2
:10560000DF91CF911F910F91FF90EF90DF90CF909E
:10561000BF90AF909F908F907F906F905F904F90D2
:105620003F902F900895CF93DF93009711F1DC0105
:105630005296ED91FC9153973097D9F0EC01488D3B
:10564000598D4150510960E070E088899989099528
:105650009DA38CA34A8D5B8D41505109EA89FB893A
:1056600060E070E08889998909959FA38EA381E005
:1056700001C080E0DF91CF910895FC0180A991A93C
:105680003097A1F026A537A544A555A524173507C1
:1056900020F0C901841B950B0895880F991F880F6E
:1056A000991F841B950B820F931F089580E090E053
:1056B000089597FD12C0892B19F477FF06C00AC020
:1056C000672B59F482E090E00895672B31F083E076
:1056D00090E0089581E090E0089580E090E00895E2
:1056E000CF92DF92EF92FF920F931F93CF93DF93AE
:1056F000182F7B01EA0160E070E0C7010E94993E2B
:1057000083EB92E10E94F4376C01612F70E08E010F
:10571000970140E050E00E94381ACE0DDF1D21971E
:105720001882C6010E946538C701DF91CF911F9191
:105730000F91FF90EF90DF90CF900895CF92DF927E
:10574000EF92FF920F931F93CB01BA01A901C12CD5
:10575000D12C760101E010E020E030E00E94E83634
:105760001F910F91FF90EF90DF90CF90089541151A
:10577000510571F0FB0101900020E9F73197E61B1C
:10578000F70BEE0FFF1FEE0FFF1FDA01ED93FC93F7
:105790002115310529F086E090E0F901918380839D
:1057A00008958F929F92AF92BF92CF92DF92EF9225
:1057B000FF920F931F93CF93DF935C016B018A01DC
:1057C000790120918C0130918D01E216F30620F0D1
:1057D000E0909001F0909101C216D306C0F5C70188
:1057E0008C0D9D1D2817390718F47901EC18FD0858
:1057F000E114F10479F160918E0170918F016C0DCB
:105800007D1D40E050E0C5010E949F35E80100E0A9
:1058100010E08AE0982E9DE2892E41E050E0BE0122
:10582000C5010E942235019781F488818C3239F4B8
:105830008AE0C816D10410F4888201C098820F5FF4
:105840001F4F21960E151F0541F7C80105C08FEFA8
:105850009FEF02C080E090E0DF91CF911F910F9108
:10586000FF90EF90DF90CF90BF90AF909F908F9080
:105870000895CF93DF93E0919001F0919101E901B8
:10588000E217F30708F4EF016E177F07B8F4CE01B3
:10589000860F971FE817F90718F4EF01C61BD70BFF
:1058A000209779F0CA012091920130919301620F03
:1058B000731FAE010E947E3ECE0105C08FEF9FEFA9
:1058C00002C080E090E0DF91CF910895CB01880F76
:1058D000991F860F971FBA01660F771F460F571F34
:1058E000BA016E5F7F4F23E030E043E050E0029664
:1058F0000C94603795E0969FF001979FF00D11246E
:105900004F5F5F4F949FB001959F700D112425E06C
:1059100030E045E050E0CF018C960C946037EF9278
:10592000FF920F931F93CB01880F991F860F971F2C
:10593000BA01660F771F460F571FBA016E5F7F4F80
:10594000E12CF12C8701E39423E030E043E050E0C8
:1059500002960E94A2361F910F91FF90EF9008953A
:105960000F931F93CF93DF930E94B719C091C10388
:10597000D091C203209709F440C0CE010E94602A52
:105980008130D9F10F8D10E04C8D5D8D4F5F5F4FF1
:105990006A8D7B8D2E8DCE010E94EB284C8D5D8D06
:1059A000813029F44F5F5F4F5D8F4C8F23C06A8D2C
:1059B0007B8D0F8D2E8DCE010E94832ACE010E94F9
:1059C0007229CE010E94602A813089F4CE010E94A2
:1059D000DE27088D198DCE010E948128EE89FF896E
:1059E000309759F0B8018C899D89099506C0CE0180
:1059F0000E943928CE010E94DE2780911C019091DF
:105A00001D01019631F0DF91CF911F910F910C9400
:105A10008F17DF91CF911F910F91089580911C01F5
:105A200090911D010E94C8378FEF9FEF90931D0149
:105A300080931C014091BF035091C00360E070E06F
:105A40008091C1039091C2030C94993ECF93DF9350
:105A5000EB010E940E2D60E070E087EE9EE20E9456
:105A60006B17BE018AEADF91CF910C94911F0F93BF
:105A70001F93CF93DF93611134C0423041F40E94F1
:105A80000E2DDF91CF911F910F910C945117413042
:105A900009F0BBC0C091C103D091C2032097D9F0D7
:105AA000CE010E94602A8130B1F00F8D10E04C8D44
:105AB0005D8D6A8D7B8D615071092E8DCE010E94A6
:105AC000EB28813041F48A8D9B8D01979B8F8A8FC3
:105AD000CE010E94DE27DF91CF911F910F910C9490
