:100000000C9423090C9440090C9440090C94400969
:100010000C9440090C9440090C9440090C9440093C
:100020000C9440090C9440090C9440090C9440092C
:100030000C9440090C9440090C9440090C9440091C
:100040000C94A8130C9440090C9440090C9440099A
:100050000C9440090C9440090C9440090C944009FC
:100060000C9440090C944009022FCC6D0D97282464
:100070000168783205A1439D1464AA4B618E21A9C1
:100080007107783CD90E3D03A555B97B82F7BB6358
:1000900066B37D5EBBE0672D225A6DA7B46D800804
:1000A000C8614FAD0B6AF34D3E1A70612C1ABD5EEC
:1000B0008F0774BB1438D878079C204D0F67743FA6
:1000C00007A2439C126DAE0715F75534A917183DCA
:1000D000BA4B02349774A9214E813006E24221BA0C
:1000E0000A0721495E3521849946CCBD74DDF3139E
:1000F000BFDE47F9F2D6BCADF8CE498A53DBA8671C
:10010000C0EC0CACCC50ECE1FB9380CBFB5EBF9819
:10011000E6975AF3D93B99F87DDB0CE88697DEE841
:1001200043A07DF6844DE6CA56F6950EBAB4620A2F
:100130006B219530D50A800E8BAF08BDE385E7A211
:10014000568842415E28A5C6D84E2393033B8E7F36
:100150005724975B8823C62D05A041B4BA2BE16CC8
:100160006DC567069B2780AA3C5B755655B66BE349
:10017000B6F9ADB19ACAF63D9D85E1213983B863E0
:100180000E5E542213C56B69F94A8C515A7E147A5B
:100190004078DFD12B6310DF68449A0482175DB783
:1001A00004EB07D49BBE2804FE405CE4FE2F8E9136
:1001B00065C4B3978280D8EF74B8921D6ADD7E2C37
:1001C0002F810C562E1F35AEC509D3968DBE2859EA
:1001D0007FAF278257DA4CE4F62A4E28FFAB74B083
:1001E000B1C8CB6B247F6430D0913013DFA8A4E872
:1001F000EB7D13511EAE9ED7DD07D625A9E4350F42
:1002000074BBF544609BA7DE63CE03298D6AF18A37
:1002100025170E0071DA0AABA97AFF7D44EDC321E0
:100220008FEE77C842E68C9DA89E39DA038BC837DB
:1002300090BA4494588E84D187E3F0BB0968453066
:10024000346E2983A94BE1B47550108827078EB806
:100250001372682FF2BF3FFA66C6A538A2C36E4F6D
:10026000F201A500E53AB0C1F05977A53352CB753C
:10027000765238295BAAF516D75F2CE34C608020B4
:100280004FD46865472F3C777FDA3BE46A1BD67F03
:100290005DBF1D7CE15F5074FA125A6CCF2CF1796E
:1002A00006C9624EAA0A69CC323F1971062D19BCE3
:1002B00051821475BC1532D967069F221482647569
:1002C000376AA1429B13AF461814F4D203A814193D
:1002D00000A4250333818B283E4F86D4F4355D4638
:1002E0004ABF04204EE0E91DE9A1843AFA75DEE533
:1002F000E1496B9A9D7D3DBDB2FB3357FBA106558D
:100300009241EF0DF417BD36A5164FE9CCFA5644CD
:10031000323C21ED3926B898E60388D2995CE92071
:100320002E42A3531BE0B90A42A82C9409B245B24D
:1003300005163DFB2AE81981B1844539DB438F2539
:1003400056A78A1D426C7A6B06D9533D140318AC2C
:100350004649A49A694DFCC67011B274A43C577CFE
:10036000D88D11C750C69BEDA6CC5FAB4C2EA03EDE
:10037000D840678D86E53825D8DD7C474B9AA12784
:1003800001177D76DCF2B0B869F983EF2C5D8392BA
:10039000F53A742FC61A77B15FB9BC5D3563FF9A21
:1003A000471FDFE36A6D93D060918CA4FECB97F07A
:1003B000EAE95754B83E13F97B5AC4FADCBC3FEF64
:1003C0002632F39090D8F669309D0A6340ACA516AA
:1003D0002F7FC4233A5844500600D24D3864B58C60
:1003E0007990EBC671EA32F1D4564F8CED214BAACD
:1003F0001F298E624BC3BE803722075B3CA6ECE907
:10040000C3B5C7323F9A78A6FE9F53F8D2C3AE0F4A
:100410007BE45CF09E8F27CE0497B67C7A45EE8213
:1004200016892CB736B1FBADE2A98330253217F718
:100430003D51BF5D844A1C9BAF7B30CBFC8A2E2E86
:1004400060772C35BC8FC8E8B72CEF65A3DC03AF11
:100450004712F32C9D1319B5FD87FBA4398588AC91
:10046000CB386CA4786639B13EF118766DB2AE2AFD
:100470007A77513B2E672DF43636DC2DE4496381C3
:100480002F4CC66962462C3D487ED83AE36B98D71C
:10049000705C641C78FC5C516B03105B6BCE2F08A6
:1004A0008607CA6349AB09688D03381876672E182A
:1004B000B3508D0973BD163AC666059E26281125D0
:1004C0007A3105A0459A106168C917F55332AB150A
:1004D0001632684904329576B73F4C83E003204FCB
:1004E0002F74070524832B972F795B74C97B77249E
:1004F000651FDBDDD9F3F14CA2D59C15F63A37AA7E
:10050000C08F1B6F93153F3D0B410468393C3F3052
:100510007CF5D2F8EF93B7F5F6554CA70775884CE4
:100520004BD5479EB72A33295B8232385285078FD5
:10053000FF225E6E0A85E16EF223D1B866F0824C2E
:10054000D85A3FB3D233474CC30B1691BC15BE9259
:100550007EDEBD269E93AC1DD299AD08ED32B8C9A2
:1005600006918F6DCBAA338D7E5A3321945BFD1E8D
:10057000CF4734FB5478983847DC606D4F27347F81
:1005800047D283DC5223EE4755F70572F6575A7C63
:100590001A0B7C74D7322ADD0EC1EA56BC7A61FC94
:1005A00084B8A0091E556E479986F0824A1D33D142
:1005B000788178383EF1828D380EA689536B684970
:1005C0007FD0CC6C085FEC213B5CBFB4FB967E58BF
:1005D000D6579A33E6248938BD1ACF28465721D7F3
:1005E0007860BD364D95A68A91496A8EB6EBADCC42
:1005F0006961D5877AB2C0B17F2E1B5DA3CE641A24
:10060000E6C6AB47CB3B648666105852FCA1C37765
:100610004F64F8E24FBF0CCA60AD9554FA8C99AFA5
:10062000DDAE159248CFC7C30D63A29D0C1DF05BD4
:10063000D4066D4F5AFA9F3DBD5009E1094D8B6CB0
:1006400091FD0B3B7485AAA8D3B62F0E3B4361578F
:1006500004B651F222306E0163F466D5A318208DE2
:1006600090363425810EA3784F3FFD678EFC34050C
:100670009A8BE0F2ED36E9661A80D69ABB6DCEE72A
:1006800077C92383B39B5873A72CB245C12D97EC30
:100690001BB6BEEE3925589EB195EE6AAB00C7FB7E
:1006A00004F8FA6A1BA7F47AB9DECDC4E03F6053C0
:1006B0007C3586D7FD7CB017D426A234A4BB017D3F
:1006C0009ABCB41BAB3B98E631AE350A0E73C16DD4
:1006D000EA098A87AE75BE5677AA4255FA104DE6EA
:1006E0004FD69708C1E58F23173E5995C1C3444B98
:1006F000ECC76372EB4884903442337870917ED0BB
:1007000051A9753FD90BB63792CFD4D876780DF76B
:10071000904F921463BDE8C5DAF719413934629AF3
:100720000D201AC79A990F7ECF6048AAEC6FFC4B38
:10073000896D07166B6DCC29E86003DC735FBF1F02
:1007400070CB575A7810034840E504DB5524E94044
:1007500062802243DE606F4B3D2C6553F013CE4622
:1007600039F65D719535AD328F231B212B6D0A92C1
:1007700070A52138F6011EED552FAC376A0C775C59
:100780001423922EB327549F0B6E9B3B049F237719
:100790001168612716A5569D506CAD066FC2744F47
:1007A000F8410733677B33139730F1790AC6241D6C
:1007B000F1096AF110516614165C7EC938BC7B06DB
:1007C000C52F4EB84469E0447A5F236F644EF0123F
:1007D000A22D78AD345C91394BB10A5E4C2F317B40
:1007E00009A227DD4B63BF2AFF44D6BC2C93D6FC5D
:1007F000FECA9BF44599438DC70FA1950FA8863B70
:100800008782B2A4B4A5A90BCD099FF057C4E90112
:10081000AF9F0AF5EBCCADBDB98365E91C95EE221F
:1008200092A942EF8E5083B1FE9D89C5FC128C695E
:10083000EA8153FC997DD9D364CFC5EDEBFD87B236
:1008400012F07CF8CE1CB69046E6D443BAD0D8ACB1
:10085000A4EEC175D967D9F143D0E500B18252F653
:10086000A6F6BAB0F7C9698FA9281CB73307FE10DE
:100870003EAA1C5523574947209E63B1280BA22648
:100880001BEA5F3FB44F30367D612619B24FC10677
:1008900070F90636DF3A38852B210E215E3C0AA717
:1008A000448C5848A91127DA0379FD5C3714455563
:1008B0001A268133E62F418F3211F4056EB4674852
:1008C0007708105A6DC167BF7C3EEB483DA02555A7
:1008D000D37E3477322E75438662840D70B01E63EA
:1008E00083621C873432152CCFC58B17CA0B8EF050
:1008F00058B091799BA32C88CFE6C8DE8BEA1EE125
:1009000032B2CB05A1C86BC78200B4FD97F6F2AA3C
:10091000D720D60D86B32798B055A5901CBFBCCC68
:10092000E7FEA19726C31C82D275FBC03B969C00B4
:100930008B86ABC8DEC4FC18F824A6DD14A1F02217
:100940009DFB63C0CCFFCC92E69E6D92468B9A785D
:10095000C5F208A59B08ECE4C5E3B8FAC762CF5F0F
:10096000D0E76CC2E40EE9D8A109557478461A3074
:10097000927EA4205EDD705AD54E30BC15664714B9
:10098000084B75D075B77C10EA4967C57E5EA70035
:100990001831502906209077BC5301C95D7A9030F8
:1009A0001F9964745D3A2C27729619F16317D276F9
:1009B00053B85D5FE95E5C78071D5D698F00FE7A64
:1009C0000DDA2E65A60F79F3611233607C3809ECDD
:1009D0001C82166FAD056B946B69CF64640E173083
:1009E0006347EC07975139FFB98767DDBD2FD4BB4B
:1009F0009EF8DBC38704F62CBBCC10AA87778D84C6
:100A00003485C48BCBD198A53FC168E7A86FCFE2EE
:100A10004EF3D155E4E3C5EDFFF5B920C852AAE67F
:100A20002985EF59E4CA20A5DBF69CC1C5E91D8ED6
:100A30006EF1915FB4CF318CEF3CE7C2E083D4F626
:100A4000E956A672E68A41E9E65B99DD48FAB89A6A
:100A5000FA9CEBD86EF92392F4319AF60FEE9200DD
:100A6000B8B7D1A4F2D4E7505C940272BB1353D34D
:100A70006D1B86325E5B361E427CD97ABE771CDDEA
:100A8000715CFC4167980D02107A6E2C5B9856825F
:100A90001472FA3031DA7716982F6C404054774848
:100AA0008D4589026DBF0D39FA3D6CE25F5E107FA6
:100AB0005E1B248025E72C459A3A17B50E2ECF4DA4
:100AC0005467090D144EC428C35C3FF24C75D0170F
:100AD0005ED67C705936226003C40ED5566BD14663
:100AE0007E8A402685353314C2CEC6E945AE71B93B
:100AF000DB55939A6CDFB736979DACD29694A74C92
:100B0000C632BDD10FAD8267F0D63F9899DED9ECE1
:100B1000A3843ED1048DE42D87A848E1910BE4BD68
:100B20008CABDCB68523C60CAEB95BE9DC2490E265
:100B3000609BF7FF8E9686C059A761F88951E7CD73
:100B400020C2C9648EF0EC81B4E0D238BE47DBB875
:100B50006AD49277EE8011ADFEC7ECE4A6993D9E73
:100B6000529B806ADDA82BA438BF15510C5E481932
:100B70003E9D33EA6278873B0CE22947E05D587C72
:100B80004B565E7DDD35E93073FD3E37CB32259D1A
:100B90003577267C62261EB94CD63E6CA7066FF2CE
:100BA000660281202D462A3D6367D533E606728EA4
:100BB0002A0DEC1D76AC0D013153405A66820EE4CD
:100BC0006206C96840A50E28E57A7B5076146B5BF7
:100BD000E602C4512BBD7A75852D05ED7F7859202D
:100BE000376209D40ACA494C7AE8C72F83E22A98A7
:100BF000DAE38893D6E214FB7B9CC316A29465D2F9
:100C0000A63A8FC584D6DE928D7AFA009CFE248C9B
:100C1000BC4DE4DC35ADB190E7F0A88D29D85DB4CA
:100C2000E73D96EE7DE38511DDC794FBD79DA30ECE
:100C3000E16FE9D90DA48168D7E7728DEDE28B975A
:100C4000D1EA018A74FD8556C8FB00F4E75AF1F732
:100C5000D7A8E4C6DF7A9E47CAEF40D9E80DAAAD0F
:100C60003FBAB59AFFEFF7CDD729F7770AC52E1F00
:100C7000B2703CB01F1F785A530324866AF22F408B
:100C80009C294FC94429B8082C5656732914BE56BE
:100C9000860219D1456A8228578C2D615E3D246FEA
:100CA00017AF0FB0274D8D2F15952751C87C3516DE
:100CB0004B511224C739A53054943A56AF4E44DCF8
:100CC0006C07263A1B5674D61C810C14D91D409211
:100CD000304CC27A7344386D4A4BFF03D64C64C320
:100CE0004162CC6A0BFD6D75AFBEAADAE14BAF3045
:100CF000AB9B48E9C82BC9B571A785AD86FF9FBAE4
:100D000007A06AF9F20CB59941F9870AA5FBADF97C
:100D1000EFA08635B860D2AB71D9B748AFD141F5F5
:100D2000F692E5B5958E29867EE08941BCF2318345
:100D3000FA7798D4E59ACCE5EA46A47AFDCB52E05E
:100D40008D1A9EA031DBC8E1F2A5E3CE6C88019B31
:100D5000882A80BE23BFD850F1AFC6A7F6CECC6F8D
:100D6000944CDDB17589DB0C5624AC145A7814769A
:100D700014338673B9373DF57B5EB41433B5485AE6
:100D8000791908032ECA469E3A5A80351EFC5F50D8
:100D9000A709113155234B7AF812C74D7AA842762C
:100DA000943F5D86236F32651B0964D728A27B11AF
:100DB000D76453B9153DF71D5B7905516F59E14370
:100DC00095235E9A3458A5440396232D4F3A684ADA
:100DD0005BF705CD563CEC174786364DDA74280A8A
:100DE0006A0B7D50E20ACD58DF1DFAB067C6A43801
:100DF0009FD787CCC28BB406E834B5C10DB98A64DD
:100E0000DCE2008098BCD59DE09F32DB43A1F72453
:100E100098F53196CF5AEFE19BEEBCEED17C9F0066
:100E20009BAB0B80BD42FF8D2DFAD2FB9F83CBF68F
:100E300047F05FE0814DF9D43583A95DC7C5E989E5
:100E400093C2ED00E33AC48465CDF21BB1D759F2E9
:100E50009BB8EDF3B682659B1B8AF6379CF00DECD0
:100E6000EE43E9F7C3BCFCB17FB977AB3952983890
:100E70005DDC582EA4121F3A5B1F2925837AB836F1
:100E800006CF6225F34620B78B5F2C414A02389883
:100E900011BD275A8E3056B36F128B3170412B7BA8
:100EA0003F16A843D51270E26B5BA1007BED554A5B
:100EB00067565A0D76DA36FB6A06C16944A20F738B
:100EC000E14A486B401C596DB411CB493FED107A93
:100ED0008A3351996A2E38571C567DC12C92097A53
:100EE000BB1602E71245C67FDEBED5D785B918BE50
:100EF00026B4B971A19674D7A4378589EFC6DA9B59
:100F0000CA68E03DBC841AE7B752B5801BA2AB8823
:100F1000FFEFCFFE04D70184EA3486A32F88AD13F8
:100F2000A4AC928494928029BC7581F71EBE836123
:100F3000CFAE24B4B8BCDFDD8EAD24C039B8DB122F
:100F4000B2986FE1812194918BE0F5B98F13F5434D
:100F5000DFB57FD2EB08A2DC0CE2E0F7F5E2AC9C57
:100F60007EED37BEC27B96A4A41861E3141E2954FB
:100F70000000000023002600290000004908B400FA
:100F8000BEF67B7AA59455B848002944442A15A09A
:100F90000B42005003020008259076BA595CC59EAA
:100FA000C53892E6F33A73BAE59077BA773A0840D3
:100FB00008502A441CE08852E508568E77B677B868
:100FC000728CD6BA739E739272AEB7B6E95C64AA9D
:100FD000B7B4929CBEB6D6B656AAD79276EE77B480
:100FE0007138E948B6AEB6AAB6F6B5B4B548E59CD0
:100FF000694C9124642E5400001C44000EAE9ABA31
:101000000E8C2EAE0ECE56D0553B93B4414441517A
:1010100097B4494417B61AB60AAAD6D3766717907A
:101020000F389A8C16AE16BA16F615B4B52B1C5E90
:101030006B4C4948C95A540056E20000181400008D
:1010400018140000181400001814000059000004BF
:101050000804000019000404080400040814000037
:10106000190100050804001019000004080500011A
:1010700019000014080400001910001018040000E2
:1010800009140004090100051800000418100000EC
:1010900018050001090400140900000418040000E8
:1010A00019040004090400041900AA882AA22A2AA3
:1010B0002A637C777BF26B6FC53001672BFED7AB61
:1010C00076CA82C97DFA5947F0ADD4A2AF9CA4720A
:1010D000C0B7FD9326363FF7CC34A5E5F171D83182
:1010E0001504C723C31896059A071280E2EB27B2AE
:1010F0007509832C1A1B6E5AA0523BD6B329E32FD5
:101100008453D100ED20FCB15B6ACBBE394A4C5808
:10111000CFD0EFAAFB434D338545F9027F503C9F6A
:10112000A851A3408F929D38F5BCB6DA2110FFF389
:10113000D2CD0C13EC5F974417C4A77E3D645D19B4
:101140007360814FDC222A908846EEB814DE5E0B75
:10115000DBE0323A0A4906245CC2D3AC629195E4E2
:1011600079E7C8376D8DD54EA96C56F4EA657AAE2D
:1011700008BA78252E1CA6B4C6E8DD741F4BBD8BBB
:101180008A703EB5664803F60E613557B986C11DB3
:101190009EE1F8981169D98E949B1E87E9CE552857
:1011A000DF8CA1890DBFE6426841992D0FB054BB79
:1011B000168D01020408102040801B36000000003C
:1011C000240027002A0000000000250028002B0032
:1011D00004040404040404040202020202020303DD
:1011E00003030303010204081020408001020408E5
:1011F0001020010204081020000000080002010075
:10120000000304070000000000000000EC103BDFBA
:101210006C1C548F7CF7563D437E85DA6D5CB08242
:10122000FFAB81D9637962656172737B79307572C6
:101230005F6433763163335F31735F756E37727518
:10124000733733647D0011241FBECFEFD8E0DEBFBB
:10125000CDBF11E0A0E0B1E0EAE7FCE702C00590F5
:101260000D92A637B107D9F725E0A6E7B1E001C096
:101270001D92A339B207E1F70E947C3A0C943B3EE1
:101280000C940000FB01E859FF4F84910895CF931F
:10129000DF93CDB7DEB760970FB6F894DEBF0FBE11
:1012A000CDBF2091AC013091AD01DE01119640E03F
:1012B00050E0BD018AEAFA013496E20FF31F9491DF
:1012C000982794279D934F5F5F4F4031510599F7C1
:1012D000F90174968491E091BD01F091BE0140E165
:1012E00050E090E0099560960FB6F894DEBF0FBE0F
:1012F000CDBFDF91CF9108950F931F93CF93DF93CD
:10130000CDB7DEB7A2970FB6F894DEBF0FBECDBF44
:101310008EE480937C0062E070E080E090E00E94C8
:10132000621380917A00806480937A0080917A00C1
:1013300086FDFCCF209178008091790030E0382B39
:10134000032E000C440B550B64EB7BE281E190E033
:101350000E94683D243C89E038076CF02C388AE014
:1013600038075CF0203F8AE038074CF024353B40DA
:1013700044F483E007C080E005C081E003C082E060
:1013800001C084E001E010E0980102C0220F331F89
:101390008A95E2F7C901815080937A0125E030E017
:1013A00040E050E060E070E0CB010E94682801C09E
:1013B000000F6A95EAF70150009379018091780156
:1013C0008823D9F142E250E064E272E1CE01019655
:1013D0000E94493D8EE690E39A8789878FE592E6E1
:1013E0009C878B8781E692E79E878D8785E39DE7C3
:1013F000A0E08F87988BA98B80917601E82FF0E091
:10140000F595E79521E030E02C0F3D1FE20FF31F2B
:10141000208180FD06C030E094E0359527959A95AF
:10142000E1F7209379018F5F809376018232A0F0FB
:1014300010927701109278010FC0809177018F5F31
:101440008E3118F48093770107C0109277011092C3
:10145000760181E080937801A2960FB6F894DEBF02
:101460000FBECDBFDF91CF911F910F9108950F93C4
:101470001F93CF93DF93082F87E00E94CE2860E070
:1014800086E00E94CE28C7E0D0E010E0B8010C2E24
:1014900002C0759567950A94E2F7617077278BE033
:1014A0000E94CE2861E08DE00E94CE2860E08DE0B1
:1014B0000E94CE28219750F761E086E0DF91CF911E
:1014C0001F910F910C94CE280C949C13EF92FF92D5
:1014D0000F931F93CF93DF93D62F9C013327F901EE
:1014E000E850FE4E8491F901EC51FE4EF490F90162
:1014F000E053FE4EC491062F10E0CC2371F0811111
:101500000E94A528EC2FF0E0EE0FFF1FE059F04FEE
:10151000A591B491EC91EF21F1F4F801E654FE4F5E
:10152000808181111EC081E080830E949C13000F86
:10153000111F000F111FF801E255FE4F60837183E8
:1015400082839383E091CD03F091CE03309709F429
:1015500047C041E030C0F801E654FE4F8081811160
:1015600036C0C80186549E4F7C01FC0180818130C9
:10157000B9F50E949C13000F111F000F111FF801F5
:10158000E255FE4F0081118122813381DC01CB01C4
:10159000801B910BA20BB30B893E9340A105B105B3
:1015A000F8F082E0F7018083E091CD03F091CE0363
:1015B0003097B1F042E06D2F8091CB039091CC0336
:1015C000DF91CF911F910F91FF90EF9009941082BE
:1015D000E091CD03F091CE03309711F040E0EBCFD6
:1015E000DF91CF911F910F91FF90EF90089560E0F0
:1015F00089E090E00E94660A61E08AE090E00E9443
:10160000660A62E082E090E00C94660A0F931F93F2
:10161000CF93DF93CDB7DEB72B970FB6F894DEBF2D
:101620000FBECDBF8C014BE050E0BE016F5F7F4F1E
:1016300082E00E945F304AE050E0BE016F5F7F4F62
:10164000C8010E94F83D21E0892B09F020E0822F9B
:101650002B960FB6F894DEBF0FBECDBFDF91CF91B2
:101660001F910F910895EF92FF920F931F93CF93C5
:10167000DF93EC018B017C01E40EF51ECE15DF0536
:1016800041F0F80161918F01CE010E945A3D2196EF
:10169000F5CF81E0DF91CF911F910F91FF90EF90F7
:1016A0000895CF92DF92EF92FF920F931F93CF9303
:1016B000DF9397FD18C069017A018B01EC0140E0CE
:1016C00050E00E9420370817190769F4A601B701F6
:1016D000CE01DF91CF911F910F91FF90EF90DF909E
:1016E000CF900C94A3368FEF9FEFDF91CF911F9196
:1016F0000F91FF90EF90DF90CF900895A091C903D4
:10170000B091CA03109799F01197B093CA03A093B0
:10171000C903AA0FBB1FAA0FBB1FA558BE4FED914F
:10172000FC91119712968D919C91139709940895AD
:101730002091C9033091CA032A30310588F4F90198
:10174000EE0FFF1FEE0FFF1FE558FE4F91838083C2
:10175000738362832F5F3F4F3093CA032093C90383
:10176000089560E00C94370ACF93DF9380E80E94DD
:10177000B10B80E40E94B10BC3ECD1E061E0899130
:101780000E94370A83E0CB3BD807C1F7DF91CF91A6
:101790000895F4E5F69F9001F79F300D1124820F14
:1017A000931F60EA72E00E94DF3DF69F9001F79F71
:1017B000300D112464E570E00E94DF3DF901E80F6F
:1017C000F91FE83F81E0F80788F4ED53FE4F81E010
:1017D00090E001C0880F6A95EAF7442319F09081E0
:1017E000892B03C0809590818923808308950F936E
:1017F0001F93FB01BA0141E0012B022B032B09F4DB
:1018000040E0CF011F910F910C94C90B2F923F9292
:101810004F925F926F927F928F929F92AF92BF9200
:10182000CF92DF92EF92FF920F931F93CF93DF93AC
:10183000CDB7DEB728970FB6F894DEBF0FBECDBF89
:101840003B012A01302F512F20320CF420E2812C51
:10185000912C2052822F90E0880F991F8C010558FF
:10186000104FBC016658704F78876F83F8018491E0
:1018700080FF03C0C401019701C0C401009719F49F
:10188000EF81F8851BC08130910519F4EF81F8854F
:101890001CC08230910571F4EF81F8859491F801B4
:1018A00024919370F4E09F9FC0011124922F9270B5
:1018B000892B10C08330910529F4F8018491829519
:1018C0008F7007C0049721F4F8018491869501C0B8
:1018D00080E08E70212C312C682F70E07A83698330
:1018E000C401840D951D9C838B8383E090E0821955
:1018F0009309E981FA8102C0F595E7958A95E2F7A7
:10190000E0FD03C0C501D60103C0C701A32FB52F59
:1019100041E0892B8A2B8B2B09F440E06B817C8181
:10192000C101860D971D3D835E830E94C90BFFEFA9
:101930002F1A3F0A3D815E8144E024163104A9F646
:101940006FEF861A960A76E08716910409F08ECF1B
:1019500028960FB6F894DEBF0FBECDBFDF91CF91B2
:101960001F910F91FF90EF90DF90CF90BF90AF90BD
:101970009F908F907F906F905F904F903F902F90AF
:1019800008952F923F924F925F926F927F928F9223
:101990009F92AF92BF92CF92DF92EF92FF920F93FE
:1019A0001F93CF93DF9300D000D01F92CDB7DEB747
:1019B0002B017A0149010E945D396C01198298015D
:1019C0002E0D3F1D3D832C838701612C712CA12C92
:1019D000B12C2C813D8102171307E1F1E12CF12C90
:1019E000130181E0281A3108E814F90461F1C101FA
:1019F0008E199F099C01277033273B832A83C701D7
:101A00008A0D9B1D87709927892B51F441E050E086
:101A1000BE016F5F7F4FC6010E94A3360197D1F4CC
:101A2000498150E00A8002C0559547950A94E2F733
:101A30004170B801C701840D951D0E94C90B3FEF8D
:101A4000E31AF30AD1CF0F5F1F4FA80CB91C681817
:101A50007908BFCFC6010E94CE390F900F900F902A
:101A60000F900F90DF91CF911F910F91FF90EF900A
:101A7000DF90CF90BF90AF909F908F907F906F90AE
:101A80005F904F903F902F900895AF92BF92CF926A
:101A9000DF92EF92FF920F931F93CF93DF93A82EC5
:101AA000B0907901811108C0B0907A01C1E0D0E016
:101AB0004EE4C42ED12C04C0C0E0D0E0C12CD12C07
:101AC000E12CF12C870126E230E046E050E060E0B6
:101AD00070E0C6010E942338CC0EDD1ECC0EDD1E48
:101AE000B3FE0DC0E12CF12C8701E39427E030E038
:101AF00044E050E060E070E0C6010E942338CC0E64
:101B0000DD1EB2FE0DC0E12CF12C8701E39427E02D
:101B100030E043E050E068E070E0C6010E94233806
:101B2000CC0DDD1DB1FE0DC0E12CF12C8701E3943D
:101B300027E030E042E050E060E170E0CE010E943A
:101B40002338B0FE0DC0E12CF12C8701E39426E090
:101B500030E042E050E068E170E0CE010E942338BE
:101B6000A1100CC0BE016250710906E010E024E033
:101B700030E04FE150E089EE94EA09C006E010E061
:101B800025E030E04FE150E0BE018DE69CE50E948B
:101B9000C10CDF91CF911F910F91FF90EF90DF90DB
:101BA000CF90BF90AF90089588EF91E0E3ECF1E023
:101BB000DF019C011D9221503040E1F708955F92B2
:101BC0006F927F928F929F92AF92BF92CF92DF924D
:101BD000EF92FF920F931F93CF93DF93CDB7DEB7B2
:101BE000E0970FB6F894DEBF0FBECDBF5C018090CA
:101BF000BD039090BE03E090BB03F090BC03FC01DA
:101C000001900020E9F731978F01081B190B39F477
:101C10009401A70160E070E080E090E099C0009737
:101C200009F447C06C01FC018191811144C017FD8A
:101C30000FC19801AAE0B0E00E94BC3D6E5F7F4FEB
:101C40008F4F9F4F23E030E040E050E00E94683D1E
:101C5000211580E83807410551050CF0F9C0C9018C
:101C60000796BC01F3E076956795FA95E1F7653D37
:101C7000710508F0EDC081E090E09AA789A75901AD
:101C80001CA70BA7AB0160E070E0C7010E94203EDB
:101C900018AA1FA660E070E080E090E01AE0D6018C
:101CA0002D916D012223E1F030ED320F3A3008F42E
:101CB0009BC00E94F33D80538A3008F4B5CF3501B4
:101CC000F30161913F01662309F4ACC0062E000CBC
:101CD000770B87E491E00E94273E892B89F732C178
:101CE0006115710569F09B01220F331F620F731F8D
:101CF0006F5F7F4F9E01215D3F4FA7010E94A91694
:101D00008FA598A98A159B05A1F6EDA6FEA688E0E9
:101D1000FE01B996DE01599601900D928A95E1F780
:101D200088E0FE017996DE01919601900D928A95E8
:101D3000E1F788E0FE01B196DE01519601900D9227
:101D40008A95E1F79401A70161E070E0CE01419628
:101D50000E941529882309F418C18091BD03909130
:101D6000BE030E9412156C018C0197FF02C00F5F29
:101D70001F4F159507951195019511090E94D40DD6
:101D8000E12CF12C065D1F4FEC14FD040CF0FDC09E
:101D9000A12CB12C8091BD039091BE03009709F452
:101DA00088CFDC012C9130E0A216B3064CF4E21689
:101DB000F30634F4A701B5010E94E114282F02C0F4
:101DC00020E030E0422F4170B701C8018A0D9B1D11
:101DD0000E94C90BBFEFAB1ABB0AAC14BD04D4F20E
:101DE000EFEFEE1AFE0AD0CF189FA001199F500DF9
:101DF0001124CA01C097820F911D27FD9A956F5F2C
:101E00007F4F6330710509F04ACF9E01215D3F4F3E
:101E1000A7016AE070E00E94A91660E070E080E02F
:101E200090E03DCF17FD14C09801ABE0B0E00E94F8
:101E3000BC3DDC01CB010196A11DB11DB595A79557
:101E4000979587958115F0E89F07A105B1051CF0CE
:101E5000F40110829AC0AC01495F5F4F63E0569570
:101E600047956A95E1F7453D510590F722E030E04E
:101E70003A8B298B5C011C8B0B8B60E070E0C701F7
:101E80000E94203E188E1F8A612C712C00E010E009
:101E90004DE2542ED6016D916D01662349F1062E57
:101EA000000C770B87E491E00E94273E009709F42D
:101EB00000CF509E9001519E300D112487549140C7
:101EC0008C01020F131F6A94672871F49E01295E2A
:101ED0003F4FA7016BE070E0C8010E94A916612C7A
:101EE000712C00E010E0D6CF66246394712CD2CF21
:101EF0006A94672849F49E01295E3F4FA70166E076
:101F000070E0C8010E94A9168F89988D8A159B05DB
:101F100009F0CFCEED8AFE8A88E0FE017196DE01DF
:101F2000119601900D928A95E1F788E0FE013196B5
:101F3000DE01199601900D928A95E1F788E0FE0185
:101F40003996FACE053D110508F082CFF701A00EB3
:101F5000B11ED6018D916D018193AA15BB05C9F7FC
:101F600084E090E09A8B898BC801A0E0B0E023E088
:101F7000880F991FAA1FBB1F2A95D1F7988F8F8BA7
:101F80001C8B0B8BED8AFE8ADDCEE0960FB6F894A3
:101F9000DEBF0FBECDBFDF91CF911F910F91FF909C
:101FA000EF90DF90CF90BF90AF909F908F907F90F9
:101FB0006F905F9008950C94D40D8F929F92AF9282
:101FC000BF92EF92FF920F931F93CF93DF93E09115
:101FD000D504F091D604309799F1E090D704F090B1
:101FE000D804A3EDB4E0C0E0D0E0CE15DF0541F1A8
:101FF0001C9614960D911C911597012BF9F47901FB
:102000008A014B015C018091D3049091D40409951D
:102010002CE02C9FF0012D9FF00D1124ED52FB4F71
:10202000628773878487958786829782A086B18628
:10203000F786E686118B008BCE0104C02196D5CFA2
:102040008FEF9FEFDF91CF911F910F91FF90EF9056
:10205000BF90AF909F908F9008950F931F93CF9351
:10206000DF938C0142E050E060E070E00E94203796
:10207000EC0197FF03C080E090E00AC040E050E030
:1020800060E070E0C8010E942037892BA1F7CE01E3
:10209000DF91CF911F910F9108952F923F924F9210
:1020A0005F926F927F928F929F92AF92BF92CF92E8
:1020B000DF92EF92FF920F931F93CF93DF9300D0A5
:1020C00000D01F92CDB7DEB74C017D836C831A011F
:1020D0006901F90110820E942D109B838A83198265
:1020E000C114D10409F45AC00115110509F456C0F0
:1020F000F6011082612C712CE12CF12CA12CB12C59
:10210000412C512C2A813B816216730609F446C08A
:1021100021E030E0AE014F5F5F4FB301C4010E9488
:10212000510B0197D9F58981A214B30419F52C81BB
:102130003D8142165306F1F48C3281F18A3071F1FF
:10214000882361F1E016F10630F00C0D1D1DF80139
:102150003197108223C0F601EE0DFF1D80833FEF03
:10216000E31AF30AE016F10680F7F601EE0DFF1D03
:10217000108210C08C3221F48FEFA81AB80A0AC05E
:102180008A3031F49FEF491A590AA12CB12C02C0B0
:10219000882321F0EFEF6E1A7E0AB4CF0F900F90D4
:1021A0000F900F900F90DF91CF911F910F91FF90A3
:1021B000EF90DF90CF90BF90AF909F908F907F90E7
:1021C0006F905F904F903F902F90089580FF12C0C6
:1021D00081FD0AC06A3010F480E311C06A3089F0D2
:1021E0006B3089F083E40BC082FD02C08BE407C032
:1021F0008BE605C082FD02C081E401C081E6860F46
:1022000008958FE508958DE208954F925F926F9241
:102210007F92AF92BF92CF92DF92EF92FF920F9395
:102220001F93CF93DF93EC016A017B01022F4AE0F9
:1022300050E060E370E00E94203E1A861AE08AE0D7
:10224000482E512C612C712CC114D104E104F104ED
:1022500081F011505E01A10EB11CC701B601A301AE
:1022600092010E949A3D605DF501608369017A01E7
:10227000EBCF011124C060E0FE01E60FF11D80816B
:10228000803311F46F5FF8CF6A3009F469E070E0D1
:102290004BE050E0461B570B6C0F7D1FCE01DF91CA
:1022A000CF911F910F91FF90EF90DF90CF90BF9053
:1022B000AF907F906F905F904F900C940E3EDF91A7
:1022C000CF911F910F91FF90EF90DF90CF90BF9033
:1022D000AF907F906F905F904F90089520E031E035
:1022E00040E050E060E070E0CB010E946828862F5B
:1022F0000895EF92FF921F93CF93DF93CDB7DEB790
:102300006B970FB6F894DEBF0FBECDBF7C01BE0148
:102310006F5F7F4F80E090E00E94FC39882309F4D2
:102320005BC0CE0101960E94060B81115BC04BE0A1
:1023300050E0BE016F5E7F4F82E00E945F308AE016
:10234000FE017196DE01119601900D928A95E1F7DA
:1023500080E00E94FE28182F0E946E1181278D8731
:1023600081E00E94FE28182F0E946E1181278E871F
:1023700082E00E94FE28182F0E946E1181278F870D
:1023800083E00E94FE28182F0E946E118127888BFF
:102390000E949C132D853E85622773277E876D875B
:1023A0001C861B8640E150E0BE016F5F7F4F80E0DE
:1023B00090E00E94330B882379F0BE016F5F7F4F5E
:1023C00080E090E00E94FC39882331F0CE01019634
:1023D0000E94060B811106C0F70110821182128241
:1023E000138209C08D859E85AF85B889F7018083EA
:1023F0009183A283B3836B960FB6F894DEBF0FBEB2
:10240000CDBFDF91CF911F91FF90EF9008958F92F4
:102410009F92AF92BF92CF92DF92EF92FF920F9373
:102420001F93FA011082118212821382680F791FA2
:1024300086179707A1F1C080D180E280F380DC018C
:102440000D91CD010C2510E020E030E048E050E097
:1024500000FD09C0B0E28B2EB3E89B2EB8EBAB2E8B
:10246000BDEEBB2E03C0812C912C540136952795CF
:1024700017950795082519252A253B25415051090F
:1024800039F7CD2CDE2CEF2CFF24F0940C251D25E4
:102490002E253F250083118322833383C9CF1F91CB
:1024A0000F91FF90EF90DF90CF90BF90AF909F90F3
:1024B0008F9008953FB7F8948091A8019091A90159
:1024C000A091AA01B091AB0126B5A89B05C02F3FF2
:1024D00019F00196A11DB11D3FBFBA2FA92F982F4A
:1024E0008827820F911DA11DB11DBC01CD0142E0C5
:1024F000660F771F881F991F4A95D1F70895DC0151
:102500009696ED91FC9197974E9F90014F9F300DBD
:102510005E9F300D1124620F731F9B0143E03595C0
:1025200027954A95E1F79A964D915C919B972417D0
:10253000350770F4FC01E20FF31F84A590E067708B
:10254000772702C0959587956A95E2F7817008957F
:1025500080E00895CF93782F4115510561F48130C3
:1025600009F04BC0623009F048C081E022303105EB
:1025700009F043C043C02430310561F4813009F0D3
:102580003CC0613009F039C081E04230510509F0AA
:1025900034C034C0862F90E064E0769F800D911D9A
:1025A0001124880F991F880F991F865C9F4EFC018C
:1025B000C49131967491319664913196E4918E2F45
:1025C00090E0A0E0B0E0B82FAA2799278827972BA2
:1025D0008C2BA62B220F331F220F331F4150510982
:1025E000420F531F440F551F04C0B695A7959795EA
:1025F00087954A95D2F7837001C080E0CF91089506
:102600002F923F924F925F926F927F928F929F9202
:10261000AF92BF92CF92DF92EF92FF920F931F93F0
:10262000CF93DF93E114F104D1F12701122F1B01A5
:102630003C017A01812C912CC22DD32DA12CB12CDF
:10264000D7FD1BC0F30186A197A18C179D07ACF0A5
:10265000F7FC13C080A591A58E159F0574F0940119
:10266000A501602F812F0E94AA12882331F0212F0B
:10267000A701BE01C601F2010995FFEFAF1ABF0A1B
:10268000219685E0A816B104D9F6EFEF8E1A9E0ABE
:10269000FFEFEF1AFF0A85E08816910469F6DF91D3
:1026A000CF911F910F91FF90EF90DF90CF90BF904F
:1026B000AF909F908F907F906F905F904F903F90E2
:1026C0002F9008958F929F92AF92BF92CF92DF92F8
:1026D000EF92FF926B017C010E945A124B015C0148
:1026E000C114D104E104F104F1F00E945A12DC019A
:1026F000CB0188199909AA09BB09883E9340A10515
:10270000B10570F321E0C21AD108E108F10888EEA2
:10271000880E83E0981EA11CB11CC114D104E104F1
:10272000F10419F7DDCFFF90EF90DF90CF90BF90CD
:10273000AF909F908F9008952FB7F8946091A40167
:102740007091A5018091A6019091A7012FBF0895D6
:102750001F920F920FB60F9211242F933F938F93D6
:102760009F93AF93BF938091A4019091A501A091F5
:10277000A601B091A7013091A30123E0230F2D37CB
:1027800020F40196A11DB11D05C026E8230F029675
:10279000A11DB11D2093A3018093A4019093A501D5
:1027A000A093A601B093A7018091A8019091A901DF
:1027B000A091AA01B091AB010196A11DB11D80931A
:1027C000A8019093A901A093AA01B093AB01BF9176
:1027D000AF919F918F913F912F910F900FBE0F90CE
:1027E0001F9018959C0184E0D90190E0EC91F0E0F5
:1027F000EF54FF4EE491EC939F5F14969430B1F741
:1028000081502F5F3F4F8111EFCF08950F931F939A
:10281000CF93DF939B0190E1899F80011124A0E079
:10282000B0E0FD01E00FF11FE40FF51F60E070E084
:10283000E901C60FD71F91918881982798836F5F10
:102840007F4F64307105A1F714962C5F3F4FA03184
:10285000B10539F7DF91CF911F910F9108959C0138
:10286000CB010197889770F5CB01079661E170E085
:102870000E94DF3D24303105E9F060F4660F771FD8
:102880002130310599F022303105E1F4FB01ED5C96
:10289000FE4F15C027303105B9F02830310591F4CD
:1028A000660F771FFB01E95DFE4F09C0FB01E75C86
:1028B000FE4F05C0660F771FFB01E35DFE4F808171
:1028C000918108950E94F33D80E090E00895FC011D
:1028D000A081B0E0FD017597ED39F10550F477FD69
:1028E00008C06A177B072CF457FD03C04A175B0723
:1028F00014F00E94F33D4A9FF0014B9FF00D5A9F48
:10290000F00D11246E0F7F1FAB014770552733E088
:10291000759567953A95E1F76F5F7F4FFC01E60F7C
:10292000F71F81E090E001C0880F4A95EAF7222363
:1029300019F09081892B03C0809590818923808331
:1029400008954F925F926F927F928F929F92AF9273
:10295000BF92CF92DF92EF92FF920F931F93CF938C
:10296000DF936C015B014A0179012801C0E0D0E0EE
:10297000CE15DF05ACF400E010E03E016A0C7B1CD4
:10298000081519055CF4B8016C0D7D1D21E0A3014B
:10299000C2010E9467140F5F1F4FF2CF2196E8CF4C
:1029A000DF91CF911F910F91FF90EF90DF90CF902B
:1029B000BF90AF909F908F907F906F905F904F905F
:1029C0000895FC01208130E0F9017597ED39F1059A
:1029D00050F477FD08C0621773072CF457FD03C04D
:1029E0004217530714F00E94F33D429FF001439FAA
:1029F000F00D529FF00D11246E0F7F1F9B0143E0DD
:102A0000359527954A95E1F7FC01E20FF31F818187
:102A100090E06770772702C0959587956A95E2F7F1
:102A200081700895009711F40E94F33DFC018081AC
:102A300090E09C01255131092D393105A8F7089501
:102A40000F931F93CF93DF939C018B0181309105EE
:102A5000A1F167E070E00E94DF3DEB012296FB01EF
:102A600031962032310581F0C901880F991F8C0FF2
:102A70009D1F880F991F0196BF01660F771F0E9447
:102A8000DF3D660F771F02C06AE170E0CF01220FC1
:102A9000331F220F331F265F3F4F1816190644F4C9
:102AA000F801E80FF91F20830197261B370BF5CF9C
:102AB00086E0F8018083CE0102C080E090E0DF91E3
:102AC000CF911F910F9108952F923F924F925F9255
:102AD0006F927F928F929F92AF92BF92CF92DF922E
:102AE000EF92FF920F931F93CF93DF93CDB7DEB793
:102AF00029970FB6F894DEBF0FBECDBF4C017B0106
:102B00002C01440C551C440C551C620181E1C80E7B
:102B1000D11CCC9CA001CD9C500D500D1124495FBF
:102B20005F4F93E0559547959A95E1F74F5F5F4F5B
:102B300060E070E0C7010E94203EF701C08287017B
:102B4000960141E050E060E070E086E090E00E9495
:102B5000A11421E030E0A60166E070E080E090E0A2
:102B60000E94A11429E030E049E050E060E070E00C
:102B700080E090E00E94A1146201F9E0CF0ED11C28
:102B800029E030E048E050E060E070E0C6010E94DB
:102B9000A11428E030E049E050E0B60180E090E088
:102BA0000E94A114BE016F5F7F4FC4010E942015D7
:102BB0003C01A12CB12C1C0181E0281A3108A6147B
:102BC000B704D4F5C12CD12C81E090E08C0F9D1F6F
:102BD0008A0D9B1D99878887C614D7044CF5A114CC
:102BE000B10431F4C114D104F9F0C214D304E1F0FA
:102BF000A214B30419F4C114D104B1F0E1E0F0E07F
:102C0000EC0FFD1FEC0DFD1D608170E0625071093D
:102C1000E885F985808190E0870125E030E045E096
:102C200050E002970E94A114FFEFCF1ADF0AD4CF21
:102C30009FEFA91AB90AC3CFE7E08E169104B4F04A
:102C4000F6E04F0E511C870126E030E043E050E0F3
:102C500060E070E0C2010E94A11423E030E046E091
:102C600050E0B20180E090E00E94A11429960FB6D6
:102C7000F894DEBF0FBECDBFDF91CF911F910F91B2
:102C8000FF90EF90DF90CF90BF90AF909F908F908C
:102C90007F906F905F904F903F902F900895E7E066
:102CA000F0E020E05DE170E0422F441F4427441F24
:102CB000459F402D1124220F42279B010E2E02C05A
:102CC000359527950A94E2F7922F9170989F902D51
:102CD0001124242F2927319738F7822F08951F9325
:102CE000FC010197889710F00E94F33DCF010896F0
:102CF00024E0880F991F2A95E1F78E9F90018F9FFE
:102D0000300D9E9F300D1124205C3F4FE130F105C6
:102D1000E9F0CF0167E070E00E94DF3D6E5F7F4F1A
:102D200017EE1603A001179F500D1124465F5F4F49
:102D3000469FC001479F900D569F900D1124C79646
:102D4000280F391F379714F024523109C9011F91F8
:102D50000895CF92DF92EF92FF92CF93DF9361318C
:102D6000710578F46C01E12CF12C062E04C0F69468
:102D7000E794D794C7940A94D2F7CD28CE28CF28C9
:102D800011F00E94F33D615071096F3FBFEF7B0767
:102D900049F1F901A081B181ED01E3E0D595C79535
:102DA000EA95E1F7C40FD51FFC01062E02C0F69587
:102DB000E7950A94E2F7E170FF27A095B095A77018
:102DC000BB2701C0EE0FAA95EAF7F881EF2BE88345
:102DD00061507109D901ED91FC9111973196ED93F4
:102DE000FC93D3CFDF91CF91FF90EF90DF90CF9006
:102DF0000895CF93DF93CDB7DEB72B970FB6F89436
:102E0000DEBF0FBECDBF2BE0E1E1F1E0DE011196A8
:102E100001900D922A95E1F7892B59F46A307105DA
:102E200044F4E1E0F0E0EC0FFD1FE60FF71F8081B6
:102E300001C08FEF2B960FB6F894DEBF0FBECDBF4B
:102E4000DF91CF910895CF93DF93CDB7DEB72B9766
:102E50000FB6F894DEBF0FBECDBF2BE0ECE1F1E082
:102E6000DE01119601900D922A95E1F7892B59F414
:102E70006A30710544F4E1E0F0E0EC0FFD1FE60F6D
:102E8000F71F808101C08FEF2B960FB6F894DEBF3D
:102E90000FBECDBFDF91CF910895DF92EF92FF92E9
:102EA0000F931F93CF93DF938C01EB016430710577
:102EB00010F00E94F33D0E946F16D82EE92EB80143
:102EC000CE010E942317F82EB801CE010E94F916F8
:102ED0002D2D3E2D37FF02C0295F3F4F93E03595E2
:102EE00027959A95E1F7A9016F2D680240195109BC
:102EF0001124CA01DF91CF911F910F91FF90EF90A4
:102F0000DF9008950F931F93CF93DF9300D000D0ED
:102F100000D0CDB7DEB7DC011E821D821C821B8271
:102F20008AE689831A8255961C921E925497599666
:102F30001C921E92589756968D919C915797892B6B
:102F400069F150968D919C915197892B39F1529648
:102F50008D919C915397892B09F11696ED91FC91D7
:102F600017973097D9F08D019E012D5F3F4FAE012D
:102F70004B5F5F4FBE016F5F7F4F14968D919C91A9
:102F800015970995D80152968D919C9153976B8115
:102F90007C810E94CB3DF801718F608F26960FB621
:102FA000F894DEBF0FBECDBFDF91CF911F910F917F
:102FB00008953F924F925F926F927F928F929F926D
:102FC000AF92BF92CF92DF92EF92FF920F931F9337
:102FD000CF93DF9300D000D01F92CDB7DEB7E0E2F1
:102FE000ED831C821B821A8219822115310519F486
:102FF0008FEF9FEF93C029017A015B016C01A9015A
:1030000060E070E0C7010E94203E370100E010E060
:1030100081E0481A510880E2382E0415150508F0A1
:103020004AC0D6011296ED91FC91139721E030E051
:10303000AE014B5F5F4FB8016A0D7B1D8D919C9176
:1030400009950197A9F68D81811101C03D828D817D
:10305000893009F43D828D81F30181933F0148015C
:10306000FFEF8F1A9F0A8A3029F1D60150962D91D1
:103070003C915197C4018A0D9B1D82179307D0F490
:103080001696ED91FC9117979E012F5F3F4FAE0171
:103090004D5F5F4FB70114968D919C9115970995DF
:1030A0002B813C81F601848595858217930718F062
:1030B0008401B3CF8401F701E00FF11F10820115E5
:1030C000110551F1D8011197AE0DBF1D8C918A30B9
:1030D00011F41C921FC08032C9F080E090E0229170
:1030E000203229F0019680179107C9F70FC0801789
:1030F000910760F4A00EB11ED60150962D913C911F
:103100005197A216B30610F4081B190BF701E00F34
:10311000F11F1082C80102C080E090E00F900F9074
:103120000F900F900F90DF91CF911F910F91FF9013
:10313000EF90DF90CF90BF90AF909F908F907F9057
:103140006F905F904F903F900895CF92DF92EF92F3
:10315000FF920F931F93CF93DF9300D000D000D046
:10316000CDB7DEB7DC011E821D821C821B828AE67F
:1031700089831A8253961C921E92529755961C92DE
:103180001E92549757961C921E92569750968D9168
:103190009C915197892B09F466C01C968D919C9146
:1031A0001D97892B09F45FC01E968D919C911F97E6
:1031B000892B09F458C012968D919C911397892BF5
:1031C00009F451C01696ED91FC911797309709F4C8
:1031D0004AC08D019E012D5F3F4FAE014B5F5F4F97
:1031E000BE016F5F7F4F14968D919C911597099545
:1031F000D8011E968D919C911F976B817C810E94B6
:10320000CB3DF801778B668B672B69F1E12CF12CB4
:103210006801FAE1CF0ED11CF80180899189E81686
:10322000F906F8F4D80158962D913C9159972F5FE3
:103230003F4FA601B701C8010E94D91797FF04C0EC
:10324000F801158A148A0FC0E80EF91ED8015496A9
:103250008D919C915597019655969C938E9354977A
:10326000DBCF138A128A26960FB6F894DEBF0FBE04
:10327000CDBFDF91CF911F910F91FF90EF90DF9025
:10328000CF900895CF92DF92EF92FF920F931F930A
:10329000CF93DF93EC01EA81FB81309719F08881AD
:1032A00099810995C884D984EA84FB840DA12CA155
:1032B00040E050E060E070E0CE010E9400138E8597
:1032C0009F85892BB1F4CC80DD80EE80FF804C8D12
:1032D0005D8D6A8D7B8D0F8D2E8DCE010E9400132A
:1032E000DF91CF911F910F91FF90EF90DF90CF90E2
:1032F000089500E010E08EA19FA1081719071CF7A0
:10330000E12CF12C88A599A5E816F9065CF4A70133
:10331000B801CE010E947F12811107C08FEFE81A19
:10332000F80AF0CF0F5F1F4FE6CFEE85FF85A701AC
:10333000B8018C859D850995F1CFCF93DF93EC0182
:10334000ECA1EE8F8DA18F8F2EA13FA137FF02C080
:103350002F5F3F4F35952795F0E0E655FF4E44919E
:1033600090E0880F991F50E0082E02C055954795B0
:103370000A94E2F740FF03C04DEF5FEF02C04EEF4B
:103380005FEF240F351F3B8F2A8FE491F0E08160BF
:1033900002C0F595E7958A95E2F7E0FF03C08DEF4F
:1033A0009FEF02C08EEF9FEF9D8F8C8F66E070E0E5
:1033B000CE010E94E02D8CA363E070E0CE010E945C
:1033C000E02D8DA3DF91CF910895CF93DF930097E8
:1033D00009F461C0EC01198E188E66E070E00E945D
:1033E000E02D8E8F63E070E0CE010E94E02D8F8F84
:1033F0002EA13FA137FF02C02F5F3F4FA901559576
:103400004795EE8DF0E0E655FF4E24919927880F01
:10341000991F30E0082E02C0359527950A94E2F7EF
:1034200020FF03C02DEF3FEF02C02EEF3FEF240F30
:10343000351F3B8F2A8FE491F0E0816002C0F59543
:10344000E7958A95E2F7E0FF03C08DEF9FEF02C09A
:103450008EEF9FEF9D8F8C8F66E070E0CE010E9413
:10346000E02D8CA363E070E0CE010E94E02D8DA3DF
:103470008EA19FA1059699A388A385E090E09BA3C8
:103480008AA34AA55BA560E070E0CE018C960E94FD
:10349000203E81E001C080E0DF91CF9108952F921E
:1034A0003F924F925F926F927F928F929F92AF92D4
:1034B000BF92CF92DF92EF92FF920F931F93CF9321
:1034C000DF9300D000D0CDB7DEB75C014B016A01BD
:1034D000122F7B011B0124E0220E311CCA0104962D
:1034E0009A8389833701681879082E143F040CF4F5
:1034F00045C0DC82CB824B805C804C185D08298102
:103500003A818B819C8128173907A4F1F7FC12C0FE
:10351000F50186A197A1E816F90664F480A591A5A6
:103520002B813C81281739072CF48B819C8197FFD4
:103530000BC01AC09201A301602F812F0E94AA1212
:10354000882399F380E01BC09201A301602F812F93
:103550000E94AA12882341F04B815C81B701C5010A
:103560000E947F128111EECFEB81FC813196FC83AA
:10357000EB83C1CF9FEFE91AF90AB4CF81E00F9036
:103580000F900F900F90DF91CF911F910F91FF90AF
:10359000EF90DF90CF90BF90AF909F908F907F90F3
:1035A0006F905F904F903F902F9008952F923F9291
:1035B0004F925F926F927F928F929F92AF92BF9243
:1035C000CF92DF92EF92FF920F931F93CF93DF93EF
:1035D00000D000D000D0CDB7DEB79E838D83DC0154
:1035E00098960D90BC91A02DBA83A983C12CD12CA3
:1035F000E12CF12C44244394512C69817A81C61624
:10360000D7060CF076C0AD81BE819696AD90BC9089
:10361000979700E010E00A151B0564F4A601B801B5
:103620008D819E810E947F12813009F05EC00F5F04
:103630001F4FF1CF0A151B0509F057C00C9D100153
:103640000D9D300C1C9D300C1124C601612C712C79
:10365000181619060CF046C09301220D331D812C5B
:10366000912CFC0131975F0180169106BCF5A501F4
:10367000B4018D819E812B833C830E947F122B811C
:103680003C81A401420F531FFA0193E0F595E795A1
:103690009A95E1F7AD81BE819A966D917C919B9749
:1036A000E617F707B8F4EA0FFB1F4770552781119B
:1036B00009C0C20101C0880F4A95EAF7809594A518
:1036C000892307C0C20101C0880F4A95EAF794A573
:1036D000892B84A7BFEF8B1A9B0AC6CFC501601A3E
:1036E000710AB6CFFFEFEF1AFF0A4FEFC41AD40AE0
:1036F00084CFB2E0EB16F104D1F058F4EA94EF284D
:1037000051F5AD81BE8158968D919C915997019646
:103710001BC043E0E416F10481F054E0E516F10427
:10372000D1F4ED81FE81808D918D409612C0ED81A6
:10373000FE81808D918D04960CC0AD81BE8158961E
:103740008D919C915997089659969C938E93589772
:1037500002C0918F808F26960FB6F894DEBF0FBE01
:10376000CDBFDF91CF911F910F91FF90EF90DF9030
:10377000CF90BF90AF909F908F907F906F905F9011
:103780004F903F902F900895FC0166A177A120E013
:1037900030E026173707BCF4F90143E0F595E795CB
:1037A0004A95E1F7E80FF91F44A550E0F901E770E9
:1037B000FF2702C055954795EA95E2F740FD05C001
:1037C0002F5F3F4FE6CF80E0089581E008952F926C
:1037D0003F924F925F926F927F928F929F92AF92A1
:1037E000BF92CF92DF92EF92FF920F931F93CF93EE
:1037F000DF9300D000D0CDB7DEB76C015B017A015A
:10380000922F702F2501150124E0220E311C4A0150
:1038100034E0830E911C66246394712C82010A1992
:103820001B09241435040CF44BC0FC82EB822B8161
:103830003C812E193F09EB81FC818E169F06E4F135
:10384000A801672F892F7A8399830E94AA127A810F
:103850009981882359F1D60196964D915C9197975D
:10386000EB81FC81E49F9001E59F300DF49F300DCA
:103870001124240D351DF90183E0F595E7958A950E
:10388000E1F79A964D915C919B97E417F50770F4D8
:10389000EC0DFD1D27703327A30102C0440F551FF7
:1038A0002A95E2F79A0184A5282B24A7AB81BC8135
:1038B0001196BC83AB83BBCFFFEF4F1A5F0AAECF2D
:1038C0000F900F900F900F90DF91CF911F910F915C
:1038D000FF90EF90DF90CF90BF90AF909F908F9030
:1038E0007F906F905F904F903F902F900895CF936F
:1038F000DF93009711F1DC015296ED91FC91539703
:103900003097D9F0EC01488D598D4150510960E054
:1039100070E08889998909959DA38CA34A8D5B8D58
:1039200041505109EA89FB8960E070E088899989F2
:1039300009959FA38EA381E001C080E0DF91CF9124
:1039400008958F929F92AF92BF92CF92DF92EF92A3
:10395000FF920F931F93CF93DF93C091C503D09134
:10396000C603209709F4CAC028A139A18C8D9D8D6A
:10397000280F391F39A328A34AA15BA18E8D9F8DE3
:10398000840F951F9BA38AA3488D598D37FF05C0CF
:103990009A012150310939A328A328A139A124175C
:1039A000350714F019A218A22A8D3B8D97FF04C089
:1039B000C90101979BA38AA38AA19BA182179307A0
:1039C00014F01BA21AA2EA81FB81309719F08881BA
:1039D00099810995CE010E942C305C0108A119A1A2
:1039E000EAA0FBA08EA49FA4C12CD12CCA14DB0496
:1039F00009F469C0C114D10439F46E8D7F8D8C8DAA
:103A00009D8D0E94483022C0F401F695E795F69509
:103A1000E795EC0FFD1F82A990E0940123703327F6
:103A2000220F331F02C0959587952A95E2F7837080
:103A3000992728A939A98114910429F44901880CEE
:103A4000991C880C991C21E0821A910802969C010D
:103A5000237033272115310549F40150110917FF4F
:103A600029C0088D198D0150110924C0213031055C
:103A700059F481E0E81AF108F7FE1CC0EA8CFB8CCF
:103A800021E0E21AF10816C02230310549F40F5F37
:103A90001F4F888D998D081719070CF044C00AC074
:103AA0008FEFE81AF80A8A8D9B8DE816F90614F054
:103AB000E12CF12CA701B801CE010E94F22D2FEFCD
:103AC000C21AD20A93CFEC8CFD8CE114F10429F4D4
:103AD0008E8D9F8D892B09F456C008A919A9000F56
:103AE000111F000F111FCE010E942C30019680176C
:103AF0009107E0F080E0813009F468C08091000116
:103B000090910101019609F4ACC0DF91CF911F9112
:103B10000F91FF90EF90DF90CF90BF90AF909F906C
:103B20008F900C94B40B00E010E0C4CF6E8D7F8DAD
:103B3000C7010E9448302EA53FA52F5F3F4F201799
:103B4000310710F020E030E03FA72EA7F901F695ED
:103B5000E795F695E79523703327220F331FEC0F77
:103B6000FD1F43E050E0022E01C0440F0A94EAF723
:103B7000409532A943238370992701C0880F2A9565
:103B8000EAF7842B82AB81E0B6CF8CA59DA52EA54C
:103B90003FA58217930709F4B1CF019628A939A947
:103BA000220F331F220F331F82179307C0F020E02C
:103BB00080E02CA78DA7EE81FF81309739F040E09F
:103BC00050E060E070E08C819D810995CE010E94FB
:103BD0002C302AA53BA528173907B8F203C0282F97
:103BE000892FE7CF4CA15DA188A199A1481759075A
:103BF00039F44EA15FA18AA19BA14817590729F06A
:103C0000EE85FF85309781F479CF2F5F3F4F3BA73B
:103C10002AA788A599A5019699A788A7CE010E94F1
:103C2000771C813069F36ACF4EA15FA16CA17DA1A1
:103C30008C859D8509958AA59BA5069708F05ECF82
:103C400068A579A56115710509F458CF19A618A6BC
:103C5000EE89FF89309709F451CF8C899D890995A8
:103C60004DCFDF91CF911F910F91FF90EF90DF909B
:103C7000CF90BF90AF909F908F9008950C949B260B
:103C80009A012F5F3F4F032E000C440B550B072E5C
:103C9000000C880B990B0E946828CB010895CB017A
:103CA000880F991F860F971FBA01660F771F460F5F
:103CB000571FBA016E5F7F4F23E030E043E050E0D2
:103CC00002960C94E138EF92FF920F931F93CB0171
:103CD000880F991F860F971FBA01660F771F460F2F
:103CE000571FBA016E5F7F4FE12CF12C8701E394DF
:103CF00023E030E043E050E002960E9423381F9119
:103D00000F91FF90EF900895AF92BF92CF92DF9204
:103D1000EF92FF920F931F93CF93DF93CDB7DEB750
:103D20002B970FB6F894DEBF0FBECDBF0E94D40D07
:103D300020E330E044E550E060E070E080E090E0B7
:103D40000E94E138E091C503F091C60320A531A59A
:103D5000A4E6B0E00E94BC3DAB01BC0120E0CE0176
:103D600001965C010E940511F50101900020E9F720
:103D70003197EA19FB09EE0FFF1FEE0FFF1FC12C51
:103D8000D12C760101E010E020E030E0A50169E2ED
:103D900070E083E590E08E1B9F0B0E9469382B96A4
:103DA0000FB6F894DEBF0FBECDBFDF91CF911F914C
:103DB0000F91FF90EF90DF90CF90BF90AF9008955C
:103DC000413011F40C947E0B089580910001909184
:103DD00001010E941A3A8FEF9FEF909301018093A7
:103DE00000014091C3035091C40360E070E08091F2
:103DF000C5039091C6030C94203E2F923F924F92A0
:103E00005F926F927F928F929F92AF92BF92CF926A
:103E1000DF92EF92FF920F931F93CF93DF93CDB773
:103E2000DEB7CC50D1400FB6F894DEBF0FBECDBF89
:103E3000E82E8B0148EC50E0CE0101962C01BC012C
:103E400081E00E945F30F20101900020E9F7319794
:103E50006F01C418D50887EC90E03C016C187D0810
:103E6000C250DF4F188219821A821B82CE5FD04067
:103E70009801A4E6B0E00E94BC3D4B015C01CE017C
:103E800082509F4F0E9479118E0102521F4FE0E134
:103E9000FE2EF8016F2D11926A95E9F7C250DF4F9F
:103EA00088819981AA81BB81CE5FD040F80180834F
:103EB0009183A283B38384829582A682B782E086AF
:103EC0000E946E11F80181870E946E11F8018287AD
:103ED0000E946E11F8018387A801445F5F4F6CE078
:103EE00070E0C8010E940712BE0162517F4F8FEF40
:103EF00090E00E94FC39AE0147535F4FFA011192E6
:103F0000FA94E9F7C251DF4F8881CE5ED0408093AA
:103F1000C301C151DF4F8881CF5ED0408093C4017F
:103F2000C051DF4F8881C05FD0408093C501CF5022
:103F3000DF4F8881C15FD0408093C601CE50DF4FF4
:103F40008881C25FD0408093C701CD50DF4F888108
:103F5000C35FD0408093C801CC50DF4F8881C45FDD
:103F6000D0408093C901CB50DF4F8881C55FD040DE
:103F70008093CA01CA50DF4F8881C65FD0408093CA
:103F8000CB01C950DF4F8881C75FD0408093CC01FF
:103F9000C850DF4F8881C85FD0408093CD01C750A3
:103FA000DF4F8881C95FD0408093CE01C650DF4F7C
:103FB0008881CA5FD0408093CF01C550DF4F888190
:103FC000CB5FD0408093D001C450DF4F8881CC5F5D
:103FD000D0408093D101C350DF4F8881CD5FD04066
:103FE0008093D201A6EDB1E024E030E0FD013797E7
:103FF000E0803196F0803196908131968081B901D0
:1040000063707727672BE9F4EF2DF0E0EF54FF4E54
:104010006491E92FF0E0EF54FF4EF490E82FF0E0C8
:10402000EF54FF4E9491EE2DF0E0EF54FF4E84914B
:10403000F901F695E795F695E795EF54FE4EE49075
:10404000E6261D01F3E02F1A3108BD016351710905
:10405000FB016081E626F101E0821D01F2E02F1AEA
:104060003108BD0162517109FB016081F626F10141
:10407000F0827D01F1E0EF1AF108BD016151710993
:10408000FB0160819627F70190833F97E0818E279F
:104090008C932F5F3F4F14962C32310509F0A6CF39
:1040A00080E1FA01A3E7B2E001900D928A95E1F771
:1040B000A3E7B2E0F80190E1900F8D912081822773
:1040C00081939E13FACF43EC51E0B80180E00E9447
:1040D0000614FF24F3948EED90E08C0F9D1F019643
:1040E000CE5FDE4F99838883C250D140EEEDF0E081
:1040F000EC0FFD1F3296CC5FDE4FF983E883C4508E
:10410000D1408EED90E08C0F9D1F0396CA5FDE4F6D
:1041100099838883C650D140EEEDF0E0EC0FFD1F8F
:104120007096C85FDE4FF983E883C850D1403BE109
:10413000E32ECE0182529F4F0E94F213C152DF4FF5
:104140008881CF5DD040CD51DF4F9881C35ED04094
:10415000C152DF4F9883CF5DD040C951DF4F988166
:10416000C75ED040CD51DF4F9883C35ED040C5516C
:10417000DF4F9881CB5ED040C951DF4F9883C75E37
:10418000D040C551DF4F8883CB5ED040C052DF4F57
:104190008881C05ED040C851DF4F9881C85ED04052
:1041A000C052DF4F9883C05ED040C851DF4F888334
:1041B000C85ED040CC51DF4F8881C45ED040C4512E
:1041C000DF4F9881CC5ED040CC51DF4F9883C45EE6
:1041D000D040C451DF4F8883CC5ED040CF51DF4FF9
:1041E0008881C15ED040C351DF4F9881CD5ED04001
:1041F000CF51DF4F9883C15ED040C751DF4F9881C8
:10420000C95ED040C351DF4F9883CD5ED040CB51C3
:10421000DF4F9881C55ED040C751DF4F9883C95E9C
:10422000D040CB51DF4F8883C55ED040CE5FDE4F9C
:1042300048815981C250D140CC5FDE4FA881B981FD
:10424000C450D140CA5FDE4F88819981C650D140A9
:10425000C55FDE4F99838883CB50D1409801F90127
:104260008081FA0130803826C55FDE4FE881F98110
:10427000CB50D14060819C9196279325292E2826EA
:10428000732D771F7727771F7E9D602D1124330CA8
:1042900036262324F9012082FA0120803C90322422
:1042A0002926732D771F7727771F7E9D602D112478
:1042B000330C3626232420822C90C55FDE4FE88104
:1042C000F981CB50D140308032242926732D771FBD
:1042D0007727771F7E9D602D1124330C36262324EB
:1042E0002C92608186279627782F771F7727771F54
:1042F0007E9D602D1124880F8627892780832C5F5F
:104300003F4F4C5F5F4F14963496C55FDE4FF98385
:10431000E883CB50D140C85FDE4F88819981C85077
:10432000D1402817390709F09ACF43EC51E0BE017C
:1043300062527F4F8F2D0E940614F3949AE0F91277
:10434000F8CECE0182529F4F0E94F213C152DF4F2E
:104350008881CF5DD040CD51DF4F9881C35ED04082
:10436000C152DF4F9883CF5DD040C951DF4F988154
:10437000C75ED040CD51DF4F9883C35ED040C5515A
:10438000DF4F9881CB5ED040C951DF4F9883C75E25
:10439000D040C551DF4F8883CB5ED040C052DF4F45
:1043A0008881C05ED040C851DF4F9881C85ED04040
:1043B000C052DF4F9883C05ED040C851DF4F888322
:1043C000C85ED040CC51DF4F8881C45ED040C4511C
:1043D000DF4F9881CC5ED040CC51DF4F9883C45ED4
:1043E000D040C451DF4F8883CC5ED040CF51DF4FE7
:1043F0008881C15ED040C351DF4F9881CD5ED040EF
:10440000CF51DF4F9883C15ED040C751DF4F9881B5
:10441000C95ED040C351DF4F9883CD5ED040CB51B1
:10442000DF4F9881C55ED040C751DF4F9883C95E8A
:10443000D040CB51DF4F8883C55ED04043EC51E084
:10444000BE0162527F4F8AE00E94061480E1FE01A5
:10445000E252FF4FA3E7B2E001900D928A95E1F797
:104460006114710409F461C07201EC0CFD1CEDE2F1
:104470006E16710418F4F701108257C080E1FE0136
:10448000E252FF4FDE01A753BF4F01900D928A9574
:10449000E1F70E946E11C752DF4F8883C95DD0409B
:1044A00049EC50E04C0F5D1F4F5E5F4F61E170E0E3
:1044B000CE0187539F4F0E9407128E0107531F4F53
:1044C000312CC12CD12CF80191918F01292E2294ED
:1044D0002FE02222622D832DC65FDE4F9883CA50C3
:1044E000D1400E94E61037016C0C7D1CF3018083E3
:1044F000C65FDE4F9881CA50D1409F70392E692F18
:10450000822D0E94E610F3018183F2E0CF0ED11CD0
:104510006AE2C616D104B9F6F701E30DF11D8081F8
:10452000F70182A78DE383A714A6C2010E94DF0DC5
:104530000E94B40B80EE9EE19093CE038093CD0356
:104540001092CC031092CB0348EC50E0B20180E013
:104550000E945F30C12CD12C760101E010E020E0F8
:1045600030E0A2016AE270E080E090E00E946938E9
:1045700020E0B501A401C2010E940511F2010190E1
:104580000020E9F73197E419F509EE0FFF1FEE0F50
:10459000FF1F01E010E020E030E0A2016AE270E0DD
:1045A00084E590E08E1B9F0B0E9469380E94B40B3B
:1045B000C45FDE4F0FB6F894DEBF0FBECDBFDF91F4
:1045C000CF911F910F91FF90EF90DF90CF90BF9010
:1045D000AF909F908F907F906F905F904F903F90A3
:1045E0002F900895CF93DF93EB010E94E51E60E0CA
:1045F00070E08EE39EE10E94980BBE0185E5DF919D
:10460000CF910C94FD1E8F929F92AF92BF92CF924A
:10461000DF92EF92FF920F931F93CF93DF935C0192
:104620006B018A0179012091B7043091B804E21638
:10463000F30620F0E090BB04F090BC04C216D30651
:10464000C0F5C7018C0D9D1D2817390718F4790195
:10465000EC18FD08E114F10479F16091B90470914E
:10466000BA046C0D7D1D40E050E0C5010E9420376A
:10467000E80100E010E08AE0982E9DE2892E41E0FA
:1046800050E0BE01C5010E94A336019781F48881E4
:104690008C3239F48AE0C816D10410F4888201C043
:1046A00098820F5F1F4F21960E151F0541F7C80115
:1046B00005C08FEF9FEF02C080E090E0DF91CF91C7
:1046C0001F910F91FF90EF90DF90CF90BF90AF9030
:1046D0009F908F900895CF93DF93E091BB04F0916A
:1046E000BC04E901E217F30708F4EF016E177F0736
:1046F000B8F4CE01860F971FE817F90718F4EF01F9
:10470000C61BD70B209779F0CA012091BD043091C8
:10471000BE04620F731FAE010E94053ECE0105C0AC
:104720008FEF9FEF02C080E090E0DF91CF9108957E
:10473000CB01880F991F860F971FBA01660F771F4D
:10474000460F571FBA016E5F7F4F23E030E043E012
:1047500050E002960C94E13895E0969FF001979F07
:10476000F00D11244F5F5F4F949FB001959F700D26
:10477000112425E030E045E050E0CF018C960C9408
:10478000E138EF92FF920F931F93CB01880F991F8F
:10479000860F971FBA01660F771F460F571FBA0182
:1047A0006E5F7F4FE12CF12C8701E39423E030E032
:1047B00043E050E002960E9423381F910F91FF9032
:1047C000EF9008950F931F93CF93DF930E94D40D22
:1047D000C091C103D091C203209709F440C0CE011B
:1047E0000E94C41B8130D9F10F8D10E04C8D5D8D7E
:1047F0004F5F5F4F6A8D7B8D2E8DCE010E944F1AC9
:104800004C8D5D8D813029F44F5F5F4F5D8F4C8FF4
:1048100023C06A8D7B8D0F8D2E8DCE010E94E71BEC
:10482000CE010E94D61ACE010E94C41B813089F4A9
:10483000CE010E944219088D198DCE010E94E51902
:10484000EE89FF89309759F0B8018C899D890995C7
:1048500006C0CE010E949D19CE010E94421980918E
:10486000030190910401019631F0DF91CF911F91E6
:104870000F910C94B40BDF91CF911F910F9108957C
:1048800080910301909104010E941A3A8FEF9FEFEB
:1048900090930401809303014091BF035091C003A2
:1048A00060E070E08091C1039091C2030C94203EBF
:1048B000CF93DF93EB010E94402460E070E089E930
:1048C00096E20E94980BBE018AEADF91CF910C9488
:1048D000FD1E0F931F93CF93DF93611134C04230BD
:1048E00041F40E944024DF91CF911F910F910C94CD
:1048F0007E0B413009F0BBC0C091C103D091C2030F
:104900002097D9F0CE010E94C41B8130B1F00F8DE9
:1049100010E04C8D5D8D6A8D7B8D615071092E8DFF
:10492000CE010E944F1A813041F48A8D9B8D0197F0
:104930009B8F8A8FCE010E944219DF91CF911F91E8
:104940000F910C94B40B623001F5413009F08FC027
:10495000C091C103D091C203209779F3CE010E9488
:10496000C41B813051F30F8D10E04C8D5D8D6A8D2D
:104970007B8D6F5F7F4F2E8DCE010E944F1A81304D
:10498000E1F68A8D9B8D0196D3CF613009F06FC01F
:10499000411123C0C091C103D091C203209769F295
:1049A000CE010E94C41B813041F20F8D10E00F5FD9
:1049B0001F4F037011274C8D5D8D6A8D7B8D2E8D61
:1049C000CE010E944F1A813009F0B7CF8F8D90E051
:1049D0000196837099278F8FADCF423009F047C081
:1049E000C091C103D091C203209709F4A6CFCE0194
:1049F0000E94C41B813009F4A0CF0F8D10E04C8DB4
:104A00005D8D4F5F5F4F6A8D7B8D2E8DCE010E9435
:104A10004F1A4C8D5D8D813029F44F5F5F4F5D8F54
:104A20004C8FEBCF6A8D7B8D0F8D2E8DCE010E942A
:104A3000E71BCE010E94D61ACE010E94C41B813012
:104A400091F4CE010E944219088D198DCE010E9469
:104A5000E519EE89FF89309709F46FCFB8018C8989
:104A60009D8909956ACFCE010E949D1963CFDF9180
:104A7000CF911F910F9108959A012F5F3F4F032E01
:104A8000000C440B550B072E000C880B990B0E9451
:104A90006828CB010895AF92BF92CF92DF92EF9238
:104AA000FF920F931F93CF93DF93CDB7DEB72B9772
:104AB0000FB6F894DEBF0FBECDBF0E94D40D2EE21C
:104AC00030E042E250E060E070E080E090E00E9480
:104AD000E138E091C103F091C203208D318DA4E64D
:104AE000B0E00E94BC3DAB01BC0120E0CE010196CC
:104AF0005C010E940511F50101900020E9F7319752
:104B0000EA19FB09EE0FFF1FEE0FFF1FC12CD12C7E
:104B1000760101E010E020E030E0A5016AE270E0FB
:104B200084E590E08E1B9F0B0E9469382B960FB690
:104B3000F894DEBF0FBECDBFDF91CF911F910F91D3
:104B4000FF90EF90DF90CF90BF90AF9008956111EC
:104B500007C0423009F06BC00E94E51E0C947E0B2A
:104B6000413009F073C0613069F0623009F0089596
:104B7000809102018F3F11F482E007C08D7FE1F741
:104B800083E003C0809102018F5F809302018091D6
:104B90000201843010F010920201809102018130F4
:104BA000A9F028F0823009F1833081F10895E09175
:104BB000C503F091C603309709F448C0848D958DE4
:104BC000019709F443C08FEF9FEF1BC0E091C5032D
:104BD000F091C6033097D1F1868D978D0197B1F191
:104BE000158E148E8FEF9FEF1FC0E091C503F091DB
:104BF000C603309759F1848D958D019639F181E086
:104C000090E0958F848F178E168E0895E091C503DE
:104C1000F091C6033097D1F0868D978D0196B1F053
:104C2000158E148E81E090E0978F868F0895413025
:104C300069F4809102018F3F19F410920201A7CF0D
:104C40008D7F8130D1F340930201A1CF08950F935E
:104C50001F93CF93DF93C091BF03D091C003009106
:104C6000C1031091C203CD32D10550F0AE0160E016
:104C700070E0C8010E94203EAC97F801D3A7C2A7FC
:104C8000E091C103F091C203309791F182A593A501
:104C9000419740F08AE090E097A386A38EE090E0F1
:104CA00091A780A78BE495E29383828389E395E0C3
:104CB0009183808328E933E2378326839583848335
:104CC0002CEA33E2338722879187808721EC33E215
:104CD00037872687958784878CE395E2938B828B31
:104CE000118A108A88E594E2978B868B158A148A3C
:104CF00089E694E29093CE038093CD031092CC0387
:104D00001092CB039F0142EE53E26CEB72E080E025
:104D100090E00E94DD0F9093040180930301809145
:104D2000C1039091C203DF91CF911F910F910C9419
:104D3000E5190C9427260F931F93CF93DF938FEFE2
:104D400080930201C091C303D091C4030091C503B5
:104D50001091C603C333D10580F0AE0160E070E06E
:104D6000C8010E94203EE297F801D1ABC0AB85E0BC
:104D700090E093A782A711A610A6E091C503F09139
:104D8000C603309741F18AE190E0918F808F8EE0E9
:104D900090E0938F828F84E89EE19383828389E3FE
:104DA00095E09183808323E63EE1338722879187D4
:104DB00080872FE43EE1378726879587848780E4C4
:104DC0009EE1938B828B118A108A82EF92E2978BFD
:104DD000868B158A148A9F0141EA5CE162E470E0E7
:104DE00080E090E00E94DD0F90930101809300012C
:104DF00087EA95E29093CE038093CD031092CC0383
:104E00001092CB03E091C503F091C603309729F1CE
:104E1000158E148E178E168E808D918D97FD0196AE
:104E20009595879591A380A3828D938D97FD01968B
:104E30009595879593A382A385E090E093A782A799
:104E400011A610A615A614A617A616A6CF01DF91C7
:104E5000CF911F910F910C94771CDF91CF911F91EF
:104E60000F910895CF93DF9390E0FC01EC51FE4E3B
:104E70002491FC01E053FE4E8491882361F190E07F
:104E8000880F991FFC01E454FE4EC591D491FC019A
:104E9000EA53FE4EA591B491611109C09FB7F894F1
:104EA0008881209582238883EC912E230BC0623069
:104EB00061F49FB7F8943881822F8095832388838B
:104EC000EC912E2B2C939FBF06C08FB7F894E881EE
:104ED0002E2B28838FBFDF91CF9108952F923F9281
:104EE0004F925F926F927F928F929F92AF92BF92FA
:104EF000CF92DF92EF92FF920F93CF93DF931F92A7
:104F0000CDB7DEB7982E6B012A011901E090DD03C1
:104F1000F090DE03A090DB03B090DC038DE1E81697
:104F2000F10460F0A70160E070E0C5010E94203E3E
:104F3000ECE1EE1AF108F501F38EE28E8091DB03CD
:104F40009091DC03009759F028E330E0FC01318BAD
:104F5000208B27E230E0338B228B0E9482178091D6
:104F6000DB039091DC03009749F021E83EE2FC016D
:104F700037832683158214820E9482178091DB0377
:104F80009091DC03009749F023EE3FE2FC01338768
:104F90002287118610860E9482174CE050E06FEC49
:104FA00073E0892D0E945F30C6010E945D396C015B
:104FB00090930801809307014C01002311F068943D
:104FC00087F8C6010E942D103C011982E12CF12CBA
:104FD000A12CB12CA614B70419F1E114F10419F4B1
:104FE000EE24E394F12C21E030E0AE014F5F5F4FFF
:104FF000B501C6010E94510B019719F0E12CF12C6B
:105000000FC089818C3241F08A3021F4FFEFEF1A12
:10501000FF0A02C0882321F08FEFA81AB80ADACF5E
:10502000002319F0EFEFEE1AFE0AE091DB03F09196
:10503000DC03309759F0F78AE68A89E19EE2938390
:10504000828391828082CF010E9482178091DB034C
:105050009091DC03009739F0FC015786468615864F
:1050600014860E94821720E030E041E152E368EEAE
:1050700073E080E090E00E94DD0F90930601809342
:10508000050183E192E39093CE038093CD03909248
:10509000CC038092CB03E091DB03F091DC033097EB
:1050A00011F0358A248A0E949A300F90DF91CF91B7
:1050B0000F91FF90EF90DF90CF90BF90AF909F90B7
:1050C0008F907F906F905F904F903F902F900895BA
:1050D000CF92DF92EF92FF920F931F93CF93DF93C4
:1050E00000D000D0CDB7DEB76217730784079507ED
:1050F000FCF489019A016B017C01A9019801261B2E
:10510000370B480B590B69F029833A834B835C8337
:105110000E943B3D29813A814B815C810E94683D20
:1051200003C060E070E0CB016C0D7D1D8E1D9F1DE6
:105130000F900F900F900F90DF91CF911F910F91D3
:10514000FF90EF90DF90CF900895833081F028F4A6
:10515000813099F08230A1F008958730A9F088302D
:10516000B9F08430D1F4809180008F7D03C08091AC
:1051700080008F7780938000089584B58F7702C078
:1051800084B58F7D84BD08958091B0008F7703C072
:105190008091B0008F7D8093B00008951F93CF93CE
:1051A000DF93282F30E0F901E850FE4E8491F90199
:1051B000EC51FE4ED491F901E053FE4EC491CC2344
:1051C000C9F0162F81110E94A528EC2FF0E0EE0FF8
:1051D000FF1FEA53FE4EA591B4918FB7F8941111B9
:1051E00005C09C91ED2FE095E92302C0EC91ED2BD9
:1051F000EC938FBFDF91CF911F9108958E3008F00F
:105200008E508770806480937C0080917A008064E7
:1052100080937A0080917A0086FDFCCF809178009F
:105220002091790090E0922B08952F923F924F9217
:105230005F926F927F928F929F92AF92BF92CF9226
:10524000DF92EF92FF920F931F93CF93DF93CDB72F
:10525000DEB7E7970FB6F894DEBF0FBECDBF8C0167
:105260006B0158A74FA31901892B21F4672B11F06B
:105270000E94F33D60E070E086E090E00E944D17F0
:105280009EA38DA30115110539F07801812C912C75
:10529000412C512C320152C0C114D104B1F3E8CFDA
:1052A000D7011296AD90BC90139716962D913C9114
:1052B00017973CA32BA3B7FCDBCF37FDD9CF66E014
:1052C00070E08D919C910E942F14FC01419780F613
:1052D000C501BB0CAA0BBB0B21E030E040E050E065
:1052E0000E2E04C0220F331F441F551F0A94D2F7FD
:1052F00082179307A407B50784F5CF01FF0FAA0B08
:10530000BB0B0496A11DB11D2BA13CA1A901330F1C
:10531000660B770B840F951FA61FB71F480E591EEB
:105320006A1E7B1E38E0E30EF11C411440E854066F
:105330006104710494F45FEF851A950A8C149D043E
:1053400009F0AECF52018DA19EA1B3E0880F991F45
:10535000BA95E1F78415950524F4D1011C9280E0FB
:1053600016C484EDF10111928A95E9F718A21F8EF7
:10537000812C912C8C149D0409F453C09E01215E54
:105380003F4FA10164E070E0D8018D919C910E9493
:10539000A91666E070E0F801808191810E942F14C7
:1053A0009E01215E3F4FA101BC01D80112968D9153
:1053B0009C9113970E94A916E12CF12CF80186818B
:1053C0009781E816F9063CF5C701A3E09595879506
:1053D000AA95E1F7D8011496ED91FC911597E80F85
:1053E000F91F808190E09701209530952770332731
:1053F00002C0959587952A95E2F79E01215E3F4F61
:10540000A10161E070E0817099270E94A916BFEFA9
:10541000EB1AFB0AD3CFFFEF8F1A9F0A085F1F4FCB
:10542000A9CF8F8D98A18A159B0509F021CF60E047
:1054300070E086E090E00E944D178C01F3E0000FD1
:10544000111FFA95E1F70A151B050CF411CFB801ED
:105450006A197B096530710514F064E070E09E0103
:10546000215E3F4FA10180E090E00E94A9168F8D40
:1054700098A128E030E0B9010E94DF3DB901681B26
:10548000790B677077279E01215E3F4FA10180E075
:1054900090E00E94A9168F8D98A187709927892B7B
:1054A00009F0E6CE7CEEF72EEDEFEE2E8F8D98A173
:1054B0008017910764F49E01215E3F4FA10168E0CF
:1054C00070E08F2D90E00E94A916FE24EFCF66E0D9
:1054D00070E080E090E00E94F916882E880F99080D
:1054E00066E070E080E090E00E942317482E880F6D
:1054F000550886E090E00E946F1697FD07968C0194
:1055000063E0159507956A95E1F760E070E086E045
:1055100090E00E944D179CA38BA3C801B4010E9488
:10552000DF3D9401281B390B3EA32DA39B012419B9
:1055300035093AA729A7720131E0E31AF1084EE1D3
:10554000E416F10408F094CE8E010F5F1F4FA20104
:1055500060E070E0C8010E94203EF801EE0DFF1DE2
:1055600081E08083C12CD12C91E01AA309A3C4143B
:10557000D5041CF558013801692FD3018C919CABDF
:105580000E944F16F30181933F019F0149A15AA147
:10559000241B350B9CA92415350534F42081822762
:1055A000D5018D935D01E8CF62E0892F0E944F16EF
:1055B000982FBFEFCB1ADB0ADACF5101C12CD12CC7
:1055C0000BA11CA1020D131D9201215031093FA70F
:1055D0002EA798012F5F3F4F39AB28AB98012E0DB6
:1055E0003F1D3BAB2AABC814D9040CF084C081E04A
:1055F00090E02DA13EA1C216D30614F480E090E005
:10560000E9A4FAA4E80EF91EA20160E070E0C80166
:105610000E94203EBCA6ABA63501C3018A199B0996
:105620008E159F0584F5D3019D913D01F801808180
:1056300098279DA74EA55FA568A979A9C8010E94D2
:105640000E3EAAA9BBA91C92AE014F5F5F4F980105
:10565000C901801B910B84159505FCF66DA5FA0117
:105660008191AF012EAB3FABECAB5DAB0E944F160F
:105670002EA93FA9D9019C918927F90181939F0106
:105680005DA94CA9E5CFC60120E030E02E153F050D
:10569000C4F449A55AA52417350721F4ADA1BEA12C
:1056A0008A1B9B0BEBA5FCA54191FCA7EBA7EFA1E7
:1056B000F8A5E80FF91F40832F5F3F4F880D991D14
:1056C000E5CFEBA1FCA1EC0DFD1D2FA138A5E20F4C
:1056D000F31FD801CD01801B910B841595052CF487
:1056E0008D918083E80DF91DF5CFAE0CBF1C3FEF07
:1056F000C31AD30A78CFB10186E090E00E94641506
:1057000086E090E00E946F1697FD07962C0143E01B
:10571000559447944A95E1F7C1010E9412154C0136
:105720008C010150110953E0440C551C5A95E1F7C6
:10573000E12CF12C1AA709A7101611060CF05DC078
:105740000630110511F405E010E0C12CD12CC80180
:105750000196AC01427055275CA74BA7C814D90429
:105760000CF048C089A59AA58C199D09EBA5FCA54C
:10577000EF2B19F48BA39DA302C0CBA2DDA2A12C19
:10578000B12C38016A187B084BA15DA1B301C1019E
:105790000E94E114811123C0E414F50404F5F7011B
:1057A00023E0F595E7952A95E1F78FA198A5E80FF5
:1057B000F91F208130E0C701809590958770992767
:1057C00002C0359527958A95E2F721704BA15DA11E
:1057D000B301C1010E9467149FEFE91AF90AAA9464
:1057E000AB2821F0AA24A394B12CCBCFBFEFCB1AC6
:1057F000DB0AB4CF025011099FCFE414F50409F07D
:1058000037CDC1010E9412156C0107E010E07C0148
:10581000F7E0EF1AF1080E151F058CF420E0A8013F
:1058200066E070E0C1010E94671420E046E050E0AD
:10583000B801C1010E9467140E5F1F4FECCF0CEF3F
:105840001FEF24E0C21AD1089CEFE92EFF24FA943E
:1058500066247724601A710A480183E0880E911C3F
:105860002601400E511EC701F7FE04C08827992764
:105870008E199F09980117FD9301821793070CF465
:10588000C9018230910511F00497A9F4A4015701D0
:1058900033E0A30EB11CB501C1010E946B3AA40113
:1058A000B6016E0D7F1DC1010E946B3AA201B501C8
:1058B000C1010E946B3A4FEFE41AF40A55E0E51675
:1058C000F10489F60F5F1F4F0530110509F0BCCFB9
:1058D000BE016F5F7F4F86E090E00E9420154C0173
:1058E000E12CF12C3C0191E0691A7108E814F904EB
:1058F0000CF056C000E010E0A1E0B0E0AC0FBD1F1E
:10590000AE0DBF1DBCA3ABA3E114F10431F401152E
:105910001105E1F106151705C9F1E614F70419F4AC
:105920000115110599F1CC24CA94DC2C442443942C
:10593000512C4C0E5D1E400E511EAA24AA94BA2C66
:1059400020E02170F2018081A601480F511DABA11A
:10595000BCA18C91B501680F711DC1010E94671433
:10596000BFEFAB1ABB0AE2E0AE16B10441F0A114DE
:10597000B10431F721E0C114D10419F3E1CFFFEFF5
:10598000CF1ADF0A22E0C216D104B9F60F5F1F4F0B
:10599000081519050CF4B8CF3FEFE31AF30AA6CFA8
:1059A0006FA178A586E090E00E946415C1010E9475
:1059B00012156C0100E010E00C151D0534F5E12C0A
:1059C000F12CA801B7018FA198A50E94E1148111C3
:1059D00013C0A801B701C1010E94E1149701200F73
:1059E000311F2170332741E0242721702827A80187
:1059F000B701C1010E9467145FEFE51AF50AEC14C4
:105A0000FD04FCF20F5F1F4FD7CF2AE030E008E023
:105A100010E067E375E0A801440F551FC801892F06
:105A2000990F990B8595869F8001879F100D969FF2
:105A3000100D1124042715272150310961F7106238
:105A400082E1082784E5182717FD12CCE12CF12C00
:105A500098010E2C02C0359527950A94E2F7217023
:105A6000A70168E070E0C1010E9467149FEFE91A86
:105A7000F90AA6E0EA16F10459F7980196E035957F
:105A800027959A95E1F7217047E050E068E070E0D3
:105A9000C1010E9467149801220F232F221F330B8C
:105AA000217048E050E068E070E0C1010E94671496
:105AB000212F217048E050E067E070E0C1010E94B2
:105AC000671459E0E52EF12C6EE0C62ED12C98011A
:105AD0000E2C02C0359527950A94E2F72170B60185
