:100000000C9415090C9432090C9432090C943209A1
:100010000C9432090C9432090C9432090C94320974
:100020000C9432090C9432090C9432090C94320964
:100030000C9432090C9432090C9432090C94320954
:100040000C946B0B0C9432090C9432090C94320909
:100050000C9432090C9432090C9432090C94320934
:100060000C9432090C943209637C777BF26B6FC578
:100070003001672BFED7AB76CA82C97DFA5947F0AB
:10008000ADD4A2AF9CA472C0B7FD9326363FF7CC87
:1000900034A5E5F171D8311504C723C31896059A24
:1000A000071280E2EB27B27509832C1A1B6E5AA047
:1000B000523BD6B329E32F8453D100ED20FCB15B32
:1000C0006ACBBE394A4C58CFD0EFAAFB434D33859B
:1000D00045F9027F503C9FA851A3408F929D38F56F
:1000E000BCB6DA2110FFF3D2CD0C13EC5F974417A6
:1000F000C4A77E3D645D197360814FDC222A90881D
:1001000046EEB814DE5E0BDBE0323A0A4906245CA8
:10011000C2D3AC629195E479E7C8376D8DD54EA90D
:100120006C56F4EA657AAE08BA78252E1CA6B4C6D9
:10013000E8DD741F4BBD8B8A703EB5664803F60E32
:10014000613557B986C11D9EE1F8981169D98E9421
:100150009B1E87E9CE5528DF8CA1890DBFE642683A
:1001600041992D0FB054BB16000000002400270059
:100170002A0000000000250028002B0004040404CD
:100180000404040402020202020203030303030341
:10019000010204081020408001020408102001021E
:1001A00004081020000000080002010000030407FA
:1001B000000000000000000097A9600C6C1C548F28
:1001C0007CF7563D437E85DA6D5CB082FFA3DE1F6F
:1001D000637962656172737B793075725F643376BF
:1001E0003163335F31735F756E37727573373364A4
:1001F0007D008D01020408102040801B360000188D
:1002000014000018140000181400001814000059FD
:100210000000040804000019000404080400040895
:10022000140000190100050804001019000004085A
:10023000050001190000140804000019100010182E
:100240000400000914000409010005180000041846
:10025000100000180500010904001409000004182A
:1002600004000019040004090400041900AA882AE3
:10027000A22A2A2AE4FB6AAC70F9DD73C98FAE9B0F
:10028000A0E843790E14E8ADB52BE0D41FF22FF4AB
:100290003ED894A6EC555DAB638100A4DDEED82575
:1002A000ABBC5849D6C0F8822D79FBE672869B0B11
:1002B000CA179DB869D297B785BFF45E6B1D04F964
:1002C000F2EC7EB97AF2D57AC7E0A296A2EB437837
:1002D0000813ECEFC1519449C7E24FF4BD9C4B9118
:1002E000DE744D3B3EC3CCD25E835CD4FF50E9AE9E
:1002F00088BC84ED99A2D6CD363B27B77EA1290CC8
:10030000A51E5B7B516B208A97C1D8252638AA6D24
:10031000B63E1EB6337456625E17BF84FC1F1815B6
:100320000D9D588513369B38A141774D0AA099EF52
:10033000F20C061EF037E86043EC591DC3F7B1F923
:10034000D5EE9A816290D8C58D0775570D4DFF2562
:10035000B79F866C43B553B0A5C469BA3CE585C266
:1003600070F625D200E9417A0A3B44A9BE0AEC7B2B
:10037000F5D07DC4D5FBCD81A9168FF9EC1134AA37
:10038000C334245C38C77E2C48D4E35BF0B541D538
:10039000AEA440AFD6EB6F986EB6F3D3E9AC983C01
:1003A000019AA09D8E9002C5209650F1B212A91A12
:1003B000D908DF641BF300C20B8A7F91144F832797
:1003C0001E3E735A1CB7AEF71DE7E88E18A19117B1
:1003D000DAB4CDB6A4631FD19348C235DAD72CC5A1
:1003E000A238C108B61B5F87BBF627EFA2F33A36E7
:1003F0004D3C4EFE265A0277D7BE7259723CAFA7CB
:1004000058DEE02CD1A15CB944F34F0790AE856172
:100410002904BAD4101CE19D6DAC33FC2F60C6BE1C
:10042000A7F5AB02526DE6F105FB17874E93193C19
:10043000952FEB4B013B70DAE79188754668FA3BE4
:10044000FE068A687B642A122E674DB206B7CAEC94
:100450007EED28F54B5A93B3BD21D6DD5AF0C93D48
:10046000E7D570EC4967D85073DA416ACFB228D922
:10047000E5DEAAB1B2BFA333F21FA580219ADFFF48
:10048000CDF783EE33455CA1AAB426E132BA9D32A2
:100490008FC8EADEDA933B00706B94998919DC010E
:1004A0008FAA07BCE5C50BC8862C1563768B849A8A
:1004B0000CCB149CC756D196B084DCF5516A1E094A
:1004C000EEF3EF7FAF7BF1D47DC5BD2F99A3EF2E67
:1004D0007F0910ED112972954E40D14EFBBCAD55F0
:1004E000FBDF775BD8BFC0CDD1BA758BC798AC5C4A
:1004F000A989BF3ACDA533EE0BC07826B8685FDF77
:10050000BD787ED48C5068237389B42AF4DBC12B68
:100510006AB762C567E90CBBBA3714BE8007B9C2B7
:10052000A7BA53A71A1234E56F7F34AD3FF46A9827
:10053000E8DCE562961CC316BE42EF51E013F4CC32
:10054000E1BBF0A78E6333D72BBC65D551CFB50E79
:1005500023E898B4028D4952A9BB4769951ED09BE8
:10056000467DC0E01100A8556C3F2FC2D923B20CC4
:10057000AB55822084B80B3D817708F4E3B926C2DD
:1005800030E3075BB2EB3E3ED1EEBA40756FDB580D
:10059000F28C5EA1E605D76F550DCFF4226F2FE2E6
:1005A00034F18991952F0CD339E7A3B11575EEB2CB
:1005B0002A3DB22935E3EB6F0AF3944A256A380FD6
:1005C000B0F915CFD53D3F808F75223E6089A78C4D
:1005D0006146763B63F8C147D6239AE322E4AD2C0B
:1005E000AAA684CE8AAAE5A97BB8E2BCFD5A361B2E
:1005F000114022804FB34284AD6B448CB67CC76DF2
:100600005029C03D20CF5DA3BDC9EE40034C6E44D0
:1006100019EE7B400B11001D0496537D34D19D07CC
:10062000F1596F55E396DED83986F816880FA81F62
:10063000FA55D5182A203871C3EE6AB9E5796E3BB0
:100640003AE71298E66406D6C51524CEF86DEB8914
:10065000AA62D60E4A4265CA08C80E2DD57B03C8C9
:10066000B8A3639156C37C396972DF662D0D3AE2F7
:10067000B0E4A2294EB3BCA276F3D32470C099DEB5
:10068000F8CEF4BF753279BD26ABB723EE33B99EF1
:10069000248ECBEBE1DB903A0671689516881ADD63
:1006A000DE8EAA1AA3E4C6F2CE872F146C8F78854B
:1006B0009D0DC815E3C66BE095B187BDFA50691F63
:1006C00002F3F1EE60A778F0D37CC581B0D8A0E941
:1006D000457E0A11D2DF3BA3924FC5E041FABF9F8E
:1006E0009D97DC7653253CC1CAD48A8292D5FD926F
:1006F000E0A889720DB36BA310FB37F92842E4A17F
:10070000490B3F1044FD530F40552C75B05842DC47
:1007100075EA2D83D1E7E8E8AD9DE3E477E6337E23
:10072000287EBCF92A576087AE40AED8759A93915F
:1007300099D53CD4CD06310388AA8063E82A52D3E8
:1007400080B24E5FB2F90CA186D6E74E18923EB940
:10075000921A23E9A3341944996B3E46D81FC04826
:100760006BC47D3A1DF00841EDD6A2B94A4755FB4E
:100770000AD75D782992D7F7C6FF4C1F2B5D44B985
:10078000B2AC3EF93AB2953A87C0E2D6E2AB030882
:10079000C853ACA18111D44997A410B4FFDDEBD1AB
:1007A000A0340D7DBD3F8C9284D302ECBF1667113F
:1007B00009FCC48D56E1D60D0A041977BE63EE53C9
:1007C0009ADF975C6F4BE04A78C2D895E6161551D0
:1007D00076FEDAB933B496AD6168BF4C3DDF28D5FB
:1007E000CD5D679A03F65BF96281B78DF59FA22F05
:1007F00032CCCFC630F72FDFBC6C55420C31B3B9C9
:1008000095593539222F2C449EE7351C8EF54F6BB8
:100810005E99137F82F5EDEEDE05962071ED9D82E7
:100820001F4FE24ECA0E2477DEDB040EC6C95C10F1
:100830008744AE2C1212FCB97EDDD65277A95655EC
:1008400003CAE46C51C75EF9A014D395C3BADE762F
:10085000F1BD27EF172A4564CDE992EE9C81DCF2C9
:100860008FB9A9CEF04E0975DC4771FECF283DC780
:10087000EAF9C5D4100FB1BDAA090F42AEDB7C68FE
:100880004D5B1CEC2D3EC0CF5960393EA86AC95F54
:10089000F5615032C9BE7DF4F29B8EA6656248DCDC
:1008A0003B54AFF7A26118381BB4734411B88F06DC
:1008B0007C3D712636906B382A694DCEB68738EF6D
:1008C000CD5803FEFF61559830E24258A4DC6B66B8
:1008D000685B71742F24B3FD5B8FB0E51F8709A09F
:1008E000237274ADE6903821B8D3A97AC054D904E4
:1008F00075EF68488205CF7A87DE4A3DCA1486467E
:10090000D9E039AE7B2599B3EDA4344B3D57AF2BDD
:10091000225158B51CD9742C797187A2D9BF4A00CD
:100920001DEEE1EE9E586461CFA3DA9DC367D7F850
:100930005A19D5128D809C0ACD107ABD16A420C0FC
:10094000F2C8B3290A7A639E858B19DE0D85A22D24
:10095000B0F7D5E1E5AC043F4F54ABA6B626E33E75
:10096000B0953883DAFACCF6B9132A5C49B4BBA542
:1009700033F42BA383286C8AB2D4ECB54D3FBA185C
:10098000784A277717B7CA7C7BE519CAD5E3FB6C91
:100990005E2235A7CAE566A767F5F50EF9AFB78EF3
:1009A000B3EC1B64100BF0FEAF2AEF6AECC93DCA32
:1009B0009AA09BA081391439699895C819CA4FE249
:1009C0008837B4FEC1E384893902726AD0C8D41C66
:1009D000DD00D3BA3A9BD3F2D6FEA150285249F794
:1009E000B3B971FA29BB913F948EEAC2EFA769743B
:1009F000193388A840DD7EFA446ACA70735D0F100F
:100A000047B49CD18D404457C04D9C707EC9297C11
:100A100062100D43D2F1FCAA777662E454D36143AD
:100A2000F151083B72723A9AA78095293F22BB7D0B
:100A3000F77315D53C7A50674C12B187F9A7370583
:100A40000893518B147AA8296D577E424AE6D9C47F
:100A5000EB03091BDA2EF27153AD181E2D182A690B
:100A6000C5AFD78D092A2AAD6DAB305C9C130F4CF6
:100A700044652994033C3F91EED65F9249C6E44C0D
:100A8000F8F8BEA19DCD2B512E3F84DDD14CCC5E1C
:100A9000CBF252FED5918AAFF34E761646CBE6E501
:100AA0007EB761E1C438CE80E080A4E0015B091C20
:100AB000E0E4BF47D7088AA11FFADED6FDDF8B2608
:100AC000006B6DF7DFC058954E97BC52FABC94AFDF
:100AD000968E2A50774EA4BEAD3CFE2AEBC91199E2
:100AE000C0EA83C6B60D27421A80A4B73BFC5AE978
:100AF000CB6ED89A152D5400AC9CE3F95B5A07EDE8
:100B000015F0644EF0222609314F5DE1CEECF8413C
:100B10004D4B8E1AE56F40E5591572053D6EDFECC1
:100B2000D88B7D6774A136FC7656BF5D02380961AB
:100B30007AC1E59FAE1E191187528B013CCC1D7FF7
:100B40004E655077F8C3BCAC560A1ACB1FC1436C34
:100B5000C5625848536E2493A9C8883A3868AE7560
:100B6000A36E2BA9164A724B2E6F9FA1C297202409
:100B700031A128BAC5A64DF1BC94E78DD66A0073A1
:100B80000CDEC4C6418951D5FF1CA3E2BFB095CB92
:100B900076347B63A8AFB363BF23B49A318A8FB234
:100BA000C19BC978502D5CC3D8D1478A3E908C2810
:100BB0009FD8BA9396C26155207B99D5AB0CD50DC1
:100BC0008BA309BBA5E6FBC88A20106D718EC4B645
:100BD00003C81F8FCB039DD3E0C5EFDF40700B151B
:100BE000AEBEE36DBC6AE18430CAECF3DCEDE83103
:100BF0003A5A51A05B0CD00CDE4772DD7232196A92
:100C00003472D4DFE48B524C51C003CF5A78C724DE
:100C10000D08314559DDEF998F73610CAA65B13824
:100C20005BE911497E407871C0BAB6916F2749E4FB
:100C30002BF33D4C8672445F605318FE82EEA4296C
:100C4000131A9B5DDA053C8E2F2065794D0FE3B1B9
:100C5000E6E7090F35B87BA7344E831D5C700B3770
:100C60007EA3A4D7C7497F68F433AC3953E3531C40
:100C7000384C696158640208E4F5E878B003EBDEAB
:100C800060DF90D7DBD89A380731358992821BDD37
:100C900046D3B57ED297BD8BB0F01F421505EAF062
:100CA000AD5EB064FDD87ECCC1E9B18EA300570A19
:100CB00006F8EFEC1BC444ABBA00BCF7B6BC8AC85C
:100CC000651E772DD6D5C053D212D98419B8EACE75
:100CD000E987A0272D515FB2BBB433B105AB9F2686
:100CE0009AD6F3C0EDEF25354157E49EB03AE95B63
:100CF000EBC064DC25186F4C0CAE95A3AB17754E9A
:100D0000CA1ECA5862CA6435403D0205C6D6A7A1AC
:100D10004D4B56C131AB516DCE163E3A0A2177D1BB
:100D2000E097946F617CEE20EC6511EA444C0A1F59
:100D3000206AC6E8B4C9190F0882519F0E6EA03709
:100D400069402F6510A785E2F91301198603B40ADB
:100D50007BA7246662497771BEA3C1C8283241EEE1
:100D600020F57D18B44E123D063F3483F7E9D530A7
:100D7000621FA26659C7A979FEBC84AF9D9B350846
:100D8000133AD0D8D4DEE6008DA20FE5A0C1E2DB95
:100D90009F345C2642D7FDFB34877BEB8F57DC9278
:100DA000BB83B9F80950071EEDA7C46EA265F0D346
:100DB0003588CB80F8D7993F6D2832C4C689179102
:100DC00057DEF356F3E5CBBEEF933B156F7C818B7B
:100DD0009A4DE01CA48E6BA3D4F2D2EFB304301F63
:100DE0006EB0B3A560D421A3873988D1A0ECEFB948
:100DF0001C541B01080F13D21F8314309B286F1E35
:100E0000205B7FF9C6ABA844585DC806927964D0D0
:100E10006A3A4A1F3E65DEF2838A666029CD2EE07B
:100E20006B4FE44E042307654BCDE197D65C6D769E
:100E3000EF24EC1676D86B2400655159E0DBA4B49E
:100E40004E1202D361971E369C2A236B764D0DBB42
:100E50008FE6E44D0A32B77BAA354D8B17507745A4
:100E6000627FB5BECDD12B4764F43AEC6B1FBE4414
:100E7000183B053582684C7B04D6CEC754D247C98F
:100E8000F14DF3BDC4A781D565160636C9CCDE5930
:100E9000C671CFFD67D19FBE80D5A50C314D54E9F9
:100EA000FFA02FE32AA2C5778BAC97B881C3035A62
:100EB0003A36CDCAEB408E59D7B202F8AC87BE8124
:100EC0008E39415E58A5CCD537C61F81AD15EEAE23
:100ED000E1D184BE1A2D4448B5BAB533BE11AC9ADF
:100EE0002C9BCCB7F5EAAE4A710175A4B2AC40BCFC
:100EF0006CEBC9267E7844784F07EFC9F0835150D8
:100F00000DF519D757368C2C1100241E5DEFCBAB95
:100F1000A10F7052F536FB6529BE0F436C183D35A5
:100F200086B4CAD172623FC22EF33549FE5F1D6F8F
:100F30003F267FC390B5ED031F44B4548E0523852F
:100F40007F6C552E7F10E7D0F4F301491F805E823D
:100F50000B7AC51206270340339DB7C08634326A28
:100F60008F7EA73905B1155F2C64692493B9CB95A1
:100F700068630CBB935CC0F6599CE0C9F9C3C87F99
:100F8000036A7A8F9EC04FC97FF0C57BD982A19535
:100F9000A88F456E312EDBB18F26EA3FBBDE6E9403
:100FA000CDE3DEE5F2453D3012FEA8EF67BA30EB47
:100FB000D37BD886D0EE9F857D13616CDAA4B837D9
:100FC000B053D7F949B2EA8BA195D77E0B6038AC04
:100FD0008E9918C83EAD976AB5D1E1CFF1A8536E8E
:100FE0001873B3A5B42FF030B69E7FA2D8F9CEF314
:100FF000AB440B5EA25D5950D511C54866D4703B19
:101000000B602354F3C8BFFD0E4A5CC64EF9566F01
:10101000DD27415F5B6820CAEADDDD2F2438EA3036
:10102000AA4F4AF24A1223520769CCFD8892667190
:101030003DDF2DE613298523741D445C14B485F629
:10104000F1175048C0739D0527992B60496A476383
:10105000F0C4B8A122326FE628FB7510AC567E684A
:101060004C653885F3839C02263BB568BC3D5D9199
:101070000A5A6F5395DD620C0322D8CFC056DC07A5
:101080008FC15EF0AC8018E9F35C790C17EF84E94E
:101090006FA466F9AD60C582A0DEF3BA5F650E0C81
:1010A000FFBDEE6FEB68FEC169CE86A28AB7A510C0
:1010B000310C1CEC8D941BD60C83A000A8E8DFE655
:1010C000DDD13403693089839100D85393AA1EA4DB
:1010D000B6DDA2AF9C37117E6BF7E9F56BA84A919C
:1010E00084318F9AE0D5FEA80E330250B9CDAE25DB
:1010F000E638BE93CC7677162B1B3EFDCAB3E34D84
:10110000124EDB59CE4060C97325065C3148EBDDD9
:10111000ACA640440BDD3DE76C5185731C300E22BC
:10112000149EAECBCE333C318E69BF2409B3234429
:101130006B4F713FEDC19CBC4E4B57C40BD15D460C
:101140008627795E705913B193B0F909394BDF1FC7
:10115000C20353FD7342260C2A79CFE9DEC22C3438
:101160000000000023002600290000004908B40008
:10117000BEF67B7AA59455B848002944442A15A0A8
:101180000B42005003020008259076BA595CC59EB8
:10119000C53892E6F33A73BAE59077BA773A0840E1
:1011A00008502A441CE08852E508568E77B677B876
:1011B000728CD6BA739E739272AEB7B6E95C64AAAB
:1011C000B7B4929CBEB6D6B656AAD79276EE77B48E
:1011D0007138E948B6AEB6AAB6F6B5B4B548E59CDE
:1011E000694C9124642E5400001C44000EAE9ABA3F
:1011F0000E8C2EAE0ECE56D0553B93B44144415189
:1012000097B4494417B61AB60AAAD6D37667179088
:101210000F389A8C16AE16BA16F615B4B52B1C5E9E
:101220006B4C4948C95A540056E211241FBECFEFF7
:10123000D8E0DEBFCDBF11E0A0E0B1E0E0E4FDE723
:1012400002C005900D92A637B107D9F726E0A6E7B0
:10125000B1E001C01D92A435B207E1F70E94163B30
:101260000C949E3E0C940000CF93DF9390E0FC0121
:10127000E057FE4F2491FC01E458FE4F84918823EF
:1012800061F190E0880F991FFC01E859FE4FC5916C
:10129000D491FC01EE58FE4FA591B491611109C0A3
:1012A0009FB7F8948881209582238883EC912E2320
:1012B0000BC0623061F49FB7F8943881822F80951B
:1012C00083238883EC912E2B2C939FBF06C08FB76E
:1012D000F894E8812E2B28838FBFDF91CF9108955A
:1012E0003FB7F8948091AE039091AF03A091B00303
:1012F000B091B10326B5A89B05C02F3F19F0019608
:10130000A11DB11D3FBFBA2FA92F982F8827820F8B
:10131000911DA11DB11DBC01CD0142E0660F771FDB
:10132000881F991F4A95D1F708952F923F924F92A7
:101330005F926F927F928F929F92AF92BF92CF9265
:10134000DF92EF92FF920F93CF93DF931F92CDB76F
:10135000DEB7982E6B012A011901E090A703F090E7
:10136000A803A090A503B090A6038DE1E816F104B0
:1013700060F0A70160E070E0C5010E94833EECE1EF
:10138000EE1AF108F501F38EE28E8091A50390919B
:10139000A603009759F028E330E0FC01318B208B45
:1013A00027E230E0338B228B0E9414188091A50332
:1013B0009091A603009749F021ED39E2FC013783B3
:1013C0002683158214820E9414188091A50390919F
:1013D000A603009749F02EE639E2FC013387228705
:1013E000118610860E9414184CE050E069E973E001
:1013F000892D0E94661DC6010E94F7396C019093E9
:101400000301809302014C01002311F0689487F8D6
:10141000C6010E9438223C011982E12CF12CA12C3A
:10142000B12CA614B70419F1E114F10419F4EE2457
:10143000E394F12C21E030E0AE014F5F5F4FB50146
:10144000C6010E94B31E019719F0E12CF12C0FC0C8
:1014500089818C3241F08A3021F4FFEFEF1AFF0AC4
:1014600002C0882321F08FEFA81AB80ADACF002330
:1014700019F0EFEFEE1AFE0AE091A503F091A60332
:10148000309759F0F78AE68A87EB99E29383828353
:1014900091828082CF010E9414188091A5039091BF
:1014A000A603009739F0FC015786468615861486F8
:1014B0000E94141820E030E043EF5DE268EE73E034
:1014C00080E090E00E94E821909301018093000168
:1014D00085EF9DE2909398038093970390929603F3
:1014E00080929503E091A503F091A603309711F047
:1014F000358A248A0E947C2C0F90DF91CF910F9126
:10150000FF90EF90DF90CF90BF90AF909F908F9023
:101510007F906F905F904F903F902F900895CF9263
:10152000DF92EF92FF920F931F93CF93DF9300D040
:1015300000D0CDB7DEB76217730784079507FCF4B8
:1015400089019A016B017C01A9019801261B370BC7
:10155000480B590B69F029833A834B835C830E94C3
:101560009E3D29813A814B815C810E94CB3D03C025
:1015700060E070E0CB016C0D7D1D8E1D9F1D0F90F6
:101580000F900F900F90DF91CF911F910F91FF90CF
:10159000EF90DF90CF900895833081F028F4813070
:1015A00099F08230A1F008958730A9F08830B9F021
:1015B0008430D1F4809180008F7D03C080918000C1
:1015C0008F7780938000089584B58F7702C084B5AB
:1015D0008F7D84BD08958091B0008F7703C0809186
:1015E000B0008F7D8093B00008951F93CF93DF9359
:1015F000282F30E0F901EC55FE4F8491F901E057B6
:10160000FE4FD491F901E458FE4FC491CC23C9F0A8
:10161000162F81110E94CC0AEC2FF0E0EE0FFF1F75
:10162000EE58FE4FA591B4918FB7F894111105C0F3
:101630009C91ED2FE095E92302C0EC91ED2BEC930A
:101640008FBFDF91CF911F9108958F929F92AF929C
:10165000BF92CF92DF92EF92FF926B017C010E94CA
:1016600070094B015C01C114D104E104F104F1F0F3
:101670000E947009DC01CB0188199909AA09BB09EC
:10168000883E9340A105B10570F321E0C21AD1084C
:10169000E108F10888EE880E83E0981EA11CB11CB9
:1016A000C114D104E104F10419F7DDCFFF90EF90EC
:1016B000DF90CF90BF90AF909F908F9008952FB7FD
:1016C000F8946091AA037091AB038091AC03909160
:1016D000AD032FBF08951F920F920FB60F921124E2
:1016E0002F933F938F939F93AF93BF938091AA03C0
:1016F0009091AB03A091AC03B091AD033091A903DD
:1017000023E0230F2D3720F40196A11DB11D05C044
:1017100026E8230F0296A11DB11D2093A9038093F3
:10172000AA039093AB03A093AC03B093AD03809155
:10173000AE039091AF03A091B003B091B1030196B5
:10174000A11DB11D8093AE039093AF03A093B0038E
:10175000B093B103BF91AF919F918F913F912F9122
:101760000F900FBE0F901F9018959C0184E0D90137
:1017700090E0EC91F0E0E859FF4FE491EC939F5F2B
:1017800014969430B1F781502F5F3F4F8111EFCF06
:1017900008950F931F93CF93DF939B0190E1899F4F
:1017A00080011124A0E0B0E0FD01E00FF11FE40F83
:1017B000F51F60E070E0E901C60FD71F91918881A5
:1017C000982798836F5F7F4F64307105A1F7149657
:1017D0002C5F3F4FA031B10539F7DF91CF911F91B9
:1017E0000F9108959C01CB010197889770F5CB016B
:1017F000079661E170E00E94423E24303105E9F035
:1018000060F4660F771F2130310599F022303105E1
:10181000E1F4FB01E35EFE4F15C027303105B9F05E
:101820002830310591F4660F771FFB01EF5EFE4F04
:1018300009C0FB01ED5DFE4F05C0660F771FFB0180
:10184000E95EFE4F8081918108950E94563E80E0BE
:1018500090E00895FC01A081B0E0FD017597ED399D
:10186000F10550F477FD08C06A177B072CF457FD8B
:1018700003C04A175B0714F00E94563E4A9FF001CE
:101880004B9FF00D5A9FF00D11246E0F7F1FAB017F
:101890004770552733E0759567953A95E1F76F5F87
:1018A0007F4FFC01E60FF71F81E090E001C0880F39
:1018B0004A95EAF7222319F09081892B03C080957D
:1018C00090818923808308954F925F926F927F92D7
:1018D0008F929F92AF92BF92CF92DF92EF92FF9240
:1018E0000F931F93CF93DF936C015B014A01790142
:1018F0002801C0E0D0E0CE15DF05ACF400E010E038
:101900003E016A0C7B1C081519055CF4B8016C0DCE
:101910007D1D21E0A301C2010E942A0C0F5F1F4F11
:10192000F2CF2196E8CFDF91CF911F910F91FF90D9
:10193000EF90DF90CF90BF90AF909F908F907F906F
:101940006F905F904F900895FC01208130E0F90185
:101950007597ED39F10550F477FD08C062177307EC
:101960002CF457FD03C04217530714F00E94563E53
:10197000429FF001439FF00D529FF00D11246E0F16
:101980007F1F9B0143E0359527954A95E1F7FC01C0
:10199000E20FF31F818190E06770772702C0959571
:1019A00087956A95E2F781700895009711F40E9477
:1019B000563EFC01808190E09C01255131092D3972
:1019C0003105A8F708950F931F93CF93DF939C01E0
:1019D0008B0181309105A1F167E070E00E94423EE9
:1019E000EB012296FB0131962032310581F0C901CD
:1019F000880F991F8C0F9D1F880F991F0196BF019B
:101A0000660F771F0E94423E660F771F02C06AE191
:101A100070E0CF01220F331F220F331F265F3F4F8D
:101A20001816190644F4F801E80FF91F20830197EE
:101A3000261B370BF5CF86E0F8018083CE0102C06C
:101A400080E090E0DF91CF911F910F9108952F9248
:101A50003F924F925F926F927F928F929F92AF923E
:101A6000BF92CF92DF92EF92FF920F931F93CF938B
:101A7000DF93CDB7DEB729970FB6F894DEBF0FBE60
:101A8000CDBF4C017B012C01440C551C440C551C52
:101A9000620181E1C80ED11CCC9CA001CD9C500DEF
:101AA000500D1124495F5F4F93E0559547959A95E6
:101AB000E1F74F5F5F4F60E070E0C7010E94833E37
:101AC000F701C0828701960141E050E060E070E0DC
:101AD00086E090E00E94640C21E030E0A60166E020
:101AE00070E080E090E00E94640C29E030E049E082
:101AF00050E060E070E080E090E00E94640C6201E1
:101B0000F9E0CF0ED11C29E030E048E050E060E081
:101B100070E0C6010E94640C28E030E049E050E02B
:101B2000B60180E090E00E94640CBE016F5F7F4FC1
:101B3000C4010E94E30C3C01A12CB12C1C0181E0EA
:101B4000281A3108A614B704D4F5C12CD12C81E091
:101B500090E08C0F9D1F8A0D9B1D99878887C61466
:101B6000D7044CF5A114B10431F4C114D104F9F037
:101B7000C214D304E1F0A214B30419F4C114D104C3
:101B8000B1F0E1E0F0E0EC0FFD1FEC0DFD1D608118
:101B900070E062507109E885F985808190E08701E5
:101BA00025E030E045E050E002970E94640CFFEF32
:101BB000CF1ADF0AD4CF9FEFA91AB90AC3CFE7E043
:101BC0008E169104B4F0F6E04F0E511C870126E00A
:101BD00030E043E050E060E070E0C2010E94640C3D
:101BE00023E030E046E050E0B20180E090E00E9467
:101BF000640C29960FB6F894DEBF0FBECDBFDF91FF
:101C0000CF911F910F91FF90EF90DF90CF90BF90F9
:101C1000AF909F908F907F906F905F904F903F908C
:101C20002F900895E7E0F0E020E05DE170E0422FC2
:101C3000441F4427441F459F402D1124220F422753
:101C40009B010E2E02C0359527950A94E2F7922F3C
:101C50009170989F902D1124242F2927319738F7C0
:101C6000822F08951F93FC010197889710F00E941E
:101C7000563ECF01089624E0880F991F2A95E1F778
:101C80008E9F90018F9F300D9E9F300D1124205C00
:101C90003F4FE130F105E9F0CF0167E070E00E94CD
:101CA000423E6E5F7F4F17EE1603A001179F500D47
:101CB0001124465F5F4F469FC001479F900D569F7E
:101CC000900D1124C796280F391F379714F024520E
:101CD0003109C9011F910895DF92EF92FF920F938E
:101CE0001F93CF93DF938C01EB016430710510F0EB
:101CF0000E94563E0E94320ED82EE92EB801CE0127
:101D00000E94EA17F82EB801CE010E94C0172D2DAF
:101D10003E2D37FF02C0295F3F4F93E03595279551
:101D20009A95E1F7A9016F2D680240195109112414
:101D3000CA01DF91CF911F910F91FF90EF90DF903B
:101D40000895CF92DF92EF92FF92CF93DF936131AC
:101D5000710578F46C01E12CF12C062E04C0F69488
:101D6000E794D794C7940A94D2F7CD28CE28CF28E9
:101D700011F00E94563E615071096F3FBFEF7B0723
:101D800049F1F901A081B181ED01E3E0D595C79555
:101D9000EA95E1F7C40FD51FFC01062E02C0F695A7
:101DA000E7950A94E2F7E170FF27A095B095A77038
:101DB000BB2701C0EE0FAA95EAF7F881EF2BE88365
:101DC00061507109D901ED91FC9111973196ED9314
:101DD000FC93D3CFDF91CF91FF90EF90DF90CF9026
:101DE0000895AF92BF92CF92DF92EF92FF920F933E
:101DF0001F93CF93DF93CDB7DEB72B970FB6F89431
:101E0000DEBF0FBECDBF0E94DB2120E330E044E502
:101E100050E060E070E080E090E00E947B39E0916B
:101E20008F03F091900320A531A5A4E6B0E00E94B5
:101E30001F3EAB01BC0120E0CE0101965C010E9477
:101E40001023F50101900020E9F73197EA19FB0909
:101E5000EE0FFF1FEE0FFF1FC12CD12C760101E00A
:101E600010E020E030E0A50169E270E083E590E059
:101E70008E1B9F0B0E9403392B960FB6F894DEBF82
:101E80000FBECDBFDF91CF911F910F91FF90EF90CB
:101E9000DF90CF90BF90AF9008955F926F927F9246
:101EA0008F929F92AF92BF92CF92DF92EF92FF926A
:101EB0000F931F93CF93DF93CDB7DEB7E0970FB6A5
:101EC000F894DEBF0FBECDBF5C0180908703909079
:101ED0008803E0908503F0908603FC0101900020C8
:101EE000E9F731978F01081B190B39F49401A70109
:101EF00060E070E080E090E099C0009709F447C08E
:101F00006C01FC018191811144C017FD0FC1980142
:101F1000AAE0B0E00E941F3E6E5F7F4F8F4F9F4F41
:101F200023E030E040E050E00E94CB3D211580E806
:101F30003807410551050CF0F9C0C9010796BC01ED
:101F4000F3E076956795FA95E1F7653D710508F040
:101F5000EDC081E090E09AA789A759011CA70BA7C3
:101F6000AB0160E070E0C7010E94833E18AA1FA683
:101F700060E070E080E090E01AE0D6012D916D0104
:101F80002223E1F030ED320F3A3008F49BC00E947A
:101F9000563E80538A3008F4B5CF3501F301619184
:101FA0003F01662309F4ACC0062E000C770B87E4D2
:101FB00091E00E948A3E892B89F732C16115710533
:101FC00069F09B01220F331F620F731F6F5F7F4FFA
:101FD0009E01215D3F4FA7010E94A10E8FA598A9E8
:101FE0008A159B05A1F6EDA6FEA688E0FE01B9962E
:101FF000DE01599601900D928A95E1F788E0FE0185
:102000007996DE01919601900D928A95E1F788E02C
:10201000FE01B196DE01519601900D928A95E1F78D
:102020009401A70161E070E0CE0141960E94B42EB8
:10203000882309F418C180918703909188030E9436
:10204000D50C6C018C0197FF02C00F5F1F4F1595D7
:1020500007951195019511090E94DB21E12CF12CC6
:10206000065D1F4FEC14FD040CF0FDC0A12CB12C3B
:102070008091870390918803009709F488CFDC0151
:102080002C9130E0A216B3064CF4E216F30634F4B9
:10209000A701B5010E94A40C282F02C020E030E067
:1020A000422F4170B701C8018A0D9B1D0E94D01FAD
:1020B000BFEFAB1ABB0AAC14BD04D4F2EFEFEE1ABB
:1020C000FE0AD0CF189FA001199F500D1124CA01FC
:1020D000C097820F911D27FD9A956F5F7F4F6330E8
:1020E000710509F04ACF9E01215D3F4FA7016AE0CB
:1020F00070E00E94A10E60E070E080E090E03DCFD3
:1021000017FD14C09801ABE0B0E00E941F3EDC0157
:10211000CB010196A11DB11DB595A7959795879502
:102120008115F0E89F07A105B1051CF0F4011082AC
:102130009AC0AC01495F5F4F63E0569547956A9539
:10214000E1F7453D510590F722E030E03A8B298BCD
:102150005C011C8B0B8B60E070E0C7010E94833E2A
:10216000188E1F8A612C712C00E010E04DE2542E75
:10217000D6016D916D01662349F1062E000C770B97
:1021800087E491E00E948A3E009709F400CF509EB8
:102190009001519E300D1124875491408C01020F03
:1021A000131F6A94672871F49E01295E3F4FA701AF
:1021B0006BE070E0C8010E94A10E612C712C00E060
:1021C00010E0D6CF66246394712CD2CF6A9467282E
:1021D00049F49E01295E3F4FA70166E070E0C80107
:1021E0000E94A10E8F89988D8A159B0509F0CFCE8C
:1021F000ED8AFE8A88E0FE017196DE01119601905B
:102200000D928A95E1F788E0FE013196DE0119967C
:1022100001900D928A95E1F788E0FE013996FACE99
:10222000053D110508F082CFF701A00EB11ED601C1
:102230008D916D018193AA15BB05C9F784E090E0EB
:102240009A8B898BC801A0E0B0E023E0880F991F2A
:10225000AA1FBB1F2A95D1F7988F8F8B1C8B0B8BD6
:10226000ED8AFE8ADDCEE0960FB6F894DEBF0FBE93
:10227000CDBFDF91CF911F910F91FF90EF90DF9035
:10228000CF90BF90AF909F908F907F906F905F9016
:1022900008952F923F924F925F926F927F928F920A
:1022A0009F92AF92BF92CF92DF92EF92FF920F93E5
:1022B0001F93CF93DF93CDB7DEB7C151D1400FB697
:1022C000F894DEBF0FBECDBF182F7B0148EC50E065
:1022D0009E012F5F3F4F2901B90181E00E94661DD9
:1022E000F20101900020E9F731971F012418350809
:1022F00087EC90E0DC01A219B309CA5FDE4FB98315
:10230000A883C650D140C250DF4F188219821A826A
:102310001B82CE5FD0409701A4E6B0E00E941F3E32
:102320004B015C01CE0182509F4F0E94BD233E01B4
:10233000BEED6B0E711C60E1F62EF3012F2D119294
:102340002A95E9F7C250DF4F88819981AA81BB8124
:10235000CE5FD040F30180839183A283B3838482D4
:102360009582A682B782108763E0C30109960E9416
:10237000A023C250DF4F88819981AA81BB81CE5FA3
:10238000D040F30184879587A687B787AE014E5F5B
:102390005E4F60E170E0C3010E947F24CE5FDE4F9C
:1023A00088819981AA81BB81C250D140F301848781
:1023B0009587A687B7878E0102511F4FD8011D92BE
:1023C000FA94E9F78CED99E00E94F7396C017E01EF
:1023D000B9ECEB0EF11C40E150E0B7010E943D3733
:1023E0009C01C601C25FDE4F2883CE50D140C15F41
:1023F000DE4F3883CF50D1400E94683AC25FDE4F33
:102400002881CE50D140C15FDE4F3881CF50D140BE
:102410002031310579F4B8018FEF90E00E94963AAF
:10242000D701F80190E1900F8D912081822781934F
:102430009E13FACF80E1F70111928A95E9F780ECBB
:10244000E0EBF4E0DF011D928A95E9F7F801808165
:102450008093B00481818093B10482818093B2041F
:1024600083818093B30484818093B40485818093B5
:10247000B50486818093B60487818093B7048085F4
:102480008093B80481858093B90482858093BA04CF
:1024900083858093BB0484858093BC048585809369
:1024A000BD0486858093BE0487858093BF04A3EC1A
:1024B000B4E024E030E0FD0137977081319660810F
:1024C0003196908131968081A90143705527452B23
:1024D000E9F4E62FF0E0E859FF4F4491E92FF0E0EE
:1024E000E859FF4F6491E82FF0E0E859FF4F9491CD
:1024F000E72FF0E0E859FF4F8491F901F695E79551
:10250000F695E795EE50FE4F749174278D010350B8
:102510001109AD0143515109FA0140817427F801B5
:1025200070830F5F1F4FAD0142515109FA01408185
:102530006427F8016083BD0161507109AD0141510B
:102540005109FA0140819427FB0190833F97E08174
:102550008E278C932F5F3F4F14962C32310509F054
:10256000AACF80E1F701A0E6B5E001900D928A952F
:10257000E1F7A0E6B5E0F30190E1960D8D912081A1
:10258000822781939E13FACF40EB54E0B30180E0A1
:102590000E94C90B11E02EED30E02C0F3D1F2F5F84
:1025A0003F4FC85FDE4F39832883C850D1402EED9E
:1025B00030E02C0F3D1F2E5F3F4FC65FDE4F39834B
:1025C0002883CA50D1402EED30E02C0F3D1F2D5FE7
:1025D0003F4FC45FDE4F39832883CC50D1403EED5E
:1025E000C32ED12CCC0EDD1E30E1C30ED11C0BE16D
:1025F000CE0182529F4F0E94B50BC152DF4F88819E
:10260000CF5DD040CD51DF4F9881C35ED040C152E5
:10261000DF4F9883CF5DD040C951DF4F9881C75EAF
:10262000D040CD51DF4F9883C35ED040C551DF4FBE
:102630009881CB5ED040C951DF4F9883C75ED040B0
:10264000C551DF4F8883CB5ED040C052DF4F8881B9
:10265000C05ED040C851DF4F9881C85ED040C052A4
:10266000DF4F9883C05ED040C851DF4F8883C85E7B
:10267000D040CC51DF4F8881C45ED040C451DF4F81
:102680009881CC5ED040CC51DF4F9883C45ED0405F
:10269000C451DF4F8883CC5ED040CF51DF4F88815B
:1026A000C15ED040C351DF4F9881CD5ED040CF5145
:1026B000DF4F9883C15ED040C751DF4F9881C95E1C
:1026C000D040C351DF4F9883CD5ED040CB51DF4F18
:1026D0009881C55ED040C751DF4F9883C95ED04016
:1026E000CB51DF4F8883C55ED040C85FDE4F488145
:1026F0005981C850D140C65FDE4FA881B981CA5008
:10270000D140C45FDE4F28813981CC50D140C05FB9
:10271000DE4F39832883C051D1409301F901808174
:10272000FA01F080F826C05FDE4FE881F981C051E0
:10273000D14060819C9196279F25E92EE8267F2D28
:10274000771F7727771F709F602D1124FF0CF626C7
:10275000EF24F901E082FA01E080FC90FE24E926F2
:102760007F2D771F7727771F709F602D1124FF0C17
:10277000F626EF24E082EC90C05FDE4FE881F9811D
:10278000C051D140F080FE24E9267F2D771F7727A6
:10279000771F709F602D1124FF0CF626EF24EC921A
:1027A000608186279627782F771F7727771F709F5E
:1027B000602D1124880F8627982790832C5F3F4F28
:1027C0004C5F5F4F14963496C05FDE4FF983E88309
:1027D000C051D1402C153D0509F0A0CF40EB54E08D
:1027E000BE0162527F4F812F0E94C90B1F5F1A30BA
:1027F00009F0FECECE0182529F4F0E94B50BC1520E
:10280000DF4F8881CF5DD040CD51DF4F9881C35ECF
:10281000D040C152DF4F9883CF5DD040C951DF4FC8
:102820009881C75ED040CD51DF4F9883C35ED040C2
:10283000C551DF4F9881CB5ED040C951DF4F98839F
:10284000C75ED040C551DF4F8883CB5ED040C052B9
:10285000DF4F8881C05ED040C851DF4F9881C85E8D
:10286000D040C052DF4F9883C05ED040C851DF4F88
:102870008883C85ED040CC51DF4F8881C45ED04091
:10288000C451DF4F9881CC5ED040CC51DF4F98834C
:10289000C45ED040C451DF4F8883CC5ED040CF515E
:1028A000DF4F8881C15ED040C351DF4F9881CD5E3C
:1028B000D040CF51DF4F9883C15ED040C751DF4F2A
:1028C0009881C95ED040C351DF4F9883CD5ED04020
:1028D000CB51DF4F9881C55ED040C751DF4F988301
:1028E000C95ED040CB51DF4F8883C55ED04040EBFE
:1028F00054E0BE0162527F4F8AE00E94C90B80E122
:10290000FE01E252FF4FA0E6B5E001900D928A95DC
:10291000E1F7CA5FDE4F28813981C650D1402115C9
:10292000310509F466C07201E20CF31C2D32310549
:1029300018F4D7011C925DC080E1FE01E252FF4F06
:10294000DE01A753BF4F01900D928A95E1F761E038
:1029500089EC90E08C0F9D1F40960E94A02349ECCB
:1029600050E04C0F5D1F4F5E5F4F61E170E0CE01A4
:1029700087539F4F0E947F248E0107531F4F312C96
:10298000C12CD12CF80191918F01292E22942FE096
:102990002222622D832DC25FDE4F9883CE50D1401C
:1029A0000E94F12237016C0C7D1CD3018C93C25F15
:1029B000DE4F9881CE50D1409F70392E692F822DE5
:1029C0000E94F122F3018183F2E0CF0ED11C2AE2B2
:1029D000C216D104B9F6F701E30DF11D8081D701CC
:1029E0009A968C939A978DE39B968C939B979C9643
:1029F0001C92C2010E944D0F0E94BB1F80E795E10F
:102A000090939803809397031092960310929503E6
:102A100048EC50E0B20180E00E94661DC12CD12C30
:102A2000760101E010E020E030E0A2016AE270E00F
:102A300080E090E00E94033920E0B501A401C201CA
:102A40000E941023F20101900020E9F73197E41968
:102A5000F509EE0FFF1FEE0FFF1F01E010E020E071
:102A600030E0A2016AE270E084E590E08E1B9F0BEB
:102A70000E9403390E94BB1FCF5EDE4F0FB6F89451
:102A8000DEBF0FBECDBFDF91CF911F910F91FF90A1
:102A9000EF90DF90CF90BF90AF909F908F907F90FE
:102AA0006F905F904F903F902F900895A091930367
:102AB000B0919403109799F01197B0939403A09359
:102AC0009303AA0FBB1FAA0FBB1FA857BB4FED91C3
:102AD000FC91119712968D919C91139709940895EA
:102AE000413011F40C9456150895DC019696ED9141
:102AF000FC9197974E9F90014F9F300D5E9F300D38
:102B00001124620F731F9B0143E0359527954A9569
:102B1000E1F79A964D915C919B972417350770F4D5
:102B2000FC01E20FF31F84A590E06770772702C0D5
:102B3000959587956A95E2F78170089580E00895EC
:102B4000CF93782F4115510561F4813009F04BC0C6
:102B5000623009F048C081E02230310509F043C0FD
:102B600043C02430310561F4813009F03CC061304C
:102B700009F039C081E04230510509F034C034C059
:102B8000862F90E064E0769F800D911D1124880FC0
:102B9000991F880F991F83509E4FFC01C491319655
:102BA0007491319664913196E4918E2F90E0A0E07B
:102BB000B0E0B82FAA2799278827972B8C2BA62B14
:102BC000220F331F220F331F41505109420F531F51
:102BD000440F551F04C0B695A795979587954A95BC
:102BE000D2F7837001C080E0CF9108952F923F9279
:102BF0004F925F926F927F928F929F92AF92BF920D
:102C0000CF92DF92EF92FF920F931F93CF93DF93B8
:102C1000E114F104D1F12701122F1B013C017A01CB
:102C2000812C912CC22DD32DA12CB12CD7FD1BC0F2
:102C3000F30186A197A18C179D07ACF0F7FC13C098
:102C400080A591A58E159F0574F09401A501602FB4
:102C5000812F0E94A015882331F0212FA701BE01EA
:102C6000C601F2010995FFEFAF1ABF0A219685E070
:102C7000A816B104D9F6EFEF8E1A9E0AFFEFEF1AED
:102C8000FF0A85E08816910469F6DF91CF911F91C4
:102C90000F91FF90EF90DF90CF90BF90AF909F90FB
:102CA0008F907F906F905F904F903F902F900895FE
:102CB000EF92FF920F931F93CF93DF930097C1F092
:102CC0008A017B01EC01EA85FB85309719F0888544
:102CD0009985099588A199A1E816F90649F48AA170
:102CE0009BA10817190721F485E090E09BA78AA70C
:102CF000DF91CF911F910F91FF90EF9008950F9367
:102D0000109271051092700501E09C0145E257E1B7
:102D100066E178E988E00E9495090F9108950F9384
:102D2000109271051092700501E09C0145E457E195
:102D300062E275EC87E00E9495090F9108950F9368
:102D40006230710509F441C0A0F46115710591F17B
:102D50006130710509F06BC00E942E2C61E070E0BB
:102D600089E197E10E949F1F60E070E08DEA90E0AA
:102D700038C06430710509F448C0B0F165307105A0
:102D800009F055C00E942E2C65E070E089E197E1C2
:102D90000E949F1F1092720580E00E943D2E86E6E1
:102DA0009EE290939803809397031092960310925B
:102DB00095033DC00E942E2C60E070E089E197E110
:102DC0000E949F1F0F910C948D2E0E942E2C62E06A
:102DD00070E089E197E10E949F1F60E070E088EB5E
:102DE00095EE0F910C94002C0E942E2C63E070E065
:102DF00089E197E10E949F1F01E020E030E045E477
:102E000057E162E275EC87E010C00E942E2C64E06E
:102E100070E089E197E10E949F1F01E020E030E02F
:102E200045E257E166E178E988E00E9495090F9153
:102E300008950F9300E09C014FE956E161E378EDBE
:102E400082E00E9495090F9108956130710549F063
:102E500020F06230710579F008950E942E2C0C94B8
:102E600056150E942E2C61E070E08FE796E10E94DB
:102E70009F1F0C9477360E942E2C62E070E08FE743
:102E800096E10E949F1F0C94FA28AF92BF92CF92B6
:102E9000DF92EF92FF920F931F93CF93DF93CDB703
:102EA000DEB7C85CD1090FB6F894DEBF0FBECDBF48
:102EB0006B01CE0101967C0188ECF70111928A9595
:102EC000E9F7672B29F40E942E2C0E94561546C064
:102ED00082E295EC0E94F7395C0108EC10E0970162
:102EE00041E050E0B601615071090E945822C501CD
:102EF0000E94683AF70101900020E9F73197EE1936
:102F0000FF093597A8F405E110E022E530E040E044
:102F100050E060E070E081E39BE40E94C8200E94E2
:102F2000BB1F68E873E180E090E00E94250B16C0AB
:102F30000E942E2CB6018FE896E10E949F1FC701C8
:102F40000E944D0F0E94BB1F80E795E1909398036C
:102F5000809397031092960310929503C853DF4F06
:102F60000FB6F894DEBF0FBECDBFDF91CF911F919A
:102F70000F91FF90EF90DF90CF90BF90AF900895AA
:102F8000CF93DF93CDB7DEB72B970FB6F894DEBFA4
:102F90000FBECDBF2BE0E9E2F1E0DE01119601901A
:102FA0000D922A95E1F7892B59F46A30710544F4A2
:102FB000E1E0F0E0EC0FFD1FE60FF71F808101C09C
:102FC0008FEF2B960FB6F894DEBF0FBECDBFDF910B
:102FD000CF910895CF93DF93CDB7DEB72B970FB680
:102FE000F894DEBF0FBECDBF2BE0E4E3F1E0DE01DD
:102FF000119601900D922A95E1F7892B59F46A30C8
:10300000710544F4E1E0F0E0EC0FFD1FE60FF71F5F
:10301000808101C08FEF2B960FB6F894DEBF0FBEF4
:10302000CDBFDF91CF9108950F931F93CF93DF937F
:1030300000D000D000D0CDB7DEB7DC011E821D82EB
:103040001C821B828AE689831A8255961C921E92E4
:10305000549759961C921E92589756968D919C9112
:103060005797892B69F150968D919C915197892B97
:1030700039F152968D919C915397892B09F11696AF
:10308000ED91FC9117973097D9F08D019E012D5F3E
:103090003F4FAE014B5F5F4FBE016F5F7F4F149696
:1030A0008D919C9115970995D80152968D919C917F
:1030B00053976B817C810E942E3EF801718F608F47
:1030C00026960FB6F894DEBF0FBECDBFDF91CF912D
:1030D0001F910F9108953F924F925F926F927F924E
:1030E0008F929F92AF92BF92CF92DF92EF92FF9218
:1030F0000F931F93CF93DF9300D000D01F92CDB7D3
:10310000DEB7E0E2ED831C821B821A821982211550
:10311000310519F48FEF9FEF93C029017A015B010C
:103120006C01A90160E070E0C7010E94833E370195
:1031300000E010E081E0481A510880E2382E0415C2
:10314000150508F04AC0D6011296ED91FC9113972F
:1031500021E030E0AE014B5F5F4FB8016A0D7B1D8F
:103160008D919C9109950197A9F68D81811101C0DE
:103170003D828D81893009F43D828D81F3018193F7
:103180003F014801FFEF8F1A9F0A8A3029F1D601CB
:1031900050962D913C915197C4018A0D9B1D821729
:1031A0009307D0F41696ED91FC9117979E012F5F2F
:1031B0003F4FAE014D5F5F4FB70114968D919C91CB
:1031C000159709952B813C81F60184859585821799
:1031D000930718F08401B3CF8401F701E00FF11FCA
:1031E00010820115110551F1D8011197AE0DBF1DC7
:1031F0008C918A3011F41C921FC08032C9F080E09B
:1032000090E02291203229F0019680179107C9F7AA
:103210000FC08017910760F4A00EB11ED601509622
:103220002D913C915197A216B30610F4081B190B6F
:10323000F701E00FF11F1082C80102C080E090E0AA
:103240000F900F900F900F900F90DF91CF911F91E3
:103250000F91FF90EF90DF90CF90BF90AF909F9035
:103260008F907F906F905F904F903F900895CF9296
:10327000DF92EF92FF920F931F93CF93DF9300D0D3
:1032800000D000D0CDB7DEB7DC011E821D821C82CB
:103290001B828AE689831A8253961C921E92529749
:1032A00055961C921E92549757961C921E925697B2
:1032B00050968D919C915197892B09F466C01C966C
:1032C0008D919C911D97892B09F45FC01E968D915D
:1032D0009C911F97892B09F458C012968D919C914F
:1032E0001397892B09F451C01696ED91FC9117970D
:1032F000309709F44AC08D019E012D5F3F4FAE010A
:103300004B5F5F4FBE016F5F7F4F14968D919C9115
:1033100015970995D8011E968D919C911F976B81E9
:103320007C810E942E3EF801778B668B672B69F1BA
:10333000E12CF12C6801FAE1CF0ED11CF801808953
:103340009189E816F906F8F4D80158962D913C9128
:1033500059972F5F3F4FA601B701C8010E946B1814
:1033600097FF04C0F801158A148A0FC0E80EF91EF1
:10337000D80154968D919C915597019655969C93A2
:103380008E935497DBCF138A128A26960FB6F89441
:10339000DEBF0FBECDBFDF91CF911F910F91FF9088
:1033A000EF90DF90CF900895CF92DF92EF92FF924F
:1033B0000F931F93CF93DF93EC01EA81FB8130974A
:1033C00019F0888199810995C884D984EA84FB849D
:1033D0000DA12CA140E050E060E070E0CE010E9421
:1033E000F6158E859F85892BB1F4CC80DD80EE802B
:1033F000FF804C8D5D8D6A8D7B8D0F8D2E8DCE0166
:103400000E94F615DF91CF911F910F91FF90EF90E1
:10341000DF90CF90089500E010E08EA19FA10817E3
:1034200019071CF7E12CF12C88A599A5E816F906D7
:103430005CF4A701B801CE010E947515811107C087
:103440008FEFE81AF80AF0CF0F5F1F4FE6CFEE8537
:10345000FF85A701B8018C859D850995F1CFCF9394
:10346000DF93EC01ECA1EE8F8DA18F8F2EA13FA1F8
:1034700037FF02C02F5F3F4F35952795F0E0E359A6
:10348000FD4F449190E0880F991F50E0082E02C034
:10349000559547950A94E2F740FF03C04DEF5FEF63
:1034A00002C04EEF5FEF240F351F3B8F2A8FE49150
:1034B000F0E0816002C0F595E7958A95E2F7E0FFBC
:1034C00003C08DEF9FEF02C08EEF9FEF9D8F8C8F1B
:1034D00066E070E0CE010E947F338CA363E070E071
:1034E000CE010E947F338DA3DF91CF910895CF93BA
:1034F000DF93009709F461C0EC01198E188E66E025
:1035000070E00E947F338E8F63E070E0CE010E94F6
:103510007F338F8F2EA13FA137FF02C02F5F3F4F18
:10352000A90155954795EE8DF0E0E359FD4F2491A3
:103530009927880F991F30E0082E02C035952795EE
:103540000A94E2F720FF03C02DEF3FEF02C02EEFF9
:103550003FEF240F351F3B8F2A8FE491F0E081600D
:1035600002C0F595E7958A95E2F7E0FF03C08DEF7D
:103570009FEF02C08EEF9FEF9D8F8C8F66E070E013
:10358000CE010E947F338CA363E070E0CE010E94E5
:103590007F338DA38EA19FA1059699A388A385E073
:1035A00090E09BA38AA34AA55BA560E070E0CE01F2
:1035B0008C960E94833E81E001C080E0DF91CF9134
:1035C00008952F923F924F925F926F927F928F92C7
:1035D0009F92AF92BF92CF92DF92EF92FF920F93A2
:1035E0001F93CF93DF9300D000D0CDB7DEB75C013F
:1035F0004B016A01122F7B011B0124E0220E311CBA
:10360000CA0104969A8389833701681879082E14B1
:103610003F040CF445C0DC82CB824B805C804C18AC
:103620005D0829813A818B819C8128173907A4F193
:10363000F7FC12C0F50186A197A1E816F90664F41B
:1036400080A591A52B813C81281739072CF48B810B
:103650009C8197FF0BC01AC09201A301602F812F9C
:103660000E94A015882399F380E01BC09201A3015A
:10367000602F812F0E94A015882341F04B815C812F
:10368000B701C5010E9475158111EECFEB81FC8158
:103690003196FC83EB83C1CF9FEFE91AF90AB4CFCF
:1036A00081E00F900F900F900F90DF91CF911F91BD
:1036B0000F91FF90EF90DF90CF90BF90AF909F90D1
:1036C0008F907F906F905F904F903F902F900895D4
:1036D0002F923F924F925F926F927F928F929F9222
:1036E000AF92BF92CF92DF92EF92FF920F931F9310
:1036F000CF93DF9300D000D000D0CDB7DEB79E834C
:103700008D83DC0198960D90BC91A02DBA83A9837E
:10371000C12CD12CE12CF12C44244394512C6981EF
:103720007A81C616D7060CF076C0AD81BE8196961A
:10373000AD90BC90979700E010E00A151B0564F46B
:10374000A601B8018D819E810E947515813009F016
:103750005EC00F5F1F4FF1CF0A151B0509F057C060
:103760000C9D10010D9D300C1C9D300C1124C601C8
:10377000612C712C181619060CF046C09301220D0D
:10378000331D812C912CFC0131975F01801691062D
:10379000BCF5A501B4018D819E812B833C830E94E1
:1037A00075152B813C81A401420F531FFA0193E050
:1037B000F595E7959A95E1F7AD81BE819A966D9161
:1037C0007C919B97E617F707B8F4EA0FFB1F477049
:1037D0005527811109C0C20101C0880F4A95EAF737
:1037E000809594A5892307C0C20101C0880F4A951E
:1037F000EAF794A5892B84A7BFEF8B1A9B0AC6CF43
:10380000C501601A710AB6CFFFEFEF1AFF0A4FEF3A
:10381000C41AD40A84CFB2E0EB16F104D1F058F404
:10382000EA94EF2851F5AD81BE8158968D919C9117
:10383000599701961BC043E0E416F10481F054E06F
:10384000E516F104D1F4ED81FE81808D918D4096D5
:1038500012C0ED81FE81808D918D04960CC0AD81EA
:10386000BE8158968D919C915997089659969C9334
:103870008E93589702C0918F808F26960FB6F8943A
:10388000DEBF0FBECDBFDF91CF911F910F91FF9093
:10389000EF90DF90CF90BF90AF909F908F907F90F0
:1038A0006F905F904F903F902F900895FC0166A11C
:1038B00077A120E030E026173707BCF4F90143E098
:1038C000F595E7954A95E1F7E80FF91F44A550E013
:1038D000F901E770FF2702C055954795EA95E2F791
:1038E00040FD05C02F5F3F4FE6CF80E0089581E0A7
:1038F00008952F923F924F925F926F927F928F9294
:103900009F92AF92BF92CF92DF92EF92FF920F936E
:103910001F93CF93DF9300D000D0CDB7DEB76C01FB
:103920005B017A01922F702F2501150124E0220EF0
:10393000311C4A0134E0830E911C66246394712C7F
:1039400082010A191B09241435040CF44BC0FC82B3
:10395000EB822B813C812E193F09EB81FC818E1675
:103960009F06E4F1A801672F892F7A8399830E942B
:10397000A0157A819981882359F1D60196964D91A7
:103980005C919797EB81FC81E49F9001E59F300D5E
:10399000F49F300D1124240D351DF90183E0F595B8
:1039A000E7958A95E1F79A964D915C919B97E4177C
:1039B000F50770F4EC0DFD1D27703327A30102C03D
:1039C000440F551F2A95E2F79A0184A5282B24A7B6
:1039D000AB81BC811196BC83AB83BBCFFFEF4F1A89
:1039E0005F0AAECF0F900F900F900F90DF91CF91A5
:1039F0001F910F91FF90EF90DF90CF90BF90AF900D
:103A00009F908F907F906F905F904F903F902F90FE
:103A10000895CF93DF93009711F1DC015296ED9159
:103A2000FC9153973097D9F0EC01488D598D415056
:103A3000510960E070E08889998909959DA38CA35C
:103A40004A8D5B8D41505109EA89FB8960E070E045
:103A50008889998909959FA38EA381E001C080E0A0
:103A6000DF91CF910895FC0180A991A93097A1F031
:103A700026A537A544A555A52417350720F0C9016B
:103A8000841B950B0895880F991F880F991F841B1D
:103A9000950B820F931F089580E090E0089597FDA5
:103AA00012C0892B19F477FF06C00AC0672B59F49E
:103AB00082E090E00895672B31F083E090E0089574
:103AC00081E090E0089580E090E00895CF92DF9249
:103AD000EF92FF920F931F93CF93DF93182F7B01E9
:103AE000EA0160E070E0C7010E94833E83EB92E14F
:103AF0000E94F7396C01612F70E08E01970140E060
:103B000050E00E945822CE0DDF1D21971882C60179
:103B10000E94683AC701DF91CF911F910F91FF90EA
:103B2000EF90DF90CF900895FB01EC58FD4F84910A
:103B300008950F931F93CF93DF93082F87E00E9480
:103B4000F50A60E086E00E94F50AC7E0D0E010E0E8
:103B5000B8010C2E02C0759567950A94E2F7617062
:103B600077278BE00E94F50A61E08DE00E94F50A5C
:103B700060E08DE00E94F50A219750F761E086E051
:103B8000DF91CF911F910F910C94F50A0C945F0B6C
:103B9000EF92FF920F931F93CF93DF93D62F9C0149
:103BA0003327F901EC55FE4F8491F901E057FE4FA0
:103BB000F490F901E458FE4FC491062F10E0CC2395
:103BC00071F081110E94CC0AEC2FF0E0EE0FFF1F84
:103BD000E05AFE4EA591B491EC91EF21F1F4F80179
:103BE000EC57FE4F808181111EC081E080830E94CE
:103BF0005F0B000F111F000F111FF801E858FE4F57
:103C00006083718382839383E0919703F09198039B
:103C1000309709F447C041E030C0F801EC57FE4F3F
:103C20008081811136C0C8018C579E4F7C01FC01F8
:103C300080818130B9F50E945F0B000F111F000FCA
:103C4000111FF801E858FE4F008111812281338154
:103C5000DC01CB01801B910BA20BB30B893E93407F
:103C6000A105B105F8F082E0F7018083E0919703A8
:103C7000F09198033097B1F042E06D2F8091950359
:103C800090919603DF91CF911F910F91FF90EF904C
:103C900009941082E0919703F0919803309711F006
:103CA00040E0EBCFDF91CF911F910F91FF90EF900C
:103CB000089560E082E090E00E94C81D61E083E02A
:103CC00090E00E94C81D62E084E090E00C94C81D62
:103CD0000F931F93CF93DF93CDB7DEB72B970FB61C
:103CE000F894DEBF0FBECDBF8C014BE050E0BE01AB
:103CF0006F5F7F4F82E00E94661D4AE050E0BE0188
:103D00006F5F7F4FC8010E945B3E21E0892B09F065
:103D100020E0822F2B960FB6F894DEBF0FBECDBFEA
:103D2000DF91CF911F910F910895EF92FF920F9322
:103D30001F93CF93DF93EC018B017C01E40EF51E02
:103D4000CE15DF0541F0F80161918F01CE010E948F
:103D5000BD3D2196F5CF81E0DF91CF911F910F916D
:103D6000FF90EF900895CF92DF92EF92FF920F9322
:103D70001F93CF93DF9397FD18C069017A018B01E0
:103D8000EC0140E050E00E94BA370817190769F4C7
:103D9000A601B701CE01DF91CF911F910F91FF9046
:103DA000EF90DF90CF900C943D378FEF9FEFDF9136
:103DB000CF911F910F91FF90EF90DF90CF900895DA
:103DC0008EE480937C0062E070E080E090E00E94EE
:103DD000250B80917A00806480937A0080917A002C
:103DE00086FDFCCF209178008091790030E0382B5F
:103DF000032E000C440B550B64EB7BE281E190E059
:103E00000E94CB3DC90108950F931F93CF93DF9379
:103E1000CDB7DEB7A2970FB6F894DEBF0FBECDBF09
:103E20000E94E01E843C29E0920768F08C383AE05A
:103E3000930758F0803F2AE0920748F084359B4072
:103E400040F483E007C080E005C081E003C082E069
:103E500001C084E001E010E0980102C0220F331F8E
:103E60008A95E2F7C90181508093750525E030E01D
:103E700040E050E060E070E0CB010E948F0A01C09A
:103E8000000F6A95EAF70150009374058091700560
:103E90008823D9F142E250E060ED71E0CE01019655
:103EA0000E94AC3D8EE690E39A8789878FE592E683
:103EB0009C878B8781E692E79E878D8785E39DE7C8
:103EC000A0E08F87988BA98B80917305E82FF0E095
:103ED000F595E79521E030E02C0F3D1FE20FF31F31
:103EE000208180FD06C030E094E0359527959A95B5
:103EF000E1F7209374058F5F809373058232A0F001
:103F000010927105109270050FC0809171058F5F3E
:103F10008E3118F48093710507C0109271051092CC
:103F2000730581E080937005A2960FB6F894DEBF0A
:103F30000FBECDBFDF91CF911F910F9108952091BA
:103F40009303309194032A30310588F4F901EE0F80
:103F5000FF1FEE0FFF1FE857FB4F91838083738392
:103F600062832F5F3F4F3093940320939303089510
:103F700060E00C94991DCF93DF9380E80E94B81FF6
:103F800080E40E94B81FCDE8D1E061E089910E94F1
:103F9000991D83E0C538D807C1F7DF91CF91089507
:103FA000F4E5F69F9001F79F300D1124820F931FC7
:103FB00060EA72E00E94423EF69F9001F79F300D4A
:103FC000112464E570E00E94423EF901E80FF91FF8
:103FD000E83F81E0F80788F4E357FE4F81E090E086
:103FE00001C0880F6A95EAF7442319F09081892B64
:103FF00003C0809590818923808308950F931F9338
:10400000FB01BA0141E0012B022B032B09F440E034
:10401000CF011F910F910C94D01F2F923F924F927E
:104020005F926F927F928F929F92AF92BF92CF9248
:10403000DF92EF92FF920F931F93CF93DF93CDB751
:10404000DEB728970FB6F894DEBF0FBECDBF3B0199
:104050002A01302F512F20320CF420E2812C912C98
:104060002052822F90E0880F991F8C0105591E4E17
:10407000BC0166597E4E78876F83F801849180FF7A
:1040800003C0C401019701C0C401009719F4EF8176
:10409000F8851BC08130910519F4EF81F8851CC0AB
:1040A0008230910571F4EF81F8859491F8012491A3
:1040B0009370F4E09F9FC0011124922F9270892B7E
:1040C00010C08330910529F4F801849182958F7096
:1040D00007C0049721F4F8018491869501C080E01F
:1040E0008E70212C312C682F70E07A836983C40193
:1040F000840D951D9C838B8383E090E08219930946
:10410000E981FA8102C0F595E7958A95E2F7E0FD2D
:1041100003C0C501D60103C0C701A32FB52F41E0DD
:10412000892B8A2B8B2B09F440E06B817C81C101A8
:10413000860D971D3D835E830E94D01FFFEF2F1ACF
:104140003F0A3D815E8144E024163104A9F66FEFF9
:10415000861A960A76E08716910409F08ECF289683
:104160000FB6F894DEBF0FBECDBFDF91CF911F9188
:104170000F91FF90EF90DF90CF90BF90AF909F9006
:104180008F907F906F905F904F903F902F90089509
:104190002F923F924F925F926F927F928F929F9257
:1041A000AF92BF92CF92DF92EF92FF920F931F9345
:1041B000CF93DF9300D000D01F92CDB7DEB72B0195
:1041C0007A0149010E94F7396C01198298012E0D7C
:1041D0003F1D3D832C838701612C712CA12CB12CB8
:1041E0002C813D8102171307E1F1E12CF12C130121
:1041F00081E0281A3108E814F90461F1C1018E192F
:104200009F099C01277033273B832A83C7018A0DAE
:104210009B1D87709927892B51F441E050E0BE0126
:104220006F5F7F4FC6010E943D370197D1F44981EE
:1042300050E00A8002C0559547950A94E2F7417014
:10424000B801C701840D951D0E94D01F3FEFE31AEE
:10425000F30AD1CF0F5F1F4FA80CB91C681879085B
:10426000BFCFC6010E94683A0F900F900F900F9039
:104270000F90DF91CF911F910F91FF90EF90DF9002
:10428000CF90BF90AF909F908F907F906F905F90F6
:104290004F903F902F900895AF92BF92CF92DF92B0
:1042A000EF92FF920F931F93CF93DF93A82EB090BE
:1042B0007405811108C0B0907505C1E0D0E04EE4EE
:1042C000C42ED12C04C0C0E0D0E0C12CD12CE12CF4
:1042D000F12C870126E230E046E050E060E070E03B
:1042E000C6010E94BD38CC0EDD1ECC0EDD1EB3FE15
:1042F0000DC0E12CF12C8701E39427E030E044E08D
:1043000050E060E070E0C6010E94BD38CC0EDD1EBA
:10431000B2FE0DC0E12CF12C8701E39427E030E0E0
:1043200043E050E068E070E0C6010E94BD38CC0D6B
:10433000DD1DB1FE0DC0E12CF12C8701E39427E0D7
:1043400030E042E050E060E170E0CE010E94BD3814
:10435000B0FE0DC0E12CF12C8701E39426E030E0A3
:1043600042E050E068E170E0CE010E94BD38A1104B
:104370000CC0BE016250710906E010E024E030E09C
:104380004FE150E089EE94EA09C006E010E025E034
:1043900030E04FE150E0BE018DE69CE50E94C82070
:1043A000DF91CF911F910F91FF90EF90DF90CF9011
:1043B000BF90AF90089588EF91E0EDE8F1E0DF0164
:1043C0009C011D9221503040E1F708950C94DB21AF
:1043D0008F929F92AF92BF92EF92FF920F931F9393
:1043E000CF93DF93E0919605F0919705309799F17F
:1043F000E0909805F0909905A4E9B5E0C0E0D0E020
:10440000CE15DF0541F11C9614960D911C91159760
:10441000012BF9F479018A014B015C01809194052B
:104420009091950509952CE02C9FF0012D9FF00DA2
:104430001124EC56FA4F62877387848795878682AA
:104440009782A086B186F786E686118B008BCE0117
:1044500004C02196D5CF8FEF9FEFDF91CF911F91B1
:104460000F91FF90EF90BF90AF909F908F90089525
:104470000F931F93CF93DF938C0142E050E060E0F5
:1044800070E00E94BA37EC0197FF03C080E090E033
:104490000AC040E050E060E070E0C8010E94BA3716
:1044A000892BA1F7CE01DF91CF911F910F91089534
:1044B0002F923F924F925F926F927F928F929F9234
:1044C000AF92BF92CF92DF92EF92FF920F931F9322
:1044D000CF93DF9300D000D01F92CDB7DEB74C0151
:1044E0007D836C831A016901F90110820E943822D0
:1044F0009B838A831982C114D10409F45AC001151F
:10450000110509F456C0F6011082612C712CE12CC2
:10451000F12CA12CB12C412C512C2A813B8162160B
:10452000730609F446C021E030E0AE014F5F5F4FF3
:10453000B301C4010E94B31E0197D9F58981A21469
:10454000B30419F52C813D8142165306F1F48C32E7
:1045500081F18A3071F1882361F1E016F10630F0C3
:104560000C0D1D1DF8013197108223C0F601EE0DD0
:10457000FF1D80833FEFE31AF30AE016F10680F790
:10458000F601EE0DFF1D108210C08C3221F48FEF6A
:10459000A81AB80A0AC08A3031F49FEF491A590A9A
:1045A000A12CB12C02C0882321F0EFEF6E1A7E0AF5
:1045B000B4CF0F900F900F900F900F90DF91CF918D
:1045C0001F910F91FF90EF90DF90CF90BF90AF9031
:1045D0009F908F907F906F905F904F903F902F9023
:1045E000089580FF12C081FD0AC06A3010F480E394
:1045F00011C06A3089F06B3089F083E40BC082FD12
:1046000002C08BE407C08BE605C082FD02C081E4D6
:1046100001C081E6860F08958FE508958DE2089523
:104620004F925F926F927F92AF92BF92CF92DF9242
:10463000EF92FF920F931F93CF93DF93EC016A01E8
:104640007B01022F4AE050E060E370E00E94833E6D
:104650001A861AE08AE0482E512C612C712CC11464
:10466000D104E104F10481F011505E01A10EB11CEE
:10467000C701B601A30192010E94FD3D605DF501F5
:10468000608369017A01EBCF011124C060E0FE0173
:10469000E60FF11D8081803311F46F5FF8CF6A302F
:1046A00009F469E070E04BE050E0461B570B6C0FDB
:1046B0007D1FCE01DF91CF911F910F91FF90EF9061
:1046C000DF90CF90BF90AF907F906F905F904F90B2
:1046D0000C94713EDF91CF911F910F91FF90EF905D
:1046E000DF90CF90BF90AF907F906F905F904F9092
:1046F0000895CF93DF93D82F0E949E3D2D2F2370D6
:10470000206420937C0020917A00206420937A001A
:1047100080917A0086FDFCCF80917800C62FC82753
:104720000E94E01ED0FF982FC9270E945F0BD1FF87
:1047300002C0872F01C0862F8C27DF91CF9108956B
:10474000EF92FF921F93CF93DF931F92CDB7DEB707
:10475000182F7C018E2D811B861740F469830E94DF
:104760007923F70181937F016981F4CF0F90DF9165
:10477000CF911F91FF90EF9008950F931F93CF93C8
:10478000DF93CDB7DEB76B970FB6F894DEBF0FBEE1
:10479000CDBF8C01BE016F5F7F4F80E090E00E9433
:1047A000963A8823C1F1CE0101960E94681E8111BC
:1047B00038C04BE050E0BE016F5E7F4F82E00E9448
:1047C000661D8AE0FE017196DE01119601900D9240
:1047D0008A95E1F764E0CE010D960E94A0231C8625
:1047E0001B8640E150E0BE016F5F7F4F80E090E0AC
:1047F0000E94951E882379F0BE016F5F7F4F80E095
:1048000090E00E94963A882331F0CE0101960E94F2
:10481000681E811106C0F801108211821282138273
:1048200009C08D859E85AF85B889F8018083918305
:10483000A283B3836B960FB6F894DEBF0FBECDBFD5
:10484000DF91CF911F910F910895EF92FF920F93F7
:104850001F93CF93DF93CDB7DEB760970FB6F89471
:10486000DEBF0FBECDBF009176011091770180E1D0
:10487000E82EF12C60E1CE0101960E94A023E09188
:104880008701F091880140E150E0BE016F5F7F4FEA
:10489000C701099580E1E80EF11C80EEE81683E07F
:1048A000F80641F7DE01119620E030E08AEAF901CE
:1048B0003496E00FF11F9491982792279D932F5FD4
:1048C0003F4F2031310599F7F80174968491E091BA
:1048D0008701F091880140E150E0BE016F5F7F4F9A
:1048E00090E0099560960FB6F894DEBF0FBECDBF7D
:1048F000DF91CF911F910F91FF90EF9008958F92CC
:104900009F92AF92BF92CF92DF92EF92FF920F935E
:104910001F93FA011082118212821382680F791F8D
:1049200086179707A1F1C080D180E280F380DC0177
:104930000D91CD010C2510E020E030E048E050E082
:1049400000FD09C0B0E28B2EB3E89B2EB8EBAB2E76
:10495000BDEEBB2E03C0812C912C540136952795BA
:1049600017950795082519252A253B2541505109FA
:1049700039F7CD2CDE2CEF2CFF24F0940C251D25CF
:104980002E253F250083118322833383C9CF1F91B6
:104990000F91FF90EF90DF90CF90BF90AF909F90DE
:1049A0008F9008958F929F92AF92BF92CF92DF9295
:1049B000EF92FF920F931F93CF93DF935C016B01F4
:1049C0008A0179012091760530917705E216F30688
:1049D00020F0E0907A05F0907B05C216D306C0F572
:1049E000C7018C0D9D1D2817390718F47901EC18A3
:1049F000FD08E114F10479F1609178057091790571
:104A00006C0D7D1D40E050E0C5010E94BA37E80101
:104A100000E010E08AE0982E9DE2892E41E050E00F
:104A2000BE01C5010E943D37019781F488818C3217
:104A300039F48AE0C816D10410F4888201C0988243
:104A40000F5F1F4F21960E151F0541F7C80105C0C6
:104A50008FEF9FEF02C080E090E0DF91CF911F9138
:104A60000F91FF90EF90DF90CF90BF90AF909F900D
:104A70008F900895CF92DF92EF92FF920F931F9342
:104A8000CB01BA01A901C12CD12C760101E010E0C3
:104A900020E030E00E9403391F910F91FF90EF90CA
:104AA000DF90CF900895EF92FF920F931F93CB0169
:104AB000880F991F860F971FBA01660F771F460F41
:104AC000571FBA016E5F7F4FE12CF12C8701E394F1
:104AD00023E030E043E050E002960E94BD381F9191
:104AE0000F91FF90EF9008954115510571F0FB0172
:104AF00001900020E9F73197E61BF70BEE0FFF1F3F
:104B0000EE0FFF1FDA01ED93FC932115310529F01B
:104B100086E090E0F901918380830895CF93DF933D
:104B2000E0917A05F0917B05E901E217F30708F4BB
:104B3000EF016E177F07B8F4CE01860F971FE817B5
:104B4000F90718F4EF01C61BD70B209779F0CA01BB
:104B500020917C0530917D05620F731FAE010E948C
:104B6000683ECE0105C08FEF9FEF02C080E090E06D
:104B7000DF91CF910895CB01880F991F860F971F62
:104B8000BA01660F771F460F571FBA016E5F7F4F3E
:104B900023E030E043E050E002960C947B3995E04E
:104BA000969FF001979FF00D11244F5F5F4F949FE8
:104BB000B001959F700D112425E030E045E050E0F4
:104BC000CF018C960C947B390F931F93CF93DF9377
:104BD0000E94DB21C0918B03D0918C03209709F4B4
:104BE00040C0CE010E94561C8130D9F10F8D10E0DB
:104BF0004C8D5D8D4F5F5F4F6A8D7B8D2E8DCE010D
:104C00000E94E11A4C8D5D8D813029F44F5F5F4F1A
:104C10005D8F4C8F23C06A8D7B8D0F8D2E8DCE01C5
:104C20000E94791CCE010E94681BCE010E94561C76
:104C3000813089F4CE010E94D419088D198DCE01DE
:104C40000E94771AEE89FF89309759F0B8018C8954
:104C50009D89099506C0CE010E942F1ACE010E949F
:104C6000D4198091040190910501019631F0DF91F2
:104C7000CF911F910F910C94BB1FDF91CF911F918A
:104C80000F91089580910401909105010E94B43A1A
:104C90008FEF9FEF9093050180930401409189036A
:104CA00050918A0360E070E080918B0390918C03B7
:104CB0000C94833ECF93DF93EB010E94422660E089
:104CC00070E08CE699E20E949F1FBE018AEADF91A4
:104CD000CF910C9449110F931F93CF93DF936111E0
:104CE00034C0423041F40E944226DF91CF911F919F
:104CF0000F910C945615413009F0BBC0C0918B0345
:104D0000D0918C032097D9F0CE010E94561C81309F
:104D1000B1F00F8D10E04C8D5D8D6A8D7B8D6150F3
:104D200071092E8DCE010E94E11A813041F48A8DE5
:104D30009B8D01979B8F8A8FCE010E94D419DF91A2
:104D4000CF911F910F910C94BB1F623001F5413040
:104D500009F08FC0C0918B03D0918C03209779F319
:104D6000CE010E94561C813051F30F8D10E04C8D06
:104D70005D8D6A8D7B8D6F5F7F4F2E8DCE010E9482
:104D8000E11A8130E1F68A8D9B8D0196D3CF613097
:104D900009F06FC0411123C0C0918B03D0918C03E7
:104DA000209769F2CE010E94561C813041F20F8D8E
:104DB00010E00F5F1F4F037011274C8D5D8D6A8DC2
:104DC0007B8D2E8DCE010E94E11A813009F0B7CF84
:104DD0008F8D90E00196837099278F8FADCF4230F1
:104DE00009F047C0C0918B03D0918C03209709F440
:104DF000A6CFCE010E94561C813009F4A0CF0F8DA2
:104E000010E04C8D5D8D4F5F5F4F6A8D7B8D2E8DD9
:104E1000CE010E94E11A4C8D5D8D813029F44F5FE7
:104E20005F4F5D8F4C8FEBCF6A8D7B8D0F8D2E8DFD
:104E3000CE010E94791CCE010E94681BCE010E9407
:104E4000561C813091F4CE010E94D419088D198D21
:104E5000CE010E94771AEE89FF89309709F46FCF4F
:104E6000B8018C899D8909956ACFCE010E942F1ABD
:104E700063CFDF91CF911F910F9108959A012F5F1A
:104E80003F4F032E000C440B550B072E000C880BD4
:104E9000990B0E948F0ACB0108950F931F93CF9314
:104EA000DF9310927B0510927A0510927D05109287
:104EB0007C05C0918901D0918A0100918B011091EC
:104EC0008C01CB31D10550F0AE0160E070E0C8013B
:104ED0000E94833E6B97F801D18FC08F80918B0128
:104EE00090918C01009759F022E530E0FC01358764
:104EF000248720E330E0378726870E943719809186
:104F00008B0190918C01009749F024E735E2FC0178
:104F100037832683158214820E94371980918B0172
:104F200090918C01009749F02AE335E2FC01338728
:104F30002287118610860E9437198AEB98E2909397
:104F40009803809397031092960310929503DF9134
:104F5000CF911F910F9108958F929F92AF92BF9220
:104F6000CF92DF92EF92FF920F931F93CF93DF9335
:104F700000D000D000D0CDB7DEB70E94DB21009179
:104F80008B0110918C011E821D821C821B828AE67D
:104F900089831A820115110541F4E0918B01F0918A
:104FA0008C01309709F066C08BC0D8011A968D919C
:104FB0009C911B97892B89F31696ED91FC9117977D
:104FC000309759F312968D919C911397892B29F361
:104FD0009E012D5F3F4FAE014B5F5F4FBE016F5F84
:104FE0007F4F14968D919C9115970995A12CB12C0A
:104FF000E12CF12CC12CD12C4801BAE18B0E911C73
:10500000F80180899189E816F90638F6F801208DB3
:10501000318D2F5F3F4FA401B701C8010E946B186B
:1050200097FDBBCFE80EF91ED80152962D913C9109
:105030005397C216D306D0F056968D919C915797F0
:10504000820F931FC816D90688F41A96ED91FC9129
:105050001B979401A50160E070E018968D919C91DA
:10506000199709958B819C81A80EB91EBFEFCB1AA9
:10507000DB0AC6CFE288F3880489158946895789F7
:1050800040175107E8F430E3349FC001359F900D7D
:105090001124B8010E942E3EFB013E9DC0013F9DA0
:1050A000900D1124B8010E942E3EE12CF12C8701B5
:1050B000E3949F0142E050E082E590E00E94BD3819
:1050C00026960FB6F894DEBF0FBECDBFDF91CF910D
:1050D0001F910F91FF90EF90DF90CF90BF90AF9016
:1050E0009F908F900895EF92FF920F931F93CF930D
:1050F000DF938C01EB010E944D27BE01C8010E9485
:10510000CC3A9093790580937805BE01C8010E943E
:10511000CC3A7C01BE016F5F7F4FC8010E94CC3A40
:10512000F7FC07C08E159F0524F09C012E193F093E
:1051300002C020E030E03093770520937605E091BF
:105140008B01F0918C01309759F0318B208B82EDDF
:1051500094E29383828311830083CF010E943719E5
:105160000E94AC27DF91CF911F910F91FF90EF909C
:105170000C94BB1F611103C0423069F507C0413078
:10518000C1F5613019F0623019F008950C9456158C
:10519000E0918B01F0918C01309721F40E94AC27B3
:1051A0000C94BB1F22893389468957898489958944
:1051B0008417950718F4138A128AF0CF2F5F3F4F98
:1051C000841B950B2817390718F0938B828BE6CF39
:1051D000338B228BE3CF413061F4E0918B01F0916E
:1051E0008C013097D9F2828993890097B9F201979F
:1051F000ECCF08950F931F93CF93DF93C091890352
:10520000D0918A0300918B0310918C03CD32D1058C
:1052100050F0AE0160E070E0C8010E94833EAC97A0
:10522000F801D3A7C2A7E0918B03F0918C033097CC
:1052300091F182A593A5419740F08AE090E097A371
:1052400086A38EE090E091A780A785EA93E39383FD
:1052500082838AEF95E0918380832BEB35E237835D
:105260002683958384832FEC35E2338722879187C9
:10527000808723E535E237872687958784878EE305
:1052800097E2938B828B118A108A8AE596E2978B3C
:10529000868B158A148A8BE696E290939803809306
:1052A000970310929603109295039F0144EE55E2E6
:1052B0006CEB72E080E090E00E94E82190930501A1
:1052C0008093040180918B0390918C03DF91CF91A7
:1052D0001F910F910C94771A0C94FA287F928F9259
:1052E0009F92AF92BF92CF92DF92EF92FF920F9375
:1052F0001F93CF93DF935B01EA014901702ECC2409
:10530000C3940C1511F0C12C0FC0E12CF12C8701B6
:10531000E39429E030E048E350E0BE01675F7F4F4F
:10532000C5010E960E94BD38D12CE12CF12C01E074
:1053300010E020E030E081E0781203C000E010E0EF
:105340009801BE01655F7F4FA401C50140960E9490
:105350000339DF91CF911F910F91FF90EF90DF9074
:10536000CF90BF90AF909F908F907F9008950F93B4
:105370001F93DC01FA01A7FF0BC06115710529F429
:105380008EE280838183128209C0615071098F7718
:1053900089019F0140E050E00E9458221F910F9127
:1053A00008954115510579F0FB0101900020E9F7BE
:1053B0003197E61BF70BEE0FFF1FEE0FFF1F349622
:1053C000DA01ED93FC932115310529F089E090E095
:1053D000F9019183808308952F923F924F925F92BB
:1053E0006F927F928F929F92AF92BF92CF92DF92F5
:1053F000EF92FF920F931F93CF93DF9300D000D0D3
:105400001F92CDB7DEB719821A821B821C820E94BE
:10541000DB2140919103509192034E5F5F4FC12C6D
:10542000D12C760101E010E020E030E061E070E096
:1054300082E190E00E94033952E0452E512C912CDC
:1054400080E3890D8D8389E0682E712C812CE09199
:105450009103F091920391100EC08CE389839DE239
:105460009A839B83808149E0242E312CA12CB12C7E
:10547000882371F127C084E0981210C095E49983C5
:105480008EE48A8394E59B83808129E0222E312C4F
:1054900035E4A32EB12C8430A9F41AC080E28983AC
:1054A0009D819A3339F0892F9B3331F09C3329F455
:1054B00083E203C08AE201C080E38A8380E28B83B7
:1054C000130152018081981212C0818188120FC08D
:1054D000E12CF12C8701E39429E030E04FE050E02B
:1054E000B101C5010E94BD3811E000E00AC029E009
:1054F00030E04FE050E0B101C5010E947B3910E07F
:1055000001E01C8240E0B101C5010E94D01F75017D
:105510009EE0E90EF11C40E0B101C7010E94D01FDE
:10552000610188E0C80ED11C40E0B601C5010E94AF
:10553000D01F40E0B601C7010E94D01FC12ED12C60
:10554000E12CF12C10E020E030E0B1016E5F7F4FE4
:10555000AE014F5F5F4FC50102960E9403398394ED
:105560009D819D5F9D83C3010A963C0194E0891251
:105570006ECF939480E1480E511C95E0991260CF54
:105580000F900F900F900F900F90DF91CF911F9180
:105590000F91FF90EF90DF90CF90BF90AF909F90D2
:1055A0008F907F906F905F904F903F902F900895D5
:1055B000AF92BF92DF92EF92FF920F931F93CF9320
:1055C000DF93CDB7DEB768970FB6F894DEBF0FBE96
:1055D000CDBF611106C0423009F0F2C00E945615DD
:1055E000FFC0413009F0FCC0613079F0623009F051
:1055F000F7C0E0919103F091920380818F5F853035
:1056000010F48083C4C01082C2C0A0919103B091F5
:10561000920311962C9111979C919923F9F2943051
:1056200099F0905D822F880F280F920F9A3309F41A
:10563000D5C09B3309F4B0C09C3309F4BFC0992393
:1056400069F2913009F0A9C08D010E5F1F4F84E10E
:10565000EEE7F5E0DF011D928A95E9F7E12CF12CE8
:10566000F701E15CFE4F5F01D08044E150E0BE01F4
:105670006F5F7F4F8D2D0E94661DBE016F5F7F4F54
:10568000C8010E94953E892B09F06FC060E070E070
:1056900084EA9EE20E949F1F44E150E06EE775E0BD
:1056A000D50111968C910E94661DB9E0DB120DC0E8
:1056B00080E390E30E94F7399093070180930601FD
:1056C00060E070E00E9473288BC0EAE0DE1222C026
:1056D0001D8A1E8A1F8A188ECE0145960E94BD2300
:1056E00083E380937E0595E390937F058093800507
:1056F00094E39093810580938205909383054D896F
:105700005E896F89788D21E084E895E00E941023FE
:1057100010928E050E944D27EEE7F5E0F0937D058F
:10572000E0937C0501900020E9F73197EE57F540B2
:10573000F0937B05E0937A05A0918B01B0918C01E9
:10574000109781F05196FC93EE9350978EE895E276
:1057500013969C938E93129711961C921E92CD01D4
:105760000E9437190E94AC2714C0F2E0EF0EF11C22
:1057700088E0E816F10409F073CFE0919103F0910D
:10578000920332968DE0DF011D928A95E9F70E941F
:10579000EC290E94BB1F24C090E39D012E5F3F4F68
:1057A000F90101900020E9F73197E21BF30BEC308F
:1057B000F10568F7EA0FFB1F9283E9CF93E2EDCF83
:1057C000413071F4E0919103F091920381818F5FF8
:1057D000843010F48183DBCF1182D9CF9AE2DDCF00
:1057E00068960FB6F894DEBF0FBECDBFDF91CF91A4
:1057F0001F910F91FF90EF90DF90BF90AF900895B1
:105800000F93CF93DF93EB012091080130910901B1
:1058100037FF0CC0009751F0909393058093920549
:105820000E94F739909309018093080160919205D5
:105830007091930501E09E0143E55CE286E00E94E1
:105840009509DF91CF910F910895109271051092F3
:105850007005BC0180E090E00C94002C8091000168
:10586000909101010E94B43A8FEF9FEF9093010154
:1058700080930001809102019091030197FF0E94A3
:10588000683A8FEF9FEF909303018093020140915C
:10589000A7035091A80360E070E08091A503909168
:1058A000A6030C94833ECF93DF93EB01209791F4F2
:1058B0000E942E2C80910801909109010E94683A63
:1058C0008FEF9FEF9093090180930801DF91CF91B3
:1058D0000C9456150E942E2CBE0185E29CE20E947B
:1058E0009F1FBE01615071098091080190910901CB
:1058F000DF91CF910C9473284F925F926F927F92B9
:105900008F929F92AF92BF92CF92DF92EF92FF92CF
:105910000F931F93CF93DF93CDB7DEB72E970FB6BC
:10592000F894DEBF0FBECDBF1E861D861C861B866B
:105930000E94DB21E12CF12C8701E39425E030E08B
:1059400043E550E065E070E080E090E00E940438BC
:105950009E01235F3F4FAE01455F5F4F69E973E0F2
:1059600080E090E00E94D1294B855C8584E590E041
:10597000841B950B969587959E878D87E12CF12C3E
:10598000870129E030E060E070E00E94BD388D853D
:105990009E85C12CD12C760101E010E020E030E0A2
:1059A00049E953E062E070E002960E94033980E02A
:1059B0000E944C2181E00E944C21E090A503F090D0
:1059C000A6031A86198618861F828AE68D831E8290
:1059D000E114F10441F4E091A503F091A60330979E
:1059E00009F0B8C0E7C0D70112968D919C9113972A
:1059F000892B89F31696ED91FC911797309759F3FF
:105A00001A968D919C911B97892B29F39E01295FF2
:105A10003F4FAE01475F5F4FBE016B5F7F4F1496F4
:105A20008D919C9115970995F70184899589608DD1
:105A3000718D0E942E3E3B014C01A12CB12C6701BF
:105A4000FCE1CF0ED11CF701808D918DA816B9060F
:105A500010F6689E8001699E100D789E100D11242D
:105A60000A0D1B1DD70156968D919C9157970817CB
:105A7000190708F0B0CF1C821B821A8219825A962D
:105A80004D905C905B97A20160E070E0C6010E94BF
:105A9000833E920121503109D7011296ED91FC917C
:105AA0001397A601B8018D919C910995D7015A963B
:105AB000ED91FC915B97EE0DFF1D138E1696ED9107
:105AC000FC9117979E012D5F3F4FAE014F5F5F4FD7
:105AD000B60114968D919C911597099529813A816B
